{
  "_format": "hh-sol-artifact-1",
  "contractName": "Web3TorrentFactory",
  "sourceName": "contracts/Web3TorrentFactory.sol",
  "abi": [
    {
      "inputs": [],
      "stateMutability": "nonpayable",
      "type": "constructor"
    },
    {
      "anonymous": false,
      "inputs": [
        {
          "indexed": true,
          "internalType": "uint256",
          "name": "deploymentId",
          "type": "uint256"
        },
        {
          "indexed": true,
          "internalType": "address",
          "name": "deployer",
          "type": "address"
        },
        {
          "indexed": false,
          "internalType": "address",
          "name": "coreContract",
          "type": "address"
        }
      ],
      "name": "SystemDeployed",
      "type": "event"
    },
    {
      "inputs": [
        {
          "internalType": "uint256",
          "name": "",
          "type": "uint256"
        }
      ],
      "name": "coreContracts",
      "outputs": [
        {
          "internalType": "address",
          "name": "",
          "type": "address"
        }
      ],
      "stateMutability": "view",
      "type": "function"
    },
    {
      "inputs": [],
      "name": "deploySystem",
      "outputs": [
        {
          "internalType": "uint256",
          "name": "",
          "type": "uint256"
        }
      ],
      "stateMutability": "nonpayable",
      "type": "function"
    },
    {
      "inputs": [],
      "name": "deploymentCounter",
      "outputs": [
        {
          "internalType": "uint256",
          "name": "",
          "type": "uint256"
        }
      ],
      "stateMutability": "view",
      "type": "function"
    },
    {
      "inputs": [
        {
          "internalType": "uint256",
          "name": "deploymentId",
          "type": "uint256"
        }
      ],
      "name": "getCoreContract",
      "outputs": [
        {
          "internalType": "address",
          "name": "",
          "type": "address"
        }
      ],
      "stateMutability": "view",
      "type": "function"
    },
    {
      "inputs": [
        {
          "internalType": "address",
          "name": "user",
          "type": "address"
        }
      ],
      "name": "getUserDeployments",
      "outputs": [
        {
          "internalType": "uint256[]",
          "name": "",
          "type": "uint256[]"
        }
      ],
      "stateMutability": "view",
      "type": "function"
    },
    {
      "inputs": [],
      "name": "owner",
      "outputs": [
        {
          "internalType": "address",
          "name": "",
          "type": "address"
        }
      ],
      "stateMutability": "view",
      "type": "function"
    },
    {
      "inputs": [
        {
          "internalType": "address",
          "name": "",
          "type": "address"
        },
        {
          "internalType": "uint256",
          "name": "",
          "type": "uint256"
        }
      ],
      "name": "userDeployments",
      "outputs": [
        {
          "internalType": "uint256",
          "name": "",
          "type": "uint256"
        }
      ],
      "stateMutability": "view",
      "type": "function"
    }
  ],
  "bytecode": "0x6080806040523461002857600080546001600160a01b031916331790556165d4908161002e8239f35b600080fdfe6040608081526004908136101561001557600080fd5b600091823560e01c90816316e38783146104495781633f04f34d146100b8578163630bdfac146103725781636dc58960146100ef5781637021c15d146100b8575080638da5cb5b146100915763e83b86e11461007057600080fd5b3461008d578160031936011261008d576020906001549051908152f35b5080fd5b503461008d578160031936011261008d57905490516001600160a01b039091168152602090f35b9050346100eb5760203660031901126100eb5735825260026020908152918190205490516001600160a01b039091168152f35b8280fd5b83833461008d578160031936011261008d57600154600019929083811461035f576001019283600155825191611f2d9283810160018060401b03948282108683111761034c579082916146a78339039082f080156103405784516001600160a01b039182169490611592808201908382118383101761032d576020918391611fa6833988815203019084f080156102e5578216918651611aa0808201908282108583111761031a57858984936101a99361050686396104eb565b039085f0801561031057875161116f80820190828210868311176102fd57868a84936101d99361353886396104eb565b039086f09081156102f357873b156102ef57885163c0c53b8b60e01b81528b81019590955282166024850152166044830152828260648183895af180156102e5576102c3575b50508481526002602090815284822080546001600160a01b0319168517905533825260039052838120805491600160401b8310156102b05750602096509061026c916001820181556104bd565b819291549060031b9186831b921b19161790558151908152827ff75c2901976f59352a3dab394499bfb2460d146eb6b2563ee9695474a58b7839853393a351908152f35b634e487b7160e01b815260418852602490fd5b81116102d2578452868061021f565b634e487b7160e01b825260418752602482fd5b86513d85823e3d90fd5b8580fd5b88513d87823e3d90fd5b634e487b7160e01b885260418d52602488fd5b87513d86823e3d90fd5b634e487b7160e01b875260418c52602487fd5b634e487b7160e01b865260418b52602486fd5b508351903d90823e3d90fd5b634e487b7160e01b845260418952602484fd5b634e487b7160e01b825260118552602482fd5b83833461008d576020806003193601126100eb576001600160a01b036103966104a2565b1683526003815281832092825192838386549182815201908196845284842090845b868282106104355750505050849003601f01601f19168401956001600160401b03871185881017610422575085815282865292518583018190528594938501939290915b82811061040b57505050500390f35b8351855286955093810193928101926001016103fc565b634e487b7160e01b835260419052602482fd5b8354855290930192600192830192016103b8565b50503461008d578060031936011261008d576104636104a2565b6001600160a01b0316825260036020528082208054602435939084101561049f5750602092610491916104bd565b90549060031b1c9051908152f35b80fd5b600435906001600160a01b03821682036104b857565b600080fd5b80548210156104d55760005260206000200190600090565b634e487b7160e01b600052603260045260246000fd5b6001600160a01b039182168152911660208201526040019056fe6080346100b957601f62001aa038819003918201601f19168301916001600160401b038311848410176100be5780849260409485528339810103126100b957610053602061004c836100d4565b92016100d4565b62093a80600355662386f26fc1000060045560018060a01b03908160018060a01b0319931683600054161760005516906001541617600155600060025533600052600c6020526040600020600160ff198254161790556040516119b79081620000e98239f35b600080fd5b634e487b7160e01b600052604160045260246000fd5b51906001600160a01b03821682036100b95756fe6080604052600436101561001257600080fd5b60003560e01c80630c886a6b1461158d57806315f25549146115615780631e09d5a91461126e5780631f276b6e1461120557806339c65d8d146111d95780633e8686cc14610f925780634c41e88014610f67578063537dbf0714610f2057806359974e3814610d5557806360d25e8114610cdd5780636c82448714610c9e57806376c23ff114610c805780637a0c95aa14610c465780637c8efce314610bc45780639000b3d614610b55578063abac7e0d14610b29578063ad73349e146109bf578063b1bb7e0f146109a1578063b4b9e70614610975578063bc74b08d1461094a578063c12255fe1461039a578063c2fda48714610371578063ca2dfd0a14610305578063dfde74fe146102ad578063e04a377014610233578063e80db5db1461020a578063ec5ffac2146101ec578063ef11151e1461019a5763f1f568f71461015b57600080fd5b34610195576020366003190112610195576001600160a01b0361017c61167c565b16600052600b6020526020604060002054604051908152f35b600080fd5b34610195576040366003190112610195576024356001600160a01b0381169081900361019557600435600052600d602052604060002090600052602052602060ff604060002054166040519015158152f35b34610195576000366003190112610195576020600454604051908152f35b34610195576000366003190112610195576000546040516001600160a01b039091168152602090f35b34610195576020806003193601126101955760043560005260088152604060002090604051908181845491828152019360005281600020916000905b8282106102965761029285610286818903826117b9565b60405191829182611692565b0390f35b83548652948501946001938401939091019061026f565b34610195576040366003190112610195576102c661167c565b6001600160a01b0316600090815260096020526040902080546024359190821015610195576020916102f7916115d4565b90546040519160031b1c8152f35b346101955760203660031901126101955761031e61167c565b6000546001600160a01b03919082163303610195571680600052600c602052604060002060ff1981541690557f44a3cd4eb5cc5748f6169df057b1cb2ae4c383e87cd94663c430e095d4cba424600080a2005b34610195576000366003190112610195576001546040516001600160a01b039091168152602090f35b60a0366003190112610195576024356001600160401b038111610195576103c5903690600401611602565b6044356001600160401b038111610195576103e4903690600401611602565b906064356001600160401b03811161019557610404903690600401611602565b9490936084356001600160401b03811161019557610426903690600401611602565b929091600454341061019557600435600052600560205260406000205415610195578315610195576001546040805163017e7ec560e31b81526004803590820152606060248201529182906001600160a01b031681806104a061048d60648301898b6117ff565b8281036003190160448401528d8d6117ff565b03915afa90811561093e576000916108ee575b50610195576104c3600254611820565b600281815560008281526007602052604090208281556001810180546001600160a01b0319163317905560043591810191909155989097906001600160401b038311610770576105238361051a60038d01546116cd565b60038d0161182f565b826000601f821160011461088057600091610875575b508360011b906000198560031b1c19161760038b01555b6001600160401b038811610770576105788861056f60048d01546116cd565b60048d0161182f565b876000601f8211600114610807576000916107fc575b508860011b906000198a60031b1c19161760048b01555b6001600160401b038111610770578060058b01926105cd826105c786546116cd565b8661182f565b600090601f831160011461079157600092610786575b50508160011b916000199060031b1c19161790555b6001600160401b038411610770578787936106258661061c600660209d01546116cd565b6006850161182f565b600090601f87116001146106e95795806008939260008051602061199783398151915297986000926106de575b50508160011b916000199060031b1c19161760068201555b4260078201550160ff19815416905560043560005260088852610691846040600020611883565b33600052600988526106a7846040600020611883565b6106d36106c16040519384936040855260408501916117ff565b8281038a8401523397600435976117ff565b0390a4604051908152f35b013590508c80610652565b600683979297016000528a6000209660005b601f198416811061075657509160008051602061199783398151915296976001926008959483601f1981161061073c575b505050811b01600682015561066a565b0135600019600384901b60f8161c191690558c808061072c565b8183013589556001909801978b9750908c01908c016106fb565b634e487b7160e01b600052604160045260246000fd5b013590508b806105e3565b909150601f198316918460005260206000209260005b8181106107e457509084600195949392106107ca575b505050811b0190556105f8565b0135600019600384901b60f8161c191690558b80806107bd565b919360206001819287870135815501950192016107a7565b90508701358b61058e565b905060048b0160005260206000209060005b601f198b16811061085d575089601f19811610610843575b5050600188811b0160048b01556105a5565b88013560001960038b901b60f8161c191690558a80610831565b9091602060018192858d013581550193019101610819565b90508401358b610539565b905060038b0160005260206000209060005b601f19861681106108d6575084601f198116106108bc575b5050600183811b0160038b0155610550565b850135600019600386901b60f8161c191690558a806108aa565b9091602060018192858a013581550193019101610892565b90506040813d604011610936575b81610909604093836117b9565b8101031261019557805190811515820361019557602001516001600160a01b0381160361019557896104b3565b3d91506108fc565b6040513d6000823e3d90fd5b34610195576020366003190112610195576000546001600160a01b0316330361019557600435600355005b346101955760203660031901126101955760043560005260056020526020604060002054604051908152f35b34610195576000366003190112610195576020600354604051908152f35b3461019557602036600319011261019557600435600052600760205260406000208054600160a01b600190036001830154169160028101549060405180806003840190610a0b91611707565b03610a1690826117b9565b6040519081610a288160048601611707565b03610a3390836117b9565b60405180610a448160058701611707565b03610a4f90826117b9565b6040519081610a618160068801611707565b03610a6c90836117b9565b600785015493600886015460ff16936040519687806009830190610a8f91611707565b03610a9a90896117b9565b600a0154976040519a8b9a8b5260208b015260408a01526101608060608b01528901610ac59161162f565b88810360808a0152610ad69161162f565b87810360a0890152610ae79161162f565b86810360c0880152610af89161162f565b9160e08601526101008501610b0c9161166f565b838103610120850152610b1e9161162f565b906101408301520390f35b3461019557602036600319011261019557600435600052600e6020526020604060002054604051908152f35b3461019557602036600319011261019557610b6e61167c565b6000546001600160a01b03919082163303610195571680600052600c6020526040600020600160ff198254161790557f6d05492139c5ea989514a5d2150c028041e5c087e2a39967f67dc7d2655adb81600080a2005b602036600319011261019557600054600435906001600160a01b03163303610195573415610195578060005260056020526040600020610c053482546117dc565b90558060005260056020527f59cf05b569f6230787852b6f1a84ff0f155b2363c622c463141caaee1b6d6643604080600020548151903482526020820152a2005b34610195576020366003190112610195576001600160a01b03610c6761167c565b16600052600a6020526020604060002054604051908152f35b34610195576000366003190112610195576020600254604051908152f35b34610195576020366003190112610195576001600160a01b03610cbf61167c565b16600052600c602052602060ff604060002054166040519015158152f35b3461019557602080600319360112610195576001600160a01b03610cff61167c565b1660005260098152604060002090604051908181845491828152019360005281600020916000905b828210610d3e5761029285610286818903826117b9565b835486529485019460019384019390910190610d27565b346101955760208060031936011261019557600435806000526005908183526040600020541561019557600891828452604060002092604051808587829754938481520190600052876000209260005b89828210610f0a57505050610dbc925003856117b9565b60009460005b8551811015610f08578181851b870101516000526007825260406000208381019060ff8254166004811015610ef257600180911480610ee5575b610e12575b505050610e0d90611820565b610dc2565b600a82015490886000528786526040600020805483811015610e37575b505050610e01565b83610e47919d949597969d611989565b9055840190610e7a8360018060a01b039283855416600052600b89526040600020610e738382546117dc565b90556117dc565b9a600360ff1982541617905560008080808685875416828215610edc575bf11561093e57857f1d0f102d737fa5f0a0f89df1c7bd6c4d6ea8866cb4cd14b9461b04a9c3bd7b6d91610e0d965493541693604051908152a3908880808080610e2f565b506108fc610e98565b50600a8201541515610dfc565b634e487b7160e01b600052602160045260246000fd5b005b855484526001958601958a955093019201610da5565b34610195576020366003190112610195576001600160a01b03610f4161167c565b16600052600a60205260408060002054600b602052816000205482519182526020820152f35b34610195576020366003190112610195576000546001600160a01b0316330361019557600480359055005b34610195576020366003190112610195576004356000610140604051610fb78161179d565b82815282602082015282604082015260608082015260606080820152606060a0820152606060c08201528260e08201528261010082015260606101208201520152801515806111cd575b156101955760005260076020526040600020604051906110208261179d565b8054825260018101546001600160a01b0316602083015260028101546040808401919091525161105e816110578160038601611707565b03826117b9565b6060830152604051611077816110578160048601611707565b6080830152604051611090816110578160058601611707565b60a08301526040516110a9816110578160068601611707565b60c0830152600781015460e083015260ff600882015416906004821015610ef257600a916101008401526040516110e7816110578160098601611707565b61012084015201546101408201526040518091602082528051602083015260018060a01b0360208201511660408301526040810151606083015260608101516101406111c26111446101609384608088015261018087019061162f565b61118e61117a611166608088015193601f1994858b83030160a08c015261162f565b60a0880151848a83030160c08b015261162f565b60c0870151838983030160e08a015261162f565b9060e08601516101008801526111ae61010087015161012089019061166f565b61012086015190878303018488015261162f565b920151908301520390f35b50600254811115611001565b346101955760203660031901126101955760043560005260066020526020604060002054604051908152f35b3461019557611213366115be565b6000549091906001600160a01b0316330361019557600052600560205260406000209081549181831061019557600080808481946112518289611989565b9055818115611265575b3390f11561093e57005b506108fc61125b565b3461019557606036600319011261019557600435602435801515808203610195576001600160401b0392604435848111610195576112b0903690600401611602565b92909433600052602093600c855260ff60406000205416156101955783151580611555575b156101955783600052600d8552604060002033600052855260ff6040600020541661019557836000526007855260ff600860406000200154166004811015610ef2576101955783600052600d8552604060002033600052855260406000209660019660ff1998888a8254161790556000146114675750505081600052600e835260406000206113648154611820565b90555b604051908152817f1fb14b3bf3798c268811f880a4b800a6140774e15e3d530fa663451c0d263b60843393a36000818152600e83526040902054600211611439576000938493600a61141986958695865260078152604086209360028501549581600887019182541617905585875260068252604087206113e88154611820565b9055840180546001600160a01b0390811688529184905260408720805461140e90611820565b9055541680946118d8565b91015560045490828215611430575bf11561093e57005b506108fc611428565b509050600f81526002604060002054101561145057005b600790526002600860406000200191825416179055005b84600052600f8652604060002061147e8154611820565b90558161148e575b505050611367565b846000526007865260096040600020019282116107705781906114b5826105c786546116cd565b600090601f83116001146114f2576000926114e7575b5050600019600383901b1c191690861b1790555b858080611486565b0135905088806114cb565b889350601f1983169185600052886000209260005b8a82821061153f5750508411611525575b505050811b0190556114df565b0135600019600384901b60f8161c19169055888080611518565b8385013586558c97909501949283019201611507565b506002548411156112d5565b3461019557602036600319011261019557600435600052600f6020526020604060002054604051908152f35b346101955761159b366115be565b90600052600860205260406000208054821015610195576020916102f7916115d4565b6040906003190112610195576004359060243590565b80548210156115ec5760005260206000200190600090565b634e487b7160e01b600052603260045260246000fd5b9181601f84011215610195578235916001600160401b038311610195576020838186019501011161019557565b919082519283825260005b84811061165b575050826000602080949584010152601f8019910116010190565b60208183018101518483018201520161163a565b906004821015610ef25752565b600435906001600160a01b038216820361019557565b6020908160408183019282815285518094520193019160005b8281106116b9575050505090565b8351855293810193928101926001016116ab565b90600182811c921680156116fd575b60208310146116e757565b634e487b7160e01b600052602260045260246000fd5b91607f16916116dc565b9060009291805491611718836116cd565b91828252600193848116908160001461177a575060011461173a575b50505050565b90919394506000526020928360002092846000945b838610611766575050505001019038808080611734565b80548587018301529401938590820161174f565b9294505050602093945060ff191683830152151560051b01019038808080611734565b61016081019081106001600160401b0382111761077057604052565b601f909101601f19168101906001600160401b0382119082101761077057604052565b919082018092116117e957565b634e487b7160e01b600052601160045260246000fd5b908060209392818452848401376000828201840152601f01601f1916010190565b60001981146117e95760010190565b90601f811161183d57505050565b600091825260208220906020601f850160051c83019410611879575b601f0160051c01915b82811061186e57505050565b818155600101611862565b9092508290611859565b8054600160401b811015610770576118a0916001820181556115d4565b819291549060031b91821b91600019901b1916179055565b81156118c2570490565b634e487b7160e01b600052601260045260246000fd5b600090815260056020526040812054600660205260408220549081156119825781611902916118b8565b6001600160a01b039093168252600a60205260408220546064808202918015908304909114171561196e5790611937916118b8565b9081830291838304148315171561195a57509060646119579204906117dc565b90565b634e487b7160e01b81526011600452602490fd5b634e487b7160e01b83526011600452602483fd5b5050905090565b919082039182116117e95756fec288837f892a922779b110a95d4f6b6fd25014b842c27a70e5fa038aaad1fc0660803461007757601f61159238819003918201601f19168301916001600160401b0383118484101761007c5780849260209460405283398101031261007757516001600160a01b0381169081900361007757600080546001600160a01b0319169190911781556001556040516114ff90816100938239f35b600080fd5b634e487b7160e01b600052604160045260246000fdfe6080604052600436101561001257600080fd5b60003560e01c80630511f07214610ff95780630686108d14610edc5780630bf3f62814610e685780630d11ead014610db057806310701fc714610d465780631f66aa6a14610bce57806324b5b98014610b565780632b673a2e14610b1357806346869f0614610aa857806374924cea14610a785780639cd33c4c14610a2e578063b02c059314610950578063b91ef52d1461091f578063beb3f17514610858578063d8847b041461076c578063dfd4d31d146106e4578063e80db5db146106bb578063f2b75ce11461069d578063f55e9a34146101e7578063f8f37167146101605763fae5a3551461010357600080fd5b3461015b57604036600319011261015b5761011c611043565b6001600160a01b031660009081526007602052604090208054602435919082101561015b5760209161014d9161106f565b90546040519160031b1c8152f35b600080fd5b3461015b57604036600319011261015b5760c061017b611059565b6004356000526002602052604060002060018060a01b0380921660005260205260406000209081541690600181015490600281015460038201549060ff6005600485015494015416936040519586526020860152604085015260608401526080830152151560a0820152f35b3461015b57608036600319011261015b576024356001600160401b03811161015b5761021790369060040161109d565b6044356001600160401b03811161015b5761023690369060040161109d565b906064356001600160401b03811161015b5761025690369060040161109d565b9093610264336004356112ff565b1561015b576102746001546112b9565b6001818155600082815260056020526040902080546001600160a01b031916331781556004359181019190915590956001600160401b038311610505576102be600283015461115b565b601f8111610656575b50826000601f82116001146105e6576000916105db575b508360011b906000198560031b1c19161760028301555b6001600160401b03861161050557610310600383015461115b565b601f8111610594575b50856000601f82116001146105265760009161051b575b508660011b906000198860031b1c19161760038301555b6001600160401b03841161050557610362600483015461115b565b601f81116104be575b5091602097918793600090601f8711600114610437579580600693926000805160206114df833981519152979860009261042c575b50508160011b916000199060031b1c19161760048201555b4260058201550160ff198154169055600435600052600688526103df846040600020611284565b33600052600788526103f5846040600020611284565b61042161040f6040519384936040855260408501916112de565b8281038a8401523397600435976112de565b0390a4604051908152f35b013590508c806103a0565b600483979297016000528a6000209660005b601f19841681106104a45750916000805160206114df83398151915296976001926006959483601f1981161061048a575b505050811b0160048201556103b8565b0135600019600384901b60f8161c191690558c808061047a565b8183013589556001909801978b9750908c01908c01610449565b600483016000526020600020601f860160051c8101602087106104fe575b601f830160051c820181106104f257505061036b565b600081556001016104dc565b50806104dc565b634e487b7160e01b600052604160045260246000fd5b905085013589610330565b90506003830160005260206000209060005b601f198916811061057c575087601f19811610610562575b5050600186811b016003830155610347565b860135600019600389901b60f8161c191690558880610550565b9091602060018192858b013581550193019101610538565b600383016000526020600020601f880160051c8101602089106105d4575b601f830160051c820181106105c8575050610319565b600081556001016105b2565b50806105b2565b9050880135896102de565b90506002830160005260206000209060005b8a601f198716821061063e57505084601f19811610610624575b5050600183811b0160028301556102f5565b890135600019600386901b60f8161c191690558880610612565b600183946020939484930135815501930191016105f8565b600283016000526020600020601f850160051c810160208610610696575b601f830160051c8201811061068a5750506102c7565b60008155600101610674565b5080610674565b3461015b57600036600319011261015b576020600154604051908152f35b3461015b57600036600319011261015b576000546040516001600160a01b039091168152602090f35b3461015b5760208060031936011261015b576001600160a01b03610706611043565b1660005260078152604060002090604051908181845491828152019360005281600020916000905b828210610755576107518561074581890382611261565b604051918291826110ca565b0390f35b83548652948501946001938401939091019061072e565b3461015b57604036600319011261015b5760c0610787611059565b600060a060405161079781611246565b82815282602082015282604082015282606082015282608082015201526004356000526002602052604060002060018060a01b03809216600052602052604060002090604051906107e782611246565b825416918282526001810154602083019081526002820154604084019081526003830154916060850192835260a060ff6005600487015496608089019788520154169501941515855260405195865251602086015251604085015251606084015251608083015251151560a0820152f35b3461015b57606036600319011261015b57600435610874611059565b906044356001600160401b03811161015b5761089490369060040161109d565b6000546001600160a01b039291908316330361015b576108b485856112ff565b1561015b577f2b7cc58f47bc3d7d428c5762884c66772aa45284346b22c89c302ca629b40b2492846000526002602052604060002095169485600052602052600560406000200160ff19815416905561091a6040519283926020845260208401916112de565b0390a3005b3461015b5761092d36611145565b9060005260066020526040600020805482101561015b5760209161014d9161106f565b3461015b57602036600319011261015b576004356000526005602052604060002060018060a01b0381541660018201549160405161099c816109958160028601611195565b0382611261565b610a1d6040516109b3816109958160038801611195565b610a0f604051916109d2836109cb8160048a01611195565b0384611261565b610a0160ff600660058901549801541695604051998a998a5260208a015260e060408a015260e0890190611105565b908782036060890152611105565b908582036080870152611105565b9160a0840152151560c08301520390f35b3461015b57610a3c36611145565b9060005260036020526040600020805482101561015b57602091610a5f9161106f565b905460405160039290921b1c6001600160a01b03168152f35b3461015b57604036600319011261015b576020610a9e610a96611059565b6004356112ff565b6040519015158152f35b3461015b57604036600319011261015b5760043560243580151580910361015b5760207f34a69aa246faebb040cfbb55e844a1dccd2fb78d06ede59e71383023b582517d918360005260058252600660406000200160ff1981541660ff8316179055604051908152a2005b3461015b57602036600319011261015b57610b2c611043565b600054906001600160a01b0390818316330361015b576001600160a01b0319909216911617600055005b3461015b5760208060031936011261015b576001600160a01b03610b78611043565b1660005260048152604060002090604051908181845491828152019360005281600020916000905b828210610bb7576107518561074581890382611261565b835486529485019460019384019390910190610ba0565b3461015b5760208060031936011261015b5760405190610bed8261122b565b6000825280820160009052606091826040820152828082015282608082015260a081016000905260c0016000905260043560005260058152604060002060405191610c378361122b565b81546001600160a01b0390811684526001830154828501908152604051919582610c648160028801611195565b03610c6f9084611261565b6040868101938452519283610c878160038901611195565b03610c929085611261565b8682019384526040519283610caa8160048a01611195565b03610cb59085611261565b6080880193845260058701549660a089019788526006015460ff169560c089019615158752604051998a99828b525116908901525160408801525190860160e090526101008601610d0591611105565b9151601f199283878203016080880152610d1e91611105565b9051918582030160a0860152610d3391611105565b915160c084015251151560e08301520390f35b3461015b5760208060031936011261015b5760043560005260068152604060002090604051908181845491828152019360005281600020916000905b828210610d99576107518561074581890382611261565b835486529485019460019384019390910190610d82565b3461015b5760208060031936011261015b5760043560005260038152604060002060405190818382549182815201908192600052846000209060005b86828210610e4b578686610e0282880383611261565b604051928392818401908285525180915260408401929160005b828110610e2b57505050500390f35b83516001600160a01b031685528695509381019392810192600101610e1c565b83546001600160a01b031685529093019260019283019201610dec565b3461015b57606036600319011261015b576001600160401b0360243581811161015b57610e9990369060040161109d565b60449291923591821161015b57604092610eba610ec593369060040161109d565b9290916004356113a6565b825191151582526001600160a01b03166020820152f35b3461015b57606036600319011261015b57600435610ef8611059565b9060443560018060a01b038060005416330361015b57610f1884846112ff565b61015b5782600052600260205280604060002094169384600052602052600560406000208560018060a01b03198254161781558460018201558360028201554260038201556000600482015501600160ff19825416179055826000526003602052604060002091825491600160401b83101561050557610fc1837f60d371ec2b2ecd297567c3935ef1d2823e7d4b3abb46d49650e4dc708f1b0c6895600160409601815561106f565b819291549060031b9188831b921b1916179055846000526004602052610fea8483600020611284565b815190815260006020820152a3005b3461015b57604036600319011261015b57611012611043565b6001600160a01b031660009081526004602052604090208054602435919082101561015b5760209161014d9161106f565b600435906001600160a01b038216820361015b57565b602435906001600160a01b038216820361015b57565b80548210156110875760005260206000200190600090565b634e487b7160e01b600052603260045260246000fd5b9181601f8401121561015b578235916001600160401b03831161015b576020838186019501011161015b57565b6020908160408183019282815285518094520193019160005b8281106110f1575050505090565b8351855293810193928101926001016110e3565b919082519283825260005b848110611131575050826000602080949584010152601f8019910116010190565b602081830181015184830182015201611110565b604090600319011261015b576004359060243590565b90600182811c9216801561118b575b602083101461117557565b634e487b7160e01b600052602260045260246000fd5b91607f169161116a565b90600092918054916111a68361115b565b91828252600193848116908160001461120857506001146111c8575b50505050565b90919394506000526020928360002092846000945b8386106111f45750505050010190388080806111c2565b8054858701830152940193859082016111dd565b9294505050602093945060ff191683830152151560051b010190388080806111c2565b60e081019081106001600160401b0382111761050557604052565b60c081019081106001600160401b0382111761050557604052565b601f909101601f19168101906001600160401b0382119082101761050557604052565b8054600160401b811015610505576112a19160018201815561106f565b819291549060031b91821b91600019901b1916179055565b60001981146112c85760010190565b634e487b7160e01b600052601160045260246000fd5b908060209392818452848401376000828201840152601f01601f1916010190565b60009081526002602090815260408083206001600160a01b03948516808552925282206005810154919392909160ff161561134f5760048201548015159081611356575b5061134f575054161490565b9250505090565b9050421138611343565b9192916001600160401b0382116105055760405191611389601f8201601f191660200184611261565b82948184528183011161015b578281602093846000960137010152565b90929360009482865260209060068252604094858820978651808a86829c54938481520190845286842092845b888282106114c8575050506113ea9250038a611261565b805b89518110156114b95760058582821b8c010151835285528782208851611419816109958160028601611195565b86815191012061142a36868d611360565b8781519101201480611488575b8061146d575b611450575061144b906112b9565b6113ec565b5460019b6001600160a01b039091169a5098505050505050505050565b508054611483906001600160a01b0316896112ff565b61143d565b50885161149c816109958160048601611195565b8681519101206114ad368988611360565b87815191012014611437565b50989750505050505050508190565b855484526001958601958f9550930192016113d356fe29ef76f5f3174f4f75c9bb52556128a12decb6cef4c5edd7bc90de4b886e97b96080346100ad57601f61116f38819003918201601f19168301916001600160401b038311848410176100b25780849260409485528339810103126100ad57610052602061004b836100c8565b92016100c8565b610e106002556210000060035560018060a01b03908160018060a01b03199316836000541617600055169060015416176001553360005260076020526040600020600160ff1982541617905560405161109290816100dd8239f35b600080fd5b634e487b7160e01b600052604160045260246000fd5b51906001600160a01b03821682036100ad5756fe6040608081526004908136101561001557600080fd5b600091823560e01c9081630511f07214610d0357816312494caa14610bd7578382631f276b6e14610b5357508163238ec8b514610a5857816324b5b980146109ab5781632cae79cf1461098c5781635c55e8db146109615781635d67dc43146107e9578163616a0630146107bc57816361c992a31461077e57816366b340cc146106ab5781636b7c424b146106805781636e738e2d1461062a5781637badbe87146102b057816381675b70146103ab5781638d2ab78e14610330578163a90b538e14610311578163c2fda487146102e8578163c51fd876146102b0578163c531003714610263578163df5dd1a5146101f7578163e80db5db146101cf578163ef28a92d1461019d575063fdc85fc41461012d57600080fd5b3461019957602036600319011261019957610146610d59565b82546001600160a01b0391908216330361019557168083526007602052908220805460ff191690557f9c8e7d83025bef8a04c664b2f753f64b8814bdb7e27291d7e50935f18cc3c7128280a280f35b8380fd5b5080fd5b8284346101cc57816003193601126101cc57506101c56020926101be610d74565b9035610e9c565b9051908152f35b80fd5b505034610199578160031936011261019957905490516001600160a01b039091168152602090f35b50503461019957602036600319011261019957610212610d59565b82546001600160a01b0391908216330361019557168083526007602052908220805460ff191660011790557e47706786c922d17b39285dc59d696bafea72c0b003d3841ae1202076f4c2e48280a280f35b9050346102ac5760203660031901126102ac5760809281839235825260205220908154916001810154916003600283015492015492815194855260208501528301526060820152f35b8280fd5b5050346101995760203660031901126101995760209181906001600160a01b036102d8610d59565b1681526006845220549051908152f35b50503461019957816003193601126101995760015490516001600160a01b039091168152602090f35b5050346101995781600319360112610199576020906002549051908152f35b905060203660031901126102ac578254813592906001600160a01b03163303610195573415610195577f8c52464a753085ace2e8b69c69227990c011110dacbee4c1ac3f4c4137ea70669183855280602052818520610390348254610db8565b9055838552602052808420548151903482526020820152a280f35b9050346102ac5760a03660031901126102ac578035906103c9610d74565b926044359160643590608435953388526020916007835260ff858a2054168015610618575b15610614578789526008835260ff858a2054166106145760018060a01b03906001986104348585858d54168c8b51809581948293633a49267560e11b84528a8401610e47565b03915afa90811561060a578c916105dd575b50156105d95760035488106105d9578a5260088452858a209160ff19928a84825416179055888b5281855280878c209416998a8c528285018652878c20938b8554848116156104e8575b50505050506000805160206110728339815191529694928260039260026060999795016104be898254610db8565b9055858483015542910155016104d5858254610db8565b905582519384528301524290820152a380f35b6001600160a01b0319161785558185018b905560068501805490911682179055600585018054600160401b9391848210156105c6578161052d918f9386018155610d8a565b909283549160031b92831b921b19161790556002850161054d8154610e60565b90558a8c5260058652878c20908154928310156105b3579261058d8360609a9896936003966000805160206110728339815191529d9b9996018155610d8a565b815490861b908d821b91600019901b191617905592829597995081949698508b38610490565b634e487b7160e01b8d526041845260248dfd5b634e487b7160e01b8f526041865260248ffd5b8a80fd5b6105fd9150863d8811610603575b6105f58183610e0c565b810190610e2f565b38610446565b503d6105eb565b88513d8e823e3d90fd5b8880fd5b50336001600160a01b038316146103ee565b919050346102ac57806003193601126102ac57610645610d74565b83546001600160a01b03908116330361067c578360069435865280602052838620019116845260205282200160ff19815416905580f35b8480fd5b8390346101995760203660031901126101995781546001600160a01b03163303610199573560025580f35b9050346102ac57602090816003193601126101955780358452815281832092835460019283860154946002870154966005600382015491019782519283858b54918281520190819b895286892090895b8181106107625750505084610711910385610e0c565b80519860a08a01968a52858a0152880152606087015260a060808701525180925260c0850195925b8281106107465785870386f35b83516001600160a01b0316875295810195928101928401610739565b82546001600160a01b0316845292880192918b01918b016106fb565b5050346101995760203660031901126101995760209160ff9082906001600160a01b036107a9610d59565b1681526007855220541690519015158152f35b9050346102ac5760203660031901126102ac578160209360ff923581526008855220541690519015158152f35b919050346102ac576020918260031936011261019557803580855281845282852091825493600193848101958654101561095d57849588908994600595868501918501985b610836578b80f35b8154811015610959578b61084a8284610d8a565b60018060a01b0391549060031b1c168082528a8d528c8883209260068c60ff8287015416610888575b50505050505061088290610e60565b8961082e565b8461089291610e9c565b928c841596871580610944575b6108ae575b505092508c610873565b9a86979b936108f3938798959388979894016108cb858254610db8565b9055858852528d86206108df838254610db8565b90556108ec828c54610db8565b8b55610db8565b98839061093b575b839283928392f1156109315790896000805160206110528339815191528e61088295948b51908152a39038808e818f8c826108a4565b87513d8f823e3d90fd5b506108fc6108fb565b508c54610952878d54610db8565b111561089f565b8b80f35b8780fd5b8390346101995760203660031901126101995781546001600160a01b03163303610199573560035580f35b5050346101995781600319360112610199576020906003549051908152f35b8284346101cc57602090816003193601126101cc5782906001600160a01b036109d2610d59565b16815260058352818120908251808584549182815201908194845286842090845b818110610a445750505081610a09910382610e0c565b83519485948186019282875251809352850193925b828110610a2d57505050500390f35b835185528695509381019392810192600101610a1e565b8254845292880192600192830192016109f3565b919050346102ac57806003193601126102ac57918260e093610a78610d74565b928060c08351610a8781610ddb565b82815282602082015282858201528260608201528260808201528260a082015201528435815284602052848282200160018060a01b0380951682526020522090805192610ad384610ddb565b8254169384845260018301549160208501928352600284015481860190815260038501549260608701938452850154936080870194855260c060ff600660058901549860a08b01998a5201541697019615158752825197885251602088015251908601525160608501525160808401525160a083015251151560c0820152f35b915034610199578260031936011261019957815460243591906001600160a01b031633036102ac57803583526020528282206001815491019082610b9983548093610e8f565b106101955782849392610bae85948594610db8565b9055818115610bce575b3390f115610bc4575080f35b51903d90823e3d90fd5b506108fc610bb8565b919050346102ac57602080600319360112610195576001548251633a49267560e11b815284359391839082906001600160a01b03168180610c1b338a838d01610e47565b03915afa908115610cf9578691610cdc575b501561067c57610c3d3384610e9c565b938415610cd857838652808352818620903387528101835281862060018254920191610c6a878454610db8565b11610cd457600501610c7d868254610db8565b905533865260068352818620610c94868254610db8565b9055610ca1858254610db8565b905584808080873382f115610ccb579060008051602061105283398151915291519384523393a380f35b513d85823e3d90fd5b8680fd5b8580fd5b610cf39150833d8511610603576105f58183610e0c565b38610c2d565b82513d88823e3d90fd5b505034610199578060031936011261019957610d1d610d59565b6001600160a01b031682526005602052808220805460243593908410156101cc5750602092610d4b91610d8a565b91905490519160031b1c8152f35b600435906001600160a01b0382168203610d6f57565b600080fd5b602435906001600160a01b0382168203610d6f57565b8054821015610da25760005260206000200190600090565b634e487b7160e01b600052603260045260246000fd5b91908201809211610dc557565b634e487b7160e01b600052601160045260246000fd5b60e081019081106001600160401b03821117610df657604052565b634e487b7160e01b600052604160045260246000fd5b601f909101601f19168101906001600160401b03821190821017610df657604052565b90816020910312610d6f57518015158103610d6f5790565b9081526001600160a01b03909116602082015260400190565b6000198114610dc55760010190565b8115610e79570490565b634e487b7160e01b600052601260045260246000fd5b91908203918211610dc557565b60008181526004916020908382526040918284209560018060a01b03809116855285870182528385209360ff90600691808388015416158015611045575b61103857600287015491611b5892838102938185041490151715611025578a610f0a600394858093015490610e6f565b98015496610bb89788810298818a0414901517156110125789528986528089209489968a91600588018d81549901935b8d8a8210610fc55750610f6d9c9b610f679b909a5098505087159650610fbc955050505050505790610e6f565b90610db8565b9161271093848411610fb4575b806001610f8b925491015490610e8f565b838102938185041490151715610fa15750500490565b634e487b7160e01b825260119052602490fd5b849350610f7a565b50600190610e6f565b869084610fd28486610d8a565b9054908c1b1c16815286865220878a82015416610ff9575b50610ff490610e60565b610f3a565b610ff4919b8961100b92015490610db8565b9a90610fea565b634e487b7160e01b8a5260118b5260248afd5b634e487b7160e01b895260118a52602489fd5b5050505050505091505090565b5060038a015415610eda56fe3b127b03427f8c24b1ea11ef9f5052899e072db64611f99ac51847608c5bc83f301e5c1cd63a63f5de97846ba38770fce5404b529a0c56a407d14f9c155d046660808060405234610031576001600081815581546001600160a01b0319163317909155600255611ef690816100378239f35b600080fdfe6080604052600436101561001257600080fd5b60003560e01c806326bfde751461128c578063482f20a61461125b5780634c24c2c81461122b5780634ff1487414611209578063539f51db1461120e578063558e44d3146112095780637509c330146110ec5780638da5cb5b146110c3578063a7a512f81461109a578063a9f5c95314610e43578063ae81372914610dfe578063b36b9ffd14610dd5578063b5ecf91214610cdb578063c0c53b8b14610c55578063c2fda48714610c2c578063c55d0f5614610c06578063c8a028a814610aa2578063d0272f9b14610a84578063d0feffb014610a45578063d62182f7146109c2578063db2e21bc1461096b578063dc19ea0e14610522578063dfe6b5d614610492578063e6a9aba314610474578063f00084fb14610271578063f8b688f5146101cd5763fd1a98a51461014557600080fd5b346101bc5760203660031901126101bc57600435801515806101c1575b156101bc5760005260076020526101aa604060002060086020526101b8610196610190604060002093611c6c565b92611c6c565b6040519384936040855260408501906115fe565b9083820360208501526115fe565b0390f35b600080fd5b50600254811115610162565b346101bc576101db36611469565b9081156101bc57606482116101bc576101f3826119a5565b9060005b83811061021457604051602080825281906101b8908201866115fe565b61021f8185846119d7565b3515158061025a575b156101bc578061024561023f6102559387866119d7565b356119fb565b61024f82866119e7565b52611655565b6101f7565b506102668185846119d7565b356002541015610228565b346101bc5761027f36611469565b9081156101bc57606482116101bc576102978261198e565b916102a5604051938461151f565b808352601f196102b48261198e565b0160005b81811061045d57505060005b81811061032a576040805160208082528651818301819052600093600582901b8401810192808a01929185015b8287106102fe5785850386f35b90919293828061031a600193603f198a820301865288516113a7565b96019201960195929190926102f1565b6103358183856119d7565b35151580610446575b156101bc57806103526104419284866119d7565b35600052600660209080825260406000209060405192610371846114f0565b82546001600160a01b0316845260018301549084015261039360028301611542565b60408401526003820154606084015260048201546080840152600582015460a084015281015460c0830152600781015460e0830152600b600891828101546101008501526009810154610120850152600a8101546101408501520154809160ff928391610406838316610160880161167f565b1c16610180840152818160101c166101a084015260181c1615156101c082015261043082876119e7565b5261043b81866119e7565b50611655565b6102c4565b506104528183856119d7565b35600254101561033e565b602090610468611bfc565b828288010152016102b8565b346101bc5760003660031901126101bc576020600254604051908152f35b346101bc5760003660031901126101bc57600254600090600060015b828111156104c757506101b890604051938493846115e8565b8060005260066104e560209582875260096040600020015490611632565b94826000525260ff600b6040600020015460181c1661050d575b61050890611655565b6104ae565b9061051a61050891611655565b9190506104ff565b346101bc576101003660031901126101bc576001600160401b03602435116101bc573660236024350112156101bc576001600160401b0360046024350135116101bc5736602480356004013581350101116101bc57600260443510156101bc57606460c435116101bc57606460e435116101bc5760646105a660e43560c435611632565b116101bc57606435156101bc57600435156101bc5760243560040135156101bc57600160443514610953575b6105dd600254611655565b806002556040516105ed816114f0565b338152600435602082015261060760243560040135611664565b610614604051918261151f565b6024803560048101358084529101602083013760006020602435600401358301015260408201526064356060820152606435608082015260843560a082015260a43560c08201524260e0820152600061010082015260006101208201526000610140820152610689604435610160830161167f565b60ff60c4351661018082015260ff60e435166101a082015260016101c082015281600052600660205260406000209160018060a01b0382511660018060a01b031984541617835560208201516001840155604082015192835160018060401b03811161093d576106fc60028301546114b6565b601f81116108f6575b506020601f8211600114610885578190600b94959660009261087a575b50508160011b916000199060031b1c19161760028201555b606084015160038201556080840151600482015560a0840151600582015560c0840151600682015560e0840151600782015561010084015160088201556101208401516009820155610140840151600a8201550191610160810151926002841015610864576101c06107e192602095835461ff0061018084015160081b169060ff62ff00006101a086015160101b1693169062ffffff19161717178355015115159061168b565b80600052600782526107f960643560406000206116a7565b806000526008825261080f4260406000206116a7565b604051600435815261082583820160443561139a565b60643560408201526084356060820152817f505543113d9d1a281874815cee76fc95d191d999c006617d2c176495cb948b5860803393a3604051908152f35b634e487b7160e01b600052602160045260246000fd5b015190508680610722565b601f198216956002840160005260206000209660005b8181106108de575091600b959697918460019594106108c5575b505050811b01600282015561073a565b015160001960f88460031b161c191690558680806108b5565b8383015189556001909801976020938401930161089b565b600283016000526020600020601f830160051c810160208410610936575b601f830160051c8201811061092a575050610705565b60008155600101610914565b5080610914565b634e487b7160e01b600052604160045260246000fd5b608435156101bc57606460a43510156105d257600080fd5b346101bc5760003660031901126101bc576001546001600160a01b0390811633036101bc5761099861173a565b479081156101bc5760008080938193600154165af16109b561170a565b50156101bc576001600055005b346101bc5760203660031901126101bc5760043580151580610a39575b156101bc57600090815260066020526040902054336001600160a01b0391821614908115610a2b575b50156101bc57600960205260006040812055600a60205260006040812055600080f35b905060015416331481610a08565b506002548111156109df565b346101bc57610a53366112fa565b906000526008602052604060002080548210156101bc57602091610a7691611310565b90546040519160031b1c8152f35b346101bc5760003660031901126101bc576020604051620186a08152f35b60203660031901126101bc5760043580151580610bfa575b156101bc5780600052600660205260ff600b6040600020015460181c16156101bc57610ae461173a565b806000526006602052604060002090610afc816119fb565b918234106101bc57610b0e8383611770565b6008810190610b1d8254611655565b825560098101610b2e858254611632565b9055600a42910155610b4083836118c4565b6003546001600160a01b0316803b156101bc5760006040518092630686108d60e01b8252818381610b768b338c600485016116dc565b03925af18015610bee57610bdf575b50833411610bbb575b600080516020611ed6833981519152915490610bb16040519283923397846115e8565b0390a36001600055005b6000808080610bca88346116fd565b335af1610bd561170a565b50610b8e57600080fd5b610be89061150c565b84610b85565b6040513d6000823e3d90fd5b50600254811115610aba565b346101bc5760203660031901126101bc576020610c246004356119fb565b604051908152f35b346101bc5760003660031901126101bc576003546040516001600160a01b039091168152602090f35b346101bc5760603660031901126101bc576001600160a01b03600435818116908190036101bc576024358281168091036101bc57604435928084168094036101bc576001541633036101bc5781156101bc5780156101bc5782156101bc5760018060a01b0319918260035416176003558160045416176004556005541617600555600080f35b346101bc5760203660031901126101bc5760043560005260066020526020604060002060018060a01b038154169060ff6001820154610d1c60028401611542565b92600381015493600482015460058301546006840154600785015491600886015493610d71600988015496600b600a8a0154990154996040519e8f9e8f908152015260408d6101e091829101528d019061135a565b9960608c015260808b015260a08a015260c089015260e0880152610100870152610120860152610140850152610dad610160850183831661139a565b818160081c16610180850152818160101c166101a085015260181c1615156101c08301520390f35b346101bc5760003660031901126101bc576004546040516001600160a01b039091168152602090f35b346101bc57610e0c366112db565b6001546001600160a01b031633036101bc5781151580610e37575b156101bc57610e3591611b8f565b005b50600254821115610e27565b610e4c36611469565b610e5461173a565b80156101bc57603281116101bc576000610e6d826119a5565b60005b83811061100557508134106101bc5760005b838110610f16575050803411610ef2575b60408051818152908101839052906001600160fb1b0383116101bc577fa25f24536407b63286bdae6707ed3e860288bb5f5c648de7dd6dab214485a8e39260051b80946060840137602082015260608133948101030190a26001600055005b6000808080610f0185346116fd565b335af1610f0c61170a565b50610e9357600080fd5b610f218185876119d7565b3590610f2d81846119e7565b51826000526006602052604060002092610f478282611770565b6008840193610f568554611655565b855560098101610f67848254611632565b9055600a42910155610f7982826118c4565b6003546001600160a01b03169490853b156101bc5760006040518097630686108d60e01b8252818381610fb18a338b600485016116dc565b03925af1918215610bee57610ff196600080516020611ed683398151915293610ff6575b505490610fe96040519283923397846115e8565b0390a3611655565b610e82565b610fff9061150c565b8b610fd5565b916110118385876119d7565b35151580611083575b156101bc5761102a8385876119d7565b35600052600660205260ff600b6040600020015460181c16156101bc5761107861107e9161105c61023f86888a6119d7565b61106686866119e7565b5261107185856119e7565b5190611632565b92611655565b610e70565b5061108f8385876119d7565b35600254101561101a565b346101bc5760003660031901126101bc576005546040516001600160a01b039091168152602090f35b346101bc5760003660031901126101bc576001546040516001600160a01b039091168152602090f35b346101bc5760203660031901126101bc57600435611108611bfc565b50801515806111fd575b156101bc5760005260066020526101b8604060002060ff600b60405192611138846114f0565b80546001600160a01b031684526001810154602085015261115b60028201611542565b60408501526003810154606085015260048101546080850152600581015460a0850152600681015460c0850152600781015460e085015260088101546101008501526009810154610120850152600a81015461014085015201546111c5828216610160850161167f565b818160081c16610180840152818160101c166101a084015260181c1615156101c08201526040519182916020835260208301906113a7565b50600254811115611112565b61133e565b346101bc5760003660031901126101bc57602060405161012c8152f35b346101bc5760203660031901126101bc576001546001600160a01b031633036101bc576103e8600435116101bc57005b346101bc57611269366112fa565b906000526007602052604060002080548210156101bc57602091610a7691611310565b346101bc5761129a366112db565b811515806112cf575b156101bc576000828152600660205260409020546001600160a01b031633036101bc57610e3591611b8f565b506002548211156112a3565b60409060031901126101bc576004359060243580151581036101bc5790565b60409060031901126101bc576004359060243590565b80548210156113285760005260206000200190600090565b634e487b7160e01b600052603260045260246000fd5b346101bc5760003660031901126101bc57602060405160648152f35b919082519283825260005b848110611386575050826000602080949584010152601f8019910116010190565b602081830181015184830182015201611365565b9060028210156108645752565b9060018060a01b038251168152602082015160208201526113d760408301516101e080604085015283019061135a565b91606081015160608301526080810151608083015260a081015160a083015260c081015160c083015260e081015160e083015261010080820151908301526101208082015190830152610140808201519083015261143e610160808301519084019061139a565b61018060ff8183015116908301526101a060ff8183015116908301526101c080910151151591015290565b9060206003198301126101bc576001600160401b0391600435908382116101bc57806023830112156101bc5781600401359384116101bc5760248460051b830101116101bc576024019190565b90600182811c921680156114e6575b60208310146114d057565b634e487b7160e01b600052602260045260246000fd5b91607f16916114c5565b6101e081019081106001600160401b0382111761093d57604052565b6001600160401b03811161093d57604052565b601f909101601f19168101906001600160401b0382119082101761093d57604052565b9060405191826000825492611556846114b6565b9081845260019485811690816000146115c55750600114611582575b50506115809250038361151f565b565b9093915060005260209081600020936000915b8183106115ad57505061158093508201013880611572565b85548884018501529485019487945091830191611595565b91505061158094506020925060ff191682840152151560051b8201013880611572565b6040919493926060820195825260208201520152565b90815180825260208080930193019160005b82811061161e575050505090565b835185529381019392810192600101611610565b9190820180921161163f57565b634e487b7160e01b600052601160045260246000fd5b600019811461163f5760010190565b6001600160401b03811161093d57601f01601f191660200190565b60028210156108645752565b9063ff000000825491151560181b169063ff0000001916179055565b8054600160401b81101561093d576116c491600182018155611310565b819291549060031b91821b91600019901b1916179055565b9081526001600160a01b039091166020820152604081019190915260600190565b9190820391821161163f57565b3d15611735573d9061171b82611664565b91611729604051938461151f565b82523d6000602084013e565b606090565b60026000541461174b576002600055565b604051633ee5aeb560e01b8152600490fd5b8181029291811591840414171561163f57565b60ff90600092818452600660205283604081206117c0600b820154936117bb60646117b2816117a48b8a60081c168661175d565b04998a9860101c168461175d565b049788926116fd565b6116fd565b8061189a575b5050508061183d575b50816117da57505050565b6004546001600160a01b031690813b156118395790602484926040519485938492637c8efce360e01b845260048401525af1801561182e5761181a575050565b611824829161150c565b61182b5750565b80fd5b6040513d84823e3d90fd5b8380fd5b6005546001600160a01b0316803b156118965784906024604051809481936346955bc760e11b83528760048401525af1801561188b57156117cf576118849093919361150c565b91386117cf565b6040513d86823e3d90fd5b8480fd5b9054829182918291906001600160a01b03165af16118b661170a565b5015611839578338806117c6565b60008181526006602052604080822060ff600b82015416600281101561197a5715611973579361196d7fc6d3da45896ce1bca9d198309a2dbeea3c73a991748f8d88d796ffa06029de93939260086119609761191f88611cbb565b98899687600484015589815260096020528785822055600a60205242858220556007602052611950888683206116a7565b89815283602052844291206116a7565b01549051938493846115e8565b0390a290565b5050505090565b634e487b7160e01b84526021600452602484fd5b6001600160401b03811161093d5760051b60200190565b906119af8261198e565b6119bc604051918261151f565b82815280926119cd601f199161198e565b0190602036910137565b91908110156113285760051b0190565b80518210156113285760209160051b010190565b80151580611a15575b156101bc57611a1290611a21565b90565b50600254811115611a04565b600090808252600660205260409182812092805190611a3f826114f0565b84546001600160a01b0316825260018501546020830152611a6260028601611542565b8183015260038501546060830152600b60048601549560808401968752600581015460a0850152600681015460c0850152600781015460e085015260088101546101008501526009810154610120850152600a8101546101408501520154916101c060ff610160830194611ad88282168761167f565b818160081c16610180850152818160101c166101a085015260181c1615159101528151600281101561197a5760011480611b7b575b80611b5c575b611b4c575051906002821015611b38575015611b3357611a129150611cbb565b505190565b634e487b7160e01b81526021600452602490fd5b9350509081526009602052205490565b50838352600a60205261012c611b7582852054426116fd565b10611b13565b50838352600a602052808320541515611b0d565b9060207f70d73d81e52a2dca11d75c71d0f5006dfee7a734c401a87c32f0939f26461aee91600084815260068352611bcd82600b604084200161168b565b60098352604081208054611be9575b50506040519015158152a2565b819055600a835260408120553880611bdc565b60405190611c09826114f0565b816101c0600091828152826020820152606060408201528260608201528260808201528260a08201528260c08201528260e08201528261010082015282610120820152826101408201528261016082015282610180820152826101a08201520152565b9060405191828154918282526020928383019160005283600020936000905b828210611ca1575050506115809250038361151f565b855484526001958601958895509381019390910190611c8b565b60005260066020526040600020604051611cd4816114f0565b81546001600160a01b0316815260018201546020820152611cf760028301611542565b604082015260038201546060820152600b60048301549260808301938452600581015460a0840152600681015460c0840152600781015460e084015260088101546101008401526009810154610120840152600a810154610140840152015460ff610160830191611d6a8282168461167f565b818160081c16610180850152818160101c166101a085015260181c1615156101c08301525160028110156108645715611b3357611a1291506060810180519060c0611dca610100850193611dc4855160a08801519061175d565b90611632565b9301519060648211801590611e24575b611e1e57611def611e03926064945190611e2d565b90620186a0808311611e16575b505161175d565b049080821115611e11575090565b905090565b915038611dfc565b50505090565b50825115611dda565b908015611ece576001808214611ec95760648093835b611e4e575050505090565b8280851614611e99575b8015611e845780600019048111611e7f57611e7481839261175d565b0492821c9283611e43565b611973565b60246000634e487b7160e01b81526012600452fd5b938415611e845784600019048111611ebd57611eb685839261175d565b0493611e58565b5050505050620186a090565b505090565b505060649056fe3c643b89a81273a1160fc920ed10ca2aba86a40b58b30303efffe886744cb758",
  "linkReferences": {},
  "deployedLinkReferences": {}
}