{
  "_format": "hh-sol-artifact-1",
  "contractName": "Web3TorrentFactory",
  "sourceName": "contracts/Web3TorrentFactory.sol",
  "abi": [
    {
      "inputs": [],
      "stateMutability": "nonpayable",
      "type": "constructor"
    },
    {
      "inputs": [
        {
          "internalType": "address",
          "name": "owner",
          "type": "address"
        }
      ],
      "name": "OwnableInvalidOwner",
      "type": "error"
    },
    {
      "inputs": [
        {
          "internalType": "address",
          "name": "account",
          "type": "address"
        }
      ],
      "name": "OwnableUnauthorizedAccount",
      "type": "error"
    },
    {
      "anonymous": false,
      "inputs": [
        {
          "indexed": true,
          "internalType": "address",
          "name": "previousOwner",
          "type": "address"
        },
        {
          "indexed": true,
          "internalType": "address",
          "name": "newOwner",
          "type": "address"
        }
      ],
      "name": "OwnershipTransferred",
      "type": "event"
    },
    {
      "anonymous": false,
      "inputs": [
        {
          "indexed": true,
          "internalType": "uint256",
          "name": "deploymentId",
          "type": "uint256"
        },
        {
          "indexed": true,
          "internalType": "address",
          "name": "deployer",
          "type": "address"
        },
        {
          "indexed": true,
          "internalType": "address",
          "name": "coreContract",
          "type": "address"
        },
        {
          "indexed": false,
          "internalType": "address",
          "name": "licenseRegistry",
          "type": "address"
        },
        {
          "indexed": false,
          "internalType": "address",
          "name": "bountyManager",
          "type": "address"
        },
        {
          "indexed": false,
          "internalType": "address",
          "name": "networkRebates",
          "type": "address"
        }
      ],
      "name": "SystemDeployed",
      "type": "event"
    },
    {
      "inputs": [],
      "name": "deploySystem",
      "outputs": [
        {
          "internalType": "uint256",
          "name": "",
          "type": "uint256"
        }
      ],
      "stateMutability": "nonpayable",
      "type": "function"
    },
    {
      "inputs": [],
      "name": "deploymentCounter",
      "outputs": [
        {
          "internalType": "uint256",
          "name": "",
          "type": "uint256"
        }
      ],
      "stateMutability": "view",
      "type": "function"
    },
    {
      "inputs": [
        {
          "internalType": "uint256",
          "name": "deploymentId",
          "type": "uint256"
        }
      ],
      "name": "deploymentExists",
      "outputs": [
        {
          "internalType": "bool",
          "name": "",
          "type": "bool"
        }
      ],
      "stateMutability": "view",
      "type": "function"
    },
    {
      "inputs": [
        {
          "internalType": "uint256",
          "name": "",
          "type": "uint256"
        }
      ],
      "name": "deployments",
      "outputs": [
        {
          "internalType": "address",
          "name": "coreContract",
          "type": "address"
        },
        {
          "internalType": "address",
          "name": "licenseRegistry",
          "type": "address"
        },
        {
          "internalType": "address",
          "name": "bountyManager",
          "type": "address"
        },
        {
          "internalType": "address",
          "name": "networkRebates",
          "type": "address"
        },
        {
          "internalType": "address",
          "name": "deployer",
          "type": "address"
        },
        {
          "internalType": "uint256",
          "name": "timestamp",
          "type": "uint256"
        }
      ],
      "stateMutability": "view",
      "type": "function"
    },
    {
      "inputs": [
        {
          "internalType": "uint256",
          "name": "deploymentId",
          "type": "uint256"
        }
      ],
      "name": "getCoreContract",
      "outputs": [
        {
          "internalType": "address",
          "name": "",
          "type": "address"
        }
      ],
      "stateMutability": "view",
      "type": "function"
    },
    {
      "inputs": [
        {
          "internalType": "uint256",
          "name": "deploymentId",
          "type": "uint256"
        }
      ],
      "name": "getDeployment",
      "outputs": [
        {
          "components": [
            {
              "internalType": "address",
              "name": "coreContract",
              "type": "address"
            },
            {
              "internalType": "address",
              "name": "licenseRegistry",
              "type": "address"
            },
            {
              "internalType": "address",
              "name": "bountyManager",
              "type": "address"
            },
            {
              "internalType": "address",
              "name": "networkRebates",
              "type": "address"
            },
            {
              "internalType": "address",
              "name": "deployer",
              "type": "address"
            },
            {
              "internalType": "uint256",
              "name": "timestamp",
              "type": "uint256"
            }
          ],
          "internalType": "struct Web3TorrentFactory.Deployment",
          "name": "",
          "type": "tuple"
        }
      ],
      "stateMutability": "view",
      "type": "function"
    },
    {
      "inputs": [
        {
          "internalType": "uint256",
          "name": "deploymentId",
          "type": "uint256"
        }
      ],
      "name": "getDeploymentOwner",
      "outputs": [
        {
          "internalType": "address",
          "name": "",
          "type": "address"
        }
      ],
      "stateMutability": "view",
      "type": "function"
    },
    {
      "inputs": [],
      "name": "getTotalDeployments",
      "outputs": [
        {
          "internalType": "uint256",
          "name": "",
          "type": "uint256"
        }
      ],
      "stateMutability": "view",
      "type": "function"
    },
    {
      "inputs": [
        {
          "internalType": "address",
          "name": "user",
          "type": "address"
        }
      ],
      "name": "getUserDeployments",
      "outputs": [
        {
          "internalType": "uint256[]",
          "name": "",
          "type": "uint256[]"
        }
      ],
      "stateMutability": "view",
      "type": "function"
    },
    {
      "inputs": [],
      "name": "owner",
      "outputs": [
        {
          "internalType": "address",
          "name": "",
          "type": "address"
        }
      ],
      "stateMutability": "view",
      "type": "function"
    },
    {
      "inputs": [],
      "name": "renounceOwnership",
      "outputs": [],
      "stateMutability": "nonpayable",
      "type": "function"
    },
    {
      "inputs": [
        {
          "internalType": "address",
          "name": "newOwner",
          "type": "address"
        }
      ],
      "name": "transferOwnership",
      "outputs": [],
      "stateMutability": "nonpayable",
      "type": "function"
    },
    {
      "inputs": [
        {
          "internalType": "address",
          "name": "",
          "type": "address"
        },
        {
          "internalType": "uint256",
          "name": "",
          "type": "uint256"
        }
      ],
      "name": "userDeployments",
      "outputs": [
        {
          "internalType": "uint256",
          "name": "",
          "type": "uint256"
        }
      ],
      "stateMutability": "view",
      "type": "function"
    }
  ],
  "bytecode": "0x6080806040523461007a5733156100645760008054336001600160a01b03198216811783556040519290916001600160a01b0316907f8be0079c531659141344cd1fd0a4f28419497f9722a3daafe3b4186f6b6457e09080a361097c90816100808239f35b631e4fbdf760e01b815260006004820152602490fd5b600080fdfe6080604081815260048036101561001557600080fd5b600092833560e01c90816306609bbe146108125750806316e38783146107bc578063246c751f1461012957806325da1698146106c85780633f04f34d1461067c578063630bdfac146105cf5780636dc58960146102b4578063715018a61461026c57806386778c3f146102345780638da5cb5b1461020c578063c1b2fa2f1461014c578063e83b86e1146101295763f2fde38b146100b257600080fd5b34610125576020366003190112610125576100cb61087e565b906100d46108c7565b6001600160a01b0391821692831561010f57505082546001600160a01b03198116831784551660008051602061095c8339815191528380a380f35b51631e4fbdf760e01b8152908101849052602490fd5b8280fd5b5050346101485781600319360112610148576020906001549051908152f35b5080fd5b50829034610148576020928360031936011261012557813580151580610200575b156101fc57835260028452808320548151638da5cb5b60e01b81526001600160a01b0393909186918391829087165afa9384156101f15780946101b4575b50505191168152f35b909193508482813d83116101ea575b6101cd8183610924565b810103126101e757506101df90610947565b9184806101ab565b80fd5b503d6101c3565b8251903d90823e3d90fd5b8380fd5b5060015481111561016d565b505034610148578160031936011261014857905490516001600160a01b039091168152602090f35b503461012557602036600319011261012557602092503590811515918261025f575b50519015158152f35b6001541015915038610256565b83346101e757806003193601126101e7576102856108c7565b80546001600160a01b03198116825581906001600160a01b031660008051602061095c8339815191528280a380f35b50903461012557826003193601126101255760015460001993908481146105bc57600101928360015573__$074ff6237342f1f4dfb62d3d8ae5c28ff2$__83519563547befb760e01b875260809283888281865af49788156105b257859861050d575b509685929160849860018060a01b0396879687968796878751169060209e8f92838a019d8e511692858b019d8e51169560608c019d8e511690519687958694630a454a0160e01b86528c8601526024850152604484015260648301525af49081156105035783916104cd575b50156101485760058b8d8a8c948b8f8c90600282808f81809151169c51169751169451169482519a6103b48c6108f3565b8b52878b01968752828b0194855260608b019586528a019633885260a08b0198428a528c525289209751169260018060a01b031993848954161788558c60018901915116848254161790558b60028801915116838254161790558a600387019151168282541617905589878601925116908254161790555191015533815260038b5288812090815492600160401b8410156104ba5750509284939261046183869560018796018155610899565b819291549060031b918d831b921b191617905551169551169351169151169084519283528683015283820152837f2f9ace03d9fa14aa4b4971cf2dac998f7e67b8247dab3f995d2a8250e350bed360603393a451908152f35b634e487b7160e01b825260419052602490fd5b90508c81813d83116104fc575b6104e48183610924565b81010312610125575180151581036101255738610383565b503d6104da565b8b513d85823e3d90fd5b9097508381813d83116105ab575b6105258183610924565b810103126105a7578551908482016001600160401b03811183821017610594579161058660608996959360849c95885261055e81610947565b845261056c60208201610947565b602085015261057c888201610947565b8885015201610947565b606082015298509192610317565b634e487b7160e01b875260418a52602487fd5b8480fd5b503d61051b565b86513d87823e3d90fd5b634e487b7160e01b825260118452602482fd5b8284346101e757602090816003193601126101e75782906001600160a01b036105f661087e565b16815260038352818120908251808584549182815201908194845286842090845b818110610668575050508161062d910382610924565b83519485948186019282875251809352850193925b82811061065157505050500390f35b835185528695509381019392810192600101610642565b825484529288019260019283019201610617565b50346101255760203660031901126101255735801515806106bc575b1561012557825260026020908152918190205490516001600160a01b039091168152f35b50600154811115610698565b5090346101255760203660031901126101255781358360a083516106eb816108f3565b82815282602082015282858201528260608201528260808201520152801515806107b0575b156101fc5783829160c09552600260205220908051918291610731836108f3565b60018060a01b039283918282818660a0600583808454169d8e87526060826003816001890154169760208b019889528c836002830154169b019a8b520154169a01998a528b0154169960808d019a8b5201549a01998a5284519a8b52511660208a015251169087015251166060850152511660808301525160a0820152f35b50600154811115610710565b5050346101485780600319360112610148576107d661087e565b6001600160a01b031682526003602052808220805460243593908410156101e7575060209261080491610899565b90549060031b1c9051908152f35b92919050346101fc5760203660031901126101fc578160c094823581526002602052209060018060a01b038083541693816001850154166005836002870154169380600388015416958701541695015495875260208701528501526060840152608083015260a0820152f35b600435906001600160a01b038216820361089457565b600080fd5b80548210156108b15760005260206000200190600090565b634e487b7160e01b600052603260045260246000fd5b6000546001600160a01b031633036108db57565b60405163118cdaa760e01b8152336004820152602490fd5b60c081019081106001600160401b0382111761090e57604052565b634e487b7160e01b600052604160045260246000fd5b601f909101601f19168101906001600160401b0382119082101761090e57604052565b51906001600160a01b03821682036108945756fe8be0079c531659141344cd1fd0a4f28419497f9722a3daafe3b4186f6b6457e0",
  "linkReferences": {
    "contracts/DeploymentLib.sol": {
      "DeploymentLib": [
        {
          "length": 20,
          "start": 863
        }
      ]
    }
  },
  "deployedLinkReferences": {
    "contracts/DeploymentLib.sol": {
      "DeploymentLib": [
        {
          "length": 20,
          "start": 735
        }
      ]
    }
  }
}