{"contracts/BountyManager.sol":{"BountyManager":{"abi":[{"inputs":[{"internalType":"address","name":"_coreContract","type":"address"},{"internalType":"address","name":"_licenseRegistry","type":"address"}],"stateMutability":"nonpayable","type":"constructor"},{"anonymous":false,"inputs":[{"indexed":true,"internalType":"uint256","name":"contentId","type":"uint256"},{"indexed":false,"internalType":"uint256","name":"amount","type":"uint256"},{"indexed":false,"internalType":"uint256","name":"totalPool","type":"uint256"}],"name":"BountyPoolFunded","type":"event"},{"anonymous":false,"inputs":[{"indexed":true,"internalType":"uint256","name":"submissionId","type":"uint256"},{"indexed":true,"internalType":"address","name":"hunter","type":"address"},{"indexed":false,"internalType":"uint256","name":"rewardAmount","type":"uint256"}],"name":"BountyRewarded","type":"event"},{"anonymous":false,"inputs":[{"indexed":true,"internalType":"uint256","name":"submissionId","type":"uint256"},{"indexed":true,"internalType":"uint256","name":"contentId","type":"uint256"},{"indexed":true,"internalType":"address","name":"hunter","type":"address"},{"indexed":false,"internalType":"string","name":"platform","type":"string"},{"indexed":false,"internalType":"string","name":"platformContentId","type":"string"}],"name":"BountySubmitted","type":"event"},{"anonymous":false,"inputs":[{"indexed":true,"internalType":"uint256","name":"submissionId","type":"uint256"},{"indexed":true,"internalType":"address","name":"verifier","type":"address"},{"indexed":false,"internalType":"bool","name":"approved","type":"bool"}],"name":"BountyVerified","type":"event"},{"anonymous":false,"inputs":[{"indexed":true,"internalType":"address","name":"verifier","type":"address"}],"name":"VerifierAdded","type":"event"},{"anonymous":false,"inputs":[{"indexed":true,"internalType":"address","name":"verifier","type":"address"}],"name":"VerifierRemoved","type":"event"},{"inputs":[{"internalType":"uint256","name":"contentId","type":"uint256"}],"name":"addToBountyPool","outputs":[],"stateMutability":"payable","type":"function"},{"inputs":[{"internalType":"address","name":"verifier","type":"address"}],"name":"addVerifier","outputs":[],"stateMutability":"nonpayable","type":"function"},{"inputs":[{"internalType":"uint256","name":"","type":"uint256"}],"name":"bountyPools","outputs":[{"internalType":"uint256","name":"","type":"uint256"}],"stateMutability":"view","type":"function"},{"inputs":[{"internalType":"uint256","name":"","type":"uint256"},{"internalType":"uint256","name":"","type":"uint256"}],"name":"contentSubmissions","outputs":[{"internalType":"uint256","name":"","type":"uint256"}],"stateMutability":"view","type":"function"},{"inputs":[],"name":"coreContract","outputs":[{"internalType":"address","name":"","type":"address"}],"stateMutability":"view","type":"function"},{"inputs":[{"internalType":"uint256","name":"contentId","type":"uint256"}],"name":"distributeRewards","outputs":[],"stateMutability":"nonpayable","type":"function"},{"inputs":[{"internalType":"uint256","name":"contentId","type":"uint256"},{"internalType":"uint256","name":"amount","type":"uint256"}],"name":"emergencyWithdraw","outputs":[],"stateMutability":"nonpayable","type":"function"},{"inputs":[{"internalType":"uint256","name":"contentId","type":"uint256"}],"name":"getContentSubmissions","outputs":[{"internalType":"uint256[]","name":"","type":"uint256[]"}],"stateMutability":"view","type":"function"},{"inputs":[{"internalType":"address","name":"hunter","type":"address"}],"name":"getHunterStats","outputs":[{"internalType":"uint256","name":"verifiedTakedowns","type":"uint256"},{"internalType":"uint256","name":"totalEarnings","type":"uint256"}],"stateMutability":"view","type":"function"},{"inputs":[{"internalType":"address","name":"hunter","type":"address"}],"name":"getHunterSubmissions","outputs":[{"internalType":"uint256[]","name":"","type":"uint256[]"}],"stateMutability":"view","type":"function"},{"inputs":[{"internalType":"uint256","name":"submissionId","type":"uint256"}],"name":"getSubmission","outputs":[{"components":[{"internalType":"uint256","name":"submissionId","type":"uint256"},{"internalType":"address","name":"hunter","type":"address"},{"internalType":"uint256","name":"contentId","type":"uint256"},{"internalType":"string","name":"platform","type":"string"},{"internalType":"string","name":"platformContentId","type":"string"},{"internalType":"string","name":"contentUrl","type":"string"},{"internalType":"bytes","name":"zkTLSProof","type":"bytes"},{"internalType":"uint256","name":"submissionTimestamp","type":"uint256"},{"internalType":"enum BountyManager.BountyStatus","name":"status","type":"uint8"},{"internalType":"string","name":"rejectionReason","type":"string"},{"internalType":"uint256","name":"rewardAmount","type":"uint256"}],"internalType":"struct BountyManager.BountySubmission","name":"","type":"tuple"}],"stateMutability":"view","type":"function"},{"inputs":[{"internalType":"address","name":"","type":"address"}],"name":"hunterEarnings","outputs":[{"internalType":"uint256","name":"","type":"uint256"}],"stateMutability":"view","type":"function"},{"inputs":[{"internalType":"address","name":"","type":"address"}],"name":"hunterStats","outputs":[{"internalType":"uint256","name":"","type":"uint256"}],"stateMutability":"view","type":"function"},{"inputs":[{"internalType":"address","name":"","type":"address"},{"internalType":"uint256","name":"","type":"uint256"}],"name":"hunterSubmissions","outputs":[{"internalType":"uint256","name":"","type":"uint256"}],"stateMutability":"view","type":"function"},{"inputs":[],"name":"licenseRegistry","outputs":[{"internalType":"contract LicenseRegistry","name":"","type":"address"}],"stateMutability":"view","type":"function"},{"inputs":[],"name":"minimumStake","outputs":[{"internalType":"uint256","name":"","type":"uint256"}],"stateMutability":"view","type":"function"},{"inputs":[{"internalType":"uint256","name":"","type":"uint256"}],"name":"rejectionVotes","outputs":[{"internalType":"uint256","name":"","type":"uint256"}],"stateMutability":"view","type":"function"},{"inputs":[{"internalType":"address","name":"verifier","type":"address"}],"name":"removeVerifier","outputs":[],"stateMutability":"nonpayable","type":"function"},{"inputs":[],"name":"submissionCounter","outputs":[{"internalType":"uint256","name":"","type":"uint256"}],"stateMutability":"view","type":"function"},{"inputs":[{"internalType":"uint256","name":"","type":"uint256"},{"internalType":"address","name":"","type":"address"}],"name":"submissionVotes","outputs":[{"internalType":"bool","name":"","type":"bool"}],"stateMutability":"view","type":"function"},{"inputs":[{"internalType":"uint256","name":"","type":"uint256"}],"name":"submissions","outputs":[{"internalType":"uint256","name":"submissionId","type":"uint256"},{"internalType":"address","name":"hunter","type":"address"},{"internalType":"uint256","name":"contentId","type":"uint256"},{"internalType":"string","name":"platform","type":"string"},{"internalType":"string","name":"platformContentId","type":"string"},{"internalType":"string","name":"contentUrl","type":"string"},{"internalType":"bytes","name":"zkTLSProof","type":"bytes"},{"internalType":"uint256","name":"submissionTimestamp","type":"uint256"},{"internalType":"enum BountyManager.BountyStatus","name":"status","type":"uint8"},{"internalType":"string","name":"rejectionReason","type":"string"},{"internalType":"uint256","name":"rewardAmount","type":"uint256"}],"stateMutability":"view","type":"function"},{"inputs":[{"internalType":"uint256","name":"contentId","type":"uint256"},{"internalType":"string","name":"platform","type":"string"},{"internalType":"string","name":"platformContentId","type":"string"},{"internalType":"string","name":"contentUrl","type":"string"},{"internalType":"bytes","name":"zkTLSProof","type":"bytes"}],"name":"submitBounty","outputs":[{"internalType":"uint256","name":"","type":"uint256"}],"stateMutability":"payable","type":"function"},{"inputs":[{"internalType":"uint256","name":"","type":"uint256"}],"name":"totalVerifiedTakedowns","outputs":[{"internalType":"uint256","name":"","type":"uint256"}],"stateMutability":"view","type":"function"},{"inputs":[{"internalType":"uint256","name":"newStake","type":"uint256"}],"name":"updateMinimumStake","outputs":[],"stateMutability":"nonpayable","type":"function"},{"inputs":[{"internalType":"uint256","name":"newPeriod","type":"uint256"}],"name":"updateVerificationPeriod","outputs":[],"stateMutability":"nonpayable","type":"function"},{"inputs":[],"name":"verificationPeriod","outputs":[{"internalType":"uint256","name":"","type":"uint256"}],"stateMutability":"view","type":"function"},{"inputs":[{"internalType":"uint256","name":"","type":"uint256"}],"name":"verificationVotes","outputs":[{"internalType":"uint256","name":"","type":"uint256"}],"stateMutability":"view","type":"function"},{"inputs":[{"internalType":"address","name":"","type":"address"}],"name":"verifiers","outputs":[{"internalType":"bool","name":"","type":"bool"}],"stateMutability":"view","type":"function"},{"inputs":[{"internalType":"uint256","name":"submissionId","type":"uint256"},{"internalType":"bool","name":"approved","type":"bool"},{"internalType":"string","name":"reason","type":"string"}],"name":"verifyBounty","outputs":[],"stateMutability":"nonpayable","type":"function"}],"evm":{"bytecode":{"linkReferences":{},"object":"6080346100b957601f62001aa038819003918201601f19168301916001600160401b038311848410176100be5780849260409485528339810103126100b957610053602061004c836100d4565b92016100d4565b62093a80600355662386f26fc1000060045560018060a01b03908160018060a01b0319931683600054161760005516906001541617600155600060025533600052600c6020526040600020600160ff198254161790556040516119b79081620000e98239f35b600080fd5b634e487b7160e01b600052604160045260246000fd5b51906001600160a01b03821682036100b95756fe6080604052600436101561001257600080fd5b60003560e01c80630c886a6b1461158d57806315f25549146115615780631e09d5a91461126e5780631f276b6e1461120557806339c65d8d146111d95780633e8686cc14610f925780634c41e88014610f67578063537dbf0714610f2057806359974e3814610d5557806360d25e8114610cdd5780636c82448714610c9e57806376c23ff114610c805780637a0c95aa14610c465780637c8efce314610bc45780639000b3d614610b55578063abac7e0d14610b29578063ad73349e146109bf578063b1bb7e0f146109a1578063b4b9e70614610975578063bc74b08d1461094a578063c12255fe1461039a578063c2fda48714610371578063ca2dfd0a14610305578063dfde74fe146102ad578063e04a377014610233578063e80db5db1461020a578063ec5ffac2146101ec578063ef11151e1461019a5763f1f568f71461015b57600080fd5b34610195576020366003190112610195576001600160a01b0361017c61167c565b16600052600b6020526020604060002054604051908152f35b600080fd5b34610195576040366003190112610195576024356001600160a01b0381169081900361019557600435600052600d602052604060002090600052602052602060ff604060002054166040519015158152f35b34610195576000366003190112610195576020600454604051908152f35b34610195576000366003190112610195576000546040516001600160a01b039091168152602090f35b34610195576020806003193601126101955760043560005260088152604060002090604051908181845491828152019360005281600020916000905b8282106102965761029285610286818903826117b9565b60405191829182611692565b0390f35b83548652948501946001938401939091019061026f565b34610195576040366003190112610195576102c661167c565b6001600160a01b0316600090815260096020526040902080546024359190821015610195576020916102f7916115d4565b90546040519160031b1c8152f35b346101955760203660031901126101955761031e61167c565b6000546001600160a01b03919082163303610195571680600052600c602052604060002060ff1981541690557f44a3cd4eb5cc5748f6169df057b1cb2ae4c383e87cd94663c430e095d4cba424600080a2005b34610195576000366003190112610195576001546040516001600160a01b039091168152602090f35b60a0366003190112610195576024356001600160401b038111610195576103c5903690600401611602565b6044356001600160401b038111610195576103e4903690600401611602565b906064356001600160401b03811161019557610404903690600401611602565b9490936084356001600160401b03811161019557610426903690600401611602565b929091600454341061019557600435600052600560205260406000205415610195578315610195576001546040805163017e7ec560e31b81526004803590820152606060248201529182906001600160a01b031681806104a061048d60648301898b6117ff565b8281036003190160448401528d8d6117ff565b03915afa90811561093e576000916108ee575b50610195576104c3600254611820565b600281815560008281526007602052604090208281556001810180546001600160a01b0319163317905560043591810191909155989097906001600160401b038311610770576105238361051a60038d01546116cd565b60038d0161182f565b826000601f821160011461088057600091610875575b508360011b906000198560031b1c19161760038b01555b6001600160401b038811610770576105788861056f60048d01546116cd565b60048d0161182f565b876000601f8211600114610807576000916107fc575b508860011b906000198a60031b1c19161760048b01555b6001600160401b038111610770578060058b01926105cd826105c786546116cd565b8661182f565b600090601f831160011461079157600092610786575b50508160011b916000199060031b1c19161790555b6001600160401b038411610770578787936106258661061c600660209d01546116cd565b6006850161182f565b600090601f87116001146106e95795806008939260008051602061199783398151915297986000926106de575b50508160011b916000199060031b1c19161760068201555b4260078201550160ff19815416905560043560005260088852610691846040600020611883565b33600052600988526106a7846040600020611883565b6106d36106c16040519384936040855260408501916117ff565b8281038a8401523397600435976117ff565b0390a4604051908152f35b013590508c80610652565b600683979297016000528a6000209660005b601f198416811061075657509160008051602061199783398151915296976001926008959483601f1981161061073c575b505050811b01600682015561066a565b0135600019600384901b60f8161c191690558c808061072c565b8183013589556001909801978b9750908c01908c016106fb565b634e487b7160e01b600052604160045260246000fd5b013590508b806105e3565b909150601f198316918460005260206000209260005b8181106107e457509084600195949392106107ca575b505050811b0190556105f8565b0135600019600384901b60f8161c191690558b80806107bd565b919360206001819287870135815501950192016107a7565b90508701358b61058e565b905060048b0160005260206000209060005b601f198b16811061085d575089601f19811610610843575b5050600188811b0160048b01556105a5565b88013560001960038b901b60f8161c191690558a80610831565b9091602060018192858d013581550193019101610819565b90508401358b610539565b905060038b0160005260206000209060005b601f19861681106108d6575084601f198116106108bc575b5050600183811b0160038b0155610550565b850135600019600386901b60f8161c191690558a806108aa565b9091602060018192858a013581550193019101610892565b90506040813d604011610936575b81610909604093836117b9565b8101031261019557805190811515820361019557602001516001600160a01b0381160361019557896104b3565b3d91506108fc565b6040513d6000823e3d90fd5b34610195576020366003190112610195576000546001600160a01b0316330361019557600435600355005b346101955760203660031901126101955760043560005260056020526020604060002054604051908152f35b34610195576000366003190112610195576020600354604051908152f35b3461019557602036600319011261019557600435600052600760205260406000208054600160a01b600190036001830154169160028101549060405180806003840190610a0b91611707565b03610a1690826117b9565b6040519081610a288160048601611707565b03610a3390836117b9565b60405180610a448160058701611707565b03610a4f90826117b9565b6040519081610a618160068801611707565b03610a6c90836117b9565b600785015493600886015460ff16936040519687806009830190610a8f91611707565b03610a9a90896117b9565b600a0154976040519a8b9a8b5260208b015260408a01526101608060608b01528901610ac59161162f565b88810360808a0152610ad69161162f565b87810360a0890152610ae79161162f565b86810360c0880152610af89161162f565b9160e08601526101008501610b0c9161166f565b838103610120850152610b1e9161162f565b906101408301520390f35b3461019557602036600319011261019557600435600052600e6020526020604060002054604051908152f35b3461019557602036600319011261019557610b6e61167c565b6000546001600160a01b03919082163303610195571680600052600c6020526040600020600160ff198254161790557f6d05492139c5ea989514a5d2150c028041e5c087e2a39967f67dc7d2655adb81600080a2005b602036600319011261019557600054600435906001600160a01b03163303610195573415610195578060005260056020526040600020610c053482546117dc565b90558060005260056020527f59cf05b569f6230787852b6f1a84ff0f155b2363c622c463141caaee1b6d6643604080600020548151903482526020820152a2005b34610195576020366003190112610195576001600160a01b03610c6761167c565b16600052600a6020526020604060002054604051908152f35b34610195576000366003190112610195576020600254604051908152f35b34610195576020366003190112610195576001600160a01b03610cbf61167c565b16600052600c602052602060ff604060002054166040519015158152f35b3461019557602080600319360112610195576001600160a01b03610cff61167c565b1660005260098152604060002090604051908181845491828152019360005281600020916000905b828210610d3e5761029285610286818903826117b9565b835486529485019460019384019390910190610d27565b346101955760208060031936011261019557600435806000526005908183526040600020541561019557600891828452604060002092604051808587829754938481520190600052876000209260005b89828210610f0a57505050610dbc925003856117b9565b60009460005b8551811015610f08578181851b870101516000526007825260406000208381019060ff8254166004811015610ef257600180911480610ee5575b610e12575b505050610e0d90611820565b610dc2565b600a82015490886000528786526040600020805483811015610e37575b505050610e01565b83610e47919d949597969d611989565b9055840190610e7a8360018060a01b039283855416600052600b89526040600020610e738382546117dc565b90556117dc565b9a600360ff1982541617905560008080808685875416828215610edc575bf11561093e57857f1d0f102d737fa5f0a0f89df1c7bd6c4d6ea8866cb4cd14b9461b04a9c3bd7b6d91610e0d965493541693604051908152a3908880808080610e2f565b506108fc610e98565b50600a8201541515610dfc565b634e487b7160e01b600052602160045260246000fd5b005b855484526001958601958a955093019201610da5565b34610195576020366003190112610195576001600160a01b03610f4161167c565b16600052600a60205260408060002054600b602052816000205482519182526020820152f35b34610195576020366003190112610195576000546001600160a01b0316330361019557600480359055005b34610195576020366003190112610195576004356000610140604051610fb78161179d565b82815282602082015282604082015260608082015260606080820152606060a0820152606060c08201528260e08201528261010082015260606101208201520152801515806111cd575b156101955760005260076020526040600020604051906110208261179d565b8054825260018101546001600160a01b0316602083015260028101546040808401919091525161105e816110578160038601611707565b03826117b9565b6060830152604051611077816110578160048601611707565b6080830152604051611090816110578160058601611707565b60a08301526040516110a9816110578160068601611707565b60c0830152600781015460e083015260ff600882015416906004821015610ef257600a916101008401526040516110e7816110578160098601611707565b61012084015201546101408201526040518091602082528051602083015260018060a01b0360208201511660408301526040810151606083015260608101516101406111c26111446101609384608088015261018087019061162f565b61118e61117a611166608088015193601f1994858b83030160a08c015261162f565b60a0880151848a83030160c08b015261162f565b60c0870151838983030160e08a015261162f565b9060e08601516101008801526111ae61010087015161012089019061166f565b61012086015190878303018488015261162f565b920151908301520390f35b50600254811115611001565b346101955760203660031901126101955760043560005260066020526020604060002054604051908152f35b3461019557611213366115be565b6000549091906001600160a01b0316330361019557600052600560205260406000209081549181831061019557600080808481946112518289611989565b9055818115611265575b3390f11561093e57005b506108fc61125b565b3461019557606036600319011261019557600435602435801515808203610195576001600160401b0392604435848111610195576112b0903690600401611602565b92909433600052602093600c855260ff60406000205416156101955783151580611555575b156101955783600052600d8552604060002033600052855260ff6040600020541661019557836000526007855260ff600860406000200154166004811015610ef2576101955783600052600d8552604060002033600052855260406000209660019660ff1998888a8254161790556000146114675750505081600052600e835260406000206113648154611820565b90555b604051908152817f1fb14b3bf3798c268811f880a4b800a6140774e15e3d530fa663451c0d263b60843393a36000818152600e83526040902054600211611439576000938493600a61141986958695865260078152604086209360028501549581600887019182541617905585875260068252604087206113e88154611820565b9055840180546001600160a01b0390811688529184905260408720805461140e90611820565b9055541680946118d8565b91015560045490828215611430575bf11561093e57005b506108fc611428565b509050600f81526002604060002054101561145057005b600790526002600860406000200191825416179055005b84600052600f8652604060002061147e8154611820565b90558161148e575b505050611367565b846000526007865260096040600020019282116107705781906114b5826105c786546116cd565b600090601f83116001146114f2576000926114e7575b5050600019600383901b1c191690861b1790555b858080611486565b0135905088806114cb565b889350601f1983169185600052886000209260005b8a82821061153f5750508411611525575b505050811b0190556114df565b0135600019600384901b60f8161c19169055888080611518565b8385013586558c97909501949283019201611507565b506002548411156112d5565b3461019557602036600319011261019557600435600052600f6020526020604060002054604051908152f35b346101955761159b366115be565b90600052600860205260406000208054821015610195576020916102f7916115d4565b6040906003190112610195576004359060243590565b80548210156115ec5760005260206000200190600090565b634e487b7160e01b600052603260045260246000fd5b9181601f84011215610195578235916001600160401b038311610195576020838186019501011161019557565b919082519283825260005b84811061165b575050826000602080949584010152601f8019910116010190565b60208183018101518483018201520161163a565b906004821015610ef25752565b600435906001600160a01b038216820361019557565b6020908160408183019282815285518094520193019160005b8281106116b9575050505090565b8351855293810193928101926001016116ab565b90600182811c921680156116fd575b60208310146116e757565b634e487b7160e01b600052602260045260246000fd5b91607f16916116dc565b9060009291805491611718836116cd565b91828252600193848116908160001461177a575060011461173a575b50505050565b90919394506000526020928360002092846000945b838610611766575050505001019038808080611734565b80548587018301529401938590820161174f565b9294505050602093945060ff191683830152151560051b01019038808080611734565b61016081019081106001600160401b0382111761077057604052565b601f909101601f19168101906001600160401b0382119082101761077057604052565b919082018092116117e957565b634e487b7160e01b600052601160045260246000fd5b908060209392818452848401376000828201840152601f01601f1916010190565b60001981146117e95760010190565b90601f811161183d57505050565b600091825260208220906020601f850160051c83019410611879575b601f0160051c01915b82811061186e57505050565b818155600101611862565b9092508290611859565b8054600160401b811015610770576118a0916001820181556115d4565b819291549060031b91821b91600019901b1916179055565b81156118c2570490565b634e487b7160e01b600052601260045260246000fd5b600090815260056020526040812054600660205260408220549081156119825781611902916118b8565b6001600160a01b039093168252600a60205260408220546064808202918015908304909114171561196e5790611937916118b8565b9081830291838304148315171561195a57509060646119579204906117dc565b90565b634e487b7160e01b81526011600452602490fd5b634e487b7160e01b83526011600452602483fd5b5050905090565b919082039182116117e95756fec288837f892a922779b110a95d4f6b6fd25014b842c27a70e5fa038aaad1fc06","opcodes":"PUSH1 0x80 CALLVALUE PUSH2 0xB9 JUMPI PUSH1 0x1F PUSH3 0x1AA0 CODESIZE DUP2 SWAP1 SUB SWAP2 DUP3 ADD PUSH1 0x1F NOT AND DUP4 ADD SWAP2 PUSH1 0x1 PUSH1 0x1 PUSH1 0x40 SHL SUB DUP4 GT DUP5 DUP5 LT OR PUSH2 0xBE JUMPI DUP1 DUP5 SWAP3 PUSH1 0x40 SWAP5 DUP6 MSTORE DUP4 CODECOPY DUP2 ADD SUB SLT PUSH2 0xB9 JUMPI PUSH2 0x53 PUSH1 0x20 PUSH2 0x4C DUP4 PUSH2 0xD4 JUMP JUMPDEST SWAP3 ADD PUSH2 0xD4 JUMP JUMPDEST PUSH3 0x93A80 PUSH1 0x3 SSTORE PUSH7 0x2386F26FC10000 PUSH1 0x4 SSTORE PUSH1 0x1 DUP1 PUSH1 0xA0 SHL SUB SWAP1 DUP2 PUSH1 0x1 DUP1 PUSH1 0xA0 SHL SUB NOT SWAP4 AND DUP4 PUSH1 0x0 SLOAD AND OR PUSH1 0x0 SSTORE AND SWAP1 PUSH1 0x1 SLOAD AND OR PUSH1 0x1 SSTORE PUSH1 0x0 PUSH1 0x2 SSTORE CALLER PUSH1 0x0 MSTORE PUSH1 0xC PUSH1 0x20 MSTORE PUSH1 0x40 PUSH1 0x0 KECCAK256 PUSH1 0x1 PUSH1 0xFF NOT DUP3 SLOAD AND OR SWAP1 SSTORE PUSH1 0x40 MLOAD PUSH2 0x19B7 SWAP1 DUP2 PUSH3 0xE9 DUP3 CODECOPY RETURN JUMPDEST PUSH1 0x0 DUP1 REVERT JUMPDEST PUSH4 0x4E487B71 PUSH1 0xE0 SHL PUSH1 0x0 MSTORE PUSH1 0x41 PUSH1 0x4 MSTORE PUSH1 0x24 PUSH1 0x0 REVERT JUMPDEST MLOAD SWAP1 PUSH1 0x1 PUSH1 0x1 PUSH1 0xA0 SHL SUB DUP3 AND DUP3 SUB PUSH2 0xB9 JUMPI JUMP INVALID PUSH1 0x80 PUSH1 0x40 MSTORE PUSH1 0x4 CALLDATASIZE LT ISZERO PUSH2 0x12 JUMPI PUSH1 0x0 DUP1 REVERT JUMPDEST PUSH1 0x0 CALLDATALOAD PUSH1 0xE0 SHR DUP1 PUSH4 0xC886A6B EQ PUSH2 0x158D JUMPI DUP1 PUSH4 0x15F25549 EQ PUSH2 0x1561 JUMPI DUP1 PUSH4 0x1E09D5A9 EQ PUSH2 0x126E JUMPI DUP1 PUSH4 0x1F276B6E EQ PUSH2 0x1205 JUMPI DUP1 PUSH4 0x39C65D8D EQ PUSH2 0x11D9 JUMPI DUP1 PUSH4 0x3E8686CC EQ PUSH2 0xF92 JUMPI DUP1 PUSH4 0x4C41E880 EQ PUSH2 0xF67 JUMPI DUP1 PUSH4 0x537DBF07 EQ PUSH2 0xF20 JUMPI DUP1 PUSH4 0x59974E38 EQ PUSH2 0xD55 JUMPI DUP1 PUSH4 0x60D25E81 EQ PUSH2 0xCDD JUMPI DUP1 PUSH4 0x6C824487 EQ PUSH2 0xC9E JUMPI DUP1 PUSH4 0x76C23FF1 EQ PUSH2 0xC80 JUMPI DUP1 PUSH4 0x7A0C95AA EQ PUSH2 0xC46 JUMPI DUP1 PUSH4 0x7C8EFCE3 EQ PUSH2 0xBC4 JUMPI DUP1 PUSH4 0x9000B3D6 EQ PUSH2 0xB55 JUMPI DUP1 PUSH4 0xABAC7E0D EQ PUSH2 0xB29 JUMPI DUP1 PUSH4 0xAD73349E EQ PUSH2 0x9BF JUMPI DUP1 PUSH4 0xB1BB7E0F EQ PUSH2 0x9A1 JUMPI DUP1 PUSH4 0xB4B9E706 EQ PUSH2 0x975 JUMPI DUP1 PUSH4 0xBC74B08D EQ PUSH2 0x94A JUMPI DUP1 PUSH4 0xC12255FE EQ PUSH2 0x39A JUMPI DUP1 PUSH4 0xC2FDA487 EQ PUSH2 0x371 JUMPI DUP1 PUSH4 0xCA2DFD0A EQ PUSH2 0x305 JUMPI DUP1 PUSH4 0xDFDE74FE EQ PUSH2 0x2AD JUMPI DUP1 PUSH4 0xE04A3770 EQ PUSH2 0x233 JUMPI DUP1 PUSH4 0xE80DB5DB EQ PUSH2 0x20A JUMPI DUP1 PUSH4 0xEC5FFAC2 EQ PUSH2 0x1EC JUMPI DUP1 PUSH4 0xEF11151E EQ PUSH2 0x19A JUMPI PUSH4 0xF1F568F7 EQ PUSH2 0x15B JUMPI PUSH1 0x0 DUP1 REVERT JUMPDEST CALLVALUE PUSH2 0x195 JUMPI PUSH1 0x20 CALLDATASIZE PUSH1 0x3 NOT ADD SLT PUSH2 0x195 JUMPI PUSH1 0x1 PUSH1 0x1 PUSH1 0xA0 SHL SUB PUSH2 0x17C PUSH2 0x167C JUMP JUMPDEST AND PUSH1 0x0 MSTORE PUSH1 0xB PUSH1 0x20 MSTORE PUSH1 0x20 PUSH1 0x40 PUSH1 0x0 KECCAK256 SLOAD PUSH1 0x40 MLOAD SWAP1 DUP2 MSTORE RETURN JUMPDEST PUSH1 0x0 DUP1 REVERT JUMPDEST CALLVALUE PUSH2 0x195 JUMPI PUSH1 0x40 CALLDATASIZE PUSH1 0x3 NOT ADD SLT PUSH2 0x195 JUMPI PUSH1 0x24 CALLDATALOAD PUSH1 0x1 PUSH1 0x1 PUSH1 0xA0 SHL SUB DUP2 AND SWAP1 DUP2 SWAP1 SUB PUSH2 0x195 JUMPI PUSH1 0x4 CALLDATALOAD PUSH1 0x0 MSTORE PUSH1 0xD PUSH1 0x20 MSTORE PUSH1 0x40 PUSH1 0x0 KECCAK256 SWAP1 PUSH1 0x0 MSTORE PUSH1 0x20 MSTORE PUSH1 0x20 PUSH1 0xFF PUSH1 0x40 PUSH1 0x0 KECCAK256 SLOAD AND PUSH1 0x40 MLOAD SWAP1 ISZERO ISZERO DUP2 MSTORE RETURN JUMPDEST CALLVALUE PUSH2 0x195 JUMPI PUSH1 0x0 CALLDATASIZE PUSH1 0x3 NOT ADD SLT PUSH2 0x195 JUMPI PUSH1 0x20 PUSH1 0x4 SLOAD PUSH1 0x40 MLOAD SWAP1 DUP2 MSTORE RETURN JUMPDEST CALLVALUE PUSH2 0x195 JUMPI PUSH1 0x0 CALLDATASIZE PUSH1 0x3 NOT ADD SLT PUSH2 0x195 JUMPI PUSH1 0x0 SLOAD PUSH1 0x40 MLOAD PUSH1 0x1 PUSH1 0x1 PUSH1 0xA0 SHL SUB SWAP1 SWAP2 AND DUP2 MSTORE PUSH1 0x20 SWAP1 RETURN JUMPDEST CALLVALUE PUSH2 0x195 JUMPI PUSH1 0x20 DUP1 PUSH1 0x3 NOT CALLDATASIZE ADD SLT PUSH2 0x195 JUMPI PUSH1 0x4 CALLDATALOAD PUSH1 0x0 MSTORE PUSH1 0x8 DUP2 MSTORE PUSH1 0x40 PUSH1 0x0 KECCAK256 SWAP1 PUSH1 0x40 MLOAD SWAP1 DUP2 DUP2 DUP5 SLOAD SWAP2 DUP3 DUP2 MSTORE ADD SWAP4 PUSH1 0x0 MSTORE DUP2 PUSH1 0x0 KECCAK256 SWAP2 PUSH1 0x0 SWAP1 JUMPDEST DUP3 DUP3 LT PUSH2 0x296 JUMPI PUSH2 0x292 DUP6 PUSH2 0x286 DUP2 DUP10 SUB DUP3 PUSH2 0x17B9 JUMP JUMPDEST PUSH1 0x40 MLOAD SWAP2 DUP3 SWAP2 DUP3 PUSH2 0x1692 JUMP JUMPDEST SUB SWAP1 RETURN JUMPDEST DUP4 SLOAD DUP7 MSTORE SWAP5 DUP6 ADD SWAP5 PUSH1 0x1 SWAP4 DUP5 ADD SWAP4 SWAP1 SWAP2 ADD SWAP1 PUSH2 0x26F JUMP JUMPDEST CALLVALUE PUSH2 0x195 JUMPI PUSH1 0x40 CALLDATASIZE PUSH1 0x3 NOT ADD SLT PUSH2 0x195 JUMPI PUSH2 0x2C6 PUSH2 0x167C JUMP JUMPDEST PUSH1 0x1 PUSH1 0x1 PUSH1 0xA0 SHL SUB AND PUSH1 0x0 SWAP1 DUP2 MSTORE PUSH1 0x9 PUSH1 0x20 MSTORE PUSH1 0x40 SWAP1 KECCAK256 DUP1 SLOAD PUSH1 0x24 CALLDATALOAD SWAP2 SWAP1 DUP3 LT ISZERO PUSH2 0x195 JUMPI PUSH1 0x20 SWAP2 PUSH2 0x2F7 SWAP2 PUSH2 0x15D4 JUMP JUMPDEST SWAP1 SLOAD PUSH1 0x40 MLOAD SWAP2 PUSH1 0x3 SHL SHR DUP2 MSTORE RETURN JUMPDEST CALLVALUE PUSH2 0x195 JUMPI PUSH1 0x20 CALLDATASIZE PUSH1 0x3 NOT ADD SLT PUSH2 0x195 JUMPI PUSH2 0x31E PUSH2 0x167C JUMP JUMPDEST PUSH1 0x0 SLOAD PUSH1 0x1 PUSH1 0x1 PUSH1 0xA0 SHL SUB SWAP2 SWAP1 DUP3 AND CALLER SUB PUSH2 0x195 JUMPI AND DUP1 PUSH1 0x0 MSTORE PUSH1 0xC PUSH1 0x20 MSTORE PUSH1 0x40 PUSH1 0x0 KECCAK256 PUSH1 0xFF NOT DUP2 SLOAD AND SWAP1 SSTORE PUSH32 0x44A3CD4EB5CC5748F6169DF057B1CB2AE4C383E87CD94663C430E095D4CBA424 PUSH1 0x0 DUP1 LOG2 STOP JUMPDEST CALLVALUE PUSH2 0x195 JUMPI PUSH1 0x0 CALLDATASIZE PUSH1 0x3 NOT ADD SLT PUSH2 0x195 JUMPI PUSH1 0x1 SLOAD PUSH1 0x40 MLOAD PUSH1 0x1 PUSH1 0x1 PUSH1 0xA0 SHL SUB SWAP1 SWAP2 AND DUP2 MSTORE PUSH1 0x20 SWAP1 RETURN JUMPDEST PUSH1 0xA0 CALLDATASIZE PUSH1 0x3 NOT ADD SLT PUSH2 0x195 JUMPI PUSH1 0x24 CALLDATALOAD PUSH1 0x1 PUSH1 0x1 PUSH1 0x40 SHL SUB DUP2 GT PUSH2 0x195 JUMPI PUSH2 0x3C5 SWAP1 CALLDATASIZE SWAP1 PUSH1 0x4 ADD PUSH2 0x1602 JUMP JUMPDEST PUSH1 0x44 CALLDATALOAD PUSH1 0x1 PUSH1 0x1 PUSH1 0x40 SHL SUB DUP2 GT PUSH2 0x195 JUMPI PUSH2 0x3E4 SWAP1 CALLDATASIZE SWAP1 PUSH1 0x4 ADD PUSH2 0x1602 JUMP JUMPDEST SWAP1 PUSH1 0x64 CALLDATALOAD PUSH1 0x1 PUSH1 0x1 PUSH1 0x40 SHL SUB DUP2 GT PUSH2 0x195 JUMPI PUSH2 0x404 SWAP1 CALLDATASIZE SWAP1 PUSH1 0x4 ADD PUSH2 0x1602 JUMP JUMPDEST SWAP5 SWAP1 SWAP4 PUSH1 0x84 CALLDATALOAD PUSH1 0x1 PUSH1 0x1 PUSH1 0x40 SHL SUB DUP2 GT PUSH2 0x195 JUMPI PUSH2 0x426 SWAP1 CALLDATASIZE SWAP1 PUSH1 0x4 ADD PUSH2 0x1602 JUMP JUMPDEST SWAP3 SWAP1 SWAP2 PUSH1 0x4 SLOAD CALLVALUE LT PUSH2 0x195 JUMPI PUSH1 0x4 CALLDATALOAD PUSH1 0x0 MSTORE PUSH1 0x5 PUSH1 0x20 MSTORE PUSH1 0x40 PUSH1 0x0 KECCAK256 SLOAD ISZERO PUSH2 0x195 JUMPI DUP4 ISZERO PUSH2 0x195 JUMPI PUSH1 0x1 SLOAD PUSH1 0x40 DUP1 MLOAD PUSH4 0x17E7EC5 PUSH1 0xE3 SHL DUP2 MSTORE PUSH1 0x4 DUP1 CALLDATALOAD SWAP1 DUP3 ADD MSTORE PUSH1 0x60 PUSH1 0x24 DUP3 ADD MSTORE SWAP2 DUP3 SWAP1 PUSH1 0x1 PUSH1 0x1 PUSH1 0xA0 SHL SUB AND DUP2 DUP1 PUSH2 0x4A0 PUSH2 0x48D PUSH1 0x64 DUP4 ADD DUP10 DUP12 PUSH2 0x17FF JUMP JUMPDEST DUP3 DUP2 SUB PUSH1 0x3 NOT ADD PUSH1 0x44 DUP5 ADD MSTORE DUP14 DUP14 PUSH2 0x17FF JUMP JUMPDEST SUB SWAP2 GAS STATICCALL SWAP1 DUP2 ISZERO PUSH2 0x93E JUMPI PUSH1 0x0 SWAP2 PUSH2 0x8EE JUMPI JUMPDEST POP PUSH2 0x195 JUMPI PUSH2 0x4C3 PUSH1 0x2 SLOAD PUSH2 0x1820 JUMP JUMPDEST PUSH1 0x2 DUP2 DUP2 SSTORE PUSH1 0x0 DUP3 DUP2 MSTORE PUSH1 0x7 PUSH1 0x20 MSTORE PUSH1 0x40 SWAP1 KECCAK256 DUP3 DUP2 SSTORE PUSH1 0x1 DUP2 ADD DUP1 SLOAD PUSH1 0x1 PUSH1 0x1 PUSH1 0xA0 SHL SUB NOT AND CALLER OR SWAP1 SSTORE PUSH1 0x4 CALLDATALOAD SWAP2 DUP2 ADD SWAP2 SWAP1 SWAP2 SSTORE SWAP9 SWAP1 SWAP8 SWAP1 PUSH1 0x1 PUSH1 0x1 PUSH1 0x40 SHL SUB DUP4 GT PUSH2 0x770 JUMPI PUSH2 0x523 DUP4 PUSH2 0x51A PUSH1 0x3 DUP14 ADD SLOAD PUSH2 0x16CD JUMP JUMPDEST PUSH1 0x3 DUP14 ADD PUSH2 0x182F JUMP JUMPDEST DUP3 PUSH1 0x0 PUSH1 0x1F DUP3 GT PUSH1 0x1 EQ PUSH2 0x880 JUMPI PUSH1 0x0 SWAP2 PUSH2 0x875 JUMPI JUMPDEST POP DUP4 PUSH1 0x1 SHL SWAP1 PUSH1 0x0 NOT DUP6 PUSH1 0x3 SHL SHR NOT AND OR PUSH1 0x3 DUP12 ADD SSTORE JUMPDEST PUSH1 0x1 PUSH1 0x1 PUSH1 0x40 SHL SUB DUP9 GT PUSH2 0x770 JUMPI PUSH2 0x578 DUP9 PUSH2 0x56F PUSH1 0x4 DUP14 ADD SLOAD PUSH2 0x16CD JUMP JUMPDEST PUSH1 0x4 DUP14 ADD PUSH2 0x182F JUMP JUMPDEST DUP8 PUSH1 0x0 PUSH1 0x1F DUP3 GT PUSH1 0x1 EQ PUSH2 0x807 JUMPI PUSH1 0x0 SWAP2 PUSH2 0x7FC JUMPI JUMPDEST POP DUP9 PUSH1 0x1 SHL SWAP1 PUSH1 0x0 NOT DUP11 PUSH1 0x3 SHL SHR NOT AND OR PUSH1 0x4 DUP12 ADD SSTORE JUMPDEST PUSH1 0x1 PUSH1 0x1 PUSH1 0x40 SHL SUB DUP2 GT PUSH2 0x770 JUMPI DUP1 PUSH1 0x5 DUP12 ADD SWAP3 PUSH2 0x5CD DUP3 PUSH2 0x5C7 DUP7 SLOAD PUSH2 0x16CD JUMP JUMPDEST DUP7 PUSH2 0x182F JUMP JUMPDEST PUSH1 0x0 SWAP1 PUSH1 0x1F DUP4 GT PUSH1 0x1 EQ PUSH2 0x791 JUMPI PUSH1 0x0 SWAP3 PUSH2 0x786 JUMPI JUMPDEST POP POP DUP2 PUSH1 0x1 SHL SWAP2 PUSH1 0x0 NOT SWAP1 PUSH1 0x3 SHL SHR NOT AND OR SWAP1 SSTORE JUMPDEST PUSH1 0x1 PUSH1 0x1 PUSH1 0x40 SHL SUB DUP5 GT PUSH2 0x770 JUMPI DUP8 DUP8 SWAP4 PUSH2 0x625 DUP7 PUSH2 0x61C PUSH1 0x6 PUSH1 0x20 SWAP14 ADD SLOAD PUSH2 0x16CD JUMP JUMPDEST PUSH1 0x6 DUP6 ADD PUSH2 0x182F JUMP JUMPDEST PUSH1 0x0 SWAP1 PUSH1 0x1F DUP8 GT PUSH1 0x1 EQ PUSH2 0x6E9 JUMPI SWAP6 DUP1 PUSH1 0x8 SWAP4 SWAP3 PUSH1 0x0 DUP1 MLOAD PUSH1 0x20 PUSH2 0x1997 DUP4 CODECOPY DUP2 MLOAD SWAP2 MSTORE SWAP8 SWAP9 PUSH1 0x0 SWAP3 PUSH2 0x6DE JUMPI JUMPDEST POP POP DUP2 PUSH1 0x1 SHL SWAP2 PUSH1 0x0 NOT SWAP1 PUSH1 0x3 SHL SHR NOT AND OR PUSH1 0x6 DUP3 ADD SSTORE JUMPDEST TIMESTAMP PUSH1 0x7 DUP3 ADD SSTORE ADD PUSH1 0xFF NOT DUP2 SLOAD AND SWAP1 SSTORE PUSH1 0x4 CALLDATALOAD PUSH1 0x0 MSTORE PUSH1 0x8 DUP9 MSTORE PUSH2 0x691 DUP5 PUSH1 0x40 PUSH1 0x0 KECCAK256 PUSH2 0x1883 JUMP JUMPDEST CALLER PUSH1 0x0 MSTORE PUSH1 0x9 DUP9 MSTORE PUSH2 0x6A7 DUP5 PUSH1 0x40 PUSH1 0x0 KECCAK256 PUSH2 0x1883 JUMP JUMPDEST PUSH2 0x6D3 PUSH2 0x6C1 PUSH1 0x40 MLOAD SWAP4 DUP5 SWAP4 PUSH1 0x40 DUP6 MSTORE PUSH1 0x40 DUP6 ADD SWAP2 PUSH2 0x17FF JUMP JUMPDEST DUP3 DUP2 SUB DUP11 DUP5 ADD MSTORE CALLER SWAP8 PUSH1 0x4 CALLDATALOAD SWAP8 PUSH2 0x17FF JUMP JUMPDEST SUB SWAP1 LOG4 PUSH1 0x40 MLOAD SWAP1 DUP2 MSTORE RETURN JUMPDEST ADD CALLDATALOAD SWAP1 POP DUP13 DUP1 PUSH2 0x652 JUMP JUMPDEST PUSH1 0x6 DUP4 SWAP8 SWAP3 SWAP8 ADD PUSH1 0x0 MSTORE DUP11 PUSH1 0x0 KECCAK256 SWAP7 PUSH1 0x0 JUMPDEST PUSH1 0x1F NOT DUP5 AND DUP2 LT PUSH2 0x756 JUMPI POP SWAP2 PUSH1 0x0 DUP1 MLOAD PUSH1 0x20 PUSH2 0x1997 DUP4 CODECOPY DUP2 MLOAD SWAP2 MSTORE SWAP7 SWAP8 PUSH1 0x1 SWAP3 PUSH1 0x8 SWAP6 SWAP5 DUP4 PUSH1 0x1F NOT DUP2 AND LT PUSH2 0x73C JUMPI JUMPDEST POP POP POP DUP2 SHL ADD PUSH1 0x6 DUP3 ADD SSTORE PUSH2 0x66A JUMP JUMPDEST ADD CALLDATALOAD PUSH1 0x0 NOT PUSH1 0x3 DUP5 SWAP1 SHL PUSH1 0xF8 AND SHR NOT AND SWAP1 SSTORE DUP13 DUP1 DUP1 PUSH2 0x72C JUMP JUMPDEST DUP2 DUP4 ADD CALLDATALOAD DUP10 SSTORE PUSH1 0x1 SWAP1 SWAP9 ADD SWAP8 DUP12 SWAP8 POP SWAP1 DUP13 ADD SWAP1 DUP13 ADD PUSH2 0x6FB JUMP JUMPDEST PUSH4 0x4E487B71 PUSH1 0xE0 SHL PUSH1 0x0 MSTORE PUSH1 0x41 PUSH1 0x4 MSTORE PUSH1 0x24 PUSH1 0x0 REVERT JUMPDEST ADD CALLDATALOAD SWAP1 POP DUP12 DUP1 PUSH2 0x5E3 JUMP JUMPDEST SWAP1 SWAP2 POP PUSH1 0x1F NOT DUP4 AND SWAP2 DUP5 PUSH1 0x0 MSTORE PUSH1 0x20 PUSH1 0x0 KECCAK256 SWAP3 PUSH1 0x0 JUMPDEST DUP2 DUP2 LT PUSH2 0x7E4 JUMPI POP SWAP1 DUP5 PUSH1 0x1 SWAP6 SWAP5 SWAP4 SWAP3 LT PUSH2 0x7CA JUMPI JUMPDEST POP POP POP DUP2 SHL ADD SWAP1 SSTORE PUSH2 0x5F8 JUMP JUMPDEST ADD CALLDATALOAD PUSH1 0x0 NOT PUSH1 0x3 DUP5 SWAP1 SHL PUSH1 0xF8 AND SHR NOT AND SWAP1 SSTORE DUP12 DUP1 DUP1 PUSH2 0x7BD JUMP JUMPDEST SWAP2 SWAP4 PUSH1 0x20 PUSH1 0x1 DUP2 SWAP3 DUP8 DUP8 ADD CALLDATALOAD DUP2 SSTORE ADD SWAP6 ADD SWAP3 ADD PUSH2 0x7A7 JUMP JUMPDEST SWAP1 POP DUP8 ADD CALLDATALOAD DUP12 PUSH2 0x58E JUMP JUMPDEST SWAP1 POP PUSH1 0x4 DUP12 ADD PUSH1 0x0 MSTORE PUSH1 0x20 PUSH1 0x0 KECCAK256 SWAP1 PUSH1 0x0 JUMPDEST PUSH1 0x1F NOT DUP12 AND DUP2 LT PUSH2 0x85D JUMPI POP DUP10 PUSH1 0x1F NOT DUP2 AND LT PUSH2 0x843 JUMPI JUMPDEST POP POP PUSH1 0x1 DUP9 DUP2 SHL ADD PUSH1 0x4 DUP12 ADD SSTORE PUSH2 0x5A5 JUMP JUMPDEST DUP9 ADD CALLDATALOAD PUSH1 0x0 NOT PUSH1 0x3 DUP12 SWAP1 SHL PUSH1 0xF8 AND SHR NOT AND SWAP1 SSTORE DUP11 DUP1 PUSH2 0x831 JUMP JUMPDEST SWAP1 SWAP2 PUSH1 0x20 PUSH1 0x1 DUP2 SWAP3 DUP6 DUP14 ADD CALLDATALOAD DUP2 SSTORE ADD SWAP4 ADD SWAP2 ADD PUSH2 0x819 JUMP JUMPDEST SWAP1 POP DUP5 ADD CALLDATALOAD DUP12 PUSH2 0x539 JUMP JUMPDEST SWAP1 POP PUSH1 0x3 DUP12 ADD PUSH1 0x0 MSTORE PUSH1 0x20 PUSH1 0x0 KECCAK256 SWAP1 PUSH1 0x0 JUMPDEST PUSH1 0x1F NOT DUP7 AND DUP2 LT PUSH2 0x8D6 JUMPI POP DUP5 PUSH1 0x1F NOT DUP2 AND LT PUSH2 0x8BC JUMPI JUMPDEST POP POP PUSH1 0x1 DUP4 DUP2 SHL ADD PUSH1 0x3 DUP12 ADD SSTORE PUSH2 0x550 JUMP JUMPDEST DUP6 ADD CALLDATALOAD PUSH1 0x0 NOT PUSH1 0x3 DUP7 SWAP1 SHL PUSH1 0xF8 AND SHR NOT AND SWAP1 SSTORE DUP11 DUP1 PUSH2 0x8AA JUMP JUMPDEST SWAP1 SWAP2 PUSH1 0x20 PUSH1 0x1 DUP2 SWAP3 DUP6 DUP11 ADD CALLDATALOAD DUP2 SSTORE ADD SWAP4 ADD SWAP2 ADD PUSH2 0x892 JUMP JUMPDEST SWAP1 POP PUSH1 0x40 DUP2 RETURNDATASIZE PUSH1 0x40 GT PUSH2 0x936 JUMPI JUMPDEST DUP2 PUSH2 0x909 PUSH1 0x40 SWAP4 DUP4 PUSH2 0x17B9 JUMP JUMPDEST DUP2 ADD SUB SLT PUSH2 0x195 JUMPI DUP1 MLOAD SWAP1 DUP2 ISZERO ISZERO DUP3 SUB PUSH2 0x195 JUMPI PUSH1 0x20 ADD MLOAD PUSH1 0x1 PUSH1 0x1 PUSH1 0xA0 SHL SUB DUP2 AND SUB PUSH2 0x195 JUMPI DUP10 PUSH2 0x4B3 JUMP JUMPDEST RETURNDATASIZE SWAP2 POP PUSH2 0x8FC JUMP JUMPDEST PUSH1 0x40 MLOAD RETURNDATASIZE PUSH1 0x0 DUP3 RETURNDATACOPY RETURNDATASIZE SWAP1 REVERT JUMPDEST CALLVALUE PUSH2 0x195 JUMPI PUSH1 0x20 CALLDATASIZE PUSH1 0x3 NOT ADD SLT PUSH2 0x195 JUMPI PUSH1 0x0 SLOAD PUSH1 0x1 PUSH1 0x1 PUSH1 0xA0 SHL SUB AND CALLER SUB PUSH2 0x195 JUMPI PUSH1 0x4 CALLDATALOAD PUSH1 0x3 SSTORE STOP JUMPDEST CALLVALUE PUSH2 0x195 JUMPI PUSH1 0x20 CALLDATASIZE PUSH1 0x3 NOT ADD SLT PUSH2 0x195 JUMPI PUSH1 0x4 CALLDATALOAD PUSH1 0x0 MSTORE PUSH1 0x5 PUSH1 0x20 MSTORE PUSH1 0x20 PUSH1 0x40 PUSH1 0x0 KECCAK256 SLOAD PUSH1 0x40 MLOAD SWAP1 DUP2 MSTORE RETURN JUMPDEST CALLVALUE PUSH2 0x195 JUMPI PUSH1 0x0 CALLDATASIZE PUSH1 0x3 NOT ADD SLT PUSH2 0x195 JUMPI PUSH1 0x20 PUSH1 0x3 SLOAD PUSH1 0x40 MLOAD SWAP1 DUP2 MSTORE RETURN JUMPDEST CALLVALUE PUSH2 0x195 JUMPI PUSH1 0x20 CALLDATASIZE PUSH1 0x3 NOT ADD SLT PUSH2 0x195 JUMPI PUSH1 0x4 CALLDATALOAD PUSH1 0x0 MSTORE PUSH1 0x7 PUSH1 0x20 MSTORE PUSH1 0x40 PUSH1 0x0 KECCAK256 DUP1 SLOAD PUSH1 0x1 PUSH1 0xA0 SHL PUSH1 0x1 SWAP1 SUB PUSH1 0x1 DUP4 ADD SLOAD AND SWAP2 PUSH1 0x2 DUP2 ADD SLOAD SWAP1 PUSH1 0x40 MLOAD DUP1 DUP1 PUSH1 0x3 DUP5 ADD SWAP1 PUSH2 0xA0B SWAP2 PUSH2 0x1707 JUMP JUMPDEST SUB PUSH2 0xA16 SWAP1 DUP3 PUSH2 0x17B9 JUMP JUMPDEST PUSH1 0x40 MLOAD SWAP1 DUP2 PUSH2 0xA28 DUP2 PUSH1 0x4 DUP7 ADD PUSH2 0x1707 JUMP JUMPDEST SUB PUSH2 0xA33 SWAP1 DUP4 PUSH2 0x17B9 JUMP JUMPDEST PUSH1 0x40 MLOAD DUP1 PUSH2 0xA44 DUP2 PUSH1 0x5 DUP8 ADD PUSH2 0x1707 JUMP JUMPDEST SUB PUSH2 0xA4F SWAP1 DUP3 PUSH2 0x17B9 JUMP JUMPDEST PUSH1 0x40 MLOAD SWAP1 DUP2 PUSH2 0xA61 DUP2 PUSH1 0x6 DUP9 ADD PUSH2 0x1707 JUMP JUMPDEST SUB PUSH2 0xA6C SWAP1 DUP4 PUSH2 0x17B9 JUMP JUMPDEST PUSH1 0x7 DUP6 ADD SLOAD SWAP4 PUSH1 0x8 DUP7 ADD SLOAD PUSH1 0xFF AND SWAP4 PUSH1 0x40 MLOAD SWAP7 DUP8 DUP1 PUSH1 0x9 DUP4 ADD SWAP1 PUSH2 0xA8F SWAP2 PUSH2 0x1707 JUMP JUMPDEST SUB PUSH2 0xA9A SWAP1 DUP10 PUSH2 0x17B9 JUMP JUMPDEST PUSH1 0xA ADD SLOAD SWAP8 PUSH1 0x40 MLOAD SWAP11 DUP12 SWAP11 DUP12 MSTORE PUSH1 0x20 DUP12 ADD MSTORE PUSH1 0x40 DUP11 ADD MSTORE PUSH2 0x160 DUP1 PUSH1 0x60 DUP12 ADD MSTORE DUP10 ADD PUSH2 0xAC5 SWAP2 PUSH2 0x162F JUMP JUMPDEST DUP9 DUP2 SUB PUSH1 0x80 DUP11 ADD MSTORE PUSH2 0xAD6 SWAP2 PUSH2 0x162F JUMP JUMPDEST DUP8 DUP2 SUB PUSH1 0xA0 DUP10 ADD MSTORE PUSH2 0xAE7 SWAP2 PUSH2 0x162F JUMP JUMPDEST DUP7 DUP2 SUB PUSH1 0xC0 DUP9 ADD MSTORE PUSH2 0xAF8 SWAP2 PUSH2 0x162F JUMP JUMPDEST SWAP2 PUSH1 0xE0 DUP7 ADD MSTORE PUSH2 0x100 DUP6 ADD PUSH2 0xB0C SWAP2 PUSH2 0x166F JUMP JUMPDEST DUP4 DUP2 SUB PUSH2 0x120 DUP6 ADD MSTORE PUSH2 0xB1E SWAP2 PUSH2 0x162F JUMP JUMPDEST SWAP1 PUSH2 0x140 DUP4 ADD MSTORE SUB SWAP1 RETURN JUMPDEST CALLVALUE PUSH2 0x195 JUMPI PUSH1 0x20 CALLDATASIZE PUSH1 0x3 NOT ADD SLT PUSH2 0x195 JUMPI PUSH1 0x4 CALLDATALOAD PUSH1 0x0 MSTORE PUSH1 0xE PUSH1 0x20 MSTORE PUSH1 0x20 PUSH1 0x40 PUSH1 0x0 KECCAK256 SLOAD PUSH1 0x40 MLOAD SWAP1 DUP2 MSTORE RETURN JUMPDEST CALLVALUE PUSH2 0x195 JUMPI PUSH1 0x20 CALLDATASIZE PUSH1 0x3 NOT ADD SLT PUSH2 0x195 JUMPI PUSH2 0xB6E PUSH2 0x167C JUMP JUMPDEST PUSH1 0x0 SLOAD PUSH1 0x1 PUSH1 0x1 PUSH1 0xA0 SHL SUB SWAP2 SWAP1 DUP3 AND CALLER SUB PUSH2 0x195 JUMPI AND DUP1 PUSH1 0x0 MSTORE PUSH1 0xC PUSH1 0x20 MSTORE PUSH1 0x40 PUSH1 0x0 KECCAK256 PUSH1 0x1 PUSH1 0xFF NOT DUP3 SLOAD AND OR SWAP1 SSTORE PUSH32 0x6D05492139C5EA989514A5D2150C028041E5C087E2A39967F67DC7D2655ADB81 PUSH1 0x0 DUP1 LOG2 STOP JUMPDEST PUSH1 0x20 CALLDATASIZE PUSH1 0x3 NOT ADD SLT PUSH2 0x195 JUMPI PUSH1 0x0 SLOAD PUSH1 0x4 CALLDATALOAD SWAP1 PUSH1 0x1 PUSH1 0x1 PUSH1 0xA0 SHL SUB AND CALLER SUB PUSH2 0x195 JUMPI CALLVALUE ISZERO PUSH2 0x195 JUMPI DUP1 PUSH1 0x0 MSTORE PUSH1 0x5 PUSH1 0x20 MSTORE PUSH1 0x40 PUSH1 0x0 KECCAK256 PUSH2 0xC05 CALLVALUE DUP3 SLOAD PUSH2 0x17DC JUMP JUMPDEST SWAP1 SSTORE DUP1 PUSH1 0x0 MSTORE PUSH1 0x5 PUSH1 0x20 MSTORE PUSH32 0x59CF05B569F6230787852B6F1A84FF0F155B2363C622C463141CAAEE1B6D6643 PUSH1 0x40 DUP1 PUSH1 0x0 KECCAK256 SLOAD DUP2 MLOAD SWAP1 CALLVALUE DUP3 MSTORE PUSH1 0x20 DUP3 ADD MSTORE LOG2 STOP JUMPDEST CALLVALUE PUSH2 0x195 JUMPI PUSH1 0x20 CALLDATASIZE PUSH1 0x3 NOT ADD SLT PUSH2 0x195 JUMPI PUSH1 0x1 PUSH1 0x1 PUSH1 0xA0 SHL SUB PUSH2 0xC67 PUSH2 0x167C JUMP JUMPDEST AND PUSH1 0x0 MSTORE PUSH1 0xA PUSH1 0x20 MSTORE PUSH1 0x20 PUSH1 0x40 PUSH1 0x0 KECCAK256 SLOAD PUSH1 0x40 MLOAD SWAP1 DUP2 MSTORE RETURN JUMPDEST CALLVALUE PUSH2 0x195 JUMPI PUSH1 0x0 CALLDATASIZE PUSH1 0x3 NOT ADD SLT PUSH2 0x195 JUMPI PUSH1 0x20 PUSH1 0x2 SLOAD PUSH1 0x40 MLOAD SWAP1 DUP2 MSTORE RETURN JUMPDEST CALLVALUE PUSH2 0x195 JUMPI PUSH1 0x20 CALLDATASIZE PUSH1 0x3 NOT ADD SLT PUSH2 0x195 JUMPI PUSH1 0x1 PUSH1 0x1 PUSH1 0xA0 SHL SUB PUSH2 0xCBF PUSH2 0x167C JUMP JUMPDEST AND PUSH1 0x0 MSTORE PUSH1 0xC PUSH1 0x20 MSTORE PUSH1 0x20 PUSH1 0xFF PUSH1 0x40 PUSH1 0x0 KECCAK256 SLOAD AND PUSH1 0x40 MLOAD SWAP1 ISZERO ISZERO DUP2 MSTORE RETURN JUMPDEST CALLVALUE PUSH2 0x195 JUMPI PUSH1 0x20 DUP1 PUSH1 0x3 NOT CALLDATASIZE ADD SLT PUSH2 0x195 JUMPI PUSH1 0x1 PUSH1 0x1 PUSH1 0xA0 SHL SUB PUSH2 0xCFF PUSH2 0x167C JUMP JUMPDEST AND PUSH1 0x0 MSTORE PUSH1 0x9 DUP2 MSTORE PUSH1 0x40 PUSH1 0x0 KECCAK256 SWAP1 PUSH1 0x40 MLOAD SWAP1 DUP2 DUP2 DUP5 SLOAD SWAP2 DUP3 DUP2 MSTORE ADD SWAP4 PUSH1 0x0 MSTORE DUP2 PUSH1 0x0 KECCAK256 SWAP2 PUSH1 0x0 SWAP1 JUMPDEST DUP3 DUP3 LT PUSH2 0xD3E JUMPI PUSH2 0x292 DUP6 PUSH2 0x286 DUP2 DUP10 SUB DUP3 PUSH2 0x17B9 JUMP JUMPDEST DUP4 SLOAD DUP7 MSTORE SWAP5 DUP6 ADD SWAP5 PUSH1 0x1 SWAP4 DUP5 ADD SWAP4 SWAP1 SWAP2 ADD SWAP1 PUSH2 0xD27 JUMP JUMPDEST CALLVALUE PUSH2 0x195 JUMPI PUSH1 0x20 DUP1 PUSH1 0x3 NOT CALLDATASIZE ADD SLT PUSH2 0x195 JUMPI PUSH1 0x4 CALLDATALOAD DUP1 PUSH1 0x0 MSTORE PUSH1 0x5 SWAP1 DUP2 DUP4 MSTORE PUSH1 0x40 PUSH1 0x0 KECCAK256 SLOAD ISZERO PUSH2 0x195 JUMPI PUSH1 0x8 SWAP2 DUP3 DUP5 MSTORE PUSH1 0x40 PUSH1 0x0 KECCAK256 SWAP3 PUSH1 0x40 MLOAD DUP1 DUP6 DUP8 DUP3 SWAP8 SLOAD SWAP4 DUP5 DUP2 MSTORE ADD SWAP1 PUSH1 0x0 MSTORE DUP8 PUSH1 0x0 KECCAK256 SWAP3 PUSH1 0x0 JUMPDEST DUP10 DUP3 DUP3 LT PUSH2 0xF0A JUMPI POP POP POP PUSH2 0xDBC SWAP3 POP SUB DUP6 PUSH2 0x17B9 JUMP JUMPDEST PUSH1 0x0 SWAP5 PUSH1 0x0 JUMPDEST DUP6 MLOAD DUP2 LT ISZERO PUSH2 0xF08 JUMPI DUP2 DUP2 DUP6 SHL DUP8 ADD ADD MLOAD PUSH1 0x0 MSTORE PUSH1 0x7 DUP3 MSTORE PUSH1 0x40 PUSH1 0x0 KECCAK256 DUP4 DUP2 ADD SWAP1 PUSH1 0xFF DUP3 SLOAD AND PUSH1 0x4 DUP2 LT ISZERO PUSH2 0xEF2 JUMPI PUSH1 0x1 DUP1 SWAP2 EQ DUP1 PUSH2 0xEE5 JUMPI JUMPDEST PUSH2 0xE12 JUMPI JUMPDEST POP POP POP PUSH2 0xE0D SWAP1 PUSH2 0x1820 JUMP JUMPDEST PUSH2 0xDC2 JUMP JUMPDEST PUSH1 0xA DUP3 ADD SLOAD SWAP1 DUP9 PUSH1 0x0 MSTORE DUP8 DUP7 MSTORE PUSH1 0x40 PUSH1 0x0 KECCAK256 DUP1 SLOAD DUP4 DUP2 LT ISZERO PUSH2 0xE37 JUMPI JUMPDEST POP POP POP PUSH2 0xE01 JUMP JUMPDEST DUP4 PUSH2 0xE47 SWAP2 SWAP14 SWAP5 SWAP6 SWAP8 SWAP7 SWAP14 PUSH2 0x1989 JUMP JUMPDEST SWAP1 SSTORE DUP5 ADD SWAP1 PUSH2 0xE7A DUP4 PUSH1 0x1 DUP1 PUSH1 0xA0 SHL SUB SWAP3 DUP4 DUP6 SLOAD AND PUSH1 0x0 MSTORE PUSH1 0xB DUP10 MSTORE PUSH1 0x40 PUSH1 0x0 KECCAK256 PUSH2 0xE73 DUP4 DUP3 SLOAD PUSH2 0x17DC JUMP JUMPDEST SWAP1 SSTORE PUSH2 0x17DC JUMP JUMPDEST SWAP11 PUSH1 0x3 PUSH1 0xFF NOT DUP3 SLOAD AND OR SWAP1 SSTORE PUSH1 0x0 DUP1 DUP1 DUP1 DUP7 DUP6 DUP8 SLOAD AND DUP3 DUP3 ISZERO PUSH2 0xEDC JUMPI JUMPDEST CALL ISZERO PUSH2 0x93E JUMPI DUP6 PUSH32 0x1D0F102D737FA5F0A0F89DF1C7BD6C4D6EA8866CB4CD14B9461B04A9C3BD7B6D SWAP2 PUSH2 0xE0D SWAP7 SLOAD SWAP4 SLOAD AND SWAP4 PUSH1 0x40 MLOAD SWAP1 DUP2 MSTORE LOG3 SWAP1 DUP9 DUP1 DUP1 DUP1 DUP1 PUSH2 0xE2F JUMP JUMPDEST POP PUSH2 0x8FC PUSH2 0xE98 JUMP JUMPDEST POP PUSH1 0xA DUP3 ADD SLOAD ISZERO ISZERO PUSH2 0xDFC JUMP JUMPDEST PUSH4 0x4E487B71 PUSH1 0xE0 SHL PUSH1 0x0 MSTORE PUSH1 0x21 PUSH1 0x4 MSTORE PUSH1 0x24 PUSH1 0x0 REVERT JUMPDEST STOP JUMPDEST DUP6 SLOAD DUP5 MSTORE PUSH1 0x1 SWAP6 DUP7 ADD SWAP6 DUP11 SWAP6 POP SWAP4 ADD SWAP3 ADD PUSH2 0xDA5 JUMP JUMPDEST CALLVALUE PUSH2 0x195 JUMPI PUSH1 0x20 CALLDATASIZE PUSH1 0x3 NOT ADD SLT PUSH2 0x195 JUMPI PUSH1 0x1 PUSH1 0x1 PUSH1 0xA0 SHL SUB PUSH2 0xF41 PUSH2 0x167C JUMP JUMPDEST AND PUSH1 0x0 MSTORE PUSH1 0xA PUSH1 0x20 MSTORE PUSH1 0x40 DUP1 PUSH1 0x0 KECCAK256 SLOAD PUSH1 0xB PUSH1 0x20 MSTORE DUP2 PUSH1 0x0 KECCAK256 SLOAD DUP3 MLOAD SWAP2 DUP3 MSTORE PUSH1 0x20 DUP3 ADD MSTORE RETURN JUMPDEST CALLVALUE PUSH2 0x195 JUMPI PUSH1 0x20 CALLDATASIZE PUSH1 0x3 NOT ADD SLT PUSH2 0x195 JUMPI PUSH1 0x0 SLOAD PUSH1 0x1 PUSH1 0x1 PUSH1 0xA0 SHL SUB AND CALLER SUB PUSH2 0x195 JUMPI PUSH1 0x4 DUP1 CALLDATALOAD SWAP1 SSTORE STOP JUMPDEST CALLVALUE PUSH2 0x195 JUMPI PUSH1 0x20 CALLDATASIZE PUSH1 0x3 NOT ADD SLT PUSH2 0x195 JUMPI PUSH1 0x4 CALLDATALOAD PUSH1 0x0 PUSH2 0x140 PUSH1 0x40 MLOAD PUSH2 0xFB7 DUP2 PUSH2 0x179D JUMP JUMPDEST DUP3 DUP2 MSTORE DUP3 PUSH1 0x20 DUP3 ADD MSTORE DUP3 PUSH1 0x40 DUP3 ADD MSTORE PUSH1 0x60 DUP1 DUP3 ADD MSTORE PUSH1 0x60 PUSH1 0x80 DUP3 ADD MSTORE PUSH1 0x60 PUSH1 0xA0 DUP3 ADD MSTORE PUSH1 0x60 PUSH1 0xC0 DUP3 ADD MSTORE DUP3 PUSH1 0xE0 DUP3 ADD MSTORE DUP3 PUSH2 0x100 DUP3 ADD MSTORE PUSH1 0x60 PUSH2 0x120 DUP3 ADD MSTORE ADD MSTORE DUP1 ISZERO ISZERO DUP1 PUSH2 0x11CD JUMPI JUMPDEST ISZERO PUSH2 0x195 JUMPI PUSH1 0x0 MSTORE PUSH1 0x7 PUSH1 0x20 MSTORE PUSH1 0x40 PUSH1 0x0 KECCAK256 PUSH1 0x40 MLOAD SWAP1 PUSH2 0x1020 DUP3 PUSH2 0x179D JUMP JUMPDEST DUP1 SLOAD DUP3 MSTORE PUSH1 0x1 DUP2 ADD SLOAD PUSH1 0x1 PUSH1 0x1 PUSH1 0xA0 SHL SUB AND PUSH1 0x20 DUP4 ADD MSTORE PUSH1 0x2 DUP2 ADD SLOAD PUSH1 0x40 DUP1 DUP5 ADD SWAP2 SWAP1 SWAP2 MSTORE MLOAD PUSH2 0x105E DUP2 PUSH2 0x1057 DUP2 PUSH1 0x3 DUP7 ADD PUSH2 0x1707 JUMP JUMPDEST SUB DUP3 PUSH2 0x17B9 JUMP JUMPDEST PUSH1 0x60 DUP4 ADD MSTORE PUSH1 0x40 MLOAD PUSH2 0x1077 DUP2 PUSH2 0x1057 DUP2 PUSH1 0x4 DUP7 ADD PUSH2 0x1707 JUMP JUMPDEST PUSH1 0x80 DUP4 ADD MSTORE PUSH1 0x40 MLOAD PUSH2 0x1090 DUP2 PUSH2 0x1057 DUP2 PUSH1 0x5 DUP7 ADD PUSH2 0x1707 JUMP JUMPDEST PUSH1 0xA0 DUP4 ADD MSTORE PUSH1 0x40 MLOAD PUSH2 0x10A9 DUP2 PUSH2 0x1057 DUP2 PUSH1 0x6 DUP7 ADD PUSH2 0x1707 JUMP JUMPDEST PUSH1 0xC0 DUP4 ADD MSTORE PUSH1 0x7 DUP2 ADD SLOAD PUSH1 0xE0 DUP4 ADD MSTORE PUSH1 0xFF PUSH1 0x8 DUP3 ADD SLOAD AND SWAP1 PUSH1 0x4 DUP3 LT ISZERO PUSH2 0xEF2 JUMPI PUSH1 0xA SWAP2 PUSH2 0x100 DUP5 ADD MSTORE PUSH1 0x40 MLOAD PUSH2 0x10E7 DUP2 PUSH2 0x1057 DUP2 PUSH1 0x9 DUP7 ADD PUSH2 0x1707 JUMP JUMPDEST PUSH2 0x120 DUP5 ADD MSTORE ADD SLOAD PUSH2 0x140 DUP3 ADD MSTORE PUSH1 0x40 MLOAD DUP1 SWAP2 PUSH1 0x20 DUP3 MSTORE DUP1 MLOAD PUSH1 0x20 DUP4 ADD MSTORE PUSH1 0x1 DUP1 PUSH1 0xA0 SHL SUB PUSH1 0x20 DUP3 ADD MLOAD AND PUSH1 0x40 DUP4 ADD MSTORE PUSH1 0x40 DUP2 ADD MLOAD PUSH1 0x60 DUP4 ADD MSTORE PUSH1 0x60 DUP2 ADD MLOAD PUSH2 0x140 PUSH2 0x11C2 PUSH2 0x1144 PUSH2 0x160 SWAP4 DUP5 PUSH1 0x80 DUP9 ADD MSTORE PUSH2 0x180 DUP8 ADD SWAP1 PUSH2 0x162F JUMP JUMPDEST PUSH2 0x118E PUSH2 0x117A PUSH2 0x1166 PUSH1 0x80 DUP9 ADD MLOAD SWAP4 PUSH1 0x1F NOT SWAP5 DUP6 DUP12 DUP4 SUB ADD PUSH1 0xA0 DUP13 ADD MSTORE PUSH2 0x162F JUMP JUMPDEST PUSH1 0xA0 DUP9 ADD MLOAD DUP5 DUP11 DUP4 SUB ADD PUSH1 0xC0 DUP12 ADD MSTORE PUSH2 0x162F JUMP JUMPDEST PUSH1 0xC0 DUP8 ADD MLOAD DUP4 DUP10 DUP4 SUB ADD PUSH1 0xE0 DUP11 ADD MSTORE PUSH2 0x162F JUMP JUMPDEST SWAP1 PUSH1 0xE0 DUP7 ADD MLOAD PUSH2 0x100 DUP9 ADD MSTORE PUSH2 0x11AE PUSH2 0x100 DUP8 ADD MLOAD PUSH2 0x120 DUP10 ADD SWAP1 PUSH2 0x166F JUMP JUMPDEST PUSH2 0x120 DUP7 ADD MLOAD SWAP1 DUP8 DUP4 SUB ADD DUP5 DUP9 ADD MSTORE PUSH2 0x162F JUMP JUMPDEST SWAP3 ADD MLOAD SWAP1 DUP4 ADD MSTORE SUB SWAP1 RETURN JUMPDEST POP PUSH1 0x2 SLOAD DUP2 GT ISZERO PUSH2 0x1001 JUMP JUMPDEST CALLVALUE PUSH2 0x195 JUMPI PUSH1 0x20 CALLDATASIZE PUSH1 0x3 NOT ADD SLT PUSH2 0x195 JUMPI PUSH1 0x4 CALLDATALOAD PUSH1 0x0 MSTORE PUSH1 0x6 PUSH1 0x20 MSTORE PUSH1 0x20 PUSH1 0x40 PUSH1 0x0 KECCAK256 SLOAD PUSH1 0x40 MLOAD SWAP1 DUP2 MSTORE RETURN JUMPDEST CALLVALUE PUSH2 0x195 JUMPI PUSH2 0x1213 CALLDATASIZE PUSH2 0x15BE JUMP JUMPDEST PUSH1 0x0 SLOAD SWAP1 SWAP2 SWAP1 PUSH1 0x1 PUSH1 0x1 PUSH1 0xA0 SHL SUB AND CALLER SUB PUSH2 0x195 JUMPI PUSH1 0x0 MSTORE PUSH1 0x5 PUSH1 0x20 MSTORE PUSH1 0x40 PUSH1 0x0 KECCAK256 SWAP1 DUP2 SLOAD SWAP2 DUP2 DUP4 LT PUSH2 0x195 JUMPI PUSH1 0x0 DUP1 DUP1 DUP5 DUP2 SWAP5 PUSH2 0x1251 DUP3 DUP10 PUSH2 0x1989 JUMP JUMPDEST SWAP1 SSTORE DUP2 DUP2 ISZERO PUSH2 0x1265 JUMPI JUMPDEST CALLER SWAP1 CALL ISZERO PUSH2 0x93E JUMPI STOP JUMPDEST POP PUSH2 0x8FC PUSH2 0x125B JUMP JUMPDEST CALLVALUE PUSH2 0x195 JUMPI PUSH1 0x60 CALLDATASIZE PUSH1 0x3 NOT ADD SLT PUSH2 0x195 JUMPI PUSH1 0x4 CALLDATALOAD PUSH1 0x24 CALLDATALOAD DUP1 ISZERO ISZERO DUP1 DUP3 SUB PUSH2 0x195 JUMPI PUSH1 0x1 PUSH1 0x1 PUSH1 0x40 SHL SUB SWAP3 PUSH1 0x44 CALLDATALOAD DUP5 DUP2 GT PUSH2 0x195 JUMPI PUSH2 0x12B0 SWAP1 CALLDATASIZE SWAP1 PUSH1 0x4 ADD PUSH2 0x1602 JUMP JUMPDEST SWAP3 SWAP1 SWAP5 CALLER PUSH1 0x0 MSTORE PUSH1 0x20 SWAP4 PUSH1 0xC DUP6 MSTORE PUSH1 0xFF PUSH1 0x40 PUSH1 0x0 KECCAK256 SLOAD AND ISZERO PUSH2 0x195 JUMPI DUP4 ISZERO ISZERO DUP1 PUSH2 0x1555 JUMPI JUMPDEST ISZERO PUSH2 0x195 JUMPI DUP4 PUSH1 0x0 MSTORE PUSH1 0xD DUP6 MSTORE PUSH1 0x40 PUSH1 0x0 KECCAK256 CALLER PUSH1 0x0 MSTORE DUP6 MSTORE PUSH1 0xFF PUSH1 0x40 PUSH1 0x0 KECCAK256 SLOAD AND PUSH2 0x195 JUMPI DUP4 PUSH1 0x0 MSTORE PUSH1 0x7 DUP6 MSTORE PUSH1 0xFF PUSH1 0x8 PUSH1 0x40 PUSH1 0x0 KECCAK256 ADD SLOAD AND PUSH1 0x4 DUP2 LT ISZERO PUSH2 0xEF2 JUMPI PUSH2 0x195 JUMPI DUP4 PUSH1 0x0 MSTORE PUSH1 0xD DUP6 MSTORE PUSH1 0x40 PUSH1 0x0 KECCAK256 CALLER PUSH1 0x0 MSTORE DUP6 MSTORE PUSH1 0x40 PUSH1 0x0 KECCAK256 SWAP7 PUSH1 0x1 SWAP7 PUSH1 0xFF NOT SWAP9 DUP9 DUP11 DUP3 SLOAD AND OR SWAP1 SSTORE PUSH1 0x0 EQ PUSH2 0x1467 JUMPI POP POP POP DUP2 PUSH1 0x0 MSTORE PUSH1 0xE DUP4 MSTORE PUSH1 0x40 PUSH1 0x0 KECCAK256 PUSH2 0x1364 DUP2 SLOAD PUSH2 0x1820 JUMP JUMPDEST SWAP1 SSTORE JUMPDEST PUSH1 0x40 MLOAD SWAP1 DUP2 MSTORE DUP2 PUSH32 0x1FB14B3BF3798C268811F880A4B800A6140774E15E3D530FA663451C0D263B60 DUP5 CALLER SWAP4 LOG3 PUSH1 0x0 DUP2 DUP2 MSTORE PUSH1 0xE DUP4 MSTORE PUSH1 0x40 SWAP1 KECCAK256 SLOAD PUSH1 0x2 GT PUSH2 0x1439 JUMPI PUSH1 0x0 SWAP4 DUP5 SWAP4 PUSH1 0xA PUSH2 0x1419 DUP7 SWAP6 DUP7 SWAP6 DUP7 MSTORE PUSH1 0x7 DUP2 MSTORE PUSH1 0x40 DUP7 KECCAK256 SWAP4 PUSH1 0x2 DUP6 ADD SLOAD SWAP6 DUP2 PUSH1 0x8 DUP8 ADD SWAP2 DUP3 SLOAD AND OR SWAP1 SSTORE DUP6 DUP8 MSTORE PUSH1 0x6 DUP3 MSTORE PUSH1 0x40 DUP8 KECCAK256 PUSH2 0x13E8 DUP2 SLOAD PUSH2 0x1820 JUMP JUMPDEST SWAP1 SSTORE DUP5 ADD DUP1 SLOAD PUSH1 0x1 PUSH1 0x1 PUSH1 0xA0 SHL SUB SWAP1 DUP2 AND DUP9 MSTORE SWAP2 DUP5 SWAP1 MSTORE PUSH1 0x40 DUP8 KECCAK256 DUP1 SLOAD PUSH2 0x140E SWAP1 PUSH2 0x1820 JUMP JUMPDEST SWAP1 SSTORE SLOAD AND DUP1 SWAP5 PUSH2 0x18D8 JUMP JUMPDEST SWAP2 ADD SSTORE PUSH1 0x4 SLOAD SWAP1 DUP3 DUP3 ISZERO PUSH2 0x1430 JUMPI JUMPDEST CALL ISZERO PUSH2 0x93E JUMPI STOP JUMPDEST POP PUSH2 0x8FC PUSH2 0x1428 JUMP JUMPDEST POP SWAP1 POP PUSH1 0xF DUP2 MSTORE PUSH1 0x2 PUSH1 0x40 PUSH1 0x0 KECCAK256 SLOAD LT ISZERO PUSH2 0x1450 JUMPI STOP JUMPDEST PUSH1 0x7 SWAP1 MSTORE PUSH1 0x2 PUSH1 0x8 PUSH1 0x40 PUSH1 0x0 KECCAK256 ADD SWAP2 DUP3 SLOAD AND OR SWAP1 SSTORE STOP JUMPDEST DUP5 PUSH1 0x0 MSTORE PUSH1 0xF DUP7 MSTORE PUSH1 0x40 PUSH1 0x0 KECCAK256 PUSH2 0x147E DUP2 SLOAD PUSH2 0x1820 JUMP JUMPDEST SWAP1 SSTORE DUP2 PUSH2 0x148E JUMPI JUMPDEST POP POP POP PUSH2 0x1367 JUMP JUMPDEST DUP5 PUSH1 0x0 MSTORE PUSH1 0x7 DUP7 MSTORE PUSH1 0x9 PUSH1 0x40 PUSH1 0x0 KECCAK256 ADD SWAP3 DUP3 GT PUSH2 0x770 JUMPI DUP2 SWAP1 PUSH2 0x14B5 DUP3 PUSH2 0x5C7 DUP7 SLOAD PUSH2 0x16CD JUMP JUMPDEST PUSH1 0x0 SWAP1 PUSH1 0x1F DUP4 GT PUSH1 0x1 EQ PUSH2 0x14F2 JUMPI PUSH1 0x0 SWAP3 PUSH2 0x14E7 JUMPI JUMPDEST POP POP PUSH1 0x0 NOT PUSH1 0x3 DUP4 SWAP1 SHL SHR NOT AND SWAP1 DUP7 SHL OR SWAP1 SSTORE JUMPDEST DUP6 DUP1 DUP1 PUSH2 0x1486 JUMP JUMPDEST ADD CALLDATALOAD SWAP1 POP DUP9 DUP1 PUSH2 0x14CB JUMP JUMPDEST DUP9 SWAP4 POP PUSH1 0x1F NOT DUP4 AND SWAP2 DUP6 PUSH1 0x0 MSTORE DUP9 PUSH1 0x0 KECCAK256 SWAP3 PUSH1 0x0 JUMPDEST DUP11 DUP3 DUP3 LT PUSH2 0x153F JUMPI POP POP DUP5 GT PUSH2 0x1525 JUMPI JUMPDEST POP POP POP DUP2 SHL ADD SWAP1 SSTORE PUSH2 0x14DF JUMP JUMPDEST ADD CALLDATALOAD PUSH1 0x0 NOT PUSH1 0x3 DUP5 SWAP1 SHL PUSH1 0xF8 AND SHR NOT AND SWAP1 SSTORE DUP9 DUP1 DUP1 PUSH2 0x1518 JUMP JUMPDEST DUP4 DUP6 ADD CALLDATALOAD DUP7 SSTORE DUP13 SWAP8 SWAP1 SWAP6 ADD SWAP5 SWAP3 DUP4 ADD SWAP3 ADD PUSH2 0x1507 JUMP JUMPDEST POP PUSH1 0x2 SLOAD DUP5 GT ISZERO PUSH2 0x12D5 JUMP JUMPDEST CALLVALUE PUSH2 0x195 JUMPI PUSH1 0x20 CALLDATASIZE PUSH1 0x3 NOT ADD SLT PUSH2 0x195 JUMPI PUSH1 0x4 CALLDATALOAD PUSH1 0x0 MSTORE PUSH1 0xF PUSH1 0x20 MSTORE PUSH1 0x20 PUSH1 0x40 PUSH1 0x0 KECCAK256 SLOAD PUSH1 0x40 MLOAD SWAP1 DUP2 MSTORE RETURN JUMPDEST CALLVALUE PUSH2 0x195 JUMPI PUSH2 0x159B CALLDATASIZE PUSH2 0x15BE JUMP JUMPDEST SWAP1 PUSH1 0x0 MSTORE PUSH1 0x8 PUSH1 0x20 MSTORE PUSH1 0x40 PUSH1 0x0 KECCAK256 DUP1 SLOAD DUP3 LT ISZERO PUSH2 0x195 JUMPI PUSH1 0x20 SWAP2 PUSH2 0x2F7 SWAP2 PUSH2 0x15D4 JUMP JUMPDEST PUSH1 0x40 SWAP1 PUSH1 0x3 NOT ADD SLT PUSH2 0x195 JUMPI PUSH1 0x4 CALLDATALOAD SWAP1 PUSH1 0x24 CALLDATALOAD SWAP1 JUMP JUMPDEST DUP1 SLOAD DUP3 LT ISZERO PUSH2 0x15EC JUMPI PUSH1 0x0 MSTORE PUSH1 0x20 PUSH1 0x0 KECCAK256 ADD SWAP1 PUSH1 0x0 SWAP1 JUMP JUMPDEST PUSH4 0x4E487B71 PUSH1 0xE0 SHL PUSH1 0x0 MSTORE PUSH1 0x32 PUSH1 0x4 MSTORE PUSH1 0x24 PUSH1 0x0 REVERT JUMPDEST SWAP2 DUP2 PUSH1 0x1F DUP5 ADD SLT ISZERO PUSH2 0x195 JUMPI DUP3 CALLDATALOAD SWAP2 PUSH1 0x1 PUSH1 0x1 PUSH1 0x40 SHL SUB DUP4 GT PUSH2 0x195 JUMPI PUSH1 0x20 DUP4 DUP2 DUP7 ADD SWAP6 ADD ADD GT PUSH2 0x195 JUMPI JUMP JUMPDEST SWAP2 SWAP1 DUP3 MLOAD SWAP3 DUP4 DUP3 MSTORE PUSH1 0x0 JUMPDEST DUP5 DUP2 LT PUSH2 0x165B JUMPI POP POP DUP3 PUSH1 0x0 PUSH1 0x20 DUP1 SWAP5 SWAP6 DUP5 ADD ADD MSTORE PUSH1 0x1F DUP1 NOT SWAP2 ADD AND ADD ADD SWAP1 JUMP JUMPDEST PUSH1 0x20 DUP2 DUP4 ADD DUP2 ADD MLOAD DUP5 DUP4 ADD DUP3 ADD MSTORE ADD PUSH2 0x163A JUMP JUMPDEST SWAP1 PUSH1 0x4 DUP3 LT ISZERO PUSH2 0xEF2 JUMPI MSTORE JUMP JUMPDEST PUSH1 0x4 CALLDATALOAD SWAP1 PUSH1 0x1 PUSH1 0x1 PUSH1 0xA0 SHL SUB DUP3 AND DUP3 SUB PUSH2 0x195 JUMPI JUMP JUMPDEST PUSH1 0x20 SWAP1 DUP2 PUSH1 0x40 DUP2 DUP4 ADD SWAP3 DUP3 DUP2 MSTORE DUP6 MLOAD DUP1 SWAP5 MSTORE ADD SWAP4 ADD SWAP2 PUSH1 0x0 JUMPDEST DUP3 DUP2 LT PUSH2 0x16B9 JUMPI POP POP POP POP SWAP1 JUMP JUMPDEST DUP4 MLOAD DUP6 MSTORE SWAP4 DUP2 ADD SWAP4 SWAP3 DUP2 ADD SWAP3 PUSH1 0x1 ADD PUSH2 0x16AB JUMP JUMPDEST SWAP1 PUSH1 0x1 DUP3 DUP2 SHR SWAP3 AND DUP1 ISZERO PUSH2 0x16FD JUMPI JUMPDEST PUSH1 0x20 DUP4 LT EQ PUSH2 0x16E7 JUMPI JUMP JUMPDEST PUSH4 0x4E487B71 PUSH1 0xE0 SHL PUSH1 0x0 MSTORE PUSH1 0x22 PUSH1 0x4 MSTORE PUSH1 0x24 PUSH1 0x0 REVERT JUMPDEST SWAP2 PUSH1 0x7F AND SWAP2 PUSH2 0x16DC JUMP JUMPDEST SWAP1 PUSH1 0x0 SWAP3 SWAP2 DUP1 SLOAD SWAP2 PUSH2 0x1718 DUP4 PUSH2 0x16CD JUMP JUMPDEST SWAP2 DUP3 DUP3 MSTORE PUSH1 0x1 SWAP4 DUP5 DUP2 AND SWAP1 DUP2 PUSH1 0x0 EQ PUSH2 0x177A JUMPI POP PUSH1 0x1 EQ PUSH2 0x173A JUMPI JUMPDEST POP POP POP POP JUMP JUMPDEST SWAP1 SWAP2 SWAP4 SWAP5 POP PUSH1 0x0 MSTORE PUSH1 0x20 SWAP3 DUP4 PUSH1 0x0 KECCAK256 SWAP3 DUP5 PUSH1 0x0 SWAP5 JUMPDEST DUP4 DUP7 LT PUSH2 0x1766 JUMPI POP POP POP POP ADD ADD SWAP1 CODESIZE DUP1 DUP1 DUP1 PUSH2 0x1734 JUMP JUMPDEST DUP1 SLOAD DUP6 DUP8 ADD DUP4 ADD MSTORE SWAP5 ADD SWAP4 DUP6 SWAP1 DUP3 ADD PUSH2 0x174F JUMP JUMPDEST SWAP3 SWAP5 POP POP POP PUSH1 0x20 SWAP4 SWAP5 POP PUSH1 0xFF NOT AND DUP4 DUP4 ADD MSTORE ISZERO ISZERO PUSH1 0x5 SHL ADD ADD SWAP1 CODESIZE DUP1 DUP1 DUP1 PUSH2 0x1734 JUMP JUMPDEST PUSH2 0x160 DUP2 ADD SWAP1 DUP2 LT PUSH1 0x1 PUSH1 0x1 PUSH1 0x40 SHL SUB DUP3 GT OR PUSH2 0x770 JUMPI PUSH1 0x40 MSTORE JUMP JUMPDEST PUSH1 0x1F SWAP1 SWAP2 ADD PUSH1 0x1F NOT AND DUP2 ADD SWAP1 PUSH1 0x1 PUSH1 0x1 PUSH1 0x40 SHL SUB DUP3 GT SWAP1 DUP3 LT OR PUSH2 0x770 JUMPI PUSH1 0x40 MSTORE JUMP JUMPDEST SWAP2 SWAP1 DUP3 ADD DUP1 SWAP3 GT PUSH2 0x17E9 JUMPI JUMP JUMPDEST PUSH4 0x4E487B71 PUSH1 0xE0 SHL PUSH1 0x0 MSTORE PUSH1 0x11 PUSH1 0x4 MSTORE PUSH1 0x24 PUSH1 0x0 REVERT JUMPDEST SWAP1 DUP1 PUSH1 0x20 SWAP4 SWAP3 DUP2 DUP5 MSTORE DUP5 DUP5 ADD CALLDATACOPY PUSH1 0x0 DUP3 DUP3 ADD DUP5 ADD MSTORE PUSH1 0x1F ADD PUSH1 0x1F NOT AND ADD ADD SWAP1 JUMP JUMPDEST PUSH1 0x0 NOT DUP2 EQ PUSH2 0x17E9 JUMPI PUSH1 0x1 ADD SWAP1 JUMP JUMPDEST SWAP1 PUSH1 0x1F DUP2 GT PUSH2 0x183D JUMPI POP POP POP JUMP JUMPDEST PUSH1 0x0 SWAP2 DUP3 MSTORE PUSH1 0x20 DUP3 KECCAK256 SWAP1 PUSH1 0x20 PUSH1 0x1F DUP6 ADD PUSH1 0x5 SHR DUP4 ADD SWAP5 LT PUSH2 0x1879 JUMPI JUMPDEST PUSH1 0x1F ADD PUSH1 0x5 SHR ADD SWAP2 JUMPDEST DUP3 DUP2 LT PUSH2 0x186E JUMPI POP POP POP JUMP JUMPDEST DUP2 DUP2 SSTORE PUSH1 0x1 ADD PUSH2 0x1862 JUMP JUMPDEST SWAP1 SWAP3 POP DUP3 SWAP1 PUSH2 0x1859 JUMP JUMPDEST DUP1 SLOAD PUSH1 0x1 PUSH1 0x40 SHL DUP2 LT ISZERO PUSH2 0x770 JUMPI PUSH2 0x18A0 SWAP2 PUSH1 0x1 DUP3 ADD DUP2 SSTORE PUSH2 0x15D4 JUMP JUMPDEST DUP2 SWAP3 SWAP2 SLOAD SWAP1 PUSH1 0x3 SHL SWAP2 DUP3 SHL SWAP2 PUSH1 0x0 NOT SWAP1 SHL NOT AND OR SWAP1 SSTORE JUMP JUMPDEST DUP2 ISZERO PUSH2 0x18C2 JUMPI DIV SWAP1 JUMP JUMPDEST PUSH4 0x4E487B71 PUSH1 0xE0 SHL PUSH1 0x0 MSTORE PUSH1 0x12 PUSH1 0x4 MSTORE PUSH1 0x24 PUSH1 0x0 REVERT JUMPDEST PUSH1 0x0 SWAP1 DUP2 MSTORE PUSH1 0x5 PUSH1 0x20 MSTORE PUSH1 0x40 DUP2 KECCAK256 SLOAD PUSH1 0x6 PUSH1 0x20 MSTORE PUSH1 0x40 DUP3 KECCAK256 SLOAD SWAP1 DUP2 ISZERO PUSH2 0x1982 JUMPI DUP2 PUSH2 0x1902 SWAP2 PUSH2 0x18B8 JUMP JUMPDEST PUSH1 0x1 PUSH1 0x1 PUSH1 0xA0 SHL SUB SWAP1 SWAP4 AND DUP3 MSTORE PUSH1 0xA PUSH1 0x20 MSTORE PUSH1 0x40 DUP3 KECCAK256 SLOAD PUSH1 0x64 DUP1 DUP3 MUL SWAP2 DUP1 ISZERO SWAP1 DUP4 DIV SWAP1 SWAP2 EQ OR ISZERO PUSH2 0x196E JUMPI SWAP1 PUSH2 0x1937 SWAP2 PUSH2 0x18B8 JUMP JUMPDEST SWAP1 DUP2 DUP4 MUL SWAP2 DUP4 DUP4 DIV EQ DUP4 ISZERO OR ISZERO PUSH2 0x195A JUMPI POP SWAP1 PUSH1 0x64 PUSH2 0x1957 SWAP3 DIV SWAP1 PUSH2 0x17DC JUMP JUMPDEST SWAP1 JUMP JUMPDEST PUSH4 0x4E487B71 PUSH1 0xE0 SHL DUP2 MSTORE PUSH1 0x11 PUSH1 0x4 MSTORE PUSH1 0x24 SWAP1 REVERT JUMPDEST PUSH4 0x4E487B71 PUSH1 0xE0 SHL DUP4 MSTORE PUSH1 0x11 PUSH1 0x4 MSTORE PUSH1 0x24 DUP4 REVERT JUMPDEST POP POP SWAP1 POP SWAP1 JUMP JUMPDEST SWAP2 SWAP1 DUP3 SUB SWAP2 DUP3 GT PUSH2 0x17E9 JUMPI JUMP INVALID 0xC2 DUP9 DUP4 PUSH32 0x892A922779B110A95D4F6B6FD25014B842C27A70E5FA038AAAD1FC0600000000 "},"methodIdentifiers":{"addToBountyPool(uint256)":"7c8efce3","addVerifier(address)":"9000b3d6","bountyPools(uint256)":"b4b9e706","contentSubmissions(uint256,uint256)":"0c886a6b","coreContract()":"e80db5db","distributeRewards(uint256)":"59974e38","emergencyWithdraw(uint256,uint256)":"1f276b6e","getContentSubmissions(uint256)":"e04a3770","getHunterStats(address)":"537dbf07","getHunterSubmissions(address)":"60d25e81","getSubmission(uint256)":"3e8686cc","hunterEarnings(address)":"f1f568f7","hunterStats(address)":"7a0c95aa","hunterSubmissions(address,uint256)":"dfde74fe","licenseRegistry()":"c2fda487","minimumStake()":"ec5ffac2","rejectionVotes(uint256)":"15f25549","removeVerifier(address)":"ca2dfd0a","submissionCounter()":"76c23ff1","submissionVotes(uint256,address)":"ef11151e","submissions(uint256)":"ad73349e","submitBounty(uint256,string,string,string,bytes)":"c12255fe","totalVerifiedTakedowns(uint256)":"39c65d8d","updateMinimumStake(uint256)":"4c41e880","updateVerificationPeriod(uint256)":"bc74b08d","verificationPeriod()":"b1bb7e0f","verificationVotes(uint256)":"abac7e0d","verifiers(address)":"6c824487","verifyBounty(uint256,bool,string)":"1e09d5a9"}}}}}