{"contracts/Web3TorrentCore.sol":{"Web3TorrentCore":{"abi":[{"inputs":[],"stateMutability":"nonpayable","type":"constructor"},{"inputs":[],"name":"ReentrancyGuardReentrantCall","type":"error"},{"anonymous":false,"inputs":[{"indexed":false,"internalType":"uint256[]","name":"contentIds","type":"uint256[]"},{"indexed":true,"internalType":"address","name":"distributor","type":"address"},{"indexed":false,"internalType":"uint256","name":"totalCost","type":"uint256"}],"name":"BatchLicensesPurchased","type":"event"},{"anonymous":false,"inputs":[{"indexed":true,"internalType":"uint256","name":"contentId","type":"uint256"},{"indexed":true,"internalType":"address","name":"publisher","type":"address"},{"indexed":false,"internalType":"bytes32","name":"magnetHash","type":"bytes32"},{"indexed":false,"internalType":"enum IWeb3TorrentCore.PricingModel","name":"pricingModel","type":"uint8"},{"indexed":false,"internalType":"uint256","name":"basePrice","type":"uint256"},{"indexed":false,"internalType":"uint256","name":"priceIncrement","type":"uint256"}],"name":"ContentPublished","type":"event"},{"anonymous":false,"inputs":[{"indexed":true,"internalType":"uint256","name":"contentId","type":"uint256"},{"indexed":false,"internalType":"bool","name":"isActive","type":"bool"}],"name":"ContentUpdated","type":"event"},{"anonymous":false,"inputs":[{"indexed":true,"internalType":"uint256","name":"contentId","type":"uint256"},{"indexed":true,"internalType":"address","name":"distributor","type":"address"},{"indexed":false,"internalType":"uint256","name":"price","type":"uint256"},{"indexed":false,"internalType":"uint256","name":"newPrice","type":"uint256"},{"indexed":false,"internalType":"uint256","name":"totalLicenses","type":"uint256"}],"name":"LicensePurchased","type":"event"},{"anonymous":false,"inputs":[{"indexed":true,"internalType":"uint256","name":"contentId","type":"uint256"},{"indexed":false,"internalType":"uint256","name":"oldPrice","type":"uint256"},{"indexed":false,"internalType":"uint256","name":"newPrice","type":"uint256"},{"indexed":false,"internalType":"uint256","name":"totalLicenses","type":"uint256"}],"name":"PriceUpdated","type":"event"},{"inputs":[],"name":"MAX_FEE_PERCENTAGE","outputs":[{"internalType":"uint256","name":"","type":"uint256"}],"stateMutability":"view","type":"function"},{"inputs":[],"name":"MAX_MULTIPLIER_EFFECT","outputs":[{"internalType":"uint256","name":"","type":"uint256"}],"stateMutability":"view","type":"function"},{"inputs":[],"name":"MIN_DEMAND_MULTIPLIER","outputs":[{"internalType":"uint256","name":"","type":"uint256"}],"stateMutability":"view","type":"function"},{"inputs":[],"name":"PRICE_CACHE_DURATION","outputs":[{"internalType":"uint256","name":"","type":"uint256"}],"stateMutability":"view","type":"function"},{"inputs":[],"name":"bountyManager","outputs":[{"internalType":"contract BountyManager","name":"","type":"address"}],"stateMutability":"view","type":"function"},{"inputs":[{"internalType":"uint256","name":"contentId","type":"uint256"}],"name":"clearPriceCache","outputs":[],"stateMutability":"nonpayable","type":"function"},{"inputs":[],"name":"contentCounter","outputs":[{"internalType":"uint256","name":"","type":"uint256"}],"stateMutability":"view","type":"function"},{"inputs":[{"internalType":"uint256","name":"","type":"uint256"}],"name":"contents","outputs":[{"internalType":"address","name":"publisher","type":"address"},{"internalType":"bytes32","name":"magnetHash","type":"bytes32"},{"internalType":"string","name":"metadataURI","type":"string"},{"internalType":"uint256","name":"basePrice","type":"uint256"},{"internalType":"uint256","name":"currentPrice","type":"uint256"},{"internalType":"uint256","name":"priceIncrement","type":"uint256"},{"internalType":"uint256","name":"demandMultiplier","type":"uint256"},{"internalType":"uint256","name":"publishTimestamp","type":"uint256"},{"internalType":"uint256","name":"totalLicenses","type":"uint256"},{"internalType":"uint256","name":"totalRevenue","type":"uint256"},{"internalType":"uint256","name":"lastPurchaseTimestamp","type":"uint256"},{"internalType":"enum IWeb3TorrentCore.PricingModel","name":"pricingModel","type":"uint8"},{"internalType":"uint8","name":"networkFeePercentage","type":"uint8"},{"internalType":"uint8","name":"bountyPercentage","type":"uint8"},{"internalType":"bool","name":"isActive","type":"bool"}],"stateMutability":"view","type":"function"},{"inputs":[{"internalType":"uint256","name":"contentId","type":"uint256"},{"internalType":"bool","name":"isActive","type":"bool"}],"name":"emergencyToggleContent","outputs":[],"stateMutability":"nonpayable","type":"function"},{"inputs":[],"name":"emergencyWithdraw","outputs":[],"stateMutability":"nonpayable","type":"function"},{"inputs":[{"internalType":"uint256","name":"contentId","type":"uint256"}],"name":"getContentInfo","outputs":[{"components":[{"internalType":"address","name":"publisher","type":"address"},{"internalType":"bytes32","name":"magnetHash","type":"bytes32"},{"internalType":"string","name":"metadataURI","type":"string"},{"internalType":"uint256","name":"basePrice","type":"uint256"},{"internalType":"uint256","name":"currentPrice","type":"uint256"},{"internalType":"uint256","name":"priceIncrement","type":"uint256"},{"internalType":"uint256","name":"demandMultiplier","type":"uint256"},{"internalType":"uint256","name":"publishTimestamp","type":"uint256"},{"internalType":"uint256","name":"totalLicenses","type":"uint256"},{"internalType":"uint256","name":"totalRevenue","type":"uint256"},{"internalType":"uint256","name":"lastPurchaseTimestamp","type":"uint256"},{"internalType":"enum IWeb3TorrentCore.PricingModel","name":"pricingModel","type":"uint8"},{"internalType":"uint8","name":"networkFeePercentage","type":"uint8"},{"internalType":"uint8","name":"bountyPercentage","type":"uint8"},{"internalType":"bool","name":"isActive","type":"bool"}],"internalType":"struct IWeb3TorrentCore.ContentInfo","name":"","type":"tuple"}],"stateMutability":"view","type":"function"},{"inputs":[],"name":"getContractStats","outputs":[{"internalType":"uint256","name":"totalContent","type":"uint256"},{"internalType":"uint256","name":"totalRevenue","type":"uint256"},{"internalType":"uint256","name":"activeContent","type":"uint256"}],"stateMutability":"view","type":"function"},{"inputs":[{"internalType":"uint256","name":"contentId","type":"uint256"}],"name":"getCurrentPrice","outputs":[{"internalType":"uint256","name":"","type":"uint256"}],"stateMutability":"view","type":"function"},{"inputs":[{"internalType":"uint256[]","name":"contentIds","type":"uint256[]"}],"name":"getMultipleContentInfo","outputs":[{"components":[{"internalType":"address","name":"publisher","type":"address"},{"internalType":"bytes32","name":"magnetHash","type":"bytes32"},{"internalType":"string","name":"metadataURI","type":"string"},{"internalType":"uint256","name":"basePrice","type":"uint256"},{"internalType":"uint256","name":"currentPrice","type":"uint256"},{"internalType":"uint256","name":"priceIncrement","type":"uint256"},{"internalType":"uint256","name":"demandMultiplier","type":"uint256"},{"internalType":"uint256","name":"publishTimestamp","type":"uint256"},{"internalType":"uint256","name":"totalLicenses","type":"uint256"},{"internalType":"uint256","name":"totalRevenue","type":"uint256"},{"internalType":"uint256","name":"lastPurchaseTimestamp","type":"uint256"},{"internalType":"enum IWeb3TorrentCore.PricingModel","name":"pricingModel","type":"uint8"},{"internalType":"uint8","name":"networkFeePercentage","type":"uint8"},{"internalType":"uint8","name":"bountyPercentage","type":"uint8"},{"internalType":"bool","name":"isActive","type":"bool"}],"internalType":"struct IWeb3TorrentCore.ContentInfo[]","name":"","type":"tuple[]"}],"stateMutability":"view","type":"function"},{"inputs":[{"internalType":"uint256[]","name":"contentIds","type":"uint256[]"}],"name":"getMultiplePrices","outputs":[{"internalType":"uint256[]","name":"","type":"uint256[]"}],"stateMutability":"view","type":"function"},{"inputs":[{"internalType":"uint256","name":"contentId","type":"uint256"}],"name":"getPriceHistory","outputs":[{"internalType":"uint256[]","name":"prices","type":"uint256[]"},{"internalType":"uint256[]","name":"timestamps","type":"uint256[]"}],"stateMutability":"view","type":"function"},{"inputs":[{"internalType":"address","name":"_licenseRegistry","type":"address"},{"internalType":"address","name":"_bountyManager","type":"address"},{"internalType":"address","name":"_networkRebates","type":"address"}],"name":"initialize","outputs":[],"stateMutability":"nonpayable","type":"function"},{"inputs":[],"name":"licenseRegistry","outputs":[{"internalType":"contract LicenseRegistry","name":"","type":"address"}],"stateMutability":"view","type":"function"},{"inputs":[],"name":"networkRebates","outputs":[{"internalType":"contract NetworkRebates","name":"","type":"address"}],"stateMutability":"view","type":"function"},{"inputs":[],"name":"owner","outputs":[{"internalType":"address","name":"","type":"address"}],"stateMutability":"view","type":"function"},{"inputs":[{"internalType":"uint256","name":"","type":"uint256"},{"internalType":"uint256","name":"","type":"uint256"}],"name":"priceHistory","outputs":[{"internalType":"uint256","name":"","type":"uint256"}],"stateMutability":"view","type":"function"},{"inputs":[{"internalType":"uint256","name":"","type":"uint256"},{"internalType":"uint256","name":"","type":"uint256"}],"name":"priceTimestamps","outputs":[{"internalType":"uint256","name":"","type":"uint256"}],"stateMutability":"view","type":"function"},{"inputs":[{"internalType":"bytes32","name":"magnetHash","type":"bytes32"},{"internalType":"string","name":"metadataURI","type":"string"},{"internalType":"enum IWeb3TorrentCore.PricingModel","name":"pricingModel","type":"uint8"},{"internalType":"uint256","name":"basePrice","type":"uint256"},{"internalType":"uint256","name":"priceIncrement","type":"uint256"},{"internalType":"uint256","name":"demandMultiplier","type":"uint256"},{"internalType":"uint256","name":"networkFeePercentage","type":"uint256"},{"internalType":"uint256","name":"bountyPercentage","type":"uint256"}],"name":"publishContent","outputs":[{"internalType":"uint256","name":"","type":"uint256"}],"stateMutability":"nonpayable","type":"function"},{"inputs":[{"internalType":"uint256","name":"contentId","type":"uint256"}],"name":"purchaseLicense","outputs":[],"stateMutability":"payable","type":"function"},{"inputs":[{"internalType":"uint256[]","name":"contentIds","type":"uint256[]"}],"name":"purchaseMultipleLicenses","outputs":[],"stateMutability":"payable","type":"function"},{"inputs":[{"internalType":"uint256","name":"contentId","type":"uint256"},{"internalType":"bool","name":"isActive","type":"bool"}],"name":"updateContent","outputs":[],"stateMutability":"nonpayable","type":"function"},{"inputs":[{"internalType":"uint256","name":"newPercentage","type":"uint256"}],"name":"updateDefaultBountyPercentage","outputs":[],"stateMutability":"view","type":"function"}],"evm":{"bytecode":{"linkReferences":{},"object":"60808060405234610031576001600081815581546001600160a01b0319163317909155600255611ef690816100378239f35b600080fdfe6080604052600436101561001257600080fd5b60003560e01c806326bfde751461128c578063482f20a61461125b5780634c24c2c81461122b5780634ff1487414611209578063539f51db1461120e578063558e44d3146112095780637509c330146110ec5780638da5cb5b146110c3578063a7a512f81461109a578063a9f5c95314610e43578063ae81372914610dfe578063b36b9ffd14610dd5578063b5ecf91214610cdb578063c0c53b8b14610c55578063c2fda48714610c2c578063c55d0f5614610c06578063c8a028a814610aa2578063d0272f9b14610a84578063d0feffb014610a45578063d62182f7146109c2578063db2e21bc1461096b578063dc19ea0e14610522578063dfe6b5d614610492578063e6a9aba314610474578063f00084fb14610271578063f8b688f5146101cd5763fd1a98a51461014557600080fd5b346101bc5760203660031901126101bc57600435801515806101c1575b156101bc5760005260076020526101aa604060002060086020526101b8610196610190604060002093611c6c565b92611c6c565b6040519384936040855260408501906115fe565b9083820360208501526115fe565b0390f35b600080fd5b50600254811115610162565b346101bc576101db36611469565b9081156101bc57606482116101bc576101f3826119a5565b9060005b83811061021457604051602080825281906101b8908201866115fe565b61021f8185846119d7565b3515158061025a575b156101bc578061024561023f6102559387866119d7565b356119fb565b61024f82866119e7565b52611655565b6101f7565b506102668185846119d7565b356002541015610228565b346101bc5761027f36611469565b9081156101bc57606482116101bc576102978261198e565b916102a5604051938461151f565b808352601f196102b48261198e565b0160005b81811061045d57505060005b81811061032a576040805160208082528651818301819052600093600582901b8401810192808a01929185015b8287106102fe5785850386f35b90919293828061031a600193603f198a820301865288516113a7565b96019201960195929190926102f1565b6103358183856119d7565b35151580610446575b156101bc57806103526104419284866119d7565b35600052600660209080825260406000209060405192610371846114f0565b82546001600160a01b0316845260018301549084015261039360028301611542565b60408401526003820154606084015260048201546080840152600582015460a084015281015460c0830152600781015460e0830152600b600891828101546101008501526009810154610120850152600a8101546101408501520154809160ff928391610406838316610160880161167f565b1c16610180840152818160101c166101a084015260181c1615156101c082015261043082876119e7565b5261043b81866119e7565b50611655565b6102c4565b506104528183856119d7565b35600254101561033e565b602090610468611bfc565b828288010152016102b8565b346101bc5760003660031901126101bc576020600254604051908152f35b346101bc5760003660031901126101bc57600254600090600060015b828111156104c757506101b890604051938493846115e8565b8060005260066104e560209582875260096040600020015490611632565b94826000525260ff600b6040600020015460181c1661050d575b61050890611655565b6104ae565b9061051a61050891611655565b9190506104ff565b346101bc576101003660031901126101bc576001600160401b03602435116101bc573660236024350112156101bc576001600160401b0360046024350135116101bc5736602480356004013581350101116101bc57600260443510156101bc57606460c435116101bc57606460e435116101bc5760646105a660e43560c435611632565b116101bc57606435156101bc57600435156101bc5760243560040135156101bc57600160443514610953575b6105dd600254611655565b806002556040516105ed816114f0565b338152600435602082015261060760243560040135611664565b610614604051918261151f565b6024803560048101358084529101602083013760006020602435600401358301015260408201526064356060820152606435608082015260843560a082015260a43560c08201524260e0820152600061010082015260006101208201526000610140820152610689604435610160830161167f565b60ff60c4351661018082015260ff60e435166101a082015260016101c082015281600052600660205260406000209160018060a01b0382511660018060a01b031984541617835560208201516001840155604082015192835160018060401b03811161093d576106fc60028301546114b6565b601f81116108f6575b506020601f8211600114610885578190600b94959660009261087a575b50508160011b916000199060031b1c19161760028201555b606084015160038201556080840151600482015560a0840151600582015560c0840151600682015560e0840151600782015561010084015160088201556101208401516009820155610140840151600a8201550191610160810151926002841015610864576101c06107e192602095835461ff0061018084015160081b169060ff62ff00006101a086015160101b1693169062ffffff19161717178355015115159061168b565b80600052600782526107f960643560406000206116a7565b806000526008825261080f4260406000206116a7565b604051600435815261082583820160443561139a565b60643560408201526084356060820152817f505543113d9d1a281874815cee76fc95d191d999c006617d2c176495cb948b5860803393a3604051908152f35b634e487b7160e01b600052602160045260246000fd5b015190508680610722565b601f198216956002840160005260206000209660005b8181106108de575091600b959697918460019594106108c5575b505050811b01600282015561073a565b015160001960f88460031b161c191690558680806108b5565b8383015189556001909801976020938401930161089b565b600283016000526020600020601f830160051c810160208410610936575b601f830160051c8201811061092a575050610705565b60008155600101610914565b5080610914565b634e487b7160e01b600052604160045260246000fd5b608435156101bc57606460a43510156105d257600080fd5b346101bc5760003660031901126101bc576001546001600160a01b0390811633036101bc5761099861173a565b479081156101bc5760008080938193600154165af16109b561170a565b50156101bc576001600055005b346101bc5760203660031901126101bc5760043580151580610a39575b156101bc57600090815260066020526040902054336001600160a01b0391821614908115610a2b575b50156101bc57600960205260006040812055600a60205260006040812055600080f35b905060015416331481610a08565b506002548111156109df565b346101bc57610a53366112fa565b906000526008602052604060002080548210156101bc57602091610a7691611310565b90546040519160031b1c8152f35b346101bc5760003660031901126101bc576020604051620186a08152f35b60203660031901126101bc5760043580151580610bfa575b156101bc5780600052600660205260ff600b6040600020015460181c16156101bc57610ae461173a565b806000526006602052604060002090610afc816119fb565b918234106101bc57610b0e8383611770565b6008810190610b1d8254611655565b825560098101610b2e858254611632565b9055600a42910155610b4083836118c4565b6003546001600160a01b0316803b156101bc5760006040518092630686108d60e01b8252818381610b768b338c600485016116dc565b03925af18015610bee57610bdf575b50833411610bbb575b600080516020611ed6833981519152915490610bb16040519283923397846115e8565b0390a36001600055005b6000808080610bca88346116fd565b335af1610bd561170a565b50610b8e57600080fd5b610be89061150c565b84610b85565b6040513d6000823e3d90fd5b50600254811115610aba565b346101bc5760203660031901126101bc576020610c246004356119fb565b604051908152f35b346101bc5760003660031901126101bc576003546040516001600160a01b039091168152602090f35b346101bc5760603660031901126101bc576001600160a01b03600435818116908190036101bc576024358281168091036101bc57604435928084168094036101bc576001541633036101bc5781156101bc5780156101bc5782156101bc5760018060a01b0319918260035416176003558160045416176004556005541617600555600080f35b346101bc5760203660031901126101bc5760043560005260066020526020604060002060018060a01b038154169060ff6001820154610d1c60028401611542565b92600381015493600482015460058301546006840154600785015491600886015493610d71600988015496600b600a8a0154990154996040519e8f9e8f908152015260408d6101e091829101528d019061135a565b9960608c015260808b015260a08a015260c089015260e0880152610100870152610120860152610140850152610dad610160850183831661139a565b818160081c16610180850152818160101c166101a085015260181c1615156101c08301520390f35b346101bc5760003660031901126101bc576004546040516001600160a01b039091168152602090f35b346101bc57610e0c366112db565b6001546001600160a01b031633036101bc5781151580610e37575b156101bc57610e3591611b8f565b005b50600254821115610e27565b610e4c36611469565b610e5461173a565b80156101bc57603281116101bc576000610e6d826119a5565b60005b83811061100557508134106101bc5760005b838110610f16575050803411610ef2575b60408051818152908101839052906001600160fb1b0383116101bc577fa25f24536407b63286bdae6707ed3e860288bb5f5c648de7dd6dab214485a8e39260051b80946060840137602082015260608133948101030190a26001600055005b6000808080610f0185346116fd565b335af1610f0c61170a565b50610e9357600080fd5b610f218185876119d7565b3590610f2d81846119e7565b51826000526006602052604060002092610f478282611770565b6008840193610f568554611655565b855560098101610f67848254611632565b9055600a42910155610f7982826118c4565b6003546001600160a01b03169490853b156101bc5760006040518097630686108d60e01b8252818381610fb18a338b600485016116dc565b03925af1918215610bee57610ff196600080516020611ed683398151915293610ff6575b505490610fe96040519283923397846115e8565b0390a3611655565b610e82565b610fff9061150c565b8b610fd5565b916110118385876119d7565b35151580611083575b156101bc5761102a8385876119d7565b35600052600660205260ff600b6040600020015460181c16156101bc5761107861107e9161105c61023f86888a6119d7565b61106686866119e7565b5261107185856119e7565b5190611632565b92611655565b610e70565b5061108f8385876119d7565b35600254101561101a565b346101bc5760003660031901126101bc576005546040516001600160a01b039091168152602090f35b346101bc5760003660031901126101bc576001546040516001600160a01b039091168152602090f35b346101bc5760203660031901126101bc57600435611108611bfc565b50801515806111fd575b156101bc5760005260066020526101b8604060002060ff600b60405192611138846114f0565b80546001600160a01b031684526001810154602085015261115b60028201611542565b60408501526003810154606085015260048101546080850152600581015460a0850152600681015460c0850152600781015460e085015260088101546101008501526009810154610120850152600a81015461014085015201546111c5828216610160850161167f565b818160081c16610180840152818160101c166101a084015260181c1615156101c08201526040519182916020835260208301906113a7565b50600254811115611112565b61133e565b346101bc5760003660031901126101bc57602060405161012c8152f35b346101bc5760203660031901126101bc576001546001600160a01b031633036101bc576103e8600435116101bc57005b346101bc57611269366112fa565b906000526007602052604060002080548210156101bc57602091610a7691611310565b346101bc5761129a366112db565b811515806112cf575b156101bc576000828152600660205260409020546001600160a01b031633036101bc57610e3591611b8f565b506002548211156112a3565b60409060031901126101bc576004359060243580151581036101bc5790565b60409060031901126101bc576004359060243590565b80548210156113285760005260206000200190600090565b634e487b7160e01b600052603260045260246000fd5b346101bc5760003660031901126101bc57602060405160648152f35b919082519283825260005b848110611386575050826000602080949584010152601f8019910116010190565b602081830181015184830182015201611365565b9060028210156108645752565b9060018060a01b038251168152602082015160208201526113d760408301516101e080604085015283019061135a565b91606081015160608301526080810151608083015260a081015160a083015260c081015160c083015260e081015160e083015261010080820151908301526101208082015190830152610140808201519083015261143e610160808301519084019061139a565b61018060ff8183015116908301526101a060ff8183015116908301526101c080910151151591015290565b9060206003198301126101bc576001600160401b0391600435908382116101bc57806023830112156101bc5781600401359384116101bc5760248460051b830101116101bc576024019190565b90600182811c921680156114e6575b60208310146114d057565b634e487b7160e01b600052602260045260246000fd5b91607f16916114c5565b6101e081019081106001600160401b0382111761093d57604052565b6001600160401b03811161093d57604052565b601f909101601f19168101906001600160401b0382119082101761093d57604052565b9060405191826000825492611556846114b6565b9081845260019485811690816000146115c55750600114611582575b50506115809250038361151f565b565b9093915060005260209081600020936000915b8183106115ad57505061158093508201013880611572565b85548884018501529485019487945091830191611595565b91505061158094506020925060ff191682840152151560051b8201013880611572565b6040919493926060820195825260208201520152565b90815180825260208080930193019160005b82811061161e575050505090565b835185529381019392810192600101611610565b9190820180921161163f57565b634e487b7160e01b600052601160045260246000fd5b600019811461163f5760010190565b6001600160401b03811161093d57601f01601f191660200190565b60028210156108645752565b9063ff000000825491151560181b169063ff0000001916179055565b8054600160401b81101561093d576116c491600182018155611310565b819291549060031b91821b91600019901b1916179055565b9081526001600160a01b039091166020820152604081019190915260600190565b9190820391821161163f57565b3d15611735573d9061171b82611664565b91611729604051938461151f565b82523d6000602084013e565b606090565b60026000541461174b576002600055565b604051633ee5aeb560e01b8152600490fd5b8181029291811591840414171561163f57565b60ff90600092818452600660205283604081206117c0600b820154936117bb60646117b2816117a48b8a60081c168661175d565b04998a9860101c168461175d565b049788926116fd565b6116fd565b8061189a575b5050508061183d575b50816117da57505050565b6004546001600160a01b031690813b156118395790602484926040519485938492637c8efce360e01b845260048401525af1801561182e5761181a575050565b611824829161150c565b61182b5750565b80fd5b6040513d84823e3d90fd5b8380fd5b6005546001600160a01b0316803b156118965784906024604051809481936346955bc760e11b83528760048401525af1801561188b57156117cf576118849093919361150c565b91386117cf565b6040513d86823e3d90fd5b8480fd5b9054829182918291906001600160a01b03165af16118b661170a565b5015611839578338806117c6565b60008181526006602052604080822060ff600b82015416600281101561197a5715611973579361196d7fc6d3da45896ce1bca9d198309a2dbeea3c73a991748f8d88d796ffa06029de93939260086119609761191f88611cbb565b98899687600484015589815260096020528785822055600a60205242858220556007602052611950888683206116a7565b89815283602052844291206116a7565b01549051938493846115e8565b0390a290565b5050505090565b634e487b7160e01b84526021600452602484fd5b6001600160401b03811161093d5760051b60200190565b906119af8261198e565b6119bc604051918261151f565b82815280926119cd601f199161198e565b0190602036910137565b91908110156113285760051b0190565b80518210156113285760209160051b010190565b80151580611a15575b156101bc57611a1290611a21565b90565b50600254811115611a04565b600090808252600660205260409182812092805190611a3f826114f0565b84546001600160a01b0316825260018501546020830152611a6260028601611542565b8183015260038501546060830152600b60048601549560808401968752600581015460a0850152600681015460c0850152600781015460e085015260088101546101008501526009810154610120850152600a8101546101408501520154916101c060ff610160830194611ad88282168761167f565b818160081c16610180850152818160101c166101a085015260181c1615159101528151600281101561197a5760011480611b7b575b80611b5c575b611b4c575051906002821015611b38575015611b3357611a129150611cbb565b505190565b634e487b7160e01b81526021600452602490fd5b9350509081526009602052205490565b50838352600a60205261012c611b7582852054426116fd565b10611b13565b50838352600a602052808320541515611b0d565b9060207f70d73d81e52a2dca11d75c71d0f5006dfee7a734c401a87c32f0939f26461aee91600084815260068352611bcd82600b604084200161168b565b60098352604081208054611be9575b50506040519015158152a2565b819055600a835260408120553880611bdc565b60405190611c09826114f0565b816101c0600091828152826020820152606060408201528260608201528260808201528260a08201528260c08201528260e08201528261010082015282610120820152826101408201528261016082015282610180820152826101a08201520152565b9060405191828154918282526020928383019160005283600020936000905b828210611ca1575050506115809250038361151f565b855484526001958601958895509381019390910190611c8b565b60005260066020526040600020604051611cd4816114f0565b81546001600160a01b0316815260018201546020820152611cf760028301611542565b604082015260038201546060820152600b60048301549260808301938452600581015460a0840152600681015460c0840152600781015460e084015260088101546101008401526009810154610120840152600a810154610140840152015460ff610160830191611d6a8282168461167f565b818160081c16610180850152818160101c166101a085015260181c1615156101c08301525160028110156108645715611b3357611a1291506060810180519060c0611dca610100850193611dc4855160a08801519061175d565b90611632565b9301519060648211801590611e24575b611e1e57611def611e03926064945190611e2d565b90620186a0808311611e16575b505161175d565b049080821115611e11575090565b905090565b915038611dfc565b50505090565b50825115611dda565b908015611ece576001808214611ec95760648093835b611e4e575050505090565b8280851614611e99575b8015611e845780600019048111611e7f57611e7481839261175d565b0492821c9283611e43565b611973565b60246000634e487b7160e01b81526012600452fd5b938415611e845784600019048111611ebd57611eb685839261175d565b0493611e58565b5050505050620186a090565b505090565b505060649056fe3c643b89a81273a1160fc920ed10ca2aba86a40b58b30303efffe886744cb758","opcodes":"PUSH1 0x80 DUP1 PUSH1 0x40 MSTORE CALLVALUE PUSH2 0x31 JUMPI PUSH1 0x1 PUSH1 0x0 DUP2 DUP2 SSTORE DUP2 SLOAD PUSH1 0x1 PUSH1 0x1 PUSH1 0xA0 SHL SUB NOT AND CALLER OR SWAP1 SWAP2 SSTORE PUSH1 0x2 SSTORE PUSH2 0x1EF6 SWAP1 DUP2 PUSH2 0x37 DUP3 CODECOPY RETURN JUMPDEST PUSH1 0x0 DUP1 REVERT INVALID PUSH1 0x80 PUSH1 0x40 MSTORE PUSH1 0x4 CALLDATASIZE LT ISZERO PUSH2 0x12 JUMPI PUSH1 0x0 DUP1 REVERT JUMPDEST PUSH1 0x0 CALLDATALOAD PUSH1 0xE0 SHR DUP1 PUSH4 0x26BFDE75 EQ PUSH2 0x128C JUMPI DUP1 PUSH4 0x482F20A6 EQ PUSH2 0x125B JUMPI DUP1 PUSH4 0x4C24C2C8 EQ PUSH2 0x122B JUMPI DUP1 PUSH4 0x4FF14874 EQ PUSH2 0x1209 JUMPI DUP1 PUSH4 0x539F51DB EQ PUSH2 0x120E JUMPI DUP1 PUSH4 0x558E44D3 EQ PUSH2 0x1209 JUMPI DUP1 PUSH4 0x7509C330 EQ PUSH2 0x10EC JUMPI DUP1 PUSH4 0x8DA5CB5B EQ PUSH2 0x10C3 JUMPI DUP1 PUSH4 0xA7A512F8 EQ PUSH2 0x109A JUMPI DUP1 PUSH4 0xA9F5C953 EQ PUSH2 0xE43 JUMPI DUP1 PUSH4 0xAE813729 EQ PUSH2 0xDFE JUMPI DUP1 PUSH4 0xB36B9FFD EQ PUSH2 0xDD5 JUMPI DUP1 PUSH4 0xB5ECF912 EQ PUSH2 0xCDB JUMPI DUP1 PUSH4 0xC0C53B8B EQ PUSH2 0xC55 JUMPI DUP1 PUSH4 0xC2FDA487 EQ PUSH2 0xC2C JUMPI DUP1 PUSH4 0xC55D0F56 EQ PUSH2 0xC06 JUMPI DUP1 PUSH4 0xC8A028A8 EQ PUSH2 0xAA2 JUMPI DUP1 PUSH4 0xD0272F9B EQ PUSH2 0xA84 JUMPI DUP1 PUSH4 0xD0FEFFB0 EQ PUSH2 0xA45 JUMPI DUP1 PUSH4 0xD62182F7 EQ PUSH2 0x9C2 JUMPI DUP1 PUSH4 0xDB2E21BC EQ PUSH2 0x96B JUMPI DUP1 PUSH4 0xDC19EA0E EQ PUSH2 0x522 JUMPI DUP1 PUSH4 0xDFE6B5D6 EQ PUSH2 0x492 JUMPI DUP1 PUSH4 0xE6A9ABA3 EQ PUSH2 0x474 JUMPI DUP1 PUSH4 0xF00084FB EQ PUSH2 0x271 JUMPI DUP1 PUSH4 0xF8B688F5 EQ PUSH2 0x1CD JUMPI PUSH4 0xFD1A98A5 EQ PUSH2 0x145 JUMPI PUSH1 0x0 DUP1 REVERT JUMPDEST CALLVALUE PUSH2 0x1BC JUMPI PUSH1 0x20 CALLDATASIZE PUSH1 0x3 NOT ADD SLT PUSH2 0x1BC JUMPI PUSH1 0x4 CALLDATALOAD DUP1 ISZERO ISZERO DUP1 PUSH2 0x1C1 JUMPI JUMPDEST ISZERO PUSH2 0x1BC JUMPI PUSH1 0x0 MSTORE PUSH1 0x7 PUSH1 0x20 MSTORE PUSH2 0x1AA PUSH1 0x40 PUSH1 0x0 KECCAK256 PUSH1 0x8 PUSH1 0x20 MSTORE PUSH2 0x1B8 PUSH2 0x196 PUSH2 0x190 PUSH1 0x40 PUSH1 0x0 KECCAK256 SWAP4 PUSH2 0x1C6C JUMP JUMPDEST SWAP3 PUSH2 0x1C6C JUMP JUMPDEST PUSH1 0x40 MLOAD SWAP4 DUP5 SWAP4 PUSH1 0x40 DUP6 MSTORE PUSH1 0x40 DUP6 ADD SWAP1 PUSH2 0x15FE JUMP JUMPDEST SWAP1 DUP4 DUP3 SUB PUSH1 0x20 DUP6 ADD MSTORE PUSH2 0x15FE JUMP JUMPDEST SUB SWAP1 RETURN JUMPDEST PUSH1 0x0 DUP1 REVERT JUMPDEST POP PUSH1 0x2 SLOAD DUP2 GT ISZERO PUSH2 0x162 JUMP JUMPDEST CALLVALUE PUSH2 0x1BC JUMPI PUSH2 0x1DB CALLDATASIZE PUSH2 0x1469 JUMP JUMPDEST SWAP1 DUP2 ISZERO PUSH2 0x1BC JUMPI PUSH1 0x64 DUP3 GT PUSH2 0x1BC JUMPI PUSH2 0x1F3 DUP3 PUSH2 0x19A5 JUMP JUMPDEST SWAP1 PUSH1 0x0 JUMPDEST DUP4 DUP2 LT PUSH2 0x214 JUMPI PUSH1 0x40 MLOAD PUSH1 0x20 DUP1 DUP3 MSTORE DUP2 SWAP1 PUSH2 0x1B8 SWAP1 DUP3 ADD DUP7 PUSH2 0x15FE JUMP JUMPDEST PUSH2 0x21F DUP2 DUP6 DUP5 PUSH2 0x19D7 JUMP JUMPDEST CALLDATALOAD ISZERO ISZERO DUP1 PUSH2 0x25A JUMPI JUMPDEST ISZERO PUSH2 0x1BC JUMPI DUP1 PUSH2 0x245 PUSH2 0x23F PUSH2 0x255 SWAP4 DUP8 DUP7 PUSH2 0x19D7 JUMP JUMPDEST CALLDATALOAD PUSH2 0x19FB JUMP JUMPDEST PUSH2 0x24F DUP3 DUP7 PUSH2 0x19E7 JUMP JUMPDEST MSTORE PUSH2 0x1655 JUMP JUMPDEST PUSH2 0x1F7 JUMP JUMPDEST POP PUSH2 0x266 DUP2 DUP6 DUP5 PUSH2 0x19D7 JUMP JUMPDEST CALLDATALOAD PUSH1 0x2 SLOAD LT ISZERO PUSH2 0x228 JUMP JUMPDEST CALLVALUE PUSH2 0x1BC JUMPI PUSH2 0x27F CALLDATASIZE PUSH2 0x1469 JUMP JUMPDEST SWAP1 DUP2 ISZERO PUSH2 0x1BC JUMPI PUSH1 0x64 DUP3 GT PUSH2 0x1BC JUMPI PUSH2 0x297 DUP3 PUSH2 0x198E JUMP JUMPDEST SWAP2 PUSH2 0x2A5 PUSH1 0x40 MLOAD SWAP4 DUP5 PUSH2 0x151F JUMP JUMPDEST DUP1 DUP4 MSTORE PUSH1 0x1F NOT PUSH2 0x2B4 DUP3 PUSH2 0x198E JUMP JUMPDEST ADD PUSH1 0x0 JUMPDEST DUP2 DUP2 LT PUSH2 0x45D JUMPI POP POP PUSH1 0x0 JUMPDEST DUP2 DUP2 LT PUSH2 0x32A JUMPI PUSH1 0x40 DUP1 MLOAD PUSH1 0x20 DUP1 DUP3 MSTORE DUP7 MLOAD DUP2 DUP4 ADD DUP2 SWAP1 MSTORE PUSH1 0x0 SWAP4 PUSH1 0x5 DUP3 SWAP1 SHL DUP5 ADD DUP2 ADD SWAP3 DUP1 DUP11 ADD SWAP3 SWAP2 DUP6 ADD JUMPDEST DUP3 DUP8 LT PUSH2 0x2FE JUMPI DUP6 DUP6 SUB DUP7 RETURN JUMPDEST SWAP1 SWAP2 SWAP3 SWAP4 DUP3 DUP1 PUSH2 0x31A PUSH1 0x1 SWAP4 PUSH1 0x3F NOT DUP11 DUP3 SUB ADD DUP7 MSTORE DUP9 MLOAD PUSH2 0x13A7 JUMP JUMPDEST SWAP7 ADD SWAP3 ADD SWAP7 ADD SWAP6 SWAP3 SWAP2 SWAP1 SWAP3 PUSH2 0x2F1 JUMP JUMPDEST PUSH2 0x335 DUP2 DUP4 DUP6 PUSH2 0x19D7 JUMP JUMPDEST CALLDATALOAD ISZERO ISZERO DUP1 PUSH2 0x446 JUMPI JUMPDEST ISZERO PUSH2 0x1BC JUMPI DUP1 PUSH2 0x352 PUSH2 0x441 SWAP3 DUP5 DUP7 PUSH2 0x19D7 JUMP JUMPDEST CALLDATALOAD PUSH1 0x0 MSTORE PUSH1 0x6 PUSH1 0x20 SWAP1 DUP1 DUP3 MSTORE PUSH1 0x40 PUSH1 0x0 KECCAK256 SWAP1 PUSH1 0x40 MLOAD SWAP3 PUSH2 0x371 DUP5 PUSH2 0x14F0 JUMP JUMPDEST DUP3 SLOAD PUSH1 0x1 PUSH1 0x1 PUSH1 0xA0 SHL SUB AND DUP5 MSTORE PUSH1 0x1 DUP4 ADD SLOAD SWAP1 DUP5 ADD MSTORE PUSH2 0x393 PUSH1 0x2 DUP4 ADD PUSH2 0x1542 JUMP JUMPDEST PUSH1 0x40 DUP5 ADD MSTORE PUSH1 0x3 DUP3 ADD SLOAD PUSH1 0x60 DUP5 ADD MSTORE PUSH1 0x4 DUP3 ADD SLOAD PUSH1 0x80 DUP5 ADD MSTORE PUSH1 0x5 DUP3 ADD SLOAD PUSH1 0xA0 DUP5 ADD MSTORE DUP2 ADD SLOAD PUSH1 0xC0 DUP4 ADD MSTORE PUSH1 0x7 DUP2 ADD SLOAD PUSH1 0xE0 DUP4 ADD MSTORE PUSH1 0xB PUSH1 0x8 SWAP2 DUP3 DUP2 ADD SLOAD PUSH2 0x100 DUP6 ADD MSTORE PUSH1 0x9 DUP2 ADD SLOAD PUSH2 0x120 DUP6 ADD MSTORE PUSH1 0xA DUP2 ADD SLOAD PUSH2 0x140 DUP6 ADD MSTORE ADD SLOAD DUP1 SWAP2 PUSH1 0xFF SWAP3 DUP4 SWAP2 PUSH2 0x406 DUP4 DUP4 AND PUSH2 0x160 DUP9 ADD PUSH2 0x167F JUMP JUMPDEST SHR AND PUSH2 0x180 DUP5 ADD MSTORE DUP2 DUP2 PUSH1 0x10 SHR AND PUSH2 0x1A0 DUP5 ADD MSTORE PUSH1 0x18 SHR AND ISZERO ISZERO PUSH2 0x1C0 DUP3 ADD MSTORE PUSH2 0x430 DUP3 DUP8 PUSH2 0x19E7 JUMP JUMPDEST MSTORE PUSH2 0x43B DUP2 DUP7 PUSH2 0x19E7 JUMP JUMPDEST POP PUSH2 0x1655 JUMP JUMPDEST PUSH2 0x2C4 JUMP JUMPDEST POP PUSH2 0x452 DUP2 DUP4 DUP6 PUSH2 0x19D7 JUMP JUMPDEST CALLDATALOAD PUSH1 0x2 SLOAD LT ISZERO PUSH2 0x33E JUMP JUMPDEST PUSH1 0x20 SWAP1 PUSH2 0x468 PUSH2 0x1BFC JUMP JUMPDEST DUP3 DUP3 DUP9 ADD ADD MSTORE ADD PUSH2 0x2B8 JUMP JUMPDEST CALLVALUE PUSH2 0x1BC JUMPI PUSH1 0x0 CALLDATASIZE PUSH1 0x3 NOT ADD SLT PUSH2 0x1BC JUMPI PUSH1 0x20 PUSH1 0x2 SLOAD PUSH1 0x40 MLOAD SWAP1 DUP2 MSTORE RETURN JUMPDEST CALLVALUE PUSH2 0x1BC JUMPI PUSH1 0x0 CALLDATASIZE PUSH1 0x3 NOT ADD SLT PUSH2 0x1BC JUMPI PUSH1 0x2 SLOAD PUSH1 0x0 SWAP1 PUSH1 0x0 PUSH1 0x1 JUMPDEST DUP3 DUP2 GT ISZERO PUSH2 0x4C7 JUMPI POP PUSH2 0x1B8 SWAP1 PUSH1 0x40 MLOAD SWAP4 DUP5 SWAP4 DUP5 PUSH2 0x15E8 JUMP JUMPDEST DUP1 PUSH1 0x0 MSTORE PUSH1 0x6 PUSH2 0x4E5 PUSH1 0x20 SWAP6 DUP3 DUP8 MSTORE PUSH1 0x9 PUSH1 0x40 PUSH1 0x0 KECCAK256 ADD SLOAD SWAP1 PUSH2 0x1632 JUMP JUMPDEST SWAP5 DUP3 PUSH1 0x0 MSTORE MSTORE PUSH1 0xFF PUSH1 0xB PUSH1 0x40 PUSH1 0x0 KECCAK256 ADD SLOAD PUSH1 0x18 SHR AND PUSH2 0x50D JUMPI JUMPDEST PUSH2 0x508 SWAP1 PUSH2 0x1655 JUMP JUMPDEST PUSH2 0x4AE JUMP JUMPDEST SWAP1 PUSH2 0x51A PUSH2 0x508 SWAP2 PUSH2 0x1655 JUMP JUMPDEST SWAP2 SWAP1 POP PUSH2 0x4FF JUMP JUMPDEST CALLVALUE PUSH2 0x1BC JUMPI PUSH2 0x100 CALLDATASIZE PUSH1 0x3 NOT ADD SLT PUSH2 0x1BC JUMPI PUSH1 0x1 PUSH1 0x1 PUSH1 0x40 SHL SUB PUSH1 0x24 CALLDATALOAD GT PUSH2 0x1BC JUMPI CALLDATASIZE PUSH1 0x23 PUSH1 0x24 CALLDATALOAD ADD SLT ISZERO PUSH2 0x1BC JUMPI PUSH1 0x1 PUSH1 0x1 PUSH1 0x40 SHL SUB PUSH1 0x4 PUSH1 0x24 CALLDATALOAD ADD CALLDATALOAD GT PUSH2 0x1BC JUMPI CALLDATASIZE PUSH1 0x24 DUP1 CALLDATALOAD PUSH1 0x4 ADD CALLDATALOAD DUP2 CALLDATALOAD ADD ADD GT PUSH2 0x1BC JUMPI PUSH1 0x2 PUSH1 0x44 CALLDATALOAD LT ISZERO PUSH2 0x1BC JUMPI PUSH1 0x64 PUSH1 0xC4 CALLDATALOAD GT PUSH2 0x1BC JUMPI PUSH1 0x64 PUSH1 0xE4 CALLDATALOAD GT PUSH2 0x1BC JUMPI PUSH1 0x64 PUSH2 0x5A6 PUSH1 0xE4 CALLDATALOAD PUSH1 0xC4 CALLDATALOAD PUSH2 0x1632 JUMP JUMPDEST GT PUSH2 0x1BC JUMPI PUSH1 0x64 CALLDATALOAD ISZERO PUSH2 0x1BC JUMPI PUSH1 0x4 CALLDATALOAD ISZERO PUSH2 0x1BC JUMPI PUSH1 0x24 CALLDATALOAD PUSH1 0x4 ADD CALLDATALOAD ISZERO PUSH2 0x1BC JUMPI PUSH1 0x1 PUSH1 0x44 CALLDATALOAD EQ PUSH2 0x953 JUMPI JUMPDEST PUSH2 0x5DD PUSH1 0x2 SLOAD PUSH2 0x1655 JUMP JUMPDEST DUP1 PUSH1 0x2 SSTORE PUSH1 0x40 MLOAD PUSH2 0x5ED DUP2 PUSH2 0x14F0 JUMP JUMPDEST CALLER DUP2 MSTORE PUSH1 0x4 CALLDATALOAD PUSH1 0x20 DUP3 ADD MSTORE PUSH2 0x607 PUSH1 0x24 CALLDATALOAD PUSH1 0x4 ADD CALLDATALOAD PUSH2 0x1664 JUMP JUMPDEST PUSH2 0x614 PUSH1 0x40 MLOAD SWAP2 DUP3 PUSH2 0x151F JUMP JUMPDEST PUSH1 0x24 DUP1 CALLDATALOAD PUSH1 0x4 DUP2 ADD CALLDATALOAD DUP1 DUP5 MSTORE SWAP2 ADD PUSH1 0x20 DUP4 ADD CALLDATACOPY PUSH1 0x0 PUSH1 0x20 PUSH1 0x24 CALLDATALOAD PUSH1 0x4 ADD CALLDATALOAD DUP4 ADD ADD MSTORE PUSH1 0x40 DUP3 ADD MSTORE PUSH1 0x64 CALLDATALOAD PUSH1 0x60 DUP3 ADD MSTORE PUSH1 0x64 CALLDATALOAD PUSH1 0x80 DUP3 ADD MSTORE PUSH1 0x84 CALLDATALOAD PUSH1 0xA0 DUP3 ADD MSTORE PUSH1 0xA4 CALLDATALOAD PUSH1 0xC0 DUP3 ADD MSTORE TIMESTAMP PUSH1 0xE0 DUP3 ADD MSTORE PUSH1 0x0 PUSH2 0x100 DUP3 ADD MSTORE PUSH1 0x0 PUSH2 0x120 DUP3 ADD MSTORE PUSH1 0x0 PUSH2 0x140 DUP3 ADD MSTORE PUSH2 0x689 PUSH1 0x44 CALLDATALOAD PUSH2 0x160 DUP4 ADD PUSH2 0x167F JUMP JUMPDEST PUSH1 0xFF PUSH1 0xC4 CALLDATALOAD AND PUSH2 0x180 DUP3 ADD MSTORE PUSH1 0xFF PUSH1 0xE4 CALLDATALOAD AND PUSH2 0x1A0 DUP3 ADD MSTORE PUSH1 0x1 PUSH2 0x1C0 DUP3 ADD MSTORE DUP2 PUSH1 0x0 MSTORE PUSH1 0x6 PUSH1 0x20 MSTORE PUSH1 0x40 PUSH1 0x0 KECCAK256 SWAP2 PUSH1 0x1 DUP1 PUSH1 0xA0 SHL SUB DUP3 MLOAD AND PUSH1 0x1 DUP1 PUSH1 0xA0 SHL SUB NOT DUP5 SLOAD AND OR DUP4 SSTORE PUSH1 0x20 DUP3 ADD MLOAD PUSH1 0x1 DUP5 ADD SSTORE PUSH1 0x40 DUP3 ADD MLOAD SWAP3 DUP4 MLOAD PUSH1 0x1 DUP1 PUSH1 0x40 SHL SUB DUP2 GT PUSH2 0x93D JUMPI PUSH2 0x6FC PUSH1 0x2 DUP4 ADD SLOAD PUSH2 0x14B6 JUMP JUMPDEST PUSH1 0x1F DUP2 GT PUSH2 0x8F6 JUMPI JUMPDEST POP PUSH1 0x20 PUSH1 0x1F DUP3 GT PUSH1 0x1 EQ PUSH2 0x885 JUMPI DUP2 SWAP1 PUSH1 0xB SWAP5 SWAP6 SWAP7 PUSH1 0x0 SWAP3 PUSH2 0x87A JUMPI JUMPDEST POP POP DUP2 PUSH1 0x1 SHL SWAP2 PUSH1 0x0 NOT SWAP1 PUSH1 0x3 SHL SHR NOT AND OR PUSH1 0x2 DUP3 ADD SSTORE JUMPDEST PUSH1 0x60 DUP5 ADD MLOAD PUSH1 0x3 DUP3 ADD SSTORE PUSH1 0x80 DUP5 ADD MLOAD PUSH1 0x4 DUP3 ADD SSTORE PUSH1 0xA0 DUP5 ADD MLOAD PUSH1 0x5 DUP3 ADD SSTORE PUSH1 0xC0 DUP5 ADD MLOAD PUSH1 0x6 DUP3 ADD SSTORE PUSH1 0xE0 DUP5 ADD MLOAD PUSH1 0x7 DUP3 ADD SSTORE PUSH2 0x100 DUP5 ADD MLOAD PUSH1 0x8 DUP3 ADD SSTORE PUSH2 0x120 DUP5 ADD MLOAD PUSH1 0x9 DUP3 ADD SSTORE PUSH2 0x140 DUP5 ADD MLOAD PUSH1 0xA DUP3 ADD SSTORE ADD SWAP2 PUSH2 0x160 DUP2 ADD MLOAD SWAP3 PUSH1 0x2 DUP5 LT ISZERO PUSH2 0x864 JUMPI PUSH2 0x1C0 PUSH2 0x7E1 SWAP3 PUSH1 0x20 SWAP6 DUP4 SLOAD PUSH2 0xFF00 PUSH2 0x180 DUP5 ADD MLOAD PUSH1 0x8 SHL AND SWAP1 PUSH1 0xFF PUSH3 0xFF0000 PUSH2 0x1A0 DUP7 ADD MLOAD PUSH1 0x10 SHL AND SWAP4 AND SWAP1 PUSH3 0xFFFFFF NOT AND OR OR OR DUP4 SSTORE ADD MLOAD ISZERO ISZERO SWAP1 PUSH2 0x168B JUMP JUMPDEST DUP1 PUSH1 0x0 MSTORE PUSH1 0x7 DUP3 MSTORE PUSH2 0x7F9 PUSH1 0x64 CALLDATALOAD PUSH1 0x40 PUSH1 0x0 KECCAK256 PUSH2 0x16A7 JUMP JUMPDEST DUP1 PUSH1 0x0 MSTORE PUSH1 0x8 DUP3 MSTORE PUSH2 0x80F TIMESTAMP PUSH1 0x40 PUSH1 0x0 KECCAK256 PUSH2 0x16A7 JUMP JUMPDEST PUSH1 0x40 MLOAD PUSH1 0x4 CALLDATALOAD DUP2 MSTORE PUSH2 0x825 DUP4 DUP3 ADD PUSH1 0x44 CALLDATALOAD PUSH2 0x139A JUMP JUMPDEST PUSH1 0x64 CALLDATALOAD PUSH1 0x40 DUP3 ADD MSTORE PUSH1 0x84 CALLDATALOAD PUSH1 0x60 DUP3 ADD MSTORE DUP2 PUSH32 0x505543113D9D1A281874815CEE76FC95D191D999C006617D2C176495CB948B58 PUSH1 0x80 CALLER SWAP4 LOG3 PUSH1 0x40 MLOAD SWAP1 DUP2 MSTORE RETURN JUMPDEST PUSH4 0x4E487B71 PUSH1 0xE0 SHL PUSH1 0x0 MSTORE PUSH1 0x21 PUSH1 0x4 MSTORE PUSH1 0x24 PUSH1 0x0 REVERT JUMPDEST ADD MLOAD SWAP1 POP DUP7 DUP1 PUSH2 0x722 JUMP JUMPDEST PUSH1 0x1F NOT DUP3 AND SWAP6 PUSH1 0x2 DUP5 ADD PUSH1 0x0 MSTORE PUSH1 0x20 PUSH1 0x0 KECCAK256 SWAP7 PUSH1 0x0 JUMPDEST DUP2 DUP2 LT PUSH2 0x8DE JUMPI POP SWAP2 PUSH1 0xB SWAP6 SWAP7 SWAP8 SWAP2 DUP5 PUSH1 0x1 SWAP6 SWAP5 LT PUSH2 0x8C5 JUMPI JUMPDEST POP POP POP DUP2 SHL ADD PUSH1 0x2 DUP3 ADD SSTORE PUSH2 0x73A JUMP JUMPDEST ADD MLOAD PUSH1 0x0 NOT PUSH1 0xF8 DUP5 PUSH1 0x3 SHL AND SHR NOT AND SWAP1 SSTORE DUP7 DUP1 DUP1 PUSH2 0x8B5 JUMP JUMPDEST DUP4 DUP4 ADD MLOAD DUP10 SSTORE PUSH1 0x1 SWAP1 SWAP9 ADD SWAP8 PUSH1 0x20 SWAP4 DUP5 ADD SWAP4 ADD PUSH2 0x89B JUMP JUMPDEST PUSH1 0x2 DUP4 ADD PUSH1 0x0 MSTORE PUSH1 0x20 PUSH1 0x0 KECCAK256 PUSH1 0x1F DUP4 ADD PUSH1 0x5 SHR DUP2 ADD PUSH1 0x20 DUP5 LT PUSH2 0x936 JUMPI JUMPDEST PUSH1 0x1F DUP4 ADD PUSH1 0x5 SHR DUP3 ADD DUP2 LT PUSH2 0x92A JUMPI POP POP PUSH2 0x705 JUMP JUMPDEST PUSH1 0x0 DUP2 SSTORE PUSH1 0x1 ADD PUSH2 0x914 JUMP JUMPDEST POP DUP1 PUSH2 0x914 JUMP JUMPDEST PUSH4 0x4E487B71 PUSH1 0xE0 SHL PUSH1 0x0 MSTORE PUSH1 0x41 PUSH1 0x4 MSTORE PUSH1 0x24 PUSH1 0x0 REVERT JUMPDEST PUSH1 0x84 CALLDATALOAD ISZERO PUSH2 0x1BC JUMPI PUSH1 0x64 PUSH1 0xA4 CALLDATALOAD LT ISZERO PUSH2 0x5D2 JUMPI PUSH1 0x0 DUP1 REVERT JUMPDEST CALLVALUE PUSH2 0x1BC JUMPI PUSH1 0x0 CALLDATASIZE PUSH1 0x3 NOT ADD SLT PUSH2 0x1BC JUMPI PUSH1 0x1 SLOAD PUSH1 0x1 PUSH1 0x1 PUSH1 0xA0 SHL SUB SWAP1 DUP2 AND CALLER SUB PUSH2 0x1BC JUMPI PUSH2 0x998 PUSH2 0x173A JUMP JUMPDEST SELFBALANCE SWAP1 DUP2 ISZERO PUSH2 0x1BC JUMPI PUSH1 0x0 DUP1 DUP1 SWAP4 DUP2 SWAP4 PUSH1 0x1 SLOAD AND GAS CALL PUSH2 0x9B5 PUSH2 0x170A JUMP JUMPDEST POP ISZERO PUSH2 0x1BC JUMPI PUSH1 0x1 PUSH1 0x0 SSTORE STOP JUMPDEST CALLVALUE PUSH2 0x1BC JUMPI PUSH1 0x20 CALLDATASIZE PUSH1 0x3 NOT ADD SLT PUSH2 0x1BC JUMPI PUSH1 0x4 CALLDATALOAD DUP1 ISZERO ISZERO DUP1 PUSH2 0xA39 JUMPI JUMPDEST ISZERO PUSH2 0x1BC JUMPI PUSH1 0x0 SWAP1 DUP2 MSTORE PUSH1 0x6 PUSH1 0x20 MSTORE PUSH1 0x40 SWAP1 KECCAK256 SLOAD CALLER PUSH1 0x1 PUSH1 0x1 PUSH1 0xA0 SHL SUB SWAP2 DUP3 AND EQ SWAP1 DUP2 ISZERO PUSH2 0xA2B JUMPI JUMPDEST POP ISZERO PUSH2 0x1BC JUMPI PUSH1 0x9 PUSH1 0x20 MSTORE PUSH1 0x0 PUSH1 0x40 DUP2 KECCAK256 SSTORE PUSH1 0xA PUSH1 0x20 MSTORE PUSH1 0x0 PUSH1 0x40 DUP2 KECCAK256 SSTORE PUSH1 0x0 DUP1 RETURN JUMPDEST SWAP1 POP PUSH1 0x1 SLOAD AND CALLER EQ DUP2 PUSH2 0xA08 JUMP JUMPDEST POP PUSH1 0x2 SLOAD DUP2 GT ISZERO PUSH2 0x9DF JUMP JUMPDEST CALLVALUE PUSH2 0x1BC JUMPI PUSH2 0xA53 CALLDATASIZE PUSH2 0x12FA JUMP JUMPDEST SWAP1 PUSH1 0x0 MSTORE PUSH1 0x8 PUSH1 0x20 MSTORE PUSH1 0x40 PUSH1 0x0 KECCAK256 DUP1 SLOAD DUP3 LT ISZERO PUSH2 0x1BC JUMPI PUSH1 0x20 SWAP2 PUSH2 0xA76 SWAP2 PUSH2 0x1310 JUMP JUMPDEST SWAP1 SLOAD PUSH1 0x40 MLOAD SWAP2 PUSH1 0x3 SHL SHR DUP2 MSTORE RETURN JUMPDEST CALLVALUE PUSH2 0x1BC JUMPI PUSH1 0x0 CALLDATASIZE PUSH1 0x3 NOT ADD SLT PUSH2 0x1BC JUMPI PUSH1 0x20 PUSH1 0x40 MLOAD PUSH3 0x186A0 DUP2 MSTORE RETURN JUMPDEST PUSH1 0x20 CALLDATASIZE PUSH1 0x3 NOT ADD SLT PUSH2 0x1BC JUMPI PUSH1 0x4 CALLDATALOAD DUP1 ISZERO ISZERO DUP1 PUSH2 0xBFA JUMPI JUMPDEST ISZERO PUSH2 0x1BC JUMPI DUP1 PUSH1 0x0 MSTORE PUSH1 0x6 PUSH1 0x20 MSTORE PUSH1 0xFF PUSH1 0xB PUSH1 0x40 PUSH1 0x0 KECCAK256 ADD SLOAD PUSH1 0x18 SHR AND ISZERO PUSH2 0x1BC JUMPI PUSH2 0xAE4 PUSH2 0x173A JUMP JUMPDEST DUP1 PUSH1 0x0 MSTORE PUSH1 0x6 PUSH1 0x20 MSTORE PUSH1 0x40 PUSH1 0x0 KECCAK256 SWAP1 PUSH2 0xAFC DUP2 PUSH2 0x19FB JUMP JUMPDEST SWAP2 DUP3 CALLVALUE LT PUSH2 0x1BC JUMPI PUSH2 0xB0E DUP4 DUP4 PUSH2 0x1770 JUMP JUMPDEST PUSH1 0x8 DUP2 ADD SWAP1 PUSH2 0xB1D DUP3 SLOAD PUSH2 0x1655 JUMP JUMPDEST DUP3 SSTORE PUSH1 0x9 DUP2 ADD PUSH2 0xB2E DUP6 DUP3 SLOAD PUSH2 0x1632 JUMP JUMPDEST SWAP1 SSTORE PUSH1 0xA TIMESTAMP SWAP2 ADD SSTORE PUSH2 0xB40 DUP4 DUP4 PUSH2 0x18C4 JUMP JUMPDEST PUSH1 0x3 SLOAD PUSH1 0x1 PUSH1 0x1 PUSH1 0xA0 SHL SUB AND DUP1 EXTCODESIZE ISZERO PUSH2 0x1BC JUMPI PUSH1 0x0 PUSH1 0x40 MLOAD DUP1 SWAP3 PUSH4 0x686108D PUSH1 0xE0 SHL DUP3 MSTORE DUP2 DUP4 DUP2 PUSH2 0xB76 DUP12 CALLER DUP13 PUSH1 0x4 DUP6 ADD PUSH2 0x16DC JUMP JUMPDEST SUB SWAP3 GAS CALL DUP1 ISZERO PUSH2 0xBEE JUMPI PUSH2 0xBDF JUMPI JUMPDEST POP DUP4 CALLVALUE GT PUSH2 0xBBB JUMPI JUMPDEST PUSH1 0x0 DUP1 MLOAD PUSH1 0x20 PUSH2 0x1ED6 DUP4 CODECOPY DUP2 MLOAD SWAP2 MSTORE SWAP2 SLOAD SWAP1 PUSH2 0xBB1 PUSH1 0x40 MLOAD SWAP3 DUP4 SWAP3 CALLER SWAP8 DUP5 PUSH2 0x15E8 JUMP JUMPDEST SUB SWAP1 LOG3 PUSH1 0x1 PUSH1 0x0 SSTORE STOP JUMPDEST PUSH1 0x0 DUP1 DUP1 DUP1 PUSH2 0xBCA DUP9 CALLVALUE PUSH2 0x16FD JUMP JUMPDEST CALLER GAS CALL PUSH2 0xBD5 PUSH2 0x170A JUMP JUMPDEST POP PUSH2 0xB8E JUMPI PUSH1 0x0 DUP1 REVERT JUMPDEST PUSH2 0xBE8 SWAP1 PUSH2 0x150C JUMP JUMPDEST DUP5 PUSH2 0xB85 JUMP JUMPDEST PUSH1 0x40 MLOAD RETURNDATASIZE PUSH1 0x0 DUP3 RETURNDATACOPY RETURNDATASIZE SWAP1 REVERT JUMPDEST POP PUSH1 0x2 SLOAD DUP2 GT ISZERO PUSH2 0xABA JUMP JUMPDEST CALLVALUE PUSH2 0x1BC JUMPI PUSH1 0x20 CALLDATASIZE PUSH1 0x3 NOT ADD SLT PUSH2 0x1BC JUMPI PUSH1 0x20 PUSH2 0xC24 PUSH1 0x4 CALLDATALOAD PUSH2 0x19FB JUMP JUMPDEST PUSH1 0x40 MLOAD SWAP1 DUP2 MSTORE RETURN JUMPDEST CALLVALUE PUSH2 0x1BC JUMPI PUSH1 0x0 CALLDATASIZE PUSH1 0x3 NOT ADD SLT PUSH2 0x1BC JUMPI PUSH1 0x3 SLOAD PUSH1 0x40 MLOAD PUSH1 0x1 PUSH1 0x1 PUSH1 0xA0 SHL SUB SWAP1 SWAP2 AND DUP2 MSTORE PUSH1 0x20 SWAP1 RETURN JUMPDEST CALLVALUE PUSH2 0x1BC JUMPI PUSH1 0x60 CALLDATASIZE PUSH1 0x3 NOT ADD SLT PUSH2 0x1BC JUMPI PUSH1 0x1 PUSH1 0x1 PUSH1 0xA0 SHL SUB PUSH1 0x4 CALLDATALOAD DUP2 DUP2 AND SWAP1 DUP2 SWAP1 SUB PUSH2 0x1BC JUMPI PUSH1 0x24 CALLDATALOAD DUP3 DUP2 AND DUP1 SWAP2 SUB PUSH2 0x1BC JUMPI PUSH1 0x44 CALLDATALOAD SWAP3 DUP1 DUP5 AND DUP1 SWAP5 SUB PUSH2 0x1BC JUMPI PUSH1 0x1 SLOAD AND CALLER SUB PUSH2 0x1BC JUMPI DUP2 ISZERO PUSH2 0x1BC JUMPI DUP1 ISZERO PUSH2 0x1BC JUMPI DUP3 ISZERO PUSH2 0x1BC JUMPI PUSH1 0x1 DUP1 PUSH1 0xA0 SHL SUB NOT SWAP2 DUP3 PUSH1 0x3 SLOAD AND OR PUSH1 0x3 SSTORE DUP2 PUSH1 0x4 SLOAD AND OR PUSH1 0x4 SSTORE PUSH1 0x5 SLOAD AND OR PUSH1 0x5 SSTORE PUSH1 0x0 DUP1 RETURN JUMPDEST CALLVALUE PUSH2 0x1BC JUMPI PUSH1 0x20 CALLDATASIZE PUSH1 0x3 NOT ADD SLT PUSH2 0x1BC JUMPI PUSH1 0x4 CALLDATALOAD PUSH1 0x0 MSTORE PUSH1 0x6 PUSH1 0x20 MSTORE PUSH1 0x20 PUSH1 0x40 PUSH1 0x0 KECCAK256 PUSH1 0x1 DUP1 PUSH1 0xA0 SHL SUB DUP2 SLOAD AND SWAP1 PUSH1 0xFF PUSH1 0x1 DUP3 ADD SLOAD PUSH2 0xD1C PUSH1 0x2 DUP5 ADD PUSH2 0x1542 JUMP JUMPDEST SWAP3 PUSH1 0x3 DUP2 ADD SLOAD SWAP4 PUSH1 0x4 DUP3 ADD SLOAD PUSH1 0x5 DUP4 ADD SLOAD PUSH1 0x6 DUP5 ADD SLOAD PUSH1 0x7 DUP6 ADD SLOAD SWAP2 PUSH1 0x8 DUP7 ADD SLOAD SWAP4 PUSH2 0xD71 PUSH1 0x9 DUP9 ADD SLOAD SWAP7 PUSH1 0xB PUSH1 0xA DUP11 ADD SLOAD SWAP10 ADD SLOAD SWAP10 PUSH1 0x40 MLOAD SWAP15 DUP16 SWAP15 DUP16 SWAP1 DUP2 MSTORE ADD MSTORE PUSH1 0x40 DUP14 PUSH2 0x1E0 SWAP2 DUP3 SWAP2 ADD MSTORE DUP14 ADD SWAP1 PUSH2 0x135A JUMP JUMPDEST SWAP10 PUSH1 0x60 DUP13 ADD MSTORE PUSH1 0x80 DUP12 ADD MSTORE PUSH1 0xA0 DUP11 ADD MSTORE PUSH1 0xC0 DUP10 ADD MSTORE PUSH1 0xE0 DUP9 ADD MSTORE PUSH2 0x100 DUP8 ADD MSTORE PUSH2 0x120 DUP7 ADD MSTORE PUSH2 0x140 DUP6 ADD MSTORE PUSH2 0xDAD PUSH2 0x160 DUP6 ADD DUP4 DUP4 AND PUSH2 0x139A JUMP JUMPDEST DUP2 DUP2 PUSH1 0x8 SHR AND PUSH2 0x180 DUP6 ADD MSTORE DUP2 DUP2 PUSH1 0x10 SHR AND PUSH2 0x1A0 DUP6 ADD MSTORE PUSH1 0x18 SHR AND ISZERO ISZERO PUSH2 0x1C0 DUP4 ADD MSTORE SUB SWAP1 RETURN JUMPDEST CALLVALUE PUSH2 0x1BC JUMPI PUSH1 0x0 CALLDATASIZE PUSH1 0x3 NOT ADD SLT PUSH2 0x1BC JUMPI PUSH1 0x4 SLOAD PUSH1 0x40 MLOAD PUSH1 0x1 PUSH1 0x1 PUSH1 0xA0 SHL SUB SWAP1 SWAP2 AND DUP2 MSTORE PUSH1 0x20 SWAP1 RETURN JUMPDEST CALLVALUE PUSH2 0x1BC JUMPI PUSH2 0xE0C CALLDATASIZE PUSH2 0x12DB JUMP JUMPDEST PUSH1 0x1 SLOAD PUSH1 0x1 PUSH1 0x1 PUSH1 0xA0 SHL SUB AND CALLER SUB PUSH2 0x1BC JUMPI DUP2 ISZERO ISZERO DUP1 PUSH2 0xE37 JUMPI JUMPDEST ISZERO PUSH2 0x1BC JUMPI PUSH2 0xE35 SWAP2 PUSH2 0x1B8F JUMP JUMPDEST STOP JUMPDEST POP PUSH1 0x2 SLOAD DUP3 GT ISZERO PUSH2 0xE27 JUMP JUMPDEST PUSH2 0xE4C CALLDATASIZE PUSH2 0x1469 JUMP JUMPDEST PUSH2 0xE54 PUSH2 0x173A JUMP JUMPDEST DUP1 ISZERO PUSH2 0x1BC JUMPI PUSH1 0x32 DUP2 GT PUSH2 0x1BC JUMPI PUSH1 0x0 PUSH2 0xE6D DUP3 PUSH2 0x19A5 JUMP JUMPDEST PUSH1 0x0 JUMPDEST DUP4 DUP2 LT PUSH2 0x1005 JUMPI POP DUP2 CALLVALUE LT PUSH2 0x1BC JUMPI PUSH1 0x0 JUMPDEST DUP4 DUP2 LT PUSH2 0xF16 JUMPI POP POP DUP1 CALLVALUE GT PUSH2 0xEF2 JUMPI JUMPDEST PUSH1 0x40 DUP1 MLOAD DUP2 DUP2 MSTORE SWAP1 DUP2 ADD DUP4 SWAP1 MSTORE SWAP1 PUSH1 0x1 PUSH1 0x1 PUSH1 0xFB SHL SUB DUP4 GT PUSH2 0x1BC JUMPI PUSH32 0xA25F24536407B63286BDAE6707ED3E860288BB5F5C648DE7DD6DAB214485A8E3 SWAP3 PUSH1 0x5 SHL DUP1 SWAP5 PUSH1 0x60 DUP5 ADD CALLDATACOPY PUSH1 0x20 DUP3 ADD MSTORE PUSH1 0x60 DUP2 CALLER SWAP5 DUP2 ADD SUB ADD SWAP1 LOG2 PUSH1 0x1 PUSH1 0x0 SSTORE STOP JUMPDEST PUSH1 0x0 DUP1 DUP1 DUP1 PUSH2 0xF01 DUP6 CALLVALUE PUSH2 0x16FD JUMP JUMPDEST CALLER GAS CALL PUSH2 0xF0C PUSH2 0x170A JUMP JUMPDEST POP PUSH2 0xE93 JUMPI PUSH1 0x0 DUP1 REVERT JUMPDEST PUSH2 0xF21 DUP2 DUP6 DUP8 PUSH2 0x19D7 JUMP JUMPDEST CALLDATALOAD SWAP1 PUSH2 0xF2D DUP2 DUP5 PUSH2 0x19E7 JUMP JUMPDEST MLOAD DUP3 PUSH1 0x0 MSTORE PUSH1 0x6 PUSH1 0x20 MSTORE PUSH1 0x40 PUSH1 0x0 KECCAK256 SWAP3 PUSH2 0xF47 DUP3 DUP3 PUSH2 0x1770 JUMP JUMPDEST PUSH1 0x8 DUP5 ADD SWAP4 PUSH2 0xF56 DUP6 SLOAD PUSH2 0x1655 JUMP JUMPDEST DUP6 SSTORE PUSH1 0x9 DUP2 ADD PUSH2 0xF67 DUP5 DUP3 SLOAD PUSH2 0x1632 JUMP JUMPDEST SWAP1 SSTORE PUSH1 0xA TIMESTAMP SWAP2 ADD SSTORE PUSH2 0xF79 DUP3 DUP3 PUSH2 0x18C4 JUMP JUMPDEST PUSH1 0x3 SLOAD PUSH1 0x1 PUSH1 0x1 PUSH1 0xA0 SHL SUB AND SWAP5 SWAP1 DUP6 EXTCODESIZE ISZERO PUSH2 0x1BC JUMPI PUSH1 0x0 PUSH1 0x40 MLOAD DUP1 SWAP8 PUSH4 0x686108D PUSH1 0xE0 SHL DUP3 MSTORE DUP2 DUP4 DUP2 PUSH2 0xFB1 DUP11 CALLER DUP12 PUSH1 0x4 DUP6 ADD PUSH2 0x16DC JUMP JUMPDEST SUB SWAP3 GAS CALL SWAP2 DUP3 ISZERO PUSH2 0xBEE JUMPI PUSH2 0xFF1 SWAP7 PUSH1 0x0 DUP1 MLOAD PUSH1 0x20 PUSH2 0x1ED6 DUP4 CODECOPY DUP2 MLOAD SWAP2 MSTORE SWAP4 PUSH2 0xFF6 JUMPI JUMPDEST POP SLOAD SWAP1 PUSH2 0xFE9 PUSH1 0x40 MLOAD SWAP3 DUP4 SWAP3 CALLER SWAP8 DUP5 PUSH2 0x15E8 JUMP JUMPDEST SUB SWAP1 LOG3 PUSH2 0x1655 JUMP JUMPDEST PUSH2 0xE82 JUMP JUMPDEST PUSH2 0xFFF SWAP1 PUSH2 0x150C JUMP JUMPDEST DUP12 PUSH2 0xFD5 JUMP JUMPDEST SWAP2 PUSH2 0x1011 DUP4 DUP6 DUP8 PUSH2 0x19D7 JUMP JUMPDEST CALLDATALOAD ISZERO ISZERO DUP1 PUSH2 0x1083 JUMPI JUMPDEST ISZERO PUSH2 0x1BC JUMPI PUSH2 0x102A DUP4 DUP6 DUP8 PUSH2 0x19D7 JUMP JUMPDEST CALLDATALOAD PUSH1 0x0 MSTORE PUSH1 0x6 PUSH1 0x20 MSTORE PUSH1 0xFF PUSH1 0xB PUSH1 0x40 PUSH1 0x0 KECCAK256 ADD SLOAD PUSH1 0x18 SHR AND ISZERO PUSH2 0x1BC JUMPI PUSH2 0x1078 PUSH2 0x107E SWAP2 PUSH2 0x105C PUSH2 0x23F DUP7 DUP9 DUP11 PUSH2 0x19D7 JUMP JUMPDEST PUSH2 0x1066 DUP7 DUP7 PUSH2 0x19E7 JUMP JUMPDEST MSTORE PUSH2 0x1071 DUP6 DUP6 PUSH2 0x19E7 JUMP JUMPDEST MLOAD SWAP1 PUSH2 0x1632 JUMP JUMPDEST SWAP3 PUSH2 0x1655 JUMP JUMPDEST PUSH2 0xE70 JUMP JUMPDEST POP PUSH2 0x108F DUP4 DUP6 DUP8 PUSH2 0x19D7 JUMP JUMPDEST CALLDATALOAD PUSH1 0x2 SLOAD LT ISZERO PUSH2 0x101A JUMP JUMPDEST CALLVALUE PUSH2 0x1BC JUMPI PUSH1 0x0 CALLDATASIZE PUSH1 0x3 NOT ADD SLT PUSH2 0x1BC JUMPI PUSH1 0x5 SLOAD PUSH1 0x40 MLOAD PUSH1 0x1 PUSH1 0x1 PUSH1 0xA0 SHL SUB SWAP1 SWAP2 AND DUP2 MSTORE PUSH1 0x20 SWAP1 RETURN JUMPDEST CALLVALUE PUSH2 0x1BC JUMPI PUSH1 0x0 CALLDATASIZE PUSH1 0x3 NOT ADD SLT PUSH2 0x1BC JUMPI PUSH1 0x1 SLOAD PUSH1 0x40 MLOAD PUSH1 0x1 PUSH1 0x1 PUSH1 0xA0 SHL SUB SWAP1 SWAP2 AND DUP2 MSTORE PUSH1 0x20 SWAP1 RETURN JUMPDEST CALLVALUE PUSH2 0x1BC JUMPI PUSH1 0x20 CALLDATASIZE PUSH1 0x3 NOT ADD SLT PUSH2 0x1BC JUMPI PUSH1 0x4 CALLDATALOAD PUSH2 0x1108 PUSH2 0x1BFC JUMP JUMPDEST POP DUP1 ISZERO ISZERO DUP1 PUSH2 0x11FD JUMPI JUMPDEST ISZERO PUSH2 0x1BC JUMPI PUSH1 0x0 MSTORE PUSH1 0x6 PUSH1 0x20 MSTORE PUSH2 0x1B8 PUSH1 0x40 PUSH1 0x0 KECCAK256 PUSH1 0xFF PUSH1 0xB PUSH1 0x40 MLOAD SWAP3 PUSH2 0x1138 DUP5 PUSH2 0x14F0 JUMP JUMPDEST DUP1 SLOAD PUSH1 0x1 PUSH1 0x1 PUSH1 0xA0 SHL SUB AND DUP5 MSTORE PUSH1 0x1 DUP2 ADD SLOAD PUSH1 0x20 DUP6 ADD MSTORE PUSH2 0x115B PUSH1 0x2 DUP3 ADD PUSH2 0x1542 JUMP JUMPDEST PUSH1 0x40 DUP6 ADD MSTORE PUSH1 0x3 DUP2 ADD SLOAD PUSH1 0x60 DUP6 ADD MSTORE PUSH1 0x4 DUP2 ADD SLOAD PUSH1 0x80 DUP6 ADD MSTORE PUSH1 0x5 DUP2 ADD SLOAD PUSH1 0xA0 DUP6 ADD MSTORE PUSH1 0x6 DUP2 ADD SLOAD PUSH1 0xC0 DUP6 ADD MSTORE PUSH1 0x7 DUP2 ADD SLOAD PUSH1 0xE0 DUP6 ADD MSTORE PUSH1 0x8 DUP2 ADD SLOAD PUSH2 0x100 DUP6 ADD MSTORE PUSH1 0x9 DUP2 ADD SLOAD PUSH2 0x120 DUP6 ADD MSTORE PUSH1 0xA DUP2 ADD SLOAD PUSH2 0x140 DUP6 ADD MSTORE ADD SLOAD PUSH2 0x11C5 DUP3 DUP3 AND PUSH2 0x160 DUP6 ADD PUSH2 0x167F JUMP JUMPDEST DUP2 DUP2 PUSH1 0x8 SHR AND PUSH2 0x180 DUP5 ADD MSTORE DUP2 DUP2 PUSH1 0x10 SHR AND PUSH2 0x1A0 DUP5 ADD MSTORE PUSH1 0x18 SHR AND ISZERO ISZERO PUSH2 0x1C0 DUP3 ADD MSTORE PUSH1 0x40 MLOAD SWAP2 DUP3 SWAP2 PUSH1 0x20 DUP4 MSTORE PUSH1 0x20 DUP4 ADD SWAP1 PUSH2 0x13A7 JUMP JUMPDEST POP PUSH1 0x2 SLOAD DUP2 GT ISZERO PUSH2 0x1112 JUMP JUMPDEST PUSH2 0x133E JUMP JUMPDEST CALLVALUE PUSH2 0x1BC JUMPI PUSH1 0x0 CALLDATASIZE PUSH1 0x3 NOT ADD SLT PUSH2 0x1BC JUMPI PUSH1 0x20 PUSH1 0x40 MLOAD PUSH2 0x12C DUP2 MSTORE RETURN JUMPDEST CALLVALUE PUSH2 0x1BC JUMPI PUSH1 0x20 CALLDATASIZE PUSH1 0x3 NOT ADD SLT PUSH2 0x1BC JUMPI PUSH1 0x1 SLOAD PUSH1 0x1 PUSH1 0x1 PUSH1 0xA0 SHL SUB AND CALLER SUB PUSH2 0x1BC JUMPI PUSH2 0x3E8 PUSH1 0x4 CALLDATALOAD GT PUSH2 0x1BC JUMPI STOP JUMPDEST CALLVALUE PUSH2 0x1BC JUMPI PUSH2 0x1269 CALLDATASIZE PUSH2 0x12FA JUMP JUMPDEST SWAP1 PUSH1 0x0 MSTORE PUSH1 0x7 PUSH1 0x20 MSTORE PUSH1 0x40 PUSH1 0x0 KECCAK256 DUP1 SLOAD DUP3 LT ISZERO PUSH2 0x1BC JUMPI PUSH1 0x20 SWAP2 PUSH2 0xA76 SWAP2 PUSH2 0x1310 JUMP JUMPDEST CALLVALUE PUSH2 0x1BC JUMPI PUSH2 0x129A CALLDATASIZE PUSH2 0x12DB JUMP JUMPDEST DUP2 ISZERO ISZERO DUP1 PUSH2 0x12CF JUMPI JUMPDEST ISZERO PUSH2 0x1BC JUMPI PUSH1 0x0 DUP3 DUP2 MSTORE PUSH1 0x6 PUSH1 0x20 MSTORE PUSH1 0x40 SWAP1 KECCAK256 SLOAD PUSH1 0x1 PUSH1 0x1 PUSH1 0xA0 SHL SUB AND CALLER SUB PUSH2 0x1BC JUMPI PUSH2 0xE35 SWAP2 PUSH2 0x1B8F JUMP JUMPDEST POP PUSH1 0x2 SLOAD DUP3 GT ISZERO PUSH2 0x12A3 JUMP JUMPDEST PUSH1 0x40 SWAP1 PUSH1 0x3 NOT ADD SLT PUSH2 0x1BC JUMPI PUSH1 0x4 CALLDATALOAD SWAP1 PUSH1 0x24 CALLDATALOAD DUP1 ISZERO ISZERO DUP2 SUB PUSH2 0x1BC JUMPI SWAP1 JUMP JUMPDEST PUSH1 0x40 SWAP1 PUSH1 0x3 NOT ADD SLT PUSH2 0x1BC JUMPI PUSH1 0x4 CALLDATALOAD SWAP1 PUSH1 0x24 CALLDATALOAD SWAP1 JUMP JUMPDEST DUP1 SLOAD DUP3 LT ISZERO PUSH2 0x1328 JUMPI PUSH1 0x0 MSTORE PUSH1 0x20 PUSH1 0x0 KECCAK256 ADD SWAP1 PUSH1 0x0 SWAP1 JUMP JUMPDEST PUSH4 0x4E487B71 PUSH1 0xE0 SHL PUSH1 0x0 MSTORE PUSH1 0x32 PUSH1 0x4 MSTORE PUSH1 0x24 PUSH1 0x0 REVERT JUMPDEST CALLVALUE PUSH2 0x1BC JUMPI PUSH1 0x0 CALLDATASIZE PUSH1 0x3 NOT ADD SLT PUSH2 0x1BC JUMPI PUSH1 0x20 PUSH1 0x40 MLOAD PUSH1 0x64 DUP2 MSTORE RETURN JUMPDEST SWAP2 SWAP1 DUP3 MLOAD SWAP3 DUP4 DUP3 MSTORE PUSH1 0x0 JUMPDEST DUP5 DUP2 LT PUSH2 0x1386 JUMPI POP POP DUP3 PUSH1 0x0 PUSH1 0x20 DUP1 SWAP5 SWAP6 DUP5 ADD ADD MSTORE PUSH1 0x1F DUP1 NOT SWAP2 ADD AND ADD ADD SWAP1 JUMP JUMPDEST PUSH1 0x20 DUP2 DUP4 ADD DUP2 ADD MLOAD DUP5 DUP4 ADD DUP3 ADD MSTORE ADD PUSH2 0x1365 JUMP JUMPDEST SWAP1 PUSH1 0x2 DUP3 LT ISZERO PUSH2 0x864 JUMPI MSTORE JUMP JUMPDEST SWAP1 PUSH1 0x1 DUP1 PUSH1 0xA0 SHL SUB DUP3 MLOAD AND DUP2 MSTORE PUSH1 0x20 DUP3 ADD MLOAD PUSH1 0x20 DUP3 ADD MSTORE PUSH2 0x13D7 PUSH1 0x40 DUP4 ADD MLOAD PUSH2 0x1E0 DUP1 PUSH1 0x40 DUP6 ADD MSTORE DUP4 ADD SWAP1 PUSH2 0x135A JUMP JUMPDEST SWAP2 PUSH1 0x60 DUP2 ADD MLOAD PUSH1 0x60 DUP4 ADD MSTORE PUSH1 0x80 DUP2 ADD MLOAD PUSH1 0x80 DUP4 ADD MSTORE PUSH1 0xA0 DUP2 ADD MLOAD PUSH1 0xA0 DUP4 ADD MSTORE PUSH1 0xC0 DUP2 ADD MLOAD PUSH1 0xC0 DUP4 ADD MSTORE PUSH1 0xE0 DUP2 ADD MLOAD PUSH1 0xE0 DUP4 ADD MSTORE PUSH2 0x100 DUP1 DUP3 ADD MLOAD SWAP1 DUP4 ADD MSTORE PUSH2 0x120 DUP1 DUP3 ADD MLOAD SWAP1 DUP4 ADD MSTORE PUSH2 0x140 DUP1 DUP3 ADD MLOAD SWAP1 DUP4 ADD MSTORE PUSH2 0x143E PUSH2 0x160 DUP1 DUP4 ADD MLOAD SWAP1 DUP5 ADD SWAP1 PUSH2 0x139A JUMP JUMPDEST PUSH2 0x180 PUSH1 0xFF DUP2 DUP4 ADD MLOAD AND SWAP1 DUP4 ADD MSTORE PUSH2 0x1A0 PUSH1 0xFF DUP2 DUP4 ADD MLOAD AND SWAP1 DUP4 ADD MSTORE PUSH2 0x1C0 DUP1 SWAP2 ADD MLOAD ISZERO ISZERO SWAP2 ADD MSTORE SWAP1 JUMP JUMPDEST SWAP1 PUSH1 0x20 PUSH1 0x3 NOT DUP4 ADD SLT PUSH2 0x1BC JUMPI PUSH1 0x1 PUSH1 0x1 PUSH1 0x40 SHL SUB SWAP2 PUSH1 0x4 CALLDATALOAD SWAP1 DUP4 DUP3 GT PUSH2 0x1BC JUMPI DUP1 PUSH1 0x23 DUP4 ADD SLT ISZERO PUSH2 0x1BC JUMPI DUP2 PUSH1 0x4 ADD CALLDATALOAD SWAP4 DUP5 GT PUSH2 0x1BC JUMPI PUSH1 0x24 DUP5 PUSH1 0x5 SHL DUP4 ADD ADD GT PUSH2 0x1BC JUMPI PUSH1 0x24 ADD SWAP2 SWAP1 JUMP JUMPDEST SWAP1 PUSH1 0x1 DUP3 DUP2 SHR SWAP3 AND DUP1 ISZERO PUSH2 0x14E6 JUMPI JUMPDEST PUSH1 0x20 DUP4 LT EQ PUSH2 0x14D0 JUMPI JUMP JUMPDEST PUSH4 0x4E487B71 PUSH1 0xE0 SHL PUSH1 0x0 MSTORE PUSH1 0x22 PUSH1 0x4 MSTORE PUSH1 0x24 PUSH1 0x0 REVERT JUMPDEST SWAP2 PUSH1 0x7F AND SWAP2 PUSH2 0x14C5 JUMP JUMPDEST PUSH2 0x1E0 DUP2 ADD SWAP1 DUP2 LT PUSH1 0x1 PUSH1 0x1 PUSH1 0x40 SHL SUB DUP3 GT OR PUSH2 0x93D JUMPI PUSH1 0x40 MSTORE JUMP JUMPDEST PUSH1 0x1 PUSH1 0x1 PUSH1 0x40 SHL SUB DUP2 GT PUSH2 0x93D JUMPI PUSH1 0x40 MSTORE JUMP JUMPDEST PUSH1 0x1F SWAP1 SWAP2 ADD PUSH1 0x1F NOT AND DUP2 ADD SWAP1 PUSH1 0x1 PUSH1 0x1 PUSH1 0x40 SHL SUB DUP3 GT SWAP1 DUP3 LT OR PUSH2 0x93D JUMPI PUSH1 0x40 MSTORE JUMP JUMPDEST SWAP1 PUSH1 0x40 MLOAD SWAP2 DUP3 PUSH1 0x0 DUP3 SLOAD SWAP3 PUSH2 0x1556 DUP5 PUSH2 0x14B6 JUMP JUMPDEST SWAP1 DUP2 DUP5 MSTORE PUSH1 0x1 SWAP5 DUP6 DUP2 AND SWAP1 DUP2 PUSH1 0x0 EQ PUSH2 0x15C5 JUMPI POP PUSH1 0x1 EQ PUSH2 0x1582 JUMPI JUMPDEST POP POP PUSH2 0x1580 SWAP3 POP SUB DUP4 PUSH2 0x151F JUMP JUMPDEST JUMP JUMPDEST SWAP1 SWAP4 SWAP2 POP PUSH1 0x0 MSTORE PUSH1 0x20 SWAP1 DUP2 PUSH1 0x0 KECCAK256 SWAP4 PUSH1 0x0 SWAP2 JUMPDEST DUP2 DUP4 LT PUSH2 0x15AD JUMPI POP POP PUSH2 0x1580 SWAP4 POP DUP3 ADD ADD CODESIZE DUP1 PUSH2 0x1572 JUMP JUMPDEST DUP6 SLOAD DUP9 DUP5 ADD DUP6 ADD MSTORE SWAP5 DUP6 ADD SWAP5 DUP8 SWAP5 POP SWAP2 DUP4 ADD SWAP2 PUSH2 0x1595 JUMP JUMPDEST SWAP2 POP POP PUSH2 0x1580 SWAP5 POP PUSH1 0x20 SWAP3 POP PUSH1 0xFF NOT AND DUP3 DUP5 ADD MSTORE ISZERO ISZERO PUSH1 0x5 SHL DUP3 ADD ADD CODESIZE DUP1 PUSH2 0x1572 JUMP JUMPDEST PUSH1 0x40 SWAP2 SWAP5 SWAP4 SWAP3 PUSH1 0x60 DUP3 ADD SWAP6 DUP3 MSTORE PUSH1 0x20 DUP3 ADD MSTORE ADD MSTORE JUMP JUMPDEST SWAP1 DUP2 MLOAD DUP1 DUP3 MSTORE PUSH1 0x20 DUP1 DUP1 SWAP4 ADD SWAP4 ADD SWAP2 PUSH1 0x0 JUMPDEST DUP3 DUP2 LT PUSH2 0x161E JUMPI POP POP POP POP SWAP1 JUMP JUMPDEST DUP4 MLOAD DUP6 MSTORE SWAP4 DUP2 ADD SWAP4 SWAP3 DUP2 ADD SWAP3 PUSH1 0x1 ADD PUSH2 0x1610 JUMP JUMPDEST SWAP2 SWAP1 DUP3 ADD DUP1 SWAP3 GT PUSH2 0x163F JUMPI JUMP JUMPDEST PUSH4 0x4E487B71 PUSH1 0xE0 SHL PUSH1 0x0 MSTORE PUSH1 0x11 PUSH1 0x4 MSTORE PUSH1 0x24 PUSH1 0x0 REVERT JUMPDEST PUSH1 0x0 NOT DUP2 EQ PUSH2 0x163F JUMPI PUSH1 0x1 ADD SWAP1 JUMP JUMPDEST PUSH1 0x1 PUSH1 0x1 PUSH1 0x40 SHL SUB DUP2 GT PUSH2 0x93D JUMPI PUSH1 0x1F ADD PUSH1 0x1F NOT AND PUSH1 0x20 ADD SWAP1 JUMP JUMPDEST PUSH1 0x2 DUP3 LT ISZERO PUSH2 0x864 JUMPI MSTORE JUMP JUMPDEST SWAP1 PUSH4 0xFF000000 DUP3 SLOAD SWAP2 ISZERO ISZERO PUSH1 0x18 SHL AND SWAP1 PUSH4 0xFF000000 NOT AND OR SWAP1 SSTORE JUMP JUMPDEST DUP1 SLOAD PUSH1 0x1 PUSH1 0x40 SHL DUP2 LT ISZERO PUSH2 0x93D JUMPI PUSH2 0x16C4 SWAP2 PUSH1 0x1 DUP3 ADD DUP2 SSTORE PUSH2 0x1310 JUMP JUMPDEST DUP2 SWAP3 SWAP2 SLOAD SWAP1 PUSH1 0x3 SHL SWAP2 DUP3 SHL SWAP2 PUSH1 0x0 NOT SWAP1 SHL NOT AND OR SWAP1 SSTORE JUMP JUMPDEST SWAP1 DUP2 MSTORE PUSH1 0x1 PUSH1 0x1 PUSH1 0xA0 SHL SUB SWAP1 SWAP2 AND PUSH1 0x20 DUP3 ADD MSTORE PUSH1 0x40 DUP2 ADD SWAP2 SWAP1 SWAP2 MSTORE PUSH1 0x60 ADD SWAP1 JUMP JUMPDEST SWAP2 SWAP1 DUP3 SUB SWAP2 DUP3 GT PUSH2 0x163F JUMPI JUMP JUMPDEST RETURNDATASIZE ISZERO PUSH2 0x1735 JUMPI RETURNDATASIZE SWAP1 PUSH2 0x171B DUP3 PUSH2 0x1664 JUMP JUMPDEST SWAP2 PUSH2 0x1729 PUSH1 0x40 MLOAD SWAP4 DUP5 PUSH2 0x151F JUMP JUMPDEST DUP3 MSTORE RETURNDATASIZE PUSH1 0x0 PUSH1 0x20 DUP5 ADD RETURNDATACOPY JUMP JUMPDEST PUSH1 0x60 SWAP1 JUMP JUMPDEST PUSH1 0x2 PUSH1 0x0 SLOAD EQ PUSH2 0x174B JUMPI PUSH1 0x2 PUSH1 0x0 SSTORE JUMP JUMPDEST PUSH1 0x40 MLOAD PUSH4 0x3EE5AEB5 PUSH1 0xE0 SHL DUP2 MSTORE PUSH1 0x4 SWAP1 REVERT JUMPDEST DUP2 DUP2 MUL SWAP3 SWAP2 DUP2 ISZERO SWAP2 DUP5 DIV EQ OR ISZERO PUSH2 0x163F JUMPI JUMP JUMPDEST PUSH1 0xFF SWAP1 PUSH1 0x0 SWAP3 DUP2 DUP5 MSTORE PUSH1 0x6 PUSH1 0x20 MSTORE DUP4 PUSH1 0x40 DUP2 KECCAK256 PUSH2 0x17C0 PUSH1 0xB DUP3 ADD SLOAD SWAP4 PUSH2 0x17BB PUSH1 0x64 PUSH2 0x17B2 DUP2 PUSH2 0x17A4 DUP12 DUP11 PUSH1 0x8 SHR AND DUP7 PUSH2 0x175D JUMP JUMPDEST DIV SWAP10 DUP11 SWAP9 PUSH1 0x10 SHR AND DUP5 PUSH2 0x175D JUMP JUMPDEST DIV SWAP8 DUP9 SWAP3 PUSH2 0x16FD JUMP JUMPDEST PUSH2 0x16FD JUMP JUMPDEST DUP1 PUSH2 0x189A JUMPI JUMPDEST POP POP POP DUP1 PUSH2 0x183D JUMPI JUMPDEST POP DUP2 PUSH2 0x17DA JUMPI POP POP POP JUMP JUMPDEST PUSH1 0x4 SLOAD PUSH1 0x1 PUSH1 0x1 PUSH1 0xA0 SHL SUB AND SWAP1 DUP2 EXTCODESIZE ISZERO PUSH2 0x1839 JUMPI SWAP1 PUSH1 0x24 DUP5 SWAP3 PUSH1 0x40 MLOAD SWAP5 DUP6 SWAP4 DUP5 SWAP3 PUSH4 0x7C8EFCE3 PUSH1 0xE0 SHL DUP5 MSTORE PUSH1 0x4 DUP5 ADD MSTORE GAS CALL DUP1 ISZERO PUSH2 0x182E JUMPI PUSH2 0x181A JUMPI POP POP JUMP JUMPDEST PUSH2 0x1824 DUP3 SWAP2 PUSH2 0x150C JUMP JUMPDEST PUSH2 0x182B JUMPI POP JUMP JUMPDEST DUP1 REVERT JUMPDEST PUSH1 0x40 MLOAD RETURNDATASIZE DUP5 DUP3 RETURNDATACOPY RETURNDATASIZE SWAP1 REVERT JUMPDEST DUP4 DUP1 REVERT JUMPDEST PUSH1 0x5 SLOAD PUSH1 0x1 PUSH1 0x1 PUSH1 0xA0 SHL SUB AND DUP1 EXTCODESIZE ISZERO PUSH2 0x1896 JUMPI DUP5 SWAP1 PUSH1 0x24 PUSH1 0x40 MLOAD DUP1 SWAP5 DUP2 SWAP4 PUSH4 0x46955BC7 PUSH1 0xE1 SHL DUP4 MSTORE DUP8 PUSH1 0x4 DUP5 ADD MSTORE GAS CALL DUP1 ISZERO PUSH2 0x188B JUMPI ISZERO PUSH2 0x17CF JUMPI PUSH2 0x1884 SWAP1 SWAP4 SWAP2 SWAP4 PUSH2 0x150C JUMP JUMPDEST SWAP2 CODESIZE PUSH2 0x17CF JUMP JUMPDEST PUSH1 0x40 MLOAD RETURNDATASIZE DUP7 DUP3 RETURNDATACOPY RETURNDATASIZE SWAP1 REVERT JUMPDEST DUP5 DUP1 REVERT JUMPDEST SWAP1 SLOAD DUP3 SWAP2 DUP3 SWAP2 DUP3 SWAP2 SWAP1 PUSH1 0x1 PUSH1 0x1 PUSH1 0xA0 SHL SUB AND GAS CALL PUSH2 0x18B6 PUSH2 0x170A JUMP JUMPDEST POP ISZERO PUSH2 0x1839 JUMPI DUP4 CODESIZE DUP1 PUSH2 0x17C6 JUMP JUMPDEST PUSH1 0x0 DUP2 DUP2 MSTORE PUSH1 0x6 PUSH1 0x20 MSTORE PUSH1 0x40 DUP1 DUP3 KECCAK256 PUSH1 0xFF PUSH1 0xB DUP3 ADD SLOAD AND PUSH1 0x2 DUP2 LT ISZERO PUSH2 0x197A JUMPI ISZERO PUSH2 0x1973 JUMPI SWAP4 PUSH2 0x196D PUSH32 0xC6D3DA45896CE1BCA9D198309A2DBEEA3C73A991748F8D88D796FFA06029DE93 SWAP4 SWAP3 PUSH1 0x8 PUSH2 0x1960 SWAP8 PUSH2 0x191F DUP9 PUSH2 0x1CBB JUMP JUMPDEST SWAP9 DUP10 SWAP7 DUP8 PUSH1 0x4 DUP5 ADD SSTORE DUP10 DUP2 MSTORE PUSH1 0x9 PUSH1 0x20 MSTORE DUP8 DUP6 DUP3 KECCAK256 SSTORE PUSH1 0xA PUSH1 0x20 MSTORE TIMESTAMP DUP6 DUP3 KECCAK256 SSTORE PUSH1 0x7 PUSH1 0x20 MSTORE PUSH2 0x1950 DUP9 DUP7 DUP4 KECCAK256 PUSH2 0x16A7 JUMP JUMPDEST DUP10 DUP2 MSTORE DUP4 PUSH1 0x20 MSTORE DUP5 TIMESTAMP SWAP2 KECCAK256 PUSH2 0x16A7 JUMP JUMPDEST ADD SLOAD SWAP1 MLOAD SWAP4 DUP5 SWAP4 DUP5 PUSH2 0x15E8 JUMP JUMPDEST SUB SWAP1 LOG2 SWAP1 JUMP JUMPDEST POP POP POP POP SWAP1 JUMP JUMPDEST PUSH4 0x4E487B71 PUSH1 0xE0 SHL DUP5 MSTORE PUSH1 0x21 PUSH1 0x4 MSTORE PUSH1 0x24 DUP5 REVERT JUMPDEST PUSH1 0x1 PUSH1 0x1 PUSH1 0x40 SHL SUB DUP2 GT PUSH2 0x93D JUMPI PUSH1 0x5 SHL PUSH1 0x20 ADD SWAP1 JUMP JUMPDEST SWAP1 PUSH2 0x19AF DUP3 PUSH2 0x198E JUMP JUMPDEST PUSH2 0x19BC PUSH1 0x40 MLOAD SWAP2 DUP3 PUSH2 0x151F JUMP JUMPDEST DUP3 DUP2 MSTORE DUP1 SWAP3 PUSH2 0x19CD PUSH1 0x1F NOT SWAP2 PUSH2 0x198E JUMP JUMPDEST ADD SWAP1 PUSH1 0x20 CALLDATASIZE SWAP2 ADD CALLDATACOPY JUMP JUMPDEST SWAP2 SWAP1 DUP2 LT ISZERO PUSH2 0x1328 JUMPI PUSH1 0x5 SHL ADD SWAP1 JUMP JUMPDEST DUP1 MLOAD DUP3 LT ISZERO PUSH2 0x1328 JUMPI PUSH1 0x20 SWAP2 PUSH1 0x5 SHL ADD ADD SWAP1 JUMP JUMPDEST DUP1 ISZERO ISZERO DUP1 PUSH2 0x1A15 JUMPI JUMPDEST ISZERO PUSH2 0x1BC JUMPI PUSH2 0x1A12 SWAP1 PUSH2 0x1A21 JUMP JUMPDEST SWAP1 JUMP JUMPDEST POP PUSH1 0x2 SLOAD DUP2 GT ISZERO PUSH2 0x1A04 JUMP JUMPDEST PUSH1 0x0 SWAP1 DUP1 DUP3 MSTORE PUSH1 0x6 PUSH1 0x20 MSTORE PUSH1 0x40 SWAP2 DUP3 DUP2 KECCAK256 SWAP3 DUP1 MLOAD SWAP1 PUSH2 0x1A3F DUP3 PUSH2 0x14F0 JUMP JUMPDEST DUP5 SLOAD PUSH1 0x1 PUSH1 0x1 PUSH1 0xA0 SHL SUB AND DUP3 MSTORE PUSH1 0x1 DUP6 ADD SLOAD PUSH1 0x20 DUP4 ADD MSTORE PUSH2 0x1A62 PUSH1 0x2 DUP7 ADD PUSH2 0x1542 JUMP JUMPDEST DUP2 DUP4 ADD MSTORE PUSH1 0x3 DUP6 ADD SLOAD PUSH1 0x60 DUP4 ADD MSTORE PUSH1 0xB PUSH1 0x4 DUP7 ADD SLOAD SWAP6 PUSH1 0x80 DUP5 ADD SWAP7 DUP8 MSTORE PUSH1 0x5 DUP2 ADD SLOAD PUSH1 0xA0 DUP6 ADD MSTORE PUSH1 0x6 DUP2 ADD SLOAD PUSH1 0xC0 DUP6 ADD MSTORE PUSH1 0x7 DUP2 ADD SLOAD PUSH1 0xE0 DUP6 ADD MSTORE PUSH1 0x8 DUP2 ADD SLOAD PUSH2 0x100 DUP6 ADD MSTORE PUSH1 0x9 DUP2 ADD SLOAD PUSH2 0x120 DUP6 ADD MSTORE PUSH1 0xA DUP2 ADD SLOAD PUSH2 0x140 DUP6 ADD MSTORE ADD SLOAD SWAP2 PUSH2 0x1C0 PUSH1 0xFF PUSH2 0x160 DUP4 ADD SWAP5 PUSH2 0x1AD8 DUP3 DUP3 AND DUP8 PUSH2 0x167F JUMP JUMPDEST DUP2 DUP2 PUSH1 0x8 SHR AND PUSH2 0x180 DUP6 ADD MSTORE DUP2 DUP2 PUSH1 0x10 SHR AND PUSH2 0x1A0 DUP6 ADD MSTORE PUSH1 0x18 SHR AND ISZERO ISZERO SWAP2 ADD MSTORE DUP2 MLOAD PUSH1 0x2 DUP2 LT ISZERO PUSH2 0x197A JUMPI PUSH1 0x1 EQ DUP1 PUSH2 0x1B7B JUMPI JUMPDEST DUP1 PUSH2 0x1B5C JUMPI JUMPDEST PUSH2 0x1B4C JUMPI POP MLOAD SWAP1 PUSH1 0x2 DUP3 LT ISZERO PUSH2 0x1B38 JUMPI POP ISZERO PUSH2 0x1B33 JUMPI PUSH2 0x1A12 SWAP2 POP PUSH2 0x1CBB JUMP JUMPDEST POP MLOAD SWAP1 JUMP JUMPDEST PUSH4 0x4E487B71 PUSH1 0xE0 SHL DUP2 MSTORE PUSH1 0x21 PUSH1 0x4 MSTORE PUSH1 0x24 SWAP1 REVERT JUMPDEST SWAP4 POP POP SWAP1 DUP2 MSTORE PUSH1 0x9 PUSH1 0x20 MSTORE KECCAK256 SLOAD SWAP1 JUMP JUMPDEST POP DUP4 DUP4 MSTORE PUSH1 0xA PUSH1 0x20 MSTORE PUSH2 0x12C PUSH2 0x1B75 DUP3 DUP6 KECCAK256 SLOAD TIMESTAMP PUSH2 0x16FD JUMP JUMPDEST LT PUSH2 0x1B13 JUMP JUMPDEST POP DUP4 DUP4 MSTORE PUSH1 0xA PUSH1 0x20 MSTORE DUP1 DUP4 KECCAK256 SLOAD ISZERO ISZERO PUSH2 0x1B0D JUMP JUMPDEST SWAP1 PUSH1 0x20 PUSH32 0x70D73D81E52A2DCA11D75C71D0F5006DFEE7A734C401A87C32F0939F26461AEE SWAP2 PUSH1 0x0 DUP5 DUP2 MSTORE PUSH1 0x6 DUP4 MSTORE PUSH2 0x1BCD DUP3 PUSH1 0xB PUSH1 0x40 DUP5 KECCAK256 ADD PUSH2 0x168B JUMP JUMPDEST PUSH1 0x9 DUP4 MSTORE PUSH1 0x40 DUP2 KECCAK256 DUP1 SLOAD PUSH2 0x1BE9 JUMPI JUMPDEST POP POP PUSH1 0x40 MLOAD SWAP1 ISZERO ISZERO DUP2 MSTORE LOG2 JUMP JUMPDEST DUP2 SWAP1 SSTORE PUSH1 0xA DUP4 MSTORE PUSH1 0x40 DUP2 KECCAK256 SSTORE CODESIZE DUP1 PUSH2 0x1BDC JUMP JUMPDEST PUSH1 0x40 MLOAD SWAP1 PUSH2 0x1C09 DUP3 PUSH2 0x14F0 JUMP JUMPDEST DUP2 PUSH2 0x1C0 PUSH1 0x0 SWAP2 DUP3 DUP2 MSTORE DUP3 PUSH1 0x20 DUP3 ADD MSTORE PUSH1 0x60 PUSH1 0x40 DUP3 ADD MSTORE DUP3 PUSH1 0x60 DUP3 ADD MSTORE DUP3 PUSH1 0x80 DUP3 ADD MSTORE DUP3 PUSH1 0xA0 DUP3 ADD MSTORE DUP3 PUSH1 0xC0 DUP3 ADD MSTORE DUP3 PUSH1 0xE0 DUP3 ADD MSTORE DUP3 PUSH2 0x100 DUP3 ADD MSTORE DUP3 PUSH2 0x120 DUP3 ADD MSTORE DUP3 PUSH2 0x140 DUP3 ADD MSTORE DUP3 PUSH2 0x160 DUP3 ADD MSTORE DUP3 PUSH2 0x180 DUP3 ADD MSTORE DUP3 PUSH2 0x1A0 DUP3 ADD MSTORE ADD MSTORE JUMP JUMPDEST SWAP1 PUSH1 0x40 MLOAD SWAP2 DUP3 DUP2 SLOAD SWAP2 DUP3 DUP3 MSTORE PUSH1 0x20 SWAP3 DUP4 DUP4 ADD SWAP2 PUSH1 0x0 MSTORE DUP4 PUSH1 0x0 KECCAK256 SWAP4 PUSH1 0x0 SWAP1 JUMPDEST DUP3 DUP3 LT PUSH2 0x1CA1 JUMPI POP POP POP PUSH2 0x1580 SWAP3 POP SUB DUP4 PUSH2 0x151F JUMP JUMPDEST DUP6 SLOAD DUP5 MSTORE PUSH1 0x1 SWAP6 DUP7 ADD SWAP6 DUP9 SWAP6 POP SWAP4 DUP2 ADD SWAP4 SWAP1 SWAP2 ADD SWAP1 PUSH2 0x1C8B JUMP JUMPDEST PUSH1 0x0 MSTORE PUSH1 0x6 PUSH1 0x20 MSTORE PUSH1 0x40 PUSH1 0x0 KECCAK256 PUSH1 0x40 MLOAD PUSH2 0x1CD4 DUP2 PUSH2 0x14F0 JUMP JUMPDEST DUP2 SLOAD PUSH1 0x1 PUSH1 0x1 PUSH1 0xA0 SHL SUB AND DUP2 MSTORE PUSH1 0x1 DUP3 ADD SLOAD PUSH1 0x20 DUP3 ADD MSTORE PUSH2 0x1CF7 PUSH1 0x2 DUP4 ADD PUSH2 0x1542 JUMP JUMPDEST PUSH1 0x40 DUP3 ADD MSTORE PUSH1 0x3 DUP3 ADD SLOAD PUSH1 0x60 DUP3 ADD MSTORE PUSH1 0xB PUSH1 0x4 DUP4 ADD SLOAD SWAP3 PUSH1 0x80 DUP4 ADD SWAP4 DUP5 MSTORE PUSH1 0x5 DUP2 ADD SLOAD PUSH1 0xA0 DUP5 ADD MSTORE PUSH1 0x6 DUP2 ADD SLOAD PUSH1 0xC0 DUP5 ADD MSTORE PUSH1 0x7 DUP2 ADD SLOAD PUSH1 0xE0 DUP5 ADD MSTORE PUSH1 0x8 DUP2 ADD SLOAD PUSH2 0x100 DUP5 ADD MSTORE PUSH1 0x9 DUP2 ADD SLOAD PUSH2 0x120 DUP5 ADD MSTORE PUSH1 0xA DUP2 ADD SLOAD PUSH2 0x140 DUP5 ADD MSTORE ADD SLOAD PUSH1 0xFF PUSH2 0x160 DUP4 ADD SWAP2 PUSH2 0x1D6A DUP3 DUP3 AND DUP5 PUSH2 0x167F JUMP JUMPDEST DUP2 DUP2 PUSH1 0x8 SHR AND PUSH2 0x180 DUP6 ADD MSTORE DUP2 DUP2 PUSH1 0x10 SHR AND PUSH2 0x1A0 DUP6 ADD MSTORE PUSH1 0x18 SHR AND ISZERO ISZERO PUSH2 0x1C0 DUP4 ADD MSTORE MLOAD PUSH1 0x2 DUP2 LT ISZERO PUSH2 0x864 JUMPI ISZERO PUSH2 0x1B33 JUMPI PUSH2 0x1A12 SWAP2 POP PUSH1 0x60 DUP2 ADD DUP1 MLOAD SWAP1 PUSH1 0xC0 PUSH2 0x1DCA PUSH2 0x100 DUP6 ADD SWAP4 PUSH2 0x1DC4 DUP6 MLOAD PUSH1 0xA0 DUP9 ADD MLOAD SWAP1 PUSH2 0x175D JUMP JUMPDEST SWAP1 PUSH2 0x1632 JUMP JUMPDEST SWAP4 ADD MLOAD SWAP1 PUSH1 0x64 DUP3 GT DUP1 ISZERO SWAP1 PUSH2 0x1E24 JUMPI JUMPDEST PUSH2 0x1E1E JUMPI PUSH2 0x1DEF PUSH2 0x1E03 SWAP3 PUSH1 0x64 SWAP5 MLOAD SWAP1 PUSH2 0x1E2D JUMP JUMPDEST SWAP1 PUSH3 0x186A0 DUP1 DUP4 GT PUSH2 0x1E16 JUMPI JUMPDEST POP MLOAD PUSH2 0x175D JUMP JUMPDEST DIV SWAP1 DUP1 DUP3 GT ISZERO PUSH2 0x1E11 JUMPI POP SWAP1 JUMP JUMPDEST SWAP1 POP SWAP1 JUMP JUMPDEST SWAP2 POP CODESIZE PUSH2 0x1DFC JUMP JUMPDEST POP POP POP SWAP1 JUMP JUMPDEST POP DUP3 MLOAD ISZERO PUSH2 0x1DDA JUMP JUMPDEST SWAP1 DUP1 ISZERO PUSH2 0x1ECE JUMPI PUSH1 0x1 DUP1 DUP3 EQ PUSH2 0x1EC9 JUMPI PUSH1 0x64 DUP1 SWAP4 DUP4 JUMPDEST PUSH2 0x1E4E JUMPI POP POP POP POP SWAP1 JUMP JUMPDEST DUP3 DUP1 DUP6 AND EQ PUSH2 0x1E99 JUMPI JUMPDEST DUP1 ISZERO PUSH2 0x1E84 JUMPI DUP1 PUSH1 0x0 NOT DIV DUP2 GT PUSH2 0x1E7F JUMPI PUSH2 0x1E74 DUP2 DUP4 SWAP3 PUSH2 0x175D JUMP JUMPDEST DIV SWAP3 DUP3 SHR SWAP3 DUP4 PUSH2 0x1E43 JUMP JUMPDEST PUSH2 0x1973 JUMP JUMPDEST PUSH1 0x24 PUSH1 0x0 PUSH4 0x4E487B71 PUSH1 0xE0 SHL DUP2 MSTORE PUSH1 0x12 PUSH1 0x4 MSTORE REVERT JUMPDEST SWAP4 DUP5 ISZERO PUSH2 0x1E84 JUMPI DUP5 PUSH1 0x0 NOT DIV DUP2 GT PUSH2 0x1EBD JUMPI PUSH2 0x1EB6 DUP6 DUP4 SWAP3 PUSH2 0x175D JUMP JUMPDEST DIV SWAP4 PUSH2 0x1E58 JUMP JUMPDEST POP POP POP POP POP PUSH3 0x186A0 SWAP1 JUMP JUMPDEST POP POP SWAP1 JUMP JUMPDEST POP POP PUSH1 0x64 SWAP1 JUMP INVALID EXTCODECOPY PUSH5 0x3B89A81273 LOG1 AND 0xF 0xC9 KECCAK256 0xED LT 0xCA 0x2A 0xBA DUP7 LOG4 SIGNEXTEND PC 0xB3 SUB SUB 0xEF SELFDESTRUCT 0xE8 DUP7 PUSH21 0x4CB758000000000000000000000000000000000000 "},"methodIdentifiers":{"MAX_FEE_PERCENTAGE()":"558e44d3","MAX_MULTIPLIER_EFFECT()":"d0272f9b","MIN_DEMAND_MULTIPLIER()":"4ff14874","PRICE_CACHE_DURATION()":"539f51db","bountyManager()":"b36b9ffd","clearPriceCache(uint256)":"d62182f7","contentCounter()":"e6a9aba3","contents(uint256)":"b5ecf912","emergencyToggleContent(uint256,bool)":"ae813729","emergencyWithdraw()":"db2e21bc","getContentInfo(uint256)":"7509c330","getContractStats()":"dfe6b5d6","getCurrentPrice(uint256)":"c55d0f56","getMultipleContentInfo(uint256[])":"f00084fb","getMultiplePrices(uint256[])":"f8b688f5","getPriceHistory(uint256)":"fd1a98a5","initialize(address,address,address)":"c0c53b8b","licenseRegistry()":"c2fda487","networkRebates()":"a7a512f8","owner()":"8da5cb5b","priceHistory(uint256,uint256)":"482f20a6","priceTimestamps(uint256,uint256)":"d0feffb0","publishContent(bytes32,string,uint8,uint256,uint256,uint256,uint256,uint256)":"dc19ea0e","purchaseLicense(uint256)":"c8a028a8","purchaseMultipleLicenses(uint256[])":"a9f5c953","updateContent(uint256,bool)":"26bfde75","updateDefaultBountyPercentage(uint256)":"4c24c2c8"}}}}}