{"contracts/NetworkRebates.sol":{"NetworkRebates":{"abi":[{"inputs":[{"internalType":"address","name":"_coreContract","type":"address"},{"internalType":"address","name":"_licenseRegistry","type":"address"}],"stateMutability":"nonpayable","type":"constructor"},{"anonymous":false,"inputs":[{"indexed":true,"internalType":"address","name":"oracle","type":"address"}],"name":"OracleAdded","type":"event"},{"anonymous":false,"inputs":[{"indexed":true,"internalType":"address","name":"oracle","type":"address"}],"name":"OracleRemoved","type":"event"},{"anonymous":false,"inputs":[{"indexed":true,"internalType":"uint256","name":"contentId","type":"uint256"},{"indexed":true,"internalType":"address","name":"distributor","type":"address"},{"indexed":false,"internalType":"uint256","name":"amount","type":"uint256"}],"name":"RebateDistributed","type":"event"},{"anonymous":false,"inputs":[{"indexed":true,"internalType":"uint256","name":"contentId","type":"uint256"},{"indexed":false,"internalType":"uint256","name":"amount","type":"uint256"},{"indexed":false,"internalType":"uint256","name":"totalPool","type":"uint256"}],"name":"RebatePoolFunded","type":"event"},{"anonymous":false,"inputs":[{"indexed":true,"internalType":"uint256","name":"contentId","type":"uint256"},{"indexed":true,"internalType":"address","name":"distributor","type":"address"},{"indexed":false,"internalType":"uint256","name":"uploadedBytes","type":"uint256"},{"indexed":false,"internalType":"uint256","name":"uniquePeers","type":"uint256"},{"indexed":false,"internalType":"uint256","name":"timestamp","type":"uint256"}],"name":"SeedingReported","type":"event"},{"inputs":[{"internalType":"address","name":"oracle","type":"address"}],"name":"addOracle","outputs":[],"stateMutability":"nonpayable","type":"function"},{"inputs":[{"internalType":"uint256","name":"contentId","type":"uint256"}],"name":"addToRebatePool","outputs":[],"stateMutability":"payable","type":"function"},{"inputs":[{"internalType":"address","name":"","type":"address"}],"name":"authorizedOracles","outputs":[{"internalType":"bool","name":"","type":"bool"}],"stateMutability":"view","type":"function"},{"inputs":[{"internalType":"uint256","name":"contentId","type":"uint256"},{"internalType":"address","name":"distributor","type":"address"}],"name":"calculateRebate","outputs":[{"internalType":"uint256","name":"","type":"uint256"}],"stateMutability":"view","type":"function"},{"inputs":[{"internalType":"uint256","name":"contentId","type":"uint256"}],"name":"claimRebate","outputs":[],"stateMutability":"nonpayable","type":"function"},{"inputs":[],"name":"coreContract","outputs":[{"internalType":"address","name":"","type":"address"}],"stateMutability":"view","type":"function"},{"inputs":[{"internalType":"uint256","name":"contentId","type":"uint256"},{"internalType":"address","name":"distributor","type":"address"}],"name":"deactivateSeeder","outputs":[],"stateMutability":"nonpayable","type":"function"},{"inputs":[{"internalType":"uint256","name":"contentId","type":"uint256"}],"name":"distributeRebates","outputs":[],"stateMutability":"nonpayable","type":"function"},{"inputs":[{"internalType":"address","name":"","type":"address"},{"internalType":"uint256","name":"","type":"uint256"}],"name":"distributorContent","outputs":[{"internalType":"uint256","name":"","type":"uint256"}],"stateMutability":"view","type":"function"},{"inputs":[{"internalType":"address","name":"","type":"address"}],"name":"distributorTotalEarnings","outputs":[{"internalType":"uint256","name":"","type":"uint256"}],"stateMutability":"view","type":"function"},{"inputs":[{"internalType":"uint256","name":"contentId","type":"uint256"},{"internalType":"uint256","name":"amount","type":"uint256"}],"name":"emergencyWithdraw","outputs":[],"stateMutability":"nonpayable","type":"function"},{"inputs":[{"internalType":"address","name":"distributor","type":"address"}],"name":"getDistributorContent","outputs":[{"internalType":"uint256[]","name":"","type":"uint256[]"}],"stateMutability":"view","type":"function"},{"inputs":[{"internalType":"address","name":"distributor","type":"address"}],"name":"getDistributorEarnings","outputs":[{"internalType":"uint256","name":"","type":"uint256"}],"stateMutability":"view","type":"function"},{"inputs":[{"internalType":"uint256","name":"contentId","type":"uint256"}],"name":"getRebatePoolInfo","outputs":[{"internalType":"uint256","name":"totalPool","type":"uint256"},{"internalType":"uint256","name":"distributedAmount","type":"uint256"},{"internalType":"uint256","name":"totalSeeders","type":"uint256"},{"internalType":"uint256","name":"totalUploadedBytes","type":"uint256"},{"internalType":"address[]","name":"seederList","type":"address[]"}],"stateMutability":"view","type":"function"},{"inputs":[{"internalType":"uint256","name":"contentId","type":"uint256"},{"internalType":"address","name":"distributor","type":"address"}],"name":"getSeedingActivity","outputs":[{"components":[{"internalType":"address","name":"distributor","type":"address"},{"internalType":"uint256","name":"contentId","type":"uint256"},{"internalType":"uint256","name":"totalUploaded","type":"uint256"},{"internalType":"uint256","name":"uniquePeersServed","type":"uint256"},{"internalType":"uint256","name":"lastReportTimestamp","type":"uint256"},{"internalType":"uint256","name":"totalEarnings","type":"uint256"},{"internalType":"bool","name":"isActive","type":"bool"}],"internalType":"struct NetworkRebates.SeedingActivity","name":"","type":"tuple"}],"stateMutability":"view","type":"function"},{"inputs":[],"name":"licenseRegistry","outputs":[{"internalType":"contract LicenseRegistry","name":"","type":"address"}],"stateMutability":"view","type":"function"},{"inputs":[],"name":"minimumUploadThreshold","outputs":[{"internalType":"uint256","name":"","type":"uint256"}],"stateMutability":"view","type":"function"},{"inputs":[{"internalType":"bytes32","name":"","type":"bytes32"}],"name":"processedReports","outputs":[{"internalType":"bool","name":"","type":"bool"}],"stateMutability":"view","type":"function"},{"inputs":[{"internalType":"uint256","name":"","type":"uint256"}],"name":"rebatePools","outputs":[{"internalType":"uint256","name":"totalPool","type":"uint256"},{"internalType":"uint256","name":"distributedAmount","type":"uint256"},{"internalType":"uint256","name":"totalSeeders","type":"uint256"},{"internalType":"uint256","name":"totalUploadedBytes","type":"uint256"}],"stateMutability":"view","type":"function"},{"inputs":[{"internalType":"address","name":"oracle","type":"address"}],"name":"removeOracle","outputs":[],"stateMutability":"nonpayable","type":"function"},{"inputs":[{"internalType":"uint256","name":"contentId","type":"uint256"},{"internalType":"address","name":"distributor","type":"address"},{"internalType":"uint256","name":"uploadedBytes","type":"uint256"},{"internalType":"uint256","name":"uniquePeersServed","type":"uint256"},{"internalType":"bytes32","name":"reportHash","type":"bytes32"}],"name":"reportSeedingActivity","outputs":[],"stateMutability":"nonpayable","type":"function"},{"inputs":[],"name":"reportingPeriod","outputs":[{"internalType":"uint256","name":"","type":"uint256"}],"stateMutability":"view","type":"function"},{"inputs":[{"internalType":"uint256","name":"newThreshold","type":"uint256"}],"name":"updateMinimumUploadThreshold","outputs":[],"stateMutability":"nonpayable","type":"function"},{"inputs":[{"internalType":"uint256","name":"newPeriod","type":"uint256"}],"name":"updateReportingPeriod","outputs":[],"stateMutability":"nonpayable","type":"function"}],"evm":{"bytecode":{"linkReferences":{},"object":"6080346100ad57601f61116f38819003918201601f19168301916001600160401b038311848410176100b25780849260409485528339810103126100ad57610052602061004b836100c8565b92016100c8565b610e106002556210000060035560018060a01b03908160018060a01b03199316836000541617600055169060015416176001553360005260076020526040600020600160ff1982541617905560405161109290816100dd8239f35b600080fd5b634e487b7160e01b600052604160045260246000fd5b51906001600160a01b03821682036100ad5756fe6040608081526004908136101561001557600080fd5b600091823560e01c9081630511f07214610d0357816312494caa14610bd7578382631f276b6e14610b5357508163238ec8b514610a5857816324b5b980146109ab5781632cae79cf1461098c5781635c55e8db146109615781635d67dc43146107e9578163616a0630146107bc57816361c992a31461077e57816366b340cc146106ab5781636b7c424b146106805781636e738e2d1461062a5781637badbe87146102b057816381675b70146103ab5781638d2ab78e14610330578163a90b538e14610311578163c2fda487146102e8578163c51fd876146102b0578163c531003714610263578163df5dd1a5146101f7578163e80db5db146101cf578163ef28a92d1461019d575063fdc85fc41461012d57600080fd5b3461019957602036600319011261019957610146610d59565b82546001600160a01b0391908216330361019557168083526007602052908220805460ff191690557f9c8e7d83025bef8a04c664b2f753f64b8814bdb7e27291d7e50935f18cc3c7128280a280f35b8380fd5b5080fd5b8284346101cc57816003193601126101cc57506101c56020926101be610d74565b9035610e9c565b9051908152f35b80fd5b505034610199578160031936011261019957905490516001600160a01b039091168152602090f35b50503461019957602036600319011261019957610212610d59565b82546001600160a01b0391908216330361019557168083526007602052908220805460ff191660011790557e47706786c922d17b39285dc59d696bafea72c0b003d3841ae1202076f4c2e48280a280f35b9050346102ac5760203660031901126102ac5760809281839235825260205220908154916001810154916003600283015492015492815194855260208501528301526060820152f35b8280fd5b5050346101995760203660031901126101995760209181906001600160a01b036102d8610d59565b1681526006845220549051908152f35b50503461019957816003193601126101995760015490516001600160a01b039091168152602090f35b5050346101995781600319360112610199576020906002549051908152f35b905060203660031901126102ac578254813592906001600160a01b03163303610195573415610195577f8c52464a753085ace2e8b69c69227990c011110dacbee4c1ac3f4c4137ea70669183855280602052818520610390348254610db8565b9055838552602052808420548151903482526020820152a280f35b9050346102ac5760a03660031901126102ac578035906103c9610d74565b926044359160643590608435953388526020916007835260ff858a2054168015610618575b15610614578789526008835260ff858a2054166106145760018060a01b03906001986104348585858d54168c8b51809581948293633a49267560e11b84528a8401610e47565b03915afa90811561060a578c916105dd575b50156105d95760035488106105d9578a5260088452858a209160ff19928a84825416179055888b5281855280878c209416998a8c528285018652878c20938b8554848116156104e8575b50505050506000805160206110728339815191529694928260039260026060999795016104be898254610db8565b9055858483015542910155016104d5858254610db8565b905582519384528301524290820152a380f35b6001600160a01b0319161785558185018b905560068501805490911682179055600585018054600160401b9391848210156105c6578161052d918f9386018155610d8a565b909283549160031b92831b921b19161790556002850161054d8154610e60565b90558a8c5260058652878c20908154928310156105b3579261058d8360609a9896936003966000805160206110728339815191529d9b9996018155610d8a565b815490861b908d821b91600019901b191617905592829597995081949698508b38610490565b634e487b7160e01b8d526041845260248dfd5b634e487b7160e01b8f526041865260248ffd5b8a80fd5b6105fd9150863d8811610603575b6105f58183610e0c565b810190610e2f565b38610446565b503d6105eb565b88513d8e823e3d90fd5b8880fd5b50336001600160a01b038316146103ee565b919050346102ac57806003193601126102ac57610645610d74565b83546001600160a01b03908116330361067c578360069435865280602052838620019116845260205282200160ff19815416905580f35b8480fd5b8390346101995760203660031901126101995781546001600160a01b03163303610199573560025580f35b9050346102ac57602090816003193601126101955780358452815281832092835460019283860154946002870154966005600382015491019782519283858b54918281520190819b895286892090895b8181106107625750505084610711910385610e0c565b80519860a08a01968a52858a0152880152606087015260a060808701525180925260c0850195925b8281106107465785870386f35b83516001600160a01b0316875295810195928101928401610739565b82546001600160a01b0316845292880192918b01918b016106fb565b5050346101995760203660031901126101995760209160ff9082906001600160a01b036107a9610d59565b1681526007855220541690519015158152f35b9050346102ac5760203660031901126102ac578160209360ff923581526008855220541690519015158152f35b919050346102ac576020918260031936011261019557803580855281845282852091825493600193848101958654101561095d57849588908994600595868501918501985b610836578b80f35b8154811015610959578b61084a8284610d8a565b60018060a01b0391549060031b1c168082528a8d528c8883209260068c60ff8287015416610888575b50505050505061088290610e60565b8961082e565b8461089291610e9c565b928c841596871580610944575b6108ae575b505092508c610873565b9a86979b936108f3938798959388979894016108cb858254610db8565b9055858852528d86206108df838254610db8565b90556108ec828c54610db8565b8b55610db8565b98839061093b575b839283928392f1156109315790896000805160206110528339815191528e61088295948b51908152a39038808e818f8c826108a4565b87513d8f823e3d90fd5b506108fc6108fb565b508c54610952878d54610db8565b111561089f565b8b80f35b8780fd5b8390346101995760203660031901126101995781546001600160a01b03163303610199573560035580f35b5050346101995781600319360112610199576020906003549051908152f35b8284346101cc57602090816003193601126101cc5782906001600160a01b036109d2610d59565b16815260058352818120908251808584549182815201908194845286842090845b818110610a445750505081610a09910382610e0c565b83519485948186019282875251809352850193925b828110610a2d57505050500390f35b835185528695509381019392810192600101610a1e565b8254845292880192600192830192016109f3565b919050346102ac57806003193601126102ac57918260e093610a78610d74565b928060c08351610a8781610ddb565b82815282602082015282858201528260608201528260808201528260a082015201528435815284602052848282200160018060a01b0380951682526020522090805192610ad384610ddb565b8254169384845260018301549160208501928352600284015481860190815260038501549260608701938452850154936080870194855260c060ff600660058901549860a08b01998a5201541697019615158752825197885251602088015251908601525160608501525160808401525160a083015251151560c0820152f35b915034610199578260031936011261019957815460243591906001600160a01b031633036102ac57803583526020528282206001815491019082610b9983548093610e8f565b106101955782849392610bae85948594610db8565b9055818115610bce575b3390f115610bc4575080f35b51903d90823e3d90fd5b506108fc610bb8565b919050346102ac57602080600319360112610195576001548251633a49267560e11b815284359391839082906001600160a01b03168180610c1b338a838d01610e47565b03915afa908115610cf9578691610cdc575b501561067c57610c3d3384610e9c565b938415610cd857838652808352818620903387528101835281862060018254920191610c6a878454610db8565b11610cd457600501610c7d868254610db8565b905533865260068352818620610c94868254610db8565b9055610ca1858254610db8565b905584808080873382f115610ccb579060008051602061105283398151915291519384523393a380f35b513d85823e3d90fd5b8680fd5b8580fd5b610cf39150833d8511610603576105f58183610e0c565b38610c2d565b82513d88823e3d90fd5b505034610199578060031936011261019957610d1d610d59565b6001600160a01b031682526005602052808220805460243593908410156101cc5750602092610d4b91610d8a565b91905490519160031b1c8152f35b600435906001600160a01b0382168203610d6f57565b600080fd5b602435906001600160a01b0382168203610d6f57565b8054821015610da25760005260206000200190600090565b634e487b7160e01b600052603260045260246000fd5b91908201809211610dc557565b634e487b7160e01b600052601160045260246000fd5b60e081019081106001600160401b03821117610df657604052565b634e487b7160e01b600052604160045260246000fd5b601f909101601f19168101906001600160401b03821190821017610df657604052565b90816020910312610d6f57518015158103610d6f5790565b9081526001600160a01b03909116602082015260400190565b6000198114610dc55760010190565b8115610e79570490565b634e487b7160e01b600052601260045260246000fd5b91908203918211610dc557565b60008181526004916020908382526040918284209560018060a01b03809116855285870182528385209360ff90600691808388015416158015611045575b61103857600287015491611b5892838102938185041490151715611025578a610f0a600394858093015490610e6f565b98015496610bb89788810298818a0414901517156110125789528986528089209489968a91600588018d81549901935b8d8a8210610fc55750610f6d9c9b610f679b909a5098505087159650610fbc955050505050505790610e6f565b90610db8565b9161271093848411610fb4575b806001610f8b925491015490610e8f565b838102938185041490151715610fa15750500490565b634e487b7160e01b825260119052602490fd5b849350610f7a565b50600190610e6f565b869084610fd28486610d8a565b9054908c1b1c16815286865220878a82015416610ff9575b50610ff490610e60565b610f3a565b610ff4919b8961100b92015490610db8565b9a90610fea565b634e487b7160e01b8a5260118b5260248afd5b634e487b7160e01b895260118a52602489fd5b5050505050505091505090565b5060038a015415610eda56fe3b127b03427f8c24b1ea11ef9f5052899e072db64611f99ac51847608c5bc83f301e5c1cd63a63f5de97846ba38770fce5404b529a0c56a407d14f9c155d0466","opcodes":"PUSH1 0x80 CALLVALUE PUSH2 0xAD JUMPI PUSH1 0x1F PUSH2 0x116F CODESIZE DUP2 SWAP1 SUB SWAP2 DUP3 ADD PUSH1 0x1F NOT AND DUP4 ADD SWAP2 PUSH1 0x1 PUSH1 0x1 PUSH1 0x40 SHL SUB DUP4 GT DUP5 DUP5 LT OR PUSH2 0xB2 JUMPI DUP1 DUP5 SWAP3 PUSH1 0x40 SWAP5 DUP6 MSTORE DUP4 CODECOPY DUP2 ADD SUB SLT PUSH2 0xAD JUMPI PUSH2 0x52 PUSH1 0x20 PUSH2 0x4B DUP4 PUSH2 0xC8 JUMP JUMPDEST SWAP3 ADD PUSH2 0xC8 JUMP JUMPDEST PUSH2 0xE10 PUSH1 0x2 SSTORE PUSH3 0x100000 PUSH1 0x3 SSTORE PUSH1 0x1 DUP1 PUSH1 0xA0 SHL SUB SWAP1 DUP2 PUSH1 0x1 DUP1 PUSH1 0xA0 SHL SUB NOT SWAP4 AND DUP4 PUSH1 0x0 SLOAD AND OR PUSH1 0x0 SSTORE AND SWAP1 PUSH1 0x1 SLOAD AND OR PUSH1 0x1 SSTORE CALLER PUSH1 0x0 MSTORE PUSH1 0x7 PUSH1 0x20 MSTORE PUSH1 0x40 PUSH1 0x0 KECCAK256 PUSH1 0x1 PUSH1 0xFF NOT DUP3 SLOAD AND OR SWAP1 SSTORE PUSH1 0x40 MLOAD PUSH2 0x1092 SWAP1 DUP2 PUSH2 0xDD DUP3 CODECOPY RETURN JUMPDEST PUSH1 0x0 DUP1 REVERT JUMPDEST PUSH4 0x4E487B71 PUSH1 0xE0 SHL PUSH1 0x0 MSTORE PUSH1 0x41 PUSH1 0x4 MSTORE PUSH1 0x24 PUSH1 0x0 REVERT JUMPDEST MLOAD SWAP1 PUSH1 0x1 PUSH1 0x1 PUSH1 0xA0 SHL SUB DUP3 AND DUP3 SUB PUSH2 0xAD JUMPI JUMP INVALID PUSH1 0x40 PUSH1 0x80 DUP2 MSTORE PUSH1 0x4 SWAP1 DUP2 CALLDATASIZE LT ISZERO PUSH2 0x15 JUMPI PUSH1 0x0 DUP1 REVERT JUMPDEST PUSH1 0x0 SWAP2 DUP3 CALLDATALOAD PUSH1 0xE0 SHR SWAP1 DUP2 PUSH4 0x511F072 EQ PUSH2 0xD03 JUMPI DUP2 PUSH4 0x12494CAA EQ PUSH2 0xBD7 JUMPI DUP4 DUP3 PUSH4 0x1F276B6E EQ PUSH2 0xB53 JUMPI POP DUP2 PUSH4 0x238EC8B5 EQ PUSH2 0xA58 JUMPI DUP2 PUSH4 0x24B5B980 EQ PUSH2 0x9AB JUMPI DUP2 PUSH4 0x2CAE79CF EQ PUSH2 0x98C JUMPI DUP2 PUSH4 0x5C55E8DB EQ PUSH2 0x961 JUMPI DUP2 PUSH4 0x5D67DC43 EQ PUSH2 0x7E9 JUMPI DUP2 PUSH4 0x616A0630 EQ PUSH2 0x7BC JUMPI DUP2 PUSH4 0x61C992A3 EQ PUSH2 0x77E JUMPI DUP2 PUSH4 0x66B340CC EQ PUSH2 0x6AB JUMPI DUP2 PUSH4 0x6B7C424B EQ PUSH2 0x680 JUMPI DUP2 PUSH4 0x6E738E2D EQ PUSH2 0x62A JUMPI DUP2 PUSH4 0x7BADBE87 EQ PUSH2 0x2B0 JUMPI DUP2 PUSH4 0x81675B70 EQ PUSH2 0x3AB JUMPI DUP2 PUSH4 0x8D2AB78E EQ PUSH2 0x330 JUMPI DUP2 PUSH4 0xA90B538E EQ PUSH2 0x311 JUMPI DUP2 PUSH4 0xC2FDA487 EQ PUSH2 0x2E8 JUMPI DUP2 PUSH4 0xC51FD876 EQ PUSH2 0x2B0 JUMPI DUP2 PUSH4 0xC5310037 EQ PUSH2 0x263 JUMPI DUP2 PUSH4 0xDF5DD1A5 EQ PUSH2 0x1F7 JUMPI DUP2 PUSH4 0xE80DB5DB EQ PUSH2 0x1CF JUMPI DUP2 PUSH4 0xEF28A92D EQ PUSH2 0x19D JUMPI POP PUSH4 0xFDC85FC4 EQ PUSH2 0x12D JUMPI PUSH1 0x0 DUP1 REVERT JUMPDEST CALLVALUE PUSH2 0x199 JUMPI PUSH1 0x20 CALLDATASIZE PUSH1 0x3 NOT ADD SLT PUSH2 0x199 JUMPI PUSH2 0x146 PUSH2 0xD59 JUMP JUMPDEST DUP3 SLOAD PUSH1 0x1 PUSH1 0x1 PUSH1 0xA0 SHL SUB SWAP2 SWAP1 DUP3 AND CALLER SUB PUSH2 0x195 JUMPI AND DUP1 DUP4 MSTORE PUSH1 0x7 PUSH1 0x20 MSTORE SWAP1 DUP3 KECCAK256 DUP1 SLOAD PUSH1 0xFF NOT AND SWAP1 SSTORE PUSH32 0x9C8E7D83025BEF8A04C664B2F753F64B8814BDB7E27291D7E50935F18CC3C712 DUP3 DUP1 LOG2 DUP1 RETURN JUMPDEST DUP4 DUP1 REVERT JUMPDEST POP DUP1 REVERT JUMPDEST DUP3 DUP5 CALLVALUE PUSH2 0x1CC JUMPI DUP2 PUSH1 0x3 NOT CALLDATASIZE ADD SLT PUSH2 0x1CC JUMPI POP PUSH2 0x1C5 PUSH1 0x20 SWAP3 PUSH2 0x1BE PUSH2 0xD74 JUMP JUMPDEST SWAP1 CALLDATALOAD PUSH2 0xE9C JUMP JUMPDEST SWAP1 MLOAD SWAP1 DUP2 MSTORE RETURN JUMPDEST DUP1 REVERT JUMPDEST POP POP CALLVALUE PUSH2 0x199 JUMPI DUP2 PUSH1 0x3 NOT CALLDATASIZE ADD SLT PUSH2 0x199 JUMPI SWAP1 SLOAD SWAP1 MLOAD PUSH1 0x1 PUSH1 0x1 PUSH1 0xA0 SHL SUB SWAP1 SWAP2 AND DUP2 MSTORE PUSH1 0x20 SWAP1 RETURN JUMPDEST POP POP CALLVALUE PUSH2 0x199 JUMPI PUSH1 0x20 CALLDATASIZE PUSH1 0x3 NOT ADD SLT PUSH2 0x199 JUMPI PUSH2 0x212 PUSH2 0xD59 JUMP JUMPDEST DUP3 SLOAD PUSH1 0x1 PUSH1 0x1 PUSH1 0xA0 SHL SUB SWAP2 SWAP1 DUP3 AND CALLER SUB PUSH2 0x195 JUMPI AND DUP1 DUP4 MSTORE PUSH1 0x7 PUSH1 0x20 MSTORE SWAP1 DUP3 KECCAK256 DUP1 SLOAD PUSH1 0xFF NOT AND PUSH1 0x1 OR SWAP1 SSTORE PUSH31 0x47706786C922D17B39285DC59D696BAFEA72C0B003D3841AE1202076F4C2E4 DUP3 DUP1 LOG2 DUP1 RETURN JUMPDEST SWAP1 POP CALLVALUE PUSH2 0x2AC JUMPI PUSH1 0x20 CALLDATASIZE PUSH1 0x3 NOT ADD SLT PUSH2 0x2AC JUMPI PUSH1 0x80 SWAP3 DUP2 DUP4 SWAP3 CALLDATALOAD DUP3 MSTORE PUSH1 0x20 MSTORE KECCAK256 SWAP1 DUP2 SLOAD SWAP2 PUSH1 0x1 DUP2 ADD SLOAD SWAP2 PUSH1 0x3 PUSH1 0x2 DUP4 ADD SLOAD SWAP3 ADD SLOAD SWAP3 DUP2 MLOAD SWAP5 DUP6 MSTORE PUSH1 0x20 DUP6 ADD MSTORE DUP4 ADD MSTORE PUSH1 0x60 DUP3 ADD MSTORE RETURN JUMPDEST DUP3 DUP1 REVERT JUMPDEST POP POP CALLVALUE PUSH2 0x199 JUMPI PUSH1 0x20 CALLDATASIZE PUSH1 0x3 NOT ADD SLT PUSH2 0x199 JUMPI PUSH1 0x20 SWAP2 DUP2 SWAP1 PUSH1 0x1 PUSH1 0x1 PUSH1 0xA0 SHL SUB PUSH2 0x2D8 PUSH2 0xD59 JUMP JUMPDEST AND DUP2 MSTORE PUSH1 0x6 DUP5 MSTORE KECCAK256 SLOAD SWAP1 MLOAD SWAP1 DUP2 MSTORE RETURN JUMPDEST POP POP CALLVALUE PUSH2 0x199 JUMPI DUP2 PUSH1 0x3 NOT CALLDATASIZE ADD SLT PUSH2 0x199 JUMPI PUSH1 0x1 SLOAD SWAP1 MLOAD PUSH1 0x1 PUSH1 0x1 PUSH1 0xA0 SHL SUB SWAP1 SWAP2 AND DUP2 MSTORE PUSH1 0x20 SWAP1 RETURN JUMPDEST POP POP CALLVALUE PUSH2 0x199 JUMPI DUP2 PUSH1 0x3 NOT CALLDATASIZE ADD SLT PUSH2 0x199 JUMPI PUSH1 0x20 SWAP1 PUSH1 0x2 SLOAD SWAP1 MLOAD SWAP1 DUP2 MSTORE RETURN JUMPDEST SWAP1 POP PUSH1 0x20 CALLDATASIZE PUSH1 0x3 NOT ADD SLT PUSH2 0x2AC JUMPI DUP3 SLOAD DUP2 CALLDATALOAD SWAP3 SWAP1 PUSH1 0x1 PUSH1 0x1 PUSH1 0xA0 SHL SUB AND CALLER SUB PUSH2 0x195 JUMPI CALLVALUE ISZERO PUSH2 0x195 JUMPI PUSH32 0x8C52464A753085ACE2E8B69C69227990C011110DACBEE4C1AC3F4C4137EA7066 SWAP2 DUP4 DUP6 MSTORE DUP1 PUSH1 0x20 MSTORE DUP2 DUP6 KECCAK256 PUSH2 0x390 CALLVALUE DUP3 SLOAD PUSH2 0xDB8 JUMP JUMPDEST SWAP1 SSTORE DUP4 DUP6 MSTORE PUSH1 0x20 MSTORE DUP1 DUP5 KECCAK256 SLOAD DUP2 MLOAD SWAP1 CALLVALUE DUP3 MSTORE PUSH1 0x20 DUP3 ADD MSTORE LOG2 DUP1 RETURN JUMPDEST SWAP1 POP CALLVALUE PUSH2 0x2AC JUMPI PUSH1 0xA0 CALLDATASIZE PUSH1 0x3 NOT ADD SLT PUSH2 0x2AC JUMPI DUP1 CALLDATALOAD SWAP1 PUSH2 0x3C9 PUSH2 0xD74 JUMP JUMPDEST SWAP3 PUSH1 0x44 CALLDATALOAD SWAP2 PUSH1 0x64 CALLDATALOAD SWAP1 PUSH1 0x84 CALLDATALOAD SWAP6 CALLER DUP9 MSTORE PUSH1 0x20 SWAP2 PUSH1 0x7 DUP4 MSTORE PUSH1 0xFF DUP6 DUP11 KECCAK256 SLOAD AND DUP1 ISZERO PUSH2 0x618 JUMPI JUMPDEST ISZERO PUSH2 0x614 JUMPI DUP8 DUP10 MSTORE PUSH1 0x8 DUP4 MSTORE PUSH1 0xFF DUP6 DUP11 KECCAK256 SLOAD AND PUSH2 0x614 JUMPI PUSH1 0x1 DUP1 PUSH1 0xA0 SHL SUB SWAP1 PUSH1 0x1 SWAP9 PUSH2 0x434 DUP6 DUP6 DUP6 DUP14 SLOAD AND DUP13 DUP12 MLOAD DUP1 SWAP6 DUP2 SWAP5 DUP3 SWAP4 PUSH4 0x3A492675 PUSH1 0xE1 SHL DUP5 MSTORE DUP11 DUP5 ADD PUSH2 0xE47 JUMP JUMPDEST SUB SWAP2 GAS STATICCALL SWAP1 DUP2 ISZERO PUSH2 0x60A JUMPI DUP13 SWAP2 PUSH2 0x5DD JUMPI JUMPDEST POP ISZERO PUSH2 0x5D9 JUMPI PUSH1 0x3 SLOAD DUP9 LT PUSH2 0x5D9 JUMPI DUP11 MSTORE PUSH1 0x8 DUP5 MSTORE DUP6 DUP11 KECCAK256 SWAP2 PUSH1 0xFF NOT SWAP3 DUP11 DUP5 DUP3 SLOAD AND OR SWAP1 SSTORE DUP9 DUP12 MSTORE DUP2 DUP6 MSTORE DUP1 DUP8 DUP13 KECCAK256 SWAP5 AND SWAP10 DUP11 DUP13 MSTORE DUP3 DUP6 ADD DUP7 MSTORE DUP8 DUP13 KECCAK256 SWAP4 DUP12 DUP6 SLOAD DUP5 DUP2 AND ISZERO PUSH2 0x4E8 JUMPI JUMPDEST POP POP POP POP POP PUSH1 0x0 DUP1 MLOAD PUSH1 0x20 PUSH2 0x1072 DUP4 CODECOPY DUP2 MLOAD SWAP2 MSTORE SWAP7 SWAP5 SWAP3 DUP3 PUSH1 0x3 SWAP3 PUSH1 0x2 PUSH1 0x60 SWAP10 SWAP8 SWAP6 ADD PUSH2 0x4BE DUP10 DUP3 SLOAD PUSH2 0xDB8 JUMP JUMPDEST SWAP1 SSTORE DUP6 DUP5 DUP4 ADD SSTORE TIMESTAMP SWAP2 ADD SSTORE ADD PUSH2 0x4D5 DUP6 DUP3 SLOAD PUSH2 0xDB8 JUMP JUMPDEST SWAP1 SSTORE DUP3 MLOAD SWAP4 DUP5 MSTORE DUP4 ADD MSTORE TIMESTAMP SWAP1 DUP3 ADD MSTORE LOG3 DUP1 RETURN JUMPDEST PUSH1 0x1 PUSH1 0x1 PUSH1 0xA0 SHL SUB NOT AND OR DUP6 SSTORE DUP2 DUP6 ADD DUP12 SWAP1 SSTORE PUSH1 0x6 DUP6 ADD DUP1 SLOAD SWAP1 SWAP2 AND DUP3 OR SWAP1 SSTORE PUSH1 0x5 DUP6 ADD DUP1 SLOAD PUSH1 0x1 PUSH1 0x40 SHL SWAP4 SWAP2 DUP5 DUP3 LT ISZERO PUSH2 0x5C6 JUMPI DUP2 PUSH2 0x52D SWAP2 DUP16 SWAP4 DUP7 ADD DUP2 SSTORE PUSH2 0xD8A JUMP JUMPDEST SWAP1 SWAP3 DUP4 SLOAD SWAP2 PUSH1 0x3 SHL SWAP3 DUP4 SHL SWAP3 SHL NOT AND OR SWAP1 SSTORE PUSH1 0x2 DUP6 ADD PUSH2 0x54D DUP2 SLOAD PUSH2 0xE60 JUMP JUMPDEST SWAP1 SSTORE DUP11 DUP13 MSTORE PUSH1 0x5 DUP7 MSTORE DUP8 DUP13 KECCAK256 SWAP1 DUP2 SLOAD SWAP3 DUP4 LT ISZERO PUSH2 0x5B3 JUMPI SWAP3 PUSH2 0x58D DUP4 PUSH1 0x60 SWAP11 SWAP9 SWAP7 SWAP4 PUSH1 0x3 SWAP7 PUSH1 0x0 DUP1 MLOAD PUSH1 0x20 PUSH2 0x1072 DUP4 CODECOPY DUP2 MLOAD SWAP2 MSTORE SWAP14 SWAP12 SWAP10 SWAP7 ADD DUP2 SSTORE PUSH2 0xD8A JUMP JUMPDEST DUP2 SLOAD SWAP1 DUP7 SHL SWAP1 DUP14 DUP3 SHL SWAP2 PUSH1 0x0 NOT SWAP1 SHL NOT AND OR SWAP1 SSTORE SWAP3 DUP3 SWAP6 SWAP8 SWAP10 POP DUP2 SWAP5 SWAP7 SWAP9 POP DUP12 CODESIZE PUSH2 0x490 JUMP JUMPDEST PUSH4 0x4E487B71 PUSH1 0xE0 SHL DUP14 MSTORE PUSH1 0x41 DUP5 MSTORE PUSH1 0x24 DUP14 REVERT JUMPDEST PUSH4 0x4E487B71 PUSH1 0xE0 SHL DUP16 MSTORE PUSH1 0x41 DUP7 MSTORE PUSH1 0x24 DUP16 REVERT JUMPDEST DUP11 DUP1 REVERT JUMPDEST PUSH2 0x5FD SWAP2 POP DUP7 RETURNDATASIZE DUP9 GT PUSH2 0x603 JUMPI JUMPDEST PUSH2 0x5F5 DUP2 DUP4 PUSH2 0xE0C JUMP JUMPDEST DUP2 ADD SWAP1 PUSH2 0xE2F JUMP JUMPDEST CODESIZE PUSH2 0x446 JUMP JUMPDEST POP RETURNDATASIZE PUSH2 0x5EB JUMP JUMPDEST DUP9 MLOAD RETURNDATASIZE DUP15 DUP3 RETURNDATACOPY RETURNDATASIZE SWAP1 REVERT JUMPDEST DUP9 DUP1 REVERT JUMPDEST POP CALLER PUSH1 0x1 PUSH1 0x1 PUSH1 0xA0 SHL SUB DUP4 AND EQ PUSH2 0x3EE JUMP JUMPDEST SWAP2 SWAP1 POP CALLVALUE PUSH2 0x2AC JUMPI DUP1 PUSH1 0x3 NOT CALLDATASIZE ADD SLT PUSH2 0x2AC JUMPI PUSH2 0x645 PUSH2 0xD74 JUMP JUMPDEST DUP4 SLOAD PUSH1 0x1 PUSH1 0x1 PUSH1 0xA0 SHL SUB SWAP1 DUP2 AND CALLER SUB PUSH2 0x67C JUMPI DUP4 PUSH1 0x6 SWAP5 CALLDATALOAD DUP7 MSTORE DUP1 PUSH1 0x20 MSTORE DUP4 DUP7 KECCAK256 ADD SWAP2 AND DUP5 MSTORE PUSH1 0x20 MSTORE DUP3 KECCAK256 ADD PUSH1 0xFF NOT DUP2 SLOAD AND SWAP1 SSTORE DUP1 RETURN JUMPDEST DUP5 DUP1 REVERT JUMPDEST DUP4 SWAP1 CALLVALUE PUSH2 0x199 JUMPI PUSH1 0x20 CALLDATASIZE PUSH1 0x3 NOT ADD SLT PUSH2 0x199 JUMPI DUP2 SLOAD PUSH1 0x1 PUSH1 0x1 PUSH1 0xA0 SHL SUB AND CALLER SUB PUSH2 0x199 JUMPI CALLDATALOAD PUSH1 0x2 SSTORE DUP1 RETURN JUMPDEST SWAP1 POP CALLVALUE PUSH2 0x2AC JUMPI PUSH1 0x20 SWAP1 DUP2 PUSH1 0x3 NOT CALLDATASIZE ADD SLT PUSH2 0x195 JUMPI DUP1 CALLDATALOAD DUP5 MSTORE DUP2 MSTORE DUP2 DUP4 KECCAK256 SWAP3 DUP4 SLOAD PUSH1 0x1 SWAP3 DUP4 DUP7 ADD SLOAD SWAP5 PUSH1 0x2 DUP8 ADD SLOAD SWAP7 PUSH1 0x5 PUSH1 0x3 DUP3 ADD SLOAD SWAP2 ADD SWAP8 DUP3 MLOAD SWAP3 DUP4 DUP6 DUP12 SLOAD SWAP2 DUP3 DUP2 MSTORE ADD SWAP1 DUP2 SWAP12 DUP10 MSTORE DUP7 DUP10 KECCAK256 SWAP1 DUP10 JUMPDEST DUP2 DUP2 LT PUSH2 0x762 JUMPI POP POP POP DUP5 PUSH2 0x711 SWAP2 SUB DUP6 PUSH2 0xE0C JUMP JUMPDEST DUP1 MLOAD SWAP9 PUSH1 0xA0 DUP11 ADD SWAP7 DUP11 MSTORE DUP6 DUP11 ADD MSTORE DUP9 ADD MSTORE PUSH1 0x60 DUP8 ADD MSTORE PUSH1 0xA0 PUSH1 0x80 DUP8 ADD MSTORE MLOAD DUP1 SWAP3 MSTORE PUSH1 0xC0 DUP6 ADD SWAP6 SWAP3 JUMPDEST DUP3 DUP2 LT PUSH2 0x746 JUMPI DUP6 DUP8 SUB DUP7 RETURN JUMPDEST DUP4 MLOAD PUSH1 0x1 PUSH1 0x1 PUSH1 0xA0 SHL SUB AND DUP8 MSTORE SWAP6 DUP2 ADD SWAP6 SWAP3 DUP2 ADD SWAP3 DUP5 ADD PUSH2 0x739 JUMP JUMPDEST DUP3 SLOAD PUSH1 0x1 PUSH1 0x1 PUSH1 0xA0 SHL SUB AND DUP5 MSTORE SWAP3 DUP9 ADD SWAP3 SWAP2 DUP12 ADD SWAP2 DUP12 ADD PUSH2 0x6FB JUMP JUMPDEST POP POP CALLVALUE PUSH2 0x199 JUMPI PUSH1 0x20 CALLDATASIZE PUSH1 0x3 NOT ADD SLT PUSH2 0x199 JUMPI PUSH1 0x20 SWAP2 PUSH1 0xFF SWAP1 DUP3 SWAP1 PUSH1 0x1 PUSH1 0x1 PUSH1 0xA0 SHL SUB PUSH2 0x7A9 PUSH2 0xD59 JUMP JUMPDEST AND DUP2 MSTORE PUSH1 0x7 DUP6 MSTORE KECCAK256 SLOAD AND SWAP1 MLOAD SWAP1 ISZERO ISZERO DUP2 MSTORE RETURN JUMPDEST SWAP1 POP CALLVALUE PUSH2 0x2AC JUMPI PUSH1 0x20 CALLDATASIZE PUSH1 0x3 NOT ADD SLT PUSH2 0x2AC JUMPI DUP2 PUSH1 0x20 SWAP4 PUSH1 0xFF SWAP3 CALLDATALOAD DUP2 MSTORE PUSH1 0x8 DUP6 MSTORE KECCAK256 SLOAD AND SWAP1 MLOAD SWAP1 ISZERO ISZERO DUP2 MSTORE RETURN JUMPDEST SWAP2 SWAP1 POP CALLVALUE PUSH2 0x2AC JUMPI PUSH1 0x20 SWAP2 DUP3 PUSH1 0x3 NOT CALLDATASIZE ADD SLT PUSH2 0x195 JUMPI DUP1 CALLDATALOAD DUP1 DUP6 MSTORE DUP2 DUP5 MSTORE DUP3 DUP6 KECCAK256 SWAP2 DUP3 SLOAD SWAP4 PUSH1 0x1 SWAP4 DUP5 DUP2 ADD SWAP6 DUP7 SLOAD LT ISZERO PUSH2 0x95D JUMPI DUP5 SWAP6 DUP9 SWAP1 DUP10 SWAP5 PUSH1 0x5 SWAP6 DUP7 DUP6 ADD SWAP2 DUP6 ADD SWAP9 JUMPDEST PUSH2 0x836 JUMPI DUP12 DUP1 RETURN JUMPDEST DUP2 SLOAD DUP2 LT ISZERO PUSH2 0x959 JUMPI DUP12 PUSH2 0x84A DUP3 DUP5 PUSH2 0xD8A JUMP JUMPDEST PUSH1 0x1 DUP1 PUSH1 0xA0 SHL SUB SWAP2 SLOAD SWAP1 PUSH1 0x3 SHL SHR AND DUP1 DUP3 MSTORE DUP11 DUP14 MSTORE DUP13 DUP9 DUP4 KECCAK256 SWAP3 PUSH1 0x6 DUP13 PUSH1 0xFF DUP3 DUP8 ADD SLOAD AND PUSH2 0x888 JUMPI JUMPDEST POP POP POP POP POP POP PUSH2 0x882 SWAP1 PUSH2 0xE60 JUMP JUMPDEST DUP10 PUSH2 0x82E JUMP JUMPDEST DUP5 PUSH2 0x892 SWAP2 PUSH2 0xE9C JUMP JUMPDEST SWAP3 DUP13 DUP5 ISZERO SWAP7 DUP8 ISZERO DUP1 PUSH2 0x944 JUMPI JUMPDEST PUSH2 0x8AE JUMPI JUMPDEST POP POP SWAP3 POP DUP13 PUSH2 0x873 JUMP JUMPDEST SWAP11 DUP7 SWAP8 SWAP12 SWAP4 PUSH2 0x8F3 SWAP4 DUP8 SWAP9 SWAP6 SWAP4 DUP9 SWAP8 SWAP9 SWAP5 ADD PUSH2 0x8CB DUP6 DUP3 SLOAD PUSH2 0xDB8 JUMP JUMPDEST SWAP1 SSTORE DUP6 DUP9 MSTORE MSTORE DUP14 DUP7 KECCAK256 PUSH2 0x8DF DUP4 DUP3 SLOAD PUSH2 0xDB8 JUMP JUMPDEST SWAP1 SSTORE PUSH2 0x8EC DUP3 DUP13 SLOAD PUSH2 0xDB8 JUMP JUMPDEST DUP12 SSTORE PUSH2 0xDB8 JUMP JUMPDEST SWAP9 DUP4 SWAP1 PUSH2 0x93B JUMPI JUMPDEST DUP4 SWAP3 DUP4 SWAP3 DUP4 SWAP3 CALL ISZERO PUSH2 0x931 JUMPI SWAP1 DUP10 PUSH1 0x0 DUP1 MLOAD PUSH1 0x20 PUSH2 0x1052 DUP4 CODECOPY DUP2 MLOAD SWAP2 MSTORE DUP15 PUSH2 0x882 SWAP6 SWAP5 DUP12 MLOAD SWAP1 DUP2 MSTORE LOG3 SWAP1 CODESIZE DUP1 DUP15 DUP2 DUP16 DUP13 DUP3 PUSH2 0x8A4 JUMP JUMPDEST DUP8 MLOAD RETURNDATASIZE DUP16 DUP3 RETURNDATACOPY RETURNDATASIZE SWAP1 REVERT JUMPDEST POP PUSH2 0x8FC PUSH2 0x8FB JUMP JUMPDEST POP DUP13 SLOAD PUSH2 0x952 DUP8 DUP14 SLOAD PUSH2 0xDB8 JUMP JUMPDEST GT ISZERO PUSH2 0x89F JUMP JUMPDEST DUP12 DUP1 RETURN JUMPDEST DUP8 DUP1 REVERT JUMPDEST DUP4 SWAP1 CALLVALUE PUSH2 0x199 JUMPI PUSH1 0x20 CALLDATASIZE PUSH1 0x3 NOT ADD SLT PUSH2 0x199 JUMPI DUP2 SLOAD PUSH1 0x1 PUSH1 0x1 PUSH1 0xA0 SHL SUB AND CALLER SUB PUSH2 0x199 JUMPI CALLDATALOAD PUSH1 0x3 SSTORE DUP1 RETURN JUMPDEST POP POP CALLVALUE PUSH2 0x199 JUMPI DUP2 PUSH1 0x3 NOT CALLDATASIZE ADD SLT PUSH2 0x199 JUMPI PUSH1 0x20 SWAP1 PUSH1 0x3 SLOAD SWAP1 MLOAD SWAP1 DUP2 MSTORE RETURN JUMPDEST DUP3 DUP5 CALLVALUE PUSH2 0x1CC JUMPI PUSH1 0x20 SWAP1 DUP2 PUSH1 0x3 NOT CALLDATASIZE ADD SLT PUSH2 0x1CC JUMPI DUP3 SWAP1 PUSH1 0x1 PUSH1 0x1 PUSH1 0xA0 SHL SUB PUSH2 0x9D2 PUSH2 0xD59 JUMP JUMPDEST AND DUP2 MSTORE PUSH1 0x5 DUP4 MSTORE DUP2 DUP2 KECCAK256 SWAP1 DUP3 MLOAD DUP1 DUP6 DUP5 SLOAD SWAP2 DUP3 DUP2 MSTORE ADD SWAP1 DUP2 SWAP5 DUP5 MSTORE DUP7 DUP5 KECCAK256 SWAP1 DUP5 JUMPDEST DUP2 DUP2 LT PUSH2 0xA44 JUMPI POP POP POP DUP2 PUSH2 0xA09 SWAP2 SUB DUP3 PUSH2 0xE0C JUMP JUMPDEST DUP4 MLOAD SWAP5 DUP6 SWAP5 DUP2 DUP7 ADD SWAP3 DUP3 DUP8 MSTORE MLOAD DUP1 SWAP4 MSTORE DUP6 ADD SWAP4 SWAP3 JUMPDEST DUP3 DUP2 LT PUSH2 0xA2D JUMPI POP POP POP POP SUB SWAP1 RETURN JUMPDEST DUP4 MLOAD DUP6 MSTORE DUP7 SWAP6 POP SWAP4 DUP2 ADD SWAP4 SWAP3 DUP2 ADD SWAP3 PUSH1 0x1 ADD PUSH2 0xA1E JUMP JUMPDEST DUP3 SLOAD DUP5 MSTORE SWAP3 DUP9 ADD SWAP3 PUSH1 0x1 SWAP3 DUP4 ADD SWAP3 ADD PUSH2 0x9F3 JUMP JUMPDEST SWAP2 SWAP1 POP CALLVALUE PUSH2 0x2AC JUMPI DUP1 PUSH1 0x3 NOT CALLDATASIZE ADD SLT PUSH2 0x2AC JUMPI SWAP2 DUP3 PUSH1 0xE0 SWAP4 PUSH2 0xA78 PUSH2 0xD74 JUMP JUMPDEST SWAP3 DUP1 PUSH1 0xC0 DUP4 MLOAD PUSH2 0xA87 DUP2 PUSH2 0xDDB JUMP JUMPDEST DUP3 DUP2 MSTORE DUP3 PUSH1 0x20 DUP3 ADD MSTORE DUP3 DUP6 DUP3 ADD MSTORE DUP3 PUSH1 0x60 DUP3 ADD MSTORE DUP3 PUSH1 0x80 DUP3 ADD MSTORE DUP3 PUSH1 0xA0 DUP3 ADD MSTORE ADD MSTORE DUP5 CALLDATALOAD DUP2 MSTORE DUP5 PUSH1 0x20 MSTORE DUP5 DUP3 DUP3 KECCAK256 ADD PUSH1 0x1 DUP1 PUSH1 0xA0 SHL SUB DUP1 SWAP6 AND DUP3 MSTORE PUSH1 0x20 MSTORE KECCAK256 SWAP1 DUP1 MLOAD SWAP3 PUSH2 0xAD3 DUP5 PUSH2 0xDDB JUMP JUMPDEST DUP3 SLOAD AND SWAP4 DUP5 DUP5 MSTORE PUSH1 0x1 DUP4 ADD SLOAD SWAP2 PUSH1 0x20 DUP6 ADD SWAP3 DUP4 MSTORE PUSH1 0x2 DUP5 ADD SLOAD DUP2 DUP7 ADD SWAP1 DUP2 MSTORE PUSH1 0x3 DUP6 ADD SLOAD SWAP3 PUSH1 0x60 DUP8 ADD SWAP4 DUP5 MSTORE DUP6 ADD SLOAD SWAP4 PUSH1 0x80 DUP8 ADD SWAP5 DUP6 MSTORE PUSH1 0xC0 PUSH1 0xFF PUSH1 0x6 PUSH1 0x5 DUP10 ADD SLOAD SWAP9 PUSH1 0xA0 DUP12 ADD SWAP10 DUP11 MSTORE ADD SLOAD AND SWAP8 ADD SWAP7 ISZERO ISZERO DUP8 MSTORE DUP3 MLOAD SWAP8 DUP9 MSTORE MLOAD PUSH1 0x20 DUP9 ADD MSTORE MLOAD SWAP1 DUP7 ADD MSTORE MLOAD PUSH1 0x60 DUP6 ADD MSTORE MLOAD PUSH1 0x80 DUP5 ADD MSTORE MLOAD PUSH1 0xA0 DUP4 ADD MSTORE MLOAD ISZERO ISZERO PUSH1 0xC0 DUP3 ADD MSTORE RETURN JUMPDEST SWAP2 POP CALLVALUE PUSH2 0x199 JUMPI DUP3 PUSH1 0x3 NOT CALLDATASIZE ADD SLT PUSH2 0x199 JUMPI DUP2 SLOAD PUSH1 0x24 CALLDATALOAD SWAP2 SWAP1 PUSH1 0x1 PUSH1 0x1 PUSH1 0xA0 SHL SUB AND CALLER SUB PUSH2 0x2AC JUMPI DUP1 CALLDATALOAD DUP4 MSTORE PUSH1 0x20 MSTORE DUP3 DUP3 KECCAK256 PUSH1 0x1 DUP2 SLOAD SWAP2 ADD SWAP1 DUP3 PUSH2 0xB99 DUP4 SLOAD DUP1 SWAP4 PUSH2 0xE8F JUMP JUMPDEST LT PUSH2 0x195 JUMPI DUP3 DUP5 SWAP4 SWAP3 PUSH2 0xBAE DUP6 SWAP5 DUP6 SWAP5 PUSH2 0xDB8 JUMP JUMPDEST SWAP1 SSTORE DUP2 DUP2 ISZERO PUSH2 0xBCE JUMPI JUMPDEST CALLER SWAP1 CALL ISZERO PUSH2 0xBC4 JUMPI POP DUP1 RETURN JUMPDEST MLOAD SWAP1 RETURNDATASIZE SWAP1 DUP3 RETURNDATACOPY RETURNDATASIZE SWAP1 REVERT JUMPDEST POP PUSH2 0x8FC PUSH2 0xBB8 JUMP JUMPDEST SWAP2 SWAP1 POP CALLVALUE PUSH2 0x2AC JUMPI PUSH1 0x20 DUP1 PUSH1 0x3 NOT CALLDATASIZE ADD SLT PUSH2 0x195 JUMPI PUSH1 0x1 SLOAD DUP3 MLOAD PUSH4 0x3A492675 PUSH1 0xE1 SHL DUP2 MSTORE DUP5 CALLDATALOAD SWAP4 SWAP2 DUP4 SWAP1 DUP3 SWAP1 PUSH1 0x1 PUSH1 0x1 PUSH1 0xA0 SHL SUB AND DUP2 DUP1 PUSH2 0xC1B CALLER DUP11 DUP4 DUP14 ADD PUSH2 0xE47 JUMP JUMPDEST SUB SWAP2 GAS STATICCALL SWAP1 DUP2 ISZERO PUSH2 0xCF9 JUMPI DUP7 SWAP2 PUSH2 0xCDC JUMPI JUMPDEST POP ISZERO PUSH2 0x67C JUMPI PUSH2 0xC3D CALLER DUP5 PUSH2 0xE9C JUMP JUMPDEST SWAP4 DUP5 ISZERO PUSH2 0xCD8 JUMPI DUP4 DUP7 MSTORE DUP1 DUP4 MSTORE DUP2 DUP7 KECCAK256 SWAP1 CALLER DUP8 MSTORE DUP2 ADD DUP4 MSTORE DUP2 DUP7 KECCAK256 PUSH1 0x1 DUP3 SLOAD SWAP3 ADD SWAP2 PUSH2 0xC6A DUP8 DUP5 SLOAD PUSH2 0xDB8 JUMP JUMPDEST GT PUSH2 0xCD4 JUMPI PUSH1 0x5 ADD PUSH2 0xC7D DUP7 DUP3 SLOAD PUSH2 0xDB8 JUMP JUMPDEST SWAP1 SSTORE CALLER DUP7 MSTORE PUSH1 0x6 DUP4 MSTORE DUP2 DUP7 KECCAK256 PUSH2 0xC94 DUP7 DUP3 SLOAD PUSH2 0xDB8 JUMP JUMPDEST SWAP1 SSTORE PUSH2 0xCA1 DUP6 DUP3 SLOAD PUSH2 0xDB8 JUMP JUMPDEST SWAP1 SSTORE DUP5 DUP1 DUP1 DUP1 DUP8 CALLER DUP3 CALL ISZERO PUSH2 0xCCB JUMPI SWAP1 PUSH1 0x0 DUP1 MLOAD PUSH1 0x20 PUSH2 0x1052 DUP4 CODECOPY DUP2 MLOAD SWAP2 MSTORE SWAP2 MLOAD SWAP4 DUP5 MSTORE CALLER SWAP4 LOG3 DUP1 RETURN JUMPDEST MLOAD RETURNDATASIZE DUP6 DUP3 RETURNDATACOPY RETURNDATASIZE SWAP1 REVERT JUMPDEST DUP7 DUP1 REVERT JUMPDEST DUP6 DUP1 REVERT JUMPDEST PUSH2 0xCF3 SWAP2 POP DUP4 RETURNDATASIZE DUP6 GT PUSH2 0x603 JUMPI PUSH2 0x5F5 DUP2 DUP4 PUSH2 0xE0C JUMP JUMPDEST CODESIZE PUSH2 0xC2D JUMP JUMPDEST DUP3 MLOAD RETURNDATASIZE DUP9 DUP3 RETURNDATACOPY RETURNDATASIZE SWAP1 REVERT JUMPDEST POP POP CALLVALUE PUSH2 0x199 JUMPI DUP1 PUSH1 0x3 NOT CALLDATASIZE ADD SLT PUSH2 0x199 JUMPI PUSH2 0xD1D PUSH2 0xD59 JUMP JUMPDEST PUSH1 0x1 PUSH1 0x1 PUSH1 0xA0 SHL SUB AND DUP3 MSTORE PUSH1 0x5 PUSH1 0x20 MSTORE DUP1 DUP3 KECCAK256 DUP1 SLOAD PUSH1 0x24 CALLDATALOAD SWAP4 SWAP1 DUP5 LT ISZERO PUSH2 0x1CC JUMPI POP PUSH1 0x20 SWAP3 PUSH2 0xD4B SWAP2 PUSH2 0xD8A JUMP JUMPDEST SWAP2 SWAP1 SLOAD SWAP1 MLOAD SWAP2 PUSH1 0x3 SHL SHR DUP2 MSTORE RETURN JUMPDEST PUSH1 0x4 CALLDATALOAD SWAP1 PUSH1 0x1 PUSH1 0x1 PUSH1 0xA0 SHL SUB DUP3 AND DUP3 SUB PUSH2 0xD6F JUMPI JUMP JUMPDEST PUSH1 0x0 DUP1 REVERT JUMPDEST PUSH1 0x24 CALLDATALOAD SWAP1 PUSH1 0x1 PUSH1 0x1 PUSH1 0xA0 SHL SUB DUP3 AND DUP3 SUB PUSH2 0xD6F JUMPI JUMP JUMPDEST DUP1 SLOAD DUP3 LT ISZERO PUSH2 0xDA2 JUMPI PUSH1 0x0 MSTORE PUSH1 0x20 PUSH1 0x0 KECCAK256 ADD SWAP1 PUSH1 0x0 SWAP1 JUMP JUMPDEST PUSH4 0x4E487B71 PUSH1 0xE0 SHL PUSH1 0x0 MSTORE PUSH1 0x32 PUSH1 0x4 MSTORE PUSH1 0x24 PUSH1 0x0 REVERT JUMPDEST SWAP2 SWAP1 DUP3 ADD DUP1 SWAP3 GT PUSH2 0xDC5 JUMPI JUMP JUMPDEST PUSH4 0x4E487B71 PUSH1 0xE0 SHL PUSH1 0x0 MSTORE PUSH1 0x11 PUSH1 0x4 MSTORE PUSH1 0x24 PUSH1 0x0 REVERT JUMPDEST PUSH1 0xE0 DUP2 ADD SWAP1 DUP2 LT PUSH1 0x1 PUSH1 0x1 PUSH1 0x40 SHL SUB DUP3 GT OR PUSH2 0xDF6 JUMPI PUSH1 0x40 MSTORE JUMP JUMPDEST PUSH4 0x4E487B71 PUSH1 0xE0 SHL PUSH1 0x0 MSTORE PUSH1 0x41 PUSH1 0x4 MSTORE PUSH1 0x24 PUSH1 0x0 REVERT JUMPDEST PUSH1 0x1F SWAP1 SWAP2 ADD PUSH1 0x1F NOT AND DUP2 ADD SWAP1 PUSH1 0x1 PUSH1 0x1 PUSH1 0x40 SHL SUB DUP3 GT SWAP1 DUP3 LT OR PUSH2 0xDF6 JUMPI PUSH1 0x40 MSTORE JUMP JUMPDEST SWAP1 DUP2 PUSH1 0x20 SWAP2 SUB SLT PUSH2 0xD6F JUMPI MLOAD DUP1 ISZERO ISZERO DUP2 SUB PUSH2 0xD6F JUMPI SWAP1 JUMP JUMPDEST SWAP1 DUP2 MSTORE PUSH1 0x1 PUSH1 0x1 PUSH1 0xA0 SHL SUB SWAP1 SWAP2 AND PUSH1 0x20 DUP3 ADD MSTORE PUSH1 0x40 ADD SWAP1 JUMP JUMPDEST PUSH1 0x0 NOT DUP2 EQ PUSH2 0xDC5 JUMPI PUSH1 0x1 ADD SWAP1 JUMP JUMPDEST DUP2 ISZERO PUSH2 0xE79 JUMPI DIV SWAP1 JUMP JUMPDEST PUSH4 0x4E487B71 PUSH1 0xE0 SHL PUSH1 0x0 MSTORE PUSH1 0x12 PUSH1 0x4 MSTORE PUSH1 0x24 PUSH1 0x0 REVERT JUMPDEST SWAP2 SWAP1 DUP3 SUB SWAP2 DUP3 GT PUSH2 0xDC5 JUMPI JUMP JUMPDEST PUSH1 0x0 DUP2 DUP2 MSTORE PUSH1 0x4 SWAP2 PUSH1 0x20 SWAP1 DUP4 DUP3 MSTORE PUSH1 0x40 SWAP2 DUP3 DUP5 KECCAK256 SWAP6 PUSH1 0x1 DUP1 PUSH1 0xA0 SHL SUB DUP1 SWAP2 AND DUP6 MSTORE DUP6 DUP8 ADD DUP3 MSTORE DUP4 DUP6 KECCAK256 SWAP4 PUSH1 0xFF SWAP1 PUSH1 0x6 SWAP2 DUP1 DUP4 DUP9 ADD SLOAD AND ISZERO DUP1 ISZERO PUSH2 0x1045 JUMPI JUMPDEST PUSH2 0x1038 JUMPI PUSH1 0x2 DUP8 ADD SLOAD SWAP2 PUSH2 0x1B58 SWAP3 DUP4 DUP2 MUL SWAP4 DUP2 DUP6 DIV EQ SWAP1 ISZERO OR ISZERO PUSH2 0x1025 JUMPI DUP11 PUSH2 0xF0A PUSH1 0x3 SWAP5 DUP6 DUP1 SWAP4 ADD SLOAD SWAP1 PUSH2 0xE6F JUMP JUMPDEST SWAP9 ADD SLOAD SWAP7 PUSH2 0xBB8 SWAP8 DUP9 DUP2 MUL SWAP9 DUP2 DUP11 DIV EQ SWAP1 ISZERO OR ISZERO PUSH2 0x1012 JUMPI DUP10 MSTORE DUP10 DUP7 MSTORE DUP1 DUP10 KECCAK256 SWAP5 DUP10 SWAP7 DUP11 SWAP2 PUSH1 0x5 DUP9 ADD DUP14 DUP2 SLOAD SWAP10 ADD SWAP4 JUMPDEST DUP14 DUP11 DUP3 LT PUSH2 0xFC5 JUMPI POP PUSH2 0xF6D SWAP13 SWAP12 PUSH2 0xF67 SWAP12 SWAP1 SWAP11 POP SWAP9 POP POP DUP8 ISZERO SWAP7 POP PUSH2 0xFBC SWAP6 POP POP POP POP POP POP JUMPI SWAP1 PUSH2 0xE6F JUMP JUMPDEST SWAP1 PUSH2 0xDB8 JUMP JUMPDEST SWAP2 PUSH2 0x2710 SWAP4 DUP5 DUP5 GT PUSH2 0xFB4 JUMPI JUMPDEST DUP1 PUSH1 0x1 PUSH2 0xF8B SWAP3 SLOAD SWAP2 ADD SLOAD SWAP1 PUSH2 0xE8F JUMP JUMPDEST DUP4 DUP2 MUL SWAP4 DUP2 DUP6 DIV EQ SWAP1 ISZERO OR ISZERO PUSH2 0xFA1 JUMPI POP POP DIV SWAP1 JUMP JUMPDEST PUSH4 0x4E487B71 PUSH1 0xE0 SHL DUP3 MSTORE PUSH1 0x11 SWAP1 MSTORE PUSH1 0x24 SWAP1 REVERT JUMPDEST DUP5 SWAP4 POP PUSH2 0xF7A JUMP JUMPDEST POP PUSH1 0x1 SWAP1 PUSH2 0xE6F JUMP JUMPDEST DUP7 SWAP1 DUP5 PUSH2 0xFD2 DUP5 DUP7 PUSH2 0xD8A JUMP JUMPDEST SWAP1 SLOAD SWAP1 DUP13 SHL SHR AND DUP2 MSTORE DUP7 DUP7 MSTORE KECCAK256 DUP8 DUP11 DUP3 ADD SLOAD AND PUSH2 0xFF9 JUMPI JUMPDEST POP PUSH2 0xFF4 SWAP1 PUSH2 0xE60 JUMP JUMPDEST PUSH2 0xF3A JUMP JUMPDEST PUSH2 0xFF4 SWAP2 SWAP12 DUP10 PUSH2 0x100B SWAP3 ADD SLOAD SWAP1 PUSH2 0xDB8 JUMP JUMPDEST SWAP11 SWAP1 PUSH2 0xFEA JUMP JUMPDEST PUSH4 0x4E487B71 PUSH1 0xE0 SHL DUP11 MSTORE PUSH1 0x11 DUP12 MSTORE PUSH1 0x24 DUP11 REVERT JUMPDEST PUSH4 0x4E487B71 PUSH1 0xE0 SHL DUP10 MSTORE PUSH1 0x11 DUP11 MSTORE PUSH1 0x24 DUP10 REVERT JUMPDEST POP POP POP POP POP POP POP SWAP2 POP POP SWAP1 JUMP JUMPDEST POP PUSH1 0x3 DUP11 ADD SLOAD ISZERO PUSH2 0xEDA JUMP INVALID EXTCODESIZE SLT PUSH28 0x3427F8C24B1EA11EF9F5052899E072DB64611F99AC51847608C5BC8 EXTCODEHASH ADDRESS 0x1E 0x5C SHR 0xD6 GASPRICE PUSH4 0xF5DE9784 PUSH12 0xA38770FCE5404B529A0C56A4 SMOD 0xD1 0x4F SWAP13 ISZERO 0x5D DIV PUSH7 0x0 "},"methodIdentifiers":{"addOracle(address)":"df5dd1a5","addToRebatePool(uint256)":"8d2ab78e","authorizedOracles(address)":"61c992a3","calculateRebate(uint256,address)":"ef28a92d","claimRebate(uint256)":"12494caa","coreContract()":"e80db5db","deactivateSeeder(uint256,address)":"6e738e2d","distributeRebates(uint256)":"5d67dc43","distributorContent(address,uint256)":"0511f072","distributorTotalEarnings(address)":"7badbe87","emergencyWithdraw(uint256,uint256)":"1f276b6e","getDistributorContent(address)":"24b5b980","getDistributorEarnings(address)":"c51fd876","getRebatePoolInfo(uint256)":"66b340cc","getSeedingActivity(uint256,address)":"238ec8b5","licenseRegistry()":"c2fda487","minimumUploadThreshold()":"2cae79cf","processedReports(bytes32)":"616a0630","rebatePools(uint256)":"c5310037","removeOracle(address)":"fdc85fc4","reportSeedingActivity(uint256,address,uint256,uint256,bytes32)":"81675b70","reportingPeriod()":"a90b538e","updateMinimumUploadThreshold(uint256)":"5c55e8db","updateReportingPeriod(uint256)":"6b7c424b"}}}}}