{"contracts/DeploymentLib.sol":{"DeploymentLib":{"abi":[{"inputs":[{"internalType":"address","name":"core","type":"address"},{"internalType":"address","name":"registry","type":"address"},{"internalType":"address","name":"bounty","type":"address"},{"internalType":"address","name":"rebates","type":"address"}],"name":"validateDeployment","outputs":[{"internalType":"bool","name":"isValid","type":"bool"}],"stateMutability":"pure","type":"function"}],"evm":{"bytecode":{"linkReferences":{},"object":"6080806040523461001c576165df908161002282393081603d0152f35b600080fdfe608060408181526004908136101561001657600080fd5b600092833560e01c9081630a454a01146102aa575063547befb71461003a57600080fd5b307f0000000000000000000000000000000000000000000000000000000000000000146102a657826003193601126102a657826060825161007a81610342565b82815260208101839052838101839052015280516001600160401b03939061209d8082019086821183831017610293579082916145428339039082f09182156102895780516001600160a01b0393841694906115928082019088821183831017610276576020918391611e41833988815203019084f0801561026a578416908251611aa0808201908282108a831117610257578489849361011f936103a18639610386565b039085f096871561024a5783519061116f808301918211838310176102575784898493610150936133d38639610386565b039085f096871561024a57851696851693863b1561022057835163c0c53b8b60e01b815283838201528860248201528560448201528181606481838c5af1801561024057610231575b5090863b1561022d5783519063f2fde38b60e01b825232908201528181602481838b5af180156102235761020c575b5050608095848092606085516101dd81610342565b898152602081019283528681019485520195865284519788525116602087015251169084015251166060820152f35b6102168291610373565b61022057806101c8565b80fd5b84513d84823e3d90fd5b5080fd5b61023a90610373565b38610199565b85513d84823e3d90fd5b50505051903d90823e3d90fd5b634e487b7160e01b875260418452602487fd5b505051903d90823e3d90fd5b634e487b7160e01b865260418452602486fd5b51903d90823e3d90fd5b634e487b7160e01b845260418652602484fd5b8280fd5b84908460803660031901126102a657356001600160a01b038181169182900361033e576024359181831680930361033a57604435908282168092036103365760643592831680930361033657602095501515928361032c575b5082610322575b5081610318575b5015158152f35b9050151583610311565b151591508461030a565b1515925085610303565b8580fd5b8480fd5b8380fd5b608081019081106001600160401b0382111761035d57604052565b634e487b7160e01b600052604160045260246000fd5b6001600160401b03811161035d57604052565b6001600160a01b039182168152911660208201526040019056fe6080346100b957601f62001aa038819003918201601f19168301916001600160401b038311848410176100be5780849260409485528339810103126100b957610053602061004c836100d4565b92016100d4565b62093a80600355662386f26fc1000060045560018060a01b03908160018060a01b0319931683600054161760005516906001541617600155600060025533600052600c6020526040600020600160ff198254161790556040516119b79081620000e98239f35b600080fd5b634e487b7160e01b600052604160045260246000fd5b51906001600160a01b03821682036100b95756fe6080604052600436101561001257600080fd5b60003560e01c80630c886a6b1461158d57806315f25549146115615780631e09d5a91461126e5780631f276b6e1461120557806339c65d8d146111d95780633e8686cc14610f925780634c41e88014610f67578063537dbf0714610f2057806359974e3814610d5557806360d25e8114610cdd5780636c82448714610c9e57806376c23ff114610c805780637a0c95aa14610c465780637c8efce314610bc45780639000b3d614610b55578063abac7e0d14610b29578063ad73349e146109bf578063b1bb7e0f146109a1578063b4b9e70614610975578063bc74b08d1461094a578063c12255fe1461039a578063c2fda48714610371578063ca2dfd0a14610305578063dfde74fe146102ad578063e04a377014610233578063e80db5db1461020a578063ec5ffac2146101ec578063ef11151e1461019a5763f1f568f71461015b57600080fd5b34610195576020366003190112610195576001600160a01b0361017c61167c565b16600052600b6020526020604060002054604051908152f35b600080fd5b34610195576040366003190112610195576024356001600160a01b0381169081900361019557600435600052600d602052604060002090600052602052602060ff604060002054166040519015158152f35b34610195576000366003190112610195576020600454604051908152f35b34610195576000366003190112610195576000546040516001600160a01b039091168152602090f35b34610195576020806003193601126101955760043560005260088152604060002090604051908181845491828152019360005281600020916000905b8282106102965761029285610286818903826117b9565b60405191829182611692565b0390f35b83548652948501946001938401939091019061026f565b34610195576040366003190112610195576102c661167c565b6001600160a01b0316600090815260096020526040902080546024359190821015610195576020916102f7916115d4565b90546040519160031b1c8152f35b346101955760203660031901126101955761031e61167c565b6000546001600160a01b03919082163303610195571680600052600c602052604060002060ff1981541690557f44a3cd4eb5cc5748f6169df057b1cb2ae4c383e87cd94663c430e095d4cba424600080a2005b34610195576000366003190112610195576001546040516001600160a01b039091168152602090f35b60a0366003190112610195576024356001600160401b038111610195576103c5903690600401611602565b6044356001600160401b038111610195576103e4903690600401611602565b906064356001600160401b03811161019557610404903690600401611602565b9490936084356001600160401b03811161019557610426903690600401611602565b929091600454341061019557600435600052600560205260406000205415610195578315610195576001546040805163017e7ec560e31b81526004803590820152606060248201529182906001600160a01b031681806104a061048d60648301898b6117ff565b8281036003190160448401528d8d6117ff565b03915afa90811561093e576000916108ee575b50610195576104c3600254611820565b600281815560008281526007602052604090208281556001810180546001600160a01b0319163317905560043591810191909155989097906001600160401b038311610770576105238361051a60038d01546116cd565b60038d0161182f565b826000601f821160011461088057600091610875575b508360011b906000198560031b1c19161760038b01555b6001600160401b038811610770576105788861056f60048d01546116cd565b60048d0161182f565b876000601f8211600114610807576000916107fc575b508860011b906000198a60031b1c19161760048b01555b6001600160401b038111610770578060058b01926105cd826105c786546116cd565b8661182f565b600090601f831160011461079157600092610786575b50508160011b916000199060031b1c19161790555b6001600160401b038411610770578787936106258661061c600660209d01546116cd565b6006850161182f565b600090601f87116001146106e95795806008939260008051602061199783398151915297986000926106de575b50508160011b916000199060031b1c19161760068201555b4260078201550160ff19815416905560043560005260088852610691846040600020611883565b33600052600988526106a7846040600020611883565b6106d36106c16040519384936040855260408501916117ff565b8281038a8401523397600435976117ff565b0390a4604051908152f35b013590508c80610652565b600683979297016000528a6000209660005b601f198416811061075657509160008051602061199783398151915296976001926008959483601f1981161061073c575b505050811b01600682015561066a565b0135600019600384901b60f8161c191690558c808061072c565b8183013589556001909801978b9750908c01908c016106fb565b634e487b7160e01b600052604160045260246000fd5b013590508b806105e3565b909150601f198316918460005260206000209260005b8181106107e457509084600195949392106107ca575b505050811b0190556105f8565b0135600019600384901b60f8161c191690558b80806107bd565b919360206001819287870135815501950192016107a7565b90508701358b61058e565b905060048b0160005260206000209060005b601f198b16811061085d575089601f19811610610843575b5050600188811b0160048b01556105a5565b88013560001960038b901b60f8161c191690558a80610831565b9091602060018192858d013581550193019101610819565b90508401358b610539565b905060038b0160005260206000209060005b601f19861681106108d6575084601f198116106108bc575b5050600183811b0160038b0155610550565b850135600019600386901b60f8161c191690558a806108aa565b9091602060018192858a013581550193019101610892565b90506040813d604011610936575b81610909604093836117b9565b8101031261019557805190811515820361019557602001516001600160a01b0381160361019557896104b3565b3d91506108fc565b6040513d6000823e3d90fd5b34610195576020366003190112610195576000546001600160a01b0316330361019557600435600355005b346101955760203660031901126101955760043560005260056020526020604060002054604051908152f35b34610195576000366003190112610195576020600354604051908152f35b3461019557602036600319011261019557600435600052600760205260406000208054600160a01b600190036001830154169160028101549060405180806003840190610a0b91611707565b03610a1690826117b9565b6040519081610a288160048601611707565b03610a3390836117b9565b60405180610a448160058701611707565b03610a4f90826117b9565b6040519081610a618160068801611707565b03610a6c90836117b9565b600785015493600886015460ff16936040519687806009830190610a8f91611707565b03610a9a90896117b9565b600a0154976040519a8b9a8b5260208b015260408a01526101608060608b01528901610ac59161162f565b88810360808a0152610ad69161162f565b87810360a0890152610ae79161162f565b86810360c0880152610af89161162f565b9160e08601526101008501610b0c9161166f565b838103610120850152610b1e9161162f565b906101408301520390f35b3461019557602036600319011261019557600435600052600e6020526020604060002054604051908152f35b3461019557602036600319011261019557610b6e61167c565b6000546001600160a01b03919082163303610195571680600052600c6020526040600020600160ff198254161790557f6d05492139c5ea989514a5d2150c028041e5c087e2a39967f67dc7d2655adb81600080a2005b602036600319011261019557600054600435906001600160a01b03163303610195573415610195578060005260056020526040600020610c053482546117dc565b90558060005260056020527f59cf05b569f6230787852b6f1a84ff0f155b2363c622c463141caaee1b6d6643604080600020548151903482526020820152a2005b34610195576020366003190112610195576001600160a01b03610c6761167c565b16600052600a6020526020604060002054604051908152f35b34610195576000366003190112610195576020600254604051908152f35b34610195576020366003190112610195576001600160a01b03610cbf61167c565b16600052600c602052602060ff604060002054166040519015158152f35b3461019557602080600319360112610195576001600160a01b03610cff61167c565b1660005260098152604060002090604051908181845491828152019360005281600020916000905b828210610d3e5761029285610286818903826117b9565b835486529485019460019384019390910190610d27565b346101955760208060031936011261019557600435806000526005908183526040600020541561019557600891828452604060002092604051808587829754938481520190600052876000209260005b89828210610f0a57505050610dbc925003856117b9565b60009460005b8551811015610f08578181851b870101516000526007825260406000208381019060ff8254166004811015610ef257600180911480610ee5575b610e12575b505050610e0d90611820565b610dc2565b600a82015490886000528786526040600020805483811015610e37575b505050610e01565b83610e47919d949597969d611989565b9055840190610e7a8360018060a01b039283855416600052600b89526040600020610e738382546117dc565b90556117dc565b9a600360ff1982541617905560008080808685875416828215610edc575bf11561093e57857f1d0f102d737fa5f0a0f89df1c7bd6c4d6ea8866cb4cd14b9461b04a9c3bd7b6d91610e0d965493541693604051908152a3908880808080610e2f565b506108fc610e98565b50600a8201541515610dfc565b634e487b7160e01b600052602160045260246000fd5b005b855484526001958601958a955093019201610da5565b34610195576020366003190112610195576001600160a01b03610f4161167c565b16600052600a60205260408060002054600b602052816000205482519182526020820152f35b34610195576020366003190112610195576000546001600160a01b0316330361019557600480359055005b34610195576020366003190112610195576004356000610140604051610fb78161179d565b82815282602082015282604082015260608082015260606080820152606060a0820152606060c08201528260e08201528261010082015260606101208201520152801515806111cd575b156101955760005260076020526040600020604051906110208261179d565b8054825260018101546001600160a01b0316602083015260028101546040808401919091525161105e816110578160038601611707565b03826117b9565b6060830152604051611077816110578160048601611707565b6080830152604051611090816110578160058601611707565b60a08301526040516110a9816110578160068601611707565b60c0830152600781015460e083015260ff600882015416906004821015610ef257600a916101008401526040516110e7816110578160098601611707565b61012084015201546101408201526040518091602082528051602083015260018060a01b0360208201511660408301526040810151606083015260608101516101406111c26111446101609384608088015261018087019061162f565b61118e61117a611166608088015193601f1994858b83030160a08c015261162f565b60a0880151848a83030160c08b015261162f565b60c0870151838983030160e08a015261162f565b9060e08601516101008801526111ae61010087015161012089019061166f565b61012086015190878303018488015261162f565b920151908301520390f35b50600254811115611001565b346101955760203660031901126101955760043560005260066020526020604060002054604051908152f35b3461019557611213366115be565b6000549091906001600160a01b0316330361019557600052600560205260406000209081549181831061019557600080808481946112518289611989565b9055818115611265575b3390f11561093e57005b506108fc61125b565b3461019557606036600319011261019557600435602435801515808203610195576001600160401b0392604435848111610195576112b0903690600401611602565b92909433600052602093600c855260ff60406000205416156101955783151580611555575b156101955783600052600d8552604060002033600052855260ff6040600020541661019557836000526007855260ff600860406000200154166004811015610ef2576101955783600052600d8552604060002033600052855260406000209660019660ff1998888a8254161790556000146114675750505081600052600e835260406000206113648154611820565b90555b604051908152817f1fb14b3bf3798c268811f880a4b800a6140774e15e3d530fa663451c0d263b60843393a36000818152600e83526040902054600211611439576000938493600a61141986958695865260078152604086209360028501549581600887019182541617905585875260068252604087206113e88154611820565b9055840180546001600160a01b0390811688529184905260408720805461140e90611820565b9055541680946118d8565b91015560045490828215611430575bf11561093e57005b506108fc611428565b509050600f81526002604060002054101561145057005b600790526002600860406000200191825416179055005b84600052600f8652604060002061147e8154611820565b90558161148e575b505050611367565b846000526007865260096040600020019282116107705781906114b5826105c786546116cd565b600090601f83116001146114f2576000926114e7575b5050600019600383901b1c191690861b1790555b858080611486565b0135905088806114cb565b889350601f1983169185600052886000209260005b8a82821061153f5750508411611525575b505050811b0190556114df565b0135600019600384901b60f8161c19169055888080611518565b8385013586558c97909501949283019201611507565b506002548411156112d5565b3461019557602036600319011261019557600435600052600f6020526020604060002054604051908152f35b346101955761159b366115be565b90600052600860205260406000208054821015610195576020916102f7916115d4565b6040906003190112610195576004359060243590565b80548210156115ec5760005260206000200190600090565b634e487b7160e01b600052603260045260246000fd5b9181601f84011215610195578235916001600160401b038311610195576020838186019501011161019557565b919082519283825260005b84811061165b575050826000602080949584010152601f8019910116010190565b60208183018101518483018201520161163a565b906004821015610ef25752565b600435906001600160a01b038216820361019557565b6020908160408183019282815285518094520193019160005b8281106116b9575050505090565b8351855293810193928101926001016116ab565b90600182811c921680156116fd575b60208310146116e757565b634e487b7160e01b600052602260045260246000fd5b91607f16916116dc565b9060009291805491611718836116cd565b91828252600193848116908160001461177a575060011461173a575b50505050565b90919394506000526020928360002092846000945b838610611766575050505001019038808080611734565b80548587018301529401938590820161174f565b9294505050602093945060ff191683830152151560051b01019038808080611734565b61016081019081106001600160401b0382111761077057604052565b601f909101601f19168101906001600160401b0382119082101761077057604052565b919082018092116117e957565b634e487b7160e01b600052601160045260246000fd5b908060209392818452848401376000828201840152601f01601f1916010190565b60001981146117e95760010190565b90601f811161183d57505050565b600091825260208220906020601f850160051c83019410611879575b601f0160051c01915b82811061186e57505050565b818155600101611862565b9092508290611859565b8054600160401b811015610770576118a0916001820181556115d4565b819291549060031b91821b91600019901b1916179055565b81156118c2570490565b634e487b7160e01b600052601260045260246000fd5b600090815260056020526040812054600660205260408220549081156119825781611902916118b8565b6001600160a01b039093168252600a60205260408220546064808202918015908304909114171561196e5790611937916118b8565b9081830291838304148315171561195a57509060646119579204906117dc565b90565b634e487b7160e01b81526011600452602490fd5b634e487b7160e01b83526011600452602483fd5b5050905090565b919082039182116117e95756fec288837f892a922779b110a95d4f6b6fd25014b842c27a70e5fa038aaad1fc0660803461007757601f61159238819003918201601f19168301916001600160401b0383118484101761007c5780849260209460405283398101031261007757516001600160a01b0381169081900361007757600080546001600160a01b0319169190911781556001556040516114ff90816100938239f35b600080fd5b634e487b7160e01b600052604160045260246000fdfe6080604052600436101561001257600080fd5b60003560e01c80630511f07214610ff95780630686108d14610edc5780630bf3f62814610e685780630d11ead014610db057806310701fc714610d465780631f66aa6a14610bce57806324b5b98014610b565780632b673a2e14610b1357806346869f0614610aa857806374924cea14610a785780639cd33c4c14610a2e578063b02c059314610950578063b91ef52d1461091f578063beb3f17514610858578063d8847b041461076c578063dfd4d31d146106e4578063e80db5db146106bb578063f2b75ce11461069d578063f55e9a34146101e7578063f8f37167146101605763fae5a3551461010357600080fd5b3461015b57604036600319011261015b5761011c611043565b6001600160a01b031660009081526007602052604090208054602435919082101561015b5760209161014d9161106f565b90546040519160031b1c8152f35b600080fd5b3461015b57604036600319011261015b5760c061017b611059565b6004356000526002602052604060002060018060a01b0380921660005260205260406000209081541690600181015490600281015460038201549060ff6005600485015494015416936040519586526020860152604085015260608401526080830152151560a0820152f35b3461015b57608036600319011261015b576024356001600160401b03811161015b5761021790369060040161109d565b6044356001600160401b03811161015b5761023690369060040161109d565b906064356001600160401b03811161015b5761025690369060040161109d565b9093610264336004356112ff565b1561015b576102746001546112b9565b6001818155600082815260056020526040902080546001600160a01b031916331781556004359181019190915590956001600160401b038311610505576102be600283015461115b565b601f8111610656575b50826000601f82116001146105e6576000916105db575b508360011b906000198560031b1c19161760028301555b6001600160401b03861161050557610310600383015461115b565b601f8111610594575b50856000601f82116001146105265760009161051b575b508660011b906000198860031b1c19161760038301555b6001600160401b03841161050557610362600483015461115b565b601f81116104be575b5091602097918793600090601f8711600114610437579580600693926000805160206114df833981519152979860009261042c575b50508160011b916000199060031b1c19161760048201555b4260058201550160ff198154169055600435600052600688526103df846040600020611284565b33600052600788526103f5846040600020611284565b61042161040f6040519384936040855260408501916112de565b8281038a8401523397600435976112de565b0390a4604051908152f35b013590508c806103a0565b600483979297016000528a6000209660005b601f19841681106104a45750916000805160206114df83398151915296976001926006959483601f1981161061048a575b505050811b0160048201556103b8565b0135600019600384901b60f8161c191690558c808061047a565b8183013589556001909801978b9750908c01908c01610449565b600483016000526020600020601f860160051c8101602087106104fe575b601f830160051c820181106104f257505061036b565b600081556001016104dc565b50806104dc565b634e487b7160e01b600052604160045260246000fd5b905085013589610330565b90506003830160005260206000209060005b601f198916811061057c575087601f19811610610562575b5050600186811b016003830155610347565b860135600019600389901b60f8161c191690558880610550565b9091602060018192858b013581550193019101610538565b600383016000526020600020601f880160051c8101602089106105d4575b601f830160051c820181106105c8575050610319565b600081556001016105b2565b50806105b2565b9050880135896102de565b90506002830160005260206000209060005b8a601f198716821061063e57505084601f19811610610624575b5050600183811b0160028301556102f5565b890135600019600386901b60f8161c191690558880610612565b600183946020939484930135815501930191016105f8565b600283016000526020600020601f850160051c810160208610610696575b601f830160051c8201811061068a5750506102c7565b60008155600101610674565b5080610674565b3461015b57600036600319011261015b576020600154604051908152f35b3461015b57600036600319011261015b576000546040516001600160a01b039091168152602090f35b3461015b5760208060031936011261015b576001600160a01b03610706611043565b1660005260078152604060002090604051908181845491828152019360005281600020916000905b828210610755576107518561074581890382611261565b604051918291826110ca565b0390f35b83548652948501946001938401939091019061072e565b3461015b57604036600319011261015b5760c0610787611059565b600060a060405161079781611246565b82815282602082015282604082015282606082015282608082015201526004356000526002602052604060002060018060a01b03809216600052602052604060002090604051906107e782611246565b825416918282526001810154602083019081526002820154604084019081526003830154916060850192835260a060ff6005600487015496608089019788520154169501941515855260405195865251602086015251604085015251606084015251608083015251151560a0820152f35b3461015b57606036600319011261015b57600435610874611059565b906044356001600160401b03811161015b5761089490369060040161109d565b6000546001600160a01b039291908316330361015b576108b485856112ff565b1561015b577f2b7cc58f47bc3d7d428c5762884c66772aa45284346b22c89c302ca629b40b2492846000526002602052604060002095169485600052602052600560406000200160ff19815416905561091a6040519283926020845260208401916112de565b0390a3005b3461015b5761092d36611145565b9060005260066020526040600020805482101561015b5760209161014d9161106f565b3461015b57602036600319011261015b576004356000526005602052604060002060018060a01b0381541660018201549160405161099c816109958160028601611195565b0382611261565b610a1d6040516109b3816109958160038801611195565b610a0f604051916109d2836109cb8160048a01611195565b0384611261565b610a0160ff600660058901549801541695604051998a998a5260208a015260e060408a015260e0890190611105565b908782036060890152611105565b908582036080870152611105565b9160a0840152151560c08301520390f35b3461015b57610a3c36611145565b9060005260036020526040600020805482101561015b57602091610a5f9161106f565b905460405160039290921b1c6001600160a01b03168152f35b3461015b57604036600319011261015b576020610a9e610a96611059565b6004356112ff565b6040519015158152f35b3461015b57604036600319011261015b5760043560243580151580910361015b5760207f34a69aa246faebb040cfbb55e844a1dccd2fb78d06ede59e71383023b582517d918360005260058252600660406000200160ff1981541660ff8316179055604051908152a2005b3461015b57602036600319011261015b57610b2c611043565b600054906001600160a01b0390818316330361015b576001600160a01b0319909216911617600055005b3461015b5760208060031936011261015b576001600160a01b03610b78611043565b1660005260048152604060002090604051908181845491828152019360005281600020916000905b828210610bb7576107518561074581890382611261565b835486529485019460019384019390910190610ba0565b3461015b5760208060031936011261015b5760405190610bed8261122b565b6000825280820160009052606091826040820152828082015282608082015260a081016000905260c0016000905260043560005260058152604060002060405191610c378361122b565b81546001600160a01b0390811684526001830154828501908152604051919582610c648160028801611195565b03610c6f9084611261565b6040868101938452519283610c878160038901611195565b03610c929085611261565b8682019384526040519283610caa8160048a01611195565b03610cb59085611261565b6080880193845260058701549660a089019788526006015460ff169560c089019615158752604051998a99828b525116908901525160408801525190860160e090526101008601610d0591611105565b9151601f199283878203016080880152610d1e91611105565b9051918582030160a0860152610d3391611105565b915160c084015251151560e08301520390f35b3461015b5760208060031936011261015b5760043560005260068152604060002090604051908181845491828152019360005281600020916000905b828210610d99576107518561074581890382611261565b835486529485019460019384019390910190610d82565b3461015b5760208060031936011261015b5760043560005260038152604060002060405190818382549182815201908192600052846000209060005b86828210610e4b578686610e0282880383611261565b604051928392818401908285525180915260408401929160005b828110610e2b57505050500390f35b83516001600160a01b031685528695509381019392810192600101610e1c565b83546001600160a01b031685529093019260019283019201610dec565b3461015b57606036600319011261015b576001600160401b0360243581811161015b57610e9990369060040161109d565b60449291923591821161015b57604092610eba610ec593369060040161109d565b9290916004356113a6565b825191151582526001600160a01b03166020820152f35b3461015b57606036600319011261015b57600435610ef8611059565b9060443560018060a01b038060005416330361015b57610f1884846112ff565b61015b5782600052600260205280604060002094169384600052602052600560406000208560018060a01b03198254161781558460018201558360028201554260038201556000600482015501600160ff19825416179055826000526003602052604060002091825491600160401b83101561050557610fc1837f60d371ec2b2ecd297567c3935ef1d2823e7d4b3abb46d49650e4dc708f1b0c6895600160409601815561106f565b819291549060031b9188831b921b1916179055846000526004602052610fea8483600020611284565b815190815260006020820152a3005b3461015b57604036600319011261015b57611012611043565b6001600160a01b031660009081526004602052604090208054602435919082101561015b5760209161014d9161106f565b600435906001600160a01b038216820361015b57565b602435906001600160a01b038216820361015b57565b80548210156110875760005260206000200190600090565b634e487b7160e01b600052603260045260246000fd5b9181601f8401121561015b578235916001600160401b03831161015b576020838186019501011161015b57565b6020908160408183019282815285518094520193019160005b8281106110f1575050505090565b8351855293810193928101926001016110e3565b919082519283825260005b848110611131575050826000602080949584010152601f8019910116010190565b602081830181015184830182015201611110565b604090600319011261015b576004359060243590565b90600182811c9216801561118b575b602083101461117557565b634e487b7160e01b600052602260045260246000fd5b91607f169161116a565b90600092918054916111a68361115b565b91828252600193848116908160001461120857506001146111c8575b50505050565b90919394506000526020928360002092846000945b8386106111f45750505050010190388080806111c2565b8054858701830152940193859082016111dd565b9294505050602093945060ff191683830152151560051b010190388080806111c2565b60e081019081106001600160401b0382111761050557604052565b60c081019081106001600160401b0382111761050557604052565b601f909101601f19168101906001600160401b0382119082101761050557604052565b8054600160401b811015610505576112a19160018201815561106f565b819291549060031b91821b91600019901b1916179055565b60001981146112c85760010190565b634e487b7160e01b600052601160045260246000fd5b908060209392818452848401376000828201840152601f01601f1916010190565b60009081526002602090815260408083206001600160a01b03948516808552925282206005810154919392909160ff161561134f5760048201548015159081611356575b5061134f575054161490565b9250505090565b9050421138611343565b9192916001600160401b0382116105055760405191611389601f8201601f191660200184611261565b82948184528183011161015b578281602093846000960137010152565b90929360009482865260209060068252604094858820978651808a86829c54938481520190845286842092845b888282106114c8575050506113ea9250038a611261565b805b89518110156114b95760058582821b8c010151835285528782208851611419816109958160028601611195565b86815191012061142a36868d611360565b8781519101201480611488575b8061146d575b611450575061144b906112b9565b6113ec565b5460019b6001600160a01b039091169a5098505050505050505050565b508054611483906001600160a01b0316896112ff565b61143d565b50885161149c816109958160048601611195565b8681519101206114ad368988611360565b87815191012014611437565b50989750505050505050508190565b855484526001958601958f9550930192016113d356fe29ef76f5f3174f4f75c9bb52556128a12decb6cef4c5edd7bc90de4b886e97b96080346100ad57601f61116f38819003918201601f19168301916001600160401b038311848410176100b25780849260409485528339810103126100ad57610052602061004b836100c8565b92016100c8565b610e106002556210000060035560018060a01b03908160018060a01b03199316836000541617600055169060015416176001553360005260076020526040600020600160ff1982541617905560405161109290816100dd8239f35b600080fd5b634e487b7160e01b600052604160045260246000fd5b51906001600160a01b03821682036100ad5756fe6040608081526004908136101561001557600080fd5b600091823560e01c9081630511f07214610d0357816312494caa14610bd7578382631f276b6e14610b5357508163238ec8b514610a5857816324b5b980146109ab5781632cae79cf1461098c5781635c55e8db146109615781635d67dc43146107e9578163616a0630146107bc57816361c992a31461077e57816366b340cc146106ab5781636b7c424b146106805781636e738e2d1461062a5781637badbe87146102b057816381675b70146103ab5781638d2ab78e14610330578163a90b538e14610311578163c2fda487146102e8578163c51fd876146102b0578163c531003714610263578163df5dd1a5146101f7578163e80db5db146101cf578163ef28a92d1461019d575063fdc85fc41461012d57600080fd5b3461019957602036600319011261019957610146610d59565b82546001600160a01b0391908216330361019557168083526007602052908220805460ff191690557f9c8e7d83025bef8a04c664b2f753f64b8814bdb7e27291d7e50935f18cc3c7128280a280f35b8380fd5b5080fd5b8284346101cc57816003193601126101cc57506101c56020926101be610d74565b9035610e9c565b9051908152f35b80fd5b505034610199578160031936011261019957905490516001600160a01b039091168152602090f35b50503461019957602036600319011261019957610212610d59565b82546001600160a01b0391908216330361019557168083526007602052908220805460ff191660011790557e47706786c922d17b39285dc59d696bafea72c0b003d3841ae1202076f4c2e48280a280f35b9050346102ac5760203660031901126102ac5760809281839235825260205220908154916001810154916003600283015492015492815194855260208501528301526060820152f35b8280fd5b5050346101995760203660031901126101995760209181906001600160a01b036102d8610d59565b1681526006845220549051908152f35b50503461019957816003193601126101995760015490516001600160a01b039091168152602090f35b5050346101995781600319360112610199576020906002549051908152f35b905060203660031901126102ac578254813592906001600160a01b03163303610195573415610195577f8c52464a753085ace2e8b69c69227990c011110dacbee4c1ac3f4c4137ea70669183855280602052818520610390348254610db8565b9055838552602052808420548151903482526020820152a280f35b9050346102ac5760a03660031901126102ac578035906103c9610d74565b926044359160643590608435953388526020916007835260ff858a2054168015610618575b15610614578789526008835260ff858a2054166106145760018060a01b03906001986104348585858d54168c8b51809581948293633a49267560e11b84528a8401610e47565b03915afa90811561060a578c916105dd575b50156105d95760035488106105d9578a5260088452858a209160ff19928a84825416179055888b5281855280878c209416998a8c528285018652878c20938b8554848116156104e8575b50505050506000805160206110728339815191529694928260039260026060999795016104be898254610db8565b9055858483015542910155016104d5858254610db8565b905582519384528301524290820152a380f35b6001600160a01b0319161785558185018b905560068501805490911682179055600585018054600160401b9391848210156105c6578161052d918f9386018155610d8a565b909283549160031b92831b921b19161790556002850161054d8154610e60565b90558a8c5260058652878c20908154928310156105b3579261058d8360609a9896936003966000805160206110728339815191529d9b9996018155610d8a565b815490861b908d821b91600019901b191617905592829597995081949698508b38610490565b634e487b7160e01b8d526041845260248dfd5b634e487b7160e01b8f526041865260248ffd5b8a80fd5b6105fd9150863d8811610603575b6105f58183610e0c565b810190610e2f565b38610446565b503d6105eb565b88513d8e823e3d90fd5b8880fd5b50336001600160a01b038316146103ee565b919050346102ac57806003193601126102ac57610645610d74565b83546001600160a01b03908116330361067c578360069435865280602052838620019116845260205282200160ff19815416905580f35b8480fd5b8390346101995760203660031901126101995781546001600160a01b03163303610199573560025580f35b9050346102ac57602090816003193601126101955780358452815281832092835460019283860154946002870154966005600382015491019782519283858b54918281520190819b895286892090895b8181106107625750505084610711910385610e0c565b80519860a08a01968a52858a0152880152606087015260a060808701525180925260c0850195925b8281106107465785870386f35b83516001600160a01b0316875295810195928101928401610739565b82546001600160a01b0316845292880192918b01918b016106fb565b5050346101995760203660031901126101995760209160ff9082906001600160a01b036107a9610d59565b1681526007855220541690519015158152f35b9050346102ac5760203660031901126102ac578160209360ff923581526008855220541690519015158152f35b919050346102ac576020918260031936011261019557803580855281845282852091825493600193848101958654101561095d57849588908994600595868501918501985b610836578b80f35b8154811015610959578b61084a8284610d8a565b60018060a01b0391549060031b1c168082528a8d528c8883209260068c60ff8287015416610888575b50505050505061088290610e60565b8961082e565b8461089291610e9c565b928c841596871580610944575b6108ae575b505092508c610873565b9a86979b936108f3938798959388979894016108cb858254610db8565b9055858852528d86206108df838254610db8565b90556108ec828c54610db8565b8b55610db8565b98839061093b575b839283928392f1156109315790896000805160206110528339815191528e61088295948b51908152a39038808e818f8c826108a4565b87513d8f823e3d90fd5b506108fc6108fb565b508c54610952878d54610db8565b111561089f565b8b80f35b8780fd5b8390346101995760203660031901126101995781546001600160a01b03163303610199573560035580f35b5050346101995781600319360112610199576020906003549051908152f35b8284346101cc57602090816003193601126101cc5782906001600160a01b036109d2610d59565b16815260058352818120908251808584549182815201908194845286842090845b818110610a445750505081610a09910382610e0c565b83519485948186019282875251809352850193925b828110610a2d57505050500390f35b835185528695509381019392810192600101610a1e565b8254845292880192600192830192016109f3565b919050346102ac57806003193601126102ac57918260e093610a78610d74565b928060c08351610a8781610ddb565b82815282602082015282858201528260608201528260808201528260a082015201528435815284602052848282200160018060a01b0380951682526020522090805192610ad384610ddb565b8254169384845260018301549160208501928352600284015481860190815260038501549260608701938452850154936080870194855260c060ff600660058901549860a08b01998a5201541697019615158752825197885251602088015251908601525160608501525160808401525160a083015251151560c0820152f35b915034610199578260031936011261019957815460243591906001600160a01b031633036102ac57803583526020528282206001815491019082610b9983548093610e8f565b106101955782849392610bae85948594610db8565b9055818115610bce575b3390f115610bc4575080f35b51903d90823e3d90fd5b506108fc610bb8565b919050346102ac57602080600319360112610195576001548251633a49267560e11b815284359391839082906001600160a01b03168180610c1b338a838d01610e47565b03915afa908115610cf9578691610cdc575b501561067c57610c3d3384610e9c565b938415610cd857838652808352818620903387528101835281862060018254920191610c6a878454610db8565b11610cd457600501610c7d868254610db8565b905533865260068352818620610c94868254610db8565b9055610ca1858254610db8565b905584808080873382f115610ccb579060008051602061105283398151915291519384523393a380f35b513d85823e3d90fd5b8680fd5b8580fd5b610cf39150833d8511610603576105f58183610e0c565b38610c2d565b82513d88823e3d90fd5b505034610199578060031936011261019957610d1d610d59565b6001600160a01b031682526005602052808220805460243593908410156101cc5750602092610d4b91610d8a565b91905490519160031b1c8152f35b600435906001600160a01b0382168203610d6f57565b600080fd5b602435906001600160a01b0382168203610d6f57565b8054821015610da25760005260206000200190600090565b634e487b7160e01b600052603260045260246000fd5b91908201809211610dc557565b634e487b7160e01b600052601160045260246000fd5b60e081019081106001600160401b03821117610df657604052565b634e487b7160e01b600052604160045260246000fd5b601f909101601f19168101906001600160401b03821190821017610df657604052565b90816020910312610d6f57518015158103610d6f5790565b9081526001600160a01b03909116602082015260400190565b6000198114610dc55760010190565b8115610e79570490565b634e487b7160e01b600052601260045260246000fd5b91908203918211610dc557565b60008181526004916020908382526040918284209560018060a01b03809116855285870182528385209360ff90600691808388015416158015611045575b61103857600287015491611b5892838102938185041490151715611025578a610f0a600394858093015490610e6f565b98015496610bb89788810298818a0414901517156110125789528986528089209489968a91600588018d81549901935b8d8a8210610fc55750610f6d9c9b610f679b909a5098505087159650610fbc955050505050505790610e6f565b90610db8565b9161271093848411610fb4575b806001610f8b925491015490610e8f565b838102938185041490151715610fa15750500490565b634e487b7160e01b825260119052602490fd5b849350610f7a565b50600190610e6f565b869084610fd28486610d8a565b9054908c1b1c16815286865220878a82015416610ff9575b50610ff490610e60565b610f3a565b610ff4919b8961100b92015490610db8565b9a90610fea565b634e487b7160e01b8a5260118b5260248afd5b634e487b7160e01b895260118a52602489fd5b5050505050505091505090565b5060038a015415610eda56fe3b127b03427f8c24b1ea11ef9f5052899e072db64611f99ac51847608c5bc83f301e5c1cd63a63f5de97846ba38770fce5404b529a0c56a407d14f9c155d046660808060405234610084576001600055331561006e5760018054336001600160a01b03198216811790925560405191906001600160a01b03167f8be0079c531659141344cd1fd0a4f28419497f9722a3daafe3b4186f6b6457e0600080a36000600255612013908161008a8239f35b631e4fbdf760e01b815260006004820152602490fd5b600080fdfe6080604052600436101561001257600080fd5b60003560e01c806326bfde7514611347578063482f20a6146113165780634c24c2c8146112f05780634ff14874146112ce578063539f51db146112d3578063558e44d3146112ce578063715018a6146112835780637509c330146111665780638da5cb5b1461113d578063a7a512f814611114578063a9f5c95314610ebd578063ae81372914610e82578063b36b9ffd14610e59578063b5ecf91214610d5f578063c0c53b8b14610cde578063c2fda48714610cb5578063c55d0f5614610c8f578063c8a028a814610b2b578063d0272f9b14610b0d578063d0feffb014610ace578063d62182f714610a4b578063db2e21bc146109f7578063dc19ea0e146105ae578063dfe6b5d61461051e578063e6a9aba314610500578063f00084fb146102fd578063f2fde38b14610287578063f8b688f5146101e35763fd1a98a51461015b57600080fd5b346101d25760203660031901126101d257600435801515806101d7575b156101d25760005260076020526101c0604060002060086020526101ce6101ac6101a6604060002093611d69565b92611d69565b6040519384936040855260408501906116cf565b9083820360208501526116cf565b0390f35b600080fd5b50600254811115610178565b346101d2576101f136611524565b9081156101d257606482116101d25761020982611aa2565b9060005b83811061022a57604051602080825281906101ce908201866116cf565b610235818584611ad4565b35151580610270575b156101d2578061025b61025561026b938786611ad4565b35611af8565b6102658286611ae4565b52611752565b61020d565b5061027c818584611ad4565b35600254101561023e565b346101d25760203660031901126101d2576102a06116a3565b6102a8611703565b6001600160a01b039081169081156102e457600180546001600160a01b03198116841790915516600080516020611fd3833981519152600080a3005b604051631e4fbdf760e01b815260006004820152602490fd5b346101d25761030b36611524565b9081156101d257606482116101d25761032382611a8b565b9161033160405193846115da565b808352601f1961034082611a8b565b0160005b8181106104e957505060005b8181106103b6576040805160208082528651818301819052600093600582901b8401810192808a01929185015b82871061038a5785850386f35b9091929382806103a6600193603f198a82030186528851611462565b960192019601959291909261037d565b6103c1818385611ad4565b351515806104d2575b156101d257806103de6104cd928486611ad4565b356000526006602090808252604060002090604051926103fd846115ab565b82546001600160a01b0316845260018301549084015261041f600283016115fd565b60408401526003820154606084015260048201546080840152600582015460a084015281015460c0830152600781015460e0830152600b600891828101546101008501526009810154610120850152600a8101546101408501520154809160ff928391610492838316610160880161177c565b1c16610180840152818160101c166101a084015260181c1615156101c08201526104bc8287611ae4565b526104c78186611ae4565b50611752565b610350565b506104de818385611ad4565b3560025410156103ca565b6020906104f4611cf9565b82828801015201610344565b346101d25760003660031901126101d2576020600254604051908152f35b346101d25760003660031901126101d257600254600090600060015b8281111561055357506101ce90604051938493846116b9565b8060005260066105716020958287526009604060002001549061172f565b94826000525260ff600b6040600020015460181c16610599575b61059490611752565b61053a565b906105a661059491611752565b91905061058b565b346101d2576101003660031901126101d2576001600160401b03602435116101d2573660236024350112156101d2576001600160401b0360046024350135116101d25736602480356004013581350101116101d257600260443510156101d257606460c435116101d257606460e435116101d257606461063260e43560c43561172f565b116101d257606435156101d257600435156101d25760243560040135156101d2576001604435146109df575b610669600254611752565b80600255604051610679816115ab565b338152600435602082015261069360243560040135611761565b6106a060405191826115da565b6024803560048101358084529101602083013760006020602435600401358301015260408201526064356060820152606435608082015260843560a082015260a43560c08201524260e0820152600061010082015260006101208201526000610140820152610715604435610160830161177c565b60ff60c4351661018082015260ff60e435166101a082015260016101c082015281600052600660205260406000209160018060a01b0382511660018060a01b031984541617835560208201516001840155604082015192835160018060401b0381116109c9576107886002830154611571565b601f8111610982575b506020601f8211600114610911578190600b949596600092610906575b50508160011b916000199060031b1c19161760028201555b606084015160038201556080840151600482015560a0840151600582015560c0840151600682015560e0840151600782015561010084015160088201556101208401516009820155610140840151600a82015501916101608101519260028410156108f0576101c061086d92602095835461ff0061018084015160081b169060ff62ff00006101a086015160101b1693169062ffffff191617171783550151151590611788565b806000526007825261088560643560406000206117a4565b806000526008825261089b4260406000206117a4565b60405160043581526108b1838201604435611455565b60643560408201526084356060820152817f505543113d9d1a281874815cee76fc95d191d999c006617d2c176495cb948b5860803393a3604051908152f35b634e487b7160e01b600052602160045260246000fd5b0151905086806107ae565b601f198216956002840160005260206000209660005b81811061096a575091600b95969791846001959410610951575b505050811b0160028201556107c6565b015160001960f88460031b161c19169055868080610941565b83830151895560019098019760209384019301610927565b600283016000526020600020601f830160051c8101602084106109c2575b601f830160051c820181106109b6575050610791565b600081556001016109a0565b50806109a0565b634e487b7160e01b600052604160045260246000fd5b608435156101d257606460a435101561065e57600080fd5b346101d25760003660031901126101d257610a10611703565b610a18611837565b4780156101d2576001546000918291829182916001600160a01b03165af1610a3e611807565b50156101d2576001600055005b346101d25760203660031901126101d25760043580151580610ac2575b156101d257600090815260066020526040902054336001600160a01b0391821614908115610ab4575b50156101d257600960205260006040812055600a60205260006040812055600080f35b905060015416331481610a91565b50600254811115610a68565b346101d257610adc366113b5565b906000526008602052604060002080548210156101d257602091610aff916113cb565b90546040519160031b1c8152f35b346101d25760003660031901126101d2576020604051620186a08152f35b60203660031901126101d25760043580151580610c83575b156101d25780600052600660205260ff600b6040600020015460181c16156101d257610b6d611837565b806000526006602052604060002090610b8581611af8565b918234106101d257610b97838361186d565b6008810190610ba68254611752565b825560098101610bb785825461172f565b9055600a42910155610bc983836119c1565b6003546001600160a01b0316803b156101d25760006040518092630686108d60e01b8252818381610bff8b338c600485016117d9565b03925af18015610c7757610c68575b50833411610c44575b600080516020611ff3833981519152915490610c3a6040519283923397846116b9565b0390a36001600055005b6000808080610c5388346117fa565b335af1610c5e611807565b50610c1757600080fd5b610c71906115c7565b84610c0e565b6040513d6000823e3d90fd5b50600254811115610b43565b346101d25760203660031901126101d2576020610cad600435611af8565b604051908152f35b346101d25760003660031901126101d2576003546040516001600160a01b039091168152602090f35b346101d25760603660031901126101d257610cf76116a3565b6024356001600160a01b03818116918290036101d257604435928184168094036101d257610d23611703565b169081156101d25780156101d25782156101d25760018060a01b0319918260035416176003558160045416176004556005541617600555600080f35b346101d25760203660031901126101d25760043560005260066020526020604060002060018060a01b038154169060ff6001820154610da0600284016115fd565b92600381015493600482015460058301546006840154600785015491600886015493610df5600988015496600b600a8a0154990154996040519e8f9e8f908152015260408d6101e091829101528d0190611415565b9960608c015260808b015260a08a015260c089015260e0880152610100870152610120860152610140850152610e316101608501838316611455565b818160081c16610180850152818160101c166101a085015260181c1615156101c08301520390f35b346101d25760003660031901126101d2576004546040516001600160a01b039091168152602090f35b346101d257610e9036611396565b610e98611703565b81151580610eb1575b156101d257610eaf91611c8c565b005b50600254821115610ea1565b610ec636611524565b610ece611837565b80156101d257603281116101d2576000610ee782611aa2565b60005b83811061107f57508134106101d25760005b838110610f90575050803411610f6c575b60408051818152908101839052906001600160fb1b0383116101d2577fa25f24536407b63286bdae6707ed3e860288bb5f5c648de7dd6dab214485a8e39260051b80946060840137602082015260608133948101030190a26001600055005b6000808080610f7b85346117fa565b335af1610f86611807565b50610f0d57600080fd5b610f9b818587611ad4565b3590610fa78184611ae4565b51826000526006602052604060002092610fc1828261186d565b6008840193610fd08554611752565b855560098101610fe184825461172f565b9055600a42910155610ff382826119c1565b6003546001600160a01b03169490853b156101d25760006040518097630686108d60e01b825281838161102b8a338b600485016117d9565b03925af1918215610c775761106b96600080516020611ff383398151915293611070575b5054906110636040519283923397846116b9565b0390a3611752565b610efc565b611079906115c7565b8b61104f565b9161108b838587611ad4565b351515806110fd575b156101d2576110a4838587611ad4565b35600052600660205260ff600b6040600020015460181c16156101d2576110f26110f8916110d661025586888a611ad4565b6110e08686611ae4565b526110eb8585611ae4565b519061172f565b92611752565b610eea565b50611109838587611ad4565b356002541015611094565b346101d25760003660031901126101d2576005546040516001600160a01b039091168152602090f35b346101d25760003660031901126101d2576001546040516001600160a01b039091168152602090f35b346101d25760203660031901126101d257600435611182611cf9565b5080151580611277575b156101d25760005260066020526101ce604060002060ff600b604051926111b2846115ab565b80546001600160a01b03168452600181015460208501526111d5600282016115fd565b60408501526003810154606085015260048101546080850152600581015460a0850152600681015460c0850152600781015460e085015260088101546101008501526009810154610120850152600a810154610140850152015461123f828216610160850161177c565b818160081c16610180840152818160101c166101a084015260181c1615156101c0820152604051918291602083526020830190611462565b5060025481111561118c565b346101d25760003660031901126101d25761129c611703565b600180546001600160a01b031981169091556000906001600160a01b0316600080516020611fd38339815191528280a3005b6113f9565b346101d25760003660031901126101d257602060405161012c8152f35b346101d25760203660031901126101d257611309611703565b6103e8600435116101d257005b346101d257611324366113b5565b906000526007602052604060002080548210156101d257602091610aff916113cb565b346101d25761135536611396565b8115158061138a575b156101d2576000828152600660205260409020546001600160a01b031633036101d257610eaf91611c8c565b5060025482111561135e565b60409060031901126101d2576004359060243580151581036101d25790565b60409060031901126101d2576004359060243590565b80548210156113e35760005260206000200190600090565b634e487b7160e01b600052603260045260246000fd5b346101d25760003660031901126101d257602060405160648152f35b919082519283825260005b848110611441575050826000602080949584010152601f8019910116010190565b602081830181015184830182015201611420565b9060028210156108f05752565b9060018060a01b0382511681526020820151602082015261149260408301516101e0806040850152830190611415565b91606081015160608301526080810151608083015260a081015160a083015260c081015160c083015260e081015160e08301526101008082015190830152610120808201519083015261014080820151908301526114f96101608083015190840190611455565b61018060ff8183015116908301526101a060ff8183015116908301526101c080910151151591015290565b9060206003198301126101d2576001600160401b0391600435908382116101d257806023830112156101d25781600401359384116101d25760248460051b830101116101d2576024019190565b90600182811c921680156115a1575b602083101461158b57565b634e487b7160e01b600052602260045260246000fd5b91607f1691611580565b6101e081019081106001600160401b038211176109c957604052565b6001600160401b0381116109c957604052565b601f909101601f19168101906001600160401b038211908210176109c957604052565b906040519182600082549261161184611571565b908184526001948581169081600014611680575060011461163d575b505061163b925003836115da565b565b9093915060005260209081600020936000915b81831061166857505061163b9350820101388061162d565b85548884018501529485019487945091830191611650565b91505061163b94506020925060ff191682840152151560051b820101388061162d565b600435906001600160a01b03821682036101d257565b6040919493926060820195825260208201520152565b90815180825260208080930193019160005b8281106116ef575050505090565b8351855293810193928101926001016116e1565b6001546001600160a01b0316330361171757565b60405163118cdaa760e01b8152336004820152602490fd5b9190820180921161173c57565b634e487b7160e01b600052601160045260246000fd5b600019811461173c5760010190565b6001600160401b0381116109c957601f01601f191660200190565b60028210156108f05752565b9063ff000000825491151560181b169063ff0000001916179055565b8054600160401b8110156109c9576117c1916001820181556113cb565b819291549060031b91821b91600019901b1916179055565b9081526001600160a01b039091166020820152604081019190915260600190565b9190820391821161173c57565b3d15611832573d9061181882611761565b9161182660405193846115da565b82523d6000602084013e565b606090565b600260005414611848576002600055565b604051633ee5aeb560e01b8152600490fd5b8181029291811591840414171561173c57565b60ff90600092818452600660205283604081206118bd600b820154936118b860646118af816118a18b8a60081c168661185a565b04998a9860101c168461185a565b049788926117fa565b6117fa565b80611997575b5050508061193a575b50816118d757505050565b6004546001600160a01b031690813b156119365790602484926040519485938492637c8efce360e01b845260048401525af1801561192b57611917575050565b61192182916115c7565b6119285750565b80fd5b6040513d84823e3d90fd5b8380fd5b6005546001600160a01b0316803b156119935784906024604051809481936346955bc760e11b83528760048401525af1801561198857156118cc57611981909391936115c7565b91386118cc565b6040513d86823e3d90fd5b8480fd5b9054829182918291906001600160a01b03165af16119b3611807565b5015611936578338806118c3565b60008181526006602052604080822060ff600b820154166002811015611a775715611a705793611a6a7fc6d3da45896ce1bca9d198309a2dbeea3c73a991748f8d88d796ffa06029de9393926008611a5d97611a1c88611db8565b98899687600484015589815260096020528785822055600a60205242858220556007602052611a4d888683206117a4565b89815283602052844291206117a4565b01549051938493846116b9565b0390a290565b5050505090565b634e487b7160e01b84526021600452602484fd5b6001600160401b0381116109c95760051b60200190565b90611aac82611a8b565b611ab960405191826115da565b8281528092611aca601f1991611a8b565b0190602036910137565b91908110156113e35760051b0190565b80518210156113e35760209160051b010190565b80151580611b12575b156101d257611b0f90611b1e565b90565b50600254811115611b01565b600090808252600660205260409182812092805190611b3c826115ab565b84546001600160a01b0316825260018501546020830152611b5f600286016115fd565b8183015260038501546060830152600b60048601549560808401968752600581015460a0850152600681015460c0850152600781015460e085015260088101546101008501526009810154610120850152600a8101546101408501520154916101c060ff610160830194611bd58282168761177c565b818160081c16610180850152818160101c166101a085015260181c16151591015281516002811015611a775760011480611c78575b80611c59575b611c49575051906002821015611c35575015611c3057611b0f9150611db8565b505190565b634e487b7160e01b81526021600452602490fd5b9350509081526009602052205490565b50838352600a60205261012c611c7282852054426117fa565b10611c10565b50838352600a602052808320541515611c0a565b9060207f70d73d81e52a2dca11d75c71d0f5006dfee7a734c401a87c32f0939f26461aee91600084815260068352611cca82600b6040842001611788565b60098352604081208054611ce6575b50506040519015158152a2565b819055600a835260408120553880611cd9565b60405190611d06826115ab565b816101c0600091828152826020820152606060408201528260608201528260808201528260a08201528260c08201528260e08201528261010082015282610120820152826101408201528261016082015282610180820152826101a08201520152565b9060405191828154918282526020928383019160005283600020936000905b828210611d9e5750505061163b925003836115da565b855484526001958601958895509381019390910190611d88565b60005260066020526040600020604051611dd1816115ab565b81546001600160a01b0316815260018201546020820152611df4600283016115fd565b604082015260038201546060820152600b60048301549260808301938452600581015460a0840152600681015460c0840152600781015460e084015260088101546101008401526009810154610120840152600a810154610140840152015460ff610160830191611e678282168461177c565b818160081c16610180850152818160101c166101a085015260181c1615156101c08301525160028110156108f05715611c3057611b0f91506060810180519060c0611ec7610100850193611ec1855160a08801519061185a565b9061172f565b9301519060648211801590611f21575b611f1b57611eec611f00926064945190611f2a565b90620186a0808311611f13575b505161185a565b049080821115611f0e575090565b905090565b915038611ef9565b50505090565b50825115611ed7565b908015611fcb576001808214611fc65760648093835b611f4b575050505090565b8280851614611f96575b8015611f815780600019048111611f7c57611f7181839261185a565b0492821c9283611f40565b611a70565b60246000634e487b7160e01b81526012600452fd5b938415611f815784600019048111611fba57611fb385839261185a565b0493611f55565b5050505050620186a090565b505090565b505060649056fe8be0079c531659141344cd1fd0a4f28419497f9722a3daafe3b4186f6b6457e03c643b89a81273a1160fc920ed10ca2aba86a40b58b30303efffe886744cb758","opcodes":"PUSH1 0x80 DUP1 PUSH1 0x40 MSTORE CALLVALUE PUSH2 0x1C JUMPI PUSH2 0x65DF SWAP1 DUP2 PUSH2 0x22 DUP3 CODECOPY ADDRESS DUP2 PUSH1 0x3D ADD MSTORE RETURN JUMPDEST PUSH1 0x0 DUP1 REVERT INVALID PUSH1 0x80 PUSH1 0x40 DUP2 DUP2 MSTORE PUSH1 0x4 SWAP1 DUP2 CALLDATASIZE LT ISZERO PUSH2 0x16 JUMPI PUSH1 0x0 DUP1 REVERT JUMPDEST PUSH1 0x0 SWAP3 DUP4 CALLDATALOAD PUSH1 0xE0 SHR SWAP1 DUP2 PUSH4 0xA454A01 EQ PUSH2 0x2AA JUMPI POP PUSH4 0x547BEFB7 EQ PUSH2 0x3A JUMPI PUSH1 0x0 DUP1 REVERT JUMPDEST ADDRESS PUSH32 0x0 EQ PUSH2 0x2A6 JUMPI DUP3 PUSH1 0x3 NOT CALLDATASIZE ADD SLT PUSH2 0x2A6 JUMPI DUP3 PUSH1 0x60 DUP3 MLOAD PUSH2 0x7A DUP2 PUSH2 0x342 JUMP JUMPDEST DUP3 DUP2 MSTORE PUSH1 0x20 DUP2 ADD DUP4 SWAP1 MSTORE DUP4 DUP2 ADD DUP4 SWAP1 MSTORE ADD MSTORE DUP1 MLOAD PUSH1 0x1 PUSH1 0x1 PUSH1 0x40 SHL SUB SWAP4 SWAP1 PUSH2 0x209D DUP1 DUP3 ADD SWAP1 DUP7 DUP3 GT DUP4 DUP4 LT OR PUSH2 0x293 JUMPI SWAP1 DUP3 SWAP2 PUSH2 0x4542 DUP4 CODECOPY SUB SWAP1 DUP3 CREATE SWAP2 DUP3 ISZERO PUSH2 0x289 JUMPI DUP1 MLOAD PUSH1 0x1 PUSH1 0x1 PUSH1 0xA0 SHL SUB SWAP4 DUP5 AND SWAP5 SWAP1 PUSH2 0x1592 DUP1 DUP3 ADD SWAP1 DUP9 DUP3 GT DUP4 DUP4 LT OR PUSH2 0x276 JUMPI PUSH1 0x20 SWAP2 DUP4 SWAP2 PUSH2 0x1E41 DUP4 CODECOPY DUP9 DUP2 MSTORE SUB ADD SWAP1 DUP5 CREATE DUP1 ISZERO PUSH2 0x26A JUMPI DUP5 AND SWAP1 DUP3 MLOAD PUSH2 0x1AA0 DUP1 DUP3 ADD SWAP1 DUP3 DUP3 LT DUP11 DUP4 GT OR PUSH2 0x257 JUMPI DUP5 DUP10 DUP5 SWAP4 PUSH2 0x11F SWAP4 PUSH2 0x3A1 DUP7 CODECOPY PUSH2 0x386 JUMP JUMPDEST SUB SWAP1 DUP6 CREATE SWAP7 DUP8 ISZERO PUSH2 0x24A JUMPI DUP4 MLOAD SWAP1 PUSH2 0x116F DUP1 DUP4 ADD SWAP2 DUP3 GT DUP4 DUP4 LT OR PUSH2 0x257 JUMPI DUP5 DUP10 DUP5 SWAP4 PUSH2 0x150 SWAP4 PUSH2 0x33D3 DUP7 CODECOPY PUSH2 0x386 JUMP JUMPDEST SUB SWAP1 DUP6 CREATE SWAP7 DUP8 ISZERO PUSH2 0x24A JUMPI DUP6 AND SWAP7 DUP6 AND SWAP4 DUP7 EXTCODESIZE ISZERO PUSH2 0x220 JUMPI DUP4 MLOAD PUSH4 0xC0C53B8B PUSH1 0xE0 SHL DUP2 MSTORE DUP4 DUP4 DUP3 ADD MSTORE DUP9 PUSH1 0x24 DUP3 ADD MSTORE DUP6 PUSH1 0x44 DUP3 ADD MSTORE DUP2 DUP2 PUSH1 0x64 DUP2 DUP4 DUP13 GAS CALL DUP1 ISZERO PUSH2 0x240 JUMPI PUSH2 0x231 JUMPI JUMPDEST POP SWAP1 DUP7 EXTCODESIZE ISZERO PUSH2 0x22D JUMPI DUP4 MLOAD SWAP1 PUSH4 0xF2FDE38B PUSH1 0xE0 SHL DUP3 MSTORE ORIGIN SWAP1 DUP3 ADD MSTORE DUP2 DUP2 PUSH1 0x24 DUP2 DUP4 DUP12 GAS CALL DUP1 ISZERO PUSH2 0x223 JUMPI PUSH2 0x20C JUMPI JUMPDEST POP POP PUSH1 0x80 SWAP6 DUP5 DUP1 SWAP3 PUSH1 0x60 DUP6 MLOAD PUSH2 0x1DD DUP2 PUSH2 0x342 JUMP JUMPDEST DUP10 DUP2 MSTORE PUSH1 0x20 DUP2 ADD SWAP3 DUP4 MSTORE DUP7 DUP2 ADD SWAP5 DUP6 MSTORE ADD SWAP6 DUP7 MSTORE DUP5 MLOAD SWAP8 DUP9 MSTORE MLOAD AND PUSH1 0x20 DUP8 ADD MSTORE MLOAD AND SWAP1 DUP5 ADD MSTORE MLOAD AND PUSH1 0x60 DUP3 ADD MSTORE RETURN JUMPDEST PUSH2 0x216 DUP3 SWAP2 PUSH2 0x373 JUMP JUMPDEST PUSH2 0x220 JUMPI DUP1 PUSH2 0x1C8 JUMP JUMPDEST DUP1 REVERT JUMPDEST DUP5 MLOAD RETURNDATASIZE DUP5 DUP3 RETURNDATACOPY RETURNDATASIZE SWAP1 REVERT JUMPDEST POP DUP1 REVERT JUMPDEST PUSH2 0x23A SWAP1 PUSH2 0x373 JUMP JUMPDEST CODESIZE PUSH2 0x199 JUMP JUMPDEST DUP6 MLOAD RETURNDATASIZE DUP5 DUP3 RETURNDATACOPY RETURNDATASIZE SWAP1 REVERT JUMPDEST POP POP POP MLOAD SWAP1 RETURNDATASIZE SWAP1 DUP3 RETURNDATACOPY RETURNDATASIZE SWAP1 REVERT JUMPDEST PUSH4 0x4E487B71 PUSH1 0xE0 SHL DUP8 MSTORE PUSH1 0x41 DUP5 MSTORE PUSH1 0x24 DUP8 REVERT JUMPDEST POP POP MLOAD SWAP1 RETURNDATASIZE SWAP1 DUP3 RETURNDATACOPY RETURNDATASIZE SWAP1 REVERT JUMPDEST PUSH4 0x4E487B71 PUSH1 0xE0 SHL DUP7 MSTORE PUSH1 0x41 DUP5 MSTORE PUSH1 0x24 DUP7 REVERT JUMPDEST MLOAD SWAP1 RETURNDATASIZE SWAP1 DUP3 RETURNDATACOPY RETURNDATASIZE SWAP1 REVERT JUMPDEST PUSH4 0x4E487B71 PUSH1 0xE0 SHL DUP5 MSTORE PUSH1 0x41 DUP7 MSTORE PUSH1 0x24 DUP5 REVERT JUMPDEST DUP3 DUP1 REVERT JUMPDEST DUP5 SWAP1 DUP5 PUSH1 0x80 CALLDATASIZE PUSH1 0x3 NOT ADD SLT PUSH2 0x2A6 JUMPI CALLDATALOAD PUSH1 0x1 PUSH1 0x1 PUSH1 0xA0 SHL SUB DUP2 DUP2 AND SWAP2 DUP3 SWAP1 SUB PUSH2 0x33E JUMPI PUSH1 0x24 CALLDATALOAD SWAP2 DUP2 DUP4 AND DUP1 SWAP4 SUB PUSH2 0x33A JUMPI PUSH1 0x44 CALLDATALOAD SWAP1 DUP3 DUP3 AND DUP1 SWAP3 SUB PUSH2 0x336 JUMPI PUSH1 0x64 CALLDATALOAD SWAP3 DUP4 AND DUP1 SWAP4 SUB PUSH2 0x336 JUMPI PUSH1 0x20 SWAP6 POP ISZERO ISZERO SWAP3 DUP4 PUSH2 0x32C JUMPI JUMPDEST POP DUP3 PUSH2 0x322 JUMPI JUMPDEST POP DUP2 PUSH2 0x318 JUMPI JUMPDEST POP ISZERO ISZERO DUP2 MSTORE RETURN JUMPDEST SWAP1 POP ISZERO ISZERO DUP4 PUSH2 0x311 JUMP JUMPDEST ISZERO ISZERO SWAP2 POP DUP5 PUSH2 0x30A JUMP JUMPDEST ISZERO ISZERO SWAP3 POP DUP6 PUSH2 0x303 JUMP JUMPDEST DUP6 DUP1 REVERT JUMPDEST DUP5 DUP1 REVERT JUMPDEST DUP4 DUP1 REVERT JUMPDEST PUSH1 0x80 DUP2 ADD SWAP1 DUP2 LT PUSH1 0x1 PUSH1 0x1 PUSH1 0x40 SHL SUB DUP3 GT OR PUSH2 0x35D JUMPI PUSH1 0x40 MSTORE JUMP JUMPDEST PUSH4 0x4E487B71 PUSH1 0xE0 SHL PUSH1 0x0 MSTORE PUSH1 0x41 PUSH1 0x4 MSTORE PUSH1 0x24 PUSH1 0x0 REVERT JUMPDEST PUSH1 0x1 PUSH1 0x1 PUSH1 0x40 SHL SUB DUP2 GT PUSH2 0x35D JUMPI PUSH1 0x40 MSTORE JUMP JUMPDEST PUSH1 0x1 PUSH1 0x1 PUSH1 0xA0 SHL SUB SWAP2 DUP3 AND DUP2 MSTORE SWAP2 AND PUSH1 0x20 DUP3 ADD MSTORE PUSH1 0x40 ADD SWAP1 JUMP INVALID PUSH1 0x80 CALLVALUE PUSH2 0xB9 JUMPI PUSH1 0x1F PUSH3 0x1AA0 CODESIZE DUP2 SWAP1 SUB SWAP2 DUP3 ADD PUSH1 0x1F NOT AND DUP4 ADD SWAP2 PUSH1 0x1 PUSH1 0x1 PUSH1 0x40 SHL SUB DUP4 GT DUP5 DUP5 LT OR PUSH2 0xBE JUMPI DUP1 DUP5 SWAP3 PUSH1 0x40 SWAP5 DUP6 MSTORE DUP4 CODECOPY DUP2 ADD SUB SLT PUSH2 0xB9 JUMPI PUSH2 0x53 PUSH1 0x20 PUSH2 0x4C DUP4 PUSH2 0xD4 JUMP JUMPDEST SWAP3 ADD PUSH2 0xD4 JUMP JUMPDEST PUSH3 0x93A80 PUSH1 0x3 SSTORE PUSH7 0x2386F26FC10000 PUSH1 0x4 SSTORE PUSH1 0x1 DUP1 PUSH1 0xA0 SHL SUB SWAP1 DUP2 PUSH1 0x1 DUP1 PUSH1 0xA0 SHL SUB NOT SWAP4 AND DUP4 PUSH1 0x0 SLOAD AND OR PUSH1 0x0 SSTORE AND SWAP1 PUSH1 0x1 SLOAD AND OR PUSH1 0x1 SSTORE PUSH1 0x0 PUSH1 0x2 SSTORE CALLER PUSH1 0x0 MSTORE PUSH1 0xC PUSH1 0x20 MSTORE PUSH1 0x40 PUSH1 0x0 KECCAK256 PUSH1 0x1 PUSH1 0xFF NOT DUP3 SLOAD AND OR SWAP1 SSTORE PUSH1 0x40 MLOAD PUSH2 0x19B7 SWAP1 DUP2 PUSH3 0xE9 DUP3 CODECOPY RETURN JUMPDEST PUSH1 0x0 DUP1 REVERT JUMPDEST PUSH4 0x4E487B71 PUSH1 0xE0 SHL PUSH1 0x0 MSTORE PUSH1 0x41 PUSH1 0x4 MSTORE PUSH1 0x24 PUSH1 0x0 REVERT JUMPDEST MLOAD SWAP1 PUSH1 0x1 PUSH1 0x1 PUSH1 0xA0 SHL SUB DUP3 AND DUP3 SUB PUSH2 0xB9 JUMPI JUMP INVALID PUSH1 0x80 PUSH1 0x40 MSTORE PUSH1 0x4 CALLDATASIZE LT ISZERO PUSH2 0x12 JUMPI PUSH1 0x0 DUP1 REVERT JUMPDEST PUSH1 0x0 CALLDATALOAD PUSH1 0xE0 SHR DUP1 PUSH4 0xC886A6B EQ PUSH2 0x158D JUMPI DUP1 PUSH4 0x15F25549 EQ PUSH2 0x1561 JUMPI DUP1 PUSH4 0x1E09D5A9 EQ PUSH2 0x126E JUMPI DUP1 PUSH4 0x1F276B6E EQ PUSH2 0x1205 JUMPI DUP1 PUSH4 0x39C65D8D EQ PUSH2 0x11D9 JUMPI DUP1 PUSH4 0x3E8686CC EQ PUSH2 0xF92 JUMPI DUP1 PUSH4 0x4C41E880 EQ PUSH2 0xF67 JUMPI DUP1 PUSH4 0x537DBF07 EQ PUSH2 0xF20 JUMPI DUP1 PUSH4 0x59974E38 EQ PUSH2 0xD55 JUMPI DUP1 PUSH4 0x60D25E81 EQ PUSH2 0xCDD JUMPI DUP1 PUSH4 0x6C824487 EQ PUSH2 0xC9E JUMPI DUP1 PUSH4 0x76C23FF1 EQ PUSH2 0xC80 JUMPI DUP1 PUSH4 0x7A0C95AA EQ PUSH2 0xC46 JUMPI DUP1 PUSH4 0x7C8EFCE3 EQ PUSH2 0xBC4 JUMPI DUP1 PUSH4 0x9000B3D6 EQ PUSH2 0xB55 JUMPI DUP1 PUSH4 0xABAC7E0D EQ PUSH2 0xB29 JUMPI DUP1 PUSH4 0xAD73349E EQ PUSH2 0x9BF JUMPI DUP1 PUSH4 0xB1BB7E0F EQ PUSH2 0x9A1 JUMPI DUP1 PUSH4 0xB4B9E706 EQ PUSH2 0x975 JUMPI DUP1 PUSH4 0xBC74B08D EQ PUSH2 0x94A JUMPI DUP1 PUSH4 0xC12255FE EQ PUSH2 0x39A JUMPI DUP1 PUSH4 0xC2FDA487 EQ PUSH2 0x371 JUMPI DUP1 PUSH4 0xCA2DFD0A EQ PUSH2 0x305 JUMPI DUP1 PUSH4 0xDFDE74FE EQ PUSH2 0x2AD JUMPI DUP1 PUSH4 0xE04A3770 EQ PUSH2 0x233 JUMPI DUP1 PUSH4 0xE80DB5DB EQ PUSH2 0x20A JUMPI DUP1 PUSH4 0xEC5FFAC2 EQ PUSH2 0x1EC JUMPI DUP1 PUSH4 0xEF11151E EQ PUSH2 0x19A JUMPI PUSH4 0xF1F568F7 EQ PUSH2 0x15B JUMPI PUSH1 0x0 DUP1 REVERT JUMPDEST CALLVALUE PUSH2 0x195 JUMPI PUSH1 0x20 CALLDATASIZE PUSH1 0x3 NOT ADD SLT PUSH2 0x195 JUMPI PUSH1 0x1 PUSH1 0x1 PUSH1 0xA0 SHL SUB PUSH2 0x17C PUSH2 0x167C JUMP JUMPDEST AND PUSH1 0x0 MSTORE PUSH1 0xB PUSH1 0x20 MSTORE PUSH1 0x20 PUSH1 0x40 PUSH1 0x0 KECCAK256 SLOAD PUSH1 0x40 MLOAD SWAP1 DUP2 MSTORE RETURN JUMPDEST PUSH1 0x0 DUP1 REVERT JUMPDEST CALLVALUE PUSH2 0x195 JUMPI PUSH1 0x40 CALLDATASIZE PUSH1 0x3 NOT ADD SLT PUSH2 0x195 JUMPI PUSH1 0x24 CALLDATALOAD PUSH1 0x1 PUSH1 0x1 PUSH1 0xA0 SHL SUB DUP2 AND SWAP1 DUP2 SWAP1 SUB PUSH2 0x195 JUMPI PUSH1 0x4 CALLDATALOAD PUSH1 0x0 MSTORE PUSH1 0xD PUSH1 0x20 MSTORE PUSH1 0x40 PUSH1 0x0 KECCAK256 SWAP1 PUSH1 0x0 MSTORE PUSH1 0x20 MSTORE PUSH1 0x20 PUSH1 0xFF PUSH1 0x40 PUSH1 0x0 KECCAK256 SLOAD AND PUSH1 0x40 MLOAD SWAP1 ISZERO ISZERO DUP2 MSTORE RETURN JUMPDEST CALLVALUE PUSH2 0x195 JUMPI PUSH1 0x0 CALLDATASIZE PUSH1 0x3 NOT ADD SLT PUSH2 0x195 JUMPI PUSH1 0x20 PUSH1 0x4 SLOAD PUSH1 0x40 MLOAD SWAP1 DUP2 MSTORE RETURN JUMPDEST CALLVALUE PUSH2 0x195 JUMPI PUSH1 0x0 CALLDATASIZE PUSH1 0x3 NOT ADD SLT PUSH2 0x195 JUMPI PUSH1 0x0 SLOAD PUSH1 0x40 MLOAD PUSH1 0x1 PUSH1 0x1 PUSH1 0xA0 SHL SUB SWAP1 SWAP2 AND DUP2 MSTORE PUSH1 0x20 SWAP1 RETURN JUMPDEST CALLVALUE PUSH2 0x195 JUMPI PUSH1 0x20 DUP1 PUSH1 0x3 NOT CALLDATASIZE ADD SLT PUSH2 0x195 JUMPI PUSH1 0x4 CALLDATALOAD PUSH1 0x0 MSTORE PUSH1 0x8 DUP2 MSTORE PUSH1 0x40 PUSH1 0x0 KECCAK256 SWAP1 PUSH1 0x40 MLOAD SWAP1 DUP2 DUP2 DUP5 SLOAD SWAP2 DUP3 DUP2 MSTORE ADD SWAP4 PUSH1 0x0 MSTORE DUP2 PUSH1 0x0 KECCAK256 SWAP2 PUSH1 0x0 SWAP1 JUMPDEST DUP3 DUP3 LT PUSH2 0x296 JUMPI PUSH2 0x292 DUP6 PUSH2 0x286 DUP2 DUP10 SUB DUP3 PUSH2 0x17B9 JUMP JUMPDEST PUSH1 0x40 MLOAD SWAP2 DUP3 SWAP2 DUP3 PUSH2 0x1692 JUMP JUMPDEST SUB SWAP1 RETURN JUMPDEST DUP4 SLOAD DUP7 MSTORE SWAP5 DUP6 ADD SWAP5 PUSH1 0x1 SWAP4 DUP5 ADD SWAP4 SWAP1 SWAP2 ADD SWAP1 PUSH2 0x26F JUMP JUMPDEST CALLVALUE PUSH2 0x195 JUMPI PUSH1 0x40 CALLDATASIZE PUSH1 0x3 NOT ADD SLT PUSH2 0x195 JUMPI PUSH2 0x2C6 PUSH2 0x167C JUMP JUMPDEST PUSH1 0x1 PUSH1 0x1 PUSH1 0xA0 SHL SUB AND PUSH1 0x0 SWAP1 DUP2 MSTORE PUSH1 0x9 PUSH1 0x20 MSTORE PUSH1 0x40 SWAP1 KECCAK256 DUP1 SLOAD PUSH1 0x24 CALLDATALOAD SWAP2 SWAP1 DUP3 LT ISZERO PUSH2 0x195 JUMPI PUSH1 0x20 SWAP2 PUSH2 0x2F7 SWAP2 PUSH2 0x15D4 JUMP JUMPDEST SWAP1 SLOAD PUSH1 0x40 MLOAD SWAP2 PUSH1 0x3 SHL SHR DUP2 MSTORE RETURN JUMPDEST CALLVALUE PUSH2 0x195 JUMPI PUSH1 0x20 CALLDATASIZE PUSH1 0x3 NOT ADD SLT PUSH2 0x195 JUMPI PUSH2 0x31E PUSH2 0x167C JUMP JUMPDEST PUSH1 0x0 SLOAD PUSH1 0x1 PUSH1 0x1 PUSH1 0xA0 SHL SUB SWAP2 SWAP1 DUP3 AND CALLER SUB PUSH2 0x195 JUMPI AND DUP1 PUSH1 0x0 MSTORE PUSH1 0xC PUSH1 0x20 MSTORE PUSH1 0x40 PUSH1 0x0 KECCAK256 PUSH1 0xFF NOT DUP2 SLOAD AND SWAP1 SSTORE PUSH32 0x44A3CD4EB5CC5748F6169DF057B1CB2AE4C383E87CD94663C430E095D4CBA424 PUSH1 0x0 DUP1 LOG2 STOP JUMPDEST CALLVALUE PUSH2 0x195 JUMPI PUSH1 0x0 CALLDATASIZE PUSH1 0x3 NOT ADD SLT PUSH2 0x195 JUMPI PUSH1 0x1 SLOAD PUSH1 0x40 MLOAD PUSH1 0x1 PUSH1 0x1 PUSH1 0xA0 SHL SUB SWAP1 SWAP2 AND DUP2 MSTORE PUSH1 0x20 SWAP1 RETURN JUMPDEST PUSH1 0xA0 CALLDATASIZE PUSH1 0x3 NOT ADD SLT PUSH2 0x195 JUMPI PUSH1 0x24 CALLDATALOAD PUSH1 0x1 PUSH1 0x1 PUSH1 0x40 SHL SUB DUP2 GT PUSH2 0x195 JUMPI PUSH2 0x3C5 SWAP1 CALLDATASIZE SWAP1 PUSH1 0x4 ADD PUSH2 0x1602 JUMP JUMPDEST PUSH1 0x44 CALLDATALOAD PUSH1 0x1 PUSH1 0x1 PUSH1 0x40 SHL SUB DUP2 GT PUSH2 0x195 JUMPI PUSH2 0x3E4 SWAP1 CALLDATASIZE SWAP1 PUSH1 0x4 ADD PUSH2 0x1602 JUMP JUMPDEST SWAP1 PUSH1 0x64 CALLDATALOAD PUSH1 0x1 PUSH1 0x1 PUSH1 0x40 SHL SUB DUP2 GT PUSH2 0x195 JUMPI PUSH2 0x404 SWAP1 CALLDATASIZE SWAP1 PUSH1 0x4 ADD PUSH2 0x1602 JUMP JUMPDEST SWAP5 SWAP1 SWAP4 PUSH1 0x84 CALLDATALOAD PUSH1 0x1 PUSH1 0x1 PUSH1 0x40 SHL SUB DUP2 GT PUSH2 0x195 JUMPI PUSH2 0x426 SWAP1 CALLDATASIZE SWAP1 PUSH1 0x4 ADD PUSH2 0x1602 JUMP JUMPDEST SWAP3 SWAP1 SWAP2 PUSH1 0x4 SLOAD CALLVALUE LT PUSH2 0x195 JUMPI PUSH1 0x4 CALLDATALOAD PUSH1 0x0 MSTORE PUSH1 0x5 PUSH1 0x20 MSTORE PUSH1 0x40 PUSH1 0x0 KECCAK256 SLOAD ISZERO PUSH2 0x195 JUMPI DUP4 ISZERO PUSH2 0x195 JUMPI PUSH1 0x1 SLOAD PUSH1 0x40 DUP1 MLOAD PUSH4 0x17E7EC5 PUSH1 0xE3 SHL DUP2 MSTORE PUSH1 0x4 DUP1 CALLDATALOAD SWAP1 DUP3 ADD MSTORE PUSH1 0x60 PUSH1 0x24 DUP3 ADD MSTORE SWAP2 DUP3 SWAP1 PUSH1 0x1 PUSH1 0x1 PUSH1 0xA0 SHL SUB AND DUP2 DUP1 PUSH2 0x4A0 PUSH2 0x48D PUSH1 0x64 DUP4 ADD DUP10 DUP12 PUSH2 0x17FF JUMP JUMPDEST DUP3 DUP2 SUB PUSH1 0x3 NOT ADD PUSH1 0x44 DUP5 ADD MSTORE DUP14 DUP14 PUSH2 0x17FF JUMP JUMPDEST SUB SWAP2 GAS STATICCALL SWAP1 DUP2 ISZERO PUSH2 0x93E JUMPI PUSH1 0x0 SWAP2 PUSH2 0x8EE JUMPI JUMPDEST POP PUSH2 0x195 JUMPI PUSH2 0x4C3 PUSH1 0x2 SLOAD PUSH2 0x1820 JUMP JUMPDEST PUSH1 0x2 DUP2 DUP2 SSTORE PUSH1 0x0 DUP3 DUP2 MSTORE PUSH1 0x7 PUSH1 0x20 MSTORE PUSH1 0x40 SWAP1 KECCAK256 DUP3 DUP2 SSTORE PUSH1 0x1 DUP2 ADD DUP1 SLOAD PUSH1 0x1 PUSH1 0x1 PUSH1 0xA0 SHL SUB NOT AND CALLER OR SWAP1 SSTORE PUSH1 0x4 CALLDATALOAD SWAP2 DUP2 ADD SWAP2 SWAP1 SWAP2 SSTORE SWAP9 SWAP1 SWAP8 SWAP1 PUSH1 0x1 PUSH1 0x1 PUSH1 0x40 SHL SUB DUP4 GT PUSH2 0x770 JUMPI PUSH2 0x523 DUP4 PUSH2 0x51A PUSH1 0x3 DUP14 ADD SLOAD PUSH2 0x16CD JUMP JUMPDEST PUSH1 0x3 DUP14 ADD PUSH2 0x182F JUMP JUMPDEST DUP3 PUSH1 0x0 PUSH1 0x1F DUP3 GT PUSH1 0x1 EQ PUSH2 0x880 JUMPI PUSH1 0x0 SWAP2 PUSH2 0x875 JUMPI JUMPDEST POP DUP4 PUSH1 0x1 SHL SWAP1 PUSH1 0x0 NOT DUP6 PUSH1 0x3 SHL SHR NOT AND OR PUSH1 0x3 DUP12 ADD SSTORE JUMPDEST PUSH1 0x1 PUSH1 0x1 PUSH1 0x40 SHL SUB DUP9 GT PUSH2 0x770 JUMPI PUSH2 0x578 DUP9 PUSH2 0x56F PUSH1 0x4 DUP14 ADD SLOAD PUSH2 0x16CD JUMP JUMPDEST PUSH1 0x4 DUP14 ADD PUSH2 0x182F JUMP JUMPDEST DUP8 PUSH1 0x0 PUSH1 0x1F DUP3 GT PUSH1 0x1 EQ PUSH2 0x807 JUMPI PUSH1 0x0 SWAP2 PUSH2 0x7FC JUMPI JUMPDEST POP DUP9 PUSH1 0x1 SHL SWAP1 PUSH1 0x0 NOT DUP11 PUSH1 0x3 SHL SHR NOT AND OR PUSH1 0x4 DUP12 ADD SSTORE JUMPDEST PUSH1 0x1 PUSH1 0x1 PUSH1 0x40 SHL SUB DUP2 GT PUSH2 0x770 JUMPI DUP1 PUSH1 0x5 DUP12 ADD SWAP3 PUSH2 0x5CD DUP3 PUSH2 0x5C7 DUP7 SLOAD PUSH2 0x16CD JUMP JUMPDEST DUP7 PUSH2 0x182F JUMP JUMPDEST PUSH1 0x0 SWAP1 PUSH1 0x1F DUP4 GT PUSH1 0x1 EQ PUSH2 0x791 JUMPI PUSH1 0x0 SWAP3 PUSH2 0x786 JUMPI JUMPDEST POP POP DUP2 PUSH1 0x1 SHL SWAP2 PUSH1 0x0 NOT SWAP1 PUSH1 0x3 SHL SHR NOT AND OR SWAP1 SSTORE JUMPDEST PUSH1 0x1 PUSH1 0x1 PUSH1 0x40 SHL SUB DUP5 GT PUSH2 0x770 JUMPI DUP8 DUP8 SWAP4 PUSH2 0x625 DUP7 PUSH2 0x61C PUSH1 0x6 PUSH1 0x20 SWAP14 ADD SLOAD PUSH2 0x16CD JUMP JUMPDEST PUSH1 0x6 DUP6 ADD PUSH2 0x182F JUMP JUMPDEST PUSH1 0x0 SWAP1 PUSH1 0x1F DUP8 GT PUSH1 0x1 EQ PUSH2 0x6E9 JUMPI SWAP6 DUP1 PUSH1 0x8 SWAP4 SWAP3 PUSH1 0x0 DUP1 MLOAD PUSH1 0x20 PUSH2 0x1997 DUP4 CODECOPY DUP2 MLOAD SWAP2 MSTORE SWAP8 SWAP9 PUSH1 0x0 SWAP3 PUSH2 0x6DE JUMPI JUMPDEST POP POP DUP2 PUSH1 0x1 SHL SWAP2 PUSH1 0x0 NOT SWAP1 PUSH1 0x3 SHL SHR NOT AND OR PUSH1 0x6 DUP3 ADD SSTORE JUMPDEST TIMESTAMP PUSH1 0x7 DUP3 ADD SSTORE ADD PUSH1 0xFF NOT DUP2 SLOAD AND SWAP1 SSTORE PUSH1 0x4 CALLDATALOAD PUSH1 0x0 MSTORE PUSH1 0x8 DUP9 MSTORE PUSH2 0x691 DUP5 PUSH1 0x40 PUSH1 0x0 KECCAK256 PUSH2 0x1883 JUMP JUMPDEST CALLER PUSH1 0x0 MSTORE PUSH1 0x9 DUP9 MSTORE PUSH2 0x6A7 DUP5 PUSH1 0x40 PUSH1 0x0 KECCAK256 PUSH2 0x1883 JUMP JUMPDEST PUSH2 0x6D3 PUSH2 0x6C1 PUSH1 0x40 MLOAD SWAP4 DUP5 SWAP4 PUSH1 0x40 DUP6 MSTORE PUSH1 0x40 DUP6 ADD SWAP2 PUSH2 0x17FF JUMP JUMPDEST DUP3 DUP2 SUB DUP11 DUP5 ADD MSTORE CALLER SWAP8 PUSH1 0x4 CALLDATALOAD SWAP8 PUSH2 0x17FF JUMP JUMPDEST SUB SWAP1 LOG4 PUSH1 0x40 MLOAD SWAP1 DUP2 MSTORE RETURN JUMPDEST ADD CALLDATALOAD SWAP1 POP DUP13 DUP1 PUSH2 0x652 JUMP JUMPDEST PUSH1 0x6 DUP4 SWAP8 SWAP3 SWAP8 ADD PUSH1 0x0 MSTORE DUP11 PUSH1 0x0 KECCAK256 SWAP7 PUSH1 0x0 JUMPDEST PUSH1 0x1F NOT DUP5 AND DUP2 LT PUSH2 0x756 JUMPI POP SWAP2 PUSH1 0x0 DUP1 MLOAD PUSH1 0x20 PUSH2 0x1997 DUP4 CODECOPY DUP2 MLOAD SWAP2 MSTORE SWAP7 SWAP8 PUSH1 0x1 SWAP3 PUSH1 0x8 SWAP6 SWAP5 DUP4 PUSH1 0x1F NOT DUP2 AND LT PUSH2 0x73C JUMPI JUMPDEST POP POP POP DUP2 SHL ADD PUSH1 0x6 DUP3 ADD SSTORE PUSH2 0x66A JUMP JUMPDEST ADD CALLDATALOAD PUSH1 0x0 NOT PUSH1 0x3 DUP5 SWAP1 SHL PUSH1 0xF8 AND SHR NOT AND SWAP1 SSTORE DUP13 DUP1 DUP1 PUSH2 0x72C JUMP JUMPDEST DUP2 DUP4 ADD CALLDATALOAD DUP10 SSTORE PUSH1 0x1 SWAP1 SWAP9 ADD SWAP8 DUP12 SWAP8 POP SWAP1 DUP13 ADD SWAP1 DUP13 ADD PUSH2 0x6FB JUMP JUMPDEST PUSH4 0x4E487B71 PUSH1 0xE0 SHL PUSH1 0x0 MSTORE PUSH1 0x41 PUSH1 0x4 MSTORE PUSH1 0x24 PUSH1 0x0 REVERT JUMPDEST ADD CALLDATALOAD SWAP1 POP DUP12 DUP1 PUSH2 0x5E3 JUMP JUMPDEST SWAP1 SWAP2 POP PUSH1 0x1F NOT DUP4 AND SWAP2 DUP5 PUSH1 0x0 MSTORE PUSH1 0x20 PUSH1 0x0 KECCAK256 SWAP3 PUSH1 0x0 JUMPDEST DUP2 DUP2 LT PUSH2 0x7E4 JUMPI POP SWAP1 DUP5 PUSH1 0x1 SWAP6 SWAP5 SWAP4 SWAP3 LT PUSH2 0x7CA JUMPI JUMPDEST POP POP POP DUP2 SHL ADD SWAP1 SSTORE PUSH2 0x5F8 JUMP JUMPDEST ADD CALLDATALOAD PUSH1 0x0 NOT PUSH1 0x3 DUP5 SWAP1 SHL PUSH1 0xF8 AND SHR NOT AND SWAP1 SSTORE DUP12 DUP1 DUP1 PUSH2 0x7BD JUMP JUMPDEST SWAP2 SWAP4 PUSH1 0x20 PUSH1 0x1 DUP2 SWAP3 DUP8 DUP8 ADD CALLDATALOAD DUP2 SSTORE ADD SWAP6 ADD SWAP3 ADD PUSH2 0x7A7 JUMP JUMPDEST SWAP1 POP DUP8 ADD CALLDATALOAD DUP12 PUSH2 0x58E JUMP JUMPDEST SWAP1 POP PUSH1 0x4 DUP12 ADD PUSH1 0x0 MSTORE PUSH1 0x20 PUSH1 0x0 KECCAK256 SWAP1 PUSH1 0x0 JUMPDEST PUSH1 0x1F NOT DUP12 AND DUP2 LT PUSH2 0x85D JUMPI POP DUP10 PUSH1 0x1F NOT DUP2 AND LT PUSH2 0x843 JUMPI JUMPDEST POP POP PUSH1 0x1 DUP9 DUP2 SHL ADD PUSH1 0x4 DUP12 ADD SSTORE PUSH2 0x5A5 JUMP JUMPDEST DUP9 ADD CALLDATALOAD PUSH1 0x0 NOT PUSH1 0x3 DUP12 SWAP1 SHL PUSH1 0xF8 AND SHR NOT AND SWAP1 SSTORE DUP11 DUP1 PUSH2 0x831 JUMP JUMPDEST SWAP1 SWAP2 PUSH1 0x20 PUSH1 0x1 DUP2 SWAP3 DUP6 DUP14 ADD CALLDATALOAD DUP2 SSTORE ADD SWAP4 ADD SWAP2 ADD PUSH2 0x819 JUMP JUMPDEST SWAP1 POP DUP5 ADD CALLDATALOAD DUP12 PUSH2 0x539 JUMP JUMPDEST SWAP1 POP PUSH1 0x3 DUP12 ADD PUSH1 0x0 MSTORE PUSH1 0x20 PUSH1 0x0 KECCAK256 SWAP1 PUSH1 0x0 JUMPDEST PUSH1 0x1F NOT DUP7 AND DUP2 LT PUSH2 0x8D6 JUMPI POP DUP5 PUSH1 0x1F NOT DUP2 AND LT PUSH2 0x8BC JUMPI JUMPDEST POP POP PUSH1 0x1 DUP4 DUP2 SHL ADD PUSH1 0x3 DUP12 ADD SSTORE PUSH2 0x550 JUMP JUMPDEST DUP6 ADD CALLDATALOAD PUSH1 0x0 NOT PUSH1 0x3 DUP7 SWAP1 SHL PUSH1 0xF8 AND SHR NOT AND SWAP1 SSTORE DUP11 DUP1 PUSH2 0x8AA JUMP JUMPDEST SWAP1 SWAP2 PUSH1 0x20 PUSH1 0x1 DUP2 SWAP3 DUP6 DUP11 ADD CALLDATALOAD DUP2 SSTORE ADD SWAP4 ADD SWAP2 ADD PUSH2 0x892 JUMP JUMPDEST SWAP1 POP PUSH1 0x40 DUP2 RETURNDATASIZE PUSH1 0x40 GT PUSH2 0x936 JUMPI JUMPDEST DUP2 PUSH2 0x909 PUSH1 0x40 SWAP4 DUP4 PUSH2 0x17B9 JUMP JUMPDEST DUP2 ADD SUB SLT PUSH2 0x195 JUMPI DUP1 MLOAD SWAP1 DUP2 ISZERO ISZERO DUP3 SUB PUSH2 0x195 JUMPI PUSH1 0x20 ADD MLOAD PUSH1 0x1 PUSH1 0x1 PUSH1 0xA0 SHL SUB DUP2 AND SUB PUSH2 0x195 JUMPI DUP10 PUSH2 0x4B3 JUMP JUMPDEST RETURNDATASIZE SWAP2 POP PUSH2 0x8FC JUMP JUMPDEST PUSH1 0x40 MLOAD RETURNDATASIZE PUSH1 0x0 DUP3 RETURNDATACOPY RETURNDATASIZE SWAP1 REVERT JUMPDEST CALLVALUE PUSH2 0x195 JUMPI PUSH1 0x20 CALLDATASIZE PUSH1 0x3 NOT ADD SLT PUSH2 0x195 JUMPI PUSH1 0x0 SLOAD PUSH1 0x1 PUSH1 0x1 PUSH1 0xA0 SHL SUB AND CALLER SUB PUSH2 0x195 JUMPI PUSH1 0x4 CALLDATALOAD PUSH1 0x3 SSTORE STOP JUMPDEST CALLVALUE PUSH2 0x195 JUMPI PUSH1 0x20 CALLDATASIZE PUSH1 0x3 NOT ADD SLT PUSH2 0x195 JUMPI PUSH1 0x4 CALLDATALOAD PUSH1 0x0 MSTORE PUSH1 0x5 PUSH1 0x20 MSTORE PUSH1 0x20 PUSH1 0x40 PUSH1 0x0 KECCAK256 SLOAD PUSH1 0x40 MLOAD SWAP1 DUP2 MSTORE RETURN JUMPDEST CALLVALUE PUSH2 0x195 JUMPI PUSH1 0x0 CALLDATASIZE PUSH1 0x3 NOT ADD SLT PUSH2 0x195 JUMPI PUSH1 0x20 PUSH1 0x3 SLOAD PUSH1 0x40 MLOAD SWAP1 DUP2 MSTORE RETURN JUMPDEST CALLVALUE PUSH2 0x195 JUMPI PUSH1 0x20 CALLDATASIZE PUSH1 0x3 NOT ADD SLT PUSH2 0x195 JUMPI PUSH1 0x4 CALLDATALOAD PUSH1 0x0 MSTORE PUSH1 0x7 PUSH1 0x20 MSTORE PUSH1 0x40 PUSH1 0x0 KECCAK256 DUP1 SLOAD PUSH1 0x1 PUSH1 0xA0 SHL PUSH1 0x1 SWAP1 SUB PUSH1 0x1 DUP4 ADD SLOAD AND SWAP2 PUSH1 0x2 DUP2 ADD SLOAD SWAP1 PUSH1 0x40 MLOAD DUP1 DUP1 PUSH1 0x3 DUP5 ADD SWAP1 PUSH2 0xA0B SWAP2 PUSH2 0x1707 JUMP JUMPDEST SUB PUSH2 0xA16 SWAP1 DUP3 PUSH2 0x17B9 JUMP JUMPDEST PUSH1 0x40 MLOAD SWAP1 DUP2 PUSH2 0xA28 DUP2 PUSH1 0x4 DUP7 ADD PUSH2 0x1707 JUMP JUMPDEST SUB PUSH2 0xA33 SWAP1 DUP4 PUSH2 0x17B9 JUMP JUMPDEST PUSH1 0x40 MLOAD DUP1 PUSH2 0xA44 DUP2 PUSH1 0x5 DUP8 ADD PUSH2 0x1707 JUMP JUMPDEST SUB PUSH2 0xA4F SWAP1 DUP3 PUSH2 0x17B9 JUMP JUMPDEST PUSH1 0x40 MLOAD SWAP1 DUP2 PUSH2 0xA61 DUP2 PUSH1 0x6 DUP9 ADD PUSH2 0x1707 JUMP JUMPDEST SUB PUSH2 0xA6C SWAP1 DUP4 PUSH2 0x17B9 JUMP JUMPDEST PUSH1 0x7 DUP6 ADD SLOAD SWAP4 PUSH1 0x8 DUP7 ADD SLOAD PUSH1 0xFF AND SWAP4 PUSH1 0x40 MLOAD SWAP7 DUP8 DUP1 PUSH1 0x9 DUP4 ADD SWAP1 PUSH2 0xA8F SWAP2 PUSH2 0x1707 JUMP JUMPDEST SUB PUSH2 0xA9A SWAP1 DUP10 PUSH2 0x17B9 JUMP JUMPDEST PUSH1 0xA ADD SLOAD SWAP8 PUSH1 0x40 MLOAD SWAP11 DUP12 SWAP11 DUP12 MSTORE PUSH1 0x20 DUP12 ADD MSTORE PUSH1 0x40 DUP11 ADD MSTORE PUSH2 0x160 DUP1 PUSH1 0x60 DUP12 ADD MSTORE DUP10 ADD PUSH2 0xAC5 SWAP2 PUSH2 0x162F JUMP JUMPDEST DUP9 DUP2 SUB PUSH1 0x80 DUP11 ADD MSTORE PUSH2 0xAD6 SWAP2 PUSH2 0x162F JUMP JUMPDEST DUP8 DUP2 SUB PUSH1 0xA0 DUP10 ADD MSTORE PUSH2 0xAE7 SWAP2 PUSH2 0x162F JUMP JUMPDEST DUP7 DUP2 SUB PUSH1 0xC0 DUP9 ADD MSTORE PUSH2 0xAF8 SWAP2 PUSH2 0x162F JUMP JUMPDEST SWAP2 PUSH1 0xE0 DUP7 ADD MSTORE PUSH2 0x100 DUP6 ADD PUSH2 0xB0C SWAP2 PUSH2 0x166F JUMP JUMPDEST DUP4 DUP2 SUB PUSH2 0x120 DUP6 ADD MSTORE PUSH2 0xB1E SWAP2 PUSH2 0x162F JUMP JUMPDEST SWAP1 PUSH2 0x140 DUP4 ADD MSTORE SUB SWAP1 RETURN JUMPDEST CALLVALUE PUSH2 0x195 JUMPI PUSH1 0x20 CALLDATASIZE PUSH1 0x3 NOT ADD SLT PUSH2 0x195 JUMPI PUSH1 0x4 CALLDATALOAD PUSH1 0x0 MSTORE PUSH1 0xE PUSH1 0x20 MSTORE PUSH1 0x20 PUSH1 0x40 PUSH1 0x0 KECCAK256 SLOAD PUSH1 0x40 MLOAD SWAP1 DUP2 MSTORE RETURN JUMPDEST CALLVALUE PUSH2 0x195 JUMPI PUSH1 0x20 CALLDATASIZE PUSH1 0x3 NOT ADD SLT PUSH2 0x195 JUMPI PUSH2 0xB6E PUSH2 0x167C JUMP JUMPDEST PUSH1 0x0 SLOAD PUSH1 0x1 PUSH1 0x1 PUSH1 0xA0 SHL SUB SWAP2 SWAP1 DUP3 AND CALLER SUB PUSH2 0x195 JUMPI AND DUP1 PUSH1 0x0 MSTORE PUSH1 0xC PUSH1 0x20 MSTORE PUSH1 0x40 PUSH1 0x0 KECCAK256 PUSH1 0x1 PUSH1 0xFF NOT DUP3 SLOAD AND OR SWAP1 SSTORE PUSH32 0x6D05492139C5EA989514A5D2150C028041E5C087E2A39967F67DC7D2655ADB81 PUSH1 0x0 DUP1 LOG2 STOP JUMPDEST PUSH1 0x20 CALLDATASIZE PUSH1 0x3 NOT ADD SLT PUSH2 0x195 JUMPI PUSH1 0x0 SLOAD PUSH1 0x4 CALLDATALOAD SWAP1 PUSH1 0x1 PUSH1 0x1 PUSH1 0xA0 SHL SUB AND CALLER SUB PUSH2 0x195 JUMPI CALLVALUE ISZERO PUSH2 0x195 JUMPI DUP1 PUSH1 0x0 MSTORE PUSH1 0x5 PUSH1 0x20 MSTORE PUSH1 0x40 PUSH1 0x0 KECCAK256 PUSH2 0xC05 CALLVALUE DUP3 SLOAD PUSH2 0x17DC JUMP JUMPDEST SWAP1 SSTORE DUP1 PUSH1 0x0 MSTORE PUSH1 0x5 PUSH1 0x20 MSTORE PUSH32 0x59CF05B569F6230787852B6F1A84FF0F155B2363C622C463141CAAEE1B6D6643 PUSH1 0x40 DUP1 PUSH1 0x0 KECCAK256 SLOAD DUP2 MLOAD SWAP1 CALLVALUE DUP3 MSTORE PUSH1 0x20 DUP3 ADD MSTORE LOG2 STOP JUMPDEST CALLVALUE PUSH2 0x195 JUMPI PUSH1 0x20 CALLDATASIZE PUSH1 0x3 NOT ADD SLT PUSH2 0x195 JUMPI PUSH1 0x1 PUSH1 0x1 PUSH1 0xA0 SHL SUB PUSH2 0xC67 PUSH2 0x167C JUMP JUMPDEST AND PUSH1 0x0 MSTORE PUSH1 0xA PUSH1 0x20 MSTORE PUSH1 0x20 PUSH1 0x40 PUSH1 0x0 KECCAK256 SLOAD PUSH1 0x40 MLOAD SWAP1 DUP2 MSTORE RETURN JUMPDEST CALLVALUE PUSH2 0x195 JUMPI PUSH1 0x0 CALLDATASIZE PUSH1 0x3 NOT ADD SLT PUSH2 0x195 JUMPI PUSH1 0x20 PUSH1 0x2 SLOAD PUSH1 0x40 MLOAD SWAP1 DUP2 MSTORE RETURN JUMPDEST CALLVALUE PUSH2 0x195 JUMPI PUSH1 0x20 CALLDATASIZE PUSH1 0x3 NOT ADD SLT PUSH2 0x195 JUMPI PUSH1 0x1 PUSH1 0x1 PUSH1 0xA0 SHL SUB PUSH2 0xCBF PUSH2 0x167C JUMP JUMPDEST AND PUSH1 0x0 MSTORE PUSH1 0xC PUSH1 0x20 MSTORE PUSH1 0x20 PUSH1 0xFF PUSH1 0x40 PUSH1 0x0 KECCAK256 SLOAD AND PUSH1 0x40 MLOAD SWAP1 ISZERO ISZERO DUP2 MSTORE RETURN JUMPDEST CALLVALUE PUSH2 0x195 JUMPI PUSH1 0x20 DUP1 PUSH1 0x3 NOT CALLDATASIZE ADD SLT PUSH2 0x195 JUMPI PUSH1 0x1 PUSH1 0x1 PUSH1 0xA0 SHL SUB PUSH2 0xCFF PUSH2 0x167C JUMP JUMPDEST AND PUSH1 0x0 MSTORE PUSH1 0x9 DUP2 MSTORE PUSH1 0x40 PUSH1 0x0 KECCAK256 SWAP1 PUSH1 0x40 MLOAD SWAP1 DUP2 DUP2 DUP5 SLOAD SWAP2 DUP3 DUP2 MSTORE ADD SWAP4 PUSH1 0x0 MSTORE DUP2 PUSH1 0x0 KECCAK256 SWAP2 PUSH1 0x0 SWAP1 JUMPDEST DUP3 DUP3 LT PUSH2 0xD3E JUMPI PUSH2 0x292 DUP6 PUSH2 0x286 DUP2 DUP10 SUB DUP3 PUSH2 0x17B9 JUMP JUMPDEST DUP4 SLOAD DUP7 MSTORE SWAP5 DUP6 ADD SWAP5 PUSH1 0x1 SWAP4 DUP5 ADD SWAP4 SWAP1 SWAP2 ADD SWAP1 PUSH2 0xD27 JUMP JUMPDEST CALLVALUE PUSH2 0x195 JUMPI PUSH1 0x20 DUP1 PUSH1 0x3 NOT CALLDATASIZE ADD SLT PUSH2 0x195 JUMPI PUSH1 0x4 CALLDATALOAD DUP1 PUSH1 0x0 MSTORE PUSH1 0x5 SWAP1 DUP2 DUP4 MSTORE PUSH1 0x40 PUSH1 0x0 KECCAK256 SLOAD ISZERO PUSH2 0x195 JUMPI PUSH1 0x8 SWAP2 DUP3 DUP5 MSTORE PUSH1 0x40 PUSH1 0x0 KECCAK256 SWAP3 PUSH1 0x40 MLOAD DUP1 DUP6 DUP8 DUP3 SWAP8 SLOAD SWAP4 DUP5 DUP2 MSTORE ADD SWAP1 PUSH1 0x0 MSTORE DUP8 PUSH1 0x0 KECCAK256 SWAP3 PUSH1 0x0 JUMPDEST DUP10 DUP3 DUP3 LT PUSH2 0xF0A JUMPI POP POP POP PUSH2 0xDBC SWAP3 POP SUB DUP6 PUSH2 0x17B9 JUMP JUMPDEST PUSH1 0x0 SWAP5 PUSH1 0x0 JUMPDEST DUP6 MLOAD DUP2 LT ISZERO PUSH2 0xF08 JUMPI DUP2 DUP2 DUP6 SHL DUP8 ADD ADD MLOAD PUSH1 0x0 MSTORE PUSH1 0x7 DUP3 MSTORE PUSH1 0x40 PUSH1 0x0 KECCAK256 DUP4 DUP2 ADD SWAP1 PUSH1 0xFF DUP3 SLOAD AND PUSH1 0x4 DUP2 LT ISZERO PUSH2 0xEF2 JUMPI PUSH1 0x1 DUP1 SWAP2 EQ DUP1 PUSH2 0xEE5 JUMPI JUMPDEST PUSH2 0xE12 JUMPI JUMPDEST POP POP POP PUSH2 0xE0D SWAP1 PUSH2 0x1820 JUMP JUMPDEST PUSH2 0xDC2 JUMP JUMPDEST PUSH1 0xA DUP3 ADD SLOAD SWAP1 DUP9 PUSH1 0x0 MSTORE DUP8 DUP7 MSTORE PUSH1 0x40 PUSH1 0x0 KECCAK256 DUP1 SLOAD DUP4 DUP2 LT ISZERO PUSH2 0xE37 JUMPI JUMPDEST POP POP POP PUSH2 0xE01 JUMP JUMPDEST DUP4 PUSH2 0xE47 SWAP2 SWAP14 SWAP5 SWAP6 SWAP8 SWAP7 SWAP14 PUSH2 0x1989 JUMP JUMPDEST SWAP1 SSTORE DUP5 ADD SWAP1 PUSH2 0xE7A DUP4 PUSH1 0x1 DUP1 PUSH1 0xA0 SHL SUB SWAP3 DUP4 DUP6 SLOAD AND PUSH1 0x0 MSTORE PUSH1 0xB DUP10 MSTORE PUSH1 0x40 PUSH1 0x0 KECCAK256 PUSH2 0xE73 DUP4 DUP3 SLOAD PUSH2 0x17DC JUMP JUMPDEST SWAP1 SSTORE PUSH2 0x17DC JUMP JUMPDEST SWAP11 PUSH1 0x3 PUSH1 0xFF NOT DUP3 SLOAD AND OR SWAP1 SSTORE PUSH1 0x0 DUP1 DUP1 DUP1 DUP7 DUP6 DUP8 SLOAD AND DUP3 DUP3 ISZERO PUSH2 0xEDC JUMPI JUMPDEST CALL ISZERO PUSH2 0x93E JUMPI DUP6 PUSH32 0x1D0F102D737FA5F0A0F89DF1C7BD6C4D6EA8866CB4CD14B9461B04A9C3BD7B6D SWAP2 PUSH2 0xE0D SWAP7 SLOAD SWAP4 SLOAD AND SWAP4 PUSH1 0x40 MLOAD SWAP1 DUP2 MSTORE LOG3 SWAP1 DUP9 DUP1 DUP1 DUP1 DUP1 PUSH2 0xE2F JUMP JUMPDEST POP PUSH2 0x8FC PUSH2 0xE98 JUMP JUMPDEST POP PUSH1 0xA DUP3 ADD SLOAD ISZERO ISZERO PUSH2 0xDFC JUMP JUMPDEST PUSH4 0x4E487B71 PUSH1 0xE0 SHL PUSH1 0x0 MSTORE PUSH1 0x21 PUSH1 0x4 MSTORE PUSH1 0x24 PUSH1 0x0 REVERT JUMPDEST STOP JUMPDEST DUP6 SLOAD DUP5 MSTORE PUSH1 0x1 SWAP6 DUP7 ADD SWAP6 DUP11 SWAP6 POP SWAP4 ADD SWAP3 ADD PUSH2 0xDA5 JUMP JUMPDEST CALLVALUE PUSH2 0x195 JUMPI PUSH1 0x20 CALLDATASIZE PUSH1 0x3 NOT ADD SLT PUSH2 0x195 JUMPI PUSH1 0x1 PUSH1 0x1 PUSH1 0xA0 SHL SUB PUSH2 0xF41 PUSH2 0x167C JUMP JUMPDEST AND PUSH1 0x0 MSTORE PUSH1 0xA PUSH1 0x20 MSTORE PUSH1 0x40 DUP1 PUSH1 0x0 KECCAK256 SLOAD PUSH1 0xB PUSH1 0x20 MSTORE DUP2 PUSH1 0x0 KECCAK256 SLOAD DUP3 MLOAD SWAP2 DUP3 MSTORE PUSH1 0x20 DUP3 ADD MSTORE RETURN JUMPDEST CALLVALUE PUSH2 0x195 JUMPI PUSH1 0x20 CALLDATASIZE PUSH1 0x3 NOT ADD SLT PUSH2 0x195 JUMPI PUSH1 0x0 SLOAD PUSH1 0x1 PUSH1 0x1 PUSH1 0xA0 SHL SUB AND CALLER SUB PUSH2 0x195 JUMPI PUSH1 0x4 DUP1 CALLDATALOAD SWAP1 SSTORE STOP JUMPDEST CALLVALUE PUSH2 0x195 JUMPI PUSH1 0x20 CALLDATASIZE PUSH1 0x3 NOT ADD SLT PUSH2 0x195 JUMPI PUSH1 0x4 CALLDATALOAD PUSH1 0x0 PUSH2 0x140 PUSH1 0x40 MLOAD PUSH2 0xFB7 DUP2 PUSH2 0x179D JUMP JUMPDEST DUP3 DUP2 MSTORE DUP3 PUSH1 0x20 DUP3 ADD MSTORE DUP3 PUSH1 0x40 DUP3 ADD MSTORE PUSH1 0x60 DUP1 DUP3 ADD MSTORE PUSH1 0x60 PUSH1 0x80 DUP3 ADD MSTORE PUSH1 0x60 PUSH1 0xA0 DUP3 ADD MSTORE PUSH1 0x60 PUSH1 0xC0 DUP3 ADD MSTORE DUP3 PUSH1 0xE0 DUP3 ADD MSTORE DUP3 PUSH2 0x100 DUP3 ADD MSTORE PUSH1 0x60 PUSH2 0x120 DUP3 ADD MSTORE ADD MSTORE DUP1 ISZERO ISZERO DUP1 PUSH2 0x11CD JUMPI JUMPDEST ISZERO PUSH2 0x195 JUMPI PUSH1 0x0 MSTORE PUSH1 0x7 PUSH1 0x20 MSTORE PUSH1 0x40 PUSH1 0x0 KECCAK256 PUSH1 0x40 MLOAD SWAP1 PUSH2 0x1020 DUP3 PUSH2 0x179D JUMP JUMPDEST DUP1 SLOAD DUP3 MSTORE PUSH1 0x1 DUP2 ADD SLOAD PUSH1 0x1 PUSH1 0x1 PUSH1 0xA0 SHL SUB AND PUSH1 0x20 DUP4 ADD MSTORE PUSH1 0x2 DUP2 ADD SLOAD PUSH1 0x40 DUP1 DUP5 ADD SWAP2 SWAP1 SWAP2 MSTORE MLOAD PUSH2 0x105E DUP2 PUSH2 0x1057 DUP2 PUSH1 0x3 DUP7 ADD PUSH2 0x1707 JUMP JUMPDEST SUB DUP3 PUSH2 0x17B9 JUMP JUMPDEST PUSH1 0x60 DUP4 ADD MSTORE PUSH1 0x40 MLOAD PUSH2 0x1077 DUP2 PUSH2 0x1057 DUP2 PUSH1 0x4 DUP7 ADD PUSH2 0x1707 JUMP JUMPDEST PUSH1 0x80 DUP4 ADD MSTORE PUSH1 0x40 MLOAD PUSH2 0x1090 DUP2 PUSH2 0x1057 DUP2 PUSH1 0x5 DUP7 ADD PUSH2 0x1707 JUMP JUMPDEST PUSH1 0xA0 DUP4 ADD MSTORE PUSH1 0x40 MLOAD PUSH2 0x10A9 DUP2 PUSH2 0x1057 DUP2 PUSH1 0x6 DUP7 ADD PUSH2 0x1707 JUMP JUMPDEST PUSH1 0xC0 DUP4 ADD MSTORE PUSH1 0x7 DUP2 ADD SLOAD PUSH1 0xE0 DUP4 ADD MSTORE PUSH1 0xFF PUSH1 0x8 DUP3 ADD SLOAD AND SWAP1 PUSH1 0x4 DUP3 LT ISZERO PUSH2 0xEF2 JUMPI PUSH1 0xA SWAP2 PUSH2 0x100 DUP5 ADD MSTORE PUSH1 0x40 MLOAD PUSH2 0x10E7 DUP2 PUSH2 0x1057 DUP2 PUSH1 0x9 DUP7 ADD PUSH2 0x1707 JUMP JUMPDEST PUSH2 0x120 DUP5 ADD MSTORE ADD SLOAD PUSH2 0x140 DUP3 ADD MSTORE PUSH1 0x40 MLOAD DUP1 SWAP2 PUSH1 0x20 DUP3 MSTORE DUP1 MLOAD PUSH1 0x20 DUP4 ADD MSTORE PUSH1 0x1 DUP1 PUSH1 0xA0 SHL SUB PUSH1 0x20 DUP3 ADD MLOAD AND PUSH1 0x40 DUP4 ADD MSTORE PUSH1 0x40 DUP2 ADD MLOAD PUSH1 0x60 DUP4 ADD MSTORE PUSH1 0x60 DUP2 ADD MLOAD PUSH2 0x140 PUSH2 0x11C2 PUSH2 0x1144 PUSH2 0x160 SWAP4 DUP5 PUSH1 0x80 DUP9 ADD MSTORE PUSH2 0x180 DUP8 ADD SWAP1 PUSH2 0x162F JUMP JUMPDEST PUSH2 0x118E PUSH2 0x117A PUSH2 0x1166 PUSH1 0x80 DUP9 ADD MLOAD SWAP4 PUSH1 0x1F NOT SWAP5 DUP6 DUP12 DUP4 SUB ADD PUSH1 0xA0 DUP13 ADD MSTORE PUSH2 0x162F JUMP JUMPDEST PUSH1 0xA0 DUP9 ADD MLOAD DUP5 DUP11 DUP4 SUB ADD PUSH1 0xC0 DUP12 ADD MSTORE PUSH2 0x162F JUMP JUMPDEST PUSH1 0xC0 DUP8 ADD MLOAD DUP4 DUP10 DUP4 SUB ADD PUSH1 0xE0 DUP11 ADD MSTORE PUSH2 0x162F JUMP JUMPDEST SWAP1 PUSH1 0xE0 DUP7 ADD MLOAD PUSH2 0x100 DUP9 ADD MSTORE PUSH2 0x11AE PUSH2 0x100 DUP8 ADD MLOAD PUSH2 0x120 DUP10 ADD SWAP1 PUSH2 0x166F JUMP JUMPDEST PUSH2 0x120 DUP7 ADD MLOAD SWAP1 DUP8 DUP4 SUB ADD DUP5 DUP9 ADD MSTORE PUSH2 0x162F JUMP JUMPDEST SWAP3 ADD MLOAD SWAP1 DUP4 ADD MSTORE SUB SWAP1 RETURN JUMPDEST POP PUSH1 0x2 SLOAD DUP2 GT ISZERO PUSH2 0x1001 JUMP JUMPDEST CALLVALUE PUSH2 0x195 JUMPI PUSH1 0x20 CALLDATASIZE PUSH1 0x3 NOT ADD SLT PUSH2 0x195 JUMPI PUSH1 0x4 CALLDATALOAD PUSH1 0x0 MSTORE PUSH1 0x6 PUSH1 0x20 MSTORE PUSH1 0x20 PUSH1 0x40 PUSH1 0x0 KECCAK256 SLOAD PUSH1 0x40 MLOAD SWAP1 DUP2 MSTORE RETURN JUMPDEST CALLVALUE PUSH2 0x195 JUMPI PUSH2 0x1213 CALLDATASIZE PUSH2 0x15BE JUMP JUMPDEST PUSH1 0x0 SLOAD SWAP1 SWAP2 SWAP1 PUSH1 0x1 PUSH1 0x1 PUSH1 0xA0 SHL SUB AND CALLER SUB PUSH2 0x195 JUMPI PUSH1 0x0 MSTORE PUSH1 0x5 PUSH1 0x20 MSTORE PUSH1 0x40 PUSH1 0x0 KECCAK256 SWAP1 DUP2 SLOAD SWAP2 DUP2 DUP4 LT PUSH2 0x195 JUMPI PUSH1 0x0 DUP1 DUP1 DUP5 DUP2 SWAP5 PUSH2 0x1251 DUP3 DUP10 PUSH2 0x1989 JUMP JUMPDEST SWAP1 SSTORE DUP2 DUP2 ISZERO PUSH2 0x1265 JUMPI JUMPDEST CALLER SWAP1 CALL ISZERO PUSH2 0x93E JUMPI STOP JUMPDEST POP PUSH2 0x8FC PUSH2 0x125B JUMP JUMPDEST CALLVALUE PUSH2 0x195 JUMPI PUSH1 0x60 CALLDATASIZE PUSH1 0x3 NOT ADD SLT PUSH2 0x195 JUMPI PUSH1 0x4 CALLDATALOAD PUSH1 0x24 CALLDATALOAD DUP1 ISZERO ISZERO DUP1 DUP3 SUB PUSH2 0x195 JUMPI PUSH1 0x1 PUSH1 0x1 PUSH1 0x40 SHL SUB SWAP3 PUSH1 0x44 CALLDATALOAD DUP5 DUP2 GT PUSH2 0x195 JUMPI PUSH2 0x12B0 SWAP1 CALLDATASIZE SWAP1 PUSH1 0x4 ADD PUSH2 0x1602 JUMP JUMPDEST SWAP3 SWAP1 SWAP5 CALLER PUSH1 0x0 MSTORE PUSH1 0x20 SWAP4 PUSH1 0xC DUP6 MSTORE PUSH1 0xFF PUSH1 0x40 PUSH1 0x0 KECCAK256 SLOAD AND ISZERO PUSH2 0x195 JUMPI DUP4 ISZERO ISZERO DUP1 PUSH2 0x1555 JUMPI JUMPDEST ISZERO PUSH2 0x195 JUMPI DUP4 PUSH1 0x0 MSTORE PUSH1 0xD DUP6 MSTORE PUSH1 0x40 PUSH1 0x0 KECCAK256 CALLER PUSH1 0x0 MSTORE DUP6 MSTORE PUSH1 0xFF PUSH1 0x40 PUSH1 0x0 KECCAK256 SLOAD AND PUSH2 0x195 JUMPI DUP4 PUSH1 0x0 MSTORE PUSH1 0x7 DUP6 MSTORE PUSH1 0xFF PUSH1 0x8 PUSH1 0x40 PUSH1 0x0 KECCAK256 ADD SLOAD AND PUSH1 0x4 DUP2 LT ISZERO PUSH2 0xEF2 JUMPI PUSH2 0x195 JUMPI DUP4 PUSH1 0x0 MSTORE PUSH1 0xD DUP6 MSTORE PUSH1 0x40 PUSH1 0x0 KECCAK256 CALLER PUSH1 0x0 MSTORE DUP6 MSTORE PUSH1 0x40 PUSH1 0x0 KECCAK256 SWAP7 PUSH1 0x1 SWAP7 PUSH1 0xFF NOT SWAP9 DUP9 DUP11 DUP3 SLOAD AND OR SWAP1 SSTORE PUSH1 0x0 EQ PUSH2 0x1467 JUMPI POP POP POP DUP2 PUSH1 0x0 MSTORE PUSH1 0xE DUP4 MSTORE PUSH1 0x40 PUSH1 0x0 KECCAK256 PUSH2 0x1364 DUP2 SLOAD PUSH2 0x1820 JUMP JUMPDEST SWAP1 SSTORE JUMPDEST PUSH1 0x40 MLOAD SWAP1 DUP2 MSTORE DUP2 PUSH32 0x1FB14B3BF3798C268811F880A4B800A6140774E15E3D530FA663451C0D263B60 DUP5 CALLER SWAP4 LOG3 PUSH1 0x0 DUP2 DUP2 MSTORE PUSH1 0xE DUP4 MSTORE PUSH1 0x40 SWAP1 KECCAK256 SLOAD PUSH1 0x2 GT PUSH2 0x1439 JUMPI PUSH1 0x0 SWAP4 DUP5 SWAP4 PUSH1 0xA PUSH2 0x1419 DUP7 SWAP6 DUP7 SWAP6 DUP7 MSTORE PUSH1 0x7 DUP2 MSTORE PUSH1 0x40 DUP7 KECCAK256 SWAP4 PUSH1 0x2 DUP6 ADD SLOAD SWAP6 DUP2 PUSH1 0x8 DUP8 ADD SWAP2 DUP3 SLOAD AND OR SWAP1 SSTORE DUP6 DUP8 MSTORE PUSH1 0x6 DUP3 MSTORE PUSH1 0x40 DUP8 KECCAK256 PUSH2 0x13E8 DUP2 SLOAD PUSH2 0x1820 JUMP JUMPDEST SWAP1 SSTORE DUP5 ADD DUP1 SLOAD PUSH1 0x1 PUSH1 0x1 PUSH1 0xA0 SHL SUB SWAP1 DUP2 AND DUP9 MSTORE SWAP2 DUP5 SWAP1 MSTORE PUSH1 0x40 DUP8 KECCAK256 DUP1 SLOAD PUSH2 0x140E SWAP1 PUSH2 0x1820 JUMP JUMPDEST SWAP1 SSTORE SLOAD AND DUP1 SWAP5 PUSH2 0x18D8 JUMP JUMPDEST SWAP2 ADD SSTORE PUSH1 0x4 SLOAD SWAP1 DUP3 DUP3 ISZERO PUSH2 0x1430 JUMPI JUMPDEST CALL ISZERO PUSH2 0x93E JUMPI STOP JUMPDEST POP PUSH2 0x8FC PUSH2 0x1428 JUMP JUMPDEST POP SWAP1 POP PUSH1 0xF DUP2 MSTORE PUSH1 0x2 PUSH1 0x40 PUSH1 0x0 KECCAK256 SLOAD LT ISZERO PUSH2 0x1450 JUMPI STOP JUMPDEST PUSH1 0x7 SWAP1 MSTORE PUSH1 0x2 PUSH1 0x8 PUSH1 0x40 PUSH1 0x0 KECCAK256 ADD SWAP2 DUP3 SLOAD AND OR SWAP1 SSTORE STOP JUMPDEST DUP5 PUSH1 0x0 MSTORE PUSH1 0xF DUP7 MSTORE PUSH1 0x40 PUSH1 0x0 KECCAK256 PUSH2 0x147E DUP2 SLOAD PUSH2 0x1820 JUMP JUMPDEST SWAP1 SSTORE DUP2 PUSH2 0x148E JUMPI JUMPDEST POP POP POP PUSH2 0x1367 JUMP JUMPDEST DUP5 PUSH1 0x0 MSTORE PUSH1 0x7 DUP7 MSTORE PUSH1 0x9 PUSH1 0x40 PUSH1 0x0 KECCAK256 ADD SWAP3 DUP3 GT PUSH2 0x770 JUMPI DUP2 SWAP1 PUSH2 0x14B5 DUP3 PUSH2 0x5C7 DUP7 SLOAD PUSH2 0x16CD JUMP JUMPDEST PUSH1 0x0 SWAP1 PUSH1 0x1F DUP4 GT PUSH1 0x1 EQ PUSH2 0x14F2 JUMPI PUSH1 0x0 SWAP3 PUSH2 0x14E7 JUMPI JUMPDEST POP POP PUSH1 0x0 NOT PUSH1 0x3 DUP4 SWAP1 SHL SHR NOT AND SWAP1 DUP7 SHL OR SWAP1 SSTORE JUMPDEST DUP6 DUP1 DUP1 PUSH2 0x1486 JUMP JUMPDEST ADD CALLDATALOAD SWAP1 POP DUP9 DUP1 PUSH2 0x14CB JUMP JUMPDEST DUP9 SWAP4 POP PUSH1 0x1F NOT DUP4 AND SWAP2 DUP6 PUSH1 0x0 MSTORE DUP9 PUSH1 0x0 KECCAK256 SWAP3 PUSH1 0x0 JUMPDEST DUP11 DUP3 DUP3 LT PUSH2 0x153F JUMPI POP POP DUP5 GT PUSH2 0x1525 JUMPI JUMPDEST POP POP POP DUP2 SHL ADD SWAP1 SSTORE PUSH2 0x14DF JUMP JUMPDEST ADD CALLDATALOAD PUSH1 0x0 NOT PUSH1 0x3 DUP5 SWAP1 SHL PUSH1 0xF8 AND SHR NOT AND SWAP1 SSTORE DUP9 DUP1 DUP1 PUSH2 0x1518 JUMP JUMPDEST DUP4 DUP6 ADD CALLDATALOAD DUP7 SSTORE DUP13 SWAP8 SWAP1 SWAP6 ADD SWAP5 SWAP3 DUP4 ADD SWAP3 ADD PUSH2 0x1507 JUMP JUMPDEST POP PUSH1 0x2 SLOAD DUP5 GT ISZERO PUSH2 0x12D5 JUMP JUMPDEST CALLVALUE PUSH2 0x195 JUMPI PUSH1 0x20 CALLDATASIZE PUSH1 0x3 NOT ADD SLT PUSH2 0x195 JUMPI PUSH1 0x4 CALLDATALOAD PUSH1 0x0 MSTORE PUSH1 0xF PUSH1 0x20 MSTORE PUSH1 0x20 PUSH1 0x40 PUSH1 0x0 KECCAK256 SLOAD PUSH1 0x40 MLOAD SWAP1 DUP2 MSTORE RETURN JUMPDEST CALLVALUE PUSH2 0x195 JUMPI PUSH2 0x159B CALLDATASIZE PUSH2 0x15BE JUMP JUMPDEST SWAP1 PUSH1 0x0 MSTORE PUSH1 0x8 PUSH1 0x20 MSTORE PUSH1 0x40 PUSH1 0x0 KECCAK256 DUP1 SLOAD DUP3 LT ISZERO PUSH2 0x195 JUMPI PUSH1 0x20 SWAP2 PUSH2 0x2F7 SWAP2 PUSH2 0x15D4 JUMP JUMPDEST PUSH1 0x40 SWAP1 PUSH1 0x3 NOT ADD SLT PUSH2 0x195 JUMPI PUSH1 0x4 CALLDATALOAD SWAP1 PUSH1 0x24 CALLDATALOAD SWAP1 JUMP JUMPDEST DUP1 SLOAD DUP3 LT ISZERO PUSH2 0x15EC JUMPI PUSH1 0x0 MSTORE PUSH1 0x20 PUSH1 0x0 KECCAK256 ADD SWAP1 PUSH1 0x0 SWAP1 JUMP JUMPDEST PUSH4 0x4E487B71 PUSH1 0xE0 SHL PUSH1 0x0 MSTORE PUSH1 0x32 PUSH1 0x4 MSTORE PUSH1 0x24 PUSH1 0x0 REVERT JUMPDEST SWAP2 DUP2 PUSH1 0x1F DUP5 ADD SLT ISZERO PUSH2 0x195 JUMPI DUP3 CALLDATALOAD SWAP2 PUSH1 0x1 PUSH1 0x1 PUSH1 0x40 SHL SUB DUP4 GT PUSH2 0x195 JUMPI PUSH1 0x20 DUP4 DUP2 DUP7 ADD SWAP6 ADD ADD GT PUSH2 0x195 JUMPI JUMP JUMPDEST SWAP2 SWAP1 DUP3 MLOAD SWAP3 DUP4 DUP3 MSTORE PUSH1 0x0 JUMPDEST DUP5 DUP2 LT PUSH2 0x165B JUMPI POP POP DUP3 PUSH1 0x0 PUSH1 0x20 DUP1 SWAP5 SWAP6 DUP5 ADD ADD MSTORE PUSH1 0x1F DUP1 NOT SWAP2 ADD AND ADD ADD SWAP1 JUMP JUMPDEST PUSH1 0x20 DUP2 DUP4 ADD DUP2 ADD MLOAD DUP5 DUP4 ADD DUP3 ADD MSTORE ADD PUSH2 0x163A JUMP JUMPDEST SWAP1 PUSH1 0x4 DUP3 LT ISZERO PUSH2 0xEF2 JUMPI MSTORE JUMP JUMPDEST PUSH1 0x4 CALLDATALOAD SWAP1 PUSH1 0x1 PUSH1 0x1 PUSH1 0xA0 SHL SUB DUP3 AND DUP3 SUB PUSH2 0x195 JUMPI JUMP JUMPDEST PUSH1 0x20 SWAP1 DUP2 PUSH1 0x40 DUP2 DUP4 ADD SWAP3 DUP3 DUP2 MSTORE DUP6 MLOAD DUP1 SWAP5 MSTORE ADD SWAP4 ADD SWAP2 PUSH1 0x0 JUMPDEST DUP3 DUP2 LT PUSH2 0x16B9 JUMPI POP POP POP POP SWAP1 JUMP JUMPDEST DUP4 MLOAD DUP6 MSTORE SWAP4 DUP2 ADD SWAP4 SWAP3 DUP2 ADD SWAP3 PUSH1 0x1 ADD PUSH2 0x16AB JUMP JUMPDEST SWAP1 PUSH1 0x1 DUP3 DUP2 SHR SWAP3 AND DUP1 ISZERO PUSH2 0x16FD JUMPI JUMPDEST PUSH1 0x20 DUP4 LT EQ PUSH2 0x16E7 JUMPI JUMP JUMPDEST PUSH4 0x4E487B71 PUSH1 0xE0 SHL PUSH1 0x0 MSTORE PUSH1 0x22 PUSH1 0x4 MSTORE PUSH1 0x24 PUSH1 0x0 REVERT JUMPDEST SWAP2 PUSH1 0x7F AND SWAP2 PUSH2 0x16DC JUMP JUMPDEST SWAP1 PUSH1 0x0 SWAP3 SWAP2 DUP1 SLOAD SWAP2 PUSH2 0x1718 DUP4 PUSH2 0x16CD JUMP JUMPDEST SWAP2 DUP3 DUP3 MSTORE PUSH1 0x1 SWAP4 DUP5 DUP2 AND SWAP1 DUP2 PUSH1 0x0 EQ PUSH2 0x177A JUMPI POP PUSH1 0x1 EQ PUSH2 0x173A JUMPI JUMPDEST POP POP POP POP JUMP JUMPDEST SWAP1 SWAP2 SWAP4 SWAP5 POP PUSH1 0x0 MSTORE PUSH1 0x20 SWAP3 DUP4 PUSH1 0x0 KECCAK256 SWAP3 DUP5 PUSH1 0x0 SWAP5 JUMPDEST DUP4 DUP7 LT PUSH2 0x1766 JUMPI POP POP POP POP ADD ADD SWAP1 CODESIZE DUP1 DUP1 DUP1 PUSH2 0x1734 JUMP JUMPDEST DUP1 SLOAD DUP6 DUP8 ADD DUP4 ADD MSTORE SWAP5 ADD SWAP4 DUP6 SWAP1 DUP3 ADD PUSH2 0x174F JUMP JUMPDEST SWAP3 SWAP5 POP POP POP PUSH1 0x20 SWAP4 SWAP5 POP PUSH1 0xFF NOT AND DUP4 DUP4 ADD MSTORE ISZERO ISZERO PUSH1 0x5 SHL ADD ADD SWAP1 CODESIZE DUP1 DUP1 DUP1 PUSH2 0x1734 JUMP JUMPDEST PUSH2 0x160 DUP2 ADD SWAP1 DUP2 LT PUSH1 0x1 PUSH1 0x1 PUSH1 0x40 SHL SUB DUP3 GT OR PUSH2 0x770 JUMPI PUSH1 0x40 MSTORE JUMP JUMPDEST PUSH1 0x1F SWAP1 SWAP2 ADD PUSH1 0x1F NOT AND DUP2 ADD SWAP1 PUSH1 0x1 PUSH1 0x1 PUSH1 0x40 SHL SUB DUP3 GT SWAP1 DUP3 LT OR PUSH2 0x770 JUMPI PUSH1 0x40 MSTORE JUMP JUMPDEST SWAP2 SWAP1 DUP3 ADD DUP1 SWAP3 GT PUSH2 0x17E9 JUMPI JUMP JUMPDEST PUSH4 0x4E487B71 PUSH1 0xE0 SHL PUSH1 0x0 MSTORE PUSH1 0x11 PUSH1 0x4 MSTORE PUSH1 0x24 PUSH1 0x0 REVERT JUMPDEST SWAP1 DUP1 PUSH1 0x20 SWAP4 SWAP3 DUP2 DUP5 MSTORE DUP5 DUP5 ADD CALLDATACOPY PUSH1 0x0 DUP3 DUP3 ADD DUP5 ADD MSTORE PUSH1 0x1F ADD PUSH1 0x1F NOT AND ADD ADD SWAP1 JUMP JUMPDEST PUSH1 0x0 NOT DUP2 EQ PUSH2 0x17E9 JUMPI PUSH1 0x1 ADD SWAP1 JUMP JUMPDEST SWAP1 PUSH1 0x1F DUP2 GT PUSH2 0x183D JUMPI POP POP POP JUMP JUMPDEST PUSH1 0x0 SWAP2 DUP3 MSTORE PUSH1 0x20 DUP3 KECCAK256 SWAP1 PUSH1 0x20 PUSH1 0x1F DUP6 ADD PUSH1 0x5 SHR DUP4 ADD SWAP5 LT PUSH2 0x1879 JUMPI JUMPDEST PUSH1 0x1F ADD PUSH1 0x5 SHR ADD SWAP2 JUMPDEST DUP3 DUP2 LT PUSH2 0x186E JUMPI POP POP POP JUMP JUMPDEST DUP2 DUP2 SSTORE PUSH1 0x1 ADD PUSH2 0x1862 JUMP JUMPDEST SWAP1 SWAP3 POP DUP3 SWAP1 PUSH2 0x1859 JUMP JUMPDEST DUP1 SLOAD PUSH1 0x1 PUSH1 0x40 SHL DUP2 LT ISZERO PUSH2 0x770 JUMPI PUSH2 0x18A0 SWAP2 PUSH1 0x1 DUP3 ADD DUP2 SSTORE PUSH2 0x15D4 JUMP JUMPDEST DUP2 SWAP3 SWAP2 SLOAD SWAP1 PUSH1 0x3 SHL SWAP2 DUP3 SHL SWAP2 PUSH1 0x0 NOT SWAP1 SHL NOT AND OR SWAP1 SSTORE JUMP JUMPDEST DUP2 ISZERO PUSH2 0x18C2 JUMPI DIV SWAP1 JUMP JUMPDEST PUSH4 0x4E487B71 PUSH1 0xE0 SHL PUSH1 0x0 MSTORE PUSH1 0x12 PUSH1 0x4 MSTORE PUSH1 0x24 PUSH1 0x0 REVERT JUMPDEST PUSH1 0x0 SWAP1 DUP2 MSTORE PUSH1 0x5 PUSH1 0x20 MSTORE PUSH1 0x40 DUP2 KECCAK256 SLOAD PUSH1 0x6 PUSH1 0x20 MSTORE PUSH1 0x40 DUP3 KECCAK256 SLOAD SWAP1 DUP2 ISZERO PUSH2 0x1982 JUMPI DUP2 PUSH2 0x1902 SWAP2 PUSH2 0x18B8 JUMP JUMPDEST PUSH1 0x1 PUSH1 0x1 PUSH1 0xA0 SHL SUB SWAP1 SWAP4 AND DUP3 MSTORE PUSH1 0xA PUSH1 0x20 MSTORE PUSH1 0x40 DUP3 KECCAK256 SLOAD PUSH1 0x64 DUP1 DUP3 MUL SWAP2 DUP1 ISZERO SWAP1 DUP4 DIV SWAP1 SWAP2 EQ OR ISZERO PUSH2 0x196E JUMPI SWAP1 PUSH2 0x1937 SWAP2 PUSH2 0x18B8 JUMP JUMPDEST SWAP1 DUP2 DUP4 MUL SWAP2 DUP4 DUP4 DIV EQ DUP4 ISZERO OR ISZERO PUSH2 0x195A JUMPI POP SWAP1 PUSH1 0x64 PUSH2 0x1957 SWAP3 DIV SWAP1 PUSH2 0x17DC JUMP JUMPDEST SWAP1 JUMP JUMPDEST PUSH4 0x4E487B71 PUSH1 0xE0 SHL DUP2 MSTORE PUSH1 0x11 PUSH1 0x4 MSTORE PUSH1 0x24 SWAP1 REVERT JUMPDEST PUSH4 0x4E487B71 PUSH1 0xE0 SHL DUP4 MSTORE PUSH1 0x11 PUSH1 0x4 MSTORE PUSH1 0x24 DUP4 REVERT JUMPDEST POP POP SWAP1 POP SWAP1 JUMP JUMPDEST SWAP2 SWAP1 DUP3 SUB SWAP2 DUP3 GT PUSH2 0x17E9 JUMPI JUMP INVALID 0xC2 DUP9 DUP4 PUSH32 0x892A922779B110A95D4F6B6FD25014B842C27A70E5FA038AAAD1FC0660803461 STOP PUSH24 0x57601F61159238819003918201601F191683019160016001 PUSH1 0x40 SHL SUB DUP4 GT DUP5 DUP5 LT OR PUSH2 0x7C JUMPI DUP1 DUP5 SWAP3 PUSH1 0x20 SWAP5 PUSH1 0x40 MSTORE DUP4 CODECOPY DUP2 ADD SUB SLT PUSH2 0x77 JUMPI MLOAD PUSH1 0x1 PUSH1 0x1 PUSH1 0xA0 SHL SUB DUP2 AND SWAP1 DUP2 SWAP1 SUB PUSH2 0x77 JUMPI PUSH1 0x0 DUP1 SLOAD PUSH1 0x1 PUSH1 0x1 PUSH1 0xA0 SHL SUB NOT AND SWAP2 SWAP1 SWAP2 OR DUP2 SSTORE PUSH1 0x1 SSTORE PUSH1 0x40 MLOAD PUSH2 0x14FF SWAP1 DUP2 PUSH2 0x93 DUP3 CODECOPY RETURN JUMPDEST PUSH1 0x0 DUP1 REVERT JUMPDEST PUSH4 0x4E487B71 PUSH1 0xE0 SHL PUSH1 0x0 MSTORE PUSH1 0x41 PUSH1 0x4 MSTORE PUSH1 0x24 PUSH1 0x0 REVERT INVALID PUSH1 0x80 PUSH1 0x40 MSTORE PUSH1 0x4 CALLDATASIZE LT ISZERO PUSH2 0x12 JUMPI PUSH1 0x0 DUP1 REVERT JUMPDEST PUSH1 0x0 CALLDATALOAD PUSH1 0xE0 SHR DUP1 PUSH4 0x511F072 EQ PUSH2 0xFF9 JUMPI DUP1 PUSH4 0x686108D EQ PUSH2 0xEDC JUMPI DUP1 PUSH4 0xBF3F628 EQ PUSH2 0xE68 JUMPI DUP1 PUSH4 0xD11EAD0 EQ PUSH2 0xDB0 JUMPI DUP1 PUSH4 0x10701FC7 EQ PUSH2 0xD46 JUMPI DUP1 PUSH4 0x1F66AA6A EQ PUSH2 0xBCE JUMPI DUP1 PUSH4 0x24B5B980 EQ PUSH2 0xB56 JUMPI DUP1 PUSH4 0x2B673A2E EQ PUSH2 0xB13 JUMPI DUP1 PUSH4 0x46869F06 EQ PUSH2 0xAA8 JUMPI DUP1 PUSH4 0x74924CEA EQ PUSH2 0xA78 JUMPI DUP1 PUSH4 0x9CD33C4C EQ PUSH2 0xA2E JUMPI DUP1 PUSH4 0xB02C0593 EQ PUSH2 0x950 JUMPI DUP1 PUSH4 0xB91EF52D EQ PUSH2 0x91F JUMPI DUP1 PUSH4 0xBEB3F175 EQ PUSH2 0x858 JUMPI DUP1 PUSH4 0xD8847B04 EQ PUSH2 0x76C JUMPI DUP1 PUSH4 0xDFD4D31D EQ PUSH2 0x6E4 JUMPI DUP1 PUSH4 0xE80DB5DB EQ PUSH2 0x6BB JUMPI DUP1 PUSH4 0xF2B75CE1 EQ PUSH2 0x69D JUMPI DUP1 PUSH4 0xF55E9A34 EQ PUSH2 0x1E7 JUMPI DUP1 PUSH4 0xF8F37167 EQ PUSH2 0x160 JUMPI PUSH4 0xFAE5A355 EQ PUSH2 0x103 JUMPI PUSH1 0x0 DUP1 REVERT JUMPDEST CALLVALUE PUSH2 0x15B JUMPI PUSH1 0x40 CALLDATASIZE PUSH1 0x3 NOT ADD SLT PUSH2 0x15B JUMPI PUSH2 0x11C PUSH2 0x1043 JUMP JUMPDEST PUSH1 0x1 PUSH1 0x1 PUSH1 0xA0 SHL SUB AND PUSH1 0x0 SWAP1 DUP2 MSTORE PUSH1 0x7 PUSH1 0x20 MSTORE PUSH1 0x40 SWAP1 KECCAK256 DUP1 SLOAD PUSH1 0x24 CALLDATALOAD SWAP2 SWAP1 DUP3 LT ISZERO PUSH2 0x15B JUMPI PUSH1 0x20 SWAP2 PUSH2 0x14D SWAP2 PUSH2 0x106F JUMP JUMPDEST SWAP1 SLOAD PUSH1 0x40 MLOAD SWAP2 PUSH1 0x3 SHL SHR DUP2 MSTORE RETURN JUMPDEST PUSH1 0x0 DUP1 REVERT JUMPDEST CALLVALUE PUSH2 0x15B JUMPI PUSH1 0x40 CALLDATASIZE PUSH1 0x3 NOT ADD SLT PUSH2 0x15B JUMPI PUSH1 0xC0 PUSH2 0x17B PUSH2 0x1059 JUMP JUMPDEST PUSH1 0x4 CALLDATALOAD PUSH1 0x0 MSTORE PUSH1 0x2 PUSH1 0x20 MSTORE PUSH1 0x40 PUSH1 0x0 KECCAK256 PUSH1 0x1 DUP1 PUSH1 0xA0 SHL SUB DUP1 SWAP3 AND PUSH1 0x0 MSTORE PUSH1 0x20 MSTORE PUSH1 0x40 PUSH1 0x0 KECCAK256 SWAP1 DUP2 SLOAD AND SWAP1 PUSH1 0x1 DUP2 ADD SLOAD SWAP1 PUSH1 0x2 DUP2 ADD SLOAD PUSH1 0x3 DUP3 ADD SLOAD SWAP1 PUSH1 0xFF PUSH1 0x5 PUSH1 0x4 DUP6 ADD SLOAD SWAP5 ADD SLOAD AND SWAP4 PUSH1 0x40 MLOAD SWAP6 DUP7 MSTORE PUSH1 0x20 DUP7 ADD MSTORE PUSH1 0x40 DUP6 ADD MSTORE PUSH1 0x60 DUP5 ADD MSTORE PUSH1 0x80 DUP4 ADD MSTORE ISZERO ISZERO PUSH1 0xA0 DUP3 ADD MSTORE RETURN JUMPDEST CALLVALUE PUSH2 0x15B JUMPI PUSH1 0x80 CALLDATASIZE PUSH1 0x3 NOT ADD SLT PUSH2 0x15B JUMPI PUSH1 0x24 CALLDATALOAD PUSH1 0x1 PUSH1 0x1 PUSH1 0x40 SHL SUB DUP2 GT PUSH2 0x15B JUMPI PUSH2 0x217 SWAP1 CALLDATASIZE SWAP1 PUSH1 0x4 ADD PUSH2 0x109D JUMP JUMPDEST PUSH1 0x44 CALLDATALOAD PUSH1 0x1 PUSH1 0x1 PUSH1 0x40 SHL SUB DUP2 GT PUSH2 0x15B JUMPI PUSH2 0x236 SWAP1 CALLDATASIZE SWAP1 PUSH1 0x4 ADD PUSH2 0x109D JUMP JUMPDEST SWAP1 PUSH1 0x64 CALLDATALOAD PUSH1 0x1 PUSH1 0x1 PUSH1 0x40 SHL SUB DUP2 GT PUSH2 0x15B JUMPI PUSH2 0x256 SWAP1 CALLDATASIZE SWAP1 PUSH1 0x4 ADD PUSH2 0x109D JUMP JUMPDEST SWAP1 SWAP4 PUSH2 0x264 CALLER PUSH1 0x4 CALLDATALOAD PUSH2 0x12FF JUMP JUMPDEST ISZERO PUSH2 0x15B JUMPI PUSH2 0x274 PUSH1 0x1 SLOAD PUSH2 0x12B9 JUMP JUMPDEST PUSH1 0x1 DUP2 DUP2 SSTORE PUSH1 0x0 DUP3 DUP2 MSTORE PUSH1 0x5 PUSH1 0x20 MSTORE PUSH1 0x40 SWAP1 KECCAK256 DUP1 SLOAD PUSH1 0x1 PUSH1 0x1 PUSH1 0xA0 SHL SUB NOT AND CALLER OR DUP2 SSTORE PUSH1 0x4 CALLDATALOAD SWAP2 DUP2 ADD SWAP2 SWAP1 SWAP2 SSTORE SWAP1 SWAP6 PUSH1 0x1 PUSH1 0x1 PUSH1 0x40 SHL SUB DUP4 GT PUSH2 0x505 JUMPI PUSH2 0x2BE PUSH1 0x2 DUP4 ADD SLOAD PUSH2 0x115B JUMP JUMPDEST PUSH1 0x1F DUP2 GT PUSH2 0x656 JUMPI JUMPDEST POP DUP3 PUSH1 0x0 PUSH1 0x1F DUP3 GT PUSH1 0x1 EQ PUSH2 0x5E6 JUMPI PUSH1 0x0 SWAP2 PUSH2 0x5DB JUMPI JUMPDEST POP DUP4 PUSH1 0x1 SHL SWAP1 PUSH1 0x0 NOT DUP6 PUSH1 0x3 SHL SHR NOT AND OR PUSH1 0x2 DUP4 ADD SSTORE JUMPDEST PUSH1 0x1 PUSH1 0x1 PUSH1 0x40 SHL SUB DUP7 GT PUSH2 0x505 JUMPI PUSH2 0x310 PUSH1 0x3 DUP4 ADD SLOAD PUSH2 0x115B JUMP JUMPDEST PUSH1 0x1F DUP2 GT PUSH2 0x594 JUMPI JUMPDEST POP DUP6 PUSH1 0x0 PUSH1 0x1F DUP3 GT PUSH1 0x1 EQ PUSH2 0x526 JUMPI PUSH1 0x0 SWAP2 PUSH2 0x51B JUMPI JUMPDEST POP DUP7 PUSH1 0x1 SHL SWAP1 PUSH1 0x0 NOT DUP9 PUSH1 0x3 SHL SHR NOT AND OR PUSH1 0x3 DUP4 ADD SSTORE JUMPDEST PUSH1 0x1 PUSH1 0x1 PUSH1 0x40 SHL SUB DUP5 GT PUSH2 0x505 JUMPI PUSH2 0x362 PUSH1 0x4 DUP4 ADD SLOAD PUSH2 0x115B JUMP JUMPDEST PUSH1 0x1F DUP2 GT PUSH2 0x4BE JUMPI JUMPDEST POP SWAP2 PUSH1 0x20 SWAP8 SWAP2 DUP8 SWAP4 PUSH1 0x0 SWAP1 PUSH1 0x1F DUP8 GT PUSH1 0x1 EQ PUSH2 0x437 JUMPI SWAP6 DUP1 PUSH1 0x6 SWAP4 SWAP3 PUSH1 0x0 DUP1 MLOAD PUSH1 0x20 PUSH2 0x14DF DUP4 CODECOPY DUP2 MLOAD SWAP2 MSTORE SWAP8 SWAP9 PUSH1 0x0 SWAP3 PUSH2 0x42C JUMPI JUMPDEST POP POP DUP2 PUSH1 0x1 SHL SWAP2 PUSH1 0x0 NOT SWAP1 PUSH1 0x3 SHL SHR NOT AND OR PUSH1 0x4 DUP3 ADD SSTORE JUMPDEST TIMESTAMP PUSH1 0x5 DUP3 ADD SSTORE ADD PUSH1 0xFF NOT DUP2 SLOAD AND SWAP1 SSTORE PUSH1 0x4 CALLDATALOAD PUSH1 0x0 MSTORE PUSH1 0x6 DUP9 MSTORE PUSH2 0x3DF DUP5 PUSH1 0x40 PUSH1 0x0 KECCAK256 PUSH2 0x1284 JUMP JUMPDEST CALLER PUSH1 0x0 MSTORE PUSH1 0x7 DUP9 MSTORE PUSH2 0x3F5 DUP5 PUSH1 0x40 PUSH1 0x0 KECCAK256 PUSH2 0x1284 JUMP JUMPDEST PUSH2 0x421 PUSH2 0x40F PUSH1 0x40 MLOAD SWAP4 DUP5 SWAP4 PUSH1 0x40 DUP6 MSTORE PUSH1 0x40 DUP6 ADD SWAP2 PUSH2 0x12DE JUMP JUMPDEST DUP3 DUP2 SUB DUP11 DUP5 ADD MSTORE CALLER SWAP8 PUSH1 0x4 CALLDATALOAD SWAP8 PUSH2 0x12DE JUMP JUMPDEST SUB SWAP1 LOG4 PUSH1 0x40 MLOAD SWAP1 DUP2 MSTORE RETURN JUMPDEST ADD CALLDATALOAD SWAP1 POP DUP13 DUP1 PUSH2 0x3A0 JUMP JUMPDEST PUSH1 0x4 DUP4 SWAP8 SWAP3 SWAP8 ADD PUSH1 0x0 MSTORE DUP11 PUSH1 0x0 KECCAK256 SWAP7 PUSH1 0x0 JUMPDEST PUSH1 0x1F NOT DUP5 AND DUP2 LT PUSH2 0x4A4 JUMPI POP SWAP2 PUSH1 0x0 DUP1 MLOAD PUSH1 0x20 PUSH2 0x14DF DUP4 CODECOPY DUP2 MLOAD SWAP2 MSTORE SWAP7 SWAP8 PUSH1 0x1 SWAP3 PUSH1 0x6 SWAP6 SWAP5 DUP4 PUSH1 0x1F NOT DUP2 AND LT PUSH2 0x48A JUMPI JUMPDEST POP POP POP DUP2 SHL ADD PUSH1 0x4 DUP3 ADD SSTORE PUSH2 0x3B8 JUMP JUMPDEST ADD CALLDATALOAD PUSH1 0x0 NOT PUSH1 0x3 DUP5 SWAP1 SHL PUSH1 0xF8 AND SHR NOT AND SWAP1 SSTORE DUP13 DUP1 DUP1 PUSH2 0x47A JUMP JUMPDEST DUP2 DUP4 ADD CALLDATALOAD DUP10 SSTORE PUSH1 0x1 SWAP1 SWAP9 ADD SWAP8 DUP12 SWAP8 POP SWAP1 DUP13 ADD SWAP1 DUP13 ADD PUSH2 0x449 JUMP JUMPDEST PUSH1 0x4 DUP4 ADD PUSH1 0x0 MSTORE PUSH1 0x20 PUSH1 0x0 KECCAK256 PUSH1 0x1F DUP7 ADD PUSH1 0x5 SHR DUP2 ADD PUSH1 0x20 DUP8 LT PUSH2 0x4FE JUMPI JUMPDEST PUSH1 0x1F DUP4 ADD PUSH1 0x5 SHR DUP3 ADD DUP2 LT PUSH2 0x4F2 JUMPI POP POP PUSH2 0x36B JUMP JUMPDEST PUSH1 0x0 DUP2 SSTORE PUSH1 0x1 ADD PUSH2 0x4DC JUMP JUMPDEST POP DUP1 PUSH2 0x4DC JUMP JUMPDEST PUSH4 0x4E487B71 PUSH1 0xE0 SHL PUSH1 0x0 MSTORE PUSH1 0x41 PUSH1 0x4 MSTORE PUSH1 0x24 PUSH1 0x0 REVERT JUMPDEST SWAP1 POP DUP6 ADD CALLDATALOAD DUP10 PUSH2 0x330 JUMP JUMPDEST SWAP1 POP PUSH1 0x3 DUP4 ADD PUSH1 0x0 MSTORE PUSH1 0x20 PUSH1 0x0 KECCAK256 SWAP1 PUSH1 0x0 JUMPDEST PUSH1 0x1F NOT DUP10 AND DUP2 LT PUSH2 0x57C JUMPI POP DUP8 PUSH1 0x1F NOT DUP2 AND LT PUSH2 0x562 JUMPI JUMPDEST POP POP PUSH1 0x1 DUP7 DUP2 SHL ADD PUSH1 0x3 DUP4 ADD SSTORE PUSH2 0x347 JUMP JUMPDEST DUP7 ADD CALLDATALOAD PUSH1 0x0 NOT PUSH1 0x3 DUP10 SWAP1 SHL PUSH1 0xF8 AND SHR NOT AND SWAP1 SSTORE DUP9 DUP1 PUSH2 0x550 JUMP JUMPDEST SWAP1 SWAP2 PUSH1 0x20 PUSH1 0x1 DUP2 SWAP3 DUP6 DUP12 ADD CALLDATALOAD DUP2 SSTORE ADD SWAP4 ADD SWAP2 ADD PUSH2 0x538 JUMP JUMPDEST PUSH1 0x3 DUP4 ADD PUSH1 0x0 MSTORE PUSH1 0x20 PUSH1 0x0 KECCAK256 PUSH1 0x1F DUP9 ADD PUSH1 0x5 SHR DUP2 ADD PUSH1 0x20 DUP10 LT PUSH2 0x5D4 JUMPI JUMPDEST PUSH1 0x1F DUP4 ADD PUSH1 0x5 SHR DUP3 ADD DUP2 LT PUSH2 0x5C8 JUMPI POP POP PUSH2 0x319 JUMP JUMPDEST PUSH1 0x0 DUP2 SSTORE PUSH1 0x1 ADD PUSH2 0x5B2 JUMP JUMPDEST POP DUP1 PUSH2 0x5B2 JUMP JUMPDEST SWAP1 POP DUP9 ADD CALLDATALOAD DUP10 PUSH2 0x2DE JUMP JUMPDEST SWAP1 POP PUSH1 0x2 DUP4 ADD PUSH1 0x0 MSTORE PUSH1 0x20 PUSH1 0x0 KECCAK256 SWAP1 PUSH1 0x0 JUMPDEST DUP11 PUSH1 0x1F NOT DUP8 AND DUP3 LT PUSH2 0x63E JUMPI POP POP DUP5 PUSH1 0x1F NOT DUP2 AND LT PUSH2 0x624 JUMPI JUMPDEST POP POP PUSH1 0x1 DUP4 DUP2 SHL ADD PUSH1 0x2 DUP4 ADD SSTORE PUSH2 0x2F5 JUMP JUMPDEST DUP10 ADD CALLDATALOAD PUSH1 0x0 NOT PUSH1 0x3 DUP7 SWAP1 SHL PUSH1 0xF8 AND SHR NOT AND SWAP1 SSTORE DUP9 DUP1 PUSH2 0x612 JUMP JUMPDEST PUSH1 0x1 DUP4 SWAP5 PUSH1 0x20 SWAP4 SWAP5 DUP5 SWAP4 ADD CALLDATALOAD DUP2 SSTORE ADD SWAP4 ADD SWAP2 ADD PUSH2 0x5F8 JUMP JUMPDEST PUSH1 0x2 DUP4 ADD PUSH1 0x0 MSTORE PUSH1 0x20 PUSH1 0x0 KECCAK256 PUSH1 0x1F DUP6 ADD PUSH1 0x5 SHR DUP2 ADD PUSH1 0x20 DUP7 LT PUSH2 0x696 JUMPI JUMPDEST PUSH1 0x1F DUP4 ADD PUSH1 0x5 SHR DUP3 ADD DUP2 LT PUSH2 0x68A JUMPI POP POP PUSH2 0x2C7 JUMP JUMPDEST PUSH1 0x0 DUP2 SSTORE PUSH1 0x1 ADD PUSH2 0x674 JUMP JUMPDEST POP DUP1 PUSH2 0x674 JUMP JUMPDEST CALLVALUE PUSH2 0x15B JUMPI PUSH1 0x0 CALLDATASIZE PUSH1 0x3 NOT ADD SLT PUSH2 0x15B JUMPI PUSH1 0x20 PUSH1 0x1 SLOAD PUSH1 0x40 MLOAD SWAP1 DUP2 MSTORE RETURN JUMPDEST CALLVALUE PUSH2 0x15B JUMPI PUSH1 0x0 CALLDATASIZE PUSH1 0x3 NOT ADD SLT PUSH2 0x15B JUMPI PUSH1 0x0 SLOAD PUSH1 0x40 MLOAD PUSH1 0x1 PUSH1 0x1 PUSH1 0xA0 SHL SUB SWAP1 SWAP2 AND DUP2 MSTORE PUSH1 0x20 SWAP1 RETURN JUMPDEST CALLVALUE PUSH2 0x15B JUMPI PUSH1 0x20 DUP1 PUSH1 0x3 NOT CALLDATASIZE ADD SLT PUSH2 0x15B JUMPI PUSH1 0x1 PUSH1 0x1 PUSH1 0xA0 SHL SUB PUSH2 0x706 PUSH2 0x1043 JUMP JUMPDEST AND PUSH1 0x0 MSTORE PUSH1 0x7 DUP2 MSTORE PUSH1 0x40 PUSH1 0x0 KECCAK256 SWAP1 PUSH1 0x40 MLOAD SWAP1 DUP2 DUP2 DUP5 SLOAD SWAP2 DUP3 DUP2 MSTORE ADD SWAP4 PUSH1 0x0 MSTORE DUP2 PUSH1 0x0 KECCAK256 SWAP2 PUSH1 0x0 SWAP1 JUMPDEST DUP3 DUP3 LT PUSH2 0x755 JUMPI PUSH2 0x751 DUP6 PUSH2 0x745 DUP2 DUP10 SUB DUP3 PUSH2 0x1261 JUMP JUMPDEST PUSH1 0x40 MLOAD SWAP2 DUP3 SWAP2 DUP3 PUSH2 0x10CA JUMP JUMPDEST SUB SWAP1 RETURN JUMPDEST DUP4 SLOAD DUP7 MSTORE SWAP5 DUP6 ADD SWAP5 PUSH1 0x1 SWAP4 DUP5 ADD SWAP4 SWAP1 SWAP2 ADD SWAP1 PUSH2 0x72E JUMP JUMPDEST CALLVALUE PUSH2 0x15B JUMPI PUSH1 0x40 CALLDATASIZE PUSH1 0x3 NOT ADD SLT PUSH2 0x15B JUMPI PUSH1 0xC0 PUSH2 0x787 PUSH2 0x1059 JUMP JUMPDEST PUSH1 0x0 PUSH1 0xA0 PUSH1 0x40 MLOAD PUSH2 0x797 DUP2 PUSH2 0x1246 JUMP JUMPDEST DUP3 DUP2 MSTORE DUP3 PUSH1 0x20 DUP3 ADD MSTORE DUP3 PUSH1 0x40 DUP3 ADD MSTORE DUP3 PUSH1 0x60 DUP3 ADD MSTORE DUP3 PUSH1 0x80 DUP3 ADD MSTORE ADD MSTORE PUSH1 0x4 CALLDATALOAD PUSH1 0x0 MSTORE PUSH1 0x2 PUSH1 0x20 MSTORE PUSH1 0x40 PUSH1 0x0 KECCAK256 PUSH1 0x1 DUP1 PUSH1 0xA0 SHL SUB DUP1 SWAP3 AND PUSH1 0x0 MSTORE PUSH1 0x20 MSTORE PUSH1 0x40 PUSH1 0x0 KECCAK256 SWAP1 PUSH1 0x40 MLOAD SWAP1 PUSH2 0x7E7 DUP3 PUSH2 0x1246 JUMP JUMPDEST DUP3 SLOAD AND SWAP2 DUP3 DUP3 MSTORE PUSH1 0x1 DUP2 ADD SLOAD PUSH1 0x20 DUP4 ADD SWAP1 DUP2 MSTORE PUSH1 0x2 DUP3 ADD SLOAD PUSH1 0x40 DUP5 ADD SWAP1 DUP2 MSTORE PUSH1 0x3 DUP4 ADD SLOAD SWAP2 PUSH1 0x60 DUP6 ADD SWAP3 DUP4 MSTORE PUSH1 0xA0 PUSH1 0xFF PUSH1 0x5 PUSH1 0x4 DUP8 ADD SLOAD SWAP7 PUSH1 0x80 DUP10 ADD SWAP8 DUP9 MSTORE ADD SLOAD AND SWAP6 ADD SWAP5 ISZERO ISZERO DUP6 MSTORE PUSH1 0x40 MLOAD SWAP6 DUP7 MSTORE MLOAD PUSH1 0x20 DUP7 ADD MSTORE MLOAD PUSH1 0x40 DUP6 ADD MSTORE MLOAD PUSH1 0x60 DUP5 ADD MSTORE MLOAD PUSH1 0x80 DUP4 ADD MSTORE MLOAD ISZERO ISZERO PUSH1 0xA0 DUP3 ADD MSTORE RETURN JUMPDEST CALLVALUE PUSH2 0x15B JUMPI PUSH1 0x60 CALLDATASIZE PUSH1 0x3 NOT ADD SLT PUSH2 0x15B JUMPI PUSH1 0x4 CALLDATALOAD PUSH2 0x874 PUSH2 0x1059 JUMP JUMPDEST SWAP1 PUSH1 0x44 CALLDATALOAD PUSH1 0x1 PUSH1 0x1 PUSH1 0x40 SHL SUB DUP2 GT PUSH2 0x15B JUMPI PUSH2 0x894 SWAP1 CALLDATASIZE SWAP1 PUSH1 0x4 ADD PUSH2 0x109D JUMP JUMPDEST PUSH1 0x0 SLOAD PUSH1 0x1 PUSH1 0x1 PUSH1 0xA0 SHL SUB SWAP3 SWAP2 SWAP1 DUP4 AND CALLER SUB PUSH2 0x15B JUMPI PUSH2 0x8B4 DUP6 DUP6 PUSH2 0x12FF JUMP JUMPDEST ISZERO PUSH2 0x15B JUMPI PUSH32 0x2B7CC58F47BC3D7D428C5762884C66772AA45284346B22C89C302CA629B40B24 SWAP3 DUP5 PUSH1 0x0 MSTORE PUSH1 0x2 PUSH1 0x20 MSTORE PUSH1 0x40 PUSH1 0x0 KECCAK256 SWAP6 AND SWAP5 DUP6 PUSH1 0x0 MSTORE PUSH1 0x20 MSTORE PUSH1 0x5 PUSH1 0x40 PUSH1 0x0 KECCAK256 ADD PUSH1 0xFF NOT DUP2 SLOAD AND SWAP1 SSTORE PUSH2 0x91A PUSH1 0x40 MLOAD SWAP3 DUP4 SWAP3 PUSH1 0x20 DUP5 MSTORE PUSH1 0x20 DUP5 ADD SWAP2 PUSH2 0x12DE JUMP JUMPDEST SUB SWAP1 LOG3 STOP JUMPDEST CALLVALUE PUSH2 0x15B JUMPI PUSH2 0x92D CALLDATASIZE PUSH2 0x1145 JUMP JUMPDEST SWAP1 PUSH1 0x0 MSTORE PUSH1 0x6 PUSH1 0x20 MSTORE PUSH1 0x40 PUSH1 0x0 KECCAK256 DUP1 SLOAD DUP3 LT ISZERO PUSH2 0x15B JUMPI PUSH1 0x20 SWAP2 PUSH2 0x14D SWAP2 PUSH2 0x106F JUMP JUMPDEST CALLVALUE PUSH2 0x15B JUMPI PUSH1 0x20 CALLDATASIZE PUSH1 0x3 NOT ADD SLT PUSH2 0x15B JUMPI PUSH1 0x4 CALLDATALOAD PUSH1 0x0 MSTORE PUSH1 0x5 PUSH1 0x20 MSTORE PUSH1 0x40 PUSH1 0x0 KECCAK256 PUSH1 0x1 DUP1 PUSH1 0xA0 SHL SUB DUP2 SLOAD AND PUSH1 0x1 DUP3 ADD SLOAD SWAP2 PUSH1 0x40 MLOAD PUSH2 0x99C DUP2 PUSH2 0x995 DUP2 PUSH1 0x2 DUP7 ADD PUSH2 0x1195 JUMP JUMPDEST SUB DUP3 PUSH2 0x1261 JUMP JUMPDEST PUSH2 0xA1D PUSH1 0x40 MLOAD PUSH2 0x9B3 DUP2 PUSH2 0x995 DUP2 PUSH1 0x3 DUP9 ADD PUSH2 0x1195 JUMP JUMPDEST PUSH2 0xA0F PUSH1 0x40 MLOAD SWAP2 PUSH2 0x9D2 DUP4 PUSH2 0x9CB DUP2 PUSH1 0x4 DUP11 ADD PUSH2 0x1195 JUMP JUMPDEST SUB DUP5 PUSH2 0x1261 JUMP JUMPDEST PUSH2 0xA01 PUSH1 0xFF PUSH1 0x6 PUSH1 0x5 DUP10 ADD SLOAD SWAP9 ADD SLOAD AND SWAP6 PUSH1 0x40 MLOAD SWAP10 DUP11 SWAP10 DUP11 MSTORE PUSH1 0x20 DUP11 ADD MSTORE PUSH1 0xE0 PUSH1 0x40 DUP11 ADD MSTORE PUSH1 0xE0 DUP10 ADD SWAP1 PUSH2 0x1105 JUMP JUMPDEST SWAP1 DUP8 DUP3 SUB PUSH1 0x60 DUP10 ADD MSTORE PUSH2 0x1105 JUMP JUMPDEST SWAP1 DUP6 DUP3 SUB PUSH1 0x80 DUP8 ADD MSTORE PUSH2 0x1105 JUMP JUMPDEST SWAP2 PUSH1 0xA0 DUP5 ADD MSTORE ISZERO ISZERO PUSH1 0xC0 DUP4 ADD MSTORE SUB SWAP1 RETURN JUMPDEST CALLVALUE PUSH2 0x15B JUMPI PUSH2 0xA3C CALLDATASIZE PUSH2 0x1145 JUMP JUMPDEST SWAP1 PUSH1 0x0 MSTORE PUSH1 0x3 PUSH1 0x20 MSTORE PUSH1 0x40 PUSH1 0x0 KECCAK256 DUP1 SLOAD DUP3 LT ISZERO PUSH2 0x15B JUMPI PUSH1 0x20 SWAP2 PUSH2 0xA5F SWAP2 PUSH2 0x106F JUMP JUMPDEST SWAP1 SLOAD PUSH1 0x40 MLOAD PUSH1 0x3 SWAP3 SWAP1 SWAP3 SHL SHR PUSH1 0x1 PUSH1 0x1 PUSH1 0xA0 SHL SUB AND DUP2 MSTORE RETURN JUMPDEST CALLVALUE PUSH2 0x15B JUMPI PUSH1 0x40 CALLDATASIZE PUSH1 0x3 NOT ADD SLT PUSH2 0x15B JUMPI PUSH1 0x20 PUSH2 0xA9E PUSH2 0xA96 PUSH2 0x1059 JUMP JUMPDEST PUSH1 0x4 CALLDATALOAD PUSH2 0x12FF JUMP JUMPDEST PUSH1 0x40 MLOAD SWAP1 ISZERO ISZERO DUP2 MSTORE RETURN JUMPDEST CALLVALUE PUSH2 0x15B JUMPI PUSH1 0x40 CALLDATASIZE PUSH1 0x3 NOT ADD SLT PUSH2 0x15B JUMPI PUSH1 0x4 CALLDATALOAD PUSH1 0x24 CALLDATALOAD DUP1 ISZERO ISZERO DUP1 SWAP2 SUB PUSH2 0x15B JUMPI PUSH1 0x20 PUSH32 0x34A69AA246FAEBB040CFBB55E844A1DCCD2FB78D06EDE59E71383023B582517D SWAP2 DUP4 PUSH1 0x0 MSTORE PUSH1 0x5 DUP3 MSTORE PUSH1 0x6 PUSH1 0x40 PUSH1 0x0 KECCAK256 ADD PUSH1 0xFF NOT DUP2 SLOAD AND PUSH1 0xFF DUP4 AND OR SWAP1 SSTORE PUSH1 0x40 MLOAD SWAP1 DUP2 MSTORE LOG2 STOP JUMPDEST CALLVALUE PUSH2 0x15B JUMPI PUSH1 0x20 CALLDATASIZE PUSH1 0x3 NOT ADD SLT PUSH2 0x15B JUMPI PUSH2 0xB2C PUSH2 0x1043 JUMP JUMPDEST PUSH1 0x0 SLOAD SWAP1 PUSH1 0x1 PUSH1 0x1 PUSH1 0xA0 SHL SUB SWAP1 DUP2 DUP4 AND CALLER SUB PUSH2 0x15B JUMPI PUSH1 0x1 PUSH1 0x1 PUSH1 0xA0 SHL SUB NOT SWAP1 SWAP3 AND SWAP2 AND OR PUSH1 0x0 SSTORE STOP JUMPDEST CALLVALUE PUSH2 0x15B JUMPI PUSH1 0x20 DUP1 PUSH1 0x3 NOT CALLDATASIZE ADD SLT PUSH2 0x15B JUMPI PUSH1 0x1 PUSH1 0x1 PUSH1 0xA0 SHL SUB PUSH2 0xB78 PUSH2 0x1043 JUMP JUMPDEST AND PUSH1 0x0 MSTORE PUSH1 0x4 DUP2 MSTORE PUSH1 0x40 PUSH1 0x0 KECCAK256 SWAP1 PUSH1 0x40 MLOAD SWAP1 DUP2 DUP2 DUP5 SLOAD SWAP2 DUP3 DUP2 MSTORE ADD SWAP4 PUSH1 0x0 MSTORE DUP2 PUSH1 0x0 KECCAK256 SWAP2 PUSH1 0x0 SWAP1 JUMPDEST DUP3 DUP3 LT PUSH2 0xBB7 JUMPI PUSH2 0x751 DUP6 PUSH2 0x745 DUP2 DUP10 SUB DUP3 PUSH2 0x1261 JUMP JUMPDEST DUP4 SLOAD DUP7 MSTORE SWAP5 DUP6 ADD SWAP5 PUSH1 0x1 SWAP4 DUP5 ADD SWAP4 SWAP1 SWAP2 ADD SWAP1 PUSH2 0xBA0 JUMP JUMPDEST CALLVALUE PUSH2 0x15B JUMPI PUSH1 0x20 DUP1 PUSH1 0x3 NOT CALLDATASIZE ADD SLT PUSH2 0x15B JUMPI PUSH1 0x40 MLOAD SWAP1 PUSH2 0xBED DUP3 PUSH2 0x122B JUMP JUMPDEST PUSH1 0x0 DUP3 MSTORE DUP1 DUP3 ADD PUSH1 0x0 SWAP1 MSTORE PUSH1 0x60 SWAP2 DUP3 PUSH1 0x40 DUP3 ADD MSTORE DUP3 DUP1 DUP3 ADD MSTORE DUP3 PUSH1 0x80 DUP3 ADD MSTORE PUSH1 0xA0 DUP2 ADD PUSH1 0x0 SWAP1 MSTORE PUSH1 0xC0 ADD PUSH1 0x0 SWAP1 MSTORE PUSH1 0x4 CALLDATALOAD PUSH1 0x0 MSTORE PUSH1 0x5 DUP2 MSTORE PUSH1 0x40 PUSH1 0x0 KECCAK256 PUSH1 0x40 MLOAD SWAP2 PUSH2 0xC37 DUP4 PUSH2 0x122B JUMP JUMPDEST DUP2 SLOAD PUSH1 0x1 PUSH1 0x1 PUSH1 0xA0 SHL SUB SWAP1 DUP2 AND DUP5 MSTORE PUSH1 0x1 DUP4 ADD SLOAD DUP3 DUP6 ADD SWAP1 DUP2 MSTORE PUSH1 0x40 MLOAD SWAP2 SWAP6 DUP3 PUSH2 0xC64 DUP2 PUSH1 0x2 DUP9 ADD PUSH2 0x1195 JUMP JUMPDEST SUB PUSH2 0xC6F SWAP1 DUP5 PUSH2 0x1261 JUMP JUMPDEST PUSH1 0x40 DUP7 DUP2 ADD SWAP4 DUP5 MSTORE MLOAD SWAP3 DUP4 PUSH2 0xC87 DUP2 PUSH1 0x3 DUP10 ADD PUSH2 0x1195 JUMP JUMPDEST SUB PUSH2 0xC92 SWAP1 DUP6 PUSH2 0x1261 JUMP JUMPDEST DUP7 DUP3 ADD SWAP4 DUP5 MSTORE PUSH1 0x40 MLOAD SWAP3 DUP4 PUSH2 0xCAA DUP2 PUSH1 0x4 DUP11 ADD PUSH2 0x1195 JUMP JUMPDEST SUB PUSH2 0xCB5 SWAP1 DUP6 PUSH2 0x1261 JUMP JUMPDEST PUSH1 0x80 DUP9 ADD SWAP4 DUP5 MSTORE PUSH1 0x5 DUP8 ADD SLOAD SWAP7 PUSH1 0xA0 DUP10 ADD SWAP8 DUP9 MSTORE PUSH1 0x6 ADD SLOAD PUSH1 0xFF AND SWAP6 PUSH1 0xC0 DUP10 ADD SWAP7 ISZERO ISZERO DUP8 MSTORE PUSH1 0x40 MLOAD SWAP10 DUP11 SWAP10 DUP3 DUP12 MSTORE MLOAD AND SWAP1 DUP10 ADD MSTORE MLOAD PUSH1 0x40 DUP9 ADD MSTORE MLOAD SWAP1 DUP7 ADD PUSH1 0xE0 SWAP1 MSTORE PUSH2 0x100 DUP7 ADD PUSH2 0xD05 SWAP2 PUSH2 0x1105 JUMP JUMPDEST SWAP2 MLOAD PUSH1 0x1F NOT SWAP3 DUP4 DUP8 DUP3 SUB ADD PUSH1 0x80 DUP9 ADD MSTORE PUSH2 0xD1E SWAP2 PUSH2 0x1105 JUMP JUMPDEST SWAP1 MLOAD SWAP2 DUP6 DUP3 SUB ADD PUSH1 0xA0 DUP7 ADD MSTORE PUSH2 0xD33 SWAP2 PUSH2 0x1105 JUMP JUMPDEST SWAP2 MLOAD PUSH1 0xC0 DUP5 ADD MSTORE MLOAD ISZERO ISZERO PUSH1 0xE0 DUP4 ADD MSTORE SUB SWAP1 RETURN JUMPDEST CALLVALUE PUSH2 0x15B JUMPI PUSH1 0x20 DUP1 PUSH1 0x3 NOT CALLDATASIZE ADD SLT PUSH2 0x15B JUMPI PUSH1 0x4 CALLDATALOAD PUSH1 0x0 MSTORE PUSH1 0x6 DUP2 MSTORE PUSH1 0x40 PUSH1 0x0 KECCAK256 SWAP1 PUSH1 0x40 MLOAD SWAP1 DUP2 DUP2 DUP5 SLOAD SWAP2 DUP3 DUP2 MSTORE ADD SWAP4 PUSH1 0x0 MSTORE DUP2 PUSH1 0x0 KECCAK256 SWAP2 PUSH1 0x0 SWAP1 JUMPDEST DUP3 DUP3 LT PUSH2 0xD99 JUMPI PUSH2 0x751 DUP6 PUSH2 0x745 DUP2 DUP10 SUB DUP3 PUSH2 0x1261 JUMP JUMPDEST DUP4 SLOAD DUP7 MSTORE SWAP5 DUP6 ADD SWAP5 PUSH1 0x1 SWAP4 DUP5 ADD SWAP4 SWAP1 SWAP2 ADD SWAP1 PUSH2 0xD82 JUMP JUMPDEST CALLVALUE PUSH2 0x15B JUMPI PUSH1 0x20 DUP1 PUSH1 0x3 NOT CALLDATASIZE ADD SLT PUSH2 0x15B JUMPI PUSH1 0x4 CALLDATALOAD PUSH1 0x0 MSTORE PUSH1 0x3 DUP2 MSTORE PUSH1 0x40 PUSH1 0x0 KECCAK256 PUSH1 0x40 MLOAD SWAP1 DUP2 DUP4 DUP3 SLOAD SWAP2 DUP3 DUP2 MSTORE ADD SWAP1 DUP2 SWAP3 PUSH1 0x0 MSTORE DUP5 PUSH1 0x0 KECCAK256 SWAP1 PUSH1 0x0 JUMPDEST DUP7 DUP3 DUP3 LT PUSH2 0xE4B JUMPI DUP7 DUP7 PUSH2 0xE02 DUP3 DUP9 SUB DUP4 PUSH2 0x1261 JUMP JUMPDEST PUSH1 0x40 MLOAD SWAP3 DUP4 SWAP3 DUP2 DUP5 ADD SWAP1 DUP3 DUP6 MSTORE MLOAD DUP1 SWAP2 MSTORE PUSH1 0x40 DUP5 ADD SWAP3 SWAP2 PUSH1 0x0 JUMPDEST DUP3 DUP2 LT PUSH2 0xE2B JUMPI POP POP POP POP SUB SWAP1 RETURN JUMPDEST DUP4 MLOAD PUSH1 0x1 PUSH1 0x1 PUSH1 0xA0 SHL SUB AND DUP6 MSTORE DUP7 SWAP6 POP SWAP4 DUP2 ADD SWAP4 SWAP3 DUP2 ADD SWAP3 PUSH1 0x1 ADD PUSH2 0xE1C JUMP JUMPDEST DUP4 SLOAD PUSH1 0x1 PUSH1 0x1 PUSH1 0xA0 SHL SUB AND DUP6 MSTORE SWAP1 SWAP4 ADD SWAP3 PUSH1 0x1 SWAP3 DUP4 ADD SWAP3 ADD PUSH2 0xDEC JUMP JUMPDEST CALLVALUE PUSH2 0x15B JUMPI PUSH1 0x60 CALLDATASIZE PUSH1 0x3 NOT ADD SLT PUSH2 0x15B JUMPI PUSH1 0x1 PUSH1 0x1 PUSH1 0x40 SHL SUB PUSH1 0x24 CALLDATALOAD DUP2 DUP2 GT PUSH2 0x15B JUMPI PUSH2 0xE99 SWAP1 CALLDATASIZE SWAP1 PUSH1 0x4 ADD PUSH2 0x109D JUMP JUMPDEST PUSH1 0x44 SWAP3 SWAP2 SWAP3 CALLDATALOAD SWAP2 DUP3 GT PUSH2 0x15B JUMPI PUSH1 0x40 SWAP3 PUSH2 0xEBA PUSH2 0xEC5 SWAP4 CALLDATASIZE SWAP1 PUSH1 0x4 ADD PUSH2 0x109D JUMP JUMPDEST SWAP3 SWAP1 SWAP2 PUSH1 0x4 CALLDATALOAD PUSH2 0x13A6 JUMP JUMPDEST DUP3 MLOAD SWAP2 ISZERO ISZERO DUP3 MSTORE PUSH1 0x1 PUSH1 0x1 PUSH1 0xA0 SHL SUB AND PUSH1 0x20 DUP3 ADD MSTORE RETURN JUMPDEST CALLVALUE PUSH2 0x15B JUMPI PUSH1 0x60 CALLDATASIZE PUSH1 0x3 NOT ADD SLT PUSH2 0x15B JUMPI PUSH1 0x4 CALLDATALOAD PUSH2 0xEF8 PUSH2 0x1059 JUMP JUMPDEST SWAP1 PUSH1 0x44 CALLDATALOAD PUSH1 0x1 DUP1 PUSH1 0xA0 SHL SUB DUP1 PUSH1 0x0 SLOAD AND CALLER SUB PUSH2 0x15B JUMPI PUSH2 0xF18 DUP5 DUP5 PUSH2 0x12FF JUMP JUMPDEST PUSH2 0x15B JUMPI DUP3 PUSH1 0x0 MSTORE PUSH1 0x2 PUSH1 0x20 MSTORE DUP1 PUSH1 0x40 PUSH1 0x0 KECCAK256 SWAP5 AND SWAP4 DUP5 PUSH1 0x0 MSTORE PUSH1 0x20 MSTORE PUSH1 0x5 PUSH1 0x40 PUSH1 0x0 KECCAK256 DUP6 PUSH1 0x1 DUP1 PUSH1 0xA0 SHL SUB NOT DUP3 SLOAD AND OR DUP2 SSTORE DUP5 PUSH1 0x1 DUP3 ADD SSTORE DUP4 PUSH1 0x2 DUP3 ADD SSTORE TIMESTAMP PUSH1 0x3 DUP3 ADD SSTORE PUSH1 0x0 PUSH1 0x4 DUP3 ADD SSTORE ADD PUSH1 0x1 PUSH1 0xFF NOT DUP3 SLOAD AND OR SWAP1 SSTORE DUP3 PUSH1 0x0 MSTORE PUSH1 0x3 PUSH1 0x20 MSTORE PUSH1 0x40 PUSH1 0x0 KECCAK256 SWAP2 DUP3 SLOAD SWAP2 PUSH1 0x1 PUSH1 0x40 SHL DUP4 LT ISZERO PUSH2 0x505 JUMPI PUSH2 0xFC1 DUP4 PUSH32 0x60D371EC2B2ECD297567C3935EF1D2823E7D4B3ABB46D49650E4DC708F1B0C68 SWAP6 PUSH1 0x1 PUSH1 0x40 SWAP7 ADD DUP2 SSTORE PUSH2 0x106F JUMP JUMPDEST DUP2 SWAP3 SWAP2 SLOAD SWAP1 PUSH1 0x3 SHL SWAP2 DUP9 DUP4 SHL SWAP3 SHL NOT AND OR SWAP1 SSTORE DUP5 PUSH1 0x0 MSTORE PUSH1 0x4 PUSH1 0x20 MSTORE PUSH2 0xFEA DUP5 DUP4 PUSH1 0x0 KECCAK256 PUSH2 0x1284 JUMP JUMPDEST DUP2 MLOAD SWAP1 DUP2 MSTORE PUSH1 0x0 PUSH1 0x20 DUP3 ADD MSTORE LOG3 STOP JUMPDEST CALLVALUE PUSH2 0x15B JUMPI PUSH1 0x40 CALLDATASIZE PUSH1 0x3 NOT ADD SLT PUSH2 0x15B JUMPI PUSH2 0x1012 PUSH2 0x1043 JUMP JUMPDEST PUSH1 0x1 PUSH1 0x1 PUSH1 0xA0 SHL SUB AND PUSH1 0x0 SWAP1 DUP2 MSTORE PUSH1 0x4 PUSH1 0x20 MSTORE PUSH1 0x40 SWAP1 KECCAK256 DUP1 SLOAD PUSH1 0x24 CALLDATALOAD SWAP2 SWAP1 DUP3 LT ISZERO PUSH2 0x15B JUMPI PUSH1 0x20 SWAP2 PUSH2 0x14D SWAP2 PUSH2 0x106F JUMP JUMPDEST PUSH1 0x4 CALLDATALOAD SWAP1 PUSH1 0x1 PUSH1 0x1 PUSH1 0xA0 SHL SUB DUP3 AND DUP3 SUB PUSH2 0x15B JUMPI JUMP JUMPDEST PUSH1 0x24 CALLDATALOAD SWAP1 PUSH1 0x1 PUSH1 0x1 PUSH1 0xA0 SHL SUB DUP3 AND DUP3 SUB PUSH2 0x15B JUMPI JUMP JUMPDEST DUP1 SLOAD DUP3 LT ISZERO PUSH2 0x1087 JUMPI PUSH1 0x0 MSTORE PUSH1 0x20 PUSH1 0x0 KECCAK256 ADD SWAP1 PUSH1 0x0 SWAP1 JUMP JUMPDEST PUSH4 0x4E487B71 PUSH1 0xE0 SHL PUSH1 0x0 MSTORE PUSH1 0x32 PUSH1 0x4 MSTORE PUSH1 0x24 PUSH1 0x0 REVERT JUMPDEST SWAP2 DUP2 PUSH1 0x1F DUP5 ADD SLT ISZERO PUSH2 0x15B JUMPI DUP3 CALLDATALOAD SWAP2 PUSH1 0x1 PUSH1 0x1 PUSH1 0x40 SHL SUB DUP4 GT PUSH2 0x15B JUMPI PUSH1 0x20 DUP4 DUP2 DUP7 ADD SWAP6 ADD ADD GT PUSH2 0x15B JUMPI JUMP JUMPDEST PUSH1 0x20 SWAP1 DUP2 PUSH1 0x40 DUP2 DUP4 ADD SWAP3 DUP3 DUP2 MSTORE DUP6 MLOAD DUP1 SWAP5 MSTORE ADD SWAP4 ADD SWAP2 PUSH1 0x0 JUMPDEST DUP3 DUP2 LT PUSH2 0x10F1 JUMPI POP POP POP POP SWAP1 JUMP JUMPDEST DUP4 MLOAD DUP6 MSTORE SWAP4 DUP2 ADD SWAP4 SWAP3 DUP2 ADD SWAP3 PUSH1 0x1 ADD PUSH2 0x10E3 JUMP JUMPDEST SWAP2 SWAP1 DUP3 MLOAD SWAP3 DUP4 DUP3 MSTORE PUSH1 0x0 JUMPDEST DUP5 DUP2 LT PUSH2 0x1131 JUMPI POP POP DUP3 PUSH1 0x0 PUSH1 0x20 DUP1 SWAP5 SWAP6 DUP5 ADD ADD MSTORE PUSH1 0x1F DUP1 NOT SWAP2 ADD AND ADD ADD SWAP1 JUMP JUMPDEST PUSH1 0x20 DUP2 DUP4 ADD DUP2 ADD MLOAD DUP5 DUP4 ADD DUP3 ADD MSTORE ADD PUSH2 0x1110 JUMP JUMPDEST PUSH1 0x40 SWAP1 PUSH1 0x3 NOT ADD SLT PUSH2 0x15B JUMPI PUSH1 0x4 CALLDATALOAD SWAP1 PUSH1 0x24 CALLDATALOAD SWAP1 JUMP JUMPDEST SWAP1 PUSH1 0x1 DUP3 DUP2 SHR SWAP3 AND DUP1 ISZERO PUSH2 0x118B JUMPI JUMPDEST PUSH1 0x20 DUP4 LT EQ PUSH2 0x1175 JUMPI JUMP JUMPDEST PUSH4 0x4E487B71 PUSH1 0xE0 SHL PUSH1 0x0 MSTORE PUSH1 0x22 PUSH1 0x4 MSTORE PUSH1 0x24 PUSH1 0x0 REVERT JUMPDEST SWAP2 PUSH1 0x7F AND SWAP2 PUSH2 0x116A JUMP JUMPDEST SWAP1 PUSH1 0x0 SWAP3 SWAP2 DUP1 SLOAD SWAP2 PUSH2 0x11A6 DUP4 PUSH2 0x115B JUMP JUMPDEST SWAP2 DUP3 DUP3 MSTORE PUSH1 0x1 SWAP4 DUP5 DUP2 AND SWAP1 DUP2 PUSH1 0x0 EQ PUSH2 0x1208 JUMPI POP PUSH1 0x1 EQ PUSH2 0x11C8 JUMPI JUMPDEST POP POP POP POP JUMP JUMPDEST SWAP1 SWAP2 SWAP4 SWAP5 POP PUSH1 0x0 MSTORE PUSH1 0x20 SWAP3 DUP4 PUSH1 0x0 KECCAK256 SWAP3 DUP5 PUSH1 0x0 SWAP5 JUMPDEST DUP4 DUP7 LT PUSH2 0x11F4 JUMPI POP POP POP POP ADD ADD SWAP1 CODESIZE DUP1 DUP1 DUP1 PUSH2 0x11C2 JUMP JUMPDEST DUP1 SLOAD DUP6 DUP8 ADD DUP4 ADD MSTORE SWAP5 ADD SWAP4 DUP6 SWAP1 DUP3 ADD PUSH2 0x11DD JUMP JUMPDEST SWAP3 SWAP5 POP POP POP PUSH1 0x20 SWAP4 SWAP5 POP PUSH1 0xFF NOT AND DUP4 DUP4 ADD MSTORE ISZERO ISZERO PUSH1 0x5 SHL ADD ADD SWAP1 CODESIZE DUP1 DUP1 DUP1 PUSH2 0x11C2 JUMP JUMPDEST PUSH1 0xE0 DUP2 ADD SWAP1 DUP2 LT PUSH1 0x1 PUSH1 0x1 PUSH1 0x40 SHL SUB DUP3 GT OR PUSH2 0x505 JUMPI PUSH1 0x40 MSTORE JUMP JUMPDEST PUSH1 0xC0 DUP2 ADD SWAP1 DUP2 LT PUSH1 0x1 PUSH1 0x1 PUSH1 0x40 SHL SUB DUP3 GT OR PUSH2 0x505 JUMPI PUSH1 0x40 MSTORE JUMP JUMPDEST PUSH1 0x1F SWAP1 SWAP2 ADD PUSH1 0x1F NOT AND DUP2 ADD SWAP1 PUSH1 0x1 PUSH1 0x1 PUSH1 0x40 SHL SUB DUP3 GT SWAP1 DUP3 LT OR PUSH2 0x505 JUMPI PUSH1 0x40 MSTORE JUMP JUMPDEST DUP1 SLOAD PUSH1 0x1 PUSH1 0x40 SHL DUP2 LT ISZERO PUSH2 0x505 JUMPI PUSH2 0x12A1 SWAP2 PUSH1 0x1 DUP3 ADD DUP2 SSTORE PUSH2 0x106F JUMP JUMPDEST DUP2 SWAP3 SWAP2 SLOAD SWAP1 PUSH1 0x3 SHL SWAP2 DUP3 SHL SWAP2 PUSH1 0x0 NOT SWAP1 SHL NOT AND OR SWAP1 SSTORE JUMP JUMPDEST PUSH1 0x0 NOT DUP2 EQ PUSH2 0x12C8 JUMPI PUSH1 0x1 ADD SWAP1 JUMP JUMPDEST PUSH4 0x4E487B71 PUSH1 0xE0 SHL PUSH1 0x0 MSTORE PUSH1 0x11 PUSH1 0x4 MSTORE PUSH1 0x24 PUSH1 0x0 REVERT JUMPDEST SWAP1 DUP1 PUSH1 0x20 SWAP4 SWAP3 DUP2 DUP5 MSTORE DUP5 DUP5 ADD CALLDATACOPY PUSH1 0x0 DUP3 DUP3 ADD DUP5 ADD MSTORE PUSH1 0x1F ADD PUSH1 0x1F NOT AND ADD ADD SWAP1 JUMP JUMPDEST PUSH1 0x0 SWAP1 DUP2 MSTORE PUSH1 0x2 PUSH1 0x20 SWAP1 DUP2 MSTORE PUSH1 0x40 DUP1 DUP4 KECCAK256 PUSH1 0x1 PUSH1 0x1 PUSH1 0xA0 SHL SUB SWAP5 DUP6 AND DUP1 DUP6 MSTORE SWAP3 MSTORE DUP3 KECCAK256 PUSH1 0x5 DUP2 ADD SLOAD SWAP2 SWAP4 SWAP3 SWAP1 SWAP2 PUSH1 0xFF AND ISZERO PUSH2 0x134F JUMPI PUSH1 0x4 DUP3 ADD SLOAD DUP1 ISZERO ISZERO SWAP1 DUP2 PUSH2 0x1356 JUMPI JUMPDEST POP PUSH2 0x134F JUMPI POP SLOAD AND EQ SWAP1 JUMP JUMPDEST SWAP3 POP POP POP SWAP1 JUMP JUMPDEST SWAP1 POP TIMESTAMP GT CODESIZE PUSH2 0x1343 JUMP JUMPDEST SWAP2 SWAP3 SWAP2 PUSH1 0x1 PUSH1 0x1 PUSH1 0x40 SHL SUB DUP3 GT PUSH2 0x505 JUMPI PUSH1 0x40 MLOAD SWAP2 PUSH2 0x1389 PUSH1 0x1F DUP3 ADD PUSH1 0x1F NOT AND PUSH1 0x20 ADD DUP5 PUSH2 0x1261 JUMP JUMPDEST DUP3 SWAP5 DUP2 DUP5 MSTORE DUP2 DUP4 ADD GT PUSH2 0x15B JUMPI DUP3 DUP2 PUSH1 0x20 SWAP4 DUP5 PUSH1 0x0 SWAP7 ADD CALLDATACOPY ADD ADD MSTORE JUMP JUMPDEST SWAP1 SWAP3 SWAP4 PUSH1 0x0 SWAP5 DUP3 DUP7 MSTORE PUSH1 0x20 SWAP1 PUSH1 0x6 DUP3 MSTORE PUSH1 0x40 SWAP5 DUP6 DUP9 KECCAK256 SWAP8 DUP7 MLOAD DUP1 DUP11 DUP7 DUP3 SWAP13 SLOAD SWAP4 DUP5 DUP2 MSTORE ADD SWAP1 DUP5 MSTORE DUP7 DUP5 KECCAK256 SWAP3 DUP5 JUMPDEST DUP9 DUP3 DUP3 LT PUSH2 0x14C8 JUMPI POP POP POP PUSH2 0x13EA SWAP3 POP SUB DUP11 PUSH2 0x1261 JUMP JUMPDEST DUP1 JUMPDEST DUP10 MLOAD DUP2 LT ISZERO PUSH2 0x14B9 JUMPI PUSH1 0x5 DUP6 DUP3 DUP3 SHL DUP13 ADD ADD MLOAD DUP4 MSTORE DUP6 MSTORE DUP8 DUP3 KECCAK256 DUP9 MLOAD PUSH2 0x1419 DUP2 PUSH2 0x995 DUP2 PUSH1 0x2 DUP7 ADD PUSH2 0x1195 JUMP JUMPDEST DUP7 DUP2 MLOAD SWAP2 ADD KECCAK256 PUSH2 0x142A CALLDATASIZE DUP7 DUP14 PUSH2 0x1360 JUMP JUMPDEST DUP8 DUP2 MLOAD SWAP2 ADD KECCAK256 EQ DUP1 PUSH2 0x1488 JUMPI JUMPDEST DUP1 PUSH2 0x146D JUMPI JUMPDEST PUSH2 0x1450 JUMPI POP PUSH2 0x144B SWAP1 PUSH2 0x12B9 JUMP JUMPDEST PUSH2 0x13EC JUMP JUMPDEST SLOAD PUSH1 0x1 SWAP12 PUSH1 0x1 PUSH1 0x1 PUSH1 0xA0 SHL SUB SWAP1 SWAP2 AND SWAP11 POP SWAP9 POP POP POP POP POP POP POP POP POP JUMP JUMPDEST POP DUP1 SLOAD PUSH2 0x1483 SWAP1 PUSH1 0x1 PUSH1 0x1 PUSH1 0xA0 SHL SUB AND DUP10 PUSH2 0x12FF JUMP JUMPDEST PUSH2 0x143D JUMP JUMPDEST POP DUP9 MLOAD PUSH2 0x149C DUP2 PUSH2 0x995 DUP2 PUSH1 0x4 DUP7 ADD PUSH2 0x1195 JUMP JUMPDEST DUP7 DUP2 MLOAD SWAP2 ADD KECCAK256 PUSH2 0x14AD CALLDATASIZE DUP10 DUP9 PUSH2 0x1360 JUMP JUMPDEST DUP8 DUP2 MLOAD SWAP2 ADD KECCAK256 EQ PUSH2 0x1437 JUMP JUMPDEST POP SWAP9 SWAP8 POP POP POP POP POP POP POP POP DUP2 SWAP1 JUMP JUMPDEST DUP6 SLOAD DUP5 MSTORE PUSH1 0x1 SWAP6 DUP7 ADD SWAP6 DUP16 SWAP6 POP SWAP4 ADD SWAP3 ADD PUSH2 0x13D3 JUMP INVALID 0x29 0xEF PUSH23 0xF5F3174F4F75C9BB52556128A12DECB6CEF4C5EDD7BC90 0xDE 0x4B DUP9 PUSH15 0x97B96080346100AD57601F61116F38 DUP2 SWAP1 SUB SWAP2 DUP3 ADD PUSH1 0x1F NOT AND DUP4 ADD SWAP2 PUSH1 0x1 PUSH1 0x1 PUSH1 0x40 SHL SUB DUP4 GT DUP5 DUP5 LT OR PUSH2 0xB2 JUMPI DUP1 DUP5 SWAP3 PUSH1 0x40 SWAP5 DUP6 MSTORE DUP4 CODECOPY DUP2 ADD SUB SLT PUSH2 0xAD JUMPI PUSH2 0x52 PUSH1 0x20 PUSH2 0x4B DUP4 PUSH2 0xC8 JUMP JUMPDEST SWAP3 ADD PUSH2 0xC8 JUMP JUMPDEST PUSH2 0xE10 PUSH1 0x2 SSTORE PUSH3 0x100000 PUSH1 0x3 SSTORE PUSH1 0x1 DUP1 PUSH1 0xA0 SHL SUB SWAP1 DUP2 PUSH1 0x1 DUP1 PUSH1 0xA0 SHL SUB NOT SWAP4 AND DUP4 PUSH1 0x0 SLOAD AND OR PUSH1 0x0 SSTORE AND SWAP1 PUSH1 0x1 SLOAD AND OR PUSH1 0x1 SSTORE CALLER PUSH1 0x0 MSTORE PUSH1 0x7 PUSH1 0x20 MSTORE PUSH1 0x40 PUSH1 0x0 KECCAK256 PUSH1 0x1 PUSH1 0xFF NOT DUP3 SLOAD AND OR SWAP1 SSTORE PUSH1 0x40 MLOAD PUSH2 0x1092 SWAP1 DUP2 PUSH2 0xDD DUP3 CODECOPY RETURN JUMPDEST PUSH1 0x0 DUP1 REVERT JUMPDEST PUSH4 0x4E487B71 PUSH1 0xE0 SHL PUSH1 0x0 MSTORE PUSH1 0x41 PUSH1 0x4 MSTORE PUSH1 0x24 PUSH1 0x0 REVERT JUMPDEST MLOAD SWAP1 PUSH1 0x1 PUSH1 0x1 PUSH1 0xA0 SHL SUB DUP3 AND DUP3 SUB PUSH2 0xAD JUMPI JUMP INVALID PUSH1 0x40 PUSH1 0x80 DUP2 MSTORE PUSH1 0x4 SWAP1 DUP2 CALLDATASIZE LT ISZERO PUSH2 0x15 JUMPI PUSH1 0x0 DUP1 REVERT JUMPDEST PUSH1 0x0 SWAP2 DUP3 CALLDATALOAD PUSH1 0xE0 SHR SWAP1 DUP2 PUSH4 0x511F072 EQ PUSH2 0xD03 JUMPI DUP2 PUSH4 0x12494CAA EQ PUSH2 0xBD7 JUMPI DUP4 DUP3 PUSH4 0x1F276B6E EQ PUSH2 0xB53 JUMPI POP DUP2 PUSH4 0x238EC8B5 EQ PUSH2 0xA58 JUMPI DUP2 PUSH4 0x24B5B980 EQ PUSH2 0x9AB JUMPI DUP2 PUSH4 0x2CAE79CF EQ PUSH2 0x98C JUMPI DUP2 PUSH4 0x5C55E8DB EQ PUSH2 0x961 JUMPI DUP2 PUSH4 0x5D67DC43 EQ PUSH2 0x7E9 JUMPI DUP2 PUSH4 0x616A0630 EQ PUSH2 0x7BC JUMPI DUP2 PUSH4 0x61C992A3 EQ PUSH2 0x77E JUMPI DUP2 PUSH4 0x66B340CC EQ PUSH2 0x6AB JUMPI DUP2 PUSH4 0x6B7C424B EQ PUSH2 0x680 JUMPI DUP2 PUSH4 0x6E738E2D EQ PUSH2 0x62A JUMPI DUP2 PUSH4 0x7BADBE87 EQ PUSH2 0x2B0 JUMPI DUP2 PUSH4 0x81675B70 EQ PUSH2 0x3AB JUMPI DUP2 PUSH4 0x8D2AB78E EQ PUSH2 0x330 JUMPI DUP2 PUSH4 0xA90B538E EQ PUSH2 0x311 JUMPI DUP2 PUSH4 0xC2FDA487 EQ PUSH2 0x2E8 JUMPI DUP2 PUSH4 0xC51FD876 EQ PUSH2 0x2B0 JUMPI DUP2 PUSH4 0xC5310037 EQ PUSH2 0x263 JUMPI DUP2 PUSH4 0xDF5DD1A5 EQ PUSH2 0x1F7 JUMPI DUP2 PUSH4 0xE80DB5DB EQ PUSH2 0x1CF JUMPI DUP2 PUSH4 0xEF28A92D EQ PUSH2 0x19D JUMPI POP PUSH4 0xFDC85FC4 EQ PUSH2 0x12D JUMPI PUSH1 0x0 DUP1 REVERT JUMPDEST CALLVALUE PUSH2 0x199 JUMPI PUSH1 0x20 CALLDATASIZE PUSH1 0x3 NOT ADD SLT PUSH2 0x199 JUMPI PUSH2 0x146 PUSH2 0xD59 JUMP JUMPDEST DUP3 SLOAD PUSH1 0x1 PUSH1 0x1 PUSH1 0xA0 SHL SUB SWAP2 SWAP1 DUP3 AND CALLER SUB PUSH2 0x195 JUMPI AND DUP1 DUP4 MSTORE PUSH1 0x7 PUSH1 0x20 MSTORE SWAP1 DUP3 KECCAK256 DUP1 SLOAD PUSH1 0xFF NOT AND SWAP1 SSTORE PUSH32 0x9C8E7D83025BEF8A04C664B2F753F64B8814BDB7E27291D7E50935F18CC3C712 DUP3 DUP1 LOG2 DUP1 RETURN JUMPDEST DUP4 DUP1 REVERT JUMPDEST POP DUP1 REVERT JUMPDEST DUP3 DUP5 CALLVALUE PUSH2 0x1CC JUMPI DUP2 PUSH1 0x3 NOT CALLDATASIZE ADD SLT PUSH2 0x1CC JUMPI POP PUSH2 0x1C5 PUSH1 0x20 SWAP3 PUSH2 0x1BE PUSH2 0xD74 JUMP JUMPDEST SWAP1 CALLDATALOAD PUSH2 0xE9C JUMP JUMPDEST SWAP1 MLOAD SWAP1 DUP2 MSTORE RETURN JUMPDEST DUP1 REVERT JUMPDEST POP POP CALLVALUE PUSH2 0x199 JUMPI DUP2 PUSH1 0x3 NOT CALLDATASIZE ADD SLT PUSH2 0x199 JUMPI SWAP1 SLOAD SWAP1 MLOAD PUSH1 0x1 PUSH1 0x1 PUSH1 0xA0 SHL SUB SWAP1 SWAP2 AND DUP2 MSTORE PUSH1 0x20 SWAP1 RETURN JUMPDEST POP POP CALLVALUE PUSH2 0x199 JUMPI PUSH1 0x20 CALLDATASIZE PUSH1 0x3 NOT ADD SLT PUSH2 0x199 JUMPI PUSH2 0x212 PUSH2 0xD59 JUMP JUMPDEST DUP3 SLOAD PUSH1 0x1 PUSH1 0x1 PUSH1 0xA0 SHL SUB SWAP2 SWAP1 DUP3 AND CALLER SUB PUSH2 0x195 JUMPI AND DUP1 DUP4 MSTORE PUSH1 0x7 PUSH1 0x20 MSTORE SWAP1 DUP3 KECCAK256 DUP1 SLOAD PUSH1 0xFF NOT AND PUSH1 0x1 OR SWAP1 SSTORE PUSH31 0x47706786C922D17B39285DC59D696BAFEA72C0B003D3841AE1202076F4C2E4 DUP3 DUP1 LOG2 DUP1 RETURN JUMPDEST SWAP1 POP CALLVALUE PUSH2 0x2AC JUMPI PUSH1 0x20 CALLDATASIZE PUSH1 0x3 NOT ADD SLT PUSH2 0x2AC JUMPI PUSH1 0x80 SWAP3 DUP2 DUP4 SWAP3 CALLDATALOAD DUP3 MSTORE PUSH1 0x20 MSTORE KECCAK256 SWAP1 DUP2 SLOAD SWAP2 PUSH1 0x1 DUP2 ADD SLOAD SWAP2 PUSH1 0x3 PUSH1 0x2 DUP4 ADD SLOAD SWAP3 ADD SLOAD SWAP3 DUP2 MLOAD SWAP5 DUP6 MSTORE PUSH1 0x20 DUP6 ADD MSTORE DUP4 ADD MSTORE PUSH1 0x60 DUP3 ADD MSTORE RETURN JUMPDEST DUP3 DUP1 REVERT JUMPDEST POP POP CALLVALUE PUSH2 0x199 JUMPI PUSH1 0x20 CALLDATASIZE PUSH1 0x3 NOT ADD SLT PUSH2 0x199 JUMPI PUSH1 0x20 SWAP2 DUP2 SWAP1 PUSH1 0x1 PUSH1 0x1 PUSH1 0xA0 SHL SUB PUSH2 0x2D8 PUSH2 0xD59 JUMP JUMPDEST AND DUP2 MSTORE PUSH1 0x6 DUP5 MSTORE KECCAK256 SLOAD SWAP1 MLOAD SWAP1 DUP2 MSTORE RETURN JUMPDEST POP POP CALLVALUE PUSH2 0x199 JUMPI DUP2 PUSH1 0x3 NOT CALLDATASIZE ADD SLT PUSH2 0x199 JUMPI PUSH1 0x1 SLOAD SWAP1 MLOAD PUSH1 0x1 PUSH1 0x1 PUSH1 0xA0 SHL SUB SWAP1 SWAP2 AND DUP2 MSTORE PUSH1 0x20 SWAP1 RETURN JUMPDEST POP POP CALLVALUE PUSH2 0x199 JUMPI DUP2 PUSH1 0x3 NOT CALLDATASIZE ADD SLT PUSH2 0x199 JUMPI PUSH1 0x20 SWAP1 PUSH1 0x2 SLOAD SWAP1 MLOAD SWAP1 DUP2 MSTORE RETURN JUMPDEST SWAP1 POP PUSH1 0x20 CALLDATASIZE PUSH1 0x3 NOT ADD SLT PUSH2 0x2AC JUMPI DUP3 SLOAD DUP2 CALLDATALOAD SWAP3 SWAP1 PUSH1 0x1 PUSH1 0x1 PUSH1 0xA0 SHL SUB AND CALLER SUB PUSH2 0x195 JUMPI CALLVALUE ISZERO PUSH2 0x195 JUMPI PUSH32 0x8C52464A753085ACE2E8B69C69227990C011110DACBEE4C1AC3F4C4137EA7066 SWAP2 DUP4 DUP6 MSTORE DUP1 PUSH1 0x20 MSTORE DUP2 DUP6 KECCAK256 PUSH2 0x390 CALLVALUE DUP3 SLOAD PUSH2 0xDB8 JUMP JUMPDEST SWAP1 SSTORE DUP4 DUP6 MSTORE PUSH1 0x20 MSTORE DUP1 DUP5 KECCAK256 SLOAD DUP2 MLOAD SWAP1 CALLVALUE DUP3 MSTORE PUSH1 0x20 DUP3 ADD MSTORE LOG2 DUP1 RETURN JUMPDEST SWAP1 POP CALLVALUE PUSH2 0x2AC JUMPI PUSH1 0xA0 CALLDATASIZE PUSH1 0x3 NOT ADD SLT PUSH2 0x2AC JUMPI DUP1 CALLDATALOAD SWAP1 PUSH2 0x3C9 PUSH2 0xD74 JUMP JUMPDEST SWAP3 PUSH1 0x44 CALLDATALOAD SWAP2 PUSH1 0x64 CALLDATALOAD SWAP1 PUSH1 0x84 CALLDATALOAD SWAP6 CALLER DUP9 MSTORE PUSH1 0x20 SWAP2 PUSH1 0x7 DUP4 MSTORE PUSH1 0xFF DUP6 DUP11 KECCAK256 SLOAD AND DUP1 ISZERO PUSH2 0x618 JUMPI JUMPDEST ISZERO PUSH2 0x614 JUMPI DUP8 DUP10 MSTORE PUSH1 0x8 DUP4 MSTORE PUSH1 0xFF DUP6 DUP11 KECCAK256 SLOAD AND PUSH2 0x614 JUMPI PUSH1 0x1 DUP1 PUSH1 0xA0 SHL SUB SWAP1 PUSH1 0x1 SWAP9 PUSH2 0x434 DUP6 DUP6 DUP6 DUP14 SLOAD AND DUP13 DUP12 MLOAD DUP1 SWAP6 DUP2 SWAP5 DUP3 SWAP4 PUSH4 0x3A492675 PUSH1 0xE1 SHL DUP5 MSTORE DUP11 DUP5 ADD PUSH2 0xE47 JUMP JUMPDEST SUB SWAP2 GAS STATICCALL SWAP1 DUP2 ISZERO PUSH2 0x60A JUMPI DUP13 SWAP2 PUSH2 0x5DD JUMPI JUMPDEST POP ISZERO PUSH2 0x5D9 JUMPI PUSH1 0x3 SLOAD DUP9 LT PUSH2 0x5D9 JUMPI DUP11 MSTORE PUSH1 0x8 DUP5 MSTORE DUP6 DUP11 KECCAK256 SWAP2 PUSH1 0xFF NOT SWAP3 DUP11 DUP5 DUP3 SLOAD AND OR SWAP1 SSTORE DUP9 DUP12 MSTORE DUP2 DUP6 MSTORE DUP1 DUP8 DUP13 KECCAK256 SWAP5 AND SWAP10 DUP11 DUP13 MSTORE DUP3 DUP6 ADD DUP7 MSTORE DUP8 DUP13 KECCAK256 SWAP4 DUP12 DUP6 SLOAD DUP5 DUP2 AND ISZERO PUSH2 0x4E8 JUMPI JUMPDEST POP POP POP POP POP PUSH1 0x0 DUP1 MLOAD PUSH1 0x20 PUSH2 0x1072 DUP4 CODECOPY DUP2 MLOAD SWAP2 MSTORE SWAP7 SWAP5 SWAP3 DUP3 PUSH1 0x3 SWAP3 PUSH1 0x2 PUSH1 0x60 SWAP10 SWAP8 SWAP6 ADD PUSH2 0x4BE DUP10 DUP3 SLOAD PUSH2 0xDB8 JUMP JUMPDEST SWAP1 SSTORE DUP6 DUP5 DUP4 ADD SSTORE TIMESTAMP SWAP2 ADD SSTORE ADD PUSH2 0x4D5 DUP6 DUP3 SLOAD PUSH2 0xDB8 JUMP JUMPDEST SWAP1 SSTORE DUP3 MLOAD SWAP4 DUP5 MSTORE DUP4 ADD MSTORE TIMESTAMP SWAP1 DUP3 ADD MSTORE LOG3 DUP1 RETURN JUMPDEST PUSH1 0x1 PUSH1 0x1 PUSH1 0xA0 SHL SUB NOT AND OR DUP6 SSTORE DUP2 DUP6 ADD DUP12 SWAP1 SSTORE PUSH1 0x6 DUP6 ADD DUP1 SLOAD SWAP1 SWAP2 AND DUP3 OR SWAP1 SSTORE PUSH1 0x5 DUP6 ADD DUP1 SLOAD PUSH1 0x1 PUSH1 0x40 SHL SWAP4 SWAP2 DUP5 DUP3 LT ISZERO PUSH2 0x5C6 JUMPI DUP2 PUSH2 0x52D SWAP2 DUP16 SWAP4 DUP7 ADD DUP2 SSTORE PUSH2 0xD8A JUMP JUMPDEST SWAP1 SWAP3 DUP4 SLOAD SWAP2 PUSH1 0x3 SHL SWAP3 DUP4 SHL SWAP3 SHL NOT AND OR SWAP1 SSTORE PUSH1 0x2 DUP6 ADD PUSH2 0x54D DUP2 SLOAD PUSH2 0xE60 JUMP JUMPDEST SWAP1 SSTORE DUP11 DUP13 MSTORE PUSH1 0x5 DUP7 MSTORE DUP8 DUP13 KECCAK256 SWAP1 DUP2 SLOAD SWAP3 DUP4 LT ISZERO PUSH2 0x5B3 JUMPI SWAP3 PUSH2 0x58D DUP4 PUSH1 0x60 SWAP11 SWAP9 SWAP7 SWAP4 PUSH1 0x3 SWAP7 PUSH1 0x0 DUP1 MLOAD PUSH1 0x20 PUSH2 0x1072 DUP4 CODECOPY DUP2 MLOAD SWAP2 MSTORE SWAP14 SWAP12 SWAP10 SWAP7 ADD DUP2 SSTORE PUSH2 0xD8A JUMP JUMPDEST DUP2 SLOAD SWAP1 DUP7 SHL SWAP1 DUP14 DUP3 SHL SWAP2 PUSH1 0x0 NOT SWAP1 SHL NOT AND OR SWAP1 SSTORE SWAP3 DUP3 SWAP6 SWAP8 SWAP10 POP DUP2 SWAP5 SWAP7 SWAP9 POP DUP12 CODESIZE PUSH2 0x490 JUMP JUMPDEST PUSH4 0x4E487B71 PUSH1 0xE0 SHL DUP14 MSTORE PUSH1 0x41 DUP5 MSTORE PUSH1 0x24 DUP14 REVERT JUMPDEST PUSH4 0x4E487B71 PUSH1 0xE0 SHL DUP16 MSTORE PUSH1 0x41 DUP7 MSTORE PUSH1 0x24 DUP16 REVERT JUMPDEST DUP11 DUP1 REVERT JUMPDEST PUSH2 0x5FD SWAP2 POP DUP7 RETURNDATASIZE DUP9 GT PUSH2 0x603 JUMPI JUMPDEST PUSH2 0x5F5 DUP2 DUP4 PUSH2 0xE0C JUMP JUMPDEST DUP2 ADD SWAP1 PUSH2 0xE2F JUMP JUMPDEST CODESIZE PUSH2 0x446 JUMP JUMPDEST POP RETURNDATASIZE PUSH2 0x5EB JUMP JUMPDEST DUP9 MLOAD RETURNDATASIZE DUP15 DUP3 RETURNDATACOPY RETURNDATASIZE SWAP1 REVERT JUMPDEST DUP9 DUP1 REVERT JUMPDEST POP CALLER PUSH1 0x1 PUSH1 0x1 PUSH1 0xA0 SHL SUB DUP4 AND EQ PUSH2 0x3EE JUMP JUMPDEST SWAP2 SWAP1 POP CALLVALUE PUSH2 0x2AC JUMPI DUP1 PUSH1 0x3 NOT CALLDATASIZE ADD SLT PUSH2 0x2AC JUMPI PUSH2 0x645 PUSH2 0xD74 JUMP JUMPDEST DUP4 SLOAD PUSH1 0x1 PUSH1 0x1 PUSH1 0xA0 SHL SUB SWAP1 DUP2 AND CALLER SUB PUSH2 0x67C JUMPI DUP4 PUSH1 0x6 SWAP5 CALLDATALOAD DUP7 MSTORE DUP1 PUSH1 0x20 MSTORE DUP4 DUP7 KECCAK256 ADD SWAP2 AND DUP5 MSTORE PUSH1 0x20 MSTORE DUP3 KECCAK256 ADD PUSH1 0xFF NOT DUP2 SLOAD AND SWAP1 SSTORE DUP1 RETURN JUMPDEST DUP5 DUP1 REVERT JUMPDEST DUP4 SWAP1 CALLVALUE PUSH2 0x199 JUMPI PUSH1 0x20 CALLDATASIZE PUSH1 0x3 NOT ADD SLT PUSH2 0x199 JUMPI DUP2 SLOAD PUSH1 0x1 PUSH1 0x1 PUSH1 0xA0 SHL SUB AND CALLER SUB PUSH2 0x199 JUMPI CALLDATALOAD PUSH1 0x2 SSTORE DUP1 RETURN JUMPDEST SWAP1 POP CALLVALUE PUSH2 0x2AC JUMPI PUSH1 0x20 SWAP1 DUP2 PUSH1 0x3 NOT CALLDATASIZE ADD SLT PUSH2 0x195 JUMPI DUP1 CALLDATALOAD DUP5 MSTORE DUP2 MSTORE DUP2 DUP4 KECCAK256 SWAP3 DUP4 SLOAD PUSH1 0x1 SWAP3 DUP4 DUP7 ADD SLOAD SWAP5 PUSH1 0x2 DUP8 ADD SLOAD SWAP7 PUSH1 0x5 PUSH1 0x3 DUP3 ADD SLOAD SWAP2 ADD SWAP8 DUP3 MLOAD SWAP3 DUP4 DUP6 DUP12 SLOAD SWAP2 DUP3 DUP2 MSTORE ADD SWAP1 DUP2 SWAP12 DUP10 MSTORE DUP7 DUP10 KECCAK256 SWAP1 DUP10 JUMPDEST DUP2 DUP2 LT PUSH2 0x762 JUMPI POP POP POP DUP5 PUSH2 0x711 SWAP2 SUB DUP6 PUSH2 0xE0C JUMP JUMPDEST DUP1 MLOAD SWAP9 PUSH1 0xA0 DUP11 ADD SWAP7 DUP11 MSTORE DUP6 DUP11 ADD MSTORE DUP9 ADD MSTORE PUSH1 0x60 DUP8 ADD MSTORE PUSH1 0xA0 PUSH1 0x80 DUP8 ADD MSTORE MLOAD DUP1 SWAP3 MSTORE PUSH1 0xC0 DUP6 ADD SWAP6 SWAP3 JUMPDEST DUP3 DUP2 LT PUSH2 0x746 JUMPI DUP6 DUP8 SUB DUP7 RETURN JUMPDEST DUP4 MLOAD PUSH1 0x1 PUSH1 0x1 PUSH1 0xA0 SHL SUB AND DUP8 MSTORE SWAP6 DUP2 ADD SWAP6 SWAP3 DUP2 ADD SWAP3 DUP5 ADD PUSH2 0x739 JUMP JUMPDEST DUP3 SLOAD PUSH1 0x1 PUSH1 0x1 PUSH1 0xA0 SHL SUB AND DUP5 MSTORE SWAP3 DUP9 ADD SWAP3 SWAP2 DUP12 ADD SWAP2 DUP12 ADD PUSH2 0x6FB JUMP JUMPDEST POP POP CALLVALUE PUSH2 0x199 JUMPI PUSH1 0x20 CALLDATASIZE PUSH1 0x3 NOT ADD SLT PUSH2 0x199 JUMPI PUSH1 0x20 SWAP2 PUSH1 0xFF SWAP1 DUP3 SWAP1 PUSH1 0x1 PUSH1 0x1 PUSH1 0xA0 SHL SUB PUSH2 0x7A9 PUSH2 0xD59 JUMP JUMPDEST AND DUP2 MSTORE PUSH1 0x7 DUP6 MSTORE KECCAK256 SLOAD AND SWAP1 MLOAD SWAP1 ISZERO ISZERO DUP2 MSTORE RETURN JUMPDEST SWAP1 POP CALLVALUE PUSH2 0x2AC JUMPI PUSH1 0x20 CALLDATASIZE PUSH1 0x3 NOT ADD SLT PUSH2 0x2AC JUMPI DUP2 PUSH1 0x20 SWAP4 PUSH1 0xFF SWAP3 CALLDATALOAD DUP2 MSTORE PUSH1 0x8 DUP6 MSTORE KECCAK256 SLOAD AND SWAP1 MLOAD SWAP1 ISZERO ISZERO DUP2 MSTORE RETURN JUMPDEST SWAP2 SWAP1 POP CALLVALUE PUSH2 0x2AC JUMPI PUSH1 0x20 SWAP2 DUP3 PUSH1 0x3 NOT CALLDATASIZE ADD SLT PUSH2 0x195 JUMPI DUP1 CALLDATALOAD DUP1 DUP6 MSTORE DUP2 DUP5 MSTORE DUP3 DUP6 KECCAK256 SWAP2 DUP3 SLOAD SWAP4 PUSH1 0x1 SWAP4 DUP5 DUP2 ADD SWAP6 DUP7 SLOAD LT ISZERO PUSH2 0x95D JUMPI DUP5 SWAP6 DUP9 SWAP1 DUP10 SWAP5 PUSH1 0x5 SWAP6 DUP7 DUP6 ADD SWAP2 DUP6 ADD SWAP9 JUMPDEST PUSH2 0x836 JUMPI DUP12 DUP1 RETURN JUMPDEST DUP2 SLOAD DUP2 LT ISZERO PUSH2 0x959 JUMPI DUP12 PUSH2 0x84A DUP3 DUP5 PUSH2 0xD8A JUMP JUMPDEST PUSH1 0x1 DUP1 PUSH1 0xA0 SHL SUB SWAP2 SLOAD SWAP1 PUSH1 0x3 SHL SHR AND DUP1 DUP3 MSTORE DUP11 DUP14 MSTORE DUP13 DUP9 DUP4 KECCAK256 SWAP3 PUSH1 0x6 DUP13 PUSH1 0xFF DUP3 DUP8 ADD SLOAD AND PUSH2 0x888 JUMPI JUMPDEST POP POP POP POP POP POP PUSH2 0x882 SWAP1 PUSH2 0xE60 JUMP JUMPDEST DUP10 PUSH2 0x82E JUMP JUMPDEST DUP5 PUSH2 0x892 SWAP2 PUSH2 0xE9C JUMP JUMPDEST SWAP3 DUP13 DUP5 ISZERO SWAP7 DUP8 ISZERO DUP1 PUSH2 0x944 JUMPI JUMPDEST PUSH2 0x8AE JUMPI JUMPDEST POP POP SWAP3 POP DUP13 PUSH2 0x873 JUMP JUMPDEST SWAP11 DUP7 SWAP8 SWAP12 SWAP4 PUSH2 0x8F3 SWAP4 DUP8 SWAP9 SWAP6 SWAP4 DUP9 SWAP8 SWAP9 SWAP5 ADD PUSH2 0x8CB DUP6 DUP3 SLOAD PUSH2 0xDB8 JUMP JUMPDEST SWAP1 SSTORE DUP6 DUP9 MSTORE MSTORE DUP14 DUP7 KECCAK256 PUSH2 0x8DF DUP4 DUP3 SLOAD PUSH2 0xDB8 JUMP JUMPDEST SWAP1 SSTORE PUSH2 0x8EC DUP3 DUP13 SLOAD PUSH2 0xDB8 JUMP JUMPDEST DUP12 SSTORE PUSH2 0xDB8 JUMP JUMPDEST SWAP9 DUP4 SWAP1 PUSH2 0x93B JUMPI JUMPDEST DUP4 SWAP3 DUP4 SWAP3 DUP4 SWAP3 CALL ISZERO PUSH2 0x931 JUMPI SWAP1 DUP10 PUSH1 0x0 DUP1 MLOAD PUSH1 0x20 PUSH2 0x1052 DUP4 CODECOPY DUP2 MLOAD SWAP2 MSTORE DUP15 PUSH2 0x882 SWAP6 SWAP5 DUP12 MLOAD SWAP1 DUP2 MSTORE LOG3 SWAP1 CODESIZE DUP1 DUP15 DUP2 DUP16 DUP13 DUP3 PUSH2 0x8A4 JUMP JUMPDEST DUP8 MLOAD RETURNDATASIZE DUP16 DUP3 RETURNDATACOPY RETURNDATASIZE SWAP1 REVERT JUMPDEST POP PUSH2 0x8FC PUSH2 0x8FB JUMP JUMPDEST POP DUP13 SLOAD PUSH2 0x952 DUP8 DUP14 SLOAD PUSH2 0xDB8 JUMP JUMPDEST GT ISZERO PUSH2 0x89F JUMP JUMPDEST DUP12 DUP1 RETURN JUMPDEST DUP8 DUP1 REVERT JUMPDEST DUP4 SWAP1 CALLVALUE PUSH2 0x199 JUMPI PUSH1 0x20 CALLDATASIZE PUSH1 0x3 NOT ADD SLT PUSH2 0x199 JUMPI DUP2 SLOAD PUSH1 0x1 PUSH1 0x1 PUSH1 0xA0 SHL SUB AND CALLER SUB PUSH2 0x199 JUMPI CALLDATALOAD PUSH1 0x3 SSTORE DUP1 RETURN JUMPDEST POP POP CALLVALUE PUSH2 0x199 JUMPI DUP2 PUSH1 0x3 NOT CALLDATASIZE ADD SLT PUSH2 0x199 JUMPI PUSH1 0x20 SWAP1 PUSH1 0x3 SLOAD SWAP1 MLOAD SWAP1 DUP2 MSTORE RETURN JUMPDEST DUP3 DUP5 CALLVALUE PUSH2 0x1CC JUMPI PUSH1 0x20 SWAP1 DUP2 PUSH1 0x3 NOT CALLDATASIZE ADD SLT PUSH2 0x1CC JUMPI DUP3 SWAP1 PUSH1 0x1 PUSH1 0x1 PUSH1 0xA0 SHL SUB PUSH2 0x9D2 PUSH2 0xD59 JUMP JUMPDEST AND DUP2 MSTORE PUSH1 0x5 DUP4 MSTORE DUP2 DUP2 KECCAK256 SWAP1 DUP3 MLOAD DUP1 DUP6 DUP5 SLOAD SWAP2 DUP3 DUP2 MSTORE ADD SWAP1 DUP2 SWAP5 DUP5 MSTORE DUP7 DUP5 KECCAK256 SWAP1 DUP5 JUMPDEST DUP2 DUP2 LT PUSH2 0xA44 JUMPI POP POP POP DUP2 PUSH2 0xA09 SWAP2 SUB DUP3 PUSH2 0xE0C JUMP JUMPDEST DUP4 MLOAD SWAP5 DUP6 SWAP5 DUP2 DUP7 ADD SWAP3 DUP3 DUP8 MSTORE MLOAD DUP1 SWAP4 MSTORE DUP6 ADD SWAP4 SWAP3 JUMPDEST DUP3 DUP2 LT PUSH2 0xA2D JUMPI POP POP POP POP SUB SWAP1 RETURN JUMPDEST DUP4 MLOAD DUP6 MSTORE DUP7 SWAP6 POP SWAP4 DUP2 ADD SWAP4 SWAP3 DUP2 ADD SWAP3 PUSH1 0x1 ADD PUSH2 0xA1E JUMP JUMPDEST DUP3 SLOAD DUP5 MSTORE SWAP3 DUP9 ADD SWAP3 PUSH1 0x1 SWAP3 DUP4 ADD SWAP3 ADD PUSH2 0x9F3 JUMP JUMPDEST SWAP2 SWAP1 POP CALLVALUE PUSH2 0x2AC JUMPI DUP1 PUSH1 0x3 NOT CALLDATASIZE ADD SLT PUSH2 0x2AC JUMPI SWAP2 DUP3 PUSH1 0xE0 SWAP4 PUSH2 0xA78 PUSH2 0xD74 JUMP JUMPDEST SWAP3 DUP1 PUSH1 0xC0 DUP4 MLOAD PUSH2 0xA87 DUP2 PUSH2 0xDDB JUMP JUMPDEST DUP3 DUP2 MSTORE DUP3 PUSH1 0x20 DUP3 ADD MSTORE DUP3 DUP6 DUP3 ADD MSTORE DUP3 PUSH1 0x60 DUP3 ADD MSTORE DUP3 PUSH1 0x80 DUP3 ADD MSTORE DUP3 PUSH1 0xA0 DUP3 ADD MSTORE ADD MSTORE DUP5 CALLDATALOAD DUP2 MSTORE DUP5 PUSH1 0x20 MSTORE DUP5 DUP3 DUP3 KECCAK256 ADD PUSH1 0x1 DUP1 PUSH1 0xA0 SHL SUB DUP1 SWAP6 AND DUP3 MSTORE PUSH1 0x20 MSTORE KECCAK256 SWAP1 DUP1 MLOAD SWAP3 PUSH2 0xAD3 DUP5 PUSH2 0xDDB JUMP JUMPDEST DUP3 SLOAD AND SWAP4 DUP5 DUP5 MSTORE PUSH1 0x1 DUP4 ADD SLOAD SWAP2 PUSH1 0x20 DUP6 ADD SWAP3 DUP4 MSTORE PUSH1 0x2 DUP5 ADD SLOAD DUP2 DUP7 ADD SWAP1 DUP2 MSTORE PUSH1 0x3 DUP6 ADD SLOAD SWAP3 PUSH1 0x60 DUP8 ADD SWAP4 DUP5 MSTORE DUP6 ADD SLOAD SWAP4 PUSH1 0x80 DUP8 ADD SWAP5 DUP6 MSTORE PUSH1 0xC0 PUSH1 0xFF PUSH1 0x6 PUSH1 0x5 DUP10 ADD SLOAD SWAP9 PUSH1 0xA0 DUP12 ADD SWAP10 DUP11 MSTORE ADD SLOAD AND SWAP8 ADD SWAP7 ISZERO ISZERO DUP8 MSTORE DUP3 MLOAD SWAP8 DUP9 MSTORE MLOAD PUSH1 0x20 DUP9 ADD MSTORE MLOAD SWAP1 DUP7 ADD MSTORE MLOAD PUSH1 0x60 DUP6 ADD MSTORE MLOAD PUSH1 0x80 DUP5 ADD MSTORE MLOAD PUSH1 0xA0 DUP4 ADD MSTORE MLOAD ISZERO ISZERO PUSH1 0xC0 DUP3 ADD MSTORE RETURN JUMPDEST SWAP2 POP CALLVALUE PUSH2 0x199 JUMPI DUP3 PUSH1 0x3 NOT CALLDATASIZE ADD SLT PUSH2 0x199 JUMPI DUP2 SLOAD PUSH1 0x24 CALLDATALOAD SWAP2 SWAP1 PUSH1 0x1 PUSH1 0x1 PUSH1 0xA0 SHL SUB AND CALLER SUB PUSH2 0x2AC JUMPI DUP1 CALLDATALOAD DUP4 MSTORE PUSH1 0x20 MSTORE DUP3 DUP3 KECCAK256 PUSH1 0x1 DUP2 SLOAD SWAP2 ADD SWAP1 DUP3 PUSH2 0xB99 DUP4 SLOAD DUP1 SWAP4 PUSH2 0xE8F JUMP JUMPDEST LT PUSH2 0x195 JUMPI DUP3 DUP5 SWAP4 SWAP3 PUSH2 0xBAE DUP6 SWAP5 DUP6 SWAP5 PUSH2 0xDB8 JUMP JUMPDEST SWAP1 SSTORE DUP2 DUP2 ISZERO PUSH2 0xBCE JUMPI JUMPDEST CALLER SWAP1 CALL ISZERO PUSH2 0xBC4 JUMPI POP DUP1 RETURN JUMPDEST MLOAD SWAP1 RETURNDATASIZE SWAP1 DUP3 RETURNDATACOPY RETURNDATASIZE SWAP1 REVERT JUMPDEST POP PUSH2 0x8FC PUSH2 0xBB8 JUMP JUMPDEST SWAP2 SWAP1 POP CALLVALUE PUSH2 0x2AC JUMPI PUSH1 0x20 DUP1 PUSH1 0x3 NOT CALLDATASIZE ADD SLT PUSH2 0x195 JUMPI PUSH1 0x1 SLOAD DUP3 MLOAD PUSH4 0x3A492675 PUSH1 0xE1 SHL DUP2 MSTORE DUP5 CALLDATALOAD SWAP4 SWAP2 DUP4 SWAP1 DUP3 SWAP1 PUSH1 0x1 PUSH1 0x1 PUSH1 0xA0 SHL SUB AND DUP2 DUP1 PUSH2 0xC1B CALLER DUP11 DUP4 DUP14 ADD PUSH2 0xE47 JUMP JUMPDEST SUB SWAP2 GAS STATICCALL SWAP1 DUP2 ISZERO PUSH2 0xCF9 JUMPI DUP7 SWAP2 PUSH2 0xCDC JUMPI JUMPDEST POP ISZERO PUSH2 0x67C JUMPI PUSH2 0xC3D CALLER DUP5 PUSH2 0xE9C JUMP JUMPDEST SWAP4 DUP5 ISZERO PUSH2 0xCD8 JUMPI DUP4 DUP7 MSTORE DUP1 DUP4 MSTORE DUP2 DUP7 KECCAK256 SWAP1 CALLER DUP8 MSTORE DUP2 ADD DUP4 MSTORE DUP2 DUP7 KECCAK256 PUSH1 0x1 DUP3 SLOAD SWAP3 ADD SWAP2 PUSH2 0xC6A DUP8 DUP5 SLOAD PUSH2 0xDB8 JUMP JUMPDEST GT PUSH2 0xCD4 JUMPI PUSH1 0x5 ADD PUSH2 0xC7D DUP7 DUP3 SLOAD PUSH2 0xDB8 JUMP JUMPDEST SWAP1 SSTORE CALLER DUP7 MSTORE PUSH1 0x6 DUP4 MSTORE DUP2 DUP7 KECCAK256 PUSH2 0xC94 DUP7 DUP3 SLOAD PUSH2 0xDB8 JUMP JUMPDEST SWAP1 SSTORE PUSH2 0xCA1 DUP6 DUP3 SLOAD PUSH2 0xDB8 JUMP JUMPDEST SWAP1 SSTORE DUP5 DUP1 DUP1 DUP1 DUP8 CALLER DUP3 CALL ISZERO PUSH2 0xCCB JUMPI SWAP1 PUSH1 0x0 DUP1 MLOAD PUSH1 0x20 PUSH2 0x1052 DUP4 CODECOPY DUP2 MLOAD SWAP2 MSTORE SWAP2 MLOAD SWAP4 DUP5 MSTORE CALLER SWAP4 LOG3 DUP1 RETURN JUMPDEST MLOAD RETURNDATASIZE DUP6 DUP3 RETURNDATACOPY RETURNDATASIZE SWAP1 REVERT JUMPDEST DUP7 DUP1 REVERT JUMPDEST DUP6 DUP1 REVERT JUMPDEST PUSH2 0xCF3 SWAP2 POP DUP4 RETURNDATASIZE DUP6 GT PUSH2 0x603 JUMPI PUSH2 0x5F5 DUP2 DUP4 PUSH2 0xE0C JUMP JUMPDEST CODESIZE PUSH2 0xC2D JUMP JUMPDEST DUP3 MLOAD RETURNDATASIZE DUP9 DUP3 RETURNDATACOPY RETURNDATASIZE SWAP1 REVERT JUMPDEST POP POP CALLVALUE PUSH2 0x199 JUMPI DUP1 PUSH1 0x3 NOT CALLDATASIZE ADD SLT PUSH2 0x199 JUMPI PUSH2 0xD1D PUSH2 0xD59 JUMP JUMPDEST PUSH1 0x1 PUSH1 0x1 PUSH1 0xA0 SHL SUB AND DUP3 MSTORE PUSH1 0x5 PUSH1 0x20 MSTORE DUP1 DUP3 KECCAK256 DUP1 SLOAD PUSH1 0x24 CALLDATALOAD SWAP4 SWAP1 DUP5 LT ISZERO PUSH2 0x1CC JUMPI POP PUSH1 0x20 SWAP3 PUSH2 0xD4B SWAP2 PUSH2 0xD8A JUMP JUMPDEST SWAP2 SWAP1 SLOAD SWAP1 MLOAD SWAP2 PUSH1 0x3 SHL SHR DUP2 MSTORE RETURN JUMPDEST PUSH1 0x4 CALLDATALOAD SWAP1 PUSH1 0x1 PUSH1 0x1 PUSH1 0xA0 SHL SUB DUP3 AND DUP3 SUB PUSH2 0xD6F JUMPI JUMP JUMPDEST PUSH1 0x0 DUP1 REVERT JUMPDEST PUSH1 0x24 CALLDATALOAD SWAP1 PUSH1 0x1 PUSH1 0x1 PUSH1 0xA0 SHL SUB DUP3 AND DUP3 SUB PUSH2 0xD6F JUMPI JUMP JUMPDEST DUP1 SLOAD DUP3 LT ISZERO PUSH2 0xDA2 JUMPI PUSH1 0x0 MSTORE PUSH1 0x20 PUSH1 0x0 KECCAK256 ADD SWAP1 PUSH1 0x0 SWAP1 JUMP JUMPDEST PUSH4 0x4E487B71 PUSH1 0xE0 SHL PUSH1 0x0 MSTORE PUSH1 0x32 PUSH1 0x4 MSTORE PUSH1 0x24 PUSH1 0x0 REVERT JUMPDEST SWAP2 SWAP1 DUP3 ADD DUP1 SWAP3 GT PUSH2 0xDC5 JUMPI JUMP JUMPDEST PUSH4 0x4E487B71 PUSH1 0xE0 SHL PUSH1 0x0 MSTORE PUSH1 0x11 PUSH1 0x4 MSTORE PUSH1 0x24 PUSH1 0x0 REVERT JUMPDEST PUSH1 0xE0 DUP2 ADD SWAP1 DUP2 LT PUSH1 0x1 PUSH1 0x1 PUSH1 0x40 SHL SUB DUP3 GT OR PUSH2 0xDF6 JUMPI PUSH1 0x40 MSTORE JUMP JUMPDEST PUSH4 0x4E487B71 PUSH1 0xE0 SHL PUSH1 0x0 MSTORE PUSH1 0x41 PUSH1 0x4 MSTORE PUSH1 0x24 PUSH1 0x0 REVERT JUMPDEST PUSH1 0x1F SWAP1 SWAP2 ADD PUSH1 0x1F NOT AND DUP2 ADD SWAP1 PUSH1 0x1 PUSH1 0x1 PUSH1 0x40 SHL SUB DUP3 GT SWAP1 DUP3 LT OR PUSH2 0xDF6 JUMPI PUSH1 0x40 MSTORE JUMP JUMPDEST SWAP1 DUP2 PUSH1 0x20 SWAP2 SUB SLT PUSH2 0xD6F JUMPI MLOAD DUP1 ISZERO ISZERO DUP2 SUB PUSH2 0xD6F JUMPI SWAP1 JUMP JUMPDEST SWAP1 DUP2 MSTORE PUSH1 0x1 PUSH1 0x1 PUSH1 0xA0 SHL SUB SWAP1 SWAP2 AND PUSH1 0x20 DUP3 ADD MSTORE PUSH1 0x40 ADD SWAP1 JUMP JUMPDEST PUSH1 0x0 NOT DUP2 EQ PUSH2 0xDC5 JUMPI PUSH1 0x1 ADD SWAP1 JUMP JUMPDEST DUP2 ISZERO PUSH2 0xE79 JUMPI DIV SWAP1 JUMP JUMPDEST PUSH4 0x4E487B71 PUSH1 0xE0 SHL PUSH1 0x0 MSTORE PUSH1 0x12 PUSH1 0x4 MSTORE PUSH1 0x24 PUSH1 0x0 REVERT JUMPDEST SWAP2 SWAP1 DUP3 SUB SWAP2 DUP3 GT PUSH2 0xDC5 JUMPI JUMP JUMPDEST PUSH1 0x0 DUP2 DUP2 MSTORE PUSH1 0x4 SWAP2 PUSH1 0x20 SWAP1 DUP4 DUP3 MSTORE PUSH1 0x40 SWAP2 DUP3 DUP5 KECCAK256 SWAP6 PUSH1 0x1 DUP1 PUSH1 0xA0 SHL SUB DUP1 SWAP2 AND DUP6 MSTORE DUP6 DUP8 ADD DUP3 MSTORE DUP4 DUP6 KECCAK256 SWAP4 PUSH1 0xFF SWAP1 PUSH1 0x6 SWAP2 DUP1 DUP4 DUP9 ADD SLOAD AND ISZERO DUP1 ISZERO PUSH2 0x1045 JUMPI JUMPDEST PUSH2 0x1038 JUMPI PUSH1 0x2 DUP8 ADD SLOAD SWAP2 PUSH2 0x1B58 SWAP3 DUP4 DUP2 MUL SWAP4 DUP2 DUP6 DIV EQ SWAP1 ISZERO OR ISZERO PUSH2 0x1025 JUMPI DUP11 PUSH2 0xF0A PUSH1 0x3 SWAP5 DUP6 DUP1 SWAP4 ADD SLOAD SWAP1 PUSH2 0xE6F JUMP JUMPDEST SWAP9 ADD SLOAD SWAP7 PUSH2 0xBB8 SWAP8 DUP9 DUP2 MUL SWAP9 DUP2 DUP11 DIV EQ SWAP1 ISZERO OR ISZERO PUSH2 0x1012 JUMPI DUP10 MSTORE DUP10 DUP7 MSTORE DUP1 DUP10 KECCAK256 SWAP5 DUP10 SWAP7 DUP11 SWAP2 PUSH1 0x5 DUP9 ADD DUP14 DUP2 SLOAD SWAP10 ADD SWAP4 JUMPDEST DUP14 DUP11 DUP3 LT PUSH2 0xFC5 JUMPI POP PUSH2 0xF6D SWAP13 SWAP12 PUSH2 0xF67 SWAP12 SWAP1 SWAP11 POP SWAP9 POP POP DUP8 ISZERO SWAP7 POP PUSH2 0xFBC SWAP6 POP POP POP POP POP POP JUMPI SWAP1 PUSH2 0xE6F JUMP JUMPDEST SWAP1 PUSH2 0xDB8 JUMP JUMPDEST SWAP2 PUSH2 0x2710 SWAP4 DUP5 DUP5 GT PUSH2 0xFB4 JUMPI JUMPDEST DUP1 PUSH1 0x1 PUSH2 0xF8B SWAP3 SLOAD SWAP2 ADD SLOAD SWAP1 PUSH2 0xE8F JUMP JUMPDEST DUP4 DUP2 MUL SWAP4 DUP2 DUP6 DIV EQ SWAP1 ISZERO OR ISZERO PUSH2 0xFA1 JUMPI POP POP DIV SWAP1 JUMP JUMPDEST PUSH4 0x4E487B71 PUSH1 0xE0 SHL DUP3 MSTORE PUSH1 0x11 SWAP1 MSTORE PUSH1 0x24 SWAP1 REVERT JUMPDEST DUP5 SWAP4 POP PUSH2 0xF7A JUMP JUMPDEST POP PUSH1 0x1 SWAP1 PUSH2 0xE6F JUMP JUMPDEST DUP7 SWAP1 DUP5 PUSH2 0xFD2 DUP5 DUP7 PUSH2 0xD8A JUMP JUMPDEST SWAP1 SLOAD SWAP1 DUP13 SHL SHR AND DUP2 MSTORE DUP7 DUP7 MSTORE KECCAK256 DUP8 DUP11 DUP3 ADD SLOAD AND PUSH2 0xFF9 JUMPI JUMPDEST POP PUSH2 0xFF4 SWAP1 PUSH2 0xE60 JUMP JUMPDEST PUSH2 0xF3A JUMP JUMPDEST PUSH2 0xFF4 SWAP2 SWAP12 DUP10 PUSH2 0x100B SWAP3 ADD SLOAD SWAP1 PUSH2 0xDB8 JUMP JUMPDEST SWAP11 SWAP1 PUSH2 0xFEA JUMP JUMPDEST PUSH4 0x4E487B71 PUSH1 0xE0 SHL DUP11 MSTORE PUSH1 0x11 DUP12 MSTORE PUSH1 0x24 DUP11 REVERT JUMPDEST PUSH4 0x4E487B71 PUSH1 0xE0 SHL DUP10 MSTORE PUSH1 0x11 DUP11 MSTORE PUSH1 0x24 DUP10 REVERT JUMPDEST POP POP POP POP POP POP POP SWAP2 POP POP SWAP1 JUMP JUMPDEST POP PUSH1 0x3 DUP11 ADD SLOAD ISZERO PUSH2 0xEDA JUMP INVALID EXTCODESIZE SLT PUSH28 0x3427F8C24B1EA11EF9F5052899E072DB64611F99AC51847608C5BC8 EXTCODEHASH ADDRESS 0x1E 0x5C SHR 0xD6 GASPRICE PUSH4 0xF5DE9784 PUSH12 0xA38770FCE5404B529A0C56A4 SMOD 0xD1 0x4F SWAP13 ISZERO 0x5D DIV PUSH7 0x60808060405234 PUSH2 0x84 JUMPI PUSH1 0x1 PUSH1 0x0 SSTORE CALLER ISZERO PUSH2 0x6E JUMPI PUSH1 0x1 DUP1 SLOAD CALLER PUSH1 0x1 PUSH1 0x1 PUSH1 0xA0 SHL SUB NOT DUP3 AND DUP2 OR SWAP1 SWAP3 SSTORE PUSH1 0x40 MLOAD SWAP2 SWAP1 PUSH1 0x1 PUSH1 0x1 PUSH1 0xA0 SHL SUB AND PUSH32 0x8BE0079C531659141344CD1FD0A4F28419497F9722A3DAAFE3B4186F6B6457E0 PUSH1 0x0 DUP1 LOG3 PUSH1 0x0 PUSH1 0x2 SSTORE PUSH2 0x2013 SWAP1 DUP2 PUSH2 0x8A DUP3 CODECOPY RETURN JUMPDEST PUSH4 0x1E4FBDF7 PUSH1 0xE0 SHL DUP2 MSTORE PUSH1 0x0 PUSH1 0x4 DUP3 ADD MSTORE PUSH1 0x24 SWAP1 REVERT JUMPDEST PUSH1 0x0 DUP1 REVERT INVALID PUSH1 0x80 PUSH1 0x40 MSTORE PUSH1 0x4 CALLDATASIZE LT ISZERO PUSH2 0x12 JUMPI PUSH1 0x0 DUP1 REVERT JUMPDEST PUSH1 0x0 CALLDATALOAD PUSH1 0xE0 SHR DUP1 PUSH4 0x26BFDE75 EQ PUSH2 0x1347 JUMPI DUP1 PUSH4 0x482F20A6 EQ PUSH2 0x1316 JUMPI DUP1 PUSH4 0x4C24C2C8 EQ PUSH2 0x12F0 JUMPI DUP1 PUSH4 0x4FF14874 EQ PUSH2 0x12CE JUMPI DUP1 PUSH4 0x539F51DB EQ PUSH2 0x12D3 JUMPI DUP1 PUSH4 0x558E44D3 EQ PUSH2 0x12CE JUMPI DUP1 PUSH4 0x715018A6 EQ PUSH2 0x1283 JUMPI DUP1 PUSH4 0x7509C330 EQ PUSH2 0x1166 JUMPI DUP1 PUSH4 0x8DA5CB5B EQ PUSH2 0x113D JUMPI DUP1 PUSH4 0xA7A512F8 EQ PUSH2 0x1114 JUMPI DUP1 PUSH4 0xA9F5C953 EQ PUSH2 0xEBD JUMPI DUP1 PUSH4 0xAE813729 EQ PUSH2 0xE82 JUMPI DUP1 PUSH4 0xB36B9FFD EQ PUSH2 0xE59 JUMPI DUP1 PUSH4 0xB5ECF912 EQ PUSH2 0xD5F JUMPI DUP1 PUSH4 0xC0C53B8B EQ PUSH2 0xCDE JUMPI DUP1 PUSH4 0xC2FDA487 EQ PUSH2 0xCB5 JUMPI DUP1 PUSH4 0xC55D0F56 EQ PUSH2 0xC8F JUMPI DUP1 PUSH4 0xC8A028A8 EQ PUSH2 0xB2B JUMPI DUP1 PUSH4 0xD0272F9B EQ PUSH2 0xB0D JUMPI DUP1 PUSH4 0xD0FEFFB0 EQ PUSH2 0xACE JUMPI DUP1 PUSH4 0xD62182F7 EQ PUSH2 0xA4B JUMPI DUP1 PUSH4 0xDB2E21BC EQ PUSH2 0x9F7 JUMPI DUP1 PUSH4 0xDC19EA0E EQ PUSH2 0x5AE JUMPI DUP1 PUSH4 0xDFE6B5D6 EQ PUSH2 0x51E JUMPI DUP1 PUSH4 0xE6A9ABA3 EQ PUSH2 0x500 JUMPI DUP1 PUSH4 0xF00084FB EQ PUSH2 0x2FD JUMPI DUP1 PUSH4 0xF2FDE38B EQ PUSH2 0x287 JUMPI DUP1 PUSH4 0xF8B688F5 EQ PUSH2 0x1E3 JUMPI PUSH4 0xFD1A98A5 EQ PUSH2 0x15B JUMPI PUSH1 0x0 DUP1 REVERT JUMPDEST CALLVALUE PUSH2 0x1D2 JUMPI PUSH1 0x20 CALLDATASIZE PUSH1 0x3 NOT ADD SLT PUSH2 0x1D2 JUMPI PUSH1 0x4 CALLDATALOAD DUP1 ISZERO ISZERO DUP1 PUSH2 0x1D7 JUMPI JUMPDEST ISZERO PUSH2 0x1D2 JUMPI PUSH1 0x0 MSTORE PUSH1 0x7 PUSH1 0x20 MSTORE PUSH2 0x1C0 PUSH1 0x40 PUSH1 0x0 KECCAK256 PUSH1 0x8 PUSH1 0x20 MSTORE PUSH2 0x1CE PUSH2 0x1AC PUSH2 0x1A6 PUSH1 0x40 PUSH1 0x0 KECCAK256 SWAP4 PUSH2 0x1D69 JUMP JUMPDEST SWAP3 PUSH2 0x1D69 JUMP JUMPDEST PUSH1 0x40 MLOAD SWAP4 DUP5 SWAP4 PUSH1 0x40 DUP6 MSTORE PUSH1 0x40 DUP6 ADD SWAP1 PUSH2 0x16CF JUMP JUMPDEST SWAP1 DUP4 DUP3 SUB PUSH1 0x20 DUP6 ADD MSTORE PUSH2 0x16CF JUMP JUMPDEST SUB SWAP1 RETURN JUMPDEST PUSH1 0x0 DUP1 REVERT JUMPDEST POP PUSH1 0x2 SLOAD DUP2 GT ISZERO PUSH2 0x178 JUMP JUMPDEST CALLVALUE PUSH2 0x1D2 JUMPI PUSH2 0x1F1 CALLDATASIZE PUSH2 0x1524 JUMP JUMPDEST SWAP1 DUP2 ISZERO PUSH2 0x1D2 JUMPI PUSH1 0x64 DUP3 GT PUSH2 0x1D2 JUMPI PUSH2 0x209 DUP3 PUSH2 0x1AA2 JUMP JUMPDEST SWAP1 PUSH1 0x0 JUMPDEST DUP4 DUP2 LT PUSH2 0x22A JUMPI PUSH1 0x40 MLOAD PUSH1 0x20 DUP1 DUP3 MSTORE DUP2 SWAP1 PUSH2 0x1CE SWAP1 DUP3 ADD DUP7 PUSH2 0x16CF JUMP JUMPDEST PUSH2 0x235 DUP2 DUP6 DUP5 PUSH2 0x1AD4 JUMP JUMPDEST CALLDATALOAD ISZERO ISZERO DUP1 PUSH2 0x270 JUMPI JUMPDEST ISZERO PUSH2 0x1D2 JUMPI DUP1 PUSH2 0x25B PUSH2 0x255 PUSH2 0x26B SWAP4 DUP8 DUP7 PUSH2 0x1AD4 JUMP JUMPDEST CALLDATALOAD PUSH2 0x1AF8 JUMP JUMPDEST PUSH2 0x265 DUP3 DUP7 PUSH2 0x1AE4 JUMP JUMPDEST MSTORE PUSH2 0x1752 JUMP JUMPDEST PUSH2 0x20D JUMP JUMPDEST POP PUSH2 0x27C DUP2 DUP6 DUP5 PUSH2 0x1AD4 JUMP JUMPDEST CALLDATALOAD PUSH1 0x2 SLOAD LT ISZERO PUSH2 0x23E JUMP JUMPDEST CALLVALUE PUSH2 0x1D2 JUMPI PUSH1 0x20 CALLDATASIZE PUSH1 0x3 NOT ADD SLT PUSH2 0x1D2 JUMPI PUSH2 0x2A0 PUSH2 0x16A3 JUMP JUMPDEST PUSH2 0x2A8 PUSH2 0x1703 JUMP JUMPDEST PUSH1 0x1 PUSH1 0x1 PUSH1 0xA0 SHL SUB SWAP1 DUP2 AND SWAP1 DUP2 ISZERO PUSH2 0x2E4 JUMPI PUSH1 0x1 DUP1 SLOAD PUSH1 0x1 PUSH1 0x1 PUSH1 0xA0 SHL SUB NOT DUP2 AND DUP5 OR SWAP1 SWAP2 SSTORE AND PUSH1 0x0 DUP1 MLOAD PUSH1 0x20 PUSH2 0x1FD3 DUP4 CODECOPY DUP2 MLOAD SWAP2 MSTORE PUSH1 0x0 DUP1 LOG3 STOP JUMPDEST PUSH1 0x40 MLOAD PUSH4 0x1E4FBDF7 PUSH1 0xE0 SHL DUP2 MSTORE PUSH1 0x0 PUSH1 0x4 DUP3 ADD MSTORE PUSH1 0x24 SWAP1 REVERT JUMPDEST CALLVALUE PUSH2 0x1D2 JUMPI PUSH2 0x30B CALLDATASIZE PUSH2 0x1524 JUMP JUMPDEST SWAP1 DUP2 ISZERO PUSH2 0x1D2 JUMPI PUSH1 0x64 DUP3 GT PUSH2 0x1D2 JUMPI PUSH2 0x323 DUP3 PUSH2 0x1A8B JUMP JUMPDEST SWAP2 PUSH2 0x331 PUSH1 0x40 MLOAD SWAP4 DUP5 PUSH2 0x15DA JUMP JUMPDEST DUP1 DUP4 MSTORE PUSH1 0x1F NOT PUSH2 0x340 DUP3 PUSH2 0x1A8B JUMP JUMPDEST ADD PUSH1 0x0 JUMPDEST DUP2 DUP2 LT PUSH2 0x4E9 JUMPI POP POP PUSH1 0x0 JUMPDEST DUP2 DUP2 LT PUSH2 0x3B6 JUMPI PUSH1 0x40 DUP1 MLOAD PUSH1 0x20 DUP1 DUP3 MSTORE DUP7 MLOAD DUP2 DUP4 ADD DUP2 SWAP1 MSTORE PUSH1 0x0 SWAP4 PUSH1 0x5 DUP3 SWAP1 SHL DUP5 ADD DUP2 ADD SWAP3 DUP1 DUP11 ADD SWAP3 SWAP2 DUP6 ADD JUMPDEST DUP3 DUP8 LT PUSH2 0x38A JUMPI DUP6 DUP6 SUB DUP7 RETURN JUMPDEST SWAP1 SWAP2 SWAP3 SWAP4 DUP3 DUP1 PUSH2 0x3A6 PUSH1 0x1 SWAP4 PUSH1 0x3F NOT DUP11 DUP3 SUB ADD DUP7 MSTORE DUP9 MLOAD PUSH2 0x1462 JUMP JUMPDEST SWAP7 ADD SWAP3 ADD SWAP7 ADD SWAP6 SWAP3 SWAP2 SWAP1 SWAP3 PUSH2 0x37D JUMP JUMPDEST PUSH2 0x3C1 DUP2 DUP4 DUP6 PUSH2 0x1AD4 JUMP JUMPDEST CALLDATALOAD ISZERO ISZERO DUP1 PUSH2 0x4D2 JUMPI JUMPDEST ISZERO PUSH2 0x1D2 JUMPI DUP1 PUSH2 0x3DE PUSH2 0x4CD SWAP3 DUP5 DUP7 PUSH2 0x1AD4 JUMP JUMPDEST CALLDATALOAD PUSH1 0x0 MSTORE PUSH1 0x6 PUSH1 0x20 SWAP1 DUP1 DUP3 MSTORE PUSH1 0x40 PUSH1 0x0 KECCAK256 SWAP1 PUSH1 0x40 MLOAD SWAP3 PUSH2 0x3FD DUP5 PUSH2 0x15AB JUMP JUMPDEST DUP3 SLOAD PUSH1 0x1 PUSH1 0x1 PUSH1 0xA0 SHL SUB AND DUP5 MSTORE PUSH1 0x1 DUP4 ADD SLOAD SWAP1 DUP5 ADD MSTORE PUSH2 0x41F PUSH1 0x2 DUP4 ADD PUSH2 0x15FD JUMP JUMPDEST PUSH1 0x40 DUP5 ADD MSTORE PUSH1 0x3 DUP3 ADD SLOAD PUSH1 0x60 DUP5 ADD MSTORE PUSH1 0x4 DUP3 ADD SLOAD PUSH1 0x80 DUP5 ADD MSTORE PUSH1 0x5 DUP3 ADD SLOAD PUSH1 0xA0 DUP5 ADD MSTORE DUP2 ADD SLOAD PUSH1 0xC0 DUP4 ADD MSTORE PUSH1 0x7 DUP2 ADD SLOAD PUSH1 0xE0 DUP4 ADD MSTORE PUSH1 0xB PUSH1 0x8 SWAP2 DUP3 DUP2 ADD SLOAD PUSH2 0x100 DUP6 ADD MSTORE PUSH1 0x9 DUP2 ADD SLOAD PUSH2 0x120 DUP6 ADD MSTORE PUSH1 0xA DUP2 ADD SLOAD PUSH2 0x140 DUP6 ADD MSTORE ADD SLOAD DUP1 SWAP2 PUSH1 0xFF SWAP3 DUP4 SWAP2 PUSH2 0x492 DUP4 DUP4 AND PUSH2 0x160 DUP9 ADD PUSH2 0x177C JUMP JUMPDEST SHR AND PUSH2 0x180 DUP5 ADD MSTORE DUP2 DUP2 PUSH1 0x10 SHR AND PUSH2 0x1A0 DUP5 ADD MSTORE PUSH1 0x18 SHR AND ISZERO ISZERO PUSH2 0x1C0 DUP3 ADD MSTORE PUSH2 0x4BC DUP3 DUP8 PUSH2 0x1AE4 JUMP JUMPDEST MSTORE PUSH2 0x4C7 DUP2 DUP7 PUSH2 0x1AE4 JUMP JUMPDEST POP PUSH2 0x1752 JUMP JUMPDEST PUSH2 0x350 JUMP JUMPDEST POP PUSH2 0x4DE DUP2 DUP4 DUP6 PUSH2 0x1AD4 JUMP JUMPDEST CALLDATALOAD PUSH1 0x2 SLOAD LT ISZERO PUSH2 0x3CA JUMP JUMPDEST PUSH1 0x20 SWAP1 PUSH2 0x4F4 PUSH2 0x1CF9 JUMP JUMPDEST DUP3 DUP3 DUP9 ADD ADD MSTORE ADD PUSH2 0x344 JUMP JUMPDEST CALLVALUE PUSH2 0x1D2 JUMPI PUSH1 0x0 CALLDATASIZE PUSH1 0x3 NOT ADD SLT PUSH2 0x1D2 JUMPI PUSH1 0x20 PUSH1 0x2 SLOAD PUSH1 0x40 MLOAD SWAP1 DUP2 MSTORE RETURN JUMPDEST CALLVALUE PUSH2 0x1D2 JUMPI PUSH1 0x0 CALLDATASIZE PUSH1 0x3 NOT ADD SLT PUSH2 0x1D2 JUMPI PUSH1 0x2 SLOAD PUSH1 0x0 SWAP1 PUSH1 0x0 PUSH1 0x1 JUMPDEST DUP3 DUP2 GT ISZERO PUSH2 0x553 JUMPI POP PUSH2 0x1CE SWAP1 PUSH1 0x40 MLOAD SWAP4 DUP5 SWAP4 DUP5 PUSH2 0x16B9 JUMP JUMPDEST DUP1 PUSH1 0x0 MSTORE PUSH1 0x6 PUSH2 0x571 PUSH1 0x20 SWAP6 DUP3 DUP8 MSTORE PUSH1 0x9 PUSH1 0x40 PUSH1 0x0 KECCAK256 ADD SLOAD SWAP1 PUSH2 0x172F JUMP JUMPDEST SWAP5 DUP3 PUSH1 0x0 MSTORE MSTORE PUSH1 0xFF PUSH1 0xB PUSH1 0x40 PUSH1 0x0 KECCAK256 ADD SLOAD PUSH1 0x18 SHR AND PUSH2 0x599 JUMPI JUMPDEST PUSH2 0x594 SWAP1 PUSH2 0x1752 JUMP JUMPDEST PUSH2 0x53A JUMP JUMPDEST SWAP1 PUSH2 0x5A6 PUSH2 0x594 SWAP2 PUSH2 0x1752 JUMP JUMPDEST SWAP2 SWAP1 POP PUSH2 0x58B JUMP JUMPDEST CALLVALUE PUSH2 0x1D2 JUMPI PUSH2 0x100 CALLDATASIZE PUSH1 0x3 NOT ADD SLT PUSH2 0x1D2 JUMPI PUSH1 0x1 PUSH1 0x1 PUSH1 0x40 SHL SUB PUSH1 0x24 CALLDATALOAD GT PUSH2 0x1D2 JUMPI CALLDATASIZE PUSH1 0x23 PUSH1 0x24 CALLDATALOAD ADD SLT ISZERO PUSH2 0x1D2 JUMPI PUSH1 0x1 PUSH1 0x1 PUSH1 0x40 SHL SUB PUSH1 0x4 PUSH1 0x24 CALLDATALOAD ADD CALLDATALOAD GT PUSH2 0x1D2 JUMPI CALLDATASIZE PUSH1 0x24 DUP1 CALLDATALOAD PUSH1 0x4 ADD CALLDATALOAD DUP2 CALLDATALOAD ADD ADD GT PUSH2 0x1D2 JUMPI PUSH1 0x2 PUSH1 0x44 CALLDATALOAD LT ISZERO PUSH2 0x1D2 JUMPI PUSH1 0x64 PUSH1 0xC4 CALLDATALOAD GT PUSH2 0x1D2 JUMPI PUSH1 0x64 PUSH1 0xE4 CALLDATALOAD GT PUSH2 0x1D2 JUMPI PUSH1 0x64 PUSH2 0x632 PUSH1 0xE4 CALLDATALOAD PUSH1 0xC4 CALLDATALOAD PUSH2 0x172F JUMP JUMPDEST GT PUSH2 0x1D2 JUMPI PUSH1 0x64 CALLDATALOAD ISZERO PUSH2 0x1D2 JUMPI PUSH1 0x4 CALLDATALOAD ISZERO PUSH2 0x1D2 JUMPI PUSH1 0x24 CALLDATALOAD PUSH1 0x4 ADD CALLDATALOAD ISZERO PUSH2 0x1D2 JUMPI PUSH1 0x1 PUSH1 0x44 CALLDATALOAD EQ PUSH2 0x9DF JUMPI JUMPDEST PUSH2 0x669 PUSH1 0x2 SLOAD PUSH2 0x1752 JUMP JUMPDEST DUP1 PUSH1 0x2 SSTORE PUSH1 0x40 MLOAD PUSH2 0x679 DUP2 PUSH2 0x15AB JUMP JUMPDEST CALLER DUP2 MSTORE PUSH1 0x4 CALLDATALOAD PUSH1 0x20 DUP3 ADD MSTORE PUSH2 0x693 PUSH1 0x24 CALLDATALOAD PUSH1 0x4 ADD CALLDATALOAD PUSH2 0x1761 JUMP JUMPDEST PUSH2 0x6A0 PUSH1 0x40 MLOAD SWAP2 DUP3 PUSH2 0x15DA JUMP JUMPDEST PUSH1 0x24 DUP1 CALLDATALOAD PUSH1 0x4 DUP2 ADD CALLDATALOAD DUP1 DUP5 MSTORE SWAP2 ADD PUSH1 0x20 DUP4 ADD CALLDATACOPY PUSH1 0x0 PUSH1 0x20 PUSH1 0x24 CALLDATALOAD PUSH1 0x4 ADD CALLDATALOAD DUP4 ADD ADD MSTORE PUSH1 0x40 DUP3 ADD MSTORE PUSH1 0x64 CALLDATALOAD PUSH1 0x60 DUP3 ADD MSTORE PUSH1 0x64 CALLDATALOAD PUSH1 0x80 DUP3 ADD MSTORE PUSH1 0x84 CALLDATALOAD PUSH1 0xA0 DUP3 ADD MSTORE PUSH1 0xA4 CALLDATALOAD PUSH1 0xC0 DUP3 ADD MSTORE TIMESTAMP PUSH1 0xE0 DUP3 ADD MSTORE PUSH1 0x0 PUSH2 0x100 DUP3 ADD MSTORE PUSH1 0x0 PUSH2 0x120 DUP3 ADD MSTORE PUSH1 0x0 PUSH2 0x140 DUP3 ADD MSTORE PUSH2 0x715 PUSH1 0x44 CALLDATALOAD PUSH2 0x160 DUP4 ADD PUSH2 0x177C JUMP JUMPDEST PUSH1 0xFF PUSH1 0xC4 CALLDATALOAD AND PUSH2 0x180 DUP3 ADD MSTORE PUSH1 0xFF PUSH1 0xE4 CALLDATALOAD AND PUSH2 0x1A0 DUP3 ADD MSTORE PUSH1 0x1 PUSH2 0x1C0 DUP3 ADD MSTORE DUP2 PUSH1 0x0 MSTORE PUSH1 0x6 PUSH1 0x20 MSTORE PUSH1 0x40 PUSH1 0x0 KECCAK256 SWAP2 PUSH1 0x1 DUP1 PUSH1 0xA0 SHL SUB DUP3 MLOAD AND PUSH1 0x1 DUP1 PUSH1 0xA0 SHL SUB NOT DUP5 SLOAD AND OR DUP4 SSTORE PUSH1 0x20 DUP3 ADD MLOAD PUSH1 0x1 DUP5 ADD SSTORE PUSH1 0x40 DUP3 ADD MLOAD SWAP3 DUP4 MLOAD PUSH1 0x1 DUP1 PUSH1 0x40 SHL SUB DUP2 GT PUSH2 0x9C9 JUMPI PUSH2 0x788 PUSH1 0x2 DUP4 ADD SLOAD PUSH2 0x1571 JUMP JUMPDEST PUSH1 0x1F DUP2 GT PUSH2 0x982 JUMPI JUMPDEST POP PUSH1 0x20 PUSH1 0x1F DUP3 GT PUSH1 0x1 EQ PUSH2 0x911 JUMPI DUP2 SWAP1 PUSH1 0xB SWAP5 SWAP6 SWAP7 PUSH1 0x0 SWAP3 PUSH2 0x906 JUMPI JUMPDEST POP POP DUP2 PUSH1 0x1 SHL SWAP2 PUSH1 0x0 NOT SWAP1 PUSH1 0x3 SHL SHR NOT AND OR PUSH1 0x2 DUP3 ADD SSTORE JUMPDEST PUSH1 0x60 DUP5 ADD MLOAD PUSH1 0x3 DUP3 ADD SSTORE PUSH1 0x80 DUP5 ADD MLOAD PUSH1 0x4 DUP3 ADD SSTORE PUSH1 0xA0 DUP5 ADD MLOAD PUSH1 0x5 DUP3 ADD SSTORE PUSH1 0xC0 DUP5 ADD MLOAD PUSH1 0x6 DUP3 ADD SSTORE PUSH1 0xE0 DUP5 ADD MLOAD PUSH1 0x7 DUP3 ADD SSTORE PUSH2 0x100 DUP5 ADD MLOAD PUSH1 0x8 DUP3 ADD SSTORE PUSH2 0x120 DUP5 ADD MLOAD PUSH1 0x9 DUP3 ADD SSTORE PUSH2 0x140 DUP5 ADD MLOAD PUSH1 0xA DUP3 ADD SSTORE ADD SWAP2 PUSH2 0x160 DUP2 ADD MLOAD SWAP3 PUSH1 0x2 DUP5 LT ISZERO PUSH2 0x8F0 JUMPI PUSH2 0x1C0 PUSH2 0x86D SWAP3 PUSH1 0x20 SWAP6 DUP4 SLOAD PUSH2 0xFF00 PUSH2 0x180 DUP5 ADD MLOAD PUSH1 0x8 SHL AND SWAP1 PUSH1 0xFF PUSH3 0xFF0000 PUSH2 0x1A0 DUP7 ADD MLOAD PUSH1 0x10 SHL AND SWAP4 AND SWAP1 PUSH3 0xFFFFFF NOT AND OR OR OR DUP4 SSTORE ADD MLOAD ISZERO ISZERO SWAP1 PUSH2 0x1788 JUMP JUMPDEST DUP1 PUSH1 0x0 MSTORE PUSH1 0x7 DUP3 MSTORE PUSH2 0x885 PUSH1 0x64 CALLDATALOAD PUSH1 0x40 PUSH1 0x0 KECCAK256 PUSH2 0x17A4 JUMP JUMPDEST DUP1 PUSH1 0x0 MSTORE PUSH1 0x8 DUP3 MSTORE PUSH2 0x89B TIMESTAMP PUSH1 0x40 PUSH1 0x0 KECCAK256 PUSH2 0x17A4 JUMP JUMPDEST PUSH1 0x40 MLOAD PUSH1 0x4 CALLDATALOAD DUP2 MSTORE PUSH2 0x8B1 DUP4 DUP3 ADD PUSH1 0x44 CALLDATALOAD PUSH2 0x1455 JUMP JUMPDEST PUSH1 0x64 CALLDATALOAD PUSH1 0x40 DUP3 ADD MSTORE PUSH1 0x84 CALLDATALOAD PUSH1 0x60 DUP3 ADD MSTORE DUP2 PUSH32 0x505543113D9D1A281874815CEE76FC95D191D999C006617D2C176495CB948B58 PUSH1 0x80 CALLER SWAP4 LOG3 PUSH1 0x40 MLOAD SWAP1 DUP2 MSTORE RETURN JUMPDEST PUSH4 0x4E487B71 PUSH1 0xE0 SHL PUSH1 0x0 MSTORE PUSH1 0x21 PUSH1 0x4 MSTORE PUSH1 0x24 PUSH1 0x0 REVERT JUMPDEST ADD MLOAD SWAP1 POP DUP7 DUP1 PUSH2 0x7AE JUMP JUMPDEST PUSH1 0x1F NOT DUP3 AND SWAP6 PUSH1 0x2 DUP5 ADD PUSH1 0x0 MSTORE PUSH1 0x20 PUSH1 0x0 KECCAK256 SWAP7 PUSH1 0x0 JUMPDEST DUP2 DUP2 LT PUSH2 0x96A JUMPI POP SWAP2 PUSH1 0xB SWAP6 SWAP7 SWAP8 SWAP2 DUP5 PUSH1 0x1 SWAP6 SWAP5 LT PUSH2 0x951 JUMPI JUMPDEST POP POP POP DUP2 SHL ADD PUSH1 0x2 DUP3 ADD SSTORE PUSH2 0x7C6 JUMP JUMPDEST ADD MLOAD PUSH1 0x0 NOT PUSH1 0xF8 DUP5 PUSH1 0x3 SHL AND SHR NOT AND SWAP1 SSTORE DUP7 DUP1 DUP1 PUSH2 0x941 JUMP JUMPDEST DUP4 DUP4 ADD MLOAD DUP10 SSTORE PUSH1 0x1 SWAP1 SWAP9 ADD SWAP8 PUSH1 0x20 SWAP4 DUP5 ADD SWAP4 ADD PUSH2 0x927 JUMP JUMPDEST PUSH1 0x2 DUP4 ADD PUSH1 0x0 MSTORE PUSH1 0x20 PUSH1 0x0 KECCAK256 PUSH1 0x1F DUP4 ADD PUSH1 0x5 SHR DUP2 ADD PUSH1 0x20 DUP5 LT PUSH2 0x9C2 JUMPI JUMPDEST PUSH1 0x1F DUP4 ADD PUSH1 0x5 SHR DUP3 ADD DUP2 LT PUSH2 0x9B6 JUMPI POP POP PUSH2 0x791 JUMP JUMPDEST PUSH1 0x0 DUP2 SSTORE PUSH1 0x1 ADD PUSH2 0x9A0 JUMP JUMPDEST POP DUP1 PUSH2 0x9A0 JUMP JUMPDEST PUSH4 0x4E487B71 PUSH1 0xE0 SHL PUSH1 0x0 MSTORE PUSH1 0x41 PUSH1 0x4 MSTORE PUSH1 0x24 PUSH1 0x0 REVERT JUMPDEST PUSH1 0x84 CALLDATALOAD ISZERO PUSH2 0x1D2 JUMPI PUSH1 0x64 PUSH1 0xA4 CALLDATALOAD LT ISZERO PUSH2 0x65E JUMPI PUSH1 0x0 DUP1 REVERT JUMPDEST CALLVALUE PUSH2 0x1D2 JUMPI PUSH1 0x0 CALLDATASIZE PUSH1 0x3 NOT ADD SLT PUSH2 0x1D2 JUMPI PUSH2 0xA10 PUSH2 0x1703 JUMP JUMPDEST PUSH2 0xA18 PUSH2 0x1837 JUMP JUMPDEST SELFBALANCE DUP1 ISZERO PUSH2 0x1D2 JUMPI PUSH1 0x1 SLOAD PUSH1 0x0 SWAP2 DUP3 SWAP2 DUP3 SWAP2 DUP3 SWAP2 PUSH1 0x1 PUSH1 0x1 PUSH1 0xA0 SHL SUB AND GAS CALL PUSH2 0xA3E PUSH2 0x1807 JUMP JUMPDEST POP ISZERO PUSH2 0x1D2 JUMPI PUSH1 0x1 PUSH1 0x0 SSTORE STOP JUMPDEST CALLVALUE PUSH2 0x1D2 JUMPI PUSH1 0x20 CALLDATASIZE PUSH1 0x3 NOT ADD SLT PUSH2 0x1D2 JUMPI PUSH1 0x4 CALLDATALOAD DUP1 ISZERO ISZERO DUP1 PUSH2 0xAC2 JUMPI JUMPDEST ISZERO PUSH2 0x1D2 JUMPI PUSH1 0x0 SWAP1 DUP2 MSTORE PUSH1 0x6 PUSH1 0x20 MSTORE PUSH1 0x40 SWAP1 KECCAK256 SLOAD CALLER PUSH1 0x1 PUSH1 0x1 PUSH1 0xA0 SHL SUB SWAP2 DUP3 AND EQ SWAP1 DUP2 ISZERO PUSH2 0xAB4 JUMPI JUMPDEST POP ISZERO PUSH2 0x1D2 JUMPI PUSH1 0x9 PUSH1 0x20 MSTORE PUSH1 0x0 PUSH1 0x40 DUP2 KECCAK256 SSTORE PUSH1 0xA PUSH1 0x20 MSTORE PUSH1 0x0 PUSH1 0x40 DUP2 KECCAK256 SSTORE PUSH1 0x0 DUP1 RETURN JUMPDEST SWAP1 POP PUSH1 0x1 SLOAD AND CALLER EQ DUP2 PUSH2 0xA91 JUMP JUMPDEST POP PUSH1 0x2 SLOAD DUP2 GT ISZERO PUSH2 0xA68 JUMP JUMPDEST CALLVALUE PUSH2 0x1D2 JUMPI PUSH2 0xADC CALLDATASIZE PUSH2 0x13B5 JUMP JUMPDEST SWAP1 PUSH1 0x0 MSTORE PUSH1 0x8 PUSH1 0x20 MSTORE PUSH1 0x40 PUSH1 0x0 KECCAK256 DUP1 SLOAD DUP3 LT ISZERO PUSH2 0x1D2 JUMPI PUSH1 0x20 SWAP2 PUSH2 0xAFF SWAP2 PUSH2 0x13CB JUMP JUMPDEST SWAP1 SLOAD PUSH1 0x40 MLOAD SWAP2 PUSH1 0x3 SHL SHR DUP2 MSTORE RETURN JUMPDEST CALLVALUE PUSH2 0x1D2 JUMPI PUSH1 0x0 CALLDATASIZE PUSH1 0x3 NOT ADD SLT PUSH2 0x1D2 JUMPI PUSH1 0x20 PUSH1 0x40 MLOAD PUSH3 0x186A0 DUP2 MSTORE RETURN JUMPDEST PUSH1 0x20 CALLDATASIZE PUSH1 0x3 NOT ADD SLT PUSH2 0x1D2 JUMPI PUSH1 0x4 CALLDATALOAD DUP1 ISZERO ISZERO DUP1 PUSH2 0xC83 JUMPI JUMPDEST ISZERO PUSH2 0x1D2 JUMPI DUP1 PUSH1 0x0 MSTORE PUSH1 0x6 PUSH1 0x20 MSTORE PUSH1 0xFF PUSH1 0xB PUSH1 0x40 PUSH1 0x0 KECCAK256 ADD SLOAD PUSH1 0x18 SHR AND ISZERO PUSH2 0x1D2 JUMPI PUSH2 0xB6D PUSH2 0x1837 JUMP JUMPDEST DUP1 PUSH1 0x0 MSTORE PUSH1 0x6 PUSH1 0x20 MSTORE PUSH1 0x40 PUSH1 0x0 KECCAK256 SWAP1 PUSH2 0xB85 DUP2 PUSH2 0x1AF8 JUMP JUMPDEST SWAP2 DUP3 CALLVALUE LT PUSH2 0x1D2 JUMPI PUSH2 0xB97 DUP4 DUP4 PUSH2 0x186D JUMP JUMPDEST PUSH1 0x8 DUP2 ADD SWAP1 PUSH2 0xBA6 DUP3 SLOAD PUSH2 0x1752 JUMP JUMPDEST DUP3 SSTORE PUSH1 0x9 DUP2 ADD PUSH2 0xBB7 DUP6 DUP3 SLOAD PUSH2 0x172F JUMP JUMPDEST SWAP1 SSTORE PUSH1 0xA TIMESTAMP SWAP2 ADD SSTORE PUSH2 0xBC9 DUP4 DUP4 PUSH2 0x19C1 JUMP JUMPDEST PUSH1 0x3 SLOAD PUSH1 0x1 PUSH1 0x1 PUSH1 0xA0 SHL SUB AND DUP1 EXTCODESIZE ISZERO PUSH2 0x1D2 JUMPI PUSH1 0x0 PUSH1 0x40 MLOAD DUP1 SWAP3 PUSH4 0x686108D PUSH1 0xE0 SHL DUP3 MSTORE DUP2 DUP4 DUP2 PUSH2 0xBFF DUP12 CALLER DUP13 PUSH1 0x4 DUP6 ADD PUSH2 0x17D9 JUMP JUMPDEST SUB SWAP3 GAS CALL DUP1 ISZERO PUSH2 0xC77 JUMPI PUSH2 0xC68 JUMPI JUMPDEST POP DUP4 CALLVALUE GT PUSH2 0xC44 JUMPI JUMPDEST PUSH1 0x0 DUP1 MLOAD PUSH1 0x20 PUSH2 0x1FF3 DUP4 CODECOPY DUP2 MLOAD SWAP2 MSTORE SWAP2 SLOAD SWAP1 PUSH2 0xC3A PUSH1 0x40 MLOAD SWAP3 DUP4 SWAP3 CALLER SWAP8 DUP5 PUSH2 0x16B9 JUMP JUMPDEST SUB SWAP1 LOG3 PUSH1 0x1 PUSH1 0x0 SSTORE STOP JUMPDEST PUSH1 0x0 DUP1 DUP1 DUP1 PUSH2 0xC53 DUP9 CALLVALUE PUSH2 0x17FA JUMP JUMPDEST CALLER GAS CALL PUSH2 0xC5E PUSH2 0x1807 JUMP JUMPDEST POP PUSH2 0xC17 JUMPI PUSH1 0x0 DUP1 REVERT JUMPDEST PUSH2 0xC71 SWAP1 PUSH2 0x15C7 JUMP JUMPDEST DUP5 PUSH2 0xC0E JUMP JUMPDEST PUSH1 0x40 MLOAD RETURNDATASIZE PUSH1 0x0 DUP3 RETURNDATACOPY RETURNDATASIZE SWAP1 REVERT JUMPDEST POP PUSH1 0x2 SLOAD DUP2 GT ISZERO PUSH2 0xB43 JUMP JUMPDEST CALLVALUE PUSH2 0x1D2 JUMPI PUSH1 0x20 CALLDATASIZE PUSH1 0x3 NOT ADD SLT PUSH2 0x1D2 JUMPI PUSH1 0x20 PUSH2 0xCAD PUSH1 0x4 CALLDATALOAD PUSH2 0x1AF8 JUMP JUMPDEST PUSH1 0x40 MLOAD SWAP1 DUP2 MSTORE RETURN JUMPDEST CALLVALUE PUSH2 0x1D2 JUMPI PUSH1 0x0 CALLDATASIZE PUSH1 0x3 NOT ADD SLT PUSH2 0x1D2 JUMPI PUSH1 0x3 SLOAD PUSH1 0x40 MLOAD PUSH1 0x1 PUSH1 0x1 PUSH1 0xA0 SHL SUB SWAP1 SWAP2 AND DUP2 MSTORE PUSH1 0x20 SWAP1 RETURN JUMPDEST CALLVALUE PUSH2 0x1D2 JUMPI PUSH1 0x60 CALLDATASIZE PUSH1 0x3 NOT ADD SLT PUSH2 0x1D2 JUMPI PUSH2 0xCF7 PUSH2 0x16A3 JUMP JUMPDEST PUSH1 0x24 CALLDATALOAD PUSH1 0x1 PUSH1 0x1 PUSH1 0xA0 SHL SUB DUP2 DUP2 AND SWAP2 DUP3 SWAP1 SUB PUSH2 0x1D2 JUMPI PUSH1 0x44 CALLDATALOAD SWAP3 DUP2 DUP5 AND DUP1 SWAP5 SUB PUSH2 0x1D2 JUMPI PUSH2 0xD23 PUSH2 0x1703 JUMP JUMPDEST AND SWAP1 DUP2 ISZERO PUSH2 0x1D2 JUMPI DUP1 ISZERO PUSH2 0x1D2 JUMPI DUP3 ISZERO PUSH2 0x1D2 JUMPI PUSH1 0x1 DUP1 PUSH1 0xA0 SHL SUB NOT SWAP2 DUP3 PUSH1 0x3 SLOAD AND OR PUSH1 0x3 SSTORE DUP2 PUSH1 0x4 SLOAD AND OR PUSH1 0x4 SSTORE PUSH1 0x5 SLOAD AND OR PUSH1 0x5 SSTORE PUSH1 0x0 DUP1 RETURN JUMPDEST CALLVALUE PUSH2 0x1D2 JUMPI PUSH1 0x20 CALLDATASIZE PUSH1 0x3 NOT ADD SLT PUSH2 0x1D2 JUMPI PUSH1 0x4 CALLDATALOAD PUSH1 0x0 MSTORE PUSH1 0x6 PUSH1 0x20 MSTORE PUSH1 0x20 PUSH1 0x40 PUSH1 0x0 KECCAK256 PUSH1 0x1 DUP1 PUSH1 0xA0 SHL SUB DUP2 SLOAD AND SWAP1 PUSH1 0xFF PUSH1 0x1 DUP3 ADD SLOAD PUSH2 0xDA0 PUSH1 0x2 DUP5 ADD PUSH2 0x15FD JUMP JUMPDEST SWAP3 PUSH1 0x3 DUP2 ADD SLOAD SWAP4 PUSH1 0x4 DUP3 ADD SLOAD PUSH1 0x5 DUP4 ADD SLOAD PUSH1 0x6 DUP5 ADD SLOAD PUSH1 0x7 DUP6 ADD SLOAD SWAP2 PUSH1 0x8 DUP7 ADD SLOAD SWAP4 PUSH2 0xDF5 PUSH1 0x9 DUP9 ADD SLOAD SWAP7 PUSH1 0xB PUSH1 0xA DUP11 ADD SLOAD SWAP10 ADD SLOAD SWAP10 PUSH1 0x40 MLOAD SWAP15 DUP16 SWAP15 DUP16 SWAP1 DUP2 MSTORE ADD MSTORE PUSH1 0x40 DUP14 PUSH2 0x1E0 SWAP2 DUP3 SWAP2 ADD MSTORE DUP14 ADD SWAP1 PUSH2 0x1415 JUMP JUMPDEST SWAP10 PUSH1 0x60 DUP13 ADD MSTORE PUSH1 0x80 DUP12 ADD MSTORE PUSH1 0xA0 DUP11 ADD MSTORE PUSH1 0xC0 DUP10 ADD MSTORE PUSH1 0xE0 DUP9 ADD MSTORE PUSH2 0x100 DUP8 ADD MSTORE PUSH2 0x120 DUP7 ADD MSTORE PUSH2 0x140 DUP6 ADD MSTORE PUSH2 0xE31 PUSH2 0x160 DUP6 ADD DUP4 DUP4 AND PUSH2 0x1455 JUMP JUMPDEST DUP2 DUP2 PUSH1 0x8 SHR AND PUSH2 0x180 DUP6 ADD MSTORE DUP2 DUP2 PUSH1 0x10 SHR AND PUSH2 0x1A0 DUP6 ADD MSTORE PUSH1 0x18 SHR AND ISZERO ISZERO PUSH2 0x1C0 DUP4 ADD MSTORE SUB SWAP1 RETURN JUMPDEST CALLVALUE PUSH2 0x1D2 JUMPI PUSH1 0x0 CALLDATASIZE PUSH1 0x3 NOT ADD SLT PUSH2 0x1D2 JUMPI PUSH1 0x4 SLOAD PUSH1 0x40 MLOAD PUSH1 0x1 PUSH1 0x1 PUSH1 0xA0 SHL SUB SWAP1 SWAP2 AND DUP2 MSTORE PUSH1 0x20 SWAP1 RETURN JUMPDEST CALLVALUE PUSH2 0x1D2 JUMPI PUSH2 0xE90 CALLDATASIZE PUSH2 0x1396 JUMP JUMPDEST PUSH2 0xE98 PUSH2 0x1703 JUMP JUMPDEST DUP2 ISZERO ISZERO DUP1 PUSH2 0xEB1 JUMPI JUMPDEST ISZERO PUSH2 0x1D2 JUMPI PUSH2 0xEAF SWAP2 PUSH2 0x1C8C JUMP JUMPDEST STOP JUMPDEST POP PUSH1 0x2 SLOAD DUP3 GT ISZERO PUSH2 0xEA1 JUMP JUMPDEST PUSH2 0xEC6 CALLDATASIZE PUSH2 0x1524 JUMP JUMPDEST PUSH2 0xECE PUSH2 0x1837 JUMP JUMPDEST DUP1 ISZERO PUSH2 0x1D2 JUMPI PUSH1 0x32 DUP2 GT PUSH2 0x1D2 JUMPI PUSH1 0x0 PUSH2 0xEE7 DUP3 PUSH2 0x1AA2 JUMP JUMPDEST PUSH1 0x0 JUMPDEST DUP4 DUP2 LT PUSH2 0x107F JUMPI POP DUP2 CALLVALUE LT PUSH2 0x1D2 JUMPI PUSH1 0x0 JUMPDEST DUP4 DUP2 LT PUSH2 0xF90 JUMPI POP POP DUP1 CALLVALUE GT PUSH2 0xF6C JUMPI JUMPDEST PUSH1 0x40 DUP1 MLOAD DUP2 DUP2 MSTORE SWAP1 DUP2 ADD DUP4 SWAP1 MSTORE SWAP1 PUSH1 0x1 PUSH1 0x1 PUSH1 0xFB SHL SUB DUP4 GT PUSH2 0x1D2 JUMPI PUSH32 0xA25F24536407B63286BDAE6707ED3E860288BB5F5C648DE7DD6DAB214485A8E3 SWAP3 PUSH1 0x5 SHL DUP1 SWAP5 PUSH1 0x60 DUP5 ADD CALLDATACOPY PUSH1 0x20 DUP3 ADD MSTORE PUSH1 0x60 DUP2 CALLER SWAP5 DUP2 ADD SUB ADD SWAP1 LOG2 PUSH1 0x1 PUSH1 0x0 SSTORE STOP JUMPDEST PUSH1 0x0 DUP1 DUP1 DUP1 PUSH2 0xF7B DUP6 CALLVALUE PUSH2 0x17FA JUMP JUMPDEST CALLER GAS CALL PUSH2 0xF86 PUSH2 0x1807 JUMP JUMPDEST POP PUSH2 0xF0D JUMPI PUSH1 0x0 DUP1 REVERT JUMPDEST PUSH2 0xF9B DUP2 DUP6 DUP8 PUSH2 0x1AD4 JUMP JUMPDEST CALLDATALOAD SWAP1 PUSH2 0xFA7 DUP2 DUP5 PUSH2 0x1AE4 JUMP JUMPDEST MLOAD DUP3 PUSH1 0x0 MSTORE PUSH1 0x6 PUSH1 0x20 MSTORE PUSH1 0x40 PUSH1 0x0 KECCAK256 SWAP3 PUSH2 0xFC1 DUP3 DUP3 PUSH2 0x186D JUMP JUMPDEST PUSH1 0x8 DUP5 ADD SWAP4 PUSH2 0xFD0 DUP6 SLOAD PUSH2 0x1752 JUMP JUMPDEST DUP6 SSTORE PUSH1 0x9 DUP2 ADD PUSH2 0xFE1 DUP5 DUP3 SLOAD PUSH2 0x172F JUMP JUMPDEST SWAP1 SSTORE PUSH1 0xA TIMESTAMP SWAP2 ADD SSTORE PUSH2 0xFF3 DUP3 DUP3 PUSH2 0x19C1 JUMP JUMPDEST PUSH1 0x3 SLOAD PUSH1 0x1 PUSH1 0x1 PUSH1 0xA0 SHL SUB AND SWAP5 SWAP1 DUP6 EXTCODESIZE ISZERO PUSH2 0x1D2 JUMPI PUSH1 0x0 PUSH1 0x40 MLOAD DUP1 SWAP8 PUSH4 0x686108D PUSH1 0xE0 SHL DUP3 MSTORE DUP2 DUP4 DUP2 PUSH2 0x102B DUP11 CALLER DUP12 PUSH1 0x4 DUP6 ADD PUSH2 0x17D9 JUMP JUMPDEST SUB SWAP3 GAS CALL SWAP2 DUP3 ISZERO PUSH2 0xC77 JUMPI PUSH2 0x106B SWAP7 PUSH1 0x0 DUP1 MLOAD PUSH1 0x20 PUSH2 0x1FF3 DUP4 CODECOPY DUP2 MLOAD SWAP2 MSTORE SWAP4 PUSH2 0x1070 JUMPI JUMPDEST POP SLOAD SWAP1 PUSH2 0x1063 PUSH1 0x40 MLOAD SWAP3 DUP4 SWAP3 CALLER SWAP8 DUP5 PUSH2 0x16B9 JUMP JUMPDEST SUB SWAP1 LOG3 PUSH2 0x1752 JUMP JUMPDEST PUSH2 0xEFC JUMP JUMPDEST PUSH2 0x1079 SWAP1 PUSH2 0x15C7 JUMP JUMPDEST DUP12 PUSH2 0x104F JUMP JUMPDEST SWAP2 PUSH2 0x108B DUP4 DUP6 DUP8 PUSH2 0x1AD4 JUMP JUMPDEST CALLDATALOAD ISZERO ISZERO DUP1 PUSH2 0x10FD JUMPI JUMPDEST ISZERO PUSH2 0x1D2 JUMPI PUSH2 0x10A4 DUP4 DUP6 DUP8 PUSH2 0x1AD4 JUMP JUMPDEST CALLDATALOAD PUSH1 0x0 MSTORE PUSH1 0x6 PUSH1 0x20 MSTORE PUSH1 0xFF PUSH1 0xB PUSH1 0x40 PUSH1 0x0 KECCAK256 ADD SLOAD PUSH1 0x18 SHR AND ISZERO PUSH2 0x1D2 JUMPI PUSH2 0x10F2 PUSH2 0x10F8 SWAP2 PUSH2 0x10D6 PUSH2 0x255 DUP7 DUP9 DUP11 PUSH2 0x1AD4 JUMP JUMPDEST PUSH2 0x10E0 DUP7 DUP7 PUSH2 0x1AE4 JUMP JUMPDEST MSTORE PUSH2 0x10EB DUP6 DUP6 PUSH2 0x1AE4 JUMP JUMPDEST MLOAD SWAP1 PUSH2 0x172F JUMP JUMPDEST SWAP3 PUSH2 0x1752 JUMP JUMPDEST PUSH2 0xEEA JUMP JUMPDEST POP PUSH2 0x1109 DUP4 DUP6 DUP8 PUSH2 0x1AD4 JUMP JUMPDEST CALLDATALOAD PUSH1 0x2 SLOAD LT ISZERO PUSH2 0x1094 JUMP JUMPDEST CALLVALUE PUSH2 0x1D2 JUMPI PUSH1 0x0 CALLDATASIZE PUSH1 0x3 NOT ADD SLT PUSH2 0x1D2 JUMPI PUSH1 0x5 SLOAD PUSH1 0x40 MLOAD PUSH1 0x1 PUSH1 0x1 PUSH1 0xA0 SHL SUB SWAP1 SWAP2 AND DUP2 MSTORE PUSH1 0x20 SWAP1 RETURN JUMPDEST CALLVALUE PUSH2 0x1D2 JUMPI PUSH1 0x0 CALLDATASIZE PUSH1 0x3 NOT ADD SLT PUSH2 0x1D2 JUMPI PUSH1 0x1 SLOAD PUSH1 0x40 MLOAD PUSH1 0x1 PUSH1 0x1 PUSH1 0xA0 SHL SUB SWAP1 SWAP2 AND DUP2 MSTORE PUSH1 0x20 SWAP1 RETURN JUMPDEST CALLVALUE PUSH2 0x1D2 JUMPI PUSH1 0x20 CALLDATASIZE PUSH1 0x3 NOT ADD SLT PUSH2 0x1D2 JUMPI PUSH1 0x4 CALLDATALOAD PUSH2 0x1182 PUSH2 0x1CF9 JUMP JUMPDEST POP DUP1 ISZERO ISZERO DUP1 PUSH2 0x1277 JUMPI JUMPDEST ISZERO PUSH2 0x1D2 JUMPI PUSH1 0x0 MSTORE PUSH1 0x6 PUSH1 0x20 MSTORE PUSH2 0x1CE PUSH1 0x40 PUSH1 0x0 KECCAK256 PUSH1 0xFF PUSH1 0xB PUSH1 0x40 MLOAD SWAP3 PUSH2 0x11B2 DUP5 PUSH2 0x15AB JUMP JUMPDEST DUP1 SLOAD PUSH1 0x1 PUSH1 0x1 PUSH1 0xA0 SHL SUB AND DUP5 MSTORE PUSH1 0x1 DUP2 ADD SLOAD PUSH1 0x20 DUP6 ADD MSTORE PUSH2 0x11D5 PUSH1 0x2 DUP3 ADD PUSH2 0x15FD JUMP JUMPDEST PUSH1 0x40 DUP6 ADD MSTORE PUSH1 0x3 DUP2 ADD SLOAD PUSH1 0x60 DUP6 ADD MSTORE PUSH1 0x4 DUP2 ADD SLOAD PUSH1 0x80 DUP6 ADD MSTORE PUSH1 0x5 DUP2 ADD SLOAD PUSH1 0xA0 DUP6 ADD MSTORE PUSH1 0x6 DUP2 ADD SLOAD PUSH1 0xC0 DUP6 ADD MSTORE PUSH1 0x7 DUP2 ADD SLOAD PUSH1 0xE0 DUP6 ADD MSTORE PUSH1 0x8 DUP2 ADD SLOAD PUSH2 0x100 DUP6 ADD MSTORE PUSH1 0x9 DUP2 ADD SLOAD PUSH2 0x120 DUP6 ADD MSTORE PUSH1 0xA DUP2 ADD SLOAD PUSH2 0x140 DUP6 ADD MSTORE ADD SLOAD PUSH2 0x123F DUP3 DUP3 AND PUSH2 0x160 DUP6 ADD PUSH2 0x177C JUMP JUMPDEST DUP2 DUP2 PUSH1 0x8 SHR AND PUSH2 0x180 DUP5 ADD MSTORE DUP2 DUP2 PUSH1 0x10 SHR AND PUSH2 0x1A0 DUP5 ADD MSTORE PUSH1 0x18 SHR AND ISZERO ISZERO PUSH2 0x1C0 DUP3 ADD MSTORE PUSH1 0x40 MLOAD SWAP2 DUP3 SWAP2 PUSH1 0x20 DUP4 MSTORE PUSH1 0x20 DUP4 ADD SWAP1 PUSH2 0x1462 JUMP JUMPDEST POP PUSH1 0x2 SLOAD DUP2 GT ISZERO PUSH2 0x118C JUMP JUMPDEST CALLVALUE PUSH2 0x1D2 JUMPI PUSH1 0x0 CALLDATASIZE PUSH1 0x3 NOT ADD SLT PUSH2 0x1D2 JUMPI PUSH2 0x129C PUSH2 0x1703 JUMP JUMPDEST PUSH1 0x1 DUP1 SLOAD PUSH1 0x1 PUSH1 0x1 PUSH1 0xA0 SHL SUB NOT DUP2 AND SWAP1 SWAP2 SSTORE PUSH1 0x0 SWAP1 PUSH1 0x1 PUSH1 0x1 PUSH1 0xA0 SHL SUB AND PUSH1 0x0 DUP1 MLOAD PUSH1 0x20 PUSH2 0x1FD3 DUP4 CODECOPY DUP2 MLOAD SWAP2 MSTORE DUP3 DUP1 LOG3 STOP JUMPDEST PUSH2 0x13F9 JUMP JUMPDEST CALLVALUE PUSH2 0x1D2 JUMPI PUSH1 0x0 CALLDATASIZE PUSH1 0x3 NOT ADD SLT PUSH2 0x1D2 JUMPI PUSH1 0x20 PUSH1 0x40 MLOAD PUSH2 0x12C DUP2 MSTORE RETURN JUMPDEST CALLVALUE PUSH2 0x1D2 JUMPI PUSH1 0x20 CALLDATASIZE PUSH1 0x3 NOT ADD SLT PUSH2 0x1D2 JUMPI PUSH2 0x1309 PUSH2 0x1703 JUMP JUMPDEST PUSH2 0x3E8 PUSH1 0x4 CALLDATALOAD GT PUSH2 0x1D2 JUMPI STOP JUMPDEST CALLVALUE PUSH2 0x1D2 JUMPI PUSH2 0x1324 CALLDATASIZE PUSH2 0x13B5 JUMP JUMPDEST SWAP1 PUSH1 0x0 MSTORE PUSH1 0x7 PUSH1 0x20 MSTORE PUSH1 0x40 PUSH1 0x0 KECCAK256 DUP1 SLOAD DUP3 LT ISZERO PUSH2 0x1D2 JUMPI PUSH1 0x20 SWAP2 PUSH2 0xAFF SWAP2 PUSH2 0x13CB JUMP JUMPDEST CALLVALUE PUSH2 0x1D2 JUMPI PUSH2 0x1355 CALLDATASIZE PUSH2 0x1396 JUMP JUMPDEST DUP2 ISZERO ISZERO DUP1 PUSH2 0x138A JUMPI JUMPDEST ISZERO PUSH2 0x1D2 JUMPI PUSH1 0x0 DUP3 DUP2 MSTORE PUSH1 0x6 PUSH1 0x20 MSTORE PUSH1 0x40 SWAP1 KECCAK256 SLOAD PUSH1 0x1 PUSH1 0x1 PUSH1 0xA0 SHL SUB AND CALLER SUB PUSH2 0x1D2 JUMPI PUSH2 0xEAF SWAP2 PUSH2 0x1C8C JUMP JUMPDEST POP PUSH1 0x2 SLOAD DUP3 GT ISZERO PUSH2 0x135E JUMP JUMPDEST PUSH1 0x40 SWAP1 PUSH1 0x3 NOT ADD SLT PUSH2 0x1D2 JUMPI PUSH1 0x4 CALLDATALOAD SWAP1 PUSH1 0x24 CALLDATALOAD DUP1 ISZERO ISZERO DUP2 SUB PUSH2 0x1D2 JUMPI SWAP1 JUMP JUMPDEST PUSH1 0x40 SWAP1 PUSH1 0x3 NOT ADD SLT PUSH2 0x1D2 JUMPI PUSH1 0x4 CALLDATALOAD SWAP1 PUSH1 0x24 CALLDATALOAD SWAP1 JUMP JUMPDEST DUP1 SLOAD DUP3 LT ISZERO PUSH2 0x13E3 JUMPI PUSH1 0x0 MSTORE PUSH1 0x20 PUSH1 0x0 KECCAK256 ADD SWAP1 PUSH1 0x0 SWAP1 JUMP JUMPDEST PUSH4 0x4E487B71 PUSH1 0xE0 SHL PUSH1 0x0 MSTORE PUSH1 0x32 PUSH1 0x4 MSTORE PUSH1 0x24 PUSH1 0x0 REVERT JUMPDEST CALLVALUE PUSH2 0x1D2 JUMPI PUSH1 0x0 CALLDATASIZE PUSH1 0x3 NOT ADD SLT PUSH2 0x1D2 JUMPI PUSH1 0x20 PUSH1 0x40 MLOAD PUSH1 0x64 DUP2 MSTORE RETURN JUMPDEST SWAP2 SWAP1 DUP3 MLOAD SWAP3 DUP4 DUP3 MSTORE PUSH1 0x0 JUMPDEST DUP5 DUP2 LT PUSH2 0x1441 JUMPI POP POP DUP3 PUSH1 0x0 PUSH1 0x20 DUP1 SWAP5 SWAP6 DUP5 ADD ADD MSTORE PUSH1 0x1F DUP1 NOT SWAP2 ADD AND ADD ADD SWAP1 JUMP JUMPDEST PUSH1 0x20 DUP2 DUP4 ADD DUP2 ADD MLOAD DUP5 DUP4 ADD DUP3 ADD MSTORE ADD PUSH2 0x1420 JUMP JUMPDEST SWAP1 PUSH1 0x2 DUP3 LT ISZERO PUSH2 0x8F0 JUMPI MSTORE JUMP JUMPDEST SWAP1 PUSH1 0x1 DUP1 PUSH1 0xA0 SHL SUB DUP3 MLOAD AND DUP2 MSTORE PUSH1 0x20 DUP3 ADD MLOAD PUSH1 0x20 DUP3 ADD MSTORE PUSH2 0x1492 PUSH1 0x40 DUP4 ADD MLOAD PUSH2 0x1E0 DUP1 PUSH1 0x40 DUP6 ADD MSTORE DUP4 ADD SWAP1 PUSH2 0x1415 JUMP JUMPDEST SWAP2 PUSH1 0x60 DUP2 ADD MLOAD PUSH1 0x60 DUP4 ADD MSTORE PUSH1 0x80 DUP2 ADD MLOAD PUSH1 0x80 DUP4 ADD MSTORE PUSH1 0xA0 DUP2 ADD MLOAD PUSH1 0xA0 DUP4 ADD MSTORE PUSH1 0xC0 DUP2 ADD MLOAD PUSH1 0xC0 DUP4 ADD MSTORE PUSH1 0xE0 DUP2 ADD MLOAD PUSH1 0xE0 DUP4 ADD MSTORE PUSH2 0x100 DUP1 DUP3 ADD MLOAD SWAP1 DUP4 ADD MSTORE PUSH2 0x120 DUP1 DUP3 ADD MLOAD SWAP1 DUP4 ADD MSTORE PUSH2 0x140 DUP1 DUP3 ADD MLOAD SWAP1 DUP4 ADD MSTORE PUSH2 0x14F9 PUSH2 0x160 DUP1 DUP4 ADD MLOAD SWAP1 DUP5 ADD SWAP1 PUSH2 0x1455 JUMP JUMPDEST PUSH2 0x180 PUSH1 0xFF DUP2 DUP4 ADD MLOAD AND SWAP1 DUP4 ADD MSTORE PUSH2 0x1A0 PUSH1 0xFF DUP2 DUP4 ADD MLOAD AND SWAP1 DUP4 ADD MSTORE PUSH2 0x1C0 DUP1 SWAP2 ADD MLOAD ISZERO ISZERO SWAP2 ADD MSTORE SWAP1 JUMP JUMPDEST SWAP1 PUSH1 0x20 PUSH1 0x3 NOT DUP4 ADD SLT PUSH2 0x1D2 JUMPI PUSH1 0x1 PUSH1 0x1 PUSH1 0x40 SHL SUB SWAP2 PUSH1 0x4 CALLDATALOAD SWAP1 DUP4 DUP3 GT PUSH2 0x1D2 JUMPI DUP1 PUSH1 0x23 DUP4 ADD SLT ISZERO PUSH2 0x1D2 JUMPI DUP2 PUSH1 0x4 ADD CALLDATALOAD SWAP4 DUP5 GT PUSH2 0x1D2 JUMPI PUSH1 0x24 DUP5 PUSH1 0x5 SHL DUP4 ADD ADD GT PUSH2 0x1D2 JUMPI PUSH1 0x24 ADD SWAP2 SWAP1 JUMP JUMPDEST SWAP1 PUSH1 0x1 DUP3 DUP2 SHR SWAP3 AND DUP1 ISZERO PUSH2 0x15A1 JUMPI JUMPDEST PUSH1 0x20 DUP4 LT EQ PUSH2 0x158B JUMPI JUMP JUMPDEST PUSH4 0x4E487B71 PUSH1 0xE0 SHL PUSH1 0x0 MSTORE PUSH1 0x22 PUSH1 0x4 MSTORE PUSH1 0x24 PUSH1 0x0 REVERT JUMPDEST SWAP2 PUSH1 0x7F AND SWAP2 PUSH2 0x1580 JUMP JUMPDEST PUSH2 0x1E0 DUP2 ADD SWAP1 DUP2 LT PUSH1 0x1 PUSH1 0x1 PUSH1 0x40 SHL SUB DUP3 GT OR PUSH2 0x9C9 JUMPI PUSH1 0x40 MSTORE JUMP JUMPDEST PUSH1 0x1 PUSH1 0x1 PUSH1 0x40 SHL SUB DUP2 GT PUSH2 0x9C9 JUMPI PUSH1 0x40 MSTORE JUMP JUMPDEST PUSH1 0x1F SWAP1 SWAP2 ADD PUSH1 0x1F NOT AND DUP2 ADD SWAP1 PUSH1 0x1 PUSH1 0x1 PUSH1 0x40 SHL SUB DUP3 GT SWAP1 DUP3 LT OR PUSH2 0x9C9 JUMPI PUSH1 0x40 MSTORE JUMP JUMPDEST SWAP1 PUSH1 0x40 MLOAD SWAP2 DUP3 PUSH1 0x0 DUP3 SLOAD SWAP3 PUSH2 0x1611 DUP5 PUSH2 0x1571 JUMP JUMPDEST SWAP1 DUP2 DUP5 MSTORE PUSH1 0x1 SWAP5 DUP6 DUP2 AND SWAP1 DUP2 PUSH1 0x0 EQ PUSH2 0x1680 JUMPI POP PUSH1 0x1 EQ PUSH2 0x163D JUMPI JUMPDEST POP POP PUSH2 0x163B SWAP3 POP SUB DUP4 PUSH2 0x15DA JUMP JUMPDEST JUMP JUMPDEST SWAP1 SWAP4 SWAP2 POP PUSH1 0x0 MSTORE PUSH1 0x20 SWAP1 DUP2 PUSH1 0x0 KECCAK256 SWAP4 PUSH1 0x0 SWAP2 JUMPDEST DUP2 DUP4 LT PUSH2 0x1668 JUMPI POP POP PUSH2 0x163B SWAP4 POP DUP3 ADD ADD CODESIZE DUP1 PUSH2 0x162D JUMP JUMPDEST DUP6 SLOAD DUP9 DUP5 ADD DUP6 ADD MSTORE SWAP5 DUP6 ADD SWAP5 DUP8 SWAP5 POP SWAP2 DUP4 ADD SWAP2 PUSH2 0x1650 JUMP JUMPDEST SWAP2 POP POP PUSH2 0x163B SWAP5 POP PUSH1 0x20 SWAP3 POP PUSH1 0xFF NOT AND DUP3 DUP5 ADD MSTORE ISZERO ISZERO PUSH1 0x5 SHL DUP3 ADD ADD CODESIZE DUP1 PUSH2 0x162D JUMP JUMPDEST PUSH1 0x4 CALLDATALOAD SWAP1 PUSH1 0x1 PUSH1 0x1 PUSH1 0xA0 SHL SUB DUP3 AND DUP3 SUB PUSH2 0x1D2 JUMPI JUMP JUMPDEST PUSH1 0x40 SWAP2 SWAP5 SWAP4 SWAP3 PUSH1 0x60 DUP3 ADD SWAP6 DUP3 MSTORE PUSH1 0x20 DUP3 ADD MSTORE ADD MSTORE JUMP JUMPDEST SWAP1 DUP2 MLOAD DUP1 DUP3 MSTORE PUSH1 0x20 DUP1 DUP1 SWAP4 ADD SWAP4 ADD SWAP2 PUSH1 0x0 JUMPDEST DUP3 DUP2 LT PUSH2 0x16EF JUMPI POP POP POP POP SWAP1 JUMP JUMPDEST DUP4 MLOAD DUP6 MSTORE SWAP4 DUP2 ADD SWAP4 SWAP3 DUP2 ADD SWAP3 PUSH1 0x1 ADD PUSH2 0x16E1 JUMP JUMPDEST PUSH1 0x1 SLOAD PUSH1 0x1 PUSH1 0x1 PUSH1 0xA0 SHL SUB AND CALLER SUB PUSH2 0x1717 JUMPI JUMP JUMPDEST PUSH1 0x40 MLOAD PUSH4 0x118CDAA7 PUSH1 0xE0 SHL DUP2 MSTORE CALLER PUSH1 0x4 DUP3 ADD MSTORE PUSH1 0x24 SWAP1 REVERT JUMPDEST SWAP2 SWAP1 DUP3 ADD DUP1 SWAP3 GT PUSH2 0x173C JUMPI JUMP JUMPDEST PUSH4 0x4E487B71 PUSH1 0xE0 SHL PUSH1 0x0 MSTORE PUSH1 0x11 PUSH1 0x4 MSTORE PUSH1 0x24 PUSH1 0x0 REVERT JUMPDEST PUSH1 0x0 NOT DUP2 EQ PUSH2 0x173C JUMPI PUSH1 0x1 ADD SWAP1 JUMP JUMPDEST PUSH1 0x1 PUSH1 0x1 PUSH1 0x40 SHL SUB DUP2 GT PUSH2 0x9C9 JUMPI PUSH1 0x1F ADD PUSH1 0x1F NOT AND PUSH1 0x20 ADD SWAP1 JUMP JUMPDEST PUSH1 0x2 DUP3 LT ISZERO PUSH2 0x8F0 JUMPI MSTORE JUMP JUMPDEST SWAP1 PUSH4 0xFF000000 DUP3 SLOAD SWAP2 ISZERO ISZERO PUSH1 0x18 SHL AND SWAP1 PUSH4 0xFF000000 NOT AND OR SWAP1 SSTORE JUMP JUMPDEST DUP1 SLOAD PUSH1 0x1 PUSH1 0x40 SHL DUP2 LT ISZERO PUSH2 0x9C9 JUMPI PUSH2 0x17C1 SWAP2 PUSH1 0x1 DUP3 ADD DUP2 SSTORE PUSH2 0x13CB JUMP JUMPDEST DUP2 SWAP3 SWAP2 SLOAD SWAP1 PUSH1 0x3 SHL SWAP2 DUP3 SHL SWAP2 PUSH1 0x0 NOT SWAP1 SHL NOT AND OR SWAP1 SSTORE JUMP JUMPDEST SWAP1 DUP2 MSTORE PUSH1 0x1 PUSH1 0x1 PUSH1 0xA0 SHL SUB SWAP1 SWAP2 AND PUSH1 0x20 DUP3 ADD MSTORE PUSH1 0x40 DUP2 ADD SWAP2 SWAP1 SWAP2 MSTORE PUSH1 0x60 ADD SWAP1 JUMP JUMPDEST SWAP2 SWAP1 DUP3 SUB SWAP2 DUP3 GT PUSH2 0x173C JUMPI JUMP JUMPDEST RETURNDATASIZE ISZERO PUSH2 0x1832 JUMPI RETURNDATASIZE SWAP1 PUSH2 0x1818 DUP3 PUSH2 0x1761 JUMP JUMPDEST SWAP2 PUSH2 0x1826 PUSH1 0x40 MLOAD SWAP4 DUP5 PUSH2 0x15DA JUMP JUMPDEST DUP3 MSTORE RETURNDATASIZE PUSH1 0x0 PUSH1 0x20 DUP5 ADD RETURNDATACOPY JUMP JUMPDEST PUSH1 0x60 SWAP1 JUMP JUMPDEST PUSH1 0x2 PUSH1 0x0 SLOAD EQ PUSH2 0x1848 JUMPI PUSH1 0x2 PUSH1 0x0 SSTORE JUMP JUMPDEST PUSH1 0x40 MLOAD PUSH4 0x3EE5AEB5 PUSH1 0xE0 SHL DUP2 MSTORE PUSH1 0x4 SWAP1 REVERT JUMPDEST DUP2 DUP2 MUL SWAP3 SWAP2 DUP2 ISZERO SWAP2 DUP5 DIV EQ OR ISZERO PUSH2 0x173C JUMPI JUMP JUMPDEST PUSH1 0xFF SWAP1 PUSH1 0x0 SWAP3 DUP2 DUP5 MSTORE PUSH1 0x6 PUSH1 0x20 MSTORE DUP4 PUSH1 0x40 DUP2 KECCAK256 PUSH2 0x18BD PUSH1 0xB DUP3 ADD SLOAD SWAP4 PUSH2 0x18B8 PUSH1 0x64 PUSH2 0x18AF DUP2 PUSH2 0x18A1 DUP12 DUP11 PUSH1 0x8 SHR AND DUP7 PUSH2 0x185A JUMP JUMPDEST DIV SWAP10 DUP11 SWAP9 PUSH1 0x10 SHR AND DUP5 PUSH2 0x185A JUMP JUMPDEST DIV SWAP8 DUP9 SWAP3 PUSH2 0x17FA JUMP JUMPDEST PUSH2 0x17FA JUMP JUMPDEST DUP1 PUSH2 0x1997 JUMPI JUMPDEST POP POP POP DUP1 PUSH2 0x193A JUMPI JUMPDEST POP DUP2 PUSH2 0x18D7 JUMPI POP POP POP JUMP JUMPDEST PUSH1 0x4 SLOAD PUSH1 0x1 PUSH1 0x1 PUSH1 0xA0 SHL SUB AND SWAP1 DUP2 EXTCODESIZE ISZERO PUSH2 0x1936 JUMPI SWAP1 PUSH1 0x24 DUP5 SWAP3 PUSH1 0x40 MLOAD SWAP5 DUP6 SWAP4 DUP5 SWAP3 PUSH4 0x7C8EFCE3 PUSH1 0xE0 SHL DUP5 MSTORE PUSH1 0x4 DUP5 ADD MSTORE GAS CALL DUP1 ISZERO PUSH2 0x192B JUMPI PUSH2 0x1917 JUMPI POP POP JUMP JUMPDEST PUSH2 0x1921 DUP3 SWAP2 PUSH2 0x15C7 JUMP JUMPDEST PUSH2 0x1928 JUMPI POP JUMP JUMPDEST DUP1 REVERT JUMPDEST PUSH1 0x40 MLOAD RETURNDATASIZE DUP5 DUP3 RETURNDATACOPY RETURNDATASIZE SWAP1 REVERT JUMPDEST DUP4 DUP1 REVERT JUMPDEST PUSH1 0x5 SLOAD PUSH1 0x1 PUSH1 0x1 PUSH1 0xA0 SHL SUB AND DUP1 EXTCODESIZE ISZERO PUSH2 0x1993 JUMPI DUP5 SWAP1 PUSH1 0x24 PUSH1 0x40 MLOAD DUP1 SWAP5 DUP2 SWAP4 PUSH4 0x46955BC7 PUSH1 0xE1 SHL DUP4 MSTORE DUP8 PUSH1 0x4 DUP5 ADD MSTORE GAS CALL DUP1 ISZERO PUSH2 0x1988 JUMPI ISZERO PUSH2 0x18CC JUMPI PUSH2 0x1981 SWAP1 SWAP4 SWAP2 SWAP4 PUSH2 0x15C7 JUMP JUMPDEST SWAP2 CODESIZE PUSH2 0x18CC JUMP JUMPDEST PUSH1 0x40 MLOAD RETURNDATASIZE DUP7 DUP3 RETURNDATACOPY RETURNDATASIZE SWAP1 REVERT JUMPDEST DUP5 DUP1 REVERT JUMPDEST SWAP1 SLOAD DUP3 SWAP2 DUP3 SWAP2 DUP3 SWAP2 SWAP1 PUSH1 0x1 PUSH1 0x1 PUSH1 0xA0 SHL SUB AND GAS CALL PUSH2 0x19B3 PUSH2 0x1807 JUMP JUMPDEST POP ISZERO PUSH2 0x1936 JUMPI DUP4 CODESIZE DUP1 PUSH2 0x18C3 JUMP JUMPDEST PUSH1 0x0 DUP2 DUP2 MSTORE PUSH1 0x6 PUSH1 0x20 MSTORE PUSH1 0x40 DUP1 DUP3 KECCAK256 PUSH1 0xFF PUSH1 0xB DUP3 ADD SLOAD AND PUSH1 0x2 DUP2 LT ISZERO PUSH2 0x1A77 JUMPI ISZERO PUSH2 0x1A70 JUMPI SWAP4 PUSH2 0x1A6A PUSH32 0xC6D3DA45896CE1BCA9D198309A2DBEEA3C73A991748F8D88D796FFA06029DE93 SWAP4 SWAP3 PUSH1 0x8 PUSH2 0x1A5D SWAP8 PUSH2 0x1A1C DUP9 PUSH2 0x1DB8 JUMP JUMPDEST SWAP9 DUP10 SWAP7 DUP8 PUSH1 0x4 DUP5 ADD SSTORE DUP10 DUP2 MSTORE PUSH1 0x9 PUSH1 0x20 MSTORE DUP8 DUP6 DUP3 KECCAK256 SSTORE PUSH1 0xA PUSH1 0x20 MSTORE TIMESTAMP DUP6 DUP3 KECCAK256 SSTORE PUSH1 0x7 PUSH1 0x20 MSTORE PUSH2 0x1A4D DUP9 DUP7 DUP4 KECCAK256 PUSH2 0x17A4 JUMP JUMPDEST DUP10 DUP2 MSTORE DUP4 PUSH1 0x20 MSTORE DUP5 TIMESTAMP SWAP2 KECCAK256 PUSH2 0x17A4 JUMP JUMPDEST ADD SLOAD SWAP1 MLOAD SWAP4 DUP5 SWAP4 DUP5 PUSH2 0x16B9 JUMP JUMPDEST SUB SWAP1 LOG2 SWAP1 JUMP JUMPDEST POP POP POP POP SWAP1 JUMP JUMPDEST PUSH4 0x4E487B71 PUSH1 0xE0 SHL DUP5 MSTORE PUSH1 0x21 PUSH1 0x4 MSTORE PUSH1 0x24 DUP5 REVERT JUMPDEST PUSH1 0x1 PUSH1 0x1 PUSH1 0x40 SHL SUB DUP2 GT PUSH2 0x9C9 JUMPI PUSH1 0x5 SHL PUSH1 0x20 ADD SWAP1 JUMP JUMPDEST SWAP1 PUSH2 0x1AAC DUP3 PUSH2 0x1A8B JUMP JUMPDEST PUSH2 0x1AB9 PUSH1 0x40 MLOAD SWAP2 DUP3 PUSH2 0x15DA JUMP JUMPDEST DUP3 DUP2 MSTORE DUP1 SWAP3 PUSH2 0x1ACA PUSH1 0x1F NOT SWAP2 PUSH2 0x1A8B JUMP JUMPDEST ADD SWAP1 PUSH1 0x20 CALLDATASIZE SWAP2 ADD CALLDATACOPY JUMP JUMPDEST SWAP2 SWAP1 DUP2 LT ISZERO PUSH2 0x13E3 JUMPI PUSH1 0x5 SHL ADD SWAP1 JUMP JUMPDEST DUP1 MLOAD DUP3 LT ISZERO PUSH2 0x13E3 JUMPI PUSH1 0x20 SWAP2 PUSH1 0x5 SHL ADD ADD SWAP1 JUMP JUMPDEST DUP1 ISZERO ISZERO DUP1 PUSH2 0x1B12 JUMPI JUMPDEST ISZERO PUSH2 0x1D2 JUMPI PUSH2 0x1B0F SWAP1 PUSH2 0x1B1E JUMP JUMPDEST SWAP1 JUMP JUMPDEST POP PUSH1 0x2 SLOAD DUP2 GT ISZERO PUSH2 0x1B01 JUMP JUMPDEST PUSH1 0x0 SWAP1 DUP1 DUP3 MSTORE PUSH1 0x6 PUSH1 0x20 MSTORE PUSH1 0x40 SWAP2 DUP3 DUP2 KECCAK256 SWAP3 DUP1 MLOAD SWAP1 PUSH2 0x1B3C DUP3 PUSH2 0x15AB JUMP JUMPDEST DUP5 SLOAD PUSH1 0x1 PUSH1 0x1 PUSH1 0xA0 SHL SUB AND DUP3 MSTORE PUSH1 0x1 DUP6 ADD SLOAD PUSH1 0x20 DUP4 ADD MSTORE PUSH2 0x1B5F PUSH1 0x2 DUP7 ADD PUSH2 0x15FD JUMP JUMPDEST DUP2 DUP4 ADD MSTORE PUSH1 0x3 DUP6 ADD SLOAD PUSH1 0x60 DUP4 ADD MSTORE PUSH1 0xB PUSH1 0x4 DUP7 ADD SLOAD SWAP6 PUSH1 0x80 DUP5 ADD SWAP7 DUP8 MSTORE PUSH1 0x5 DUP2 ADD SLOAD PUSH1 0xA0 DUP6 ADD MSTORE PUSH1 0x6 DUP2 ADD SLOAD PUSH1 0xC0 DUP6 ADD MSTORE PUSH1 0x7 DUP2 ADD SLOAD PUSH1 0xE0 DUP6 ADD MSTORE PUSH1 0x8 DUP2 ADD SLOAD PUSH2 0x100 DUP6 ADD MSTORE PUSH1 0x9 DUP2 ADD SLOAD PUSH2 0x120 DUP6 ADD MSTORE PUSH1 0xA DUP2 ADD SLOAD PUSH2 0x140 DUP6 ADD MSTORE ADD SLOAD SWAP2 PUSH2 0x1C0 PUSH1 0xFF PUSH2 0x160 DUP4 ADD SWAP5 PUSH2 0x1BD5 DUP3 DUP3 AND DUP8 PUSH2 0x177C JUMP JUMPDEST DUP2 DUP2 PUSH1 0x8 SHR AND PUSH2 0x180 DUP6 ADD MSTORE DUP2 DUP2 PUSH1 0x10 SHR AND PUSH2 0x1A0 DUP6 ADD MSTORE PUSH1 0x18 SHR AND ISZERO ISZERO SWAP2 ADD MSTORE DUP2 MLOAD PUSH1 0x2 DUP2 LT ISZERO PUSH2 0x1A77 JUMPI PUSH1 0x1 EQ DUP1 PUSH2 0x1C78 JUMPI JUMPDEST DUP1 PUSH2 0x1C59 JUMPI JUMPDEST PUSH2 0x1C49 JUMPI POP MLOAD SWAP1 PUSH1 0x2 DUP3 LT ISZERO PUSH2 0x1C35 JUMPI POP ISZERO PUSH2 0x1C30 JUMPI PUSH2 0x1B0F SWAP2 POP PUSH2 0x1DB8 JUMP JUMPDEST POP MLOAD SWAP1 JUMP JUMPDEST PUSH4 0x4E487B71 PUSH1 0xE0 SHL DUP2 MSTORE PUSH1 0x21 PUSH1 0x4 MSTORE PUSH1 0x24 SWAP1 REVERT JUMPDEST SWAP4 POP POP SWAP1 DUP2 MSTORE PUSH1 0x9 PUSH1 0x20 MSTORE KECCAK256 SLOAD SWAP1 JUMP JUMPDEST POP DUP4 DUP4 MSTORE PUSH1 0xA PUSH1 0x20 MSTORE PUSH2 0x12C PUSH2 0x1C72 DUP3 DUP6 KECCAK256 SLOAD TIMESTAMP PUSH2 0x17FA JUMP JUMPDEST LT PUSH2 0x1C10 JUMP JUMPDEST POP DUP4 DUP4 MSTORE PUSH1 0xA PUSH1 0x20 MSTORE DUP1 DUP4 KECCAK256 SLOAD ISZERO ISZERO PUSH2 0x1C0A JUMP JUMPDEST SWAP1 PUSH1 0x20 PUSH32 0x70D73D81E52A2DCA11D75C71D0F5006DFEE7A734C401A87C32F0939F26461AEE SWAP2 PUSH1 0x0 DUP5 DUP2 MSTORE PUSH1 0x6 DUP4 MSTORE PUSH2 0x1CCA DUP3 PUSH1 0xB PUSH1 0x40 DUP5 KECCAK256 ADD PUSH2 0x1788 JUMP JUMPDEST PUSH1 0x9 DUP4 MSTORE PUSH1 0x40 DUP2 KECCAK256 DUP1 SLOAD PUSH2 0x1CE6 JUMPI JUMPDEST POP POP PUSH1 0x40 MLOAD SWAP1 ISZERO ISZERO DUP2 MSTORE LOG2 JUMP JUMPDEST DUP2 SWAP1 SSTORE PUSH1 0xA DUP4 MSTORE PUSH1 0x40 DUP2 KECCAK256 SSTORE CODESIZE DUP1 PUSH2 0x1CD9 JUMP JUMPDEST PUSH1 0x40 MLOAD SWAP1 PUSH2 0x1D06 DUP3 PUSH2 0x15AB JUMP JUMPDEST DUP2 PUSH2 0x1C0 PUSH1 0x0 SWAP2 DUP3 DUP2 MSTORE DUP3 PUSH1 0x20 DUP3 ADD MSTORE PUSH1 0x60 PUSH1 0x40 DUP3 ADD MSTORE DUP3 PUSH1 0x60 DUP3 ADD MSTORE DUP3 PUSH1 0x80 DUP3 ADD MSTORE DUP3 PUSH1 0xA0 DUP3 ADD MSTORE DUP3 PUSH1 0xC0 DUP3 ADD MSTORE DUP3 PUSH1 0xE0 DUP3 ADD MSTORE DUP3 PUSH2 0x100 DUP3 ADD MSTORE DUP3 PUSH2 0x120 DUP3 ADD MSTORE DUP3 PUSH2 0x140 DUP3 ADD MSTORE DUP3 PUSH2 0x160 DUP3 ADD MSTORE DUP3 PUSH2 0x180 DUP3 ADD MSTORE DUP3 PUSH2 0x1A0 DUP3 ADD MSTORE ADD MSTORE JUMP JUMPDEST SWAP1 PUSH1 0x40 MLOAD SWAP2 DUP3 DUP2 SLOAD SWAP2 DUP3 DUP3 MSTORE PUSH1 0x20 SWAP3 DUP4 DUP4 ADD SWAP2 PUSH1 0x0 MSTORE DUP4 PUSH1 0x0 KECCAK256 SWAP4 PUSH1 0x0 SWAP1 JUMPDEST DUP3 DUP3 LT PUSH2 0x1D9E JUMPI POP POP POP PUSH2 0x163B SWAP3 POP SUB DUP4 PUSH2 0x15DA JUMP JUMPDEST DUP6 SLOAD DUP5 MSTORE PUSH1 0x1 SWAP6 DUP7 ADD SWAP6 DUP9 SWAP6 POP SWAP4 DUP2 ADD SWAP4 SWAP1 SWAP2 ADD SWAP1 PUSH2 0x1D88 JUMP JUMPDEST PUSH1 0x0 MSTORE PUSH1 0x6 PUSH1 0x20 MSTORE PUSH1 0x40 PUSH1 0x0 KECCAK256 PUSH1 0x40 MLOAD PUSH2 0x1DD1 DUP2 PUSH2 0x15AB JUMP JUMPDEST DUP2 SLOAD PUSH1 0x1 PUSH1 0x1 PUSH1 0xA0 SHL SUB AND DUP2 MSTORE PUSH1 0x1 DUP3 ADD SLOAD PUSH1 0x20 DUP3 ADD MSTORE PUSH2 0x1DF4 PUSH1 0x2 DUP4 ADD PUSH2 0x15FD JUMP JUMPDEST PUSH1 0x40 DUP3 ADD MSTORE PUSH1 0x3 DUP3 ADD SLOAD PUSH1 0x60 DUP3 ADD MSTORE PUSH1 0xB PUSH1 0x4 DUP4 ADD SLOAD SWAP3 PUSH1 0x80 DUP4 ADD SWAP4 DUP5 MSTORE PUSH1 0x5 DUP2 ADD SLOAD PUSH1 0xA0 DUP5 ADD MSTORE PUSH1 0x6 DUP2 ADD SLOAD PUSH1 0xC0 DUP5 ADD MSTORE PUSH1 0x7 DUP2 ADD SLOAD PUSH1 0xE0 DUP5 ADD MSTORE PUSH1 0x8 DUP2 ADD SLOAD PUSH2 0x100 DUP5 ADD MSTORE PUSH1 0x9 DUP2 ADD SLOAD PUSH2 0x120 DUP5 ADD MSTORE PUSH1 0xA DUP2 ADD SLOAD PUSH2 0x140 DUP5 ADD MSTORE ADD SLOAD PUSH1 0xFF PUSH2 0x160 DUP4 ADD SWAP2 PUSH2 0x1E67 DUP3 DUP3 AND DUP5 PUSH2 0x177C JUMP JUMPDEST DUP2 DUP2 PUSH1 0x8 SHR AND PUSH2 0x180 DUP6 ADD MSTORE DUP2 DUP2 PUSH1 0x10 SHR AND PUSH2 0x1A0 DUP6 ADD MSTORE PUSH1 0x18 SHR AND ISZERO ISZERO PUSH2 0x1C0 DUP4 ADD MSTORE MLOAD PUSH1 0x2 DUP2 LT ISZERO PUSH2 0x8F0 JUMPI ISZERO PUSH2 0x1C30 JUMPI PUSH2 0x1B0F SWAP2 POP PUSH1 0x60 DUP2 ADD DUP1 MLOAD SWAP1 PUSH1 0xC0 PUSH2 0x1EC7 PUSH2 0x100 DUP6 ADD SWAP4 PUSH2 0x1EC1 DUP6 MLOAD PUSH1 0xA0 DUP9 ADD MLOAD SWAP1 PUSH2 0x185A JUMP JUMPDEST SWAP1 PUSH2 0x172F JUMP JUMPDEST SWAP4 ADD MLOAD SWAP1 PUSH1 0x64 DUP3 GT DUP1 ISZERO SWAP1 PUSH2 0x1F21 JUMPI JUMPDEST PUSH2 0x1F1B JUMPI PUSH2 0x1EEC PUSH2 0x1F00 SWAP3 PUSH1 0x64 SWAP5 MLOAD SWAP1 PUSH2 0x1F2A JUMP JUMPDEST SWAP1 PUSH3 0x186A0 DUP1 DUP4 GT PUSH2 0x1F13 JUMPI JUMPDEST POP MLOAD PUSH2 0x185A JUMP JUMPDEST DIV SWAP1 DUP1 DUP3 GT ISZERO PUSH2 0x1F0E JUMPI POP SWAP1 JUMP JUMPDEST SWAP1 POP SWAP1 JUMP JUMPDEST SWAP2 POP CODESIZE PUSH2 0x1EF9 JUMP JUMPDEST POP POP POP SWAP1 JUMP JUMPDEST POP DUP3 MLOAD ISZERO PUSH2 0x1ED7 JUMP JUMPDEST SWAP1 DUP1 ISZERO PUSH2 0x1FCB JUMPI PUSH1 0x1 DUP1 DUP3 EQ PUSH2 0x1FC6 JUMPI PUSH1 0x64 DUP1 SWAP4 DUP4 JUMPDEST PUSH2 0x1F4B JUMPI POP POP POP POP SWAP1 JUMP JUMPDEST DUP3 DUP1 DUP6 AND EQ PUSH2 0x1F96 JUMPI JUMPDEST DUP1 ISZERO PUSH2 0x1F81 JUMPI DUP1 PUSH1 0x0 NOT DIV DUP2 GT PUSH2 0x1F7C JUMPI PUSH2 0x1F71 DUP2 DUP4 SWAP3 PUSH2 0x185A JUMP JUMPDEST DIV SWAP3 DUP3 SHR SWAP3 DUP4 PUSH2 0x1F40 JUMP JUMPDEST PUSH2 0x1A70 JUMP JUMPDEST PUSH1 0x24 PUSH1 0x0 PUSH4 0x4E487B71 PUSH1 0xE0 SHL DUP2 MSTORE PUSH1 0x12 PUSH1 0x4 MSTORE REVERT JUMPDEST SWAP4 DUP5 ISZERO PUSH2 0x1F81 JUMPI DUP5 PUSH1 0x0 NOT DIV DUP2 GT PUSH2 0x1FBA JUMPI PUSH2 0x1FB3 DUP6 DUP4 SWAP3 PUSH2 0x185A JUMP JUMPDEST DIV SWAP4 PUSH2 0x1F55 JUMP JUMPDEST POP POP POP POP POP PUSH3 0x186A0 SWAP1 JUMP JUMPDEST POP POP SWAP1 JUMP JUMPDEST POP POP PUSH1 0x64 SWAP1 JUMP INVALID DUP12 0xE0 SMOD SWAP13 MSTORE8 AND MSIZE EQ SGT PREVRANDAO 0xCD 0x1F 0xD0 LOG4 CALLCODE DUP5 NOT 0x49 PUSH32 0x9722A3DAAFE3B4186F6B6457E03C643B89A81273A1160FC920ED10CA2ABA86A4 SIGNEXTEND PC 0xB3 SUB SUB 0xEF SELFDESTRUCT 0xE8 DUP7 PUSH21 0x4CB758000000000000000000000000000000000000 "},"methodIdentifiers":{"deployWeb3TorrentSystem()":"547befb7","validateDeployment(address,address,address,address)":"0a454a01"}}}}}