{"contracts/Web3TorrentCore.sol":{"Web3TorrentCore":{"abi":[{"inputs":[],"stateMutability":"nonpayable","type":"constructor"},{"inputs":[{"internalType":"address","name":"owner","type":"address"}],"name":"OwnableInvalidOwner","type":"error"},{"inputs":[{"internalType":"address","name":"account","type":"address"}],"name":"OwnableUnauthorizedAccount","type":"error"},{"inputs":[],"name":"ReentrancyGuardReentrantCall","type":"error"},{"anonymous":false,"inputs":[{"indexed":false,"internalType":"uint256[]","name":"contentIds","type":"uint256[]"},{"indexed":true,"internalType":"address","name":"distributor","type":"address"},{"indexed":false,"internalType":"uint256","name":"totalCost","type":"uint256"}],"name":"BatchLicensesPurchased","type":"event"},{"anonymous":false,"inputs":[{"indexed":true,"internalType":"uint256","name":"contentId","type":"uint256"},{"indexed":true,"internalType":"address","name":"publisher","type":"address"},{"indexed":false,"internalType":"bytes32","name":"magnetHash","type":"bytes32"},{"indexed":false,"internalType":"enum IWeb3TorrentCore.PricingModel","name":"pricingModel","type":"uint8"},{"indexed":false,"internalType":"uint256","name":"basePrice","type":"uint256"},{"indexed":false,"internalType":"uint256","name":"priceIncrement","type":"uint256"}],"name":"ContentPublished","type":"event"},{"anonymous":false,"inputs":[{"indexed":true,"internalType":"uint256","name":"contentId","type":"uint256"},{"indexed":false,"internalType":"bool","name":"isActive","type":"bool"}],"name":"ContentUpdated","type":"event"},{"anonymous":false,"inputs":[{"indexed":true,"internalType":"uint256","name":"contentId","type":"uint256"},{"indexed":true,"internalType":"address","name":"distributor","type":"address"},{"indexed":false,"internalType":"uint256","name":"price","type":"uint256"},{"indexed":false,"internalType":"uint256","name":"newPrice","type":"uint256"},{"indexed":false,"internalType":"uint256","name":"totalLicenses","type":"uint256"}],"name":"LicensePurchased","type":"event"},{"anonymous":false,"inputs":[{"indexed":true,"internalType":"address","name":"previousOwner","type":"address"},{"indexed":true,"internalType":"address","name":"newOwner","type":"address"}],"name":"OwnershipTransferred","type":"event"},{"anonymous":false,"inputs":[{"indexed":true,"internalType":"uint256","name":"contentId","type":"uint256"},{"indexed":false,"internalType":"uint256","name":"oldPrice","type":"uint256"},{"indexed":false,"internalType":"uint256","name":"newPrice","type":"uint256"},{"indexed":false,"internalType":"uint256","name":"totalLicenses","type":"uint256"}],"name":"PriceUpdated","type":"event"},{"inputs":[],"name":"MAX_FEE_PERCENTAGE","outputs":[{"internalType":"uint256","name":"","type":"uint256"}],"stateMutability":"view","type":"function"},{"inputs":[],"name":"MAX_MULTIPLIER_EFFECT","outputs":[{"internalType":"uint256","name":"","type":"uint256"}],"stateMutability":"view","type":"function"},{"inputs":[],"name":"MIN_DEMAND_MULTIPLIER","outputs":[{"internalType":"uint256","name":"","type":"uint256"}],"stateMutability":"view","type":"function"},{"inputs":[],"name":"PRICE_CACHE_DURATION","outputs":[{"internalType":"uint256","name":"","type":"uint256"}],"stateMutability":"view","type":"function"},{"inputs":[],"name":"bountyManager","outputs":[{"internalType":"contract BountyManager","name":"","type":"address"}],"stateMutability":"view","type":"function"},{"inputs":[{"internalType":"uint256","name":"contentId","type":"uint256"}],"name":"clearPriceCache","outputs":[],"stateMutability":"nonpayable","type":"function"},{"inputs":[],"name":"contentCounter","outputs":[{"internalType":"uint256","name":"","type":"uint256"}],"stateMutability":"view","type":"function"},{"inputs":[{"internalType":"uint256","name":"","type":"uint256"}],"name":"contents","outputs":[{"internalType":"address","name":"publisher","type":"address"},{"internalType":"bytes32","name":"magnetHash","type":"bytes32"},{"internalType":"string","name":"metadataURI","type":"string"},{"internalType":"uint256","name":"basePrice","type":"uint256"},{"internalType":"uint256","name":"currentPrice","type":"uint256"},{"internalType":"uint256","name":"priceIncrement","type":"uint256"},{"internalType":"uint256","name":"demandMultiplier","type":"uint256"},{"internalType":"uint256","name":"publishTimestamp","type":"uint256"},{"internalType":"uint256","name":"totalLicenses","type":"uint256"},{"internalType":"uint256","name":"totalRevenue","type":"uint256"},{"internalType":"uint256","name":"lastPurchaseTimestamp","type":"uint256"},{"internalType":"enum IWeb3TorrentCore.PricingModel","name":"pricingModel","type":"uint8"},{"internalType":"uint8","name":"networkFeePercentage","type":"uint8"},{"internalType":"uint8","name":"bountyPercentage","type":"uint8"},{"internalType":"bool","name":"isActive","type":"bool"}],"stateMutability":"view","type":"function"},{"inputs":[{"internalType":"uint256","name":"contentId","type":"uint256"},{"internalType":"bool","name":"isActive","type":"bool"}],"name":"emergencyToggleContent","outputs":[],"stateMutability":"nonpayable","type":"function"},{"inputs":[],"name":"emergencyWithdraw","outputs":[],"stateMutability":"nonpayable","type":"function"},{"inputs":[{"internalType":"uint256","name":"contentId","type":"uint256"}],"name":"getContentInfo","outputs":[{"components":[{"internalType":"address","name":"publisher","type":"address"},{"internalType":"bytes32","name":"magnetHash","type":"bytes32"},{"internalType":"string","name":"metadataURI","type":"string"},{"internalType":"uint256","name":"basePrice","type":"uint256"},{"internalType":"uint256","name":"currentPrice","type":"uint256"},{"internalType":"uint256","name":"priceIncrement","type":"uint256"},{"internalType":"uint256","name":"demandMultiplier","type":"uint256"},{"internalType":"uint256","name":"publishTimestamp","type":"uint256"},{"internalType":"uint256","name":"totalLicenses","type":"uint256"},{"internalType":"uint256","name":"totalRevenue","type":"uint256"},{"internalType":"uint256","name":"lastPurchaseTimestamp","type":"uint256"},{"internalType":"enum IWeb3TorrentCore.PricingModel","name":"pricingModel","type":"uint8"},{"internalType":"uint8","name":"networkFeePercentage","type":"uint8"},{"internalType":"uint8","name":"bountyPercentage","type":"uint8"},{"internalType":"bool","name":"isActive","type":"bool"}],"internalType":"struct IWeb3TorrentCore.ContentInfo","name":"","type":"tuple"}],"stateMutability":"view","type":"function"},{"inputs":[],"name":"getContractStats","outputs":[{"internalType":"uint256","name":"totalContent","type":"uint256"},{"internalType":"uint256","name":"totalRevenue","type":"uint256"},{"internalType":"uint256","name":"activeContent","type":"uint256"}],"stateMutability":"view","type":"function"},{"inputs":[{"internalType":"uint256","name":"contentId","type":"uint256"}],"name":"getCurrentPrice","outputs":[{"internalType":"uint256","name":"","type":"uint256"}],"stateMutability":"view","type":"function"},{"inputs":[{"internalType":"uint256[]","name":"contentIds","type":"uint256[]"}],"name":"getMultipleContentInfo","outputs":[{"components":[{"internalType":"address","name":"publisher","type":"address"},{"internalType":"bytes32","name":"magnetHash","type":"bytes32"},{"internalType":"string","name":"metadataURI","type":"string"},{"internalType":"uint256","name":"basePrice","type":"uint256"},{"internalType":"uint256","name":"currentPrice","type":"uint256"},{"internalType":"uint256","name":"priceIncrement","type":"uint256"},{"internalType":"uint256","name":"demandMultiplier","type":"uint256"},{"internalType":"uint256","name":"publishTimestamp","type":"uint256"},{"internalType":"uint256","name":"totalLicenses","type":"uint256"},{"internalType":"uint256","name":"totalRevenue","type":"uint256"},{"internalType":"uint256","name":"lastPurchaseTimestamp","type":"uint256"},{"internalType":"enum IWeb3TorrentCore.PricingModel","name":"pricingModel","type":"uint8"},{"internalType":"uint8","name":"networkFeePercentage","type":"uint8"},{"internalType":"uint8","name":"bountyPercentage","type":"uint8"},{"internalType":"bool","name":"isActive","type":"bool"}],"internalType":"struct IWeb3TorrentCore.ContentInfo[]","name":"","type":"tuple[]"}],"stateMutability":"view","type":"function"},{"inputs":[{"internalType":"uint256[]","name":"contentIds","type":"uint256[]"}],"name":"getMultiplePrices","outputs":[{"internalType":"uint256[]","name":"","type":"uint256[]"}],"stateMutability":"view","type":"function"},{"inputs":[{"internalType":"uint256","name":"contentId","type":"uint256"}],"name":"getPriceHistory","outputs":[{"internalType":"uint256[]","name":"prices","type":"uint256[]"},{"internalType":"uint256[]","name":"timestamps","type":"uint256[]"}],"stateMutability":"view","type":"function"},{"inputs":[{"internalType":"address","name":"_licenseRegistry","type":"address"},{"internalType":"address","name":"_bountyManager","type":"address"},{"internalType":"address","name":"_networkRebates","type":"address"}],"name":"initialize","outputs":[],"stateMutability":"nonpayable","type":"function"},{"inputs":[],"name":"licenseRegistry","outputs":[{"internalType":"contract LicenseRegistry","name":"","type":"address"}],"stateMutability":"view","type":"function"},{"inputs":[],"name":"networkRebates","outputs":[{"internalType":"contract NetworkRebates","name":"","type":"address"}],"stateMutability":"view","type":"function"},{"inputs":[],"name":"owner","outputs":[{"internalType":"address","name":"","type":"address"}],"stateMutability":"view","type":"function"},{"inputs":[{"internalType":"uint256","name":"","type":"uint256"},{"internalType":"uint256","name":"","type":"uint256"}],"name":"priceHistory","outputs":[{"internalType":"uint256","name":"","type":"uint256"}],"stateMutability":"view","type":"function"},{"inputs":[{"internalType":"uint256","name":"","type":"uint256"},{"internalType":"uint256","name":"","type":"uint256"}],"name":"priceTimestamps","outputs":[{"internalType":"uint256","name":"","type":"uint256"}],"stateMutability":"view","type":"function"},{"inputs":[{"internalType":"bytes32","name":"magnetHash","type":"bytes32"},{"internalType":"string","name":"metadataURI","type":"string"},{"internalType":"enum IWeb3TorrentCore.PricingModel","name":"pricingModel","type":"uint8"},{"internalType":"uint256","name":"basePrice","type":"uint256"},{"internalType":"uint256","name":"priceIncrement","type":"uint256"},{"internalType":"uint256","name":"demandMultiplier","type":"uint256"},{"internalType":"uint256","name":"networkFeePercentage","type":"uint256"},{"internalType":"uint256","name":"bountyPercentage","type":"uint256"}],"name":"publishContent","outputs":[{"internalType":"uint256","name":"","type":"uint256"}],"stateMutability":"nonpayable","type":"function"},{"inputs":[{"internalType":"uint256","name":"contentId","type":"uint256"}],"name":"purchaseLicense","outputs":[],"stateMutability":"payable","type":"function"},{"inputs":[{"internalType":"uint256[]","name":"contentIds","type":"uint256[]"}],"name":"purchaseMultipleLicenses","outputs":[],"stateMutability":"payable","type":"function"},{"inputs":[],"name":"renounceOwnership","outputs":[],"stateMutability":"nonpayable","type":"function"},{"inputs":[{"internalType":"address","name":"newOwner","type":"address"}],"name":"transferOwnership","outputs":[],"stateMutability":"nonpayable","type":"function"},{"inputs":[{"internalType":"uint256","name":"contentId","type":"uint256"},{"internalType":"bool","name":"isActive","type":"bool"}],"name":"updateContent","outputs":[],"stateMutability":"nonpayable","type":"function"},{"inputs":[{"internalType":"uint256","name":"newPercentage","type":"uint256"}],"name":"updateDefaultBountyPercentage","outputs":[],"stateMutability":"view","type":"function"}],"evm":{"bytecode":{"linkReferences":{},"object":"60808060405234610084576001600055331561006e5760018054336001600160a01b03198216811790925560405191906001600160a01b03167f8be0079c531659141344cd1fd0a4f28419497f9722a3daafe3b4186f6b6457e0600080a36000600255612013908161008a8239f35b631e4fbdf760e01b815260006004820152602490fd5b600080fdfe6080604052600436101561001257600080fd5b60003560e01c806326bfde7514611347578063482f20a6146113165780634c24c2c8146112f05780634ff14874146112ce578063539f51db146112d3578063558e44d3146112ce578063715018a6146112835780637509c330146111665780638da5cb5b1461113d578063a7a512f814611114578063a9f5c95314610ebd578063ae81372914610e82578063b36b9ffd14610e59578063b5ecf91214610d5f578063c0c53b8b14610cde578063c2fda48714610cb5578063c55d0f5614610c8f578063c8a028a814610b2b578063d0272f9b14610b0d578063d0feffb014610ace578063d62182f714610a4b578063db2e21bc146109f7578063dc19ea0e146105ae578063dfe6b5d61461051e578063e6a9aba314610500578063f00084fb146102fd578063f2fde38b14610287578063f8b688f5146101e35763fd1a98a51461015b57600080fd5b346101d25760203660031901126101d257600435801515806101d7575b156101d25760005260076020526101c0604060002060086020526101ce6101ac6101a6604060002093611d69565b92611d69565b6040519384936040855260408501906116cf565b9083820360208501526116cf565b0390f35b600080fd5b50600254811115610178565b346101d2576101f136611524565b9081156101d257606482116101d25761020982611aa2565b9060005b83811061022a57604051602080825281906101ce908201866116cf565b610235818584611ad4565b35151580610270575b156101d2578061025b61025561026b938786611ad4565b35611af8565b6102658286611ae4565b52611752565b61020d565b5061027c818584611ad4565b35600254101561023e565b346101d25760203660031901126101d2576102a06116a3565b6102a8611703565b6001600160a01b039081169081156102e457600180546001600160a01b03198116841790915516600080516020611fd3833981519152600080a3005b604051631e4fbdf760e01b815260006004820152602490fd5b346101d25761030b36611524565b9081156101d257606482116101d25761032382611a8b565b9161033160405193846115da565b808352601f1961034082611a8b565b0160005b8181106104e957505060005b8181106103b6576040805160208082528651818301819052600093600582901b8401810192808a01929185015b82871061038a5785850386f35b9091929382806103a6600193603f198a82030186528851611462565b960192019601959291909261037d565b6103c1818385611ad4565b351515806104d2575b156101d257806103de6104cd928486611ad4565b356000526006602090808252604060002090604051926103fd846115ab565b82546001600160a01b0316845260018301549084015261041f600283016115fd565b60408401526003820154606084015260048201546080840152600582015460a084015281015460c0830152600781015460e0830152600b600891828101546101008501526009810154610120850152600a8101546101408501520154809160ff928391610492838316610160880161177c565b1c16610180840152818160101c166101a084015260181c1615156101c08201526104bc8287611ae4565b526104c78186611ae4565b50611752565b610350565b506104de818385611ad4565b3560025410156103ca565b6020906104f4611cf9565b82828801015201610344565b346101d25760003660031901126101d2576020600254604051908152f35b346101d25760003660031901126101d257600254600090600060015b8281111561055357506101ce90604051938493846116b9565b8060005260066105716020958287526009604060002001549061172f565b94826000525260ff600b6040600020015460181c16610599575b61059490611752565b61053a565b906105a661059491611752565b91905061058b565b346101d2576101003660031901126101d2576001600160401b03602435116101d2573660236024350112156101d2576001600160401b0360046024350135116101d25736602480356004013581350101116101d257600260443510156101d257606460c435116101d257606460e435116101d257606461063260e43560c43561172f565b116101d257606435156101d257600435156101d25760243560040135156101d2576001604435146109df575b610669600254611752565b80600255604051610679816115ab565b338152600435602082015261069360243560040135611761565b6106a060405191826115da565b6024803560048101358084529101602083013760006020602435600401358301015260408201526064356060820152606435608082015260843560a082015260a43560c08201524260e0820152600061010082015260006101208201526000610140820152610715604435610160830161177c565b60ff60c4351661018082015260ff60e435166101a082015260016101c082015281600052600660205260406000209160018060a01b0382511660018060a01b031984541617835560208201516001840155604082015192835160018060401b0381116109c9576107886002830154611571565b601f8111610982575b506020601f8211600114610911578190600b949596600092610906575b50508160011b916000199060031b1c19161760028201555b606084015160038201556080840151600482015560a0840151600582015560c0840151600682015560e0840151600782015561010084015160088201556101208401516009820155610140840151600a82015501916101608101519260028410156108f0576101c061086d92602095835461ff0061018084015160081b169060ff62ff00006101a086015160101b1693169062ffffff191617171783550151151590611788565b806000526007825261088560643560406000206117a4565b806000526008825261089b4260406000206117a4565b60405160043581526108b1838201604435611455565b60643560408201526084356060820152817f505543113d9d1a281874815cee76fc95d191d999c006617d2c176495cb948b5860803393a3604051908152f35b634e487b7160e01b600052602160045260246000fd5b0151905086806107ae565b601f198216956002840160005260206000209660005b81811061096a575091600b95969791846001959410610951575b505050811b0160028201556107c6565b015160001960f88460031b161c19169055868080610941565b83830151895560019098019760209384019301610927565b600283016000526020600020601f830160051c8101602084106109c2575b601f830160051c820181106109b6575050610791565b600081556001016109a0565b50806109a0565b634e487b7160e01b600052604160045260246000fd5b608435156101d257606460a435101561065e57600080fd5b346101d25760003660031901126101d257610a10611703565b610a18611837565b4780156101d2576001546000918291829182916001600160a01b03165af1610a3e611807565b50156101d2576001600055005b346101d25760203660031901126101d25760043580151580610ac2575b156101d257600090815260066020526040902054336001600160a01b0391821614908115610ab4575b50156101d257600960205260006040812055600a60205260006040812055600080f35b905060015416331481610a91565b50600254811115610a68565b346101d257610adc366113b5565b906000526008602052604060002080548210156101d257602091610aff916113cb565b90546040519160031b1c8152f35b346101d25760003660031901126101d2576020604051620186a08152f35b60203660031901126101d25760043580151580610c83575b156101d25780600052600660205260ff600b6040600020015460181c16156101d257610b6d611837565b806000526006602052604060002090610b8581611af8565b918234106101d257610b97838361186d565b6008810190610ba68254611752565b825560098101610bb785825461172f565b9055600a42910155610bc983836119c1565b6003546001600160a01b0316803b156101d25760006040518092630686108d60e01b8252818381610bff8b338c600485016117d9565b03925af18015610c7757610c68575b50833411610c44575b600080516020611ff3833981519152915490610c3a6040519283923397846116b9565b0390a36001600055005b6000808080610c5388346117fa565b335af1610c5e611807565b50610c1757600080fd5b610c71906115c7565b84610c0e565b6040513d6000823e3d90fd5b50600254811115610b43565b346101d25760203660031901126101d2576020610cad600435611af8565b604051908152f35b346101d25760003660031901126101d2576003546040516001600160a01b039091168152602090f35b346101d25760603660031901126101d257610cf76116a3565b6024356001600160a01b03818116918290036101d257604435928184168094036101d257610d23611703565b169081156101d25780156101d25782156101d25760018060a01b0319918260035416176003558160045416176004556005541617600555600080f35b346101d25760203660031901126101d25760043560005260066020526020604060002060018060a01b038154169060ff6001820154610da0600284016115fd565b92600381015493600482015460058301546006840154600785015491600886015493610df5600988015496600b600a8a0154990154996040519e8f9e8f908152015260408d6101e091829101528d0190611415565b9960608c015260808b015260a08a015260c089015260e0880152610100870152610120860152610140850152610e316101608501838316611455565b818160081c16610180850152818160101c166101a085015260181c1615156101c08301520390f35b346101d25760003660031901126101d2576004546040516001600160a01b039091168152602090f35b346101d257610e9036611396565b610e98611703565b81151580610eb1575b156101d257610eaf91611c8c565b005b50600254821115610ea1565b610ec636611524565b610ece611837565b80156101d257603281116101d2576000610ee782611aa2565b60005b83811061107f57508134106101d25760005b838110610f90575050803411610f6c575b60408051818152908101839052906001600160fb1b0383116101d2577fa25f24536407b63286bdae6707ed3e860288bb5f5c648de7dd6dab214485a8e39260051b80946060840137602082015260608133948101030190a26001600055005b6000808080610f7b85346117fa565b335af1610f86611807565b50610f0d57600080fd5b610f9b818587611ad4565b3590610fa78184611ae4565b51826000526006602052604060002092610fc1828261186d565b6008840193610fd08554611752565b855560098101610fe184825461172f565b9055600a42910155610ff382826119c1565b6003546001600160a01b03169490853b156101d25760006040518097630686108d60e01b825281838161102b8a338b600485016117d9565b03925af1918215610c775761106b96600080516020611ff383398151915293611070575b5054906110636040519283923397846116b9565b0390a3611752565b610efc565b611079906115c7565b8b61104f565b9161108b838587611ad4565b351515806110fd575b156101d2576110a4838587611ad4565b35600052600660205260ff600b6040600020015460181c16156101d2576110f26110f8916110d661025586888a611ad4565b6110e08686611ae4565b526110eb8585611ae4565b519061172f565b92611752565b610eea565b50611109838587611ad4565b356002541015611094565b346101d25760003660031901126101d2576005546040516001600160a01b039091168152602090f35b346101d25760003660031901126101d2576001546040516001600160a01b039091168152602090f35b346101d25760203660031901126101d257600435611182611cf9565b5080151580611277575b156101d25760005260066020526101ce604060002060ff600b604051926111b2846115ab565b80546001600160a01b03168452600181015460208501526111d5600282016115fd565b60408501526003810154606085015260048101546080850152600581015460a0850152600681015460c0850152600781015460e085015260088101546101008501526009810154610120850152600a810154610140850152015461123f828216610160850161177c565b818160081c16610180840152818160101c166101a084015260181c1615156101c0820152604051918291602083526020830190611462565b5060025481111561118c565b346101d25760003660031901126101d25761129c611703565b600180546001600160a01b031981169091556000906001600160a01b0316600080516020611fd38339815191528280a3005b6113f9565b346101d25760003660031901126101d257602060405161012c8152f35b346101d25760203660031901126101d257611309611703565b6103e8600435116101d257005b346101d257611324366113b5565b906000526007602052604060002080548210156101d257602091610aff916113cb565b346101d25761135536611396565b8115158061138a575b156101d2576000828152600660205260409020546001600160a01b031633036101d257610eaf91611c8c565b5060025482111561135e565b60409060031901126101d2576004359060243580151581036101d25790565b60409060031901126101d2576004359060243590565b80548210156113e35760005260206000200190600090565b634e487b7160e01b600052603260045260246000fd5b346101d25760003660031901126101d257602060405160648152f35b919082519283825260005b848110611441575050826000602080949584010152601f8019910116010190565b602081830181015184830182015201611420565b9060028210156108f05752565b9060018060a01b0382511681526020820151602082015261149260408301516101e0806040850152830190611415565b91606081015160608301526080810151608083015260a081015160a083015260c081015160c083015260e081015160e08301526101008082015190830152610120808201519083015261014080820151908301526114f96101608083015190840190611455565b61018060ff8183015116908301526101a060ff8183015116908301526101c080910151151591015290565b9060206003198301126101d2576001600160401b0391600435908382116101d257806023830112156101d25781600401359384116101d25760248460051b830101116101d2576024019190565b90600182811c921680156115a1575b602083101461158b57565b634e487b7160e01b600052602260045260246000fd5b91607f1691611580565b6101e081019081106001600160401b038211176109c957604052565b6001600160401b0381116109c957604052565b601f909101601f19168101906001600160401b038211908210176109c957604052565b906040519182600082549261161184611571565b908184526001948581169081600014611680575060011461163d575b505061163b925003836115da565b565b9093915060005260209081600020936000915b81831061166857505061163b9350820101388061162d565b85548884018501529485019487945091830191611650565b91505061163b94506020925060ff191682840152151560051b820101388061162d565b600435906001600160a01b03821682036101d257565b6040919493926060820195825260208201520152565b90815180825260208080930193019160005b8281106116ef575050505090565b8351855293810193928101926001016116e1565b6001546001600160a01b0316330361171757565b60405163118cdaa760e01b8152336004820152602490fd5b9190820180921161173c57565b634e487b7160e01b600052601160045260246000fd5b600019811461173c5760010190565b6001600160401b0381116109c957601f01601f191660200190565b60028210156108f05752565b9063ff000000825491151560181b169063ff0000001916179055565b8054600160401b8110156109c9576117c1916001820181556113cb565b819291549060031b91821b91600019901b1916179055565b9081526001600160a01b039091166020820152604081019190915260600190565b9190820391821161173c57565b3d15611832573d9061181882611761565b9161182660405193846115da565b82523d6000602084013e565b606090565b600260005414611848576002600055565b604051633ee5aeb560e01b8152600490fd5b8181029291811591840414171561173c57565b60ff90600092818452600660205283604081206118bd600b820154936118b860646118af816118a18b8a60081c168661185a565b04998a9860101c168461185a565b049788926117fa565b6117fa565b80611997575b5050508061193a575b50816118d757505050565b6004546001600160a01b031690813b156119365790602484926040519485938492637c8efce360e01b845260048401525af1801561192b57611917575050565b61192182916115c7565b6119285750565b80fd5b6040513d84823e3d90fd5b8380fd5b6005546001600160a01b0316803b156119935784906024604051809481936346955bc760e11b83528760048401525af1801561198857156118cc57611981909391936115c7565b91386118cc565b6040513d86823e3d90fd5b8480fd5b9054829182918291906001600160a01b03165af16119b3611807565b5015611936578338806118c3565b60008181526006602052604080822060ff600b820154166002811015611a775715611a705793611a6a7fc6d3da45896ce1bca9d198309a2dbeea3c73a991748f8d88d796ffa06029de9393926008611a5d97611a1c88611db8565b98899687600484015589815260096020528785822055600a60205242858220556007602052611a4d888683206117a4565b89815283602052844291206117a4565b01549051938493846116b9565b0390a290565b5050505090565b634e487b7160e01b84526021600452602484fd5b6001600160401b0381116109c95760051b60200190565b90611aac82611a8b565b611ab960405191826115da565b8281528092611aca601f1991611a8b565b0190602036910137565b91908110156113e35760051b0190565b80518210156113e35760209160051b010190565b80151580611b12575b156101d257611b0f90611b1e565b90565b50600254811115611b01565b600090808252600660205260409182812092805190611b3c826115ab565b84546001600160a01b0316825260018501546020830152611b5f600286016115fd565b8183015260038501546060830152600b60048601549560808401968752600581015460a0850152600681015460c0850152600781015460e085015260088101546101008501526009810154610120850152600a8101546101408501520154916101c060ff610160830194611bd58282168761177c565b818160081c16610180850152818160101c166101a085015260181c16151591015281516002811015611a775760011480611c78575b80611c59575b611c49575051906002821015611c35575015611c3057611b0f9150611db8565b505190565b634e487b7160e01b81526021600452602490fd5b9350509081526009602052205490565b50838352600a60205261012c611c7282852054426117fa565b10611c10565b50838352600a602052808320541515611c0a565b9060207f70d73d81e52a2dca11d75c71d0f5006dfee7a734c401a87c32f0939f26461aee91600084815260068352611cca82600b6040842001611788565b60098352604081208054611ce6575b50506040519015158152a2565b819055600a835260408120553880611cd9565b60405190611d06826115ab565b816101c0600091828152826020820152606060408201528260608201528260808201528260a08201528260c08201528260e08201528261010082015282610120820152826101408201528261016082015282610180820152826101a08201520152565b9060405191828154918282526020928383019160005283600020936000905b828210611d9e5750505061163b925003836115da565b855484526001958601958895509381019390910190611d88565b60005260066020526040600020604051611dd1816115ab565b81546001600160a01b0316815260018201546020820152611df4600283016115fd565b604082015260038201546060820152600b60048301549260808301938452600581015460a0840152600681015460c0840152600781015460e084015260088101546101008401526009810154610120840152600a810154610140840152015460ff610160830191611e678282168461177c565b818160081c16610180850152818160101c166101a085015260181c1615156101c08301525160028110156108f05715611c3057611b0f91506060810180519060c0611ec7610100850193611ec1855160a08801519061185a565b9061172f565b9301519060648211801590611f21575b611f1b57611eec611f00926064945190611f2a565b90620186a0808311611f13575b505161185a565b049080821115611f0e575090565b905090565b915038611ef9565b50505090565b50825115611ed7565b908015611fcb576001808214611fc65760648093835b611f4b575050505090565b8280851614611f96575b8015611f815780600019048111611f7c57611f7181839261185a565b0492821c9283611f40565b611a70565b60246000634e487b7160e01b81526012600452fd5b938415611f815784600019048111611fba57611fb385839261185a565b0493611f55565b5050505050620186a090565b505090565b505060649056fe8be0079c531659141344cd1fd0a4f28419497f9722a3daafe3b4186f6b6457e03c643b89a81273a1160fc920ed10ca2aba86a40b58b30303efffe886744cb758","opcodes":"PUSH1 0x80 DUP1 PUSH1 0x40 MSTORE CALLVALUE PUSH2 0x84 JUMPI PUSH1 0x1 PUSH1 0x0 SSTORE CALLER ISZERO PUSH2 0x6E JUMPI PUSH1 0x1 DUP1 SLOAD CALLER PUSH1 0x1 PUSH1 0x1 PUSH1 0xA0 SHL SUB NOT DUP3 AND DUP2 OR SWAP1 SWAP3 SSTORE PUSH1 0x40 MLOAD SWAP2 SWAP1 PUSH1 0x1 PUSH1 0x1 PUSH1 0xA0 SHL SUB AND PUSH32 0x8BE0079C531659141344CD1FD0A4F28419497F9722A3DAAFE3B4186F6B6457E0 PUSH1 0x0 DUP1 LOG3 PUSH1 0x0 PUSH1 0x2 SSTORE PUSH2 0x2013 SWAP1 DUP2 PUSH2 0x8A DUP3 CODECOPY RETURN JUMPDEST PUSH4 0x1E4FBDF7 PUSH1 0xE0 SHL DUP2 MSTORE PUSH1 0x0 PUSH1 0x4 DUP3 ADD MSTORE PUSH1 0x24 SWAP1 REVERT JUMPDEST PUSH1 0x0 DUP1 REVERT INVALID PUSH1 0x80 PUSH1 0x40 MSTORE PUSH1 0x4 CALLDATASIZE LT ISZERO PUSH2 0x12 JUMPI PUSH1 0x0 DUP1 REVERT JUMPDEST PUSH1 0x0 CALLDATALOAD PUSH1 0xE0 SHR DUP1 PUSH4 0x26BFDE75 EQ PUSH2 0x1347 JUMPI DUP1 PUSH4 0x482F20A6 EQ PUSH2 0x1316 JUMPI DUP1 PUSH4 0x4C24C2C8 EQ PUSH2 0x12F0 JUMPI DUP1 PUSH4 0x4FF14874 EQ PUSH2 0x12CE JUMPI DUP1 PUSH4 0x539F51DB EQ PUSH2 0x12D3 JUMPI DUP1 PUSH4 0x558E44D3 EQ PUSH2 0x12CE JUMPI DUP1 PUSH4 0x715018A6 EQ PUSH2 0x1283 JUMPI DUP1 PUSH4 0x7509C330 EQ PUSH2 0x1166 JUMPI DUP1 PUSH4 0x8DA5CB5B EQ PUSH2 0x113D JUMPI DUP1 PUSH4 0xA7A512F8 EQ PUSH2 0x1114 JUMPI DUP1 PUSH4 0xA9F5C953 EQ PUSH2 0xEBD JUMPI DUP1 PUSH4 0xAE813729 EQ PUSH2 0xE82 JUMPI DUP1 PUSH4 0xB36B9FFD EQ PUSH2 0xE59 JUMPI DUP1 PUSH4 0xB5ECF912 EQ PUSH2 0xD5F JUMPI DUP1 PUSH4 0xC0C53B8B EQ PUSH2 0xCDE JUMPI DUP1 PUSH4 0xC2FDA487 EQ PUSH2 0xCB5 JUMPI DUP1 PUSH4 0xC55D0F56 EQ PUSH2 0xC8F JUMPI DUP1 PUSH4 0xC8A028A8 EQ PUSH2 0xB2B JUMPI DUP1 PUSH4 0xD0272F9B EQ PUSH2 0xB0D JUMPI DUP1 PUSH4 0xD0FEFFB0 EQ PUSH2 0xACE JUMPI DUP1 PUSH4 0xD62182F7 EQ PUSH2 0xA4B JUMPI DUP1 PUSH4 0xDB2E21BC EQ PUSH2 0x9F7 JUMPI DUP1 PUSH4 0xDC19EA0E EQ PUSH2 0x5AE JUMPI DUP1 PUSH4 0xDFE6B5D6 EQ PUSH2 0x51E JUMPI DUP1 PUSH4 0xE6A9ABA3 EQ PUSH2 0x500 JUMPI DUP1 PUSH4 0xF00084FB EQ PUSH2 0x2FD JUMPI DUP1 PUSH4 0xF2FDE38B EQ PUSH2 0x287 JUMPI DUP1 PUSH4 0xF8B688F5 EQ PUSH2 0x1E3 JUMPI PUSH4 0xFD1A98A5 EQ PUSH2 0x15B JUMPI PUSH1 0x0 DUP1 REVERT JUMPDEST CALLVALUE PUSH2 0x1D2 JUMPI PUSH1 0x20 CALLDATASIZE PUSH1 0x3 NOT ADD SLT PUSH2 0x1D2 JUMPI PUSH1 0x4 CALLDATALOAD DUP1 ISZERO ISZERO DUP1 PUSH2 0x1D7 JUMPI JUMPDEST ISZERO PUSH2 0x1D2 JUMPI PUSH1 0x0 MSTORE PUSH1 0x7 PUSH1 0x20 MSTORE PUSH2 0x1C0 PUSH1 0x40 PUSH1 0x0 KECCAK256 PUSH1 0x8 PUSH1 0x20 MSTORE PUSH2 0x1CE PUSH2 0x1AC PUSH2 0x1A6 PUSH1 0x40 PUSH1 0x0 KECCAK256 SWAP4 PUSH2 0x1D69 JUMP JUMPDEST SWAP3 PUSH2 0x1D69 JUMP JUMPDEST PUSH1 0x40 MLOAD SWAP4 DUP5 SWAP4 PUSH1 0x40 DUP6 MSTORE PUSH1 0x40 DUP6 ADD SWAP1 PUSH2 0x16CF JUMP JUMPDEST SWAP1 DUP4 DUP3 SUB PUSH1 0x20 DUP6 ADD MSTORE PUSH2 0x16CF JUMP JUMPDEST SUB SWAP1 RETURN JUMPDEST PUSH1 0x0 DUP1 REVERT JUMPDEST POP PUSH1 0x2 SLOAD DUP2 GT ISZERO PUSH2 0x178 JUMP JUMPDEST CALLVALUE PUSH2 0x1D2 JUMPI PUSH2 0x1F1 CALLDATASIZE PUSH2 0x1524 JUMP JUMPDEST SWAP1 DUP2 ISZERO PUSH2 0x1D2 JUMPI PUSH1 0x64 DUP3 GT PUSH2 0x1D2 JUMPI PUSH2 0x209 DUP3 PUSH2 0x1AA2 JUMP JUMPDEST SWAP1 PUSH1 0x0 JUMPDEST DUP4 DUP2 LT PUSH2 0x22A JUMPI PUSH1 0x40 MLOAD PUSH1 0x20 DUP1 DUP3 MSTORE DUP2 SWAP1 PUSH2 0x1CE SWAP1 DUP3 ADD DUP7 PUSH2 0x16CF JUMP JUMPDEST PUSH2 0x235 DUP2 DUP6 DUP5 PUSH2 0x1AD4 JUMP JUMPDEST CALLDATALOAD ISZERO ISZERO DUP1 PUSH2 0x270 JUMPI JUMPDEST ISZERO PUSH2 0x1D2 JUMPI DUP1 PUSH2 0x25B PUSH2 0x255 PUSH2 0x26B SWAP4 DUP8 DUP7 PUSH2 0x1AD4 JUMP JUMPDEST CALLDATALOAD PUSH2 0x1AF8 JUMP JUMPDEST PUSH2 0x265 DUP3 DUP7 PUSH2 0x1AE4 JUMP JUMPDEST MSTORE PUSH2 0x1752 JUMP JUMPDEST PUSH2 0x20D JUMP JUMPDEST POP PUSH2 0x27C DUP2 DUP6 DUP5 PUSH2 0x1AD4 JUMP JUMPDEST CALLDATALOAD PUSH1 0x2 SLOAD LT ISZERO PUSH2 0x23E JUMP JUMPDEST CALLVALUE PUSH2 0x1D2 JUMPI PUSH1 0x20 CALLDATASIZE PUSH1 0x3 NOT ADD SLT PUSH2 0x1D2 JUMPI PUSH2 0x2A0 PUSH2 0x16A3 JUMP JUMPDEST PUSH2 0x2A8 PUSH2 0x1703 JUMP JUMPDEST PUSH1 0x1 PUSH1 0x1 PUSH1 0xA0 SHL SUB SWAP1 DUP2 AND SWAP1 DUP2 ISZERO PUSH2 0x2E4 JUMPI PUSH1 0x1 DUP1 SLOAD PUSH1 0x1 PUSH1 0x1 PUSH1 0xA0 SHL SUB NOT DUP2 AND DUP5 OR SWAP1 SWAP2 SSTORE AND PUSH1 0x0 DUP1 MLOAD PUSH1 0x20 PUSH2 0x1FD3 DUP4 CODECOPY DUP2 MLOAD SWAP2 MSTORE PUSH1 0x0 DUP1 LOG3 STOP JUMPDEST PUSH1 0x40 MLOAD PUSH4 0x1E4FBDF7 PUSH1 0xE0 SHL DUP2 MSTORE PUSH1 0x0 PUSH1 0x4 DUP3 ADD MSTORE PUSH1 0x24 SWAP1 REVERT JUMPDEST CALLVALUE PUSH2 0x1D2 JUMPI PUSH2 0x30B CALLDATASIZE PUSH2 0x1524 JUMP JUMPDEST SWAP1 DUP2 ISZERO PUSH2 0x1D2 JUMPI PUSH1 0x64 DUP3 GT PUSH2 0x1D2 JUMPI PUSH2 0x323 DUP3 PUSH2 0x1A8B JUMP JUMPDEST SWAP2 PUSH2 0x331 PUSH1 0x40 MLOAD SWAP4 DUP5 PUSH2 0x15DA JUMP JUMPDEST DUP1 DUP4 MSTORE PUSH1 0x1F NOT PUSH2 0x340 DUP3 PUSH2 0x1A8B JUMP JUMPDEST ADD PUSH1 0x0 JUMPDEST DUP2 DUP2 LT PUSH2 0x4E9 JUMPI POP POP PUSH1 0x0 JUMPDEST DUP2 DUP2 LT PUSH2 0x3B6 JUMPI PUSH1 0x40 DUP1 MLOAD PUSH1 0x20 DUP1 DUP3 MSTORE DUP7 MLOAD DUP2 DUP4 ADD DUP2 SWAP1 MSTORE PUSH1 0x0 SWAP4 PUSH1 0x5 DUP3 SWAP1 SHL DUP5 ADD DUP2 ADD SWAP3 DUP1 DUP11 ADD SWAP3 SWAP2 DUP6 ADD JUMPDEST DUP3 DUP8 LT PUSH2 0x38A JUMPI DUP6 DUP6 SUB DUP7 RETURN JUMPDEST SWAP1 SWAP2 SWAP3 SWAP4 DUP3 DUP1 PUSH2 0x3A6 PUSH1 0x1 SWAP4 PUSH1 0x3F NOT DUP11 DUP3 SUB ADD DUP7 MSTORE DUP9 MLOAD PUSH2 0x1462 JUMP JUMPDEST SWAP7 ADD SWAP3 ADD SWAP7 ADD SWAP6 SWAP3 SWAP2 SWAP1 SWAP3 PUSH2 0x37D JUMP JUMPDEST PUSH2 0x3C1 DUP2 DUP4 DUP6 PUSH2 0x1AD4 JUMP JUMPDEST CALLDATALOAD ISZERO ISZERO DUP1 PUSH2 0x4D2 JUMPI JUMPDEST ISZERO PUSH2 0x1D2 JUMPI DUP1 PUSH2 0x3DE PUSH2 0x4CD SWAP3 DUP5 DUP7 PUSH2 0x1AD4 JUMP JUMPDEST CALLDATALOAD PUSH1 0x0 MSTORE PUSH1 0x6 PUSH1 0x20 SWAP1 DUP1 DUP3 MSTORE PUSH1 0x40 PUSH1 0x0 KECCAK256 SWAP1 PUSH1 0x40 MLOAD SWAP3 PUSH2 0x3FD DUP5 PUSH2 0x15AB JUMP JUMPDEST DUP3 SLOAD PUSH1 0x1 PUSH1 0x1 PUSH1 0xA0 SHL SUB AND DUP5 MSTORE PUSH1 0x1 DUP4 ADD SLOAD SWAP1 DUP5 ADD MSTORE PUSH2 0x41F PUSH1 0x2 DUP4 ADD PUSH2 0x15FD JUMP JUMPDEST PUSH1 0x40 DUP5 ADD MSTORE PUSH1 0x3 DUP3 ADD SLOAD PUSH1 0x60 DUP5 ADD MSTORE PUSH1 0x4 DUP3 ADD SLOAD PUSH1 0x80 DUP5 ADD MSTORE PUSH1 0x5 DUP3 ADD SLOAD PUSH1 0xA0 DUP5 ADD MSTORE DUP2 ADD SLOAD PUSH1 0xC0 DUP4 ADD MSTORE PUSH1 0x7 DUP2 ADD SLOAD PUSH1 0xE0 DUP4 ADD MSTORE PUSH1 0xB PUSH1 0x8 SWAP2 DUP3 DUP2 ADD SLOAD PUSH2 0x100 DUP6 ADD MSTORE PUSH1 0x9 DUP2 ADD SLOAD PUSH2 0x120 DUP6 ADD MSTORE PUSH1 0xA DUP2 ADD SLOAD PUSH2 0x140 DUP6 ADD MSTORE ADD SLOAD DUP1 SWAP2 PUSH1 0xFF SWAP3 DUP4 SWAP2 PUSH2 0x492 DUP4 DUP4 AND PUSH2 0x160 DUP9 ADD PUSH2 0x177C JUMP JUMPDEST SHR AND PUSH2 0x180 DUP5 ADD MSTORE DUP2 DUP2 PUSH1 0x10 SHR AND PUSH2 0x1A0 DUP5 ADD MSTORE PUSH1 0x18 SHR AND ISZERO ISZERO PUSH2 0x1C0 DUP3 ADD MSTORE PUSH2 0x4BC DUP3 DUP8 PUSH2 0x1AE4 JUMP JUMPDEST MSTORE PUSH2 0x4C7 DUP2 DUP7 PUSH2 0x1AE4 JUMP JUMPDEST POP PUSH2 0x1752 JUMP JUMPDEST PUSH2 0x350 JUMP JUMPDEST POP PUSH2 0x4DE DUP2 DUP4 DUP6 PUSH2 0x1AD4 JUMP JUMPDEST CALLDATALOAD PUSH1 0x2 SLOAD LT ISZERO PUSH2 0x3CA JUMP JUMPDEST PUSH1 0x20 SWAP1 PUSH2 0x4F4 PUSH2 0x1CF9 JUMP JUMPDEST DUP3 DUP3 DUP9 ADD ADD MSTORE ADD PUSH2 0x344 JUMP JUMPDEST CALLVALUE PUSH2 0x1D2 JUMPI PUSH1 0x0 CALLDATASIZE PUSH1 0x3 NOT ADD SLT PUSH2 0x1D2 JUMPI PUSH1 0x20 PUSH1 0x2 SLOAD PUSH1 0x40 MLOAD SWAP1 DUP2 MSTORE RETURN JUMPDEST CALLVALUE PUSH2 0x1D2 JUMPI PUSH1 0x0 CALLDATASIZE PUSH1 0x3 NOT ADD SLT PUSH2 0x1D2 JUMPI PUSH1 0x2 SLOAD PUSH1 0x0 SWAP1 PUSH1 0x0 PUSH1 0x1 JUMPDEST DUP3 DUP2 GT ISZERO PUSH2 0x553 JUMPI POP PUSH2 0x1CE SWAP1 PUSH1 0x40 MLOAD SWAP4 DUP5 SWAP4 DUP5 PUSH2 0x16B9 JUMP JUMPDEST DUP1 PUSH1 0x0 MSTORE PUSH1 0x6 PUSH2 0x571 PUSH1 0x20 SWAP6 DUP3 DUP8 MSTORE PUSH1 0x9 PUSH1 0x40 PUSH1 0x0 KECCAK256 ADD SLOAD SWAP1 PUSH2 0x172F JUMP JUMPDEST SWAP5 DUP3 PUSH1 0x0 MSTORE MSTORE PUSH1 0xFF PUSH1 0xB PUSH1 0x40 PUSH1 0x0 KECCAK256 ADD SLOAD PUSH1 0x18 SHR AND PUSH2 0x599 JUMPI JUMPDEST PUSH2 0x594 SWAP1 PUSH2 0x1752 JUMP JUMPDEST PUSH2 0x53A JUMP JUMPDEST SWAP1 PUSH2 0x5A6 PUSH2 0x594 SWAP2 PUSH2 0x1752 JUMP JUMPDEST SWAP2 SWAP1 POP PUSH2 0x58B JUMP JUMPDEST CALLVALUE PUSH2 0x1D2 JUMPI PUSH2 0x100 CALLDATASIZE PUSH1 0x3 NOT ADD SLT PUSH2 0x1D2 JUMPI PUSH1 0x1 PUSH1 0x1 PUSH1 0x40 SHL SUB PUSH1 0x24 CALLDATALOAD GT PUSH2 0x1D2 JUMPI CALLDATASIZE PUSH1 0x23 PUSH1 0x24 CALLDATALOAD ADD SLT ISZERO PUSH2 0x1D2 JUMPI PUSH1 0x1 PUSH1 0x1 PUSH1 0x40 SHL SUB PUSH1 0x4 PUSH1 0x24 CALLDATALOAD ADD CALLDATALOAD GT PUSH2 0x1D2 JUMPI CALLDATASIZE PUSH1 0x24 DUP1 CALLDATALOAD PUSH1 0x4 ADD CALLDATALOAD DUP2 CALLDATALOAD ADD ADD GT PUSH2 0x1D2 JUMPI PUSH1 0x2 PUSH1 0x44 CALLDATALOAD LT ISZERO PUSH2 0x1D2 JUMPI PUSH1 0x64 PUSH1 0xC4 CALLDATALOAD GT PUSH2 0x1D2 JUMPI PUSH1 0x64 PUSH1 0xE4 CALLDATALOAD GT PUSH2 0x1D2 JUMPI PUSH1 0x64 PUSH2 0x632 PUSH1 0xE4 CALLDATALOAD PUSH1 0xC4 CALLDATALOAD PUSH2 0x172F JUMP JUMPDEST GT PUSH2 0x1D2 JUMPI PUSH1 0x64 CALLDATALOAD ISZERO PUSH2 0x1D2 JUMPI PUSH1 0x4 CALLDATALOAD ISZERO PUSH2 0x1D2 JUMPI PUSH1 0x24 CALLDATALOAD PUSH1 0x4 ADD CALLDATALOAD ISZERO PUSH2 0x1D2 JUMPI PUSH1 0x1 PUSH1 0x44 CALLDATALOAD EQ PUSH2 0x9DF JUMPI JUMPDEST PUSH2 0x669 PUSH1 0x2 SLOAD PUSH2 0x1752 JUMP JUMPDEST DUP1 PUSH1 0x2 SSTORE PUSH1 0x40 MLOAD PUSH2 0x679 DUP2 PUSH2 0x15AB JUMP JUMPDEST CALLER DUP2 MSTORE PUSH1 0x4 CALLDATALOAD PUSH1 0x20 DUP3 ADD MSTORE PUSH2 0x693 PUSH1 0x24 CALLDATALOAD PUSH1 0x4 ADD CALLDATALOAD PUSH2 0x1761 JUMP JUMPDEST PUSH2 0x6A0 PUSH1 0x40 MLOAD SWAP2 DUP3 PUSH2 0x15DA JUMP JUMPDEST PUSH1 0x24 DUP1 CALLDATALOAD PUSH1 0x4 DUP2 ADD CALLDATALOAD DUP1 DUP5 MSTORE SWAP2 ADD PUSH1 0x20 DUP4 ADD CALLDATACOPY PUSH1 0x0 PUSH1 0x20 PUSH1 0x24 CALLDATALOAD PUSH1 0x4 ADD CALLDATALOAD DUP4 ADD ADD MSTORE PUSH1 0x40 DUP3 ADD MSTORE PUSH1 0x64 CALLDATALOAD PUSH1 0x60 DUP3 ADD MSTORE PUSH1 0x64 CALLDATALOAD PUSH1 0x80 DUP3 ADD MSTORE PUSH1 0x84 CALLDATALOAD PUSH1 0xA0 DUP3 ADD MSTORE PUSH1 0xA4 CALLDATALOAD PUSH1 0xC0 DUP3 ADD MSTORE TIMESTAMP PUSH1 0xE0 DUP3 ADD MSTORE PUSH1 0x0 PUSH2 0x100 DUP3 ADD MSTORE PUSH1 0x0 PUSH2 0x120 DUP3 ADD MSTORE PUSH1 0x0 PUSH2 0x140 DUP3 ADD MSTORE PUSH2 0x715 PUSH1 0x44 CALLDATALOAD PUSH2 0x160 DUP4 ADD PUSH2 0x177C JUMP JUMPDEST PUSH1 0xFF PUSH1 0xC4 CALLDATALOAD AND PUSH2 0x180 DUP3 ADD MSTORE PUSH1 0xFF PUSH1 0xE4 CALLDATALOAD AND PUSH2 0x1A0 DUP3 ADD MSTORE PUSH1 0x1 PUSH2 0x1C0 DUP3 ADD MSTORE DUP2 PUSH1 0x0 MSTORE PUSH1 0x6 PUSH1 0x20 MSTORE PUSH1 0x40 PUSH1 0x0 KECCAK256 SWAP2 PUSH1 0x1 DUP1 PUSH1 0xA0 SHL SUB DUP3 MLOAD AND PUSH1 0x1 DUP1 PUSH1 0xA0 SHL SUB NOT DUP5 SLOAD AND OR DUP4 SSTORE PUSH1 0x20 DUP3 ADD MLOAD PUSH1 0x1 DUP5 ADD SSTORE PUSH1 0x40 DUP3 ADD MLOAD SWAP3 DUP4 MLOAD PUSH1 0x1 DUP1 PUSH1 0x40 SHL SUB DUP2 GT PUSH2 0x9C9 JUMPI PUSH2 0x788 PUSH1 0x2 DUP4 ADD SLOAD PUSH2 0x1571 JUMP JUMPDEST PUSH1 0x1F DUP2 GT PUSH2 0x982 JUMPI JUMPDEST POP PUSH1 0x20 PUSH1 0x1F DUP3 GT PUSH1 0x1 EQ PUSH2 0x911 JUMPI DUP2 SWAP1 PUSH1 0xB SWAP5 SWAP6 SWAP7 PUSH1 0x0 SWAP3 PUSH2 0x906 JUMPI JUMPDEST POP POP DUP2 PUSH1 0x1 SHL SWAP2 PUSH1 0x0 NOT SWAP1 PUSH1 0x3 SHL SHR NOT AND OR PUSH1 0x2 DUP3 ADD SSTORE JUMPDEST PUSH1 0x60 DUP5 ADD MLOAD PUSH1 0x3 DUP3 ADD SSTORE PUSH1 0x80 DUP5 ADD MLOAD PUSH1 0x4 DUP3 ADD SSTORE PUSH1 0xA0 DUP5 ADD MLOAD PUSH1 0x5 DUP3 ADD SSTORE PUSH1 0xC0 DUP5 ADD MLOAD PUSH1 0x6 DUP3 ADD SSTORE PUSH1 0xE0 DUP5 ADD MLOAD PUSH1 0x7 DUP3 ADD SSTORE PUSH2 0x100 DUP5 ADD MLOAD PUSH1 0x8 DUP3 ADD SSTORE PUSH2 0x120 DUP5 ADD MLOAD PUSH1 0x9 DUP3 ADD SSTORE PUSH2 0x140 DUP5 ADD MLOAD PUSH1 0xA DUP3 ADD SSTORE ADD SWAP2 PUSH2 0x160 DUP2 ADD MLOAD SWAP3 PUSH1 0x2 DUP5 LT ISZERO PUSH2 0x8F0 JUMPI PUSH2 0x1C0 PUSH2 0x86D SWAP3 PUSH1 0x20 SWAP6 DUP4 SLOAD PUSH2 0xFF00 PUSH2 0x180 DUP5 ADD MLOAD PUSH1 0x8 SHL AND SWAP1 PUSH1 0xFF PUSH3 0xFF0000 PUSH2 0x1A0 DUP7 ADD MLOAD PUSH1 0x10 SHL AND SWAP4 AND SWAP1 PUSH3 0xFFFFFF NOT AND OR OR OR DUP4 SSTORE ADD MLOAD ISZERO ISZERO SWAP1 PUSH2 0x1788 JUMP JUMPDEST DUP1 PUSH1 0x0 MSTORE PUSH1 0x7 DUP3 MSTORE PUSH2 0x885 PUSH1 0x64 CALLDATALOAD PUSH1 0x40 PUSH1 0x0 KECCAK256 PUSH2 0x17A4 JUMP JUMPDEST DUP1 PUSH1 0x0 MSTORE PUSH1 0x8 DUP3 MSTORE PUSH2 0x89B TIMESTAMP PUSH1 0x40 PUSH1 0x0 KECCAK256 PUSH2 0x17A4 JUMP JUMPDEST PUSH1 0x40 MLOAD PUSH1 0x4 CALLDATALOAD DUP2 MSTORE PUSH2 0x8B1 DUP4 DUP3 ADD PUSH1 0x44 CALLDATALOAD PUSH2 0x1455 JUMP JUMPDEST PUSH1 0x64 CALLDATALOAD PUSH1 0x40 DUP3 ADD MSTORE PUSH1 0x84 CALLDATALOAD PUSH1 0x60 DUP3 ADD MSTORE DUP2 PUSH32 0x505543113D9D1A281874815CEE76FC95D191D999C006617D2C176495CB948B58 PUSH1 0x80 CALLER SWAP4 LOG3 PUSH1 0x40 MLOAD SWAP1 DUP2 MSTORE RETURN JUMPDEST PUSH4 0x4E487B71 PUSH1 0xE0 SHL PUSH1 0x0 MSTORE PUSH1 0x21 PUSH1 0x4 MSTORE PUSH1 0x24 PUSH1 0x0 REVERT JUMPDEST ADD MLOAD SWAP1 POP DUP7 DUP1 PUSH2 0x7AE JUMP JUMPDEST PUSH1 0x1F NOT DUP3 AND SWAP6 PUSH1 0x2 DUP5 ADD PUSH1 0x0 MSTORE PUSH1 0x20 PUSH1 0x0 KECCAK256 SWAP7 PUSH1 0x0 JUMPDEST DUP2 DUP2 LT PUSH2 0x96A JUMPI POP SWAP2 PUSH1 0xB SWAP6 SWAP7 SWAP8 SWAP2 DUP5 PUSH1 0x1 SWAP6 SWAP5 LT PUSH2 0x951 JUMPI JUMPDEST POP POP POP DUP2 SHL ADD PUSH1 0x2 DUP3 ADD SSTORE PUSH2 0x7C6 JUMP JUMPDEST ADD MLOAD PUSH1 0x0 NOT PUSH1 0xF8 DUP5 PUSH1 0x3 SHL AND SHR NOT AND SWAP1 SSTORE DUP7 DUP1 DUP1 PUSH2 0x941 JUMP JUMPDEST DUP4 DUP4 ADD MLOAD DUP10 SSTORE PUSH1 0x1 SWAP1 SWAP9 ADD SWAP8 PUSH1 0x20 SWAP4 DUP5 ADD SWAP4 ADD PUSH2 0x927 JUMP JUMPDEST PUSH1 0x2 DUP4 ADD PUSH1 0x0 MSTORE PUSH1 0x20 PUSH1 0x0 KECCAK256 PUSH1 0x1F DUP4 ADD PUSH1 0x5 SHR DUP2 ADD PUSH1 0x20 DUP5 LT PUSH2 0x9C2 JUMPI JUMPDEST PUSH1 0x1F DUP4 ADD PUSH1 0x5 SHR DUP3 ADD DUP2 LT PUSH2 0x9B6 JUMPI POP POP PUSH2 0x791 JUMP JUMPDEST PUSH1 0x0 DUP2 SSTORE PUSH1 0x1 ADD PUSH2 0x9A0 JUMP JUMPDEST POP DUP1 PUSH2 0x9A0 JUMP JUMPDEST PUSH4 0x4E487B71 PUSH1 0xE0 SHL PUSH1 0x0 MSTORE PUSH1 0x41 PUSH1 0x4 MSTORE PUSH1 0x24 PUSH1 0x0 REVERT JUMPDEST PUSH1 0x84 CALLDATALOAD ISZERO PUSH2 0x1D2 JUMPI PUSH1 0x64 PUSH1 0xA4 CALLDATALOAD LT ISZERO PUSH2 0x65E JUMPI PUSH1 0x0 DUP1 REVERT JUMPDEST CALLVALUE PUSH2 0x1D2 JUMPI PUSH1 0x0 CALLDATASIZE PUSH1 0x3 NOT ADD SLT PUSH2 0x1D2 JUMPI PUSH2 0xA10 PUSH2 0x1703 JUMP JUMPDEST PUSH2 0xA18 PUSH2 0x1837 JUMP JUMPDEST SELFBALANCE DUP1 ISZERO PUSH2 0x1D2 JUMPI PUSH1 0x1 SLOAD PUSH1 0x0 SWAP2 DUP3 SWAP2 DUP3 SWAP2 DUP3 SWAP2 PUSH1 0x1 PUSH1 0x1 PUSH1 0xA0 SHL SUB AND GAS CALL PUSH2 0xA3E PUSH2 0x1807 JUMP JUMPDEST POP ISZERO PUSH2 0x1D2 JUMPI PUSH1 0x1 PUSH1 0x0 SSTORE STOP JUMPDEST CALLVALUE PUSH2 0x1D2 JUMPI PUSH1 0x20 CALLDATASIZE PUSH1 0x3 NOT ADD SLT PUSH2 0x1D2 JUMPI PUSH1 0x4 CALLDATALOAD DUP1 ISZERO ISZERO DUP1 PUSH2 0xAC2 JUMPI JUMPDEST ISZERO PUSH2 0x1D2 JUMPI PUSH1 0x0 SWAP1 DUP2 MSTORE PUSH1 0x6 PUSH1 0x20 MSTORE PUSH1 0x40 SWAP1 KECCAK256 SLOAD CALLER PUSH1 0x1 PUSH1 0x1 PUSH1 0xA0 SHL SUB SWAP2 DUP3 AND EQ SWAP1 DUP2 ISZERO PUSH2 0xAB4 JUMPI JUMPDEST POP ISZERO PUSH2 0x1D2 JUMPI PUSH1 0x9 PUSH1 0x20 MSTORE PUSH1 0x0 PUSH1 0x40 DUP2 KECCAK256 SSTORE PUSH1 0xA PUSH1 0x20 MSTORE PUSH1 0x0 PUSH1 0x40 DUP2 KECCAK256 SSTORE PUSH1 0x0 DUP1 RETURN JUMPDEST SWAP1 POP PUSH1 0x1 SLOAD AND CALLER EQ DUP2 PUSH2 0xA91 JUMP JUMPDEST POP PUSH1 0x2 SLOAD DUP2 GT ISZERO PUSH2 0xA68 JUMP JUMPDEST CALLVALUE PUSH2 0x1D2 JUMPI PUSH2 0xADC CALLDATASIZE PUSH2 0x13B5 JUMP JUMPDEST SWAP1 PUSH1 0x0 MSTORE PUSH1 0x8 PUSH1 0x20 MSTORE PUSH1 0x40 PUSH1 0x0 KECCAK256 DUP1 SLOAD DUP3 LT ISZERO PUSH2 0x1D2 JUMPI PUSH1 0x20 SWAP2 PUSH2 0xAFF SWAP2 PUSH2 0x13CB JUMP JUMPDEST SWAP1 SLOAD PUSH1 0x40 MLOAD SWAP2 PUSH1 0x3 SHL SHR DUP2 MSTORE RETURN JUMPDEST CALLVALUE PUSH2 0x1D2 JUMPI PUSH1 0x0 CALLDATASIZE PUSH1 0x3 NOT ADD SLT PUSH2 0x1D2 JUMPI PUSH1 0x20 PUSH1 0x40 MLOAD PUSH3 0x186A0 DUP2 MSTORE RETURN JUMPDEST PUSH1 0x20 CALLDATASIZE PUSH1 0x3 NOT ADD SLT PUSH2 0x1D2 JUMPI PUSH1 0x4 CALLDATALOAD DUP1 ISZERO ISZERO DUP1 PUSH2 0xC83 JUMPI JUMPDEST ISZERO PUSH2 0x1D2 JUMPI DUP1 PUSH1 0x0 MSTORE PUSH1 0x6 PUSH1 0x20 MSTORE PUSH1 0xFF PUSH1 0xB PUSH1 0x40 PUSH1 0x0 KECCAK256 ADD SLOAD PUSH1 0x18 SHR AND ISZERO PUSH2 0x1D2 JUMPI PUSH2 0xB6D PUSH2 0x1837 JUMP JUMPDEST DUP1 PUSH1 0x0 MSTORE PUSH1 0x6 PUSH1 0x20 MSTORE PUSH1 0x40 PUSH1 0x0 KECCAK256 SWAP1 PUSH2 0xB85 DUP2 PUSH2 0x1AF8 JUMP JUMPDEST SWAP2 DUP3 CALLVALUE LT PUSH2 0x1D2 JUMPI PUSH2 0xB97 DUP4 DUP4 PUSH2 0x186D JUMP JUMPDEST PUSH1 0x8 DUP2 ADD SWAP1 PUSH2 0xBA6 DUP3 SLOAD PUSH2 0x1752 JUMP JUMPDEST DUP3 SSTORE PUSH1 0x9 DUP2 ADD PUSH2 0xBB7 DUP6 DUP3 SLOAD PUSH2 0x172F JUMP JUMPDEST SWAP1 SSTORE PUSH1 0xA TIMESTAMP SWAP2 ADD SSTORE PUSH2 0xBC9 DUP4 DUP4 PUSH2 0x19C1 JUMP JUMPDEST PUSH1 0x3 SLOAD PUSH1 0x1 PUSH1 0x1 PUSH1 0xA0 SHL SUB AND DUP1 EXTCODESIZE ISZERO PUSH2 0x1D2 JUMPI PUSH1 0x0 PUSH1 0x40 MLOAD DUP1 SWAP3 PUSH4 0x686108D PUSH1 0xE0 SHL DUP3 MSTORE DUP2 DUP4 DUP2 PUSH2 0xBFF DUP12 CALLER DUP13 PUSH1 0x4 DUP6 ADD PUSH2 0x17D9 JUMP JUMPDEST SUB SWAP3 GAS CALL DUP1 ISZERO PUSH2 0xC77 JUMPI PUSH2 0xC68 JUMPI JUMPDEST POP DUP4 CALLVALUE GT PUSH2 0xC44 JUMPI JUMPDEST PUSH1 0x0 DUP1 MLOAD PUSH1 0x20 PUSH2 0x1FF3 DUP4 CODECOPY DUP2 MLOAD SWAP2 MSTORE SWAP2 SLOAD SWAP1 PUSH2 0xC3A PUSH1 0x40 MLOAD SWAP3 DUP4 SWAP3 CALLER SWAP8 DUP5 PUSH2 0x16B9 JUMP JUMPDEST SUB SWAP1 LOG3 PUSH1 0x1 PUSH1 0x0 SSTORE STOP JUMPDEST PUSH1 0x0 DUP1 DUP1 DUP1 PUSH2 0xC53 DUP9 CALLVALUE PUSH2 0x17FA JUMP JUMPDEST CALLER GAS CALL PUSH2 0xC5E PUSH2 0x1807 JUMP JUMPDEST POP PUSH2 0xC17 JUMPI PUSH1 0x0 DUP1 REVERT JUMPDEST PUSH2 0xC71 SWAP1 PUSH2 0x15C7 JUMP JUMPDEST DUP5 PUSH2 0xC0E JUMP JUMPDEST PUSH1 0x40 MLOAD RETURNDATASIZE PUSH1 0x0 DUP3 RETURNDATACOPY RETURNDATASIZE SWAP1 REVERT JUMPDEST POP PUSH1 0x2 SLOAD DUP2 GT ISZERO PUSH2 0xB43 JUMP JUMPDEST CALLVALUE PUSH2 0x1D2 JUMPI PUSH1 0x20 CALLDATASIZE PUSH1 0x3 NOT ADD SLT PUSH2 0x1D2 JUMPI PUSH1 0x20 PUSH2 0xCAD PUSH1 0x4 CALLDATALOAD PUSH2 0x1AF8 JUMP JUMPDEST PUSH1 0x40 MLOAD SWAP1 DUP2 MSTORE RETURN JUMPDEST CALLVALUE PUSH2 0x1D2 JUMPI PUSH1 0x0 CALLDATASIZE PUSH1 0x3 NOT ADD SLT PUSH2 0x1D2 JUMPI PUSH1 0x3 SLOAD PUSH1 0x40 MLOAD PUSH1 0x1 PUSH1 0x1 PUSH1 0xA0 SHL SUB SWAP1 SWAP2 AND DUP2 MSTORE PUSH1 0x20 SWAP1 RETURN JUMPDEST CALLVALUE PUSH2 0x1D2 JUMPI PUSH1 0x60 CALLDATASIZE PUSH1 0x3 NOT ADD SLT PUSH2 0x1D2 JUMPI PUSH2 0xCF7 PUSH2 0x16A3 JUMP JUMPDEST PUSH1 0x24 CALLDATALOAD PUSH1 0x1 PUSH1 0x1 PUSH1 0xA0 SHL SUB DUP2 DUP2 AND SWAP2 DUP3 SWAP1 SUB PUSH2 0x1D2 JUMPI PUSH1 0x44 CALLDATALOAD SWAP3 DUP2 DUP5 AND DUP1 SWAP5 SUB PUSH2 0x1D2 JUMPI PUSH2 0xD23 PUSH2 0x1703 JUMP JUMPDEST AND SWAP1 DUP2 ISZERO PUSH2 0x1D2 JUMPI DUP1 ISZERO PUSH2 0x1D2 JUMPI DUP3 ISZERO PUSH2 0x1D2 JUMPI PUSH1 0x1 DUP1 PUSH1 0xA0 SHL SUB NOT SWAP2 DUP3 PUSH1 0x3 SLOAD AND OR PUSH1 0x3 SSTORE DUP2 PUSH1 0x4 SLOAD AND OR PUSH1 0x4 SSTORE PUSH1 0x5 SLOAD AND OR PUSH1 0x5 SSTORE PUSH1 0x0 DUP1 RETURN JUMPDEST CALLVALUE PUSH2 0x1D2 JUMPI PUSH1 0x20 CALLDATASIZE PUSH1 0x3 NOT ADD SLT PUSH2 0x1D2 JUMPI PUSH1 0x4 CALLDATALOAD PUSH1 0x0 MSTORE PUSH1 0x6 PUSH1 0x20 MSTORE PUSH1 0x20 PUSH1 0x40 PUSH1 0x0 KECCAK256 PUSH1 0x1 DUP1 PUSH1 0xA0 SHL SUB DUP2 SLOAD AND SWAP1 PUSH1 0xFF PUSH1 0x1 DUP3 ADD SLOAD PUSH2 0xDA0 PUSH1 0x2 DUP5 ADD PUSH2 0x15FD JUMP JUMPDEST SWAP3 PUSH1 0x3 DUP2 ADD SLOAD SWAP4 PUSH1 0x4 DUP3 ADD SLOAD PUSH1 0x5 DUP4 ADD SLOAD PUSH1 0x6 DUP5 ADD SLOAD PUSH1 0x7 DUP6 ADD SLOAD SWAP2 PUSH1 0x8 DUP7 ADD SLOAD SWAP4 PUSH2 0xDF5 PUSH1 0x9 DUP9 ADD SLOAD SWAP7 PUSH1 0xB PUSH1 0xA DUP11 ADD SLOAD SWAP10 ADD SLOAD SWAP10 PUSH1 0x40 MLOAD SWAP15 DUP16 SWAP15 DUP16 SWAP1 DUP2 MSTORE ADD MSTORE PUSH1 0x40 DUP14 PUSH2 0x1E0 SWAP2 DUP3 SWAP2 ADD MSTORE DUP14 ADD SWAP1 PUSH2 0x1415 JUMP JUMPDEST SWAP10 PUSH1 0x60 DUP13 ADD MSTORE PUSH1 0x80 DUP12 ADD MSTORE PUSH1 0xA0 DUP11 ADD MSTORE PUSH1 0xC0 DUP10 ADD MSTORE PUSH1 0xE0 DUP9 ADD MSTORE PUSH2 0x100 DUP8 ADD MSTORE PUSH2 0x120 DUP7 ADD MSTORE PUSH2 0x140 DUP6 ADD MSTORE PUSH2 0xE31 PUSH2 0x160 DUP6 ADD DUP4 DUP4 AND PUSH2 0x1455 JUMP JUMPDEST DUP2 DUP2 PUSH1 0x8 SHR AND PUSH2 0x180 DUP6 ADD MSTORE DUP2 DUP2 PUSH1 0x10 SHR AND PUSH2 0x1A0 DUP6 ADD MSTORE PUSH1 0x18 SHR AND ISZERO ISZERO PUSH2 0x1C0 DUP4 ADD MSTORE SUB SWAP1 RETURN JUMPDEST CALLVALUE PUSH2 0x1D2 JUMPI PUSH1 0x0 CALLDATASIZE PUSH1 0x3 NOT ADD SLT PUSH2 0x1D2 JUMPI PUSH1 0x4 SLOAD PUSH1 0x40 MLOAD PUSH1 0x1 PUSH1 0x1 PUSH1 0xA0 SHL SUB SWAP1 SWAP2 AND DUP2 MSTORE PUSH1 0x20 SWAP1 RETURN JUMPDEST CALLVALUE PUSH2 0x1D2 JUMPI PUSH2 0xE90 CALLDATASIZE PUSH2 0x1396 JUMP JUMPDEST PUSH2 0xE98 PUSH2 0x1703 JUMP JUMPDEST DUP2 ISZERO ISZERO DUP1 PUSH2 0xEB1 JUMPI JUMPDEST ISZERO PUSH2 0x1D2 JUMPI PUSH2 0xEAF SWAP2 PUSH2 0x1C8C JUMP JUMPDEST STOP JUMPDEST POP PUSH1 0x2 SLOAD DUP3 GT ISZERO PUSH2 0xEA1 JUMP JUMPDEST PUSH2 0xEC6 CALLDATASIZE PUSH2 0x1524 JUMP JUMPDEST PUSH2 0xECE PUSH2 0x1837 JUMP JUMPDEST DUP1 ISZERO PUSH2 0x1D2 JUMPI PUSH1 0x32 DUP2 GT PUSH2 0x1D2 JUMPI PUSH1 0x0 PUSH2 0xEE7 DUP3 PUSH2 0x1AA2 JUMP JUMPDEST PUSH1 0x0 JUMPDEST DUP4 DUP2 LT PUSH2 0x107F JUMPI POP DUP2 CALLVALUE LT PUSH2 0x1D2 JUMPI PUSH1 0x0 JUMPDEST DUP4 DUP2 LT PUSH2 0xF90 JUMPI POP POP DUP1 CALLVALUE GT PUSH2 0xF6C JUMPI JUMPDEST PUSH1 0x40 DUP1 MLOAD DUP2 DUP2 MSTORE SWAP1 DUP2 ADD DUP4 SWAP1 MSTORE SWAP1 PUSH1 0x1 PUSH1 0x1 PUSH1 0xFB SHL SUB DUP4 GT PUSH2 0x1D2 JUMPI PUSH32 0xA25F24536407B63286BDAE6707ED3E860288BB5F5C648DE7DD6DAB214485A8E3 SWAP3 PUSH1 0x5 SHL DUP1 SWAP5 PUSH1 0x60 DUP5 ADD CALLDATACOPY PUSH1 0x20 DUP3 ADD MSTORE PUSH1 0x60 DUP2 CALLER SWAP5 DUP2 ADD SUB ADD SWAP1 LOG2 PUSH1 0x1 PUSH1 0x0 SSTORE STOP JUMPDEST PUSH1 0x0 DUP1 DUP1 DUP1 PUSH2 0xF7B DUP6 CALLVALUE PUSH2 0x17FA JUMP JUMPDEST CALLER GAS CALL PUSH2 0xF86 PUSH2 0x1807 JUMP JUMPDEST POP PUSH2 0xF0D JUMPI PUSH1 0x0 DUP1 REVERT JUMPDEST PUSH2 0xF9B DUP2 DUP6 DUP8 PUSH2 0x1AD4 JUMP JUMPDEST CALLDATALOAD SWAP1 PUSH2 0xFA7 DUP2 DUP5 PUSH2 0x1AE4 JUMP JUMPDEST MLOAD DUP3 PUSH1 0x0 MSTORE PUSH1 0x6 PUSH1 0x20 MSTORE PUSH1 0x40 PUSH1 0x0 KECCAK256 SWAP3 PUSH2 0xFC1 DUP3 DUP3 PUSH2 0x186D JUMP JUMPDEST PUSH1 0x8 DUP5 ADD SWAP4 PUSH2 0xFD0 DUP6 SLOAD PUSH2 0x1752 JUMP JUMPDEST DUP6 SSTORE PUSH1 0x9 DUP2 ADD PUSH2 0xFE1 DUP5 DUP3 SLOAD PUSH2 0x172F JUMP JUMPDEST SWAP1 SSTORE PUSH1 0xA TIMESTAMP SWAP2 ADD SSTORE PUSH2 0xFF3 DUP3 DUP3 PUSH2 0x19C1 JUMP JUMPDEST PUSH1 0x3 SLOAD PUSH1 0x1 PUSH1 0x1 PUSH1 0xA0 SHL SUB AND SWAP5 SWAP1 DUP6 EXTCODESIZE ISZERO PUSH2 0x1D2 JUMPI PUSH1 0x0 PUSH1 0x40 MLOAD DUP1 SWAP8 PUSH4 0x686108D PUSH1 0xE0 SHL DUP3 MSTORE DUP2 DUP4 DUP2 PUSH2 0x102B DUP11 CALLER DUP12 PUSH1 0x4 DUP6 ADD PUSH2 0x17D9 JUMP JUMPDEST SUB SWAP3 GAS CALL SWAP2 DUP3 ISZERO PUSH2 0xC77 JUMPI PUSH2 0x106B SWAP7 PUSH1 0x0 DUP1 MLOAD PUSH1 0x20 PUSH2 0x1FF3 DUP4 CODECOPY DUP2 MLOAD SWAP2 MSTORE SWAP4 PUSH2 0x1070 JUMPI JUMPDEST POP SLOAD SWAP1 PUSH2 0x1063 PUSH1 0x40 MLOAD SWAP3 DUP4 SWAP3 CALLER SWAP8 DUP5 PUSH2 0x16B9 JUMP JUMPDEST SUB SWAP1 LOG3 PUSH2 0x1752 JUMP JUMPDEST PUSH2 0xEFC JUMP JUMPDEST PUSH2 0x1079 SWAP1 PUSH2 0x15C7 JUMP JUMPDEST DUP12 PUSH2 0x104F JUMP JUMPDEST SWAP2 PUSH2 0x108B DUP4 DUP6 DUP8 PUSH2 0x1AD4 JUMP JUMPDEST CALLDATALOAD ISZERO ISZERO DUP1 PUSH2 0x10FD JUMPI JUMPDEST ISZERO PUSH2 0x1D2 JUMPI PUSH2 0x10A4 DUP4 DUP6 DUP8 PUSH2 0x1AD4 JUMP JUMPDEST CALLDATALOAD PUSH1 0x0 MSTORE PUSH1 0x6 PUSH1 0x20 MSTORE PUSH1 0xFF PUSH1 0xB PUSH1 0x40 PUSH1 0x0 KECCAK256 ADD SLOAD PUSH1 0x18 SHR AND ISZERO PUSH2 0x1D2 JUMPI PUSH2 0x10F2 PUSH2 0x10F8 SWAP2 PUSH2 0x10D6 PUSH2 0x255 DUP7 DUP9 DUP11 PUSH2 0x1AD4 JUMP JUMPDEST PUSH2 0x10E0 DUP7 DUP7 PUSH2 0x1AE4 JUMP JUMPDEST MSTORE PUSH2 0x10EB DUP6 DUP6 PUSH2 0x1AE4 JUMP JUMPDEST MLOAD SWAP1 PUSH2 0x172F JUMP JUMPDEST SWAP3 PUSH2 0x1752 JUMP JUMPDEST PUSH2 0xEEA JUMP JUMPDEST POP PUSH2 0x1109 DUP4 DUP6 DUP8 PUSH2 0x1AD4 JUMP JUMPDEST CALLDATALOAD PUSH1 0x2 SLOAD LT ISZERO PUSH2 0x1094 JUMP JUMPDEST CALLVALUE PUSH2 0x1D2 JUMPI PUSH1 0x0 CALLDATASIZE PUSH1 0x3 NOT ADD SLT PUSH2 0x1D2 JUMPI PUSH1 0x5 SLOAD PUSH1 0x40 MLOAD PUSH1 0x1 PUSH1 0x1 PUSH1 0xA0 SHL SUB SWAP1 SWAP2 AND DUP2 MSTORE PUSH1 0x20 SWAP1 RETURN JUMPDEST CALLVALUE PUSH2 0x1D2 JUMPI PUSH1 0x0 CALLDATASIZE PUSH1 0x3 NOT ADD SLT PUSH2 0x1D2 JUMPI PUSH1 0x1 SLOAD PUSH1 0x40 MLOAD PUSH1 0x1 PUSH1 0x1 PUSH1 0xA0 SHL SUB SWAP1 SWAP2 AND DUP2 MSTORE PUSH1 0x20 SWAP1 RETURN JUMPDEST CALLVALUE PUSH2 0x1D2 JUMPI PUSH1 0x20 CALLDATASIZE PUSH1 0x3 NOT ADD SLT PUSH2 0x1D2 JUMPI PUSH1 0x4 CALLDATALOAD PUSH2 0x1182 PUSH2 0x1CF9 JUMP JUMPDEST POP DUP1 ISZERO ISZERO DUP1 PUSH2 0x1277 JUMPI JUMPDEST ISZERO PUSH2 0x1D2 JUMPI PUSH1 0x0 MSTORE PUSH1 0x6 PUSH1 0x20 MSTORE PUSH2 0x1CE PUSH1 0x40 PUSH1 0x0 KECCAK256 PUSH1 0xFF PUSH1 0xB PUSH1 0x40 MLOAD SWAP3 PUSH2 0x11B2 DUP5 PUSH2 0x15AB JUMP JUMPDEST DUP1 SLOAD PUSH1 0x1 PUSH1 0x1 PUSH1 0xA0 SHL SUB AND DUP5 MSTORE PUSH1 0x1 DUP2 ADD SLOAD PUSH1 0x20 DUP6 ADD MSTORE PUSH2 0x11D5 PUSH1 0x2 DUP3 ADD PUSH2 0x15FD JUMP JUMPDEST PUSH1 0x40 DUP6 ADD MSTORE PUSH1 0x3 DUP2 ADD SLOAD PUSH1 0x60 DUP6 ADD MSTORE PUSH1 0x4 DUP2 ADD SLOAD PUSH1 0x80 DUP6 ADD MSTORE PUSH1 0x5 DUP2 ADD SLOAD PUSH1 0xA0 DUP6 ADD MSTORE PUSH1 0x6 DUP2 ADD SLOAD PUSH1 0xC0 DUP6 ADD MSTORE PUSH1 0x7 DUP2 ADD SLOAD PUSH1 0xE0 DUP6 ADD MSTORE PUSH1 0x8 DUP2 ADD SLOAD PUSH2 0x100 DUP6 ADD MSTORE PUSH1 0x9 DUP2 ADD SLOAD PUSH2 0x120 DUP6 ADD MSTORE PUSH1 0xA DUP2 ADD SLOAD PUSH2 0x140 DUP6 ADD MSTORE ADD SLOAD PUSH2 0x123F DUP3 DUP3 AND PUSH2 0x160 DUP6 ADD PUSH2 0x177C JUMP JUMPDEST DUP2 DUP2 PUSH1 0x8 SHR AND PUSH2 0x180 DUP5 ADD MSTORE DUP2 DUP2 PUSH1 0x10 SHR AND PUSH2 0x1A0 DUP5 ADD MSTORE PUSH1 0x18 SHR AND ISZERO ISZERO PUSH2 0x1C0 DUP3 ADD MSTORE PUSH1 0x40 MLOAD SWAP2 DUP3 SWAP2 PUSH1 0x20 DUP4 MSTORE PUSH1 0x20 DUP4 ADD SWAP1 PUSH2 0x1462 JUMP JUMPDEST POP PUSH1 0x2 SLOAD DUP2 GT ISZERO PUSH2 0x118C JUMP JUMPDEST CALLVALUE PUSH2 0x1D2 JUMPI PUSH1 0x0 CALLDATASIZE PUSH1 0x3 NOT ADD SLT PUSH2 0x1D2 JUMPI PUSH2 0x129C PUSH2 0x1703 JUMP JUMPDEST PUSH1 0x1 DUP1 SLOAD PUSH1 0x1 PUSH1 0x1 PUSH1 0xA0 SHL SUB NOT DUP2 AND SWAP1 SWAP2 SSTORE PUSH1 0x0 SWAP1 PUSH1 0x1 PUSH1 0x1 PUSH1 0xA0 SHL SUB AND PUSH1 0x0 DUP1 MLOAD PUSH1 0x20 PUSH2 0x1FD3 DUP4 CODECOPY DUP2 MLOAD SWAP2 MSTORE DUP3 DUP1 LOG3 STOP JUMPDEST PUSH2 0x13F9 JUMP JUMPDEST CALLVALUE PUSH2 0x1D2 JUMPI PUSH1 0x0 CALLDATASIZE PUSH1 0x3 NOT ADD SLT PUSH2 0x1D2 JUMPI PUSH1 0x20 PUSH1 0x40 MLOAD PUSH2 0x12C DUP2 MSTORE RETURN JUMPDEST CALLVALUE PUSH2 0x1D2 JUMPI PUSH1 0x20 CALLDATASIZE PUSH1 0x3 NOT ADD SLT PUSH2 0x1D2 JUMPI PUSH2 0x1309 PUSH2 0x1703 JUMP JUMPDEST PUSH2 0x3E8 PUSH1 0x4 CALLDATALOAD GT PUSH2 0x1D2 JUMPI STOP JUMPDEST CALLVALUE PUSH2 0x1D2 JUMPI PUSH2 0x1324 CALLDATASIZE PUSH2 0x13B5 JUMP JUMPDEST SWAP1 PUSH1 0x0 MSTORE PUSH1 0x7 PUSH1 0x20 MSTORE PUSH1 0x40 PUSH1 0x0 KECCAK256 DUP1 SLOAD DUP3 LT ISZERO PUSH2 0x1D2 JUMPI PUSH1 0x20 SWAP2 PUSH2 0xAFF SWAP2 PUSH2 0x13CB JUMP JUMPDEST CALLVALUE PUSH2 0x1D2 JUMPI PUSH2 0x1355 CALLDATASIZE PUSH2 0x1396 JUMP JUMPDEST DUP2 ISZERO ISZERO DUP1 PUSH2 0x138A JUMPI JUMPDEST ISZERO PUSH2 0x1D2 JUMPI PUSH1 0x0 DUP3 DUP2 MSTORE PUSH1 0x6 PUSH1 0x20 MSTORE PUSH1 0x40 SWAP1 KECCAK256 SLOAD PUSH1 0x1 PUSH1 0x1 PUSH1 0xA0 SHL SUB AND CALLER SUB PUSH2 0x1D2 JUMPI PUSH2 0xEAF SWAP2 PUSH2 0x1C8C JUMP JUMPDEST POP PUSH1 0x2 SLOAD DUP3 GT ISZERO PUSH2 0x135E JUMP JUMPDEST PUSH1 0x40 SWAP1 PUSH1 0x3 NOT ADD SLT PUSH2 0x1D2 JUMPI PUSH1 0x4 CALLDATALOAD SWAP1 PUSH1 0x24 CALLDATALOAD DUP1 ISZERO ISZERO DUP2 SUB PUSH2 0x1D2 JUMPI SWAP1 JUMP JUMPDEST PUSH1 0x40 SWAP1 PUSH1 0x3 NOT ADD SLT PUSH2 0x1D2 JUMPI PUSH1 0x4 CALLDATALOAD SWAP1 PUSH1 0x24 CALLDATALOAD SWAP1 JUMP JUMPDEST DUP1 SLOAD DUP3 LT ISZERO PUSH2 0x13E3 JUMPI PUSH1 0x0 MSTORE PUSH1 0x20 PUSH1 0x0 KECCAK256 ADD SWAP1 PUSH1 0x0 SWAP1 JUMP JUMPDEST PUSH4 0x4E487B71 PUSH1 0xE0 SHL PUSH1 0x0 MSTORE PUSH1 0x32 PUSH1 0x4 MSTORE PUSH1 0x24 PUSH1 0x0 REVERT JUMPDEST CALLVALUE PUSH2 0x1D2 JUMPI PUSH1 0x0 CALLDATASIZE PUSH1 0x3 NOT ADD SLT PUSH2 0x1D2 JUMPI PUSH1 0x20 PUSH1 0x40 MLOAD PUSH1 0x64 DUP2 MSTORE RETURN JUMPDEST SWAP2 SWAP1 DUP3 MLOAD SWAP3 DUP4 DUP3 MSTORE PUSH1 0x0 JUMPDEST DUP5 DUP2 LT PUSH2 0x1441 JUMPI POP POP DUP3 PUSH1 0x0 PUSH1 0x20 DUP1 SWAP5 SWAP6 DUP5 ADD ADD MSTORE PUSH1 0x1F DUP1 NOT SWAP2 ADD AND ADD ADD SWAP1 JUMP JUMPDEST PUSH1 0x20 DUP2 DUP4 ADD DUP2 ADD MLOAD DUP5 DUP4 ADD DUP3 ADD MSTORE ADD PUSH2 0x1420 JUMP JUMPDEST SWAP1 PUSH1 0x2 DUP3 LT ISZERO PUSH2 0x8F0 JUMPI MSTORE JUMP JUMPDEST SWAP1 PUSH1 0x1 DUP1 PUSH1 0xA0 SHL SUB DUP3 MLOAD AND DUP2 MSTORE PUSH1 0x20 DUP3 ADD MLOAD PUSH1 0x20 DUP3 ADD MSTORE PUSH2 0x1492 PUSH1 0x40 DUP4 ADD MLOAD PUSH2 0x1E0 DUP1 PUSH1 0x40 DUP6 ADD MSTORE DUP4 ADD SWAP1 PUSH2 0x1415 JUMP JUMPDEST SWAP2 PUSH1 0x60 DUP2 ADD MLOAD PUSH1 0x60 DUP4 ADD MSTORE PUSH1 0x80 DUP2 ADD MLOAD PUSH1 0x80 DUP4 ADD MSTORE PUSH1 0xA0 DUP2 ADD MLOAD PUSH1 0xA0 DUP4 ADD MSTORE PUSH1 0xC0 DUP2 ADD MLOAD PUSH1 0xC0 DUP4 ADD MSTORE PUSH1 0xE0 DUP2 ADD MLOAD PUSH1 0xE0 DUP4 ADD MSTORE PUSH2 0x100 DUP1 DUP3 ADD MLOAD SWAP1 DUP4 ADD MSTORE PUSH2 0x120 DUP1 DUP3 ADD MLOAD SWAP1 DUP4 ADD MSTORE PUSH2 0x140 DUP1 DUP3 ADD MLOAD SWAP1 DUP4 ADD MSTORE PUSH2 0x14F9 PUSH2 0x160 DUP1 DUP4 ADD MLOAD SWAP1 DUP5 ADD SWAP1 PUSH2 0x1455 JUMP JUMPDEST PUSH2 0x180 PUSH1 0xFF DUP2 DUP4 ADD MLOAD AND SWAP1 DUP4 ADD MSTORE PUSH2 0x1A0 PUSH1 0xFF DUP2 DUP4 ADD MLOAD AND SWAP1 DUP4 ADD MSTORE PUSH2 0x1C0 DUP1 SWAP2 ADD MLOAD ISZERO ISZERO SWAP2 ADD MSTORE SWAP1 JUMP JUMPDEST SWAP1 PUSH1 0x20 PUSH1 0x3 NOT DUP4 ADD SLT PUSH2 0x1D2 JUMPI PUSH1 0x1 PUSH1 0x1 PUSH1 0x40 SHL SUB SWAP2 PUSH1 0x4 CALLDATALOAD SWAP1 DUP4 DUP3 GT PUSH2 0x1D2 JUMPI DUP1 PUSH1 0x23 DUP4 ADD SLT ISZERO PUSH2 0x1D2 JUMPI DUP2 PUSH1 0x4 ADD CALLDATALOAD SWAP4 DUP5 GT PUSH2 0x1D2 JUMPI PUSH1 0x24 DUP5 PUSH1 0x5 SHL DUP4 ADD ADD GT PUSH2 0x1D2 JUMPI PUSH1 0x24 ADD SWAP2 SWAP1 JUMP JUMPDEST SWAP1 PUSH1 0x1 DUP3 DUP2 SHR SWAP3 AND DUP1 ISZERO PUSH2 0x15A1 JUMPI JUMPDEST PUSH1 0x20 DUP4 LT EQ PUSH2 0x158B JUMPI JUMP JUMPDEST PUSH4 0x4E487B71 PUSH1 0xE0 SHL PUSH1 0x0 MSTORE PUSH1 0x22 PUSH1 0x4 MSTORE PUSH1 0x24 PUSH1 0x0 REVERT JUMPDEST SWAP2 PUSH1 0x7F AND SWAP2 PUSH2 0x1580 JUMP JUMPDEST PUSH2 0x1E0 DUP2 ADD SWAP1 DUP2 LT PUSH1 0x1 PUSH1 0x1 PUSH1 0x40 SHL SUB DUP3 GT OR PUSH2 0x9C9 JUMPI PUSH1 0x40 MSTORE JUMP JUMPDEST PUSH1 0x1 PUSH1 0x1 PUSH1 0x40 SHL SUB DUP2 GT PUSH2 0x9C9 JUMPI PUSH1 0x40 MSTORE JUMP JUMPDEST PUSH1 0x1F SWAP1 SWAP2 ADD PUSH1 0x1F NOT AND DUP2 ADD SWAP1 PUSH1 0x1 PUSH1 0x1 PUSH1 0x40 SHL SUB DUP3 GT SWAP1 DUP3 LT OR PUSH2 0x9C9 JUMPI PUSH1 0x40 MSTORE JUMP JUMPDEST SWAP1 PUSH1 0x40 MLOAD SWAP2 DUP3 PUSH1 0x0 DUP3 SLOAD SWAP3 PUSH2 0x1611 DUP5 PUSH2 0x1571 JUMP JUMPDEST SWAP1 DUP2 DUP5 MSTORE PUSH1 0x1 SWAP5 DUP6 DUP2 AND SWAP1 DUP2 PUSH1 0x0 EQ PUSH2 0x1680 JUMPI POP PUSH1 0x1 EQ PUSH2 0x163D JUMPI JUMPDEST POP POP PUSH2 0x163B SWAP3 POP SUB DUP4 PUSH2 0x15DA JUMP JUMPDEST JUMP JUMPDEST SWAP1 SWAP4 SWAP2 POP PUSH1 0x0 MSTORE PUSH1 0x20 SWAP1 DUP2 PUSH1 0x0 KECCAK256 SWAP4 PUSH1 0x0 SWAP2 JUMPDEST DUP2 DUP4 LT PUSH2 0x1668 JUMPI POP POP PUSH2 0x163B SWAP4 POP DUP3 ADD ADD CODESIZE DUP1 PUSH2 0x162D JUMP JUMPDEST DUP6 SLOAD DUP9 DUP5 ADD DUP6 ADD MSTORE SWAP5 DUP6 ADD SWAP5 DUP8 SWAP5 POP SWAP2 DUP4 ADD SWAP2 PUSH2 0x1650 JUMP JUMPDEST SWAP2 POP POP PUSH2 0x163B SWAP5 POP PUSH1 0x20 SWAP3 POP PUSH1 0xFF NOT AND DUP3 DUP5 ADD MSTORE ISZERO ISZERO PUSH1 0x5 SHL DUP3 ADD ADD CODESIZE DUP1 PUSH2 0x162D JUMP JUMPDEST PUSH1 0x4 CALLDATALOAD SWAP1 PUSH1 0x1 PUSH1 0x1 PUSH1 0xA0 SHL SUB DUP3 AND DUP3 SUB PUSH2 0x1D2 JUMPI JUMP JUMPDEST PUSH1 0x40 SWAP2 SWAP5 SWAP4 SWAP3 PUSH1 0x60 DUP3 ADD SWAP6 DUP3 MSTORE PUSH1 0x20 DUP3 ADD MSTORE ADD MSTORE JUMP JUMPDEST SWAP1 DUP2 MLOAD DUP1 DUP3 MSTORE PUSH1 0x20 DUP1 DUP1 SWAP4 ADD SWAP4 ADD SWAP2 PUSH1 0x0 JUMPDEST DUP3 DUP2 LT PUSH2 0x16EF JUMPI POP POP POP POP SWAP1 JUMP JUMPDEST DUP4 MLOAD DUP6 MSTORE SWAP4 DUP2 ADD SWAP4 SWAP3 DUP2 ADD SWAP3 PUSH1 0x1 ADD PUSH2 0x16E1 JUMP JUMPDEST PUSH1 0x1 SLOAD PUSH1 0x1 PUSH1 0x1 PUSH1 0xA0 SHL SUB AND CALLER SUB PUSH2 0x1717 JUMPI JUMP JUMPDEST PUSH1 0x40 MLOAD PUSH4 0x118CDAA7 PUSH1 0xE0 SHL DUP2 MSTORE CALLER PUSH1 0x4 DUP3 ADD MSTORE PUSH1 0x24 SWAP1 REVERT JUMPDEST SWAP2 SWAP1 DUP3 ADD DUP1 SWAP3 GT PUSH2 0x173C JUMPI JUMP JUMPDEST PUSH4 0x4E487B71 PUSH1 0xE0 SHL PUSH1 0x0 MSTORE PUSH1 0x11 PUSH1 0x4 MSTORE PUSH1 0x24 PUSH1 0x0 REVERT JUMPDEST PUSH1 0x0 NOT DUP2 EQ PUSH2 0x173C JUMPI PUSH1 0x1 ADD SWAP1 JUMP JUMPDEST PUSH1 0x1 PUSH1 0x1 PUSH1 0x40 SHL SUB DUP2 GT PUSH2 0x9C9 JUMPI PUSH1 0x1F ADD PUSH1 0x1F NOT AND PUSH1 0x20 ADD SWAP1 JUMP JUMPDEST PUSH1 0x2 DUP3 LT ISZERO PUSH2 0x8F0 JUMPI MSTORE JUMP JUMPDEST SWAP1 PUSH4 0xFF000000 DUP3 SLOAD SWAP2 ISZERO ISZERO PUSH1 0x18 SHL AND SWAP1 PUSH4 0xFF000000 NOT AND OR SWAP1 SSTORE JUMP JUMPDEST DUP1 SLOAD PUSH1 0x1 PUSH1 0x40 SHL DUP2 LT ISZERO PUSH2 0x9C9 JUMPI PUSH2 0x17C1 SWAP2 PUSH1 0x1 DUP3 ADD DUP2 SSTORE PUSH2 0x13CB JUMP JUMPDEST DUP2 SWAP3 SWAP2 SLOAD SWAP1 PUSH1 0x3 SHL SWAP2 DUP3 SHL SWAP2 PUSH1 0x0 NOT SWAP1 SHL NOT AND OR SWAP1 SSTORE JUMP JUMPDEST SWAP1 DUP2 MSTORE PUSH1 0x1 PUSH1 0x1 PUSH1 0xA0 SHL SUB SWAP1 SWAP2 AND PUSH1 0x20 DUP3 ADD MSTORE PUSH1 0x40 DUP2 ADD SWAP2 SWAP1 SWAP2 MSTORE PUSH1 0x60 ADD SWAP1 JUMP JUMPDEST SWAP2 SWAP1 DUP3 SUB SWAP2 DUP3 GT PUSH2 0x173C JUMPI JUMP JUMPDEST RETURNDATASIZE ISZERO PUSH2 0x1832 JUMPI RETURNDATASIZE SWAP1 PUSH2 0x1818 DUP3 PUSH2 0x1761 JUMP JUMPDEST SWAP2 PUSH2 0x1826 PUSH1 0x40 MLOAD SWAP4 DUP5 PUSH2 0x15DA JUMP JUMPDEST DUP3 MSTORE RETURNDATASIZE PUSH1 0x0 PUSH1 0x20 DUP5 ADD RETURNDATACOPY JUMP JUMPDEST PUSH1 0x60 SWAP1 JUMP JUMPDEST PUSH1 0x2 PUSH1 0x0 SLOAD EQ PUSH2 0x1848 JUMPI PUSH1 0x2 PUSH1 0x0 SSTORE JUMP JUMPDEST PUSH1 0x40 MLOAD PUSH4 0x3EE5AEB5 PUSH1 0xE0 SHL DUP2 MSTORE PUSH1 0x4 SWAP1 REVERT JUMPDEST DUP2 DUP2 MUL SWAP3 SWAP2 DUP2 ISZERO SWAP2 DUP5 DIV EQ OR ISZERO PUSH2 0x173C JUMPI JUMP JUMPDEST PUSH1 0xFF SWAP1 PUSH1 0x0 SWAP3 DUP2 DUP5 MSTORE PUSH1 0x6 PUSH1 0x20 MSTORE DUP4 PUSH1 0x40 DUP2 KECCAK256 PUSH2 0x18BD PUSH1 0xB DUP3 ADD SLOAD SWAP4 PUSH2 0x18B8 PUSH1 0x64 PUSH2 0x18AF DUP2 PUSH2 0x18A1 DUP12 DUP11 PUSH1 0x8 SHR AND DUP7 PUSH2 0x185A JUMP JUMPDEST DIV SWAP10 DUP11 SWAP9 PUSH1 0x10 SHR AND DUP5 PUSH2 0x185A JUMP JUMPDEST DIV SWAP8 DUP9 SWAP3 PUSH2 0x17FA JUMP JUMPDEST PUSH2 0x17FA JUMP JUMPDEST DUP1 PUSH2 0x1997 JUMPI JUMPDEST POP POP POP DUP1 PUSH2 0x193A JUMPI JUMPDEST POP DUP2 PUSH2 0x18D7 JUMPI POP POP POP JUMP JUMPDEST PUSH1 0x4 SLOAD PUSH1 0x1 PUSH1 0x1 PUSH1 0xA0 SHL SUB AND SWAP1 DUP2 EXTCODESIZE ISZERO PUSH2 0x1936 JUMPI SWAP1 PUSH1 0x24 DUP5 SWAP3 PUSH1 0x40 MLOAD SWAP5 DUP6 SWAP4 DUP5 SWAP3 PUSH4 0x7C8EFCE3 PUSH1 0xE0 SHL DUP5 MSTORE PUSH1 0x4 DUP5 ADD MSTORE GAS CALL DUP1 ISZERO PUSH2 0x192B JUMPI PUSH2 0x1917 JUMPI POP POP JUMP JUMPDEST PUSH2 0x1921 DUP3 SWAP2 PUSH2 0x15C7 JUMP JUMPDEST PUSH2 0x1928 JUMPI POP JUMP JUMPDEST DUP1 REVERT JUMPDEST PUSH1 0x40 MLOAD RETURNDATASIZE DUP5 DUP3 RETURNDATACOPY RETURNDATASIZE SWAP1 REVERT JUMPDEST DUP4 DUP1 REVERT JUMPDEST PUSH1 0x5 SLOAD PUSH1 0x1 PUSH1 0x1 PUSH1 0xA0 SHL SUB AND DUP1 EXTCODESIZE ISZERO PUSH2 0x1993 JUMPI DUP5 SWAP1 PUSH1 0x24 PUSH1 0x40 MLOAD DUP1 SWAP5 DUP2 SWAP4 PUSH4 0x46955BC7 PUSH1 0xE1 SHL DUP4 MSTORE DUP8 PUSH1 0x4 DUP5 ADD MSTORE GAS CALL DUP1 ISZERO PUSH2 0x1988 JUMPI ISZERO PUSH2 0x18CC JUMPI PUSH2 0x1981 SWAP1 SWAP4 SWAP2 SWAP4 PUSH2 0x15C7 JUMP JUMPDEST SWAP2 CODESIZE PUSH2 0x18CC JUMP JUMPDEST PUSH1 0x40 MLOAD RETURNDATASIZE DUP7 DUP3 RETURNDATACOPY RETURNDATASIZE SWAP1 REVERT JUMPDEST DUP5 DUP1 REVERT JUMPDEST SWAP1 SLOAD DUP3 SWAP2 DUP3 SWAP2 DUP3 SWAP2 SWAP1 PUSH1 0x1 PUSH1 0x1 PUSH1 0xA0 SHL SUB AND GAS CALL PUSH2 0x19B3 PUSH2 0x1807 JUMP JUMPDEST POP ISZERO PUSH2 0x1936 JUMPI DUP4 CODESIZE DUP1 PUSH2 0x18C3 JUMP JUMPDEST PUSH1 0x0 DUP2 DUP2 MSTORE PUSH1 0x6 PUSH1 0x20 MSTORE PUSH1 0x40 DUP1 DUP3 KECCAK256 PUSH1 0xFF PUSH1 0xB DUP3 ADD SLOAD AND PUSH1 0x2 DUP2 LT ISZERO PUSH2 0x1A77 JUMPI ISZERO PUSH2 0x1A70 JUMPI SWAP4 PUSH2 0x1A6A PUSH32 0xC6D3DA45896CE1BCA9D198309A2DBEEA3C73A991748F8D88D796FFA06029DE93 SWAP4 SWAP3 PUSH1 0x8 PUSH2 0x1A5D SWAP8 PUSH2 0x1A1C DUP9 PUSH2 0x1DB8 JUMP JUMPDEST SWAP9 DUP10 SWAP7 DUP8 PUSH1 0x4 DUP5 ADD SSTORE DUP10 DUP2 MSTORE PUSH1 0x9 PUSH1 0x20 MSTORE DUP8 DUP6 DUP3 KECCAK256 SSTORE PUSH1 0xA PUSH1 0x20 MSTORE TIMESTAMP DUP6 DUP3 KECCAK256 SSTORE PUSH1 0x7 PUSH1 0x20 MSTORE PUSH2 0x1A4D DUP9 DUP7 DUP4 KECCAK256 PUSH2 0x17A4 JUMP JUMPDEST DUP10 DUP2 MSTORE DUP4 PUSH1 0x20 MSTORE DUP5 TIMESTAMP SWAP2 KECCAK256 PUSH2 0x17A4 JUMP JUMPDEST ADD SLOAD SWAP1 MLOAD SWAP4 DUP5 SWAP4 DUP5 PUSH2 0x16B9 JUMP JUMPDEST SUB SWAP1 LOG2 SWAP1 JUMP JUMPDEST POP POP POP POP SWAP1 JUMP JUMPDEST PUSH4 0x4E487B71 PUSH1 0xE0 SHL DUP5 MSTORE PUSH1 0x21 PUSH1 0x4 MSTORE PUSH1 0x24 DUP5 REVERT JUMPDEST PUSH1 0x1 PUSH1 0x1 PUSH1 0x40 SHL SUB DUP2 GT PUSH2 0x9C9 JUMPI PUSH1 0x5 SHL PUSH1 0x20 ADD SWAP1 JUMP JUMPDEST SWAP1 PUSH2 0x1AAC DUP3 PUSH2 0x1A8B JUMP JUMPDEST PUSH2 0x1AB9 PUSH1 0x40 MLOAD SWAP2 DUP3 PUSH2 0x15DA JUMP JUMPDEST DUP3 DUP2 MSTORE DUP1 SWAP3 PUSH2 0x1ACA PUSH1 0x1F NOT SWAP2 PUSH2 0x1A8B JUMP JUMPDEST ADD SWAP1 PUSH1 0x20 CALLDATASIZE SWAP2 ADD CALLDATACOPY JUMP JUMPDEST SWAP2 SWAP1 DUP2 LT ISZERO PUSH2 0x13E3 JUMPI PUSH1 0x5 SHL ADD SWAP1 JUMP JUMPDEST DUP1 MLOAD DUP3 LT ISZERO PUSH2 0x13E3 JUMPI PUSH1 0x20 SWAP2 PUSH1 0x5 SHL ADD ADD SWAP1 JUMP JUMPDEST DUP1 ISZERO ISZERO DUP1 PUSH2 0x1B12 JUMPI JUMPDEST ISZERO PUSH2 0x1D2 JUMPI PUSH2 0x1B0F SWAP1 PUSH2 0x1B1E JUMP JUMPDEST SWAP1 JUMP JUMPDEST POP PUSH1 0x2 SLOAD DUP2 GT ISZERO PUSH2 0x1B01 JUMP JUMPDEST PUSH1 0x0 SWAP1 DUP1 DUP3 MSTORE PUSH1 0x6 PUSH1 0x20 MSTORE PUSH1 0x40 SWAP2 DUP3 DUP2 KECCAK256 SWAP3 DUP1 MLOAD SWAP1 PUSH2 0x1B3C DUP3 PUSH2 0x15AB JUMP JUMPDEST DUP5 SLOAD PUSH1 0x1 PUSH1 0x1 PUSH1 0xA0 SHL SUB AND DUP3 MSTORE PUSH1 0x1 DUP6 ADD SLOAD PUSH1 0x20 DUP4 ADD MSTORE PUSH2 0x1B5F PUSH1 0x2 DUP7 ADD PUSH2 0x15FD JUMP JUMPDEST DUP2 DUP4 ADD MSTORE PUSH1 0x3 DUP6 ADD SLOAD PUSH1 0x60 DUP4 ADD MSTORE PUSH1 0xB PUSH1 0x4 DUP7 ADD SLOAD SWAP6 PUSH1 0x80 DUP5 ADD SWAP7 DUP8 MSTORE PUSH1 0x5 DUP2 ADD SLOAD PUSH1 0xA0 DUP6 ADD MSTORE PUSH1 0x6 DUP2 ADD SLOAD PUSH1 0xC0 DUP6 ADD MSTORE PUSH1 0x7 DUP2 ADD SLOAD PUSH1 0xE0 DUP6 ADD MSTORE PUSH1 0x8 DUP2 ADD SLOAD PUSH2 0x100 DUP6 ADD MSTORE PUSH1 0x9 DUP2 ADD SLOAD PUSH2 0x120 DUP6 ADD MSTORE PUSH1 0xA DUP2 ADD SLOAD PUSH2 0x140 DUP6 ADD MSTORE ADD SLOAD SWAP2 PUSH2 0x1C0 PUSH1 0xFF PUSH2 0x160 DUP4 ADD SWAP5 PUSH2 0x1BD5 DUP3 DUP3 AND DUP8 PUSH2 0x177C JUMP JUMPDEST DUP2 DUP2 PUSH1 0x8 SHR AND PUSH2 0x180 DUP6 ADD MSTORE DUP2 DUP2 PUSH1 0x10 SHR AND PUSH2 0x1A0 DUP6 ADD MSTORE PUSH1 0x18 SHR AND ISZERO ISZERO SWAP2 ADD MSTORE DUP2 MLOAD PUSH1 0x2 DUP2 LT ISZERO PUSH2 0x1A77 JUMPI PUSH1 0x1 EQ DUP1 PUSH2 0x1C78 JUMPI JUMPDEST DUP1 PUSH2 0x1C59 JUMPI JUMPDEST PUSH2 0x1C49 JUMPI POP MLOAD SWAP1 PUSH1 0x2 DUP3 LT ISZERO PUSH2 0x1C35 JUMPI POP ISZERO PUSH2 0x1C30 JUMPI PUSH2 0x1B0F SWAP2 POP PUSH2 0x1DB8 JUMP JUMPDEST POP MLOAD SWAP1 JUMP JUMPDEST PUSH4 0x4E487B71 PUSH1 0xE0 SHL DUP2 MSTORE PUSH1 0x21 PUSH1 0x4 MSTORE PUSH1 0x24 SWAP1 REVERT JUMPDEST SWAP4 POP POP SWAP1 DUP2 MSTORE PUSH1 0x9 PUSH1 0x20 MSTORE KECCAK256 SLOAD SWAP1 JUMP JUMPDEST POP DUP4 DUP4 MSTORE PUSH1 0xA PUSH1 0x20 MSTORE PUSH2 0x12C PUSH2 0x1C72 DUP3 DUP6 KECCAK256 SLOAD TIMESTAMP PUSH2 0x17FA JUMP JUMPDEST LT PUSH2 0x1C10 JUMP JUMPDEST POP DUP4 DUP4 MSTORE PUSH1 0xA PUSH1 0x20 MSTORE DUP1 DUP4 KECCAK256 SLOAD ISZERO ISZERO PUSH2 0x1C0A JUMP JUMPDEST SWAP1 PUSH1 0x20 PUSH32 0x70D73D81E52A2DCA11D75C71D0F5006DFEE7A734C401A87C32F0939F26461AEE SWAP2 PUSH1 0x0 DUP5 DUP2 MSTORE PUSH1 0x6 DUP4 MSTORE PUSH2 0x1CCA DUP3 PUSH1 0xB PUSH1 0x40 DUP5 KECCAK256 ADD PUSH2 0x1788 JUMP JUMPDEST PUSH1 0x9 DUP4 MSTORE PUSH1 0x40 DUP2 KECCAK256 DUP1 SLOAD PUSH2 0x1CE6 JUMPI JUMPDEST POP POP PUSH1 0x40 MLOAD SWAP1 ISZERO ISZERO DUP2 MSTORE LOG2 JUMP JUMPDEST DUP2 SWAP1 SSTORE PUSH1 0xA DUP4 MSTORE PUSH1 0x40 DUP2 KECCAK256 SSTORE CODESIZE DUP1 PUSH2 0x1CD9 JUMP JUMPDEST PUSH1 0x40 MLOAD SWAP1 PUSH2 0x1D06 DUP3 PUSH2 0x15AB JUMP JUMPDEST DUP2 PUSH2 0x1C0 PUSH1 0x0 SWAP2 DUP3 DUP2 MSTORE DUP3 PUSH1 0x20 DUP3 ADD MSTORE PUSH1 0x60 PUSH1 0x40 DUP3 ADD MSTORE DUP3 PUSH1 0x60 DUP3 ADD MSTORE DUP3 PUSH1 0x80 DUP3 ADD MSTORE DUP3 PUSH1 0xA0 DUP3 ADD MSTORE DUP3 PUSH1 0xC0 DUP3 ADD MSTORE DUP3 PUSH1 0xE0 DUP3 ADD MSTORE DUP3 PUSH2 0x100 DUP3 ADD MSTORE DUP3 PUSH2 0x120 DUP3 ADD MSTORE DUP3 PUSH2 0x140 DUP3 ADD MSTORE DUP3 PUSH2 0x160 DUP3 ADD MSTORE DUP3 PUSH2 0x180 DUP3 ADD MSTORE DUP3 PUSH2 0x1A0 DUP3 ADD MSTORE ADD MSTORE JUMP JUMPDEST SWAP1 PUSH1 0x40 MLOAD SWAP2 DUP3 DUP2 SLOAD SWAP2 DUP3 DUP3 MSTORE PUSH1 0x20 SWAP3 DUP4 DUP4 ADD SWAP2 PUSH1 0x0 MSTORE DUP4 PUSH1 0x0 KECCAK256 SWAP4 PUSH1 0x0 SWAP1 JUMPDEST DUP3 DUP3 LT PUSH2 0x1D9E JUMPI POP POP POP PUSH2 0x163B SWAP3 POP SUB DUP4 PUSH2 0x15DA JUMP JUMPDEST DUP6 SLOAD DUP5 MSTORE PUSH1 0x1 SWAP6 DUP7 ADD SWAP6 DUP9 SWAP6 POP SWAP4 DUP2 ADD SWAP4 SWAP1 SWAP2 ADD SWAP1 PUSH2 0x1D88 JUMP JUMPDEST PUSH1 0x0 MSTORE PUSH1 0x6 PUSH1 0x20 MSTORE PUSH1 0x40 PUSH1 0x0 KECCAK256 PUSH1 0x40 MLOAD PUSH2 0x1DD1 DUP2 PUSH2 0x15AB JUMP JUMPDEST DUP2 SLOAD PUSH1 0x1 PUSH1 0x1 PUSH1 0xA0 SHL SUB AND DUP2 MSTORE PUSH1 0x1 DUP3 ADD SLOAD PUSH1 0x20 DUP3 ADD MSTORE PUSH2 0x1DF4 PUSH1 0x2 DUP4 ADD PUSH2 0x15FD JUMP JUMPDEST PUSH1 0x40 DUP3 ADD MSTORE PUSH1 0x3 DUP3 ADD SLOAD PUSH1 0x60 DUP3 ADD MSTORE PUSH1 0xB PUSH1 0x4 DUP4 ADD SLOAD SWAP3 PUSH1 0x80 DUP4 ADD SWAP4 DUP5 MSTORE PUSH1 0x5 DUP2 ADD SLOAD PUSH1 0xA0 DUP5 ADD MSTORE PUSH1 0x6 DUP2 ADD SLOAD PUSH1 0xC0 DUP5 ADD MSTORE PUSH1 0x7 DUP2 ADD SLOAD PUSH1 0xE0 DUP5 ADD MSTORE PUSH1 0x8 DUP2 ADD SLOAD PUSH2 0x100 DUP5 ADD MSTORE PUSH1 0x9 DUP2 ADD SLOAD PUSH2 0x120 DUP5 ADD MSTORE PUSH1 0xA DUP2 ADD SLOAD PUSH2 0x140 DUP5 ADD MSTORE ADD SLOAD PUSH1 0xFF PUSH2 0x160 DUP4 ADD SWAP2 PUSH2 0x1E67 DUP3 DUP3 AND DUP5 PUSH2 0x177C JUMP JUMPDEST DUP2 DUP2 PUSH1 0x8 SHR AND PUSH2 0x180 DUP6 ADD MSTORE DUP2 DUP2 PUSH1 0x10 SHR AND PUSH2 0x1A0 DUP6 ADD MSTORE PUSH1 0x18 SHR AND ISZERO ISZERO PUSH2 0x1C0 DUP4 ADD MSTORE MLOAD PUSH1 0x2 DUP2 LT ISZERO PUSH2 0x8F0 JUMPI ISZERO PUSH2 0x1C30 JUMPI PUSH2 0x1B0F SWAP2 POP PUSH1 0x60 DUP2 ADD DUP1 MLOAD SWAP1 PUSH1 0xC0 PUSH2 0x1EC7 PUSH2 0x100 DUP6 ADD SWAP4 PUSH2 0x1EC1 DUP6 MLOAD PUSH1 0xA0 DUP9 ADD MLOAD SWAP1 PUSH2 0x185A JUMP JUMPDEST SWAP1 PUSH2 0x172F JUMP JUMPDEST SWAP4 ADD MLOAD SWAP1 PUSH1 0x64 DUP3 GT DUP1 ISZERO SWAP1 PUSH2 0x1F21 JUMPI JUMPDEST PUSH2 0x1F1B JUMPI PUSH2 0x1EEC PUSH2 0x1F00 SWAP3 PUSH1 0x64 SWAP5 MLOAD SWAP1 PUSH2 0x1F2A JUMP JUMPDEST SWAP1 PUSH3 0x186A0 DUP1 DUP4 GT PUSH2 0x1F13 JUMPI JUMPDEST POP MLOAD PUSH2 0x185A JUMP JUMPDEST DIV SWAP1 DUP1 DUP3 GT ISZERO PUSH2 0x1F0E JUMPI POP SWAP1 JUMP JUMPDEST SWAP1 POP SWAP1 JUMP JUMPDEST SWAP2 POP CODESIZE PUSH2 0x1EF9 JUMP JUMPDEST POP POP POP SWAP1 JUMP JUMPDEST POP DUP3 MLOAD ISZERO PUSH2 0x1ED7 JUMP JUMPDEST SWAP1 DUP1 ISZERO PUSH2 0x1FCB JUMPI PUSH1 0x1 DUP1 DUP3 EQ PUSH2 0x1FC6 JUMPI PUSH1 0x64 DUP1 SWAP4 DUP4 JUMPDEST PUSH2 0x1F4B JUMPI POP POP POP POP SWAP1 JUMP JUMPDEST DUP3 DUP1 DUP6 AND EQ PUSH2 0x1F96 JUMPI JUMPDEST DUP1 ISZERO PUSH2 0x1F81 JUMPI DUP1 PUSH1 0x0 NOT DIV DUP2 GT PUSH2 0x1F7C JUMPI PUSH2 0x1F71 DUP2 DUP4 SWAP3 PUSH2 0x185A JUMP JUMPDEST DIV SWAP3 DUP3 SHR SWAP3 DUP4 PUSH2 0x1F40 JUMP JUMPDEST PUSH2 0x1A70 JUMP JUMPDEST PUSH1 0x24 PUSH1 0x0 PUSH4 0x4E487B71 PUSH1 0xE0 SHL DUP2 MSTORE PUSH1 0x12 PUSH1 0x4 MSTORE REVERT JUMPDEST SWAP4 DUP5 ISZERO PUSH2 0x1F81 JUMPI DUP5 PUSH1 0x0 NOT DIV DUP2 GT PUSH2 0x1FBA JUMPI PUSH2 0x1FB3 DUP6 DUP4 SWAP3 PUSH2 0x185A JUMP JUMPDEST DIV SWAP4 PUSH2 0x1F55 JUMP JUMPDEST POP POP POP POP POP PUSH3 0x186A0 SWAP1 JUMP JUMPDEST POP POP SWAP1 JUMP JUMPDEST POP POP PUSH1 0x64 SWAP1 JUMP INVALID DUP12 0xE0 SMOD SWAP13 MSTORE8 AND MSIZE EQ SGT PREVRANDAO 0xCD 0x1F 0xD0 LOG4 CALLCODE DUP5 NOT 0x49 PUSH32 0x9722A3DAAFE3B4186F6B6457E03C643B89A81273A1160FC920ED10CA2ABA86A4 SIGNEXTEND PC 0xB3 SUB SUB 0xEF SELFDESTRUCT 0xE8 DUP7 PUSH21 0x4CB758000000000000000000000000000000000000 "},"methodIdentifiers":{"MAX_FEE_PERCENTAGE()":"558e44d3","MAX_MULTIPLIER_EFFECT()":"d0272f9b","MIN_DEMAND_MULTIPLIER()":"4ff14874","PRICE_CACHE_DURATION()":"539f51db","bountyManager()":"b36b9ffd","clearPriceCache(uint256)":"d62182f7","contentCounter()":"e6a9aba3","contents(uint256)":"b5ecf912","emergencyToggleContent(uint256,bool)":"ae813729","emergencyWithdraw()":"db2e21bc","getContentInfo(uint256)":"7509c330","getContractStats()":"dfe6b5d6","getCurrentPrice(uint256)":"c55d0f56","getMultipleContentInfo(uint256[])":"f00084fb","getMultiplePrices(uint256[])":"f8b688f5","getPriceHistory(uint256)":"fd1a98a5","initialize(address,address,address)":"c0c53b8b","licenseRegistry()":"c2fda487","networkRebates()":"a7a512f8","owner()":"8da5cb5b","priceHistory(uint256,uint256)":"482f20a6","priceTimestamps(uint256,uint256)":"d0feffb0","publishContent(bytes32,string,uint8,uint256,uint256,uint256,uint256,uint256)":"dc19ea0e","purchaseLicense(uint256)":"c8a028a8","purchaseMultipleLicenses(uint256[])":"a9f5c953","renounceOwnership()":"715018a6","transferOwnership(address)":"f2fde38b","updateContent(uint256,bool)":"26bfde75","updateDefaultBountyPercentage(uint256)":"4c24c2c8"}}}}}