{"contracts/Web3TorrentFactory.sol":{"Web3TorrentFactory":{"abi":[{"inputs":[],"stateMutability":"nonpayable","type":"constructor"},{"inputs":[{"internalType":"address","name":"owner","type":"address"}],"name":"OwnableInvalidOwner","type":"error"},{"inputs":[{"internalType":"address","name":"account","type":"address"}],"name":"OwnableUnauthorizedAccount","type":"error"},{"anonymous":false,"inputs":[{"indexed":true,"internalType":"address","name":"previousOwner","type":"address"},{"indexed":true,"internalType":"address","name":"newOwner","type":"address"}],"name":"OwnershipTransferred","type":"event"},{"anonymous":false,"inputs":[{"indexed":true,"internalType":"uint256","name":"deploymentId","type":"uint256"},{"indexed":true,"internalType":"address","name":"deployer","type":"address"},{"indexed":true,"internalType":"address","name":"coreContract","type":"address"},{"indexed":false,"internalType":"address","name":"licenseRegistry","type":"address"},{"indexed":false,"internalType":"address","name":"bountyManager","type":"address"},{"indexed":false,"internalType":"address","name":"networkRebates","type":"address"}],"name":"SystemDeployed","type":"event"},{"inputs":[],"name":"deploySystem","outputs":[{"internalType":"uint256","name":"","type":"uint256"}],"stateMutability":"nonpayable","type":"function"},{"inputs":[],"name":"deploymentCounter","outputs":[{"internalType":"uint256","name":"","type":"uint256"}],"stateMutability":"view","type":"function"},{"inputs":[{"internalType":"uint256","name":"deploymentId","type":"uint256"}],"name":"deploymentExists","outputs":[{"internalType":"bool","name":"","type":"bool"}],"stateMutability":"view","type":"function"},{"inputs":[{"internalType":"uint256","name":"","type":"uint256"}],"name":"deployments","outputs":[{"internalType":"address","name":"coreContract","type":"address"},{"internalType":"address","name":"licenseRegistry","type":"address"},{"internalType":"address","name":"bountyManager","type":"address"},{"internalType":"address","name":"networkRebates","type":"address"},{"internalType":"address","name":"deployer","type":"address"},{"internalType":"uint256","name":"timestamp","type":"uint256"}],"stateMutability":"view","type":"function"},{"inputs":[{"internalType":"uint256","name":"deploymentId","type":"uint256"}],"name":"getCoreContract","outputs":[{"internalType":"address","name":"","type":"address"}],"stateMutability":"view","type":"function"},{"inputs":[{"internalType":"uint256","name":"deploymentId","type":"uint256"}],"name":"getDeployment","outputs":[{"components":[{"internalType":"address","name":"coreContract","type":"address"},{"internalType":"address","name":"licenseRegistry","type":"address"},{"internalType":"address","name":"bountyManager","type":"address"},{"internalType":"address","name":"networkRebates","type":"address"},{"internalType":"address","name":"deployer","type":"address"},{"internalType":"uint256","name":"timestamp","type":"uint256"}],"internalType":"struct Web3TorrentFactory.Deployment","name":"","type":"tuple"}],"stateMutability":"view","type":"function"},{"inputs":[{"internalType":"uint256","name":"deploymentId","type":"uint256"}],"name":"getDeploymentOwner","outputs":[{"internalType":"address","name":"","type":"address"}],"stateMutability":"view","type":"function"},{"inputs":[],"name":"getTotalDeployments","outputs":[{"internalType":"uint256","name":"","type":"uint256"}],"stateMutability":"view","type":"function"},{"inputs":[{"internalType":"address","name":"user","type":"address"}],"name":"getUserDeployments","outputs":[{"internalType":"uint256[]","name":"","type":"uint256[]"}],"stateMutability":"view","type":"function"},{"inputs":[],"name":"owner","outputs":[{"internalType":"address","name":"","type":"address"}],"stateMutability":"view","type":"function"},{"inputs":[],"name":"renounceOwnership","outputs":[],"stateMutability":"nonpayable","type":"function"},{"inputs":[{"internalType":"address","name":"newOwner","type":"address"}],"name":"transferOwnership","outputs":[],"stateMutability":"nonpayable","type":"function"},{"inputs":[{"internalType":"address","name":"","type":"address"},{"internalType":"uint256","name":"","type":"uint256"}],"name":"userDeployments","outputs":[{"internalType":"uint256","name":"","type":"uint256"}],"stateMutability":"view","type":"function"}],"evm":{"bytecode":{"linkReferences":{"contracts/DeploymentLib.sol":{"DeploymentLib":[{"length":20,"start":863}]}},"object":"6080806040523461007a5733156100645760008054336001600160a01b03198216811783556040519290916001600160a01b0316907f8be0079c531659141344cd1fd0a4f28419497f9722a3daafe3b4186f6b6457e09080a361097c90816100808239f35b631e4fbdf760e01b815260006004820152602490fd5b600080fdfe6080604081815260048036101561001557600080fd5b600092833560e01c90816306609bbe146108125750806316e38783146107bc578063246c751f1461012957806325da1698146106c85780633f04f34d1461067c578063630bdfac146105cf5780636dc58960146102b4578063715018a61461026c57806386778c3f146102345780638da5cb5b1461020c578063c1b2fa2f1461014c578063e83b86e1146101295763f2fde38b146100b257600080fd5b34610125576020366003190112610125576100cb61087e565b906100d46108c7565b6001600160a01b0391821692831561010f57505082546001600160a01b03198116831784551660008051602061095c8339815191528380a380f35b51631e4fbdf760e01b8152908101849052602490fd5b8280fd5b5050346101485781600319360112610148576020906001549051908152f35b5080fd5b50829034610148576020928360031936011261012557813580151580610200575b156101fc57835260028452808320548151638da5cb5b60e01b81526001600160a01b0393909186918391829087165afa9384156101f15780946101b4575b50505191168152f35b909193508482813d83116101ea575b6101cd8183610924565b810103126101e757506101df90610947565b9184806101ab565b80fd5b503d6101c3565b8251903d90823e3d90fd5b8380fd5b5060015481111561016d565b505034610148578160031936011261014857905490516001600160a01b039091168152602090f35b503461012557602036600319011261012557602092503590811515918261025f575b50519015158152f35b6001541015915038610256565b83346101e757806003193601126101e7576102856108c7565b80546001600160a01b03198116825581906001600160a01b031660008051602061095c8339815191528280a380f35b50903461012557826003193601126101255760015460001993908481146105bc57600101928360015573__$074ff6237342f1f4dfb62d3d8ae5c28ff2$__83519563547befb760e01b875260809283888281865af49788156105b257859861050d575b509685929160849860018060a01b0396879687968796878751169060209e8f92838a019d8e511692858b019d8e51169560608c019d8e511690519687958694630a454a0160e01b86528c8601526024850152604484015260648301525af49081156105035783916104cd575b50156101485760058b8d8a8c948b8f8c90600282808f81809151169c51169751169451169482519a6103b48c6108f3565b8b52878b01968752828b0194855260608b019586528a019633885260a08b0198428a528c525289209751169260018060a01b031993848954161788558c60018901915116848254161790558b60028801915116838254161790558a600387019151168282541617905589878601925116908254161790555191015533815260038b5288812090815492600160401b8410156104ba5750509284939261046183869560018796018155610899565b819291549060031b918d831b921b191617905551169551169351169151169084519283528683015283820152837f2f9ace03d9fa14aa4b4971cf2dac998f7e67b8247dab3f995d2a8250e350bed360603393a451908152f35b634e487b7160e01b825260419052602490fd5b90508c81813d83116104fc575b6104e48183610924565b81010312610125575180151581036101255738610383565b503d6104da565b8b513d85823e3d90fd5b9097508381813d83116105ab575b6105258183610924565b810103126105a7578551908482016001600160401b03811183821017610594579161058660608996959360849c95885261055e81610947565b845261056c60208201610947565b602085015261057c888201610947565b8885015201610947565b606082015298509192610317565b634e487b7160e01b875260418a52602487fd5b8480fd5b503d61051b565b86513d87823e3d90fd5b634e487b7160e01b825260118452602482fd5b8284346101e757602090816003193601126101e75782906001600160a01b036105f661087e565b16815260038352818120908251808584549182815201908194845286842090845b818110610668575050508161062d910382610924565b83519485948186019282875251809352850193925b82811061065157505050500390f35b835185528695509381019392810192600101610642565b825484529288019260019283019201610617565b50346101255760203660031901126101255735801515806106bc575b1561012557825260026020908152918190205490516001600160a01b039091168152f35b50600154811115610698565b5090346101255760203660031901126101255781358360a083516106eb816108f3565b82815282602082015282858201528260608201528260808201520152801515806107b0575b156101fc5783829160c09552600260205220908051918291610731836108f3565b60018060a01b039283918282818660a0600583808454169d8e87526060826003816001890154169760208b019889528c836002830154169b019a8b520154169a01998a528b0154169960808d019a8b5201549a01998a5284519a8b52511660208a015251169087015251166060850152511660808301525160a0820152f35b50600154811115610710565b5050346101485780600319360112610148576107d661087e565b6001600160a01b031682526003602052808220805460243593908410156101e7575060209261080491610899565b90549060031b1c9051908152f35b92919050346101fc5760203660031901126101fc578160c094823581526002602052209060018060a01b038083541693816001850154166005836002870154169380600388015416958701541695015495875260208701528501526060840152608083015260a0820152f35b600435906001600160a01b038216820361089457565b600080fd5b80548210156108b15760005260206000200190600090565b634e487b7160e01b600052603260045260246000fd5b6000546001600160a01b031633036108db57565b60405163118cdaa760e01b8152336004820152602490fd5b60c081019081106001600160401b0382111761090e57604052565b634e487b7160e01b600052604160045260246000fd5b601f909101601f19168101906001600160401b0382119082101761090e57604052565b51906001600160a01b03821682036108945756fe8be0079c531659141344cd1fd0a4f28419497f9722a3daafe3b4186f6b6457e0","opcodes":"PUSH1 0x80 DUP1 PUSH1 0x40 MSTORE CALLVALUE PUSH2 0x7A JUMPI CALLER ISZERO PUSH2 0x64 JUMPI PUSH1 0x0 DUP1 SLOAD CALLER PUSH1 0x1 PUSH1 0x1 PUSH1 0xA0 SHL SUB NOT DUP3 AND DUP2 OR DUP4 SSTORE PUSH1 0x40 MLOAD SWAP3 SWAP1 SWAP2 PUSH1 0x1 PUSH1 0x1 PUSH1 0xA0 SHL SUB AND SWAP1 PUSH32 0x8BE0079C531659141344CD1FD0A4F28419497F9722A3DAAFE3B4186F6B6457E0 SWAP1 DUP1 LOG3 PUSH2 0x97C SWAP1 DUP2 PUSH2 0x80 DUP3 CODECOPY RETURN JUMPDEST PUSH4 0x1E4FBDF7 PUSH1 0xE0 SHL DUP2 MSTORE PUSH1 0x0 PUSH1 0x4 DUP3 ADD MSTORE PUSH1 0x24 SWAP1 REVERT JUMPDEST PUSH1 0x0 DUP1 REVERT INVALID PUSH1 0x80 PUSH1 0x40 DUP2 DUP2 MSTORE PUSH1 0x4 DUP1 CALLDATASIZE LT ISZERO PUSH2 0x15 JUMPI PUSH1 0x0 DUP1 REVERT JUMPDEST PUSH1 0x0 SWAP3 DUP4 CALLDATALOAD PUSH1 0xE0 SHR SWAP1 DUP2 PUSH4 0x6609BBE EQ PUSH2 0x812 JUMPI POP DUP1 PUSH4 0x16E38783 EQ PUSH2 0x7BC JUMPI DUP1 PUSH4 0x246C751F EQ PUSH2 0x129 JUMPI DUP1 PUSH4 0x25DA1698 EQ PUSH2 0x6C8 JUMPI DUP1 PUSH4 0x3F04F34D EQ PUSH2 0x67C JUMPI DUP1 PUSH4 0x630BDFAC EQ PUSH2 0x5CF JUMPI DUP1 PUSH4 0x6DC58960 EQ PUSH2 0x2B4 JUMPI DUP1 PUSH4 0x715018A6 EQ PUSH2 0x26C JUMPI DUP1 PUSH4 0x86778C3F EQ PUSH2 0x234 JUMPI DUP1 PUSH4 0x8DA5CB5B EQ PUSH2 0x20C JUMPI DUP1 PUSH4 0xC1B2FA2F EQ PUSH2 0x14C JUMPI DUP1 PUSH4 0xE83B86E1 EQ PUSH2 0x129 JUMPI PUSH4 0xF2FDE38B EQ PUSH2 0xB2 JUMPI PUSH1 0x0 DUP1 REVERT JUMPDEST CALLVALUE PUSH2 0x125 JUMPI PUSH1 0x20 CALLDATASIZE PUSH1 0x3 NOT ADD SLT PUSH2 0x125 JUMPI PUSH2 0xCB PUSH2 0x87E JUMP JUMPDEST SWAP1 PUSH2 0xD4 PUSH2 0x8C7 JUMP JUMPDEST PUSH1 0x1 PUSH1 0x1 PUSH1 0xA0 SHL SUB SWAP2 DUP3 AND SWAP3 DUP4 ISZERO PUSH2 0x10F JUMPI POP POP DUP3 SLOAD PUSH1 0x1 PUSH1 0x1 PUSH1 0xA0 SHL SUB NOT DUP2 AND DUP4 OR DUP5 SSTORE AND PUSH1 0x0 DUP1 MLOAD PUSH1 0x20 PUSH2 0x95C DUP4 CODECOPY DUP2 MLOAD SWAP2 MSTORE DUP4 DUP1 LOG3 DUP1 RETURN JUMPDEST MLOAD PUSH4 0x1E4FBDF7 PUSH1 0xE0 SHL DUP2 MSTORE SWAP1 DUP2 ADD DUP5 SWAP1 MSTORE PUSH1 0x24 SWAP1 REVERT JUMPDEST DUP3 DUP1 REVERT JUMPDEST POP POP CALLVALUE PUSH2 0x148 JUMPI DUP2 PUSH1 0x3 NOT CALLDATASIZE ADD SLT PUSH2 0x148 JUMPI PUSH1 0x20 SWAP1 PUSH1 0x1 SLOAD SWAP1 MLOAD SWAP1 DUP2 MSTORE RETURN JUMPDEST POP DUP1 REVERT JUMPDEST POP DUP3 SWAP1 CALLVALUE PUSH2 0x148 JUMPI PUSH1 0x20 SWAP3 DUP4 PUSH1 0x3 NOT CALLDATASIZE ADD SLT PUSH2 0x125 JUMPI DUP2 CALLDATALOAD DUP1 ISZERO ISZERO DUP1 PUSH2 0x200 JUMPI JUMPDEST ISZERO PUSH2 0x1FC JUMPI DUP4 MSTORE PUSH1 0x2 DUP5 MSTORE DUP1 DUP4 KECCAK256 SLOAD DUP2 MLOAD PUSH4 0x8DA5CB5B PUSH1 0xE0 SHL DUP2 MSTORE PUSH1 0x1 PUSH1 0x1 PUSH1 0xA0 SHL SUB SWAP4 SWAP1 SWAP2 DUP7 SWAP2 DUP4 SWAP2 DUP3 SWAP1 DUP8 AND GAS STATICCALL SWAP4 DUP5 ISZERO PUSH2 0x1F1 JUMPI DUP1 SWAP5 PUSH2 0x1B4 JUMPI JUMPDEST POP POP MLOAD SWAP2 AND DUP2 MSTORE RETURN JUMPDEST SWAP1 SWAP2 SWAP4 POP DUP5 DUP3 DUP2 RETURNDATASIZE DUP4 GT PUSH2 0x1EA JUMPI JUMPDEST PUSH2 0x1CD DUP2 DUP4 PUSH2 0x924 JUMP JUMPDEST DUP2 ADD SUB SLT PUSH2 0x1E7 JUMPI POP PUSH2 0x1DF SWAP1 PUSH2 0x947 JUMP JUMPDEST SWAP2 DUP5 DUP1 PUSH2 0x1AB JUMP JUMPDEST DUP1 REVERT JUMPDEST POP RETURNDATASIZE PUSH2 0x1C3 JUMP JUMPDEST DUP3 MLOAD SWAP1 RETURNDATASIZE SWAP1 DUP3 RETURNDATACOPY RETURNDATASIZE SWAP1 REVERT JUMPDEST DUP4 DUP1 REVERT JUMPDEST POP PUSH1 0x1 SLOAD DUP2 GT ISZERO PUSH2 0x16D JUMP JUMPDEST POP POP CALLVALUE PUSH2 0x148 JUMPI DUP2 PUSH1 0x3 NOT CALLDATASIZE ADD SLT PUSH2 0x148 JUMPI SWAP1 SLOAD SWAP1 MLOAD PUSH1 0x1 PUSH1 0x1 PUSH1 0xA0 SHL SUB SWAP1 SWAP2 AND DUP2 MSTORE PUSH1 0x20 SWAP1 RETURN JUMPDEST POP CALLVALUE PUSH2 0x125 JUMPI PUSH1 0x20 CALLDATASIZE PUSH1 0x3 NOT ADD SLT PUSH2 0x125 JUMPI PUSH1 0x20 SWAP3 POP CALLDATALOAD SWAP1 DUP2 ISZERO ISZERO SWAP2 DUP3 PUSH2 0x25F JUMPI JUMPDEST POP MLOAD SWAP1 ISZERO ISZERO DUP2 MSTORE RETURN JUMPDEST PUSH1 0x1 SLOAD LT ISZERO SWAP2 POP CODESIZE PUSH2 0x256 JUMP JUMPDEST DUP4 CALLVALUE PUSH2 0x1E7 JUMPI DUP1 PUSH1 0x3 NOT CALLDATASIZE ADD SLT PUSH2 0x1E7 JUMPI PUSH2 0x285 PUSH2 0x8C7 JUMP JUMPDEST DUP1 SLOAD PUSH1 0x1 PUSH1 0x1 PUSH1 0xA0 SHL SUB NOT DUP2 AND DUP3 SSTORE DUP2 SWAP1 PUSH1 0x1 PUSH1 0x1 PUSH1 0xA0 SHL SUB AND PUSH1 0x0 DUP1 MLOAD PUSH1 0x20 PUSH2 0x95C DUP4 CODECOPY DUP2 MLOAD SWAP2 MSTORE DUP3 DUP1 LOG3 DUP1 RETURN JUMPDEST POP SWAP1 CALLVALUE PUSH2 0x125 JUMPI DUP3 PUSH1 0x3 NOT CALLDATASIZE ADD SLT PUSH2 0x125 JUMPI PUSH1 0x1 SLOAD PUSH1 0x0 NOT SWAP4 SWAP1 DUP5 DUP2 EQ PUSH2 0x5BC JUMPI PUSH1 0x1 ADD SWAP3 DUP4 PUSH1 0x1 SSTORE PUSH20 0x0 DUP4 MLOAD SWAP6 PUSH4 0x547BEFB7 PUSH1 0xE0 SHL DUP8 MSTORE PUSH1 0x80 SWAP3 DUP4 DUP9 DUP3 DUP2 DUP7 GAS DELEGATECALL SWAP8 DUP9 ISZERO PUSH2 0x5B2 JUMPI DUP6 SWAP9 PUSH2 0x50D JUMPI JUMPDEST POP SWAP7 DUP6 SWAP3 SWAP2 PUSH1 0x84 SWAP9 PUSH1 0x1 DUP1 PUSH1 0xA0 SHL SUB SWAP7 DUP8 SWAP7 DUP8 SWAP7 DUP8 SWAP7 DUP8 DUP8 MLOAD AND SWAP1 PUSH1 0x20 SWAP15 DUP16 SWAP3 DUP4 DUP11 ADD SWAP14 DUP15 MLOAD AND SWAP3 DUP6 DUP12 ADD SWAP14 DUP15 MLOAD AND SWAP6 PUSH1 0x60 DUP13 ADD SWAP14 DUP15 MLOAD AND SWAP1 MLOAD SWAP7 DUP8 SWAP6 DUP7 SWAP5 PUSH4 0xA454A01 PUSH1 0xE0 SHL DUP7 MSTORE DUP13 DUP7 ADD MSTORE PUSH1 0x24 DUP6 ADD MSTORE PUSH1 0x44 DUP5 ADD MSTORE PUSH1 0x64 DUP4 ADD MSTORE GAS DELEGATECALL SWAP1 DUP2 ISZERO PUSH2 0x503 JUMPI DUP4 SWAP2 PUSH2 0x4CD JUMPI JUMPDEST POP ISZERO PUSH2 0x148 JUMPI PUSH1 0x5 DUP12 DUP14 DUP11 DUP13 SWAP5 DUP12 DUP16 DUP13 SWAP1 PUSH1 0x2 DUP3 DUP1 DUP16 DUP2 DUP1 SWAP2 MLOAD AND SWAP13 MLOAD AND SWAP8 MLOAD AND SWAP5 MLOAD AND SWAP5 DUP3 MLOAD SWAP11 PUSH2 0x3B4 DUP13 PUSH2 0x8F3 JUMP JUMPDEST DUP12 MSTORE DUP8 DUP12 ADD SWAP7 DUP8 MSTORE DUP3 DUP12 ADD SWAP5 DUP6 MSTORE PUSH1 0x60 DUP12 ADD SWAP6 DUP7 MSTORE DUP11 ADD SWAP7 CALLER DUP9 MSTORE PUSH1 0xA0 DUP12 ADD SWAP9 TIMESTAMP DUP11 MSTORE DUP13 MSTORE MSTORE DUP10 KECCAK256 SWAP8 MLOAD AND SWAP3 PUSH1 0x1 DUP1 PUSH1 0xA0 SHL SUB NOT SWAP4 DUP5 DUP10 SLOAD AND OR DUP9 SSTORE DUP13 PUSH1 0x1 DUP10 ADD SWAP2 MLOAD AND DUP5 DUP3 SLOAD AND OR SWAP1 SSTORE DUP12 PUSH1 0x2 DUP9 ADD SWAP2 MLOAD AND DUP4 DUP3 SLOAD AND OR SWAP1 SSTORE DUP11 PUSH1 0x3 DUP8 ADD SWAP2 MLOAD AND DUP3 DUP3 SLOAD AND OR SWAP1 SSTORE DUP10 DUP8 DUP7 ADD SWAP3 MLOAD AND SWAP1 DUP3 SLOAD AND OR SWAP1 SSTORE MLOAD SWAP2 ADD SSTORE CALLER DUP2 MSTORE PUSH1 0x3 DUP12 MSTORE DUP9 DUP2 KECCAK256 SWAP1 DUP2 SLOAD SWAP3 PUSH1 0x1 PUSH1 0x40 SHL DUP5 LT ISZERO PUSH2 0x4BA JUMPI POP POP SWAP3 DUP5 SWAP4 SWAP3 PUSH2 0x461 DUP4 DUP7 SWAP6 PUSH1 0x1 DUP8 SWAP7 ADD DUP2 SSTORE PUSH2 0x899 JUMP JUMPDEST DUP2 SWAP3 SWAP2 SLOAD SWAP1 PUSH1 0x3 SHL SWAP2 DUP14 DUP4 SHL SWAP3 SHL NOT AND OR SWAP1 SSTORE MLOAD AND SWAP6 MLOAD AND SWAP4 MLOAD AND SWAP2 MLOAD AND SWAP1 DUP5 MLOAD SWAP3 DUP4 MSTORE DUP7 DUP4 ADD MSTORE DUP4 DUP3 ADD MSTORE DUP4 PUSH32 0x2F9ACE03D9FA14AA4B4971CF2DAC998F7E67B8247DAB3F995D2A8250E350BED3 PUSH1 0x60 CALLER SWAP4 LOG4 MLOAD SWAP1 DUP2 MSTORE RETURN JUMPDEST PUSH4 0x4E487B71 PUSH1 0xE0 SHL DUP3 MSTORE PUSH1 0x41 SWAP1 MSTORE PUSH1 0x24 SWAP1 REVERT JUMPDEST SWAP1 POP DUP13 DUP2 DUP2 RETURNDATASIZE DUP4 GT PUSH2 0x4FC JUMPI JUMPDEST PUSH2 0x4E4 DUP2 DUP4 PUSH2 0x924 JUMP JUMPDEST DUP2 ADD SUB SLT PUSH2 0x125 JUMPI MLOAD DUP1 ISZERO ISZERO DUP2 SUB PUSH2 0x125 JUMPI CODESIZE PUSH2 0x383 JUMP JUMPDEST POP RETURNDATASIZE PUSH2 0x4DA JUMP JUMPDEST DUP12 MLOAD RETURNDATASIZE DUP6 DUP3 RETURNDATACOPY RETURNDATASIZE SWAP1 REVERT JUMPDEST SWAP1 SWAP8 POP DUP4 DUP2 DUP2 RETURNDATASIZE DUP4 GT PUSH2 0x5AB JUMPI JUMPDEST PUSH2 0x525 DUP2 DUP4 PUSH2 0x924 JUMP JUMPDEST DUP2 ADD SUB SLT PUSH2 0x5A7 JUMPI DUP6 MLOAD SWAP1 DUP5 DUP3 ADD PUSH1 0x1 PUSH1 0x1 PUSH1 0x40 SHL SUB DUP2 GT DUP4 DUP3 LT OR PUSH2 0x594 JUMPI SWAP2 PUSH2 0x586 PUSH1 0x60 DUP10 SWAP7 SWAP6 SWAP4 PUSH1 0x84 SWAP13 SWAP6 DUP9 MSTORE PUSH2 0x55E DUP2 PUSH2 0x947 JUMP JUMPDEST DUP5 MSTORE PUSH2 0x56C PUSH1 0x20 DUP3 ADD PUSH2 0x947 JUMP JUMPDEST PUSH1 0x20 DUP6 ADD MSTORE PUSH2 0x57C DUP9 DUP3 ADD PUSH2 0x947 JUMP JUMPDEST DUP9 DUP6 ADD MSTORE ADD PUSH2 0x947 JUMP JUMPDEST PUSH1 0x60 DUP3 ADD MSTORE SWAP9 POP SWAP2 SWAP3 PUSH2 0x317 JUMP JUMPDEST PUSH4 0x4E487B71 PUSH1 0xE0 SHL DUP8 MSTORE PUSH1 0x41 DUP11 MSTORE PUSH1 0x24 DUP8 REVERT JUMPDEST DUP5 DUP1 REVERT JUMPDEST POP RETURNDATASIZE PUSH2 0x51B JUMP JUMPDEST DUP7 MLOAD RETURNDATASIZE DUP8 DUP3 RETURNDATACOPY RETURNDATASIZE SWAP1 REVERT JUMPDEST PUSH4 0x4E487B71 PUSH1 0xE0 SHL DUP3 MSTORE PUSH1 0x11 DUP5 MSTORE PUSH1 0x24 DUP3 REVERT JUMPDEST DUP3 DUP5 CALLVALUE PUSH2 0x1E7 JUMPI PUSH1 0x20 SWAP1 DUP2 PUSH1 0x3 NOT CALLDATASIZE ADD SLT PUSH2 0x1E7 JUMPI DUP3 SWAP1 PUSH1 0x1 PUSH1 0x1 PUSH1 0xA0 SHL SUB PUSH2 0x5F6 PUSH2 0x87E JUMP JUMPDEST AND DUP2 MSTORE PUSH1 0x3 DUP4 MSTORE DUP2 DUP2 KECCAK256 SWAP1 DUP3 MLOAD DUP1 DUP6 DUP5 SLOAD SWAP2 DUP3 DUP2 MSTORE ADD SWAP1 DUP2 SWAP5 DUP5 MSTORE DUP7 DUP5 KECCAK256 SWAP1 DUP5 JUMPDEST DUP2 DUP2 LT PUSH2 0x668 JUMPI POP POP POP DUP2 PUSH2 0x62D SWAP2 SUB DUP3 PUSH2 0x924 JUMP JUMPDEST DUP4 MLOAD SWAP5 DUP6 SWAP5 DUP2 DUP7 ADD SWAP3 DUP3 DUP8 MSTORE MLOAD DUP1 SWAP4 MSTORE DUP6 ADD SWAP4 SWAP3 JUMPDEST DUP3 DUP2 LT PUSH2 0x651 JUMPI POP POP POP POP SUB SWAP1 RETURN JUMPDEST DUP4 MLOAD DUP6 MSTORE DUP7 SWAP6 POP SWAP4 DUP2 ADD SWAP4 SWAP3 DUP2 ADD SWAP3 PUSH1 0x1 ADD PUSH2 0x642 JUMP JUMPDEST DUP3 SLOAD DUP5 MSTORE SWAP3 DUP9 ADD SWAP3 PUSH1 0x1 SWAP3 DUP4 ADD SWAP3 ADD PUSH2 0x617 JUMP JUMPDEST POP CALLVALUE PUSH2 0x125 JUMPI PUSH1 0x20 CALLDATASIZE PUSH1 0x3 NOT ADD SLT PUSH2 0x125 JUMPI CALLDATALOAD DUP1 ISZERO ISZERO DUP1 PUSH2 0x6BC JUMPI JUMPDEST ISZERO PUSH2 0x125 JUMPI DUP3 MSTORE PUSH1 0x2 PUSH1 0x20 SWAP1 DUP2 MSTORE SWAP2 DUP2 SWAP1 KECCAK256 SLOAD SWAP1 MLOAD PUSH1 0x1 PUSH1 0x1 PUSH1 0xA0 SHL SUB SWAP1 SWAP2 AND DUP2 MSTORE RETURN JUMPDEST POP PUSH1 0x1 SLOAD DUP2 GT ISZERO PUSH2 0x698 JUMP JUMPDEST POP SWAP1 CALLVALUE PUSH2 0x125 JUMPI PUSH1 0x20 CALLDATASIZE PUSH1 0x3 NOT ADD SLT PUSH2 0x125 JUMPI DUP2 CALLDATALOAD DUP4 PUSH1 0xA0 DUP4 MLOAD PUSH2 0x6EB DUP2 PUSH2 0x8F3 JUMP JUMPDEST DUP3 DUP2 MSTORE DUP3 PUSH1 0x20 DUP3 ADD MSTORE DUP3 DUP6 DUP3 ADD MSTORE DUP3 PUSH1 0x60 DUP3 ADD MSTORE DUP3 PUSH1 0x80 DUP3 ADD MSTORE ADD MSTORE DUP1 ISZERO ISZERO DUP1 PUSH2 0x7B0 JUMPI JUMPDEST ISZERO PUSH2 0x1FC JUMPI DUP4 DUP3 SWAP2 PUSH1 0xC0 SWAP6 MSTORE PUSH1 0x2 PUSH1 0x20 MSTORE KECCAK256 SWAP1 DUP1 MLOAD SWAP2 DUP3 SWAP2 PUSH2 0x731 DUP4 PUSH2 0x8F3 JUMP JUMPDEST PUSH1 0x1 DUP1 PUSH1 0xA0 SHL SUB SWAP3 DUP4 SWAP2 DUP3 DUP3 DUP2 DUP7 PUSH1 0xA0 PUSH1 0x5 DUP4 DUP1 DUP5 SLOAD AND SWAP14 DUP15 DUP8 MSTORE PUSH1 0x60 DUP3 PUSH1 0x3 DUP2 PUSH1 0x1 DUP10 ADD SLOAD AND SWAP8 PUSH1 0x20 DUP12 ADD SWAP9 DUP10 MSTORE DUP13 DUP4 PUSH1 0x2 DUP4 ADD SLOAD AND SWAP12 ADD SWAP11 DUP12 MSTORE ADD SLOAD AND SWAP11 ADD SWAP10 DUP11 MSTORE DUP12 ADD SLOAD AND SWAP10 PUSH1 0x80 DUP14 ADD SWAP11 DUP12 MSTORE ADD SLOAD SWAP11 ADD SWAP10 DUP11 MSTORE DUP5 MLOAD SWAP11 DUP12 MSTORE MLOAD AND PUSH1 0x20 DUP11 ADD MSTORE MLOAD AND SWAP1 DUP8 ADD MSTORE MLOAD AND PUSH1 0x60 DUP6 ADD MSTORE MLOAD AND PUSH1 0x80 DUP4 ADD MSTORE MLOAD PUSH1 0xA0 DUP3 ADD MSTORE RETURN JUMPDEST POP PUSH1 0x1 SLOAD DUP2 GT ISZERO PUSH2 0x710 JUMP JUMPDEST POP POP CALLVALUE PUSH2 0x148 JUMPI DUP1 PUSH1 0x3 NOT CALLDATASIZE ADD SLT PUSH2 0x148 JUMPI PUSH2 0x7D6 PUSH2 0x87E JUMP JUMPDEST PUSH1 0x1 PUSH1 0x1 PUSH1 0xA0 SHL SUB AND DUP3 MSTORE PUSH1 0x3 PUSH1 0x20 MSTORE DUP1 DUP3 KECCAK256 DUP1 SLOAD PUSH1 0x24 CALLDATALOAD SWAP4 SWAP1 DUP5 LT ISZERO PUSH2 0x1E7 JUMPI POP PUSH1 0x20 SWAP3 PUSH2 0x804 SWAP2 PUSH2 0x899 JUMP JUMPDEST SWAP1 SLOAD SWAP1 PUSH1 0x3 SHL SHR SWAP1 MLOAD SWAP1 DUP2 MSTORE RETURN JUMPDEST SWAP3 SWAP2 SWAP1 POP CALLVALUE PUSH2 0x1FC JUMPI PUSH1 0x20 CALLDATASIZE PUSH1 0x3 NOT ADD SLT PUSH2 0x1FC JUMPI DUP2 PUSH1 0xC0 SWAP5 DUP3 CALLDATALOAD DUP2 MSTORE PUSH1 0x2 PUSH1 0x20 MSTORE KECCAK256 SWAP1 PUSH1 0x1 DUP1 PUSH1 0xA0 SHL SUB DUP1 DUP4 SLOAD AND SWAP4 DUP2 PUSH1 0x1 DUP6 ADD SLOAD AND PUSH1 0x5 DUP4 PUSH1 0x2 DUP8 ADD SLOAD AND SWAP4 DUP1 PUSH1 0x3 DUP9 ADD SLOAD AND SWAP6 DUP8 ADD SLOAD AND SWAP6 ADD SLOAD SWAP6 DUP8 MSTORE PUSH1 0x20 DUP8 ADD MSTORE DUP6 ADD MSTORE PUSH1 0x60 DUP5 ADD MSTORE PUSH1 0x80 DUP4 ADD MSTORE PUSH1 0xA0 DUP3 ADD MSTORE RETURN JUMPDEST PUSH1 0x4 CALLDATALOAD SWAP1 PUSH1 0x1 PUSH1 0x1 PUSH1 0xA0 SHL SUB DUP3 AND DUP3 SUB PUSH2 0x894 JUMPI JUMP JUMPDEST PUSH1 0x0 DUP1 REVERT JUMPDEST DUP1 SLOAD DUP3 LT ISZERO PUSH2 0x8B1 JUMPI PUSH1 0x0 MSTORE PUSH1 0x20 PUSH1 0x0 KECCAK256 ADD SWAP1 PUSH1 0x0 SWAP1 JUMP JUMPDEST PUSH4 0x4E487B71 PUSH1 0xE0 SHL PUSH1 0x0 MSTORE PUSH1 0x32 PUSH1 0x4 MSTORE PUSH1 0x24 PUSH1 0x0 REVERT JUMPDEST PUSH1 0x0 SLOAD PUSH1 0x1 PUSH1 0x1 PUSH1 0xA0 SHL SUB AND CALLER SUB PUSH2 0x8DB JUMPI JUMP JUMPDEST PUSH1 0x40 MLOAD PUSH4 0x118CDAA7 PUSH1 0xE0 SHL DUP2 MSTORE CALLER PUSH1 0x4 DUP3 ADD MSTORE PUSH1 0x24 SWAP1 REVERT JUMPDEST PUSH1 0xC0 DUP2 ADD SWAP1 DUP2 LT PUSH1 0x1 PUSH1 0x1 PUSH1 0x40 SHL SUB DUP3 GT OR PUSH2 0x90E JUMPI PUSH1 0x40 MSTORE JUMP JUMPDEST PUSH4 0x4E487B71 PUSH1 0xE0 SHL PUSH1 0x0 MSTORE PUSH1 0x41 PUSH1 0x4 MSTORE PUSH1 0x24 PUSH1 0x0 REVERT JUMPDEST PUSH1 0x1F SWAP1 SWAP2 ADD PUSH1 0x1F NOT AND DUP2 ADD SWAP1 PUSH1 0x1 PUSH1 0x1 PUSH1 0x40 SHL SUB DUP3 GT SWAP1 DUP3 LT OR PUSH2 0x90E JUMPI PUSH1 0x40 MSTORE JUMP JUMPDEST MLOAD SWAP1 PUSH1 0x1 PUSH1 0x1 PUSH1 0xA0 SHL SUB DUP3 AND DUP3 SUB PUSH2 0x894 JUMPI JUMP INVALID DUP12 0xE0 SMOD SWAP13 MSTORE8 AND MSIZE EQ SGT PREVRANDAO 0xCD 0x1F 0xD0 LOG4 CALLCODE DUP5 NOT 0x49 PUSH32 0x9722A3DAAFE3B4186F6B6457E000000000000000000000000000000000000000 "},"methodIdentifiers":{"deploySystem()":"6dc58960","deploymentCounter()":"e83b86e1","deploymentExists(uint256)":"86778c3f","deployments(uint256)":"06609bbe","getCoreContract(uint256)":"3f04f34d","getDeployment(uint256)":"25da1698","getDeploymentOwner(uint256)":"c1b2fa2f","getTotalDeployments()":"246c751f","getUserDeployments(address)":"630bdfac","owner()":"8da5cb5b","renounceOwnership()":"715018a6","transferOwnership(address)":"f2fde38b","userDeployments(address,uint256)":"16e38783"}}}}}