{
  "_format": "hh-sol-artifact-1",
  "contractName": "BountyManager",
  "sourceName": "contracts/BountyManager.sol",
  "abi": [
    {
      "inputs": [
        {
          "internalType": "address",
          "name": "_coreContract",
          "type": "address"
        },
        {
          "internalType": "address",
          "name": "_licenseRegistry",
          "type": "address"
        }
      ],
      "stateMutability": "nonpayable",
      "type": "constructor"
    },
    {
      "anonymous": false,
      "inputs": [
        {
          "indexed": true,
          "internalType": "uint256",
          "name": "contentId",
          "type": "uint256"
        },
        {
          "indexed": false,
          "internalType": "uint256",
          "name": "amount",
          "type": "uint256"
        },
        {
          "indexed": false,
          "internalType": "uint256",
          "name": "totalPool",
          "type": "uint256"
        }
      ],
      "name": "BountyPoolFunded",
      "type": "event"
    },
    {
      "anonymous": false,
      "inputs": [
        {
          "indexed": true,
          "internalType": "uint256",
          "name": "submissionId",
          "type": "uint256"
        },
        {
          "indexed": true,
          "internalType": "address",
          "name": "hunter",
          "type": "address"
        },
        {
          "indexed": false,
          "internalType": "uint256",
          "name": "rewardAmount",
          "type": "uint256"
        }
      ],
      "name": "BountyRewarded",
      "type": "event"
    },
    {
      "anonymous": false,
      "inputs": [
        {
          "indexed": true,
          "internalType": "uint256",
          "name": "submissionId",
          "type": "uint256"
        },
        {
          "indexed": true,
          "internalType": "uint256",
          "name": "contentId",
          "type": "uint256"
        },
        {
          "indexed": true,
          "internalType": "address",
          "name": "hunter",
          "type": "address"
        },
        {
          "indexed": false,
          "internalType": "string",
          "name": "platform",
          "type": "string"
        },
        {
          "indexed": false,
          "internalType": "string",
          "name": "platformContentId",
          "type": "string"
        }
      ],
      "name": "BountySubmitted",
      "type": "event"
    },
    {
      "anonymous": false,
      "inputs": [
        {
          "indexed": true,
          "internalType": "uint256",
          "name": "submissionId",
          "type": "uint256"
        },
        {
          "indexed": true,
          "internalType": "address",
          "name": "verifier",
          "type": "address"
        },
        {
          "indexed": false,
          "internalType": "bool",
          "name": "approved",
          "type": "bool"
        }
      ],
      "name": "BountyVerified",
      "type": "event"
    },
    {
      "anonymous": false,
      "inputs": [
        {
          "indexed": true,
          "internalType": "address",
          "name": "verifier",
          "type": "address"
        }
      ],
      "name": "VerifierAdded",
      "type": "event"
    },
    {
      "anonymous": false,
      "inputs": [
        {
          "indexed": true,
          "internalType": "address",
          "name": "verifier",
          "type": "address"
        }
      ],
      "name": "VerifierRemoved",
      "type": "event"
    },
    {
      "inputs": [
        {
          "internalType": "uint256",
          "name": "contentId",
          "type": "uint256"
        }
      ],
      "name": "addToBountyPool",
      "outputs": [],
      "stateMutability": "payable",
      "type": "function"
    },
    {
      "inputs": [
        {
          "internalType": "address",
          "name": "verifier",
          "type": "address"
        }
      ],
      "name": "addVerifier",
      "outputs": [],
      "stateMutability": "nonpayable",
      "type": "function"
    },
    {
      "inputs": [
        {
          "internalType": "uint256",
          "name": "",
          "type": "uint256"
        }
      ],
      "name": "bountyPools",
      "outputs": [
        {
          "internalType": "uint256",
          "name": "",
          "type": "uint256"
        }
      ],
      "stateMutability": "view",
      "type": "function"
    },
    {
      "inputs": [
        {
          "internalType": "uint256",
          "name": "",
          "type": "uint256"
        },
        {
          "internalType": "uint256",
          "name": "",
          "type": "uint256"
        }
      ],
      "name": "contentSubmissions",
      "outputs": [
        {
          "internalType": "uint256",
          "name": "",
          "type": "uint256"
        }
      ],
      "stateMutability": "view",
      "type": "function"
    },
    {
      "inputs": [],
      "name": "coreContract",
      "outputs": [
        {
          "internalType": "address",
          "name": "",
          "type": "address"
        }
      ],
      "stateMutability": "view",
      "type": "function"
    },
    {
      "inputs": [
        {
          "internalType": "uint256",
          "name": "contentId",
          "type": "uint256"
        }
      ],
      "name": "distributeRewards",
      "outputs": [],
      "stateMutability": "nonpayable",
      "type": "function"
    },
    {
      "inputs": [
        {
          "internalType": "uint256",
          "name": "contentId",
          "type": "uint256"
        },
        {
          "internalType": "uint256",
          "name": "amount",
          "type": "uint256"
        }
      ],
      "name": "emergencyWithdraw",
      "outputs": [],
      "stateMutability": "nonpayable",
      "type": "function"
    },
    {
      "inputs": [
        {
          "internalType": "uint256",
          "name": "contentId",
          "type": "uint256"
        }
      ],
      "name": "getContentSubmissions",
      "outputs": [
        {
          "internalType": "uint256[]",
          "name": "",
          "type": "uint256[]"
        }
      ],
      "stateMutability": "view",
      "type": "function"
    },
    {
      "inputs": [
        {
          "internalType": "address",
          "name": "hunter",
          "type": "address"
        }
      ],
      "name": "getHunterStats",
      "outputs": [
        {
          "internalType": "uint256",
          "name": "verifiedTakedowns",
          "type": "uint256"
        },
        {
          "internalType": "uint256",
          "name": "totalEarnings",
          "type": "uint256"
        }
      ],
      "stateMutability": "view",
      "type": "function"
    },
    {
      "inputs": [
        {
          "internalType": "address",
          "name": "hunter",
          "type": "address"
        }
      ],
      "name": "getHunterSubmissions",
      "outputs": [
        {
          "internalType": "uint256[]",
          "name": "",
          "type": "uint256[]"
        }
      ],
      "stateMutability": "view",
      "type": "function"
    },
    {
      "inputs": [
        {
          "internalType": "uint256",
          "name": "submissionId",
          "type": "uint256"
        }
      ],
      "name": "getSubmission",
      "outputs": [
        {
          "components": [
            {
              "internalType": "uint256",
              "name": "submissionId",
              "type": "uint256"
            },
            {
              "internalType": "address",
              "name": "hunter",
              "type": "address"
            },
            {
              "internalType": "uint256",
              "name": "contentId",
              "type": "uint256"
            },
            {
              "internalType": "string",
              "name": "platform",
              "type": "string"
            },
            {
              "internalType": "string",
              "name": "platformContentId",
              "type": "string"
            },
            {
              "internalType": "string",
              "name": "contentUrl",
              "type": "string"
            },
            {
              "internalType": "bytes",
              "name": "zkTLSProof",
              "type": "bytes"
            },
            {
              "internalType": "uint256",
              "name": "submissionTimestamp",
              "type": "uint256"
            },
            {
              "internalType": "enum BountyManager.BountyStatus",
              "name": "status",
              "type": "uint8"
            },
            {
              "internalType": "string",
              "name": "rejectionReason",
              "type": "string"
            },
            {
              "internalType": "uint256",
              "name": "rewardAmount",
              "type": "uint256"
            }
          ],
          "internalType": "struct BountyManager.BountySubmission",
          "name": "",
          "type": "tuple"
        }
      ],
      "stateMutability": "view",
      "type": "function"
    },
    {
      "inputs": [
        {
          "internalType": "address",
          "name": "",
          "type": "address"
        }
      ],
      "name": "hunterEarnings",
      "outputs": [
        {
          "internalType": "uint256",
          "name": "",
          "type": "uint256"
        }
      ],
      "stateMutability": "view",
      "type": "function"
    },
    {
      "inputs": [
        {
          "internalType": "address",
          "name": "",
          "type": "address"
        }
      ],
      "name": "hunterStats",
      "outputs": [
        {
          "internalType": "uint256",
          "name": "",
          "type": "uint256"
        }
      ],
      "stateMutability": "view",
      "type": "function"
    },
    {
      "inputs": [
        {
          "internalType": "address",
          "name": "",
          "type": "address"
        },
        {
          "internalType": "uint256",
          "name": "",
          "type": "uint256"
        }
      ],
      "name": "hunterSubmissions",
      "outputs": [
        {
          "internalType": "uint256",
          "name": "",
          "type": "uint256"
        }
      ],
      "stateMutability": "view",
      "type": "function"
    },
    {
      "inputs": [],
      "name": "licenseRegistry",
      "outputs": [
        {
          "internalType": "contract LicenseRegistry",
          "name": "",
          "type": "address"
        }
      ],
      "stateMutability": "view",
      "type": "function"
    },
    {
      "inputs": [],
      "name": "minimumStake",
      "outputs": [
        {
          "internalType": "uint256",
          "name": "",
          "type": "uint256"
        }
      ],
      "stateMutability": "view",
      "type": "function"
    },
    {
      "inputs": [
        {
          "internalType": "uint256",
          "name": "",
          "type": "uint256"
        }
      ],
      "name": "rejectionVotes",
      "outputs": [
        {
          "internalType": "uint256",
          "name": "",
          "type": "uint256"
        }
      ],
      "stateMutability": "view",
      "type": "function"
    },
    {
      "inputs": [
        {
          "internalType": "address",
          "name": "verifier",
          "type": "address"
        }
      ],
      "name": "removeVerifier",
      "outputs": [],
      "stateMutability": "nonpayable",
      "type": "function"
    },
    {
      "inputs": [],
      "name": "submissionCounter",
      "outputs": [
        {
          "internalType": "uint256",
          "name": "",
          "type": "uint256"
        }
      ],
      "stateMutability": "view",
      "type": "function"
    },
    {
      "inputs": [
        {
          "internalType": "uint256",
          "name": "",
          "type": "uint256"
        },
        {
          "internalType": "address",
          "name": "",
          "type": "address"
        }
      ],
      "name": "submissionVotes",
      "outputs": [
        {
          "internalType": "bool",
          "name": "",
          "type": "bool"
        }
      ],
      "stateMutability": "view",
      "type": "function"
    },
    {
      "inputs": [
        {
          "internalType": "uint256",
          "name": "",
          "type": "uint256"
        }
      ],
      "name": "submissions",
      "outputs": [
        {
          "internalType": "uint256",
          "name": "submissionId",
          "type": "uint256"
        },
        {
          "internalType": "address",
          "name": "hunter",
          "type": "address"
        },
        {
          "internalType": "uint256",
          "name": "contentId",
          "type": "uint256"
        },
        {
          "internalType": "string",
          "name": "platform",
          "type": "string"
        },
        {
          "internalType": "string",
          "name": "platformContentId",
          "type": "string"
        },
        {
          "internalType": "string",
          "name": "contentUrl",
          "type": "string"
        },
        {
          "internalType": "bytes",
          "name": "zkTLSProof",
          "type": "bytes"
        },
        {
          "internalType": "uint256",
          "name": "submissionTimestamp",
          "type": "uint256"
        },
        {
          "internalType": "enum BountyManager.BountyStatus",
          "name": "status",
          "type": "uint8"
        },
        {
          "internalType": "string",
          "name": "rejectionReason",
          "type": "string"
        },
        {
          "internalType": "uint256",
          "name": "rewardAmount",
          "type": "uint256"
        }
      ],
      "stateMutability": "view",
      "type": "function"
    },
    {
      "inputs": [
        {
          "internalType": "uint256",
          "name": "contentId",
          "type": "uint256"
        },
        {
          "internalType": "string",
          "name": "platform",
          "type": "string"
        },
        {
          "internalType": "string",
          "name": "platformContentId",
          "type": "string"
        },
        {
          "internalType": "string",
          "name": "contentUrl",
          "type": "string"
        },
        {
          "internalType": "bytes",
          "name": "zkTLSProof",
          "type": "bytes"
        }
      ],
      "name": "submitBounty",
      "outputs": [
        {
          "internalType": "uint256",
          "name": "",
          "type": "uint256"
        }
      ],
      "stateMutability": "payable",
      "type": "function"
    },
    {
      "inputs": [
        {
          "internalType": "uint256",
          "name": "",
          "type": "uint256"
        }
      ],
      "name": "totalVerifiedTakedowns",
      "outputs": [
        {
          "internalType": "uint256",
          "name": "",
          "type": "uint256"
        }
      ],
      "stateMutability": "view",
      "type": "function"
    },
    {
      "inputs": [
        {
          "internalType": "uint256",
          "name": "newStake",
          "type": "uint256"
        }
      ],
      "name": "updateMinimumStake",
      "outputs": [],
      "stateMutability": "nonpayable",
      "type": "function"
    },
    {
      "inputs": [
        {
          "internalType": "uint256",
          "name": "newPeriod",
          "type": "uint256"
        }
      ],
      "name": "updateVerificationPeriod",
      "outputs": [],
      "stateMutability": "nonpayable",
      "type": "function"
    },
    {
      "inputs": [],
      "name": "verificationPeriod",
      "outputs": [
        {
          "internalType": "uint256",
          "name": "",
          "type": "uint256"
        }
      ],
      "stateMutability": "view",
      "type": "function"
    },
    {
      "inputs": [
        {
          "internalType": "uint256",
          "name": "",
          "type": "uint256"
        }
      ],
      "name": "verificationVotes",
      "outputs": [
        {
          "internalType": "uint256",
          "name": "",
          "type": "uint256"
        }
      ],
      "stateMutability": "view",
      "type": "function"
    },
    {
      "inputs": [
        {
          "internalType": "address",
          "name": "",
          "type": "address"
        }
      ],
      "name": "verifiers",
      "outputs": [
        {
          "internalType": "bool",
          "name": "",
          "type": "bool"
        }
      ],
      "stateMutability": "view",
      "type": "function"
    },
    {
      "inputs": [
        {
          "internalType": "uint256",
          "name": "submissionId",
          "type": "uint256"
        },
        {
          "internalType": "bool",
          "name": "approved",
          "type": "bool"
        },
        {
          "internalType": "string",
          "name": "reason",
          "type": "string"
        }
      ],
      "name": "verifyBounty",
      "outputs": [],
      "stateMutability": "nonpayable",
      "type": "function"
    }
  ],
  "bytecode": "0x6080346100b957601f62001aa038819003918201601f19168301916001600160401b038311848410176100be5780849260409485528339810103126100b957610053602061004c836100d4565b92016100d4565b62093a80600355662386f26fc1000060045560018060a01b03908160018060a01b0319931683600054161760005516906001541617600155600060025533600052600c6020526040600020600160ff198254161790556040516119b79081620000e98239f35b600080fd5b634e487b7160e01b600052604160045260246000fd5b51906001600160a01b03821682036100b95756fe6080604052600436101561001257600080fd5b60003560e01c80630c886a6b1461158d57806315f25549146115615780631e09d5a91461126e5780631f276b6e1461120557806339c65d8d146111d95780633e8686cc14610f925780634c41e88014610f67578063537dbf0714610f2057806359974e3814610d5557806360d25e8114610cdd5780636c82448714610c9e57806376c23ff114610c805780637a0c95aa14610c465780637c8efce314610bc45780639000b3d614610b55578063abac7e0d14610b29578063ad73349e146109bf578063b1bb7e0f146109a1578063b4b9e70614610975578063bc74b08d1461094a578063c12255fe1461039a578063c2fda48714610371578063ca2dfd0a14610305578063dfde74fe146102ad578063e04a377014610233578063e80db5db1461020a578063ec5ffac2146101ec578063ef11151e1461019a5763f1f568f71461015b57600080fd5b34610195576020366003190112610195576001600160a01b0361017c61167c565b16600052600b6020526020604060002054604051908152f35b600080fd5b34610195576040366003190112610195576024356001600160a01b0381169081900361019557600435600052600d602052604060002090600052602052602060ff604060002054166040519015158152f35b34610195576000366003190112610195576020600454604051908152f35b34610195576000366003190112610195576000546040516001600160a01b039091168152602090f35b34610195576020806003193601126101955760043560005260088152604060002090604051908181845491828152019360005281600020916000905b8282106102965761029285610286818903826117b9565b60405191829182611692565b0390f35b83548652948501946001938401939091019061026f565b34610195576040366003190112610195576102c661167c565b6001600160a01b0316600090815260096020526040902080546024359190821015610195576020916102f7916115d4565b90546040519160031b1c8152f35b346101955760203660031901126101955761031e61167c565b6000546001600160a01b03919082163303610195571680600052600c602052604060002060ff1981541690557f44a3cd4eb5cc5748f6169df057b1cb2ae4c383e87cd94663c430e095d4cba424600080a2005b34610195576000366003190112610195576001546040516001600160a01b039091168152602090f35b60a0366003190112610195576024356001600160401b038111610195576103c5903690600401611602565b6044356001600160401b038111610195576103e4903690600401611602565b906064356001600160401b03811161019557610404903690600401611602565b9490936084356001600160401b03811161019557610426903690600401611602565b929091600454341061019557600435600052600560205260406000205415610195578315610195576001546040805163017e7ec560e31b81526004803590820152606060248201529182906001600160a01b031681806104a061048d60648301898b6117ff565b8281036003190160448401528d8d6117ff565b03915afa90811561093e576000916108ee575b50610195576104c3600254611820565b600281815560008281526007602052604090208281556001810180546001600160a01b0319163317905560043591810191909155989097906001600160401b038311610770576105238361051a60038d01546116cd565b60038d0161182f565b826000601f821160011461088057600091610875575b508360011b906000198560031b1c19161760038b01555b6001600160401b038811610770576105788861056f60048d01546116cd565b60048d0161182f565b876000601f8211600114610807576000916107fc575b508860011b906000198a60031b1c19161760048b01555b6001600160401b038111610770578060058b01926105cd826105c786546116cd565b8661182f565b600090601f831160011461079157600092610786575b50508160011b916000199060031b1c19161790555b6001600160401b038411610770578787936106258661061c600660209d01546116cd565b6006850161182f565b600090601f87116001146106e95795806008939260008051602061199783398151915297986000926106de575b50508160011b916000199060031b1c19161760068201555b4260078201550160ff19815416905560043560005260088852610691846040600020611883565b33600052600988526106a7846040600020611883565b6106d36106c16040519384936040855260408501916117ff565b8281038a8401523397600435976117ff565b0390a4604051908152f35b013590508c80610652565b600683979297016000528a6000209660005b601f198416811061075657509160008051602061199783398151915296976001926008959483601f1981161061073c575b505050811b01600682015561066a565b0135600019600384901b60f8161c191690558c808061072c565b8183013589556001909801978b9750908c01908c016106fb565b634e487b7160e01b600052604160045260246000fd5b013590508b806105e3565b909150601f198316918460005260206000209260005b8181106107e457509084600195949392106107ca575b505050811b0190556105f8565b0135600019600384901b60f8161c191690558b80806107bd565b919360206001819287870135815501950192016107a7565b90508701358b61058e565b905060048b0160005260206000209060005b601f198b16811061085d575089601f19811610610843575b5050600188811b0160048b01556105a5565b88013560001960038b901b60f8161c191690558a80610831565b9091602060018192858d013581550193019101610819565b90508401358b610539565b905060038b0160005260206000209060005b601f19861681106108d6575084601f198116106108bc575b5050600183811b0160038b0155610550565b850135600019600386901b60f8161c191690558a806108aa565b9091602060018192858a013581550193019101610892565b90506040813d604011610936575b81610909604093836117b9565b8101031261019557805190811515820361019557602001516001600160a01b0381160361019557896104b3565b3d91506108fc565b6040513d6000823e3d90fd5b34610195576020366003190112610195576000546001600160a01b0316330361019557600435600355005b346101955760203660031901126101955760043560005260056020526020604060002054604051908152f35b34610195576000366003190112610195576020600354604051908152f35b3461019557602036600319011261019557600435600052600760205260406000208054600160a01b600190036001830154169160028101549060405180806003840190610a0b91611707565b03610a1690826117b9565b6040519081610a288160048601611707565b03610a3390836117b9565b60405180610a448160058701611707565b03610a4f90826117b9565b6040519081610a618160068801611707565b03610a6c90836117b9565b600785015493600886015460ff16936040519687806009830190610a8f91611707565b03610a9a90896117b9565b600a0154976040519a8b9a8b5260208b015260408a01526101608060608b01528901610ac59161162f565b88810360808a0152610ad69161162f565b87810360a0890152610ae79161162f565b86810360c0880152610af89161162f565b9160e08601526101008501610b0c9161166f565b838103610120850152610b1e9161162f565b906101408301520390f35b3461019557602036600319011261019557600435600052600e6020526020604060002054604051908152f35b3461019557602036600319011261019557610b6e61167c565b6000546001600160a01b03919082163303610195571680600052600c6020526040600020600160ff198254161790557f6d05492139c5ea989514a5d2150c028041e5c087e2a39967f67dc7d2655adb81600080a2005b602036600319011261019557600054600435906001600160a01b03163303610195573415610195578060005260056020526040600020610c053482546117dc565b90558060005260056020527f59cf05b569f6230787852b6f1a84ff0f155b2363c622c463141caaee1b6d6643604080600020548151903482526020820152a2005b34610195576020366003190112610195576001600160a01b03610c6761167c565b16600052600a6020526020604060002054604051908152f35b34610195576000366003190112610195576020600254604051908152f35b34610195576020366003190112610195576001600160a01b03610cbf61167c565b16600052600c602052602060ff604060002054166040519015158152f35b3461019557602080600319360112610195576001600160a01b03610cff61167c565b1660005260098152604060002090604051908181845491828152019360005281600020916000905b828210610d3e5761029285610286818903826117b9565b835486529485019460019384019390910190610d27565b346101955760208060031936011261019557600435806000526005908183526040600020541561019557600891828452604060002092604051808587829754938481520190600052876000209260005b89828210610f0a57505050610dbc925003856117b9565b60009460005b8551811015610f08578181851b870101516000526007825260406000208381019060ff8254166004811015610ef257600180911480610ee5575b610e12575b505050610e0d90611820565b610dc2565b600a82015490886000528786526040600020805483811015610e37575b505050610e01565b83610e47919d949597969d611989565b9055840190610e7a8360018060a01b039283855416600052600b89526040600020610e738382546117dc565b90556117dc565b9a600360ff1982541617905560008080808685875416828215610edc575bf11561093e57857f1d0f102d737fa5f0a0f89df1c7bd6c4d6ea8866cb4cd14b9461b04a9c3bd7b6d91610e0d965493541693604051908152a3908880808080610e2f565b506108fc610e98565b50600a8201541515610dfc565b634e487b7160e01b600052602160045260246000fd5b005b855484526001958601958a955093019201610da5565b34610195576020366003190112610195576001600160a01b03610f4161167c565b16600052600a60205260408060002054600b602052816000205482519182526020820152f35b34610195576020366003190112610195576000546001600160a01b0316330361019557600480359055005b34610195576020366003190112610195576004356000610140604051610fb78161179d565b82815282602082015282604082015260608082015260606080820152606060a0820152606060c08201528260e08201528261010082015260606101208201520152801515806111cd575b156101955760005260076020526040600020604051906110208261179d565b8054825260018101546001600160a01b0316602083015260028101546040808401919091525161105e816110578160038601611707565b03826117b9565b6060830152604051611077816110578160048601611707565b6080830152604051611090816110578160058601611707565b60a08301526040516110a9816110578160068601611707565b60c0830152600781015460e083015260ff600882015416906004821015610ef257600a916101008401526040516110e7816110578160098601611707565b61012084015201546101408201526040518091602082528051602083015260018060a01b0360208201511660408301526040810151606083015260608101516101406111c26111446101609384608088015261018087019061162f565b61118e61117a611166608088015193601f1994858b83030160a08c015261162f565b60a0880151848a83030160c08b015261162f565b60c0870151838983030160e08a015261162f565b9060e08601516101008801526111ae61010087015161012089019061166f565b61012086015190878303018488015261162f565b920151908301520390f35b50600254811115611001565b346101955760203660031901126101955760043560005260066020526020604060002054604051908152f35b3461019557611213366115be565b6000549091906001600160a01b0316330361019557600052600560205260406000209081549181831061019557600080808481946112518289611989565b9055818115611265575b3390f11561093e57005b506108fc61125b565b3461019557606036600319011261019557600435602435801515808203610195576001600160401b0392604435848111610195576112b0903690600401611602565b92909433600052602093600c855260ff60406000205416156101955783151580611555575b156101955783600052600d8552604060002033600052855260ff6040600020541661019557836000526007855260ff600860406000200154166004811015610ef2576101955783600052600d8552604060002033600052855260406000209660019660ff1998888a8254161790556000146114675750505081600052600e835260406000206113648154611820565b90555b604051908152817f1fb14b3bf3798c268811f880a4b800a6140774e15e3d530fa663451c0d263b60843393a36000818152600e83526040902054600211611439576000938493600a61141986958695865260078152604086209360028501549581600887019182541617905585875260068252604087206113e88154611820565b9055840180546001600160a01b0390811688529184905260408720805461140e90611820565b9055541680946118d8565b91015560045490828215611430575bf11561093e57005b506108fc611428565b509050600f81526002604060002054101561145057005b600790526002600860406000200191825416179055005b84600052600f8652604060002061147e8154611820565b90558161148e575b505050611367565b846000526007865260096040600020019282116107705781906114b5826105c786546116cd565b600090601f83116001146114f2576000926114e7575b5050600019600383901b1c191690861b1790555b858080611486565b0135905088806114cb565b889350601f1983169185600052886000209260005b8a82821061153f5750508411611525575b505050811b0190556114df565b0135600019600384901b60f8161c19169055888080611518565b8385013586558c97909501949283019201611507565b506002548411156112d5565b3461019557602036600319011261019557600435600052600f6020526020604060002054604051908152f35b346101955761159b366115be565b90600052600860205260406000208054821015610195576020916102f7916115d4565b6040906003190112610195576004359060243590565b80548210156115ec5760005260206000200190600090565b634e487b7160e01b600052603260045260246000fd5b9181601f84011215610195578235916001600160401b038311610195576020838186019501011161019557565b919082519283825260005b84811061165b575050826000602080949584010152601f8019910116010190565b60208183018101518483018201520161163a565b906004821015610ef25752565b600435906001600160a01b038216820361019557565b6020908160408183019282815285518094520193019160005b8281106116b9575050505090565b8351855293810193928101926001016116ab565b90600182811c921680156116fd575b60208310146116e757565b634e487b7160e01b600052602260045260246000fd5b91607f16916116dc565b9060009291805491611718836116cd565b91828252600193848116908160001461177a575060011461173a575b50505050565b90919394506000526020928360002092846000945b838610611766575050505001019038808080611734565b80548587018301529401938590820161174f565b9294505050602093945060ff191683830152151560051b01019038808080611734565b61016081019081106001600160401b0382111761077057604052565b601f909101601f19168101906001600160401b0382119082101761077057604052565b919082018092116117e957565b634e487b7160e01b600052601160045260246000fd5b908060209392818452848401376000828201840152601f01601f1916010190565b60001981146117e95760010190565b90601f811161183d57505050565b600091825260208220906020601f850160051c83019410611879575b601f0160051c01915b82811061186e57505050565b818155600101611862565b9092508290611859565b8054600160401b811015610770576118a0916001820181556115d4565b819291549060031b91821b91600019901b1916179055565b81156118c2570490565b634e487b7160e01b600052601260045260246000fd5b600090815260056020526040812054600660205260408220549081156119825781611902916118b8565b6001600160a01b039093168252600a60205260408220546064808202918015908304909114171561196e5790611937916118b8565b9081830291838304148315171561195a57509060646119579204906117dc565b90565b634e487b7160e01b81526011600452602490fd5b634e487b7160e01b83526011600452602483fd5b5050905090565b919082039182116117e95756fec288837f892a922779b110a95d4f6b6fd25014b842c27a70e5fa038aaad1fc06",
  "linkReferences": {},
  "deployedLinkReferences": {}
}