{
  "_format": "hh-sol-artifact-1",
  "contractName": "NetworkRebates",
  "sourceName": "contracts/NetworkRebates.sol",
  "abi": [
    {
      "inputs": [
        {
          "internalType": "address",
          "name": "_coreContract",
          "type": "address"
        },
        {
          "internalType": "address",
          "name": "_licenseRegistry",
          "type": "address"
        }
      ],
      "stateMutability": "nonpayable",
      "type": "constructor"
    },
    {
      "anonymous": false,
      "inputs": [
        {
          "indexed": true,
          "internalType": "address",
          "name": "oracle",
          "type": "address"
        }
      ],
      "name": "OracleAdded",
      "type": "event"
    },
    {
      "anonymous": false,
      "inputs": [
        {
          "indexed": true,
          "internalType": "address",
          "name": "oracle",
          "type": "address"
        }
      ],
      "name": "OracleRemoved",
      "type": "event"
    },
    {
      "anonymous": false,
      "inputs": [
        {
          "indexed": true,
          "internalType": "uint256",
          "name": "contentId",
          "type": "uint256"
        },
        {
          "indexed": true,
          "internalType": "address",
          "name": "distributor",
          "type": "address"
        },
        {
          "indexed": false,
          "internalType": "uint256",
          "name": "amount",
          "type": "uint256"
        }
      ],
      "name": "RebateDistributed",
      "type": "event"
    },
    {
      "anonymous": false,
      "inputs": [
        {
          "indexed": true,
          "internalType": "uint256",
          "name": "contentId",
          "type": "uint256"
        },
        {
          "indexed": false,
          "internalType": "uint256",
          "name": "amount",
          "type": "uint256"
        },
        {
          "indexed": false,
          "internalType": "uint256",
          "name": "totalPool",
          "type": "uint256"
        }
      ],
      "name": "RebatePoolFunded",
      "type": "event"
    },
    {
      "anonymous": false,
      "inputs": [
        {
          "indexed": true,
          "internalType": "uint256",
          "name": "contentId",
          "type": "uint256"
        },
        {
          "indexed": true,
          "internalType": "address",
          "name": "distributor",
          "type": "address"
        },
        {
          "indexed": false,
          "internalType": "uint256",
          "name": "uploadedBytes",
          "type": "uint256"
        },
        {
          "indexed": false,
          "internalType": "uint256",
          "name": "uniquePeers",
          "type": "uint256"
        },
        {
          "indexed": false,
          "internalType": "uint256",
          "name": "timestamp",
          "type": "uint256"
        }
      ],
      "name": "SeedingReported",
      "type": "event"
    },
    {
      "inputs": [
        {
          "internalType": "address",
          "name": "oracle",
          "type": "address"
        }
      ],
      "name": "addOracle",
      "outputs": [],
      "stateMutability": "nonpayable",
      "type": "function"
    },
    {
      "inputs": [
        {
          "internalType": "uint256",
          "name": "contentId",
          "type": "uint256"
        }
      ],
      "name": "addToRebatePool",
      "outputs": [],
      "stateMutability": "payable",
      "type": "function"
    },
    {
      "inputs": [
        {
          "internalType": "address",
          "name": "",
          "type": "address"
        }
      ],
      "name": "authorizedOracles",
      "outputs": [
        {
          "internalType": "bool",
          "name": "",
          "type": "bool"
        }
      ],
      "stateMutability": "view",
      "type": "function"
    },
    {
      "inputs": [
        {
          "internalType": "uint256",
          "name": "contentId",
          "type": "uint256"
        },
        {
          "internalType": "address",
          "name": "distributor",
          "type": "address"
        }
      ],
      "name": "calculateRebate",
      "outputs": [
        {
          "internalType": "uint256",
          "name": "",
          "type": "uint256"
        }
      ],
      "stateMutability": "view",
      "type": "function"
    },
    {
      "inputs": [
        {
          "internalType": "uint256",
          "name": "contentId",
          "type": "uint256"
        }
      ],
      "name": "claimRebate",
      "outputs": [],
      "stateMutability": "nonpayable",
      "type": "function"
    },
    {
      "inputs": [],
      "name": "coreContract",
      "outputs": [
        {
          "internalType": "address",
          "name": "",
          "type": "address"
        }
      ],
      "stateMutability": "view",
      "type": "function"
    },
    {
      "inputs": [
        {
          "internalType": "uint256",
          "name": "contentId",
          "type": "uint256"
        },
        {
          "internalType": "address",
          "name": "distributor",
          "type": "address"
        }
      ],
      "name": "deactivateSeeder",
      "outputs": [],
      "stateMutability": "nonpayable",
      "type": "function"
    },
    {
      "inputs": [
        {
          "internalType": "uint256",
          "name": "contentId",
          "type": "uint256"
        }
      ],
      "name": "distributeRebates",
      "outputs": [],
      "stateMutability": "nonpayable",
      "type": "function"
    },
    {
      "inputs": [
        {
          "internalType": "address",
          "name": "",
          "type": "address"
        },
        {
          "internalType": "uint256",
          "name": "",
          "type": "uint256"
        }
      ],
      "name": "distributorContent",
      "outputs": [
        {
          "internalType": "uint256",
          "name": "",
          "type": "uint256"
        }
      ],
      "stateMutability": "view",
      "type": "function"
    },
    {
      "inputs": [
        {
          "internalType": "address",
          "name": "",
          "type": "address"
        }
      ],
      "name": "distributorTotalEarnings",
      "outputs": [
        {
          "internalType": "uint256",
          "name": "",
          "type": "uint256"
        }
      ],
      "stateMutability": "view",
      "type": "function"
    },
    {
      "inputs": [
        {
          "internalType": "uint256",
          "name": "contentId",
          "type": "uint256"
        },
        {
          "internalType": "uint256",
          "name": "amount",
          "type": "uint256"
        }
      ],
      "name": "emergencyWithdraw",
      "outputs": [],
      "stateMutability": "nonpayable",
      "type": "function"
    },
    {
      "inputs": [
        {
          "internalType": "address",
          "name": "distributor",
          "type": "address"
        }
      ],
      "name": "getDistributorContent",
      "outputs": [
        {
          "internalType": "uint256[]",
          "name": "",
          "type": "uint256[]"
        }
      ],
      "stateMutability": "view",
      "type": "function"
    },
    {
      "inputs": [
        {
          "internalType": "address",
          "name": "distributor",
          "type": "address"
        }
      ],
      "name": "getDistributorEarnings",
      "outputs": [
        {
          "internalType": "uint256",
          "name": "",
          "type": "uint256"
        }
      ],
      "stateMutability": "view",
      "type": "function"
    },
    {
      "inputs": [
        {
          "internalType": "uint256",
          "name": "contentId",
          "type": "uint256"
        }
      ],
      "name": "getRebatePoolInfo",
      "outputs": [
        {
          "internalType": "uint256",
          "name": "totalPool",
          "type": "uint256"
        },
        {
          "internalType": "uint256",
          "name": "distributedAmount",
          "type": "uint256"
        },
        {
          "internalType": "uint256",
          "name": "totalSeeders",
          "type": "uint256"
        },
        {
          "internalType": "uint256",
          "name": "totalUploadedBytes",
          "type": "uint256"
        },
        {
          "internalType": "address[]",
          "name": "seederList",
          "type": "address[]"
        }
      ],
      "stateMutability": "view",
      "type": "function"
    },
    {
      "inputs": [
        {
          "internalType": "uint256",
          "name": "contentId",
          "type": "uint256"
        },
        {
          "internalType": "address",
          "name": "distributor",
          "type": "address"
        }
      ],
      "name": "getSeedingActivity",
      "outputs": [
        {
          "components": [
            {
              "internalType": "address",
              "name": "distributor",
              "type": "address"
            },
            {
              "internalType": "uint256",
              "name": "contentId",
              "type": "uint256"
            },
            {
              "internalType": "uint256",
              "name": "totalUploaded",
              "type": "uint256"
            },
            {
              "internalType": "uint256",
              "name": "uniquePeersServed",
              "type": "uint256"
            },
            {
              "internalType": "uint256",
              "name": "lastReportTimestamp",
              "type": "uint256"
            },
            {
              "internalType": "uint256",
              "name": "totalEarnings",
              "type": "uint256"
            },
            {
              "internalType": "bool",
              "name": "isActive",
              "type": "bool"
            }
          ],
          "internalType": "struct NetworkRebates.SeedingActivity",
          "name": "",
          "type": "tuple"
        }
      ],
      "stateMutability": "view",
      "type": "function"
    },
    {
      "inputs": [],
      "name": "licenseRegistry",
      "outputs": [
        {
          "internalType": "contract LicenseRegistry",
          "name": "",
          "type": "address"
        }
      ],
      "stateMutability": "view",
      "type": "function"
    },
    {
      "inputs": [],
      "name": "minimumUploadThreshold",
      "outputs": [
        {
          "internalType": "uint256",
          "name": "",
          "type": "uint256"
        }
      ],
      "stateMutability": "view",
      "type": "function"
    },
    {
      "inputs": [
        {
          "internalType": "bytes32",
          "name": "",
          "type": "bytes32"
        }
      ],
      "name": "processedReports",
      "outputs": [
        {
          "internalType": "bool",
          "name": "",
          "type": "bool"
        }
      ],
      "stateMutability": "view",
      "type": "function"
    },
    {
      "inputs": [
        {
          "internalType": "uint256",
          "name": "",
          "type": "uint256"
        }
      ],
      "name": "rebatePools",
      "outputs": [
        {
          "internalType": "uint256",
          "name": "totalPool",
          "type": "uint256"
        },
        {
          "internalType": "uint256",
          "name": "distributedAmount",
          "type": "uint256"
        },
        {
          "internalType": "uint256",
          "name": "totalSeeders",
          "type": "uint256"
        },
        {
          "internalType": "uint256",
          "name": "totalUploadedBytes",
          "type": "uint256"
        }
      ],
      "stateMutability": "view",
      "type": "function"
    },
    {
      "inputs": [
        {
          "internalType": "address",
          "name": "oracle",
          "type": "address"
        }
      ],
      "name": "removeOracle",
      "outputs": [],
      "stateMutability": "nonpayable",
      "type": "function"
    },
    {
      "inputs": [
        {
          "internalType": "uint256",
          "name": "contentId",
          "type": "uint256"
        },
        {
          "internalType": "address",
          "name": "distributor",
          "type": "address"
        },
        {
          "internalType": "uint256",
          "name": "uploadedBytes",
          "type": "uint256"
        },
        {
          "internalType": "uint256",
          "name": "uniquePeersServed",
          "type": "uint256"
        },
        {
          "internalType": "bytes32",
          "name": "reportHash",
          "type": "bytes32"
        }
      ],
      "name": "reportSeedingActivity",
      "outputs": [],
      "stateMutability": "nonpayable",
      "type": "function"
    },
    {
      "inputs": [],
      "name": "reportingPeriod",
      "outputs": [
        {
          "internalType": "uint256",
          "name": "",
          "type": "uint256"
        }
      ],
      "stateMutability": "view",
      "type": "function"
    },
    {
      "inputs": [
        {
          "internalType": "uint256",
          "name": "newThreshold",
          "type": "uint256"
        }
      ],
      "name": "updateMinimumUploadThreshold",
      "outputs": [],
      "stateMutability": "nonpayable",
      "type": "function"
    },
    {
      "inputs": [
        {
          "internalType": "uint256",
          "name": "newPeriod",
          "type": "uint256"
        }
      ],
      "name": "updateReportingPeriod",
      "outputs": [],
      "stateMutability": "nonpayable",
      "type": "function"
    }
  ],
  "bytecode": "0x6080346100ad57601f61116f38819003918201601f19168301916001600160401b038311848410176100b25780849260409485528339810103126100ad57610052602061004b836100c8565b92016100c8565b610e106002556210000060035560018060a01b03908160018060a01b03199316836000541617600055169060015416176001553360005260076020526040600020600160ff1982541617905560405161109290816100dd8239f35b600080fd5b634e487b7160e01b600052604160045260246000fd5b51906001600160a01b03821682036100ad5756fe6040608081526004908136101561001557600080fd5b600091823560e01c9081630511f07214610d0357816312494caa14610bd7578382631f276b6e14610b5357508163238ec8b514610a5857816324b5b980146109ab5781632cae79cf1461098c5781635c55e8db146109615781635d67dc43146107e9578163616a0630146107bc57816361c992a31461077e57816366b340cc146106ab5781636b7c424b146106805781636e738e2d1461062a5781637badbe87146102b057816381675b70146103ab5781638d2ab78e14610330578163a90b538e14610311578163c2fda487146102e8578163c51fd876146102b0578163c531003714610263578163df5dd1a5146101f7578163e80db5db146101cf578163ef28a92d1461019d575063fdc85fc41461012d57600080fd5b3461019957602036600319011261019957610146610d59565b82546001600160a01b0391908216330361019557168083526007602052908220805460ff191690557f9c8e7d83025bef8a04c664b2f753f64b8814bdb7e27291d7e50935f18cc3c7128280a280f35b8380fd5b5080fd5b8284346101cc57816003193601126101cc57506101c56020926101be610d74565b9035610e9c565b9051908152f35b80fd5b505034610199578160031936011261019957905490516001600160a01b039091168152602090f35b50503461019957602036600319011261019957610212610d59565b82546001600160a01b0391908216330361019557168083526007602052908220805460ff191660011790557e47706786c922d17b39285dc59d696bafea72c0b003d3841ae1202076f4c2e48280a280f35b9050346102ac5760203660031901126102ac5760809281839235825260205220908154916001810154916003600283015492015492815194855260208501528301526060820152f35b8280fd5b5050346101995760203660031901126101995760209181906001600160a01b036102d8610d59565b1681526006845220549051908152f35b50503461019957816003193601126101995760015490516001600160a01b039091168152602090f35b5050346101995781600319360112610199576020906002549051908152f35b905060203660031901126102ac578254813592906001600160a01b03163303610195573415610195577f8c52464a753085ace2e8b69c69227990c011110dacbee4c1ac3f4c4137ea70669183855280602052818520610390348254610db8565b9055838552602052808420548151903482526020820152a280f35b9050346102ac5760a03660031901126102ac578035906103c9610d74565b926044359160643590608435953388526020916007835260ff858a2054168015610618575b15610614578789526008835260ff858a2054166106145760018060a01b03906001986104348585858d54168c8b51809581948293633a49267560e11b84528a8401610e47565b03915afa90811561060a578c916105dd575b50156105d95760035488106105d9578a5260088452858a209160ff19928a84825416179055888b5281855280878c209416998a8c528285018652878c20938b8554848116156104e8575b50505050506000805160206110728339815191529694928260039260026060999795016104be898254610db8565b9055858483015542910155016104d5858254610db8565b905582519384528301524290820152a380f35b6001600160a01b0319161785558185018b905560068501805490911682179055600585018054600160401b9391848210156105c6578161052d918f9386018155610d8a565b909283549160031b92831b921b19161790556002850161054d8154610e60565b90558a8c5260058652878c20908154928310156105b3579261058d8360609a9896936003966000805160206110728339815191529d9b9996018155610d8a565b815490861b908d821b91600019901b191617905592829597995081949698508b38610490565b634e487b7160e01b8d526041845260248dfd5b634e487b7160e01b8f526041865260248ffd5b8a80fd5b6105fd9150863d8811610603575b6105f58183610e0c565b810190610e2f565b38610446565b503d6105eb565b88513d8e823e3d90fd5b8880fd5b50336001600160a01b038316146103ee565b919050346102ac57806003193601126102ac57610645610d74565b83546001600160a01b03908116330361067c578360069435865280602052838620019116845260205282200160ff19815416905580f35b8480fd5b8390346101995760203660031901126101995781546001600160a01b03163303610199573560025580f35b9050346102ac57602090816003193601126101955780358452815281832092835460019283860154946002870154966005600382015491019782519283858b54918281520190819b895286892090895b8181106107625750505084610711910385610e0c565b80519860a08a01968a52858a0152880152606087015260a060808701525180925260c0850195925b8281106107465785870386f35b83516001600160a01b0316875295810195928101928401610739565b82546001600160a01b0316845292880192918b01918b016106fb565b5050346101995760203660031901126101995760209160ff9082906001600160a01b036107a9610d59565b1681526007855220541690519015158152f35b9050346102ac5760203660031901126102ac578160209360ff923581526008855220541690519015158152f35b919050346102ac576020918260031936011261019557803580855281845282852091825493600193848101958654101561095d57849588908994600595868501918501985b610836578b80f35b8154811015610959578b61084a8284610d8a565b60018060a01b0391549060031b1c168082528a8d528c8883209260068c60ff8287015416610888575b50505050505061088290610e60565b8961082e565b8461089291610e9c565b928c841596871580610944575b6108ae575b505092508c610873565b9a86979b936108f3938798959388979894016108cb858254610db8565b9055858852528d86206108df838254610db8565b90556108ec828c54610db8565b8b55610db8565b98839061093b575b839283928392f1156109315790896000805160206110528339815191528e61088295948b51908152a39038808e818f8c826108a4565b87513d8f823e3d90fd5b506108fc6108fb565b508c54610952878d54610db8565b111561089f565b8b80f35b8780fd5b8390346101995760203660031901126101995781546001600160a01b03163303610199573560035580f35b5050346101995781600319360112610199576020906003549051908152f35b8284346101cc57602090816003193601126101cc5782906001600160a01b036109d2610d59565b16815260058352818120908251808584549182815201908194845286842090845b818110610a445750505081610a09910382610e0c565b83519485948186019282875251809352850193925b828110610a2d57505050500390f35b835185528695509381019392810192600101610a1e565b8254845292880192600192830192016109f3565b919050346102ac57806003193601126102ac57918260e093610a78610d74565b928060c08351610a8781610ddb565b82815282602082015282858201528260608201528260808201528260a082015201528435815284602052848282200160018060a01b0380951682526020522090805192610ad384610ddb565b8254169384845260018301549160208501928352600284015481860190815260038501549260608701938452850154936080870194855260c060ff600660058901549860a08b01998a5201541697019615158752825197885251602088015251908601525160608501525160808401525160a083015251151560c0820152f35b915034610199578260031936011261019957815460243591906001600160a01b031633036102ac57803583526020528282206001815491019082610b9983548093610e8f565b106101955782849392610bae85948594610db8565b9055818115610bce575b3390f115610bc4575080f35b51903d90823e3d90fd5b506108fc610bb8565b919050346102ac57602080600319360112610195576001548251633a49267560e11b815284359391839082906001600160a01b03168180610c1b338a838d01610e47565b03915afa908115610cf9578691610cdc575b501561067c57610c3d3384610e9c565b938415610cd857838652808352818620903387528101835281862060018254920191610c6a878454610db8565b11610cd457600501610c7d868254610db8565b905533865260068352818620610c94868254610db8565b9055610ca1858254610db8565b905584808080873382f115610ccb579060008051602061105283398151915291519384523393a380f35b513d85823e3d90fd5b8680fd5b8580fd5b610cf39150833d8511610603576105f58183610e0c565b38610c2d565b82513d88823e3d90fd5b505034610199578060031936011261019957610d1d610d59565b6001600160a01b031682526005602052808220805460243593908410156101cc5750602092610d4b91610d8a565b91905490519160031b1c8152f35b600435906001600160a01b0382168203610d6f57565b600080fd5b602435906001600160a01b0382168203610d6f57565b8054821015610da25760005260206000200190600090565b634e487b7160e01b600052603260045260246000fd5b91908201809211610dc557565b634e487b7160e01b600052601160045260246000fd5b60e081019081106001600160401b03821117610df657604052565b634e487b7160e01b600052604160045260246000fd5b601f909101601f19168101906001600160401b03821190821017610df657604052565b90816020910312610d6f57518015158103610d6f5790565b9081526001600160a01b03909116602082015260400190565b6000198114610dc55760010190565b8115610e79570490565b634e487b7160e01b600052601260045260246000fd5b91908203918211610dc557565b60008181526004916020908382526040918284209560018060a01b03809116855285870182528385209360ff90600691808388015416158015611045575b61103857600287015491611b5892838102938185041490151715611025578a610f0a600394858093015490610e6f565b98015496610bb89788810298818a0414901517156110125789528986528089209489968a91600588018d81549901935b8d8a8210610fc55750610f6d9c9b610f679b909a5098505087159650610fbc955050505050505790610e6f565b90610db8565b9161271093848411610fb4575b806001610f8b925491015490610e8f565b838102938185041490151715610fa15750500490565b634e487b7160e01b825260119052602490fd5b849350610f7a565b50600190610e6f565b869084610fd28486610d8a565b9054908c1b1c16815286865220878a82015416610ff9575b50610ff490610e60565b610f3a565b610ff4919b8961100b92015490610db8565b9a90610fea565b634e487b7160e01b8a5260118b5260248afd5b634e487b7160e01b895260118a52602489fd5b5050505050505091505090565b5060038a015415610eda56fe3b127b03427f8c24b1ea11ef9f5052899e072db64611f99ac51847608c5bc83f301e5c1cd63a63f5de97846ba38770fce5404b529a0c56a407d14f9c155d0466",
  "linkReferences": {},
  "deployedLinkReferences": {}
}