{
  "_format": "hh-sol-artifact-1",
  "contractName": "Web3TorrentCore",
  "sourceName": "contracts/Web3TorrentCore.sol",
  "abi": [
    {
      "inputs": [],
      "stateMutability": "nonpayable",
      "type": "constructor"
    },
    {
      "inputs": [],
      "name": "ReentrancyGuardReentrantCall",
      "type": "error"
    },
    {
      "anonymous": false,
      "inputs": [
        {
          "indexed": false,
          "internalType": "uint256[]",
          "name": "contentIds",
          "type": "uint256[]"
        },
        {
          "indexed": true,
          "internalType": "address",
          "name": "distributor",
          "type": "address"
        },
        {
          "indexed": false,
          "internalType": "uint256",
          "name": "totalCost",
          "type": "uint256"
        }
      ],
      "name": "BatchLicensesPurchased",
      "type": "event"
    },
    {
      "anonymous": false,
      "inputs": [
        {
          "indexed": true,
          "internalType": "uint256",
          "name": "contentId",
          "type": "uint256"
        },
        {
          "indexed": true,
          "internalType": "address",
          "name": "publisher",
          "type": "address"
        },
        {
          "indexed": false,
          "internalType": "bytes32",
          "name": "magnetHash",
          "type": "bytes32"
        },
        {
          "indexed": false,
          "internalType": "enum IWeb3TorrentCore.PricingModel",
          "name": "pricingModel",
          "type": "uint8"
        },
        {
          "indexed": false,
          "internalType": "uint256",
          "name": "basePrice",
          "type": "uint256"
        },
        {
          "indexed": false,
          "internalType": "uint256",
          "name": "priceIncrement",
          "type": "uint256"
        }
      ],
      "name": "ContentPublished",
      "type": "event"
    },
    {
      "anonymous": false,
      "inputs": [
        {
          "indexed": true,
          "internalType": "uint256",
          "name": "contentId",
          "type": "uint256"
        },
        {
          "indexed": false,
          "internalType": "bool",
          "name": "isActive",
          "type": "bool"
        }
      ],
      "name": "ContentUpdated",
      "type": "event"
    },
    {
      "anonymous": false,
      "inputs": [
        {
          "indexed": true,
          "internalType": "uint256",
          "name": "contentId",
          "type": "uint256"
        },
        {
          "indexed": true,
          "internalType": "address",
          "name": "distributor",
          "type": "address"
        },
        {
          "indexed": false,
          "internalType": "uint256",
          "name": "price",
          "type": "uint256"
        },
        {
          "indexed": false,
          "internalType": "uint256",
          "name": "newPrice",
          "type": "uint256"
        },
        {
          "indexed": false,
          "internalType": "uint256",
          "name": "totalLicenses",
          "type": "uint256"
        }
      ],
      "name": "LicensePurchased",
      "type": "event"
    },
    {
      "anonymous": false,
      "inputs": [
        {
          "indexed": true,
          "internalType": "uint256",
          "name": "contentId",
          "type": "uint256"
        },
        {
          "indexed": false,
          "internalType": "uint256",
          "name": "oldPrice",
          "type": "uint256"
        },
        {
          "indexed": false,
          "internalType": "uint256",
          "name": "newPrice",
          "type": "uint256"
        },
        {
          "indexed": false,
          "internalType": "uint256",
          "name": "totalLicenses",
          "type": "uint256"
        }
      ],
      "name": "PriceUpdated",
      "type": "event"
    },
    {
      "inputs": [],
      "name": "MAX_FEE_PERCENTAGE",
      "outputs": [
        {
          "internalType": "uint256",
          "name": "",
          "type": "uint256"
        }
      ],
      "stateMutability": "view",
      "type": "function"
    },
    {
      "inputs": [],
      "name": "MAX_MULTIPLIER_EFFECT",
      "outputs": [
        {
          "internalType": "uint256",
          "name": "",
          "type": "uint256"
        }
      ],
      "stateMutability": "view",
      "type": "function"
    },
    {
      "inputs": [],
      "name": "MIN_DEMAND_MULTIPLIER",
      "outputs": [
        {
          "internalType": "uint256",
          "name": "",
          "type": "uint256"
        }
      ],
      "stateMutability": "view",
      "type": "function"
    },
    {
      "inputs": [],
      "name": "PRICE_CACHE_DURATION",
      "outputs": [
        {
          "internalType": "uint256",
          "name": "",
          "type": "uint256"
        }
      ],
      "stateMutability": "view",
      "type": "function"
    },
    {
      "inputs": [],
      "name": "bountyManager",
      "outputs": [
        {
          "internalType": "contract BountyManager",
          "name": "",
          "type": "address"
        }
      ],
      "stateMutability": "view",
      "type": "function"
    },
    {
      "inputs": [
        {
          "internalType": "uint256",
          "name": "contentId",
          "type": "uint256"
        }
      ],
      "name": "clearPriceCache",
      "outputs": [],
      "stateMutability": "nonpayable",
      "type": "function"
    },
    {
      "inputs": [],
      "name": "contentCounter",
      "outputs": [
        {
          "internalType": "uint256",
          "name": "",
          "type": "uint256"
        }
      ],
      "stateMutability": "view",
      "type": "function"
    },
    {
      "inputs": [
        {
          "internalType": "uint256",
          "name": "",
          "type": "uint256"
        }
      ],
      "name": "contents",
      "outputs": [
        {
          "internalType": "address",
          "name": "publisher",
          "type": "address"
        },
        {
          "internalType": "bytes32",
          "name": "magnetHash",
          "type": "bytes32"
        },
        {
          "internalType": "string",
          "name": "metadataURI",
          "type": "string"
        },
        {
          "internalType": "uint256",
          "name": "basePrice",
          "type": "uint256"
        },
        {
          "internalType": "uint256",
          "name": "currentPrice",
          "type": "uint256"
        },
        {
          "internalType": "uint256",
          "name": "priceIncrement",
          "type": "uint256"
        },
        {
          "internalType": "uint256",
          "name": "demandMultiplier",
          "type": "uint256"
        },
        {
          "internalType": "uint256",
          "name": "publishTimestamp",
          "type": "uint256"
        },
        {
          "internalType": "uint256",
          "name": "totalLicenses",
          "type": "uint256"
        },
        {
          "internalType": "uint256",
          "name": "totalRevenue",
          "type": "uint256"
        },
        {
          "internalType": "uint256",
          "name": "lastPurchaseTimestamp",
          "type": "uint256"
        },
        {
          "internalType": "enum IWeb3TorrentCore.PricingModel",
          "name": "pricingModel",
          "type": "uint8"
        },
        {
          "internalType": "uint8",
          "name": "networkFeePercentage",
          "type": "uint8"
        },
        {
          "internalType": "uint8",
          "name": "bountyPercentage",
          "type": "uint8"
        },
        {
          "internalType": "bool",
          "name": "isActive",
          "type": "bool"
        }
      ],
      "stateMutability": "view",
      "type": "function"
    },
    {
      "inputs": [
        {
          "internalType": "uint256",
          "name": "contentId",
          "type": "uint256"
        },
        {
          "internalType": "bool",
          "name": "isActive",
          "type": "bool"
        }
      ],
      "name": "emergencyToggleContent",
      "outputs": [],
      "stateMutability": "nonpayable",
      "type": "function"
    },
    {
      "inputs": [],
      "name": "emergencyWithdraw",
      "outputs": [],
      "stateMutability": "nonpayable",
      "type": "function"
    },
    {
      "inputs": [
        {
          "internalType": "uint256",
          "name": "contentId",
          "type": "uint256"
        }
      ],
      "name": "getContentInfo",
      "outputs": [
        {
          "components": [
            {
              "internalType": "address",
              "name": "publisher",
              "type": "address"
            },
            {
              "internalType": "bytes32",
              "name": "magnetHash",
              "type": "bytes32"
            },
            {
              "internalType": "string",
              "name": "metadataURI",
              "type": "string"
            },
            {
              "internalType": "uint256",
              "name": "basePrice",
              "type": "uint256"
            },
            {
              "internalType": "uint256",
              "name": "currentPrice",
              "type": "uint256"
            },
            {
              "internalType": "uint256",
              "name": "priceIncrement",
              "type": "uint256"
            },
            {
              "internalType": "uint256",
              "name": "demandMultiplier",
              "type": "uint256"
            },
            {
              "internalType": "uint256",
              "name": "publishTimestamp",
              "type": "uint256"
            },
            {
              "internalType": "uint256",
              "name": "totalLicenses",
              "type": "uint256"
            },
            {
              "internalType": "uint256",
              "name": "totalRevenue",
              "type": "uint256"
            },
            {
              "internalType": "uint256",
              "name": "lastPurchaseTimestamp",
              "type": "uint256"
            },
            {
              "internalType": "enum IWeb3TorrentCore.PricingModel",
              "name": "pricingModel",
              "type": "uint8"
            },
            {
              "internalType": "uint8",
              "name": "networkFeePercentage",
              "type": "uint8"
            },
            {
              "internalType": "uint8",
              "name": "bountyPercentage",
              "type": "uint8"
            },
            {
              "internalType": "bool",
              "name": "isActive",
              "type": "bool"
            }
          ],
          "internalType": "struct IWeb3TorrentCore.ContentInfo",
          "name": "",
          "type": "tuple"
        }
      ],
      "stateMutability": "view",
      "type": "function"
    },
    {
      "inputs": [],
      "name": "getContractStats",
      "outputs": [
        {
          "internalType": "uint256",
          "name": "totalContent",
          "type": "uint256"
        },
        {
          "internalType": "uint256",
          "name": "totalRevenue",
          "type": "uint256"
        },
        {
          "internalType": "uint256",
          "name": "activeContent",
          "type": "uint256"
        }
      ],
      "stateMutability": "view",
      "type": "function"
    },
    {
      "inputs": [
        {
          "internalType": "uint256",
          "name": "contentId",
          "type": "uint256"
        }
      ],
      "name": "getCurrentPrice",
      "outputs": [
        {
          "internalType": "uint256",
          "name": "",
          "type": "uint256"
        }
      ],
      "stateMutability": "view",
      "type": "function"
    },
    {
      "inputs": [
        {
          "internalType": "uint256[]",
          "name": "contentIds",
          "type": "uint256[]"
        }
      ],
      "name": "getMultipleContentInfo",
      "outputs": [
        {
          "components": [
            {
              "internalType": "address",
              "name": "publisher",
              "type": "address"
            },
            {
              "internalType": "bytes32",
              "name": "magnetHash",
              "type": "bytes32"
            },
            {
              "internalType": "string",
              "name": "metadataURI",
              "type": "string"
            },
            {
              "internalType": "uint256",
              "name": "basePrice",
              "type": "uint256"
            },
            {
              "internalType": "uint256",
              "name": "currentPrice",
              "type": "uint256"
            },
            {
              "internalType": "uint256",
              "name": "priceIncrement",
              "type": "uint256"
            },
            {
              "internalType": "uint256",
              "name": "demandMultiplier",
              "type": "uint256"
            },
            {
              "internalType": "uint256",
              "name": "publishTimestamp",
              "type": "uint256"
            },
            {
              "internalType": "uint256",
              "name": "totalLicenses",
              "type": "uint256"
            },
            {
              "internalType": "uint256",
              "name": "totalRevenue",
              "type": "uint256"
            },
            {
              "internalType": "uint256",
              "name": "lastPurchaseTimestamp",
              "type": "uint256"
            },
            {
              "internalType": "enum IWeb3TorrentCore.PricingModel",
              "name": "pricingModel",
              "type": "uint8"
            },
            {
              "internalType": "uint8",
              "name": "networkFeePercentage",
              "type": "uint8"
            },
            {
              "internalType": "uint8",
              "name": "bountyPercentage",
              "type": "uint8"
            },
            {
              "internalType": "bool",
              "name": "isActive",
              "type": "bool"
            }
          ],
          "internalType": "struct IWeb3TorrentCore.ContentInfo[]",
          "name": "",
          "type": "tuple[]"
        }
      ],
      "stateMutability": "view",
      "type": "function"
    },
    {
      "inputs": [
        {
          "internalType": "uint256[]",
          "name": "contentIds",
          "type": "uint256[]"
        }
      ],
      "name": "getMultiplePrices",
      "outputs": [
        {
          "internalType": "uint256[]",
          "name": "",
          "type": "uint256[]"
        }
      ],
      "stateMutability": "view",
      "type": "function"
    },
    {
      "inputs": [
        {
          "internalType": "uint256",
          "name": "contentId",
          "type": "uint256"
        }
      ],
      "name": "getPriceHistory",
      "outputs": [
        {
          "internalType": "uint256[]",
          "name": "prices",
          "type": "uint256[]"
        },
        {
          "internalType": "uint256[]",
          "name": "timestamps",
          "type": "uint256[]"
        }
      ],
      "stateMutability": "view",
      "type": "function"
    },
    {
      "inputs": [
        {
          "internalType": "address",
          "name": "_licenseRegistry",
          "type": "address"
        },
        {
          "internalType": "address",
          "name": "_bountyManager",
          "type": "address"
        },
        {
          "internalType": "address",
          "name": "_networkRebates",
          "type": "address"
        }
      ],
      "name": "initialize",
      "outputs": [],
      "stateMutability": "nonpayable",
      "type": "function"
    },
    {
      "inputs": [],
      "name": "licenseRegistry",
      "outputs": [
        {
          "internalType": "contract LicenseRegistry",
          "name": "",
          "type": "address"
        }
      ],
      "stateMutability": "view",
      "type": "function"
    },
    {
      "inputs": [],
      "name": "networkRebates",
      "outputs": [
        {
          "internalType": "contract NetworkRebates",
          "name": "",
          "type": "address"
        }
      ],
      "stateMutability": "view",
      "type": "function"
    },
    {
      "inputs": [],
      "name": "owner",
      "outputs": [
        {
          "internalType": "address",
          "name": "",
          "type": "address"
        }
      ],
      "stateMutability": "view",
      "type": "function"
    },
    {
      "inputs": [
        {
          "internalType": "uint256",
          "name": "",
          "type": "uint256"
        },
        {
          "internalType": "uint256",
          "name": "",
          "type": "uint256"
        }
      ],
      "name": "priceHistory",
      "outputs": [
        {
          "internalType": "uint256",
          "name": "",
          "type": "uint256"
        }
      ],
      "stateMutability": "view",
      "type": "function"
    },
    {
      "inputs": [
        {
          "internalType": "uint256",
          "name": "",
          "type": "uint256"
        },
        {
          "internalType": "uint256",
          "name": "",
          "type": "uint256"
        }
      ],
      "name": "priceTimestamps",
      "outputs": [
        {
          "internalType": "uint256",
          "name": "",
          "type": "uint256"
        }
      ],
      "stateMutability": "view",
      "type": "function"
    },
    {
      "inputs": [
        {
          "internalType": "bytes32",
          "name": "magnetHash",
          "type": "bytes32"
        },
        {
          "internalType": "string",
          "name": "metadataURI",
          "type": "string"
        },
        {
          "internalType": "enum IWeb3TorrentCore.PricingModel",
          "name": "pricingModel",
          "type": "uint8"
        },
        {
          "internalType": "uint256",
          "name": "basePrice",
          "type": "uint256"
        },
        {
          "internalType": "uint256",
          "name": "priceIncrement",
          "type": "uint256"
        },
        {
          "internalType": "uint256",
          "name": "demandMultiplier",
          "type": "uint256"
        },
        {
          "internalType": "uint256",
          "name": "networkFeePercentage",
          "type": "uint256"
        },
        {
          "internalType": "uint256",
          "name": "bountyPercentage",
          "type": "uint256"
        }
      ],
      "name": "publishContent",
      "outputs": [
        {
          "internalType": "uint256",
          "name": "",
          "type": "uint256"
        }
      ],
      "stateMutability": "nonpayable",
      "type": "function"
    },
    {
      "inputs": [
        {
          "internalType": "uint256",
          "name": "contentId",
          "type": "uint256"
        }
      ],
      "name": "purchaseLicense",
      "outputs": [],
      "stateMutability": "payable",
      "type": "function"
    },
    {
      "inputs": [
        {
          "internalType": "uint256[]",
          "name": "contentIds",
          "type": "uint256[]"
        }
      ],
      "name": "purchaseMultipleLicenses",
      "outputs": [],
      "stateMutability": "payable",
      "type": "function"
    },
    {
      "inputs": [
        {
          "internalType": "uint256",
          "name": "contentId",
          "type": "uint256"
        },
        {
          "internalType": "bool",
          "name": "isActive",
          "type": "bool"
        }
      ],
      "name": "updateContent",
      "outputs": [],
      "stateMutability": "nonpayable",
      "type": "function"
    },
    {
      "inputs": [
        {
          "internalType": "uint256",
          "name": "newPercentage",
          "type": "uint256"
        }
      ],
      "name": "updateDefaultBountyPercentage",
      "outputs": [],
      "stateMutability": "view",
      "type": "function"
    }
  ],
  "bytecode": "0x60808060405234610031576001600081815581546001600160a01b0319163317909155600255611ef690816100378239f35b600080fdfe6080604052600436101561001257600080fd5b60003560e01c806326bfde751461128c578063482f20a61461125b5780634c24c2c81461122b5780634ff1487414611209578063539f51db1461120e578063558e44d3146112095780637509c330146110ec5780638da5cb5b146110c3578063a7a512f81461109a578063a9f5c95314610e43578063ae81372914610dfe578063b36b9ffd14610dd5578063b5ecf91214610cdb578063c0c53b8b14610c55578063c2fda48714610c2c578063c55d0f5614610c06578063c8a028a814610aa2578063d0272f9b14610a84578063d0feffb014610a45578063d62182f7146109c2578063db2e21bc1461096b578063dc19ea0e14610522578063dfe6b5d614610492578063e6a9aba314610474578063f00084fb14610271578063f8b688f5146101cd5763fd1a98a51461014557600080fd5b346101bc5760203660031901126101bc57600435801515806101c1575b156101bc5760005260076020526101aa604060002060086020526101b8610196610190604060002093611c6c565b92611c6c565b6040519384936040855260408501906115fe565b9083820360208501526115fe565b0390f35b600080fd5b50600254811115610162565b346101bc576101db36611469565b9081156101bc57606482116101bc576101f3826119a5565b9060005b83811061021457604051602080825281906101b8908201866115fe565b61021f8185846119d7565b3515158061025a575b156101bc578061024561023f6102559387866119d7565b356119fb565b61024f82866119e7565b52611655565b6101f7565b506102668185846119d7565b356002541015610228565b346101bc5761027f36611469565b9081156101bc57606482116101bc576102978261198e565b916102a5604051938461151f565b808352601f196102b48261198e565b0160005b81811061045d57505060005b81811061032a576040805160208082528651818301819052600093600582901b8401810192808a01929185015b8287106102fe5785850386f35b90919293828061031a600193603f198a820301865288516113a7565b96019201960195929190926102f1565b6103358183856119d7565b35151580610446575b156101bc57806103526104419284866119d7565b35600052600660209080825260406000209060405192610371846114f0565b82546001600160a01b0316845260018301549084015261039360028301611542565b60408401526003820154606084015260048201546080840152600582015460a084015281015460c0830152600781015460e0830152600b600891828101546101008501526009810154610120850152600a8101546101408501520154809160ff928391610406838316610160880161167f565b1c16610180840152818160101c166101a084015260181c1615156101c082015261043082876119e7565b5261043b81866119e7565b50611655565b6102c4565b506104528183856119d7565b35600254101561033e565b602090610468611bfc565b828288010152016102b8565b346101bc5760003660031901126101bc576020600254604051908152f35b346101bc5760003660031901126101bc57600254600090600060015b828111156104c757506101b890604051938493846115e8565b8060005260066104e560209582875260096040600020015490611632565b94826000525260ff600b6040600020015460181c1661050d575b61050890611655565b6104ae565b9061051a61050891611655565b9190506104ff565b346101bc576101003660031901126101bc576001600160401b03602435116101bc573660236024350112156101bc576001600160401b0360046024350135116101bc5736602480356004013581350101116101bc57600260443510156101bc57606460c435116101bc57606460e435116101bc5760646105a660e43560c435611632565b116101bc57606435156101bc57600435156101bc5760243560040135156101bc57600160443514610953575b6105dd600254611655565b806002556040516105ed816114f0565b338152600435602082015261060760243560040135611664565b610614604051918261151f565b6024803560048101358084529101602083013760006020602435600401358301015260408201526064356060820152606435608082015260843560a082015260a43560c08201524260e0820152600061010082015260006101208201526000610140820152610689604435610160830161167f565b60ff60c4351661018082015260ff60e435166101a082015260016101c082015281600052600660205260406000209160018060a01b0382511660018060a01b031984541617835560208201516001840155604082015192835160018060401b03811161093d576106fc60028301546114b6565b601f81116108f6575b506020601f8211600114610885578190600b94959660009261087a575b50508160011b916000199060031b1c19161760028201555b606084015160038201556080840151600482015560a0840151600582015560c0840151600682015560e0840151600782015561010084015160088201556101208401516009820155610140840151600a8201550191610160810151926002841015610864576101c06107e192602095835461ff0061018084015160081b169060ff62ff00006101a086015160101b1693169062ffffff19161717178355015115159061168b565b80600052600782526107f960643560406000206116a7565b806000526008825261080f4260406000206116a7565b604051600435815261082583820160443561139a565b60643560408201526084356060820152817f505543113d9d1a281874815cee76fc95d191d999c006617d2c176495cb948b5860803393a3604051908152f35b634e487b7160e01b600052602160045260246000fd5b015190508680610722565b601f198216956002840160005260206000209660005b8181106108de575091600b959697918460019594106108c5575b505050811b01600282015561073a565b015160001960f88460031b161c191690558680806108b5565b8383015189556001909801976020938401930161089b565b600283016000526020600020601f830160051c810160208410610936575b601f830160051c8201811061092a575050610705565b60008155600101610914565b5080610914565b634e487b7160e01b600052604160045260246000fd5b608435156101bc57606460a43510156105d257600080fd5b346101bc5760003660031901126101bc576001546001600160a01b0390811633036101bc5761099861173a565b479081156101bc5760008080938193600154165af16109b561170a565b50156101bc576001600055005b346101bc5760203660031901126101bc5760043580151580610a39575b156101bc57600090815260066020526040902054336001600160a01b0391821614908115610a2b575b50156101bc57600960205260006040812055600a60205260006040812055600080f35b905060015416331481610a08565b506002548111156109df565b346101bc57610a53366112fa565b906000526008602052604060002080548210156101bc57602091610a7691611310565b90546040519160031b1c8152f35b346101bc5760003660031901126101bc576020604051620186a08152f35b60203660031901126101bc5760043580151580610bfa575b156101bc5780600052600660205260ff600b6040600020015460181c16156101bc57610ae461173a565b806000526006602052604060002090610afc816119fb565b918234106101bc57610b0e8383611770565b6008810190610b1d8254611655565b825560098101610b2e858254611632565b9055600a42910155610b4083836118c4565b6003546001600160a01b0316803b156101bc5760006040518092630686108d60e01b8252818381610b768b338c600485016116dc565b03925af18015610bee57610bdf575b50833411610bbb575b600080516020611ed6833981519152915490610bb16040519283923397846115e8565b0390a36001600055005b6000808080610bca88346116fd565b335af1610bd561170a565b50610b8e57600080fd5b610be89061150c565b84610b85565b6040513d6000823e3d90fd5b50600254811115610aba565b346101bc5760203660031901126101bc576020610c246004356119fb565b604051908152f35b346101bc5760003660031901126101bc576003546040516001600160a01b039091168152602090f35b346101bc5760603660031901126101bc576001600160a01b03600435818116908190036101bc576024358281168091036101bc57604435928084168094036101bc576001541633036101bc5781156101bc5780156101bc5782156101bc5760018060a01b0319918260035416176003558160045416176004556005541617600555600080f35b346101bc5760203660031901126101bc5760043560005260066020526020604060002060018060a01b038154169060ff6001820154610d1c60028401611542565b92600381015493600482015460058301546006840154600785015491600886015493610d71600988015496600b600a8a0154990154996040519e8f9e8f908152015260408d6101e091829101528d019061135a565b9960608c015260808b015260a08a015260c089015260e0880152610100870152610120860152610140850152610dad610160850183831661139a565b818160081c16610180850152818160101c166101a085015260181c1615156101c08301520390f35b346101bc5760003660031901126101bc576004546040516001600160a01b039091168152602090f35b346101bc57610e0c366112db565b6001546001600160a01b031633036101bc5781151580610e37575b156101bc57610e3591611b8f565b005b50600254821115610e27565b610e4c36611469565b610e5461173a565b80156101bc57603281116101bc576000610e6d826119a5565b60005b83811061100557508134106101bc5760005b838110610f16575050803411610ef2575b60408051818152908101839052906001600160fb1b0383116101bc577fa25f24536407b63286bdae6707ed3e860288bb5f5c648de7dd6dab214485a8e39260051b80946060840137602082015260608133948101030190a26001600055005b6000808080610f0185346116fd565b335af1610f0c61170a565b50610e9357600080fd5b610f218185876119d7565b3590610f2d81846119e7565b51826000526006602052604060002092610f478282611770565b6008840193610f568554611655565b855560098101610f67848254611632565b9055600a42910155610f7982826118c4565b6003546001600160a01b03169490853b156101bc5760006040518097630686108d60e01b8252818381610fb18a338b600485016116dc565b03925af1918215610bee57610ff196600080516020611ed683398151915293610ff6575b505490610fe96040519283923397846115e8565b0390a3611655565b610e82565b610fff9061150c565b8b610fd5565b916110118385876119d7565b35151580611083575b156101bc5761102a8385876119d7565b35600052600660205260ff600b6040600020015460181c16156101bc5761107861107e9161105c61023f86888a6119d7565b61106686866119e7565b5261107185856119e7565b5190611632565b92611655565b610e70565b5061108f8385876119d7565b35600254101561101a565b346101bc5760003660031901126101bc576005546040516001600160a01b039091168152602090f35b346101bc5760003660031901126101bc576001546040516001600160a01b039091168152602090f35b346101bc5760203660031901126101bc57600435611108611bfc565b50801515806111fd575b156101bc5760005260066020526101b8604060002060ff600b60405192611138846114f0565b80546001600160a01b031684526001810154602085015261115b60028201611542565b60408501526003810154606085015260048101546080850152600581015460a0850152600681015460c0850152600781015460e085015260088101546101008501526009810154610120850152600a81015461014085015201546111c5828216610160850161167f565b818160081c16610180840152818160101c166101a084015260181c1615156101c08201526040519182916020835260208301906113a7565b50600254811115611112565b61133e565b346101bc5760003660031901126101bc57602060405161012c8152f35b346101bc5760203660031901126101bc576001546001600160a01b031633036101bc576103e8600435116101bc57005b346101bc57611269366112fa565b906000526007602052604060002080548210156101bc57602091610a7691611310565b346101bc5761129a366112db565b811515806112cf575b156101bc576000828152600660205260409020546001600160a01b031633036101bc57610e3591611b8f565b506002548211156112a3565b60409060031901126101bc576004359060243580151581036101bc5790565b60409060031901126101bc576004359060243590565b80548210156113285760005260206000200190600090565b634e487b7160e01b600052603260045260246000fd5b346101bc5760003660031901126101bc57602060405160648152f35b919082519283825260005b848110611386575050826000602080949584010152601f8019910116010190565b602081830181015184830182015201611365565b9060028210156108645752565b9060018060a01b038251168152602082015160208201526113d760408301516101e080604085015283019061135a565b91606081015160608301526080810151608083015260a081015160a083015260c081015160c083015260e081015160e083015261010080820151908301526101208082015190830152610140808201519083015261143e610160808301519084019061139a565b61018060ff8183015116908301526101a060ff8183015116908301526101c080910151151591015290565b9060206003198301126101bc576001600160401b0391600435908382116101bc57806023830112156101bc5781600401359384116101bc5760248460051b830101116101bc576024019190565b90600182811c921680156114e6575b60208310146114d057565b634e487b7160e01b600052602260045260246000fd5b91607f16916114c5565b6101e081019081106001600160401b0382111761093d57604052565b6001600160401b03811161093d57604052565b601f909101601f19168101906001600160401b0382119082101761093d57604052565b9060405191826000825492611556846114b6565b9081845260019485811690816000146115c55750600114611582575b50506115809250038361151f565b565b9093915060005260209081600020936000915b8183106115ad57505061158093508201013880611572565b85548884018501529485019487945091830191611595565b91505061158094506020925060ff191682840152151560051b8201013880611572565b6040919493926060820195825260208201520152565b90815180825260208080930193019160005b82811061161e575050505090565b835185529381019392810192600101611610565b9190820180921161163f57565b634e487b7160e01b600052601160045260246000fd5b600019811461163f5760010190565b6001600160401b03811161093d57601f01601f191660200190565b60028210156108645752565b9063ff000000825491151560181b169063ff0000001916179055565b8054600160401b81101561093d576116c491600182018155611310565b819291549060031b91821b91600019901b1916179055565b9081526001600160a01b039091166020820152604081019190915260600190565b9190820391821161163f57565b3d15611735573d9061171b82611664565b91611729604051938461151f565b82523d6000602084013e565b606090565b60026000541461174b576002600055565b604051633ee5aeb560e01b8152600490fd5b8181029291811591840414171561163f57565b60ff90600092818452600660205283604081206117c0600b820154936117bb60646117b2816117a48b8a60081c168661175d565b04998a9860101c168461175d565b049788926116fd565b6116fd565b8061189a575b5050508061183d575b50816117da57505050565b6004546001600160a01b031690813b156118395790602484926040519485938492637c8efce360e01b845260048401525af1801561182e5761181a575050565b611824829161150c565b61182b5750565b80fd5b6040513d84823e3d90fd5b8380fd5b6005546001600160a01b0316803b156118965784906024604051809481936346955bc760e11b83528760048401525af1801561188b57156117cf576118849093919361150c565b91386117cf565b6040513d86823e3d90fd5b8480fd5b9054829182918291906001600160a01b03165af16118b661170a565b5015611839578338806117c6565b60008181526006602052604080822060ff600b82015416600281101561197a5715611973579361196d7fc6d3da45896ce1bca9d198309a2dbeea3c73a991748f8d88d796ffa06029de93939260086119609761191f88611cbb565b98899687600484015589815260096020528785822055600a60205242858220556007602052611950888683206116a7565b89815283602052844291206116a7565b01549051938493846115e8565b0390a290565b5050505090565b634e487b7160e01b84526021600452602484fd5b6001600160401b03811161093d5760051b60200190565b906119af8261198e565b6119bc604051918261151f565b82815280926119cd601f199161198e565b0190602036910137565b91908110156113285760051b0190565b80518210156113285760209160051b010190565b80151580611a15575b156101bc57611a1290611a21565b90565b50600254811115611a04565b600090808252600660205260409182812092805190611a3f826114f0565b84546001600160a01b0316825260018501546020830152611a6260028601611542565b8183015260038501546060830152600b60048601549560808401968752600581015460a0850152600681015460c0850152600781015460e085015260088101546101008501526009810154610120850152600a8101546101408501520154916101c060ff610160830194611ad88282168761167f565b818160081c16610180850152818160101c166101a085015260181c1615159101528151600281101561197a5760011480611b7b575b80611b5c575b611b4c575051906002821015611b38575015611b3357611a129150611cbb565b505190565b634e487b7160e01b81526021600452602490fd5b9350509081526009602052205490565b50838352600a60205261012c611b7582852054426116fd565b10611b13565b50838352600a602052808320541515611b0d565b9060207f70d73d81e52a2dca11d75c71d0f5006dfee7a734c401a87c32f0939f26461aee91600084815260068352611bcd82600b604084200161168b565b60098352604081208054611be9575b50506040519015158152a2565b819055600a835260408120553880611bdc565b60405190611c09826114f0565b816101c0600091828152826020820152606060408201528260608201528260808201528260a08201528260c08201528260e08201528261010082015282610120820152826101408201528261016082015282610180820152826101a08201520152565b9060405191828154918282526020928383019160005283600020936000905b828210611ca1575050506115809250038361151f565b855484526001958601958895509381019390910190611c8b565b60005260066020526040600020604051611cd4816114f0565b81546001600160a01b0316815260018201546020820152611cf760028301611542565b604082015260038201546060820152600b60048301549260808301938452600581015460a0840152600681015460c0840152600781015460e084015260088101546101008401526009810154610120840152600a810154610140840152015460ff610160830191611d6a8282168461167f565b818160081c16610180850152818160101c166101a085015260181c1615156101c08301525160028110156108645715611b3357611a1291506060810180519060c0611dca610100850193611dc4855160a08801519061175d565b90611632565b9301519060648211801590611e24575b611e1e57611def611e03926064945190611e2d565b90620186a0808311611e16575b505161175d565b049080821115611e11575090565b905090565b915038611dfc565b50505090565b50825115611dda565b908015611ece576001808214611ec95760648093835b611e4e575050505090565b8280851614611e99575b8015611e845780600019048111611e7f57611e7481839261175d565b0492821c9283611e43565b611973565b60246000634e487b7160e01b81526012600452fd5b938415611e845784600019048111611ebd57611eb685839261175d565b0493611e58565b5050505050620186a090565b505090565b505060649056fe3c643b89a81273a1160fc920ed10ca2aba86a40b58b30303efffe886744cb758",
  "linkReferences": {},
  "deployedLinkReferences": {}
}