{
  "_format": "hh-sol-artifact-1",
  "contractName": "LicenseRegistry",
  "sourceName": "contracts/LicenseRegistry.sol",
  "abi": [
    {
      "inputs": [
        {
          "internalType": "address",
          "name": "_coreContract",
          "type": "address"
        }
      ],
      "stateMutability": "nonpayable",
      "type": "constructor"
    },
    {
      "anonymous": false,
      "inputs": [
        {
          "indexed": true,
          "internalType": "uint256",
          "name": "contentId",
          "type": "uint256"
        },
        {
          "indexed": true,
          "internalType": "address",
          "name": "distributor",
          "type": "address"
        },
        {
          "indexed": false,
          "internalType": "uint256",
          "name": "price",
          "type": "uint256"
        },
        {
          "indexed": false,
          "internalType": "uint256",
          "name": "expirationTimestamp",
          "type": "uint256"
        }
      ],
      "name": "LicenseRegistered",
      "type": "event"
    },
    {
      "anonymous": false,
      "inputs": [
        {
          "indexed": true,
          "internalType": "uint256",
          "name": "contentId",
          "type": "uint256"
        },
        {
          "indexed": true,
          "internalType": "address",
          "name": "distributor",
          "type": "address"
        },
        {
          "indexed": false,
          "internalType": "string",
          "name": "reason",
          "type": "string"
        }
      ],
      "name": "LicenseRevoked",
      "type": "event"
    },
    {
      "anonymous": false,
      "inputs": [
        {
          "indexed": true,
          "internalType": "uint256",
          "name": "registrationId",
          "type": "uint256"
        },
        {
          "indexed": true,
          "internalType": "uint256",
          "name": "contentId",
          "type": "uint256"
        },
        {
          "indexed": true,
          "internalType": "address",
          "name": "distributor",
          "type": "address"
        },
        {
          "indexed": false,
          "internalType": "string",
          "name": "platform",
          "type": "string"
        },
        {
          "indexed": false,
          "internalType": "string",
          "name": "contentUrl",
          "type": "string"
        }
      ],
      "name": "PlatformRegistered",
      "type": "event"
    },
    {
      "anonymous": false,
      "inputs": [
        {
          "indexed": true,
          "internalType": "uint256",
          "name": "registrationId",
          "type": "uint256"
        },
        {
          "indexed": false,
          "internalType": "bool",
          "name": "verified",
          "type": "bool"
        }
      ],
      "name": "PlatformRegistrationVerified",
      "type": "event"
    },
    {
      "inputs": [
        {
          "internalType": "uint256",
          "name": "",
          "type": "uint256"
        },
        {
          "internalType": "uint256",
          "name": "",
          "type": "uint256"
        }
      ],
      "name": "contentDistributors",
      "outputs": [
        {
          "internalType": "address",
          "name": "",
          "type": "address"
        }
      ],
      "stateMutability": "view",
      "type": "function"
    },
    {
      "inputs": [
        {
          "internalType": "uint256",
          "name": "",
          "type": "uint256"
        },
        {
          "internalType": "uint256",
          "name": "",
          "type": "uint256"
        }
      ],
      "name": "contentPlatformRegistrations",
      "outputs": [
        {
          "internalType": "uint256",
          "name": "",
          "type": "uint256"
        }
      ],
      "stateMutability": "view",
      "type": "function"
    },
    {
      "inputs": [],
      "name": "coreContract",
      "outputs": [
        {
          "internalType": "address",
          "name": "",
          "type": "address"
        }
      ],
      "stateMutability": "view",
      "type": "function"
    },
    {
      "inputs": [
        {
          "internalType": "address",
          "name": "",
          "type": "address"
        },
        {
          "internalType": "uint256",
          "name": "",
          "type": "uint256"
        }
      ],
      "name": "distributorContent",
      "outputs": [
        {
          "internalType": "uint256",
          "name": "",
          "type": "uint256"
        }
      ],
      "stateMutability": "view",
      "type": "function"
    },
    {
      "inputs": [
        {
          "internalType": "address",
          "name": "",
          "type": "address"
        },
        {
          "internalType": "uint256",
          "name": "",
          "type": "uint256"
        }
      ],
      "name": "distributorRegistrations",
      "outputs": [
        {
          "internalType": "uint256",
          "name": "",
          "type": "uint256"
        }
      ],
      "stateMutability": "view",
      "type": "function"
    },
    {
      "inputs": [
        {
          "internalType": "uint256",
          "name": "contentId",
          "type": "uint256"
        }
      ],
      "name": "getContentDistributors",
      "outputs": [
        {
          "internalType": "address[]",
          "name": "",
          "type": "address[]"
        }
      ],
      "stateMutability": "view",
      "type": "function"
    },
    {
      "inputs": [
        {
          "internalType": "uint256",
          "name": "contentId",
          "type": "uint256"
        }
      ],
      "name": "getContentPlatformRegistrations",
      "outputs": [
        {
          "internalType": "uint256[]",
          "name": "",
          "type": "uint256[]"
        }
      ],
      "stateMutability": "view",
      "type": "function"
    },
    {
      "inputs": [
        {
          "internalType": "address",
          "name": "distributor",
          "type": "address"
        }
      ],
      "name": "getDistributorContent",
      "outputs": [
        {
          "internalType": "uint256[]",
          "name": "",
          "type": "uint256[]"
        }
      ],
      "stateMutability": "view",
      "type": "function"
    },
    {
      "inputs": [
        {
          "internalType": "address",
          "name": "distributor",
          "type": "address"
        }
      ],
      "name": "getDistributorRegistrations",
      "outputs": [
        {
          "internalType": "uint256[]",
          "name": "",
          "type": "uint256[]"
        }
      ],
      "stateMutability": "view",
      "type": "function"
    },
    {
      "inputs": [
        {
          "internalType": "uint256",
          "name": "contentId",
          "type": "uint256"
        },
        {
          "internalType": "address",
          "name": "distributor",
          "type": "address"
        }
      ],
      "name": "getLicense",
      "outputs": [
        {
          "components": [
            {
              "internalType": "address",
              "name": "distributor",
              "type": "address"
            },
            {
              "internalType": "uint256",
              "name": "contentId",
              "type": "uint256"
            },
            {
              "internalType": "uint256",
              "name": "purchasePrice",
              "type": "uint256"
            },
            {
              "internalType": "uint256",
              "name": "purchaseTimestamp",
              "type": "uint256"
            },
            {
              "internalType": "uint256",
              "name": "expirationTimestamp",
              "type": "uint256"
            },
            {
              "internalType": "bool",
              "name": "isActive",
              "type": "bool"
            }
          ],
          "internalType": "struct LicenseRegistry.License",
          "name": "",
          "type": "tuple"
        }
      ],
      "stateMutability": "view",
      "type": "function"
    },
    {
      "inputs": [
        {
          "internalType": "uint256",
          "name": "registrationId",
          "type": "uint256"
        }
      ],
      "name": "getPlatformRegistration",
      "outputs": [
        {
          "components": [
            {
              "internalType": "address",
              "name": "distributor",
              "type": "address"
            },
            {
              "internalType": "uint256",
              "name": "contentId",
              "type": "uint256"
            },
            {
              "internalType": "string",
              "name": "platform",
              "type": "string"
            },
            {
              "internalType": "string",
              "name": "contentUrl",
              "type": "string"
            },
            {
              "internalType": "string",
              "name": "platformContentId",
              "type": "string"
            },
            {
              "internalType": "uint256",
              "name": "registrationTimestamp",
              "type": "uint256"
            },
            {
              "internalType": "bool",
              "name": "isVerified",
              "type": "bool"
            }
          ],
          "internalType": "struct LicenseRegistry.PlatformRegistration",
          "name": "",
          "type": "tuple"
        }
      ],
      "stateMutability": "view",
      "type": "function"
    },
    {
      "inputs": [
        {
          "internalType": "uint256",
          "name": "contentId",
          "type": "uint256"
        },
        {
          "internalType": "address",
          "name": "distributor",
          "type": "address"
        }
      ],
      "name": "hasValidLicense",
      "outputs": [
        {
          "internalType": "bool",
          "name": "",
          "type": "bool"
        }
      ],
      "stateMutability": "view",
      "type": "function"
    },
    {
      "inputs": [
        {
          "internalType": "uint256",
          "name": "contentId",
          "type": "uint256"
        },
        {
          "internalType": "string",
          "name": "platform",
          "type": "string"
        },
        {
          "internalType": "string",
          "name": "platformContentId",
          "type": "string"
        }
      ],
      "name": "isContentRegisteredOnPlatform",
      "outputs": [
        {
          "internalType": "bool",
          "name": "",
          "type": "bool"
        },
        {
          "internalType": "address",
          "name": "",
          "type": "address"
        }
      ],
      "stateMutability": "view",
      "type": "function"
    },
    {
      "inputs": [
        {
          "internalType": "uint256",
          "name": "",
          "type": "uint256"
        },
        {
          "internalType": "address",
          "name": "",
          "type": "address"
        }
      ],
      "name": "licenses",
      "outputs": [
        {
          "internalType": "address",
          "name": "distributor",
          "type": "address"
        },
        {
          "internalType": "uint256",
          "name": "contentId",
          "type": "uint256"
        },
        {
          "internalType": "uint256",
          "name": "purchasePrice",
          "type": "uint256"
        },
        {
          "internalType": "uint256",
          "name": "purchaseTimestamp",
          "type": "uint256"
        },
        {
          "internalType": "uint256",
          "name": "expirationTimestamp",
          "type": "uint256"
        },
        {
          "internalType": "bool",
          "name": "isActive",
          "type": "bool"
        }
      ],
      "stateMutability": "view",
      "type": "function"
    },
    {
      "inputs": [
        {
          "internalType": "uint256",
          "name": "",
          "type": "uint256"
        }
      ],
      "name": "platformRegistrations",
      "outputs": [
        {
          "internalType": "address",
          "name": "distributor",
          "type": "address"
        },
        {
          "internalType": "uint256",
          "name": "contentId",
          "type": "uint256"
        },
        {
          "internalType": "string",
          "name": "platform",
          "type": "string"
        },
        {
          "internalType": "string",
          "name": "contentUrl",
          "type": "string"
        },
        {
          "internalType": "string",
          "name": "platformContentId",
          "type": "string"
        },
        {
          "internalType": "uint256",
          "name": "registrationTimestamp",
          "type": "uint256"
        },
        {
          "internalType": "bool",
          "name": "isVerified",
          "type": "bool"
        }
      ],
      "stateMutability": "view",
      "type": "function"
    },
    {
      "inputs": [
        {
          "internalType": "uint256",
          "name": "contentId",
          "type": "uint256"
        },
        {
          "internalType": "address",
          "name": "distributor",
          "type": "address"
        },
        {
          "internalType": "uint256",
          "name": "price",
          "type": "uint256"
        }
      ],
      "name": "registerLicense",
      "outputs": [],
      "stateMutability": "nonpayable",
      "type": "function"
    },
    {
      "inputs": [
        {
          "internalType": "uint256",
          "name": "contentId",
          "type": "uint256"
        },
        {
          "internalType": "string",
          "name": "platform",
          "type": "string"
        },
        {
          "internalType": "string",
          "name": "contentUrl",
          "type": "string"
        },
        {
          "internalType": "string",
          "name": "platformContentId",
          "type": "string"
        }
      ],
      "name": "registerPlatform",
      "outputs": [
        {
          "internalType": "uint256",
          "name": "",
          "type": "uint256"
        }
      ],
      "stateMutability": "nonpayable",
      "type": "function"
    },
    {
      "inputs": [],
      "name": "registrationCounter",
      "outputs": [
        {
          "internalType": "uint256",
          "name": "",
          "type": "uint256"
        }
      ],
      "stateMutability": "view",
      "type": "function"
    },
    {
      "inputs": [
        {
          "internalType": "uint256",
          "name": "contentId",
          "type": "uint256"
        },
        {
          "internalType": "address",
          "name": "distributor",
          "type": "address"
        },
        {
          "internalType": "string",
          "name": "reason",
          "type": "string"
        }
      ],
      "name": "revokeLicense",
      "outputs": [],
      "stateMutability": "nonpayable",
      "type": "function"
    },
    {
      "inputs": [
        {
          "internalType": "address",
          "name": "newCoreContract",
          "type": "address"
        }
      ],
      "name": "updateCoreContract",
      "outputs": [],
      "stateMutability": "nonpayable",
      "type": "function"
    },
    {
      "inputs": [
        {
          "internalType": "uint256",
          "name": "registrationId",
          "type": "uint256"
        },
        {
          "internalType": "bool",
          "name": "verified",
          "type": "bool"
        }
      ],
      "name": "verifyPlatformRegistration",
      "outputs": [],
      "stateMutability": "nonpayable",
      "type": "function"
    }
  ],
  "bytecode": "0x60803461007757601f61159238819003918201601f19168301916001600160401b0383118484101761007c5780849260209460405283398101031261007757516001600160a01b0381169081900361007757600080546001600160a01b0319169190911781556001556040516114ff90816100938239f35b600080fd5b634e487b7160e01b600052604160045260246000fdfe6080604052600436101561001257600080fd5b60003560e01c80630511f07214610ff95780630686108d14610edc5780630bf3f62814610e685780630d11ead014610db057806310701fc714610d465780631f66aa6a14610bce57806324b5b98014610b565780632b673a2e14610b1357806346869f0614610aa857806374924cea14610a785780639cd33c4c14610a2e578063b02c059314610950578063b91ef52d1461091f578063beb3f17514610858578063d8847b041461076c578063dfd4d31d146106e4578063e80db5db146106bb578063f2b75ce11461069d578063f55e9a34146101e7578063f8f37167146101605763fae5a3551461010357600080fd5b3461015b57604036600319011261015b5761011c611043565b6001600160a01b031660009081526007602052604090208054602435919082101561015b5760209161014d9161106f565b90546040519160031b1c8152f35b600080fd5b3461015b57604036600319011261015b5760c061017b611059565b6004356000526002602052604060002060018060a01b0380921660005260205260406000209081541690600181015490600281015460038201549060ff6005600485015494015416936040519586526020860152604085015260608401526080830152151560a0820152f35b3461015b57608036600319011261015b576024356001600160401b03811161015b5761021790369060040161109d565b6044356001600160401b03811161015b5761023690369060040161109d565b906064356001600160401b03811161015b5761025690369060040161109d565b9093610264336004356112ff565b1561015b576102746001546112b9565b6001818155600082815260056020526040902080546001600160a01b031916331781556004359181019190915590956001600160401b038311610505576102be600283015461115b565b601f8111610656575b50826000601f82116001146105e6576000916105db575b508360011b906000198560031b1c19161760028301555b6001600160401b03861161050557610310600383015461115b565b601f8111610594575b50856000601f82116001146105265760009161051b575b508660011b906000198860031b1c19161760038301555b6001600160401b03841161050557610362600483015461115b565b601f81116104be575b5091602097918793600090601f8711600114610437579580600693926000805160206114df833981519152979860009261042c575b50508160011b916000199060031b1c19161760048201555b4260058201550160ff198154169055600435600052600688526103df846040600020611284565b33600052600788526103f5846040600020611284565b61042161040f6040519384936040855260408501916112de565b8281038a8401523397600435976112de565b0390a4604051908152f35b013590508c806103a0565b600483979297016000528a6000209660005b601f19841681106104a45750916000805160206114df83398151915296976001926006959483601f1981161061048a575b505050811b0160048201556103b8565b0135600019600384901b60f8161c191690558c808061047a565b8183013589556001909801978b9750908c01908c01610449565b600483016000526020600020601f860160051c8101602087106104fe575b601f830160051c820181106104f257505061036b565b600081556001016104dc565b50806104dc565b634e487b7160e01b600052604160045260246000fd5b905085013589610330565b90506003830160005260206000209060005b601f198916811061057c575087601f19811610610562575b5050600186811b016003830155610347565b860135600019600389901b60f8161c191690558880610550565b9091602060018192858b013581550193019101610538565b600383016000526020600020601f880160051c8101602089106105d4575b601f830160051c820181106105c8575050610319565b600081556001016105b2565b50806105b2565b9050880135896102de565b90506002830160005260206000209060005b8a601f198716821061063e57505084601f19811610610624575b5050600183811b0160028301556102f5565b890135600019600386901b60f8161c191690558880610612565b600183946020939484930135815501930191016105f8565b600283016000526020600020601f850160051c810160208610610696575b601f830160051c8201811061068a5750506102c7565b60008155600101610674565b5080610674565b3461015b57600036600319011261015b576020600154604051908152f35b3461015b57600036600319011261015b576000546040516001600160a01b039091168152602090f35b3461015b5760208060031936011261015b576001600160a01b03610706611043565b1660005260078152604060002090604051908181845491828152019360005281600020916000905b828210610755576107518561074581890382611261565b604051918291826110ca565b0390f35b83548652948501946001938401939091019061072e565b3461015b57604036600319011261015b5760c0610787611059565b600060a060405161079781611246565b82815282602082015282604082015282606082015282608082015201526004356000526002602052604060002060018060a01b03809216600052602052604060002090604051906107e782611246565b825416918282526001810154602083019081526002820154604084019081526003830154916060850192835260a060ff6005600487015496608089019788520154169501941515855260405195865251602086015251604085015251606084015251608083015251151560a0820152f35b3461015b57606036600319011261015b57600435610874611059565b906044356001600160401b03811161015b5761089490369060040161109d565b6000546001600160a01b039291908316330361015b576108b485856112ff565b1561015b577f2b7cc58f47bc3d7d428c5762884c66772aa45284346b22c89c302ca629b40b2492846000526002602052604060002095169485600052602052600560406000200160ff19815416905561091a6040519283926020845260208401916112de565b0390a3005b3461015b5761092d36611145565b9060005260066020526040600020805482101561015b5760209161014d9161106f565b3461015b57602036600319011261015b576004356000526005602052604060002060018060a01b0381541660018201549160405161099c816109958160028601611195565b0382611261565b610a1d6040516109b3816109958160038801611195565b610a0f604051916109d2836109cb8160048a01611195565b0384611261565b610a0160ff600660058901549801541695604051998a998a5260208a015260e060408a015260e0890190611105565b908782036060890152611105565b908582036080870152611105565b9160a0840152151560c08301520390f35b3461015b57610a3c36611145565b9060005260036020526040600020805482101561015b57602091610a5f9161106f565b905460405160039290921b1c6001600160a01b03168152f35b3461015b57604036600319011261015b576020610a9e610a96611059565b6004356112ff565b6040519015158152f35b3461015b57604036600319011261015b5760043560243580151580910361015b5760207f34a69aa246faebb040cfbb55e844a1dccd2fb78d06ede59e71383023b582517d918360005260058252600660406000200160ff1981541660ff8316179055604051908152a2005b3461015b57602036600319011261015b57610b2c611043565b600054906001600160a01b0390818316330361015b576001600160a01b0319909216911617600055005b3461015b5760208060031936011261015b576001600160a01b03610b78611043565b1660005260048152604060002090604051908181845491828152019360005281600020916000905b828210610bb7576107518561074581890382611261565b835486529485019460019384019390910190610ba0565b3461015b5760208060031936011261015b5760405190610bed8261122b565b6000825280820160009052606091826040820152828082015282608082015260a081016000905260c0016000905260043560005260058152604060002060405191610c378361122b565b81546001600160a01b0390811684526001830154828501908152604051919582610c648160028801611195565b03610c6f9084611261565b6040868101938452519283610c878160038901611195565b03610c929085611261565b8682019384526040519283610caa8160048a01611195565b03610cb59085611261565b6080880193845260058701549660a089019788526006015460ff169560c089019615158752604051998a99828b525116908901525160408801525190860160e090526101008601610d0591611105565b9151601f199283878203016080880152610d1e91611105565b9051918582030160a0860152610d3391611105565b915160c084015251151560e08301520390f35b3461015b5760208060031936011261015b5760043560005260068152604060002090604051908181845491828152019360005281600020916000905b828210610d99576107518561074581890382611261565b835486529485019460019384019390910190610d82565b3461015b5760208060031936011261015b5760043560005260038152604060002060405190818382549182815201908192600052846000209060005b86828210610e4b578686610e0282880383611261565b604051928392818401908285525180915260408401929160005b828110610e2b57505050500390f35b83516001600160a01b031685528695509381019392810192600101610e1c565b83546001600160a01b031685529093019260019283019201610dec565b3461015b57606036600319011261015b576001600160401b0360243581811161015b57610e9990369060040161109d565b60449291923591821161015b57604092610eba610ec593369060040161109d565b9290916004356113a6565b825191151582526001600160a01b03166020820152f35b3461015b57606036600319011261015b57600435610ef8611059565b9060443560018060a01b038060005416330361015b57610f1884846112ff565b61015b5782600052600260205280604060002094169384600052602052600560406000208560018060a01b03198254161781558460018201558360028201554260038201556000600482015501600160ff19825416179055826000526003602052604060002091825491600160401b83101561050557610fc1837f60d371ec2b2ecd297567c3935ef1d2823e7d4b3abb46d49650e4dc708f1b0c6895600160409601815561106f565b819291549060031b9188831b921b1916179055846000526004602052610fea8483600020611284565b815190815260006020820152a3005b3461015b57604036600319011261015b57611012611043565b6001600160a01b031660009081526004602052604090208054602435919082101561015b5760209161014d9161106f565b600435906001600160a01b038216820361015b57565b602435906001600160a01b038216820361015b57565b80548210156110875760005260206000200190600090565b634e487b7160e01b600052603260045260246000fd5b9181601f8401121561015b578235916001600160401b03831161015b576020838186019501011161015b57565b6020908160408183019282815285518094520193019160005b8281106110f1575050505090565b8351855293810193928101926001016110e3565b919082519283825260005b848110611131575050826000602080949584010152601f8019910116010190565b602081830181015184830182015201611110565b604090600319011261015b576004359060243590565b90600182811c9216801561118b575b602083101461117557565b634e487b7160e01b600052602260045260246000fd5b91607f169161116a565b90600092918054916111a68361115b565b91828252600193848116908160001461120857506001146111c8575b50505050565b90919394506000526020928360002092846000945b8386106111f45750505050010190388080806111c2565b8054858701830152940193859082016111dd565b9294505050602093945060ff191683830152151560051b010190388080806111c2565b60e081019081106001600160401b0382111761050557604052565b60c081019081106001600160401b0382111761050557604052565b601f909101601f19168101906001600160401b0382119082101761050557604052565b8054600160401b811015610505576112a19160018201815561106f565b819291549060031b91821b91600019901b1916179055565b60001981146112c85760010190565b634e487b7160e01b600052601160045260246000fd5b908060209392818452848401376000828201840152601f01601f1916010190565b60009081526002602090815260408083206001600160a01b03948516808552925282206005810154919392909160ff161561134f5760048201548015159081611356575b5061134f575054161490565b9250505090565b9050421138611343565b9192916001600160401b0382116105055760405191611389601f8201601f191660200184611261565b82948184528183011161015b578281602093846000960137010152565b90929360009482865260209060068252604094858820978651808a86829c54938481520190845286842092845b888282106114c8575050506113ea9250038a611261565b805b89518110156114b95760058582821b8c010151835285528782208851611419816109958160028601611195565b86815191012061142a36868d611360565b8781519101201480611488575b8061146d575b611450575061144b906112b9565b6113ec565b5460019b6001600160a01b039091169a5098505050505050505050565b508054611483906001600160a01b0316896112ff565b61143d565b50885161149c816109958160048601611195565b8681519101206114ad368988611360565b87815191012014611437565b50989750505050505050508190565b855484526001958601958f9550930192016113d356fe29ef76f5f3174f4f75c9bb52556128a12decb6cef4c5edd7bc90de4b886e97b9",
  "linkReferences": {},
  "deployedLinkReferences": {}
}